:100000000C9454020C949B020C949B020C949B0243
:100010000C949B020C949B020C949B020C949B02EC
:100020000C949B020C949B020C9432290C94042A8D
:100030000C94B3210C949B020C949B020C949B0295
:100040000C949B020C949B020C949B020C949B02BC
:100050000C949B020C9400220C949B020C949B0227
:100060000C949B020C949B020C949B020C949B029C
:100070000C949B020C949B020C949B020C949B028C
:100080000C949B020C949B020C949B020C949B027C
:100090000C949B020C949B020C949B020C949B026C
:1000A0000C949B020C949B020C949B02AA0EAD0E26
:1000B000B50EBA0EBF0EC40EC90ECE0ED30ED80E9C
:1000C000DD0EE20EE40EE70EEA0EED0EF00EF30E7C
:1000D000F50EFA0E691769179B179B17E817061894
:1000E000271927191118A618B718B718171927199B
:1000F00027192019D519D519E719E719DE19E719B4
:10010000E719E719D519D519E319E719E719E3191B
:10011000712A982A902B982A902BE42A072B902B4F
:100120005E2B6D2B04000500060007000800090087
:100130000A000B000C000D000E000F001000110053
:1001400000570157160019000000000032190A007C
:10015000047F3F1F643214643214783C1E1E140A5C
:10016000052223252628292A2C2D2F3032333536F7
:10017000383A3B3D3E4042434547494A4C4E505138
:10018000535557595A5C5E6062646668696B6D6F5F
:1001900071737577797B7D7F81838587898A8C8E62
:1001A00090929496989A9C9E9FA1A3A5A7A8AAAC6A
:1001B000AEAFB1B3B4B6B8B9BBBCBEBFC1C2C3C5A4
:1001C000C6C7C9CACBCCCDCED0D1D2D2D3D4D5D646
:1001D000D7D7D8D9D9DADADBDBDBDCDCDCDCDCDD79
:1001E000DDDDDDDCDCDCDCDCDBDBDBDADAD9D9D85D
:1001F000D7D7D6D5D4D3D2D2D1D0CECDCCCBCAC9F5
:10020000C7C6C5C3C2C1BFBEBCBBB9B8B6B4B3B123
:10021000AFAEACAAA8A7A5A3A19F9E9C9A989694BE
:1002200092908E8C8A89878583817F7D7B79777593
:1002300073716F6D6B6968666462605E5C5A595772
:10024000555351504E4C4A4947454342403E3D3B31
:100250003A3836353332302F2D2C2A2928262523BB
:1002600022FFAA7F554000010101010101010101A6
:100270000202020202020202020303030303030357
:100280000304040404040404050505050506060624
:100290000606070707070708080808090909090AE1
:1002A0000A0A0B0B0B0C0C0C0D0D0D0E0E0E0F0F86
:1002B0000F10101111111212131314141515161614
:1002C0001717181819191A1A1B1B1C1D1D1E1E1F83
:1002D0002020212222232424252626272829292AD2
:1002E0002B2C2D2D2E2F30313232333435363738FA
:1002F000393A3B3C3D3E3F404142434445464748F6
:10030000494A4C4D4E4F50515354555658595A5BCB
:100310005D5E5F616264656668696B6C6D6F70726B
:10032000737577787A7B7D7E8082838587888A8CD7
:100330008E8F91939596989A9C9EA0A2A3A5A7A90B
:10034000ABADAFB1B3B5B7BABCBEC0C2C4C6C9CB02
:10035000CDCFD1D4D6D8DBDDDFE2E4E7E9EBEEF0B8
:10036000F3F5F8FAFDFF0403300000000C03480029
:10037000750062003100360000001A034A006F0069
:100380007300680020004A006F0068006E00730070
:100390006F006E0000000403090409023B00020123
:1003A00000A0FA0904000001030101000921110164
:1003B00000012240000705810308000A090401002A
:1003C000010300000009211101000122810007053D
:1003D000820320000A12011001000000086A6A105E
:1003E0004801000102030105010902A1018502097A
:1003F00001A10005091901290515002501950575BB
:10040000018102950175038101050109300931154A
:1004100081257F95027508810609381581257F950C
:100420000175088106050C0A38021581257F9501A2
:1004300075088106C0C005010980A1018503190165
:100440002AB700150126B700950175108100C00577
:100450000C0901A101850419012AA002150126A099
:1004600002950175108100C005010906A10105076B
:1004700019E029E71500250195087501810295010C
:10048000750881010507190029FF150026FF009551
:100490000675088100050819012905950575019162
:1004A00002950175039101C011241FBECFEFDAE060
:1004B000DEBFCDBF04B603FE27C080912803909114
:1004C0002903A0912A03B0912B038730904BA740BA
:1004D000B04BD1F4109228031092290310922A03F2
:1004E00010922B0314BE84B7877F84BF0FB6F89495
:1004F000A8958091600088618093600010926000F0
:100500000FBEE0E0F8E3099512E0A0E0B1E0E2E61A
:10051000FAE502C005900D92A830B107D9F723E0A3
:10052000A8E0B2E001C01D92A832B207E1F70E9434
:100530006C260C942F2D0C940000CF93DF9387989A
:100540008F9857985F98A1E6B1E046E651E061E0E8
:1005500070E08D91E82FE295EF70F0E021A18F70AF
:10056000EB0102C0CC0FDD1F8A95E2F7CE019C2F74
:100570009095922391A392A1892B82A34A175B079E
:1005800041F7ADE5B1E041E651E061E070E08D9109
:10059000E82FE295EF70F0E021A18F70EB0102C02F
:1005A000CC0FDD1F8A95E2F7CE019C2F9095922308
:1005B00091A392A1892B82A34A175B0741F7DF9190
:1005C000CF9108954F925F927F928F929F92AF92B8
:1005D000BF92CF92DF92EF92FF920F931F93CF9330
:1005E000DF9381E6482E81E0582EA0EEB2E095EE32
:1005F000E92E92E0F92EB12C01E010E06D01AC90F3
:100600001C92E20189912E01E82FE295EF70F0E053
:1006100091A18F70980101C0220F8A95EAF7892F66
:10062000822B81A382A1922E9094892182A3D0EA69
:10063000DA95F1F78DE591E060E070E0EC018990EA
:10064000CE01482D42954F7050E0EA0148A17C90C0
:1006500050E0D82DDF7002C055954795DA95E2F746
:1006600040FD08C0502F062E01C0550F0A94EAF72E
:10067000452F01C040E047294C936F5F7F4F6430A6
:100680007105E1F681A1982291A282A1282B22A3D3
:10069000119681E0F60190819A1101C080E0B82A9C
:1006A000EA16FB0609F0AACF5091E9021092E9027E
:1006B00030910902432F440F4093090290910802A0
:1006C000292F220F209308023FB1331F3327331FF6
:1006D000342B3093090299B1991F9927991F922BB6
:1006E0009093080221E03F3709F020E09F3711F096
:1006F00080E001C082E0922F982B9093E90281E084
:10070000591301C080E08B29DF91CF911F910F9188
:10071000FF90EF90DF90CF90BF90AF909F908F9021
:100720007F905F904F900895FC018081813019F493
:1007300082E10C941217823011F40C948204089513
:10074000811106C0662311F084E109C085E107C06C
:10075000813039F4662311F087E101C088E10C94FF
:10076000121708959C013A9521153F4138F5DC0197
:10077000AA27B270AC01442754709C01222738701C
:1007800094FF0FC090FF02C080E101C080E0AB2B5E
:1007900009F08062452B09F08064232B69F08068A2
:1007A0000BC0892F8170AB2B09F08260452B09F0BB
:1007B0008460232B09F08860FB0109940895CF938E
:1007C000DF93EC01805E9109089710F0209719F4EF
:1007D00065E277E102C06BE979E1CE010E94B203E4
:1007E0008C2FDF91CF910C940016CF93DF93EC0107
:1007F0000E94AA16CE01805E9109089710F02097FA
:1008000019F46CE277E102C062EA79E1CE01DF918E
:10081000CF910C94B203CF93DF93EC010E94DF03DE
:10082000CE01DF91CF910C94F50381E0089581E032
:1008300008950C94170408950C941B041F93CF93F0
:10084000DF9300D000D01F92CDB7DEB749835A8323
:100850006B833091680289819A81311114C06623BB
:1008600059F0222349F00E940F1F182F682F898109
:100870009A810E94BA1E03C00E94E41E182F69814B
:100880007A81812F04C00E940F1F69817A810F90A5
:100890000F900F900F900F90DF91CF911F910C94BC
:1008A000F804FC01262F408151816281738184818B
:1008B0000C941E04CF93DF93EC0160E00E9451047E
:1008C000BE01DF91CF910C941C040E94472081113E
:1008D00002C00E94EE200E9446100C9411070E9454
:1008E00054140C940D07282F2F7041F0822F90E0A4
:1008F0002A3010F44D9608950697089587E290E007
:10090000089508950E94C3190E9481042FEF84E383
:100910009CE0215080409040E1F700C000000C9422
:1009200026220F931F93CF93DF93EC0161E00E9487
:1009300051048C01BE010E94B113BE01C8010E9486
:1009400019048823D9F1BE01C8010E94F813882335
:10095000A9F1BE01C8010E94BA10882379F1BE0135
:10096000C8010E947011882349F1BE01C8010E948C
:10097000C211882319F1BE01C8010E94ED1288231B
:10098000E9F0BE01C8010E94930E8823B9F08A8164
:10099000882369F001158CE5180731F00F3D1C45DF
:1009A00031F40E94EE200AC00E94820407C0CE01EA
:1009B000DF91CF911F910F910C94150480E0DF918E
:1009C000CF911F910F91089508950C94E40481E054
:1009D00008950C94E704CF93C82F0E94E5048C2F50
:1009E0000E94E904CF91089580E090E00895089571
:1009F000E72FF0E095E0899FE00DF11D1124EE0F47
:100A0000FF1FEE0FFF1FE60FF11DEE0FFF1FEC5D46
:100A1000FE4F859194910895880F991FFC01E45B26
:100A2000FE4F859194910895CF93DF930E94F8042F
:100A30000E942C06EC018115904508F041C0C115BB
:100A400080E4D80708F0D1C0C83ED10510F5C03EFB
:100A5000D10508F0FDC0C83AD10578F4C53AD105F2
:100A600008F0A2C0C130D10509F4F2C008F4EEC00C
:100A7000C430D10508F0ECC0E9C0CF3BD10508F483
:100A80009BC0C03CD10508F4E1C0CE01805C910957
:100A90009EC0C11590E2D90758F4C11521E0D207D4
:100AA00008F0D6C0C03FD10508F4D0C0D065D0C092
:100AB000C11580E3D80708F08EC0CE019F7087C0B3
:100AC000C11595E5D90708F043C0C11524E5D20743
:100AD00008F0A2C0C11582E5D80708F5C11591E557
:100AE000D90708F085C0CE0174E0969587957A9570
:100AF000E1F783709C2F937021E030E002C0220F59
:100B0000331F9A95E2F73C68382BCF70C695C6958F
:100B100080E2C89FE0011124C22BD32B99C09E0113
:100B2000237033278C2F86958695C115D34508F001
:100B300064C0C1E0D0E002C0CC0FDD1F2A95E2F70F
:100B400020E2829FC0011124C82BD92BDC6880C011
:100B5000C11529E5D207A0F4C11588E5D80708F02A
:100B600060C0C11596E5D90708F070C08C2F0E94AF
:100B7000C0068F71C82FD0E0DC2FCC27D06268C0B0
:100B8000C1152AE5D20708F451C0CE01905681154F
:100B9000904208F05BC08D2F8F710E94C006DD2748
:100BA000D0628F71D82B54C0C55AD0E0CC56DE4FDE
:100BB000C881D0E0D0644CC0C85AD0E0CC0FDD1F53
:100BC000CA59DE4F0990D881C02DD46441C00E941B
:100BD0000C05EC013DC0CE019927D3FF03C0EC0109
:100BE000D86C36C0EC01D06C33C0DF70D06A30C036
:100BF000DC2FCC27C16FD06A2BC0C1E0D0E002C08F
:100C0000CC0FDD1F2A95E2F720E2829FC00111245C
:100C1000C82BD92BDA681CC0DC2FCC27C46FD06A54
:100C200017C0DC2FCC27C06FD06A12C08C2F8F70FA
:100C30000E94C00694E0D695C7959A95E1F7CF70CB
:100C4000D0E0DC2FCC27D069C82B02C0C0E0D0E0B8
:100C5000CE01DF91CF9108958238910569F1B0F40A
:100C60008133910509F46DC048F48932910509F486
:100C700063C08A32910509F469C0089585339105EE
:100C800009F455C089339105B9F00895833E910563
:100C900069F138F4803E9105B1F0823E910509F189
:100CA0000895863E9105A9F1873E9105B9F1843EEC
:100CB000910509F064C023C02091190320FD4FC0A5
:100CC00021FD4DC008958091190380FD44C080919D
:100CD0001A0380FF44C08091190384FD42C083EE53
:100CE0004DC08091190382FF38C0F5CF8091190360
:100CF00082FD33C080911A0380FD31C0ECCF80911A
:100D00001A0381FF32C08091190384FD2AC087EE47
:100D100035C08091190383FF26C0F5CF8091190358
:100D200083FD21C080911A0381FD1FC0ECCF80910B
:100D3000190385FD1CC01DC08091190385FD19C0D4
:100D400016C08091190386FD16C017C08091190343
:100D500086FD13C010C089E311C082EE0FC080EE83
:100D60000DC080E00BC086EE09C084EE07C089E2AA
:100D700005C085E303C08AE201C081E390E00895E5
:100D80009091190392FF0DC0282F2871283019F473
:100D9000877F846006C0282F2471243011F48B7F54
:100DA000886093FF0DC0282F2871283119F4877EA1
:100DB000846106C0282F2471243111F48B7E886150
:100DC00020911A0320FF0DC0382F3871383019F4E4
:100DD000877F816006C0382F3171313011F48E7FEA
:100DE000886021FF0DC0282F2871283119F4877ED3
:100DF000816106C0282F2171213111F48E7E886116
:100E000094FD877E0895E82FF0E0EB51FD4F80813F
:100E10000895089508950C940A070C940B070C94F8
:100E20000A070C940F070E949D02E0EEF2E0A5EE87
:100E3000B2E011921D9282E0E53EF807D1F785E01D
:100E40000E9437070C946504CF9380EE92E00E94D5
:100E5000E202C82F282F45E065EE72E080EE92E0B6
:100E60000E9438070E946F048C2FCF910895089537
:100E7000FF920F931F93CF93DF938C01F62ED72F02
:100E8000C42F222349F081E080930C020E94E521C7
:100E900090930B0280930A0280910C028823C1F088
:100EA00080910A0290910B020E94F121459780F0F7
:100EB000EF2DFD2FD8014C2F50E0CD01801B910B61
:100EC000841795071CF48D918193F7CF10920C0233
:100ED000DF91CF911F910F91FF900895EF92FF92B4
:100EE0000F931F93CF93DF938B01682F11110AC0CB
:100EF000442329F0E82FF0E0EA59FD4F6491762F62
:100F0000862F75C0212F30E0E82FF0E0442321F038
:100F1000EA59FD4FE491F0E046E0049FC00111243E
:100F2000CFEFD0E0BE010E94DE2B4BEA4603C001AA
:100F3000479F900D1124800F911D800F911D982FB8
:100F4000990F890FAE01421B530B4E9FD0014F9F4B
:100F5000B00D5E9FB00D11249B2F189FA00111248E
:100F6000452F55278E01041B150B0E9FA0010F9FC7
:100F7000500D1E9F500D11247E01E81AF108E29ECB
:100F80008001E39E100DF29E100D1124212F3327B6
:100F9000C21BD30BCE9F9001CF9F300DDE9F300D33
:100FA000112462307105A9F048F46115710569F0EA
:100FB00061307105C9F48B2F752F0DC06430710538
:100FC00081F058F06630710579F47E2F8B2F932FC6
:100FD0000DC0832F7B2F9E2F09C08E2F7B2F952F27
:100FE00005C08E2F732F02C07E2F852F692FDF91B2
:100FF000CF911F910F91FF90EF90089541E00E94D3
:101000006E07089508950E94FE070895CF93DF9319
:10101000762FE901682F842F0E9403087983688363
:101020008A83DF91CF9108958091EA02282F269537
:1010300030E02115310519F48170826005C02B3232
:10104000310524F0817084658093EA02089588E078
:1010500090E00C94D02CCF92DF92EF92FF926B0134
:101060007C010E941408B701A60188E090E0FF907F
:10107000EF90DF90CF900C94EE2CEAEEF2E083E05C
:10108000808311828FEF82838383148260817181D8
:10109000828193810C942B088091EA0280FF02C028
:1010A0008695089580E008959091EE02933018F4AB
:1010B0009F5F9093EE02882351F06091EA02709155
:1010C000EB028091EC029091ED020C942B080895B4
:1010D00081E00C9454089091EE02992319F09150FC
:1010E0009093EE02882351F06091EA027091EB0236
:1010F0008091EC029091ED020C942B08089581E010
:101100000C946B0870E00C94040F6091380180918E
:10111000EA0280FF0AC08091370123E0829FC0016C
:10112000112481519D4F0C94820880913901909136
:101130003A01891780F7E82FF0E09F01220F331F53
:10114000E20FF31FE151FD4F1182108212828F5F77
:10115000F0CF9091EA0290FF16C090913901209152
:101160003A01921770F4E92FF0E0DF01AA0FBB1FDC
:10117000EA0FFB1FE151FD4F8183608342839F5F34
:10118000F0CF0C9485080895CF93DF9300D01F9281
:10119000CDB7DEB79091EA0290FF0AC09E012F5FA3
:1011A0003F4F0E9406084B8169818A810E94A908ED
:1011B0000F900F900F90DF91CF910895CF93DF9311
:1011C000EC01EC81F0E0EF59FE4F4491EAEEF2E0E1
:1011D000628181810E94C4088C818F5F8C83DF9142
:1011E000CF910895CF93DF93EC01EAEEF2E04381D3
:1011F00062818C810E94C4088C818F5F8C83DF9117
:10120000CF9108950F931F93CF93DF9300D01F9238
:10121000CDB7DEB78C0180910D0281110AC09E010D
:101220002F5F3F4F4FEF6FEF0E9406088A81809338
:101230000D02F8018481813051F028F0823061F490
:1012400040910D020AC080910D0240E007C06091FC
:101250000D0240E080E003C040E080E060E00E94DA
:10126000A908F801848190E0019663E070E00E9493
:10127000F22B84830F900F900F90DF91CF911F91ED
:101280000F910895AF92BF92CF92DF92EF92FF92AB
:101290000F931F93CF93DF9300D01F92CDB7DEB78C
:1012A000182FF62E042FE22E9091EA0290FF6DC0C7
:1012B000E92FE695AE2FB0E0A956BE4F8C918093F2
:1012C0004E029E7F923061F49E012F5F3F4F812F2F
:1012D0000E9406084B8169818A810E94A90843C047
:1012E000823019F40091ED023EC0863019F410915D
:1012F000EB0239C08930D9F38931A9F5E9518E2F34
:101300008170D82EE695F0E0EF59FD4FA590B4908E
:10131000C12CBB2460913B01C61618F52C2D30E082
:10132000A29EC001A39E900DB29E900D112470E06C
:101330000E94DE2B812FD11002C0860F01C0861BB8
:1013400090913901290F311DA901440F551F240F18
:10135000351F21513D4F402F6F2D0E940608C39429
:10136000D9CF0E9485081093EB02F092EC02009313
:10137000ED02EE2051F06091EA027091EB02809153
:10138000EC029091ED020E942B080F900F900F90AD
:10139000DF91CF911F910F91FF90EF90DF90CF9051
:1013A000BF90AF900895EAEEF2E09181282F43813B
:1013B000628188E0890F0C94420981E00C94D30982
:1013C000EAEEF2E09181282F4381628188EF890F54
:1013D0000C94420981E00C94E009EAEEF2E06281AB
:1013E00028E0620F08F46FEF282F438181810C946D
:1013F000420981E00C94ED09EAEEF2E0628128E016
:10140000621B08F460E0282F438181810C9442091B
:1014100081E00C94FC09EAEEF2E0438128E0420FFF
:1014200008F44FEF282F628181810C94420981E0FA
:101430000C940B0AEAEEF2E0438128E0421B08F428
:1014400040E0282F628181810C94420981E00C9454
:101450001A0A20E00C944209FF920F931F93CF9336
:10146000DF93EC01F12C0FEF10E060913B01F616D9
:10147000F0F4809139012F2D30E0280F311DC90182
:10148000880F991F280F391F21513D4F70E0C80167
:101490000E94F22B962F8C814091ED026091EC021C
:1014A000F99E800D11240E940608F394DECF0E945D
:1014B00085089A818C8190FF02C08F5F01C08150A6
:1014C0008C83DF91CF911F910F91FF900895AF9280
:1014D000BF92CF92DF92EF92FF920F931F93CF9321
:1014E000DF93FC01828180FF02C00FEF01C001E0A9
:1014F00010E04BE0A42E80913B01181708F043C088
:1015000080913901C12ED12CE601C80FD11DCE0129
:10151000880F991FC80FD91FC151DD4F198218823A
:101520001A8234E0E32EF12CB12C80910F028B0D46
:101530008C302CF06A2D0E94D02B892F05C087FF9C
:1015400003C090913B01890F082E000C990BC8161F
:10155000D90691F48091ED028E9DA0018F9D500DD2
:10156000112455954795559547959E016091EC023C
:101570008091EB020E940608B00EF1E0EF1AF1082C
:10158000A1F61F5FB8CF0E94850880910F0201303D
:1015900031F4811102C080913B01815007C090E07D
:1015A000019660913B0170E00E94F22B80930F0244
:1015B000DF91CF911F910F91FF90EF90DF90CF902F
:1015C000BF90AF900895CF938091390190913A01E7
:1015D000891770F4E82FF0E09F01220F331FE20F0C
:1015E000F31FE151FD4F1182108212828F5FF0CF05
:1015F000C0E060913B01C617C0F5EC2FF0E070E051
:10160000CF010E94F22B20913901820F20910E020E
:10161000022E000C330B90E0E217F307CCF0209180
:101620003601022E000C330B2E173F078CF09C0165
:10163000220F331F820F931F9C0121513D4F409178
:10164000ED026091EC028091EB020E9406080BC053
:10165000FC01EE0FFF1F8E0F9F1FFC01E151FD4F9C
:10166000118210821282CF5FC4CF0E948508209120
:10167000350180910E02820F80930E029091360107
:10168000920F9093360119165CF4082E000C990BFA
:1016900040913B0150E041505109841795071CF0DF
:1016A000219520933501CF9108958F929F92AF920B
:1016B000BF92CF92DF92EF92FF920F931F93CF933F
:1016C000DF938C01FC014481C42FD0E09E01DE0138
:1016D0000E94362C9B01AC010E944C2C6B017C01BA
:1016E000E0E2F0E0EC1BFD0BA5E5B0E09B01AC01F6
:1016F0000E944C2C4B015C019F01DF010E942E2CAB
:101700009B01AC010E94572C9B01AC012C0D3D1D8F
:101710004E1D5F1DC501B4010E94062CC22FD22FA1
:101720002A3228F4F3E02F9F900111240DC025E503
:1017300030E02C1B3109C901880F991F280F391F70
:1017400037FF02C02F5F3F4F35952795C22FC095B9
:10175000F12C85E5E82EED1A80913B01F816C8F4CE
:10176000F1FC02C08E2D01C08D2F909139012F2DDB
:1017700030E0290F311DA901440F551F240F351FDB
:1017800021513D4F4C2F6091EC020E940608F394CA
:10179000E3CF0E948508F8018481811102C091E0A5
:1017A00003C0803219F49FEF90933401909134017B
:1017B000890FF8018483DF91CF911F910F91FF90E2
:1017C000EF90DF90CF90BF90AF909F908F90089553
:1017D0000F931F93CF93DF93EC0100E010E0809113
:1017E0003B01282F30E00217130724F590913901AF
:1017F0009801290F311DA901440F551F240F351FD2
:1018000021513D4F869590E04C81081719071CF433
:10181000442331F002C0411103C04091ED0201C0E8
:1018200040E06091EC028091EB020E9406080F5F9D
:101830001F4FD5CF0E9485088C8190E00196817062
:1018400099278C83DF91CF911F910F9108958F92EB
:101850009F92AF92BF92CF92DF92EF92FF920F933F
:101860001F93CF93DF93FC01B280948081E0848347
:1018700000E015E05BE4A52E88248394EE24EA942E
:10188000F12C7BE4C72ED12C80913B01081708F086
:101890008FC0C02FD0E01C9FF0011D9FF00D1124C0
:1018A000E05FFD4F911003C01382128267C0238155
:1018B000222389F1215023833481332319F09A2D77
:1018C000921B01C0922F8091ED021C9FF0011D9F81
:1018D000F00D1124E05FFD4F899FC0011124B60176
:1018E0000E94DE2B6283211104C0332311F0148285
:1018F000A38222E02B1508F441C01C9FF0011D9F1C
:10190000F00D1124E05FFD4F8091EB028083809108
:10191000EC02818333C00E94AB2C8230914074F57D
:1019200082E08B1530F40E94AB2CB7010E94F22BA1
:1019300002C08091EB021C9FF0011D9FF00D11244D
:10194000E05FFD4F808322E02B1558F40E94AB2C02
:101950002091EC022695622F70E00E94F22B820FFC
:1019600002C08091EC021C9FF0011D9FF00D11241C
:10197000E05FFD4F81831282A382848280913901CE
:101980009E01280F311DC901880F991F280F391F8B
:1019900021513D4F1C9FF0011D9FF00D1124E05F70
:1019A000FD4F4281618180810E9406080F5F6CCFEC
:1019B000DF91CF911F910F91FF90EF90DF90CF902B
:1019C000BF90AF909F908F900C948508EAEEF2E064
:1019D00080818E7F808360817181828193810E946A
:1019E0002B0810924F022FEF80E792E021508040A9
:1019F0009040E1F700C000000C948508EAEEF2E0A8
:101A000080818E7F808310924F022FEF80E792E0DB
:101A1000215080409040E1F700C000000C94850800
:101A20006091EA02669570E04BE050E08CE391E053
:101A30000E94BB2C892B19F481E080934F020E94F5
:101A4000E521909348028093470208959091EA021D
:101A500090FF35C09170811102C0926006C08B3238
:101A600010F0946502C0880F982B9093EA026623C9
:101A700051F06091EA027091EB028091EC0290913A
:101A8000ED020E942B086091EA02669570E04BE03F
:101A900050E08CE391E00E94BB2C892B19F010924E
:101AA0004F0202C00E94100D81E080934A024091D3
:101AB000ED026091EC028091EB020C94290A0895EA
:101AC000682F9091EA02969581E0890F8B3208F099
:101AD00081E00C94260D81E00C94600D682F9091AC
:101AE000EA0296958FEF890F09F48AE20C94260D8D
:101AF00081E00C946E0D61E00C94260DEAEEF2E0AC
:101B000080818160808386950C947B0D8091EA02B0
:101B100080FD0C94E60C0C947E0D60E00C94260D78
:101B200080914D0281112EC00E944720811104C076
:101B30000E94EE200E943D080E9427086093EA025E
:101B40007093EB028093EC029093ED026E7F61F450
:101B50000E943D080E9427086093EA027093EB02FE
:101B60008093EC029093ED020E94140810924F02B1
:101B70008091EA0280FF03C086950E948D0D81E06E
:101B800080934D020895EAEEF2E0808181608083C7
:101B900086950C948D0D10924F0208950F931F930C
:101BA000CF93DF9380914F02882309F49CC08091EA
:101BB0004E02E091EA02E695E81BE093490282308A
:101BC00049F4F0E0E35AFE4FE491CE2FD0E00EED61
:101BD00018E059C0863049F4F0E0E65AFE4FE4912F
:101BE000CE2FD0E002EF18E04EC0893051F4E695D8
:101BF000F0E0E95AFE4FE491CE2FD0E00CE21AE07B
:101C000042C08F3051F4E695F0E0EC5AFE4FE4917B
:101C1000CE2FD0E007E61AE036C0853149F4F0E077
:101C2000EF5AFE4FE491CE2FD0E003EE1AE02BC026
:101C30008831D9F0833239F4EFE4F1E0C591D491E1
:101C400002E019E020C08432A9F08532C1F48E2F61
:101C500063E00E94C42BE92FF0E0E45BFE4FE491C7
:101C6000CE2FD0E007E21CE00EC0C8E2D0E005E5D0
:101C70001BE009C0C4EFD1E008EE1BE004C0C0EDDA
:101C8000D7E002E018E080914A02882389F01092A0
:101C90004A020E94E5219E0120953095820F931FF4
:101CA000909348028093470210924C0210924B028C
:101CB00080914702909148020E94F1218C179D0764
:101CC00090F0E0914702F0914802CE0FDF1FD093D1
:101CD0004802C093470287E492E0F801DF91CF9178
:101CE0001F910F910994DF91CF911F910F9108954A
:101CF000882311F0FA0101C0FB010994CF93DF930F
:101D0000C82FD62F0E944C088C1740F00E944C0818
:101D10008D1720F4DF91CF910C946B0D8C2FDF91F8
:101D2000CF910C947B0D0F931F93CF93FB01C28136
:101D3000CC2309F463C08C010E94901F8272F801C9
:101D4000E35CFC45E431F10508F059C0EA5AFF4F65
:101D50000C94282C0E94860D06C048E75DE06BE6D7
:101D60007DE00E94780EC0E04AC04BE65DE068E787
:101D70007DE0F7CF4AEE59E06DED79E0F2CF4DED21
:101D800059E06AEE79E0EDCF48E05AE069EF79E09A
:101D9000E8CF49EF59E068E07AE0E3CF46E25AE065
:101DA00067E17AE0DECF47E15AE066E27AE0D9CF38
:101DB0004FE758E068E678E0D4CF48E658E06FE7B0
:101DC00078E0CFCF81E017C065E082E010C068E026
:101DD00086E00DC06EE089E00AC064E18FE007C0D4
:101DE00067E185E104C088E106C062E289E10E9402
:101DF0007E0EB9CF83E20E947B0DB5CFC1E08C2F60
:101E0000CF911F910F910895519A2BB12D7F3BB126
:101E100032604FB7F894FC01CB01880F991F680F0F
:101E2000791F6E0F7F1FE617F70789F0819198E001
:101E30003BB9000000C087FF2BB9880F000000C02D
:101E400000C000C02BB900C09A9591F7ECCF4FBFEE
:101E50008FE594E00197F1F700C0000008950C941D
:101E6000A003FF920F931F93CF93DF93C4E5D2E0BB
:101E700044ED51E022ED31E061E070E0F2E0C63582
:101E8000DF0709F44CC0FA010191AF01A02FA29520
:101E9000AF70B0E09196EC9191970F70CB01002E4E
:101EA00001C0880F0A94EAF7982F90959E23919687
:101EB0009C93919792969C919297892B92968C9352
:101EC0009297F90111919F01E12FE295EF70F0E0F7
:101ED000F1A01F70CB01012E01C0880F0A94EAF710
:101EE000982F90959F2191A392A1892B82A39096E0
:101EF0008C9190E002C0959587950A95E2F78170E4
:101F0000E0A1F0E002C0F595E7951A95E2F7E0FD53
:101F100002C090E001C092E0892B8993AFCFDF919E
:101F2000CF911F910F91FF9008953F924F925F9232
:101F30006F927F928F929F92AF92BF92CF92DF92D9
:101F4000EF92FF920F931F93CF93DF9384E5682E58
:101F500082E0782E94EDE92E91E0F92E02ED11E069
:101F600022E5822E22E0922EC0E5D2E063015301E9
:101F7000312C34E0432E512CD501ED915D014E2FD3
:101F8000440F440FF60141936F01D7012D917D015C
:101F9000E22FE295EF70F0E080A190E02F7002C098
:101FA000959587952A95E2F781709927F8015191C7
:101FB0008F01E52FE295EF70F0E020A130E05F7037
:101FC00002C0359527955A95E2F7F901E170FF2790
:101FD00020FF02C0E2E0F0E0E82BF92BE42BD30174
:101FE000ED933D01EF70F0E0EE53FE4F9081F40170
:101FF0008081890F808384303CF088818F5F888363
:1020000060E0832D0E942F0FD4018C918D3F3CF412
:1020100088818150888361E0832D0E942F0FF40115
:102020008081082E000C990BB2010E94F22BD40182
:102030008D934D0133942196B2E03B129DCFDF91F9
:10204000CF911F910F91FF90EF90DF90CF90BF90B5
:10205000AF909F908F907F906F905F904F903F9048
:102060000895CF93DF9397FF0DC0FB0122812223B8
:1020700049F0EC010E945C10CE019F770E949D10F8
:102080000E94861081E0DF91CF9108958CE090E06E
:102090000E94C82C90E0A0E0B0E0809310039093E1
:1020A0001103A0931203B0931303089560911003DA
:1020B0008CE090E00C94DC2C0E94901F8093140321
:1020C0000E94A31F80911003813071F048F082308C
:1020D00081F08430A1F486EE0E94121788E10DC0D1
:1020E00082EE0E9400160BC088E193E00E940B0470
:1020F00006C082EE0E94001687E50E9412178FE349
:102100009CE90197F1F700C0000008958091100349
:10211000813039F040F0823031F0843051F488E27F
:1021200006C08CE204C082EE0E94AA1602C00E9481
:102130001217809114030C94A01F0F931F93CF9339
:10214000DF938C01CCE0D0E0C8010C2E02C0969544
:1021500087950A94E2F78F700E9473040E940B0423
:102160002497CC3F8FEFD80779F7DF91CF911F915C
:102170000F9108950F931F93CF93DF93EC018B0181
:10218000FB018281882361F00E94901FCE01825E54
:102190009C458530910520F4809310030E945610D1
:1021A000B801CE01DF91CF911F910F910C943110A6
:1021B000AF92BF92CF92DF92EF92FF920F931F9355
:1021C000CF93DF937C015B01C42FD22FFC0182816E
:1021D0008823F9F0409358020E94E521909357021A
:1021E0008093560280E28C0F883008F06EC0C77072
:1021F00081E001C0880FCA95EAF7DF91CF911F9166
:102200000F91FF90EF90DF90CF90BF90AF900C9424
:10221000251780915802481335C08091560290913D
:1022200057020E94F1216C01B701C5010E947C1C7C
:10223000C816D90638F510E21D0FCD17B9F080E2A7
:102240008C0F883040F4C77081E001C0880FCA95B8
:10225000EAF70E942C17183058F581E09D2F9770EF
:1022600001C0880F9A95EAF70E942517802F0E94D7
:102270001217183050F5D77081E001C0880FDA9539
:10228000EAF70AC080E28C0F8830F8F4C77081E06A
:1022900001C0880FCA95EAF7DF91CF911F910F9186
:1022A000FF90EF90DF90CF90BF90AF900C942C17E1
:1022B000802FDF91CF911F910F91FF90EF90DF90D2
:1022C000CF90BF90AF900C941217DF91CF911F91D8
:1022D0000F91FF90EF90DF90CF90BF90AF90089557
:1022E0000F939C01CB01243F4CE5340731F188F476
:1022F000293DFCE53F07D9F02A3D4CE5340779F14B
:10230000283D3C45A9F506E221EE41EE68ED7CE56D
:102310002BC0263FFCE53F07E1F0A8F0273F3C45F6
:1023200039F507E225EE46EE67EF7CE51DC007E2D2
:1023300025EE45EE69ED7CE517C006E221EE40EEA4
:1023400064EF7CE511C007E225EE44EE65EF7CE525
:102350000BC006E221EE42EE66EF7CE505C008E226
:1023600021E045EE6AED7CE50E94D81080E008C0CF
:10237000FC018281882319F01092580201C081E08B
:102380000F910895CF93DF93EC01FB0182818823A5
:1023900009F41FC1C230FCE5DF0708F41BC1C631D8
:1023A0009CE5D90738F09E012B5F3C45293031056B
:1023B00008F010C10E945A2090931A0380931903C9
:1023C000C031ECE5DE0709F4C3C008F041C0C830F5
:1023D0008CE5D80709F49AC0F0F4C430ECE5DE07C8
:1023E00009F487C068F4C2308CE5D80709F477C0D7
:1023F000C330DC4509F0E3C080911903826076C0E8
:10240000C630ECE5DE0709F46EC008F07BC08091B1
:10241000190388606BC0CC308CE5D80709F485C0FF
:1024200068F4CA30ECE5DE0709F474C008F079C03E
:102430000E94C31980911903806858C0CE308CE582
:10244000D80709F476C008F07FC0809119038BC0CB
:10245000CC3FECE5DE0709F44FC018F5C3318CE53D
:10246000D80709F47DC078F4C131ECE5DE0709F442
:1024700073C0C231DC4509F0A2C00E94C31980912B
:1024800019038F7733C0C5318CE5D80709F472C0C2
:1024900008F486C0CB3FDC4509F091C080911A0357
:1024A0003EC0C115FDE5DF0709F45FC058F4CE3F1B
:1024B0009CE5D90709F444C008F43FC080911A0391
:1024C00082602DC0C230FDE5DF0709F475C008F455
:1024D0005DC0C330DD4509F072C080E06EC0809100
:1024E0001903816003C080911903806180931903EF
:1024F00066C08091190311C080911A038260809395
:102500001A035DC0809119038062F0CF8091190396
:102510008064ECCF8091190388608460E7CF81608C
:10252000EECF809119038E7FE1CF809119038D7FCB
:10253000DDCF80911903877FD9CF80911A0318C00E
:1025400080911A038D7FDBCF809119038F7ECECFD0
:10255000809119038F7DCACF809119038F7BC6CFDD
:1025600080911903877F8B7FC1CF80911A038D7F64
:102570008E7FC5CF8091190382FB222720F991E03D
:10258000922790FB82F990FB83F9B0CF80911A03D8
:10259000982F909591708E7F892B90FB81F9AFCF0A
:1025A0000E94C3198091190387FB222720F991E02B
:1025B000922790FB87F99ACF81E00E94F0208091CA
:1025C000190390911A030E946B200E94C31980E0A6
:1025D00001C081E0DF91CF910895CF93DF938631E1
:1025E0009C4541F5EB010E94901F982F8A81209114
:1025F000480130914901882379F09A7A81E009F401
:1026000080E080935902911102C069E201C065E344
:10261000C9010E9437210AC080915902811102C06C
:1026200069E201C065E3C9010E9439210E94E41FEB
:1026300080E001C081E0DF91CF910895CF93DF93D7
:10264000EC0181E0898B8F810E94931F88850E9415
:10265000A91F0E94E41FEA81FB81CE0106963097F4
:1026600029F06C897D89DF91CF910994DF91CF9119
:102670000895CF93DF93FC012081223041F4FB01C8
:10268000EC01828193810E94DF0381E08B87DF91DF
:10269000CF910895FC018081813021F4FB0180817C
:1026A000918105C0823029F4FB01828193810C94D1
:1026B000DF030895FC018081813021F4FB018081DA
:1026C000918105C0823029F4FB01828193810C94B1
:1026D000F5030895EF92FF920F931F93CF93DF932B
:1026E000FC012285211136C0EC01E380F480F7E57E
:1026F000FF1A26E12E9DC0012F9D900D1124DC01B3
:10270000AC5FBE4F1496ED91FC911597865F9E4F7E
:10271000309729F054966D917C915597099586E1F3
:102720008E9D80018F9D100D11240C5F1E4FF801AE
:1027300087810E94991FF80180850E94AF1F0E9427
:10274000E41F188219861B861E821D8210925B026E
:1027500010925A02DF91CF911F910F91FF90EF904D
:102760000895DF92EF92FF920F931F93CF93DF9321
:10277000FB0122812223A1F1209147012F3F81F10A
:102780008C01C4E0D1E0E12CF12CDD24D3948091C4
:102790004701082E000C990B8E159F050CF18E81B8
:1027A0008823C9F089859A858017910739F480912B
:1027B0005A0290915B020817190769F0DF861C879F
:1027C0000B878989811103C0CE010E941E13CE019F
:1027D00006960E946A13FFEFEF1AFF0A6696D7CF9C
:1027E000DF91CF911F910F91FF90EF90DF900895AF
:1027F000EF92FF920F931F93CF93DF939C01375576
:102800002F3F310511F008F047C040914701042ED9
:10281000000C550B4217530714F420934701FB019A
:102820007C01828196E1929F8001939F100D11247B
:10283000E801CC5FDE4F888B92818E81992311F164
:10284000FA86E9868F5F8E830E94E5219E878D87B9
:102850000E94C91F8F830E94901F88870E94A61F15
:102860009885892B8887E881F981C801865F9E4F0A
:10287000309719F06C897D890995F0925B02E0929E
:102880005A020AC0882341F08989882329F0C801A7
:10289000865F9E4F0E946A1381E0DF91CF911F9166
:1028A0000F91FF90EF900895CF92DF92EF92FF92F9
:1028B0000F931F93CF93DF93809147018F3F09F4CC
:1028C00042C0F12C86E1E82E0F2D10E080914701E7
:1028D000082E000C990B80179107ACF1E09EF001D7
:1028E000E19EF00D1124EC5FFE4FC288D388C11425
:1028F000D10439F460E070E0818592850E947C1CEF
:102900006C01E09EE001E19ED00D1124CC5FDE4F12
:102910008E818823B1F08D859E850E94F121C81695
:10292000D90678F48989811103C0CE010E941E1353
:10293000E09EC001E19E900D1124865F9E4F0E9493
:102940006A13F394C1CFDF91CF911F910F91FF9044
:10295000EF90DF90CF900895909361028093600292
:102960000895E0916002F0916102309721F00190AA
:10297000F081E02D099480E00895E0916002F091EB
:102980006102309721F00280F381E02D09940895CF
:10299000E0916002F0916102309739F022E0DC01B1
:1029A0002C930480F581E02D0994089520915E0216
:1029B00030915F022817390771F090935F0280937E
:1029C0005E02E0916002F0916102309721F0068092
:1029D000F781E02D0994089520915C0230915D0209
:1029E0002817390771F090935D0280935C02E091A3
:1029F0006002F0916102309721F00084F185E02DB2
:102A00000994089585B7806885BF85B7806885BFBC
:102A1000089581E008950C94091508950C940D15FE
:102A20000C940D150C9410150C940D150C94141594
:102A30000C940D150E9402150E9418150C94161581
:102A40000E94DC210E9413070E9437220E94900DF1
:102A50000E94310F0C941215AF92BF92CF92DF9269
:102A6000EF92FF920F931F93CF93DF93CDB7DEB713
:102A70002A970FB6F894DEBF0FBECDBF0E940E1589
:102A80000E940D150E9424070E940B15811111C090
:102A90008FEF89838A831B820E94E5218160782FD2
:102AA0009D838C8349815A816B818D810E94CC15D5
:102AB00040C083E6A82E82E0B82E00E010E0C02ED1
:102AC000802F0E940307E82EF501D1905F01D826E0
:102AD00031F40F5F1F4F0530110589F7D9CF809171
:102AE000C50281FD0E94090780E0FF24F3949D2D1B
:102AF0009F21D1F08E83CF82EF2081E009F480E026
:102B000088870E94E5218160782F9A8789874E8186
:102B10005F8168858A850E94CC15F801ED59FD4FCB
:102B20008081F826F08205C08F5FFF0C8430F9F6B3
:102B3000D0CF0E94CE0D0E94950F0E94E6230E94E6
:102B4000B114909162028917B1F00E94B114809380
:102B500062022A960FB6F894DEBF0FBECDBFDF919A
:102B6000CF911F910F91FF90EF90DF90CF90BF908A
:102B7000AF900C94EB042A960FB6F894DEBF0FBE0C
:102B8000CDBFDF91CF911F910F91FF90EF90DF901C
:102B9000CF90BF90AF900895CF93DF93CDB7DEB7BE
:102BA0002B970FB6F894DEBF0FBECDBF4F8358876B
:102BB00069877A878B87DE01119686E0FD01119285
:102BC0008A95E9F785E0FE01379601900D928A9586
:102BD000E1F749815A816B817C818D819E810E94C0
:102BE0007F1C2B960FB6F894DEBF0FBECDBFDF91D2
:102BF000CF910895FC01808191810E94511F089519
:102C0000CF93882309F4A4C0C82F8238C1F40E944E
:102C1000B11481FD9DC069E3809148019091490103
:102C20000E9437210E94E41F2FEF81EE94E0215093
:102C300080409040E1F700C0000069E319C083388C
:102C400001F50E94B11480FD83C063E580914801C5
:102C5000909149010E9437210E94E41F2FEF81EEDD
:102C600094E0215080409040E1F700C0000063E50F
:102C700080914801909149010E943921CF910C9493
:102C8000E41F8438C1F40E94B11482FD61C067E47E
:102C900080914801909149010E9437210E94E41FD0
:102CA0002FEF81EE94E0215080409040E1F700C08A
:102CB000000067E4DDCF8CEF8C0F813AD0F46C2FED
:102CC00080914801909149010E940121882349F097
:102CD0006C2F80914801909149010E9439210E94F6
:102CE000E41F6C2F80914801909149010E94372187
:102CF000C5CF80E28C0F883048F4C77081E001C0F6
:102D0000880FCA95EAF70E94931FB8CFEBE5EC0F46
:102D1000E33040F4F0E0EC5FFD4F808190E0CF9134
:102D20000C94D614E8E5EC0FE73150F4F0E0EE0F28
:102D3000FF1FEA52FE4F80819181CF910C94EC14D9
:102D4000C03F30F08C2F0E94DB22CF910C94C8231F
:102D5000CF910895882309F464C0823879F40E94E1
:102D6000B11481FF5EC069E38091480190914901EF
:102D70000E9437210E94E41F69E310C08338B1F438
:102D80000E94B11480FF4DC063E58091480190918D
:102D900049010E9437210E94E41F63E580914801A8
:102DA000909149010E9439210C94E41F843879F4F0
:102DB0000E94B11482FF35C067E480914801909170
:102DC00049010E9437210E94E41F67E4E7CF9CEF8E
:102DD000980F913A10F4682FE1CF90E2980F983055
:102DE00050F4877091E001C0990F8A95EAF7892F16
:102DF0000E94991FD9CF9BE5980F933020F480E073
:102E000090E00C94D61498E5980F973120F480E068
:102E100090E00C94EC14803F20F00E9443230C942B
:102E2000C8230895CF93C82F0E940016C93349F4D0
:102E30002FEF87EE93E0215080409040E1F700C0F3
:102E400000008C2FCF910C94AA16882321F00E94A9
:102E5000931F0C94E41F0895882321F00E94991F6A
:102E60000C94E41F0895CF92DF92EF92FF920F939C
:102E70001F93CF93DF937C01062FC72FFC01158191
:102E800012951F70D281D1110E94B61F0E94891F16
:102E9000882399F0DD2389F08C2F807F803421F006
:102EA00080E2800F883048F082E00E942E200E944D
:102EB000891F91E0D82ED92601C0D12CCC2EC294E6
:102EC0008FE0C8228C2D90E0FC01E659FF4F0C9456
:102ED000282C8C2F807FCF70882311F0C295C07F63
:102EE000DD2399F0CC2309F48DC180E2800F883076
:102EF00010F0011104C08C2F0E94931F03C08C2F6F
:102F00000E94A91F0E94E41F7DC1802F0E94AA1663
:102F1000CC2309F49CC180E2800F883010F00111AD
:102F200004C08C2F0E94991F03C08C2F0E94AF1FDA
:102F30000E94E41F8CC18C2F807FCF70803211F0F3
:102F4000C295C07F002319F00130C9F022C0DD23F3
:102F500071F0112341F0113031F40E94C91F8C2B04
:102F60000E94D11F74C10E94C91F8C2B1DC0112348
:102F700019F0113009F46BC10E94DA1F25C0DD235E
:102F800021F0163008F063C10EC0153008F05FC1A3
:102F90001BC0DD2361F0112331F0F701858180FF33
:102FA00031C18F7085838C2F0E94251750C111234A
:102FB00059F0093309F037C1FFEF27EE83E0F150F4
:102FC00020408040E1F72DC18C2F0E942C173FC17B
:102FD0008C2F86958695837019F0813061F037C10A
:102FE000DD2321F0802F9C2F937002C080E090E0C1
:102FF0000E94D61434C1DD2321F0802F9C2F9370C2
:1030000002C080E090E00E94EC1429C1802FDD23F3
:1030100019F00E94DB2202C00E9443230E94C823B1
:103020001EC18C2F837009F045C0D11114C1402FEF
:10303000429546954770440F440F602F6F70862F5E
:1030400090E0A0E0B0E0042E04C0880F991FAA1FF2
:10305000BB1F0A94D2F704FF10C00FE010E020E07D
:1030600030E004C0000F111F221F331F4A95D2F712
:10307000009510952095309503C000E010E0980170
:10308000C695C695C370BC01CD01602B712B822BF8
:10309000932BC23049F058F4C13019F00E94D01D72
:1030A000DAC00E94BE1DD7C00E94E21DD4C00E949B
:1030B000BC1DD1C0DD2319F08C2F817001C0869515
:1030C000882309F4C8C0402F429546954770440FA5
:1030D000440F602F6F70862F90E0A0E0B0E0042EC8
:1030E00004C0880F991FAA1FBB1F0A94D2F704FFC0
:1030F00010C00FE010E020E030E004C0000F111F0E
:10310000221F331F4A95D2F70095109520953095D0
:1031100003C000E010E09801C695C695C370BC01DD
:10312000CD01602B712B822B932BC23049F058F4C8
:10313000C13019F00E94951E8EC00E94831E8BC064
:103140000E94A71E88C00E94F61D85C0CF70DD2397
:1031500039F08C2F0E941C1E802F0E9425177BC0E7
:10316000802F0E942C178C2F0E943D1E74C0023F9E
:1031700001F128F4003F41F0013FA1F03FC0033FBF
:10318000F9F0043F39F13AC0DD2341F0153008F081
:103190005EC08C2F8F710E94621E59C0163008F0DD
:1031A00056C0F7CFDD2339F08C2F8F710E941C1E83
:1031B0004EC0DD23C9F38C2F8F710E943D1E47C086
:1031C000DD2329F08C2F8F710E94071E40C00E94C2
:1031D000021E3DC0DD2349F0CF718C2F0E941C1EC2
:1031E00063E08C2F0E94192032C081E00E942E20C3
:1031F000123068F182E00E942E2029C0DD2331F0D8
:10320000112391F2802F0E94001621C0112399F200
:10321000093349F49FEFE7EEF3E09150E040F040CE
:10322000E1F700C00000802F0E94AA1610C04C2FAA
:103230004F70602FC7010E94F4040E942D1D0FC023
:103240004C2F4F70602FC7010E94F70408C088EF11
:103250008C0D843020F40E94B1140E94EB04DD2018
:10326000C9F00E94851F80FD15C0F70112820E94DF
:103270007F1F0E941C1EC7010E946B190E947F1FA6
:10328000DF91CF911F910F91FF90EF90DF90CF9042
:103290000C943D1EDF91CF911F910F91FF90EF9005
:1032A000DF90CF9008950F931F93CF93DF93EC019E
:1032B000688179818A810E945C1F8C010E94B91EFD
:1032C0000E94AA1DB801CE010E943317DF91CF9151
:1032D0001F910F910895CF93DF93EC01988189811D
:1032E0002B813C81232B31F08F3F31F481E09F3FD4
:1032F00019F403C081E001C080E080FD19C0CE0157
:103300000E94910481110CC00E94891F882381F0C2
:103310008A81882369F082E0DF91CF910C942E207E
:10332000CE010E945319CE01DF91CF910C945A0423
:10333000DF91CF910895882321F00E94A91F0C945A
:10334000E41F0895882321F00E94AF1F0C94E41F0E
:1033500008950E94B61F0E94C61F0E94E41F0E948B
:10336000F9240E94C82380E090E00E94D61480E0F7
:1033700090E00C94EC1480914801909149010E94D6
:103380003B210C94A9190E94A31F0C94BB19E92F8F
:10339000E295EF704E2F50E0FA013297EE30F105D2
:1033A000B0F4E658FF4F0C94282C803F91F018F4AD
:1033B000883E68F40EC0843F51F40BC0883E48F04C
:1033C000813F29F406C093FB882780F9089580E0A7
:1033D000089581E008950E94511F0E94C719089521
:1033E000CF93DF9300D000D01F92CDB7DEB70F9000
:1033F0000F900F900F900F90DF91CF910895CF9382
:10340000DF9300D000D000D0CDB7DEB726960FB640
:10341000F894DEBF0FBECDBFDF91CF9108951F930B
:10342000CF93DF93C091690216E080916A02C817BA
:1034300099F0D0E01C9FF0011D9FF00D1124E5597B
:10344000FD4F4081518162817381848195810E9409
:10345000FF192196C770E9CFDF91CF911F91089591
:1034600040919B0250919C0260919D0270919E023E
:1034700080919F029091A0020C94FF190F931F93CB
:10348000CF93DF938091A00282958F7009F05DC089
:1034900080919D02882309F458C08091690210919F
:1034A0006A0260919B0270919C02C0919E02D09131
:1034B0009F0291E06F3F09F090E0292F06E081170D
:1034C00009F443C0209721F07F3F21F030E003C092
:1034D00031E001C0322F90E030FD34C0089FF00190
:1034E000099FF00D1124DF01A559BD4F11963C91A4
:1034F0001197371327C03C91361324C012963C9184
:10350000129731111FC013964D915C9114974C1B6B
:103510005D0B483C5105B0F48091A0028F70806132
:103520008093A002E059FD4F80818F70806180837D
:103530008BE992E00E946B19DF91CF911F910F915F
:103540000C940F1A01968770BACFDF91CF911F911B
:103550000F9108959F92AF92BF92CF92DF92EF9218
:10356000FF920F931F93CF93DF93CDB7DEB7619791
:103570000FB6F894DEBF0FBECDBF8C0185E0F80119
:10358000DE011D9601900D928A95E1F7F8014081C8
:103590005181E28090919B0260919C0220919E0259
:1035A00030919F022115310531F06F3F31F481E0F8
:1035B0009F3F19F403C081E001C080E0F82FF17053
:1035C0009F2E80FD46C1F801A380B4808BE9C82EF0
:1035D00082E0D82EF0909D02F501E21BF30BFF2054
:1035E00009F4DFC08091A002E83CF10508F09BC01F
:1035F000282F207F09F052C0561313C0491311C061
:10360000FE2CE1100EC08F7080618093A0020E949A
:10361000301AC6010E946B198091A002F8018583BF
:1036200058C1AB2831F05F3F31F481E04F3F19F4CE
:1036300003C081E001C080E080FD03C081E08E25F1
:1036400002C080E090E0F82FF170FF2E80FF1CC0D8
:103650008091690220916A0236E0821709F417C14D
:1036600090E0389FF001399FF00D1124E559FD4F8E
:103670006181561306C06081461303C06281E61261
:1036800003C001968770E9CFFE2CEE2009F421C11A
:103690008091A00281608093A0025AC0561306C098
:1036A000491304C0E11002C0F8019FC04D875E8736
:1036B0008D859E850E94EB19882379F1EE2069F1B2
:1036C0002091A002822F82958F7090E0029774F073
:1036D00080919B0290919C0298878F831986BB866C
:1036E000AA862C87CE0107960E946B1986E0F80106
:1036F000ABE9B2E001900D928A95E1F70E943E1A83
:103700000E94301A0DC0561729F14D875E878D85AE
:103710009E850E94EB1981112CC0C8010E946B1973
:10372000FF24F394D6C0282F207F69F77A2DB98A19
:10373000A88A6E2D89890E94F0198BE992E00E9477
:103740006B1986E0F60111928A95E9F70E94301A0A
:10375000F12CBFC04913D9CFE110D7CFF801858331
:10376000C8010E946B1986E0F60111928A95E9F76B
:10377000B0C0EE2091F22091A002822F82958F702E
:1037800090E002970CF4B2CF80919B0290919C0242
:103790009A8389831B82BD82AC822E83CE010196DF
:1037A000A3CFE83CF10508F047C0FE2CEE2009F459
:1037B000B4CF561330C049132EC02091A00220FD73
:1037C00021C0822F82958F70482F50E041155105FE
:1037D000C9F0F80125834F30510541F08F5F982FD4
:1037E0009295907F822F8F70892B8583C8010E94CC
:1037F0006B1986E0F801ABE9B2E001900D928A9571
:10380000E1F742C086E0F801ABE9B2E001900D9229
:103810008A95E1F75EC04D875E878D859E850E9403
:10382000EB19811163CF8091A00281608093A00287
:10383000C8010E946B194DC07A2DB98AA88A6E2DD5
:1038400089890E94F01986E0F60111928A95E9F7BC
:103850001BC0EE2009F461CF4D875E878D859E8564
:103860000E94EB19F82E882309F457CF86E0F8015F
:10387000ABE9B2E001900D928A95E1F78BE992E015
:103880000E94FA150E943E1A0E94301A22C04D87EB
:103890005E878D859E850E94511F292F22952F704E
:1038A000223028F49F7039F0811105C00BC02430FC
:1038B00028F49F7049F4805E883020F0C8010E948F
:1038C0006B199F2CF92C05C0F8019581907F99F711
:1038D000F9CF8F2D61960FB6F894DEBF0FBECDBF26
:1038E000DF91CF911F910F91FF90EF90DF90CF90DC
:1038F000BF90AF909F90089588EC90E008951F933B
:10390000CF93DF93CDB7DEB72C970FB6F894DEBF19
:103910000FBECDBF4F83588769877A878B879C8777
:10392000CE0107960E94AA1A8823D1F09F8188852C
:103930002A853B85232B31F08F3F31F481E09F3F77
:1039400019F403C081E001C080E080FD47C04F81D1
:10395000588569857A858B859C850E94FF193EC0B4
:1039600086E0FE013796DE01119601900D928A9550
:10397000E1F7FF81E8856A857B856115710531F086
:10398000EF3F31F481E0FF3F19F403C081E001C053
:1039900080E080FD23C020916A0230E0C9010196D9
:1039A000877099274091690250E084179507F1F1DB
:1039B000F983EA837D836C8396E0929FD001939F85
:1039C000B00D1124A559BD4FFE01319601900D9205
:1039D0009A95E1F780936A020E940F1A16E080918F
:1039E000690290916A02891771F1189FC001112430
:1039F00085599D4F0E94AA1A882329F1E0916902F6
:103A00001E9FF0011124E559FD4F408151816281D3
:103A10007381848195810E94FF198091690290E0F1
:103A200001968770992780936902D9CF0E94C319A4
:103A300010926A0210926902EBE9F2E086E0DF017F
:103A40001D928A95E9F72C960FB6F894DEBF0FBE4B
:103A5000CDBFDF91CF911F910895EF92FF920F9309
:103A60001F93CF93DF938C01892B09F46CC0F12C49
:103A7000EE24E394E8012196F8018491843740F420
:103A8000843008F051C0813081F0823019F15BC080
:103A9000853709F444C0A8F19CE7980F903708F0E7
:103AA00052C08F770E94AA1641C00E5F1F4FFE01C1
:103AB000849190E2980F983050F48770FE2D01C0E9
:103AC000FF0F8A95EAF78F2F0E94B91F14C00E943A
:103AD00000162DC00E5F1F4FFE01849190E2980FDB
:103AE000983060F48770FE2D01C0FF0F8A95EAF7C9
:103AF0008F2F0E94BF1F0E94E41F19C00E94AA16A8
:103B000016C00E5F1F4FFE01C491CC2381F08FE9D8
:103B10009FE00197F1F700C00000C150F6CF0E5FA3
:103B20001F4FFE01F49003C00E9400168E018F2DDE
:103B3000882309F49FCFEFE9FFE03197F1F700C048
:103B400000008150F5CFDF91CF911F910F91FF9031
:103B5000EF900895089508950C94AB1D0C94AC1D3E
:103B60000E94AE1D6093B4027093B5028093B602BA
:103B70009093B7020C94A9190C94B01D0F931F9346
:103B80000091B4021091B5022091B6023091B702B3
:103B9000602B712B822B932B1F910F910C94B01DD6
:103BA0000F931F930091B4021091B5022091B602B9
:103BB0003091B70260237123822393231F910F91C9
:103BC0000C94B01D0F931F930091B4021091B50295
:103BD0002091B6023091B702602771278227932780
:103BE0001F910F910C94B01D0C94AB1D0E94F41DFD
:103BF0006093B0027093B1028093B2029093B302CB
:103C00000C94A91960E070E0CB010C94F61D0F93A1
:103C10001F9341E050E060E070E08A019B0104C026
:103C2000000F111F221F331F8A95D2F7C901B80157
:103C30001F910F910C94F61D0F931F9341E050E0DC
:103C400060E070E004C0440F551F661F771F8A951F
:103C5000D2F78091B0029091B102A091B202B091DE
:103C6000B3028A019B01082B192B2A2B3B2BC9017C
:103C7000B8011F910F910C94F61D0F931F9341E013
:103C800050E060E070E004C0440F551F661F771FCE
:103C90008A95D2F740955095609570958091B002C5
:103CA0009091B102A091B202B091B3028A019B013E
:103CB000082319232A233B23C901B8011F910F911F
:103CC0000C94F61D0F931F9341E050E060E070E00C
:103CD00004C0440F551F661F771F8A95D2F7809145
:103CE000B0029091B102A091B202B091B3028A01E8
:103CF0009B01082719272A273B27C901B8011F91D3
:103D00000F910C94F61D0F931F930091B002109128
:103D1000B1022091B2023091B302602B712B822B41
:103D2000932B1F910F910C94F61D0F931F930091ED
:103D3000B0021091B1022091B2023091B30260231F
:103D40007123822393231F910F910C94F61D0F93DF
:103D50001F930091B0021091B1022091B2023091F4
:103D6000B30260277127822793271F910F910C942C
:103D7000F61D0895990F990F890FE82FE695E6959E
:103D8000E695877051E001C0550F8A95EAF785E006
:103D9000E89FF0011124EF55FD4F20E030E070E086
:103DA0004081CB01022E02C0969587950A94E2F7D6
:103DB0008170819584278523842781932F5F3F4FCE
:103DC0002530310569F70895990F990F890F682FEC
:103DD000669566956695982F977085E0689FB00107
:103DE000112440E050E080E0FB01E40FF51FEF55A7
:103DF000FD4F208130E0092E02C0369527950A94A8
:103E0000E2F721703327042E01C0220F0A94EAF74B
:103E1000822B4F5F5F4F4530510531F70895BF92B8
:103E2000CF92DF92EF92FF920F931F93CF93DF9386
:103E30008C01C090B002D090B102E090B202F0903C
:103E4000B3028091B4029091B502A091B602B091F4
:103E5000B702C82AD92AEA2AFB2ACFE1D0E0D70143
:103E6000C6010C2E04C0B695A795979587950A9420
:103E7000D2F780FD04C0219790F7B12C07C0BC2E6B
:103E8000B8018C2F0E9414050197A9F38B2DDF91A7
:103E9000CF911F910F91FF90EF90DF90CF90BF9047
:103EA0000895CF93DF93EC010E940F1FBE010E9483
:103EB0001405DF91CF9108951F93CF93DF93EB010A
:103EC00090916802992321F0CB010E94511F13C0E9
:103ED000882349F0CB010E940F1F182F682FCE01B5
:103EE0000E94BA1E04C0CB010E94E41E182FBE011E
:103EF000812F0E941405DF91CF911F910895809129
:103F0000B80285958595859508958091B80287704A
:103F100008959091B802977081E009F480E00895C7
:103F20008091C40208959091C402892B8093C402A9
:103F3000089580959091C40289238093C4020895C6
:103F40008093C40208951092C40208958091C30220
:103F500008959091C302892B8093C30208958095A0
:103F60009091C30289238093C30208951092C302E3
:103F700008959091C202892B8093C2020895809582
:103F80009091C20289238093C20208951092C202C6
:103F900008958091B902089508950C94CC1F0C9453
:103FA000CD1F9091B902981721F08093B9020C941B
:103FB000CF1F08958091B902882329F01092B90289
:103FC00080E00C94CF1F0895E0914801F0914901E1
:103FD0008091C4028083E0914801F0914901908171
:103FE0008091C302892B8083E0914801F0914901BF
:103FF00090818091C202892B80838091B9028823AD
:1040000081F0E0914801F09149019081892B8083F2
:1040100080914801909149010E94F52081110E94F0
:10402000DA1F80914801909149010C94BD140C94C1
:10403000CC1F98E0899F90011124262B2093B80271
:104040000E941C1E8091B8028595859585950C94DB
:1040500017201092B80280E00C9417202091B8022B
:10406000809582238093B802982F977079F430E07E
:10407000482F082E000C550B2417350739F085956D
:10408000859585950E943D1E0C942920089580E019
:1040900090E00E94D62C21E08C3E9E4F09F020E05B
:1040A000822F089582E090E00C94C82C83E090E089
:1040B0000C94C82CCF9384E090E00E94C82CC82FA9
:1040C00081E290E00E94C82C2C2F30E0A901582BEF
:1040D000CA01CF910895CF93C92F682F84E090E053
:1040E0000E94DC2C6C2F81E290E0CF910C94DC2CB0
:1040F000AB01BC018FE090E00C94EE2CAB01BC0155
:1041000083E190E00C94EE2C60E070E0CB010C9425
:104110007E2060E070E0CB010E9478200C94842027
:104120006CEE7EEF80E090E00E94FA2C60E082E08E
:1041300090E00E94DC2C60E083E090E00E94DC2CA8
:104140001092B4021092B5021092B6021092B70209
:1041500060E084E090E00E94DC2C60E081E290E08E
:104160000E94DC2C60E085E090E00E94DC2C60E0A6
:1041700086E090E00E94DC2C6FEF87E090E00E94E8
:10418000DC2C40E050E0BA0188E090E00E94EE2C88
:1041900060E08DE090E00E94DC2C40E050E0BA014D
:1041A00088E190E00E94EE2C60E087E190E00E94C0
:1041B000DC2C40E050E0BA018CE190E00E94EE2C53
:1041C00060E080E290E00E94DC2C40E050E0BA0128
:1041D00088E190E00E94EE2C0C9489200C949020B1
:1041E000682F8EE090E00C94DC2CFC01329697E076
:1041F00080E0915029F021912223D9F38F5FF9CFEC
:104200000895662349F0FC013296089621916217C1
:1042100029F0E817F907D1F780E0089581E00895C3
:104220009C01FC0132969FEF80E04191461789F096
:104230009F3F19F4411101C0982F8F5F8630A9F775
:104240009F3F39F0F901E90FF11D97FDFA9562835F
:10425000089508959C012A5F3F4FFC014281461357
:1042600001C01282019682179307B9F708950C9442
:1042700010210C942A21029626E0FC0111922A9525
:10428000E9F7089508950C9442210C944221CF93AC
:104290000E9445210E9424070E944321C0E08C2FE8
:1042A0000E940307811104C0CF5FC530C1F701C070
:1042B00081E0CF9108950C9442210C945B210E94DF
:1042C0005D2180911F03843009F439C01092C60229
:1042D00020E488E190E00FB6F894A8958093600000
:1042E0000FBE2093600080E00E94EB040E94CB0D83
:1042F0008091C70281110AC081E08093C70280913A
:10430000EA0281708093C8020E94FE0C0E945D2127
:1043100083B7817F846083BF83B7816083BF7894D4
:10432000889583B78E7F83BF0FB6F894A895809148
:104330006000886180936000109260000FBE089555
:104340000C9442210E94C3190E94B1140E94EB04F4
:104350001092C7028091C80281110E94C30D0E9471
:10436000100D0C94A0211F920F920FB60F921124E2
:104370008F939F93AF93BF938091C602811113C017
:104380008091150390911603A0911703B091180323
:104390004196A11DB11D8093150390931603A09320
:1043A0001703B0931803BF91AF919F918F910F9016
:1043B0000FBE0F901F90189582E084BD93E095BDCD
:1043C0009AEF97BD80936E0008952FB7F89480916F
:1043D000150390911603A0911703B09118032FBFF6
:1043E00008959C014FB7F89480911503909116039E
:1043F000A0911703B09118034FBF821B930B089530
:1044000078941F920F920FB60F9211248F939F935F
:10441000AF93BF938091150390911603A09117035A
:10442000B09118030196A11DB11D809315039093BF
:104430001603A0931703B0931803BF91AF919F91F8
:104440008F910F900FBE0F901F90189587E797E7F9
:1044500090930108809300089AE088E10FB6F894E1
:10446000A895809360000FBE90936000FFCF0E94DC
:104470004720811102C00E94EE200E9452208093AA
:10448000C5020E945A2090931A03809319030E9438
:104490005620682F70E080E090E00E94BC1D609183
:1044A000B0027091B1028091B2029091B3020C946B
:1044B000F41D8091CF0280FF0BC060914F0185E019
:1044C000689FB001112475956795759567952BC008
:1044D00081FF09C060914F0185E0689FB001112400
:1044E0007595679520C082FF07C060914F0185E0F8
:1044F000689FB001112417C09091CE029923D1F08A
:1045000060914E01961788F720914F0185E0289F12
:1045100090011124929FA001939F500D112470E0EF
:10452000CA010E94F22B6038710540F461157105D3
:1045300019F406C065E070E0862F08958FE70895AE
:1045400081E008958091CF0280FF08C060914B0107
:1045500070E0759567957595679521C081FF06C0D8
:1045600060914B0170E07595679519C082FF04C09A
:1045700060914B0170E010C09091CD02992399F0A9
:1045800060914A019617A0F780914B01899FC00165
:10459000112470E00E94F22B6038710540F461151F
:1045A000710519F406C061E070E0862F08958FE769
:1045B000089581E00895803F21F40E945922819559
:1045C00004C0813F29F40E9459228093D3020895A8
:1045D000823F21F40E945922819504C0833F29F42F
:1045E0000E9459228093D2020895893F19F40E94B3
:1045F000A22205C08A3F31F40E94A22281958093B5
:10460000D40208958B3F21F40E94A222819504C018
:104610008C3F29F40E94A2228093D5020895843F02
:1046200021F48091D102816017C0853F21F48091EF
:10463000D102826011C0863F21F48091D102846052
:104640000BC0873F21F48091D102886005C0883F6C
:1046500031F48091D10280618093D10208958D3F21
:1046600021F48091CF0281600BC08E3F21F48091B4
:10467000CF02826005C08F3F29F48091CF02846011
:104680008093CF020895803F39F48091D30287FF51
:104690006AC01092D30267C0813F29F48091D3028F
:1046A0001816BCF360C09091D202823F29F497FFA4
:1046B0005AC01092D20257C0833F19F41916CCF396
:1046C00052C09091D402893F31F419160CF04BC0BE
:1046D0001092D40248C08A3F19F497FF44C0F8CF23
:1046E0008B3F39F48091D50287FF3DC01092D502EF
:1046F0003AC08C3F29F48091D5021816BCF333C020
:10470000843F21F48091D1028E7F17C0853F21F430
:104710008091D1028D7F11C0863F21F48091D1021A
:104720008B7F0BC0873F21F48091D102877F05C02A
:10473000883F31F48091D1028F7E8093D10213C0E3
:104740008D3F21F48091CF028E7F0BC08E3F21F4EC
:104750008091CF028D7F05C08F3F29F48091CF02D9
:104760008B7F8093CF028091D202811106C080910D
:10477000D302811102C01092CE028091D402811125
:1047800006C08091D502811102C01092CD02089519
:104790000E94E5212091D202211104C02091D30270
:1047A000222321F09093CC028093CB022091D4025B
:1047B000211104C02091D502222321F09093CA0236
:1047C0008093C90280ED92E00C94C814EF92FF929E
:1047D0000F931F93CF93DF9300D000D000D0CDB7BD
:1047E000DEB786E0E0EDF2E0DE01119601900D9279
:1047F0008A95E1F7E090D202F090D3020091D402C2
:104800001091D5021092D2021092D3021092D402CB
:104810001092D502E11003C0FF2009F45DC0809121
:10482000CB029091CC020E94F121AC019091CE027A
:10483000992339F02091500130E02417350758F0C2
:104840004BC0209151018AE0289F90011124241728
:10485000350718F041C09F3F19F09F5F9093CE023B
:10486000EE2061F00E9459221E1414F09FEF01C047
:1048700091E0989F902D11249093D202FF2061F037
:104880000E9459221F1414F09FEF01C091E0989FDD
:10489000902D11249093D3023091D2023323E1F072
:1048A0002091D3022223C1F045EB3403C00111242F
:1048B000992319F09093D20203C081E08093D20231
:1048C00035EB2303C0011124992319F09093D302EF
:1048D00003C081E08093D302011103C0112309F4C6
:1048E0005DC08091C9029091CA020E94F121AC0181
:1048F0009091CD02992339F020914C0130E024179A
:10490000350758F04BC020914D018AE0289F900157
:1049100011242417350718F041C09F3F19F09F5FFD
:104920009093CD02002361F00E94A222101614F091
:104930009FEF01C091E0989F902D11249093D40295
:10494000112361F00E94A222111614F09FEF01C002
:1049500091E0989F902D11249093D5023091D4022C
:104960003323E1F02091D5022223C1F045EB34033B
:10497000C0011124992319F09093D40203C081E05F
:104980008093D40235EB2303C0011124992319F03D
:104990009093D50203C081E08093D5028091D2022A
:1049A00081110BC08091D302811107C08091D40284
:1049B000811103C08091D50281110E94C823EB822E
:1049C000FC820D831E8386E0FE013196A0EDB2E0ED
:1049D00001900D928A95E1F726960FB6F894DEBF06
:1049E0000FBECDBFDF91CF911F910F91FF90EF9040
:1049F0000895E0EDF2E086E0DF011D928A95E9F787
:104A00001092CE021092CD021092CF0208958091A2
:104A1000DE020895CF93DF9300D01F92CDB7DEB7AB
:104A200090911F03943019F589837B836A8382E018
:104A30008093E9008FEF9091E800815095FD06C0CA
:104A400095ED9A95F1F700008111F5CF8091E8007E
:104A500085FF0DC040E050E063E070E0CE010196BC
:104A60000E9426278091E8008E778093E8000F90BF
:104A70000F900F90DF91CF910895BC0184E00C94CA
:104A80000A25BC0183E00C940A2522E02093E9006A
:104A90002FEF3091E800215035FD06C035ED3A95F5
:104AA000F1F700002111F5CF2091E80025FF0BC0A0
:104AB00040E050E066E070E00E9426278091E80028
:104AC0008E778093E8000895CF93DF9321E02093C1
:104AD000E9002FEF3091E800215035FD06C035ED9B
:104AE0003A95F1F700002111F5CF2091E80025FF5C
:104AF00014C0EC0140E050E068E070E00E9426271E
:104B00008091E8008E778093E80088E0FE01A6EDB2
:104B1000B2E001900D928A95E1F7DF91CF9108956F
:104B200080911E03811109C00E94B7280E94142998
:104B30008091E20084608093E200089510921E0349
:104B40000895089508950C94A22142E061EC81E05B
:104B50000E94302842E261EC82E00C94302880917F
:104B60002103833009F460C030F4813071F0823069
:104B700009F499C008958A3009F485C08B3009F48E
:104B80006BC0893009F0A7C020C080912003813A12
:104B900009F0A1C08091E800877F8093E8008091B0
:104BA000240390912503892B21F468E086ED92E09F
:104BB00003C060E080E090E070E00E947127809187
:104BC000E8008B778093E80008958091200381327C
:104BD00009F081C08091240390912503029708F089
:104BE0007AC08091E800877F8093E8008091E80098
:104BF00082FD05C080911F038111F8CF6CC0209108
:104C0000F3008091F20090E0922B029729F48091BA
:104C1000F1008B7F813021F48091F1008093DE02DE
:104C20008091E8008B7753C080912003813A09F08E
:104C300052C08091240390912503892B09F04BC029
:104C40008091E800877F8093E8008091E80080FFF2
:104C5000FCCF80915C0136C0809120038132D9F570
:104C60008091240390912503892BA9F58091E80078
:104C7000877F8093E8000E946528809122038093BB
:104C80005C010C94C31980912003813221F580913D
:104C9000E800877F8093E8000E94652880912303C5
:104CA0008093DF02089580912003813AA1F48091DE
:104CB000E800877F8093E8008091E80080FFFCCFC8
:104CC0008091DF028093F1008091E8008E778093DD
:104CD000E8000C946528089584B7877F84BF0FB6D9
:104CE000F894A8958091600088618093600010928C
:104CF00060000FBE90E080E80FB6F89480936100EA
:104D0000909361000FBE0E941A150E94B7280E945E
:104D100014298091E20084608093E20078940E94DC
:104D2000A92B0E94201582E591E00E94AC1480918D
:104D30001F03853069F40E945F2180911D03882341
:104D4000B1F30E944721882391F30E941027EFCFEF
:104D50000E942C150E940E150E940D15E8CF0C9490
:104D6000B126292F332723303105C9F060F42130D3
:104D7000310581F02230310509F04AC08BE390E023
:104D80002AE933E049C02132310511F122323105DF
:104D900079F13EC082E190E025ED33E03DC09927F6
:104DA0008130910561F040F08230910559F0039710
:104DB00079F5E6E6F3E008C0E6E9F3E005C0EAE7E6
:104DC000F3E002C0ECE6F3E0849190E09F0124C0A0
:104DD0006115710541F061307105D1F489E090E011
:104DE00025EC33E019C089E090E02CEA33E014C0F0
:104DF0006115710541F06130710551F481E890E071
:104E000027EE33E009C080E490E028E634E004C0F7
:104E100080E090E020E030E0FA01318320830895C3
:104E200080E189BD82E189BD09B400FEFDCF80919A
:104E3000D8008F7D8093D8008091E00082608093BD
:104E4000E0008091E00081FDFCCF0895CF92DF92D9
:104E5000EF92FF920F931F93CF93DF93EC018B019F
:104E60007A010E948428811133C0E114F10439F0E1
:104E7000F70180819181081B190BC80FD91FC12C24
:104E8000D12C0115110519F18091E80085FD16C09E
:104E90008091E8008E778093E800E114F10449F0F6
:104EA000F70180819181C80ED91ED182C08285E030
:104EB0000FC00E948428882321F30AC0899180931F
:104EC000F10001501109FFEFCF1ADF0ADACF80E0BD
:104ED000DF91CF911F910F91FF90EF90DF90CF90D6
:104EE000089520912603309127032617370748F0AD
:104EF0006115710539F42091E8002E772093E800C0
:104F000001C0B901FC0120E06115710579F18091C2
:104F10001F038823F1F18530F1F18091E80083FDD2
:104F20003CC08091E80082FD2EC08091E80080FFA7
:104F3000EBCF2091F3008091F20090E0922B61156D
:104F4000710551F08830910538F421912093F100DA
:104F5000615071090196F3CF21E0089709F020E034
:104F60008091E8008E778093E800CECF2111CFCFDB
:104F70000AC080911F03882361F0853061F0809121
:104F8000E80083FD0AC08091E80082FFF2CF80E054
:104F9000089582E0089583E0089581E008952091C6
:104FA0002603309127032617370748F0611571054E
:104FB00039F42091E8002E772093E80001C0B90170
:104FC000FC0120E06115710591F180911F03882398
:104FD00009F440C0853009F43FC08091E80083FDAA
:104FE0003DC08091E80082FD2FC08091E80080FFE5
:104FF000E9CF2091F3008091F20090E0922B6115AF
:10500000710559F08830910540F424912093F10006
:105010003196615071090196F2CF21E0089709F0AD
:1050200020E08091E8008E778093E800CBCF2111BB
:10503000CCCF0AC080911F03882361F0853061F0D6
:105040008091E80083FD0AC08091E80082FFF2CFE2
:1050500080E0089582E0089583E0089581E0089556
:10506000982F973068F59093E900981739F0709170
:10507000EC002091ED005091F00003C0242F762F1A
:1050800050E021FD02C09F5FECCF3091EB003E7FEE
:105090003093EB003091ED003D7F3093ED00309187
:1050A000EB0031603093EB007093EC002093ED0047
:1050B0005093F0002091EE0027FDE5CF80E00895A9
:1050C0008F708093E90081E008958091200387FF2D
:1050D00011C08091E80082FD05C080911F038111FD
:1050E000F8CF11C08091E8008B770BC080911F032F
:1050F000882349F08091E80080FFF8CF8091E80094
:105100008E778093E80008952091E4003091E500C7
:1051100095E64091EC00842F817040FF23C0809180
:10512000E80080FD1DC080911F03882399F0853021
:1051300099F08091EB0085FD11C04091E400509101
:10514000E5002417350729F3915011F09A01E1CFBA
:1051500084E0089582E0089583E0089581E0089551
:1051600080E008954091E80042FFDDCF08950E945D
:1051700025290E942D29E0EEF0E080818160808366
:10518000E8EDF0E080818F77808319BCA7EDB0E077
:105190008C918E7F8C9380818F7E808310921E03F2
:1051A00008950F931F93CF93DF930E9425290E94A8
:1051B0002D29C8EDD0E088818F7788838881806829
:1051C000888388818F7D888319BC10921F03109279
:1051D0001B0310921D0310921C0300EE10E0F80157
:1051E00080818B7F808388818160888342E060E05A
:1051F00080E00E943028E1EEF0E080818E7F8083A5
:10520000E2EEF0E08081816080838081886080832D
:10521000F80180818E7F8083888180618883DF911F
:10522000CF911F910F910895E8EDF0E080818F7E7E
:105230008083E7EDF0E080818160808384E082BF3D
:1052400081E080931E030C94D128E8EDF0E080818A
:105250008E7F80831092E20008951092DA001092FF
:10526000E10008951F920F920FB60F9211242F9311
:105270003F934F935F936F937F938F939F93AF93DE
:10528000BF93EF93FF938091E10082FF0BC0809169
:10529000E20082FF07C08091E1008B7F8093E100F4
:1052A0000E94A82B8091DA0080FF1FC08091D80057
:1052B00080FF1BC08091DA008E7F8093DA0080919E
:1052C000D90080FF0DC080E189BD82E189BD09B4AC
:1052D00000FEFDCF81E080931F030E94902505C052
:1052E00019BC10921F030E949E258091E10080FF4F
:1052F00019C08091E20080FF15C08091E2008E7F8E
:105300008093E2008091E20080618093E2008091CE
:10531000D80080628093D80019BC85E080931F0379
:105320000E94A2258091E10084FF30C08091E200BC
:1053300084FF2CC080E189BD82E189BD09B400FEF3
:10534000FDCF8091D8008F7D8093D8008091E100BF
:105350008F7E8093E1008091E2008F7E8093E20057
:105360008091E20081608093E20080911B0388239A
:1053700011F084E007C08091E30087FD02C081E066
:1053800001C083E080931F030E94A3258091E10068
:1053900083FF29C08091E20083FF25C08091E10056
:1053A000877F8093E10082E080931F0310921B03AC
:1053B0008091E1008E7F8093E1008091E2008E7FFA
:1053C0008093E2008091E20080618093E20042E0FD
:1053D00060E080E00E9430288091F0008860809337
:1053E000F0000E94A125FF91EF91BF91AF919F9195
:1053F0008F917F916F915F914F913F912F910F907E
:105400000FBE0F901F9018951F920F920FB60F921C
:1054100011242F933F934F935F936F937F938F93B9
:105420009F93AF93BF93CF93DF93EF93FF93C0917D
:10543000E900CF708091EC00D82FD17080FDD0E8CA
:105440001092E9008091F000877F8093F0007894BB
:105450000E94482A1092E9008091F00088608093B1
:10546000F000CD2BCF70C093E900FF91EF91DF9159
:10547000CF91BF91AF919F918F917F916F915F91EC
:105480004F913F912F910F900FBE0F901F90189545
:105490001F93CF93DF93CDB7DEB7AA970FB6F894DB
:1054A000DEBF0FBECDBFE0E2F3E08091F10081935B
:1054B00023E0E832F207C9F70E94AF258091E800A7
:1054C00083FF2EC18091200390912103492F50E04A
:1054D0004A30510508F024C1FA01E857FF4F0C94F7
:1054E000282C803821F0823809F01AC108C0809138
:1054F0001C0390911D03992389F082600FC0809155
:1055000024038F70873008F00BC18093E9008091ED
:10551000EB0085FB882780F91092E9009091E80064
:10552000977F9093E8008093F1001092F100D1C032
:10553000282F2D7F09F0F4C0882319F0823061F004
:10554000EFC080912203813009F0EAC0933009F066
:1055500080E080931D032EC08091220381112AC018
:10556000809124038F702FEF280F263008F0D8C0C9
:105570008093E9002091EB0020FF1CC0933021F4C0
:105580008091EB00806214C09091EB009061909349
:10559000EB0021E030E0A90102C0440F551F8A95BD
:1055A000E2F74093EA001092EA008091EB008860F5
:1055B0008093EB001092E9008091E800877F809350
:1055C000E8000E946528ACC08111AAC01091220396
:1055D0001F778091E3008078812B8093E300809196
:1055E000E800877F8093E8000E9465288091E800AA
:1055F00080FFFCCF8091E30080688093E30011116D
:1056000002C082E001C083E080931F0389C08058FC
:10561000823008F085C080912203909123038C3D55
:1056200053E0950779F583E08A838AE289834FB74F
:10563000F894DE01139620E03EE051E2E32FF0E023
:1056400050935700E49120FF03C0E295EF703F5F55
:10565000EF708E2F90E0EA3010F0C79601C0C09630
:105660008D939D932F5F243149F74FBF8091E800C0
:10567000877F8093E8006AE270E0CE0101960E9485
:10568000712716C06091240370912503AE014F5F0E
:105690005F4F0E94AF26BC01892B09F441C0909155
:1056A000E800977F9093E80089819A810E94CF2734
:1056B0008091E8008B778093E80032C0803881F5D4
:1056C0008091E800877F8093E80080911B0380939E
:1056D000F1008091E8008E7772CF811121C0809116
:1056E00022039091230399270297D4F48091E80034
:1056F000877F8093E8008091220380931B030E94A0
:10570000652880911B03811106C08091E30087FD0D
:1057100002C081E001C084E080931F030E94A525A0
:105720008091E80083FF0AC08091E800877F809322
:10573000E8008091EB0080628093EB00AA960FB6A0
:10574000F894DEBF0FBECDBFDF91CF911F910895BA
:105750000895CF9380911F038823A1F0C091E900A1
:10576000CF709091EC00892F817090FD80E8C82B5C
:105770001092E9008091E80083FD0E94482ACF70D2
:10578000C093E900CF910895991B79E004C0991F57
:10579000961708F0961B881F7A95C9F7809508958B
:1057A00087FB082E062687FD819567FD61950E947F
:1057B000C42B0EF4919507FC81950895AA1BBB1B81
:1057C00051E107C0AA1FBB1FA617B70710F0A61B01
:1057D000B70B881F991F5A95A9F780959095BC0122
:1057E000CD01089597FB072E16F4009407D077FD9E
:1057F00009D00E94DE2B07FC05D03EF490958195E0
:105800009F4F0895709561957F4F0895A1E21A2EDC
:10581000AA1BBB1BFD010DC0AA1FBB1FEE1FFF1F54
:10582000A217B307E407F50720F0A21BB30BE40BA4
:10583000F50B661F771F881F991F1A9469F76095EB
:105840007095809590959B01AC01BD01CF010895A5
:10585000EE0FFF1F0590F491E02D09940E94362C65
:10586000332312F48A1B9B0B0C94472CA29FB0018C
:10587000B39FC001A39F700D811D1124911DB29F84
:10588000700D811D1124911D08950E94362CB7FFC3
:105890000895821B930B08950E94362CA59F900DAE
:1058A000B49F900DA49F800D911D11240895B7FF02
:1058B0000C944C2C0E944C2C821B930B08958F92BD
:1058C0009F92AF92BF92CF92DF92EF92FF92CF93CF
:1058D000DF93EC01688179818A819B816115710573
:1058E0008105910521F464E279ED8BE597E02DE1E6
:1058F00033EF41E050E00E94102D49015A019B0115
:10590000AC01A7EAB1E40E944C2C6B017C01ACEE27
:10591000B4EFA50194010E945A2CDC01CB018C0D3F
:105920009D1DAE1DBF1DB7FF03C00197A109B04863
:1059300088839983AA83BB839F77DF91CF91FF9060
:10594000EF90DF90CF90BF90AF909F908F90089591
:105950000E945F2C089580E091E00E945F2C0895E2
:10596000A0E0B0E08093000190930101A0930201B8
:10597000B09303010895FC014150504030F0019074
:105980000616D1F73197CF010895882799270895F2
:10599000F999FECF92BD81BDF89A992780B50895F7
:1059A000A6E1B0E044E050E00C94022DA8E1B0E0A4
:1059B00042E050E00C94022D262FF999FECF92BDC3
:1059C00081BDF89A019700B4021639F01FBA20BDC4
:1059D0000FB6F894FA9AF99A0FBE08950396272FF6
:1059E0000E94DD2C0E94DC2C252F0E94DD2C242F10
:1059F0000C94DD2C0196272F0E94DD2C0C94DC2CBE
:105A0000DC01CB01FC01F999FECF06C0F2BDE1BD7E
:105A1000F89A319600B40D9241505040B8F708956D
:105A2000052E97FB1EF400940E94272D57FD07D0EA
:105A30000E94062C07FC03D04EF40C94272D5095A1
:105A40004095309521953F4F4F4F5F4F089590956A
:105A50008095709561957F4F8F4F9F4F0895F89473
:025A6000FFCF76
:105A6200010000000000940300000000000000009C
:105A72000000000000000000000039134A135A130E
:105A820000000000000000000000000000003001E3
:105A920013002800010102000B000B0B01191A1B55
:105AA2001C1D1E1F202122FFBA022808641E140A90
:105AB200321E07256425452541253D2501F4F19532
:105AC20093F0676636C6E200E900EA00B500B60068
:105AD200B700CD008301CC008A019201940121021A
