:100000000C94E8020C942F030C942F030C942F03F0
:100010000C942F030C942F030C942F030C942F0398
:100020000C942F030C942F030C94A0260C9472278D
:100030000C9406210C942F030C942F030C942F0383
:100040000C942F030C942F030C942F030C942F0368
:100050000C942F030C945F210C942F030C942F030A
:100060000C942F030C942F030C942F030C942F0348
:100070000C942F030C942F030C942F030C942F0338
:100080000C942F030C942F030C942F030C942F0328
:100090000C942F030C942F030C942F030C942F0318
:1000A0000C942F030C942F030C942F03830D860DB7
:1000B0008B0D920D970D9C0DA10DA60DAB0DB00DE6
:1000C000B50DBA0DBE0DC10DC40DC70DCA0DD10DB4
:1000D000D10DD10D02100510251036103E1049101B
:1000E0004C104F10521098109B10551058105D1066
:1000F0006A1077107A107E108B10E316E31615172E
:10010000151762179618961896188017151826183E
:1001100026188618961896188F183219321944190D
:1001200044193B1944194419441932193219401918
:10013000441944194019DF270628FE280628FE28FE
:1001400052287528FE28CC28DB282400250026000C
:10015000550021002200230056001E001F00200031
:1001600057000151270063005800A800AE000000AE
:1001700000000100C35CC45CC25CCA5CC95CC65CB4
:10018000C55CC85CC75C0100010001000100005CA7
:100190000100010001000000000001000100010059
:1001A0000100010001000100010001000100010047
:1001B0000100010001000100010001000100000038
:1001C0000000010001000100010001000100010028
:1001D0000100010001000100010001000100010017
:1001E000010001000100000000000000000000000C
:1001F00000002A2B28000000000000000000000082
:10020000000000000029000000002C1E34202122E4
:1002100024342627252E362D3738271E1F2021224D
:10022000232425263333362E37381F0405060708C6
:10023000090A0B0C0D0E0F101112131415161718B6
:10024000191A1B1C1D2F3130232D350405060708F4
:10025000090A0B0C0D0E0F10111213141516171896
:10026000191A1B1C1D2F3130354C000000000000F6
:1002700000000000000000000000000000007E0FF1
:1002800000D4FFFFFFC7000000787F3F1F643214D7
:10029000643214783C1E1E140A05222325262829C0
:1002A0002A2C2D2F3032333536383A3B3D3E4042F2
:1002B000434547494A4C4E5051535557595A5C5E35
:1002C0006062646668696B6D6F71737577797B7D49
:1002D0007F81838587898A8C8E90929496989A9C48
:1002E0009E9FA1A3A5A7A8AAACAEAFB1B3B4B6B860
:1002F000B9BBBCBEBFC1C2C3C5C6C7C9CACBCCCDC2
:10030000CED0D1D2D2D3D4D5D6D7D7D8D9D9DADA9C
:10031000DBDBDBDCDCDCDCDCDDDDDDDDDCDCDCDC1C
:10032000DCDBDBDBDADAD9D9D8D7D7D6D5D4D3D250
:10033000D2D1D0CECDCCCBCAC9C7C6C5C3C2C1BF2E
:10034000BEBCBBB9B8B6B4B3B1AFAEACAAA8A7A592
:10035000A3A19F9E9C9A98969492908E8C8A89874E
:100360008583817F7D7B79777573716F6D6B69682C
:10037000666462605E5C5A5957555351504E4C4A00
:100380004947454342403E3D3B3A383635333230AB
:100390002F2D2C2A292826252322000101010101C5
:1003A000010101010202020202020202020303032E
:1003B00003030303030404040404040405050505FE
:1003C00005060606060607070707070808080809BE
:1003D0000909090A0A0A0B0B0B0C0C0C0D0D0D0E6A
:1003E0000E0E0F0F0F1010111111121213131414FF
:1003F000151516161717181819191A1A1B1B1C1D74
:100400001D1E1E1F202021222223242425262627CC
:100410002829292A2B2C2D2D2E2F303132323334FE
:1004200035363738393A3B3C3D3E3F404142434404
:1004300045464748494A4C4D4E4F505153545556E6
:1004400058595A5B5D5E5F616264656668696B6C92
:100450006D6F7072737577787A7B7D7E808283850D
:1004600087888A8C8E8F91939596989A9C9EA0A24D
:10047000A3A5A7A9ABADAFB1B3B5B7BABCBEC0C257
:10048000C4C6C9CBCDCFD1D4D6D8DBDDDFE2E4E71B
:10049000E9EBEEF0F3F5F8FAFDFF0403300000009D
:1004A0000C034800750062003100360000001A039A
:1004B0004A006F007300680020004A006F00680067
:1004C0006E0073006F006E0000000403090409024F
:1004D0005B00030100A0FA09040000010301010010
:1004E0000921110100012240000705810308000ACB
:1004F000090401000203000000092111010001228A
:1005000022000705820320000107050303200001E4
:100510000904020001030000000921110100012269
:1005200032000705840320000A12011001000000B8
:10053000086A6A10480100010203010660FF0961B0
:10054000A1010962150026FF0095207508810209A6
:1005500063150026FF00952075089102C00501096A
:1005600080A101850319012AB700150126B700955E
:100570000175108100C0050C0901A1018504190154
:100580002AA002150126A002950175108100C00560
:10059000010906A101050719E029E71500250195C4
:1005A0000875018102950175088101050719002967
:1005B000FF150026FF009506750881000508190142
:1005C0002905950575019102950175039101C000FA
:1005D00011241FBECFEFDAE0DEBFCDBF04B603FEAD
:1005E00027C08091910290919202A0919302B091C4
:1005F00094028730904BA740B04BD1F410929102F7
:1006000010929202109293021092940214BE84B738
:10061000877F84BF0FB6F894A895809160008861A9
:1006200080936000109260000FBEE0E0F8E309954F
:1006300011E0A0E0B1E0E0EBF3E502C005900D921F
:10064000AC3BB107D9F722E0ACEBB1E001C01D92A1
:10065000A139B207E1F70E9456230C94D6290C94D5
:100660000000E82FF0E0E254FE4F80810895CF9320
:10067000DF93A9E1B1E04EE151E061E070E08D91DE
:10068000E82FE295EF70F0E021A18F70EB0102C03E
:10069000CC0FDD1F8A95E2F7CE019C2F9095922317
:1006A00091A392A1892B82A34A175B0741F7A5E189
:1006B000B1E049E151E061E070E08D91E82FE29511
:1006C000EF70F0E021A18F70EB0102C0CC0FDD1FB5
:1006D0008A95E2F7CE019C2F9095922391A392A147
:1006E000892B82A34A175B0741F7E3ECF1E0AEEBFD
:1006F000B1E088EC91E011921D928E179F07D9F717
:1007000085E00E943808DF91CF910C94CE055F926E
:100710006F927F928F929F92AF92BF92CF92DF9211
:10072000EF92FF920F931F93CF93DF9369E171E0F4
:10073000A3ECB1E028ECA22E21E0B22E612C01E066
:1007400010E06D015C901C92EB018991BE01E82FD5
:10075000E295EF70F0E021A18F70A80102C0440F74
:10076000551F8A95E2F7CA01242B21A322A1942EBA
:100770009094292122A350EA5A95F1F795E1E92EA8
:1007800091E0F92E40E050E0E70189907E01282DAC
:1007900022952F7030E0E90128A17C9030E0D82D1F
:1007A000DF7002C035952795DA95E2F720FD08C085
:1007B000302F042E01C0330F0A94EAF7232F01C013
:1007C00020E027292C934F5F5F4F44305105E1F61D
:1007D00091A1992291A292A1892B82A3119681E0E5
:1007E000F6019081951101C080E0682AAA16BB0627
:1007F00009F0A7CF262D45E06EEB71E083EC91E088
:100800000E9439084091C2011092C2012091BD019D
:10081000322F330F3093BD018091BC01982F990F77
:100820009093BC012FB1221F2227221F232B20933C
:10083000BD0189B1881F8827881F892B8093BC013F
:1008400091E02F3F09F090E08F3F11F080E001C070
:1008500082E0892B8093C20191E0481301C090E0AF
:10086000C62DC92B0E94D8058C2FDF91CF911F91E7
:100870000F91FF90EF90DF90CF90BF90AF909F903F
:100880008F907F906F905F90089587988F9857987A
:100890005F98089508950895811106C0662311F0A8
:1008A0008AEA09C089EA07C0813039F4662311F069
:1008B0008CEA01C08BEA0C948C16089581E00895AF
:1008C00081E008950C94600408950C9464041F93CF
:1008D000CF93DF9300D000D01F92CDB7DEB749830E
:1008E0005A836B833091EC0189819A81311114C054
:1008F000662359F0222349F00E94691E182F682FA1
:1009000089819A810E94141E03C00E943E1E182FE6
:1009100069817A81812F04C00E94691E69817A8170
:100920000F900F900F900F900F90DF91CF911F912C
:100930000C947A11FC01262F4081518162817381D0
:1009400084810C946704CF93DF93EC0160E00E94F4
:100950009A04BE01DF91CF910C946504FF920F932E
:100960001F93CF93DF93E82FF0E0E651FE4FF49012
:10097000C82FC695C695C695D0E0FE01E658FD4F36
:100980000491877010E0082E02C0159507950A940F
:10099000E2F701701127FE01E659FD4FC491D0E046
:1009A00002C0D595C7958A95E2F7C170DD2701157C
:1009B000110519F081EE0E948B15209719F086EE33
:1009C0000E948B158F2D0E948C16CD2B19F086EE70
:1009D0000E942D16012B41F081EEDF91CF911F91E6
:1009E0000F91FF900C942D16DF91CF911F910F91D5
:1009F000FF900895EF92FF920F931F93CF93DF9391
:100A0000EC01162F0AE08881882309F457C0813051
:100A100009F045C08981813051F47E0182E0E80E01
:100A2000F11CCA818C2F0E948B158C2F12C0823032
:100A300049F47E01E2E0EE0EF11C8A810E948B15E2
:100A4000E7012FC0833041F47E01F2E0EF0EF11C8C
:100A50008A810E942D16F4CF843011F0219621C096
:100A60002A81229680E090E030E0205331092A303C
:100A7000310558F4089FA001099F500D1124C901A8
:100A8000840F951F21962881EFCF009751F0EFE951
:100A9000FFE03197F1F700C000000197F6CF0E9408
:100AA000AE042196812F882309F4ADCFEFE9FFE052
:100AB0003197F1F700C000008150F5CFDF91CF9161
:100AC0001F910F91FF90EF90089560E00C94FA044D
:100AD0008F929F92AF92BF92CF92DF92EF92FF924E
:100AE0000F931F936B017C0181E090E0A0E0B0E0E8
:100AF0004C015D0104C0880C991CAA1CBB1C4A95C2
:100B0000D2F7AC01BD0104C0440F551F661F771F0B
:100B10002A95D2F7482959296A297B2904C0880FC8
:100B2000991FAA1FBB1F0A95D2F78A019B010C21AE
:100B30001D212E213F21401751076207730739F409
:100B4000BC01CD016C297D298E299F290AC0809581
:100B50009095A095B095BC01CD016C217D218E2191
:100B60009F211F910F91FF90EF90DF90CF90BF904A
:100B7000AF909F908F9008950F93382F262F6091FC
:100B80003402709135028091360290913702042F21
:100B9000432F0E9468050F910C94501D0E949821CC
:100BA0000E94A11F811102C00E9441200C944504A3
:100BB0000C944A0408950C94DA0581E008950C948D
:100BC000DD05CF93C82F0E94DB058C2F0E94DF0527
:100BD000CF91089508950E9420190E94EA052FEFF1
:100BE00084E39CE0215080409040E1F700C0000089
:100BF0000C9485210F931F93CF93DF93EC0161E059
:100C00000E949A048C01BE010E945A0F8823A9F108
:100C1000BE01C8010E946204882379F1BE01C801A7
:100C20000E94B012882349F1BE01C8010E94F1124E
:100C3000882319F1BE01C8010E941C148823E9F021
:100C4000BE01C8010E946C0D8823B9F08A818823F7
:100C500069F001158CE5180731F00E3D1C4531F4A3
:100C60000E9441200AC00E94EB0507C0CE01DF911F
:100C7000CF911F910F910C945E0480E0DF91CF9192
:100C80001F910F91089580E090E008950895880FD6
:100C9000991FFC01E657FD4F859194910895CF93DC
:100CA000DF930E947A110E946107EC018115904543
:100CB00008F043C0C11580E4D80708F0CBC0C03E9F
:100CC000D10528F5C03CD10508F0B3C0C83AD1051C
:100CD00078F4C53AD10508F0A4C0C130D10509F4B3
:100CE000ECC008F4E8C0C430D10508F0E6C0E3C0A9
:100CF000CF3BD10508F0DFC0C85AD0E0CC0FDD1FD4
:100D0000C25EDE4F0990D881C02DD464D6C0C11513
:100D100090E2D90750F4C11521E0D20708F0CDC008
:100D2000C83ED10508F4C9C0C6C0C11580E3D807C4
:100D300008F086C0CE019F707FC0C11595E5D90728
:100D400008F043C0C11524E5D20708F09AC0C115C8
:100D500082E5D80708F5C11591E5D90708F07DC0EF
:100D6000CE0174E0969587957A95E1F783709C2F74
:100D7000937021E030E002C0220F331F9A95E2F712
:100D80003C68382BCF70C695C69580E2C89FE001BD
:100D90001124C22BD32B91C09E01237033278C2F9B
:100DA00086958695C115D34508F05CC0C1E0D0E0BA
:100DB00002C0CC0FDD1F2A95E2F720E2829FC0011E
:100DC0001124C82BD92BDC6878C0C11529E5D207BE
:100DD000A0F4C11588E5D80708F058C0C11596E5FC
:100DE000D90708F068C08C2F0E94F5078F71C82FB3
:100DF000D0E0DC2FCC27D06260C0C1152AE5D20735
:100E000008F449C0CE0190568115904208F053C0B5
:100E10008D2F8F710E94F507DD27D0628F71D82B3F
:100E20004CC0C55AD0E0C45BDE4FC881D0E0D0646E
:100E300044C0CE01805C91090E944706EC013DC090
:100E4000CE019927D3FF03C0EC01D86C36C0EC016A
:100E5000D06C33C0DF70D06A30C0DC2FCC27C16FBC
:100E6000D06A2BC0C1E0D0E002C0CC0FDD1F2A95B4
:100E7000E2F720E2829FC0011124C82BD92BDA6847
:100E80001CC0DC2FCC27C46FD06A17C0DC2FCC2746
:100E9000C06FD06A12C08C2F8F700E94F50794E04B
:100EA000D695C7959A95E1F7CF70D0E0DC2FCC2787
:100EB000D069C82B02C0C0E0D0E0CE01DF91CF9155
:100EC00008958238910569F1B0F48133910509F4F0
:100ED0006DC048F48932910509F463C08A329105E6
:100EE00009F469C008958533910509F455C0893323
:100EF0009105B9F00895833E910569F138F4803E7B
:100F00009105B1F0823E910509F10895863E910563
:100F1000A9F1873E9105B9F1843E910509F064C0BD
:100F200023C02091820220FD4FC021FD4DC00895B5
:100F30008091820280FD44C08091830280FF44C082
:100F40008091820284FD42C083EE4DC08091820276
:100F500082FF38C0F5CF8091820282FD33C080913C
:100F6000830280FD31C0ECCF8091830281FF32C0CB
:100F70008091820284FD2AC087EE35C08091820272
:100F800083FF26C0F5CF8091820283FD21C080912E
:100F9000830281FD1FC0ECCF8091820285FD1CC0C1
:100FA0001DC08091820285FD19C016C08091820209
:100FB00086FD16C017C08091820286FD13C010C046
:100FC00089E311C082EE0FC080EE0DC080E00BC03F
:100FD00086EE09C084EE07C089E205C085E303C040
:100FE0008AE201C081E390E008959091820292FF2D
:100FF0000DC0282F2871283019F4877F846006C01F
:10100000282F2471243011F48B7F886093FF0DC04A
:10101000282F2871283119F4877E846106C0282F73
:101020002471243111F48B7E88612091830220FF8A
:101030000DC0382F3871383019F4877F816006C0B1
:10104000382F3171313011F48E7F886021FF0DC04F
:10105000282F2871283119F4877E816106C0282F36
:101060002171213111F48E7E886194FD877E08956F
:101070000895FF920F931F93CF93DF938C01F62E69
:10108000D72FC42F222349F081E08093CA010E9408
:1010900038219093C9018093C8018091CA018823A7
:1010A000C1F08091C8019091C9010E9450214597DB
:1010B00080F0EF2DFD2FD8014C2F50E0CD01801B8B
:1010C000910B841795071CF48D918193F7CF1092A3
:1010D000CA01DF91CF911F910F91FF900895EF9278
:1010E000FF920F931F93CF93DF93F62E472FE82F96
:1010F000F0E0711106C0E656FC4F6491762F862F02
:1011000072C0272F30E0E656FC4FE4910E2F10E01E
:1011100056E0659FC0011124CFEFD0E0BE010E94D0
:1011200040295BEA5603C001579F900D11248F0D93
:10113000911D8F0D911D982F990F890F7E01E21A35
:10114000F30AE09ED001E19EB00DF09EB00D112497
:10115000489FA0011124452F55277E01E41AF50A66
:10116000E09EA001E19E500DF09E500D11247E01E5
:10117000E81AF108E29EC001E39E900DF29E900DE8
:101180001124892F9927C81BD90BC09FC001C19F6B
:10119000900DD09F900D11246230710591F048F4AC
:1011A00061157105E1F061307105A9F48B2F752F80
:1011B00019C06430710561F038F06630710579F05E
:1011C0000AC0892F7B2F0EC08E2F7B2FE52F0AC0E0
:1011D0008E2F792F02C0852F7E2FEB2F03C08B2FF0
:1011E0007E2FE92F6E2FDF91CF911F910F91FF90EE
:1011F000EF9008950895CF93DF93762FE901682F3C
:10120000842F0E946F08798368838A83DF91CF914E
:10121000089580915802282F269530E02115310538
:1012200019F48170826005C02831310524F0817085
:101230008E6280935802089588E090E00C9496297D
:10124000CF92DF92EF92FF926B017C010E9409091D
:10125000B701A60188E090E0FF90EF90DF90CF907B
:101260000C94B429609158027091590280915A02ED
:1012700090915B020C942009E8E5F2E083E0808322
:1012800011828FEF828383831482608171818281D6
:1012900093810C9420098091580280FF02C08695AA
:1012A000089580E0089580915C02833018F48F5F88
:1012B00080935C02609158027091590280915A02A9
:1012C00090915B020C94200980915C02882319F0B4
:1012D000815080935C026091580270915902809114
:1012E0005A0290915B020C94200980915C0208954F
:1012F00080935C02662351F060915802709159020C
:1013000080915A0290915B020C942009089560E04C
:101310000C94780980915902089580915A02089599
:1013200080915B02089570E00C94D70D60910301E9
:101330008091580280FF0AC08091020123E0829FC1
:10134000C0011124835A9D4F0C949309809104018C
:1013500090910501891780F7E82FF0E09F01220F97
:10136000331FE20FF31FE35AFD4F118210821282E6
:101370008F5FF0CF9091580290FF16C090910401BA
:1013800020910501921770F4E92FF0E0DF01AA0F18
:10139000BB1FEA0FFB1FE35AFD4F8183608342832B
:1013A0009F5FF0CF0C9496090895CF93DF9300D000
:1013B0001F92CDB7DEB79091580290FF0AC09E01F0
:1013C0002F5F3F4F0E94FB084B8169818A810E94F9
:1013D000BA090F900F900F90DF91CF910895CF939E
:1013E000DF93EC01EC81F0E0E656FD4F4491E8E537
:1013F000F2E0628181810E94D5098C818F5F8C83AC
:10140000DF91CF910895CF93DF93EC01E8E5F2E00F
:10141000438162818C810E94D5098C818F5F8C838E
:10142000DF91CF910895EF92FF920F931F93CF9387
:10143000DF9300D01F92CDB7DEB7082FF62E142F02
:10144000E22E8091580280FF35C0E82FE695F0E04B
:10145000E15BFE4F90819093D4018E7F823061F4E6
:101460009E012F5F3F4F802F0E94FB084B816981B7
:101470008A810E94BA090CC0923019F410915B0263
:1014800007C0963019F40091590202C09930D9F37F
:1014900000935902F0925A0210935B02EE2051F031
:1014A000609158027091590280915A0290915B02AA
:1014B0000E9420090F900F900F90DF91CF911F9104
:1014C0000F91FF90EF900895E8E5F2E09181282FC9
:1014D0004381628188E0890F0C94130A81E00C94A7
:1014E000640AE8E5F2E09181282F4381628188EF68
:1014F000890F0C94130A81E00C94710AE8E5F2E07C
:10150000628128E0620F08F46FEF282F4381818108
:101510000C94130A81E00C947E0AE8E5F2E0628103
:1015200028E0621B08F460E0282F438181810C943D
:10153000130A81E00C948D0AE8E5F2E0438128E08B
:10154000420F08F44FEF282F628181810C94130A17
:1015500081E00C949C0AE8E5F2E0438128E0421B1C
:1015600008F440E0282F628181810C94130A81E005
:101570000C94AB0A20E00C94130AFF920F931F9374
:10158000CF93DF93EC01F12C0FEF10E06091060197
:10159000F616F0F4809104012F2D30E0280F311D54
:1015A000C901880F991F280F391F235A3D4F70E03A
:1015B000C8010E945429962F8C8140915B02609152
:1015C0005A02F99E800D11240E94FB08F394DECF8D
:1015D0000E9496099A818C8190FF02C08F5F01C0A2
:1015E00081508C83DF91CF911F910F91FF900895CF
:1015F000AF92BF92CF92DF92EF92FF920F931F9321
:10160000CF93DF93FC01828180FF02C00FEF01C006
:1016100001E010E04BE0A42E80910601181708F0BD
:1016200043C080910401C12ED12CE601C80FD11D09
:10163000CE01880F991FC80FD91FC35ADD4F1982D9
:1016400018821A8234E0E32EF12CB12C8091CC0167
:101650008B0D8C302CF06A2D0E943229892F05C009
:1016600087FF03C090910601890F082E000C990B8B
:10167000C816D90691F480915B028E9DA0018F9DC2
:10168000500D112455954795559547959E016091AC
:101690005A02809159020E94FB08B00EF1E0EF1A45
:1016A000F108A1F61F5FB8CF0E9496098091CC0186
:1016B000013031F4811102C080910601815007C0D0
:1016C00090E001966091060170E00E945429809399
:1016D000CC01DF91CF911F910F91FF90EF90DF90A0
:1016E000CF90BF90AF900895CF93809104019091D7
:1016F0000501891770F4E82FF0E09F01220F331FD6
:10170000E20FF31FE35AFD4F1182108212828F5FA6
:10171000F0CFC0E060910601C617C0F5EC2FF0E0F5
:1017200070E0CF010E94542920910401820F209182
:10173000CB01022E000C330B90E0E217F307CCF044
:1017400020910101022E000C330B2E173F078CF065
:101750009C01220F331F820F931F9C01235A3D4F80
:1017600040915B0260915A02809159020E94FB08ED
:101770000BC0FC01EE0FFF1F8E0F9F1FFC01E35AF1
:10178000FD4F118210821282CF5FC4CF0E94960952
:10179000209100018091CB01820F8093CB01909129
:1017A0000101920F9093010119165CF4082E000CB0
:1017B000990B4091060150E041505109841795075B
:1017C0001CF0219520930001CF910895E8E5F2E007
:1017D00080818E7F808360817181828193810E946C
:1017E00020091092D5012FEF80E792E02150804030
:1017F0009040E1F700C000000C949609E8E5F2E0A3
:1018000080818E7F80831092D5012FEF80E792E058
:10181000215080409040E1F700C000000C949609F0
:1018200060915802669570E041E050E087E091E0F9
:101830000E948129892B19F481E08093D5010E94AF
:1018400038219093CE018093CD0108959091580254
:1018500090FF35C09170811102C0926006C088313E
:1018600010F09E6202C0880F982B90935802662356
:1018700051F0609158027091590280915A029091F2
:101880005B020E94200960915802669570E041E079
:1018900050E087E091E00E948129892B19F0109295
:1018A000D50102C00E94100C81E08093D0014091CC
:1018B0005B0260915A02809159020C94BA0A089511
:1018C000682F90915802969581E0890F883108F031
:1018D00081E00C94260C81E00C94600C682F9091B0
:1018E000580296958FEF890F09F487E10C94260C26
:1018F00081E00C946E0C61E00C94260CE8E5F2E0BB
:1019000080818160808386950C947B0C8091580245
:1019100080FD0C94E60B0C947E0C60E00C94260C7D
:101920008091D30181112EC00E94A11F811104C09A
:101930000E9441200E943C090E941C0960935802A9
:101940007093590280935A0290935B026E7F61F408
:101950000E943C090E941C0960935802709359022E
:1019600080935A0290935B020E9409091092D5015C
:101970008091580280FF03C086950E948D0C81E003
:101980008093D3010895E8E5F2E08081816080834F
:1019900086950C948D0C1092D50108950F931F938A
:1019A000CF93DF938091D501882309F475C080918E
:1019B000D401E0915802E695E81BE093CF01823014
:1019C00049F4F0E0EA56FD4FE491CE2FD0E00FEE5F
:1019D00019E032C0863049F4F0E0ED56FD4FE49155
:1019E000CE2FD0E003E01AE027C0893051F4E6950D
:1019F000F0E0E057FD4FE491CE2FD0E00DEB1AE080
:101A00001BC08F3051F4E695F0E0E357FD4FE491B1
:101A1000CE2FD0E008EF1AE00FC0853149F4F0E096
:101A2000E657FD4FE491CE2FD0E004E71BE004C061
:101A3000C0EDD7E00AEF18E08091D001882389F04B
:101A40001092D0010E9438219E0120953095820F7E
:101A5000931F9093CE018093CD011092D2011092EA
:101A6000D1018091CD019091CE010E9450218C171F
:101A70009D0790F0E091CD01F091CE01CE0FDF1FD8
:101A8000D093CE01C093CD018DEC91E0F801DF91B0
:101A9000CF911F910F910994DF91CF911F910F91D9
:101AA0000895882311F0FA0101C0FB010994CF9336
:101AB000DF93C82FD62F0E944B098C1740F00E944D
:101AC0004B098D1720F4DF91CF910C946B0C8C2F68
:101AD000DF91CF910C947B0C0F931F93CF93FB015D
:101AE000C281CC2309F45BC08C010E94EA1E827281
:101AF000F801E25CFC45E431F10508F053C0EA5A14
:101B0000FF4F0C9468290E94860C4BC048E75CE0AC
:101B10006BE67CE004C04BE65CE068E77CE00E949A
:101B2000510D3FC04BE75AE06EE67AE0F8CF4EE643
:101B30005AE06BE77AE0F3CF49E95AE06AE87AE0E5
:101B4000EECF4AE85AE069E97AE0E9CF47EB5AE09C
:101B500068EA7AE0E4CF48EA5AE067EB7AE0DFCF60
:101B600044E659E063E579E0DACF43E559E064E61D
:101B700079E0D5CF81E00E947B0C13C065E082E064
:101B80000BC068E086E008C06EE089E005C064E153
:101B90008FE002C067E185E10E94570D02C0C1E0FD
:101BA00001C0C0E08C2FCF911F910F910895519AE1
:101BB0002BB12D7F3BB132604FB7F894FC01CB01C4
:101BC000880F991F680F791F6E0F7F1FE617F707A1
:101BD00089F0819198E03BB9000000C087FF2BB9E4
:101BE000880F000000C000C000C02BB900C09A954B
:101BF00091F7ECCF4FBF8FE594E00197F1F700C06C
:101C0000000008950C944C04FF920F931F93CF9300
:101C1000DF93CAEDD1E049E751E027E731E061E029
:101C200070E0F1E0CC3DDF0709F44CC0FA0101910E
:101C3000AF01A02FA295AF70B0E09196EC91919773
:101C40000F70CB01002E01C0880F0A94EAF7982F7D
:101C500090959E2391969C93919792969C919297A2
:101C6000892B92968C939297F90111919F01E12F04
:101C7000E295EF70F0E0F1A01F70CB01012E01C0E2
:101C8000880F0A94EAF7982F90959F2191A392A12B
:101C9000892B82A390968C9190E002C095958795B0
:101CA0000A95E2F78170E0A1F0E002C0F595E795B2
:101CB0001A95E2F7E0FD02C090E001C092E0892BA6
:101CC0008993AFCFDF91CF911F910F91FF9008952E
:101CD0005F926F927F928F929F92AF92BF92CF92BC
:101CE000DF92EF92FF920F931F93CF93DF938AEDD2
:101CF000682E81E0782E99E7E92E91E0F92E07E72A
:101D000011E028ED822E21E0922EC6EDD1E0630194
:101D10005301512CD501ED915D014E2F440F440F1D
:101D2000F60141936F01D7012D917D01E22FE295DC
:101D3000EF70F0E080A190E02F7002C0959587953C
:101D40002A95E2F781709927F80151918F01E52FCB
:101D5000E295EF70F0E020A130E05F7002C03595B1
:101D600027955A95E2F7F901E170FF2720FF02C09D
:101D7000E2E0F0E0E82BF92BE42BD301ED933D01F9
:101D8000EF70F0E0E959FE4F9081F4018081890FF6
:101D9000808384303CF088818F5F888360E0852D6C
:101DA0000E94020ED4018C918D3F3CF488818150B9
:101DB000888361E0852D0E94020EF4018081837882
:101DC00087FF03C081508C6F8F5FD4018D934D01CD
:101DD00053942196B2E05B129DCFDF91CF911F917A
:101DE0000F91FF90EF90DF90CF90BF90AF909F90BA
:101DF0008F907F906F905F90089582E290E00E94B4
:101E00008E29803281F483E290E00E948E2987300F
:101E100051F484E290E00E948E2991E0803109F033
:101E200090E0892F01C080E081700895CF93C82F82
:101E3000811102C06FEF01C060E282E290E00E9477
:101E4000A229C11102C06FEF01C067E083E290E0F8
:101E50000E94A229C11102C06FEF01C060E184E2BB
:101E600090E0CF910C94A22980E00E94160F0C9470
:101E70009B1F089585E290E00E948E29682F70E0F4
:101E800080E090E0089585E290E00C94A2290E9401
:101E9000390F0E94FD0E81110CC060E070E0CB0193
:101EA0000E94430F0E94F7100E94D41181E00C940D
:101EB000160F0895CF93FB01C281CC23E9F09C015A
:101EC00022513F452031310520F482510E94E41116
:101ED0000CC08031FFE59F0751F481E00E94761D20
:101EE00043E062E081E00E94BC05C0E018C081319F
:101EF0009F45A9F482E0F2CF8031EFE59E0711F40F
:101F000081E004C081319F4549F482E00E94971D21
:101F100043E062E081E00E94BC0501C0C1E08C2F7B
:101F2000CF9108952FEFFC0120830895CF93DF9385
:101F3000EC018881813889F028F48038A1F40E946E
:101F4000900910C0823861F0833869F40E948A09D0
:101F500089830E948D098A8306C00E944B0902C0B2
:101F60000E9475098983DF91CF910895CF93DF9304
:101F7000EC0188818138B1F058F4803851F5D9816D
:101F80000E948D09C82F0E948A094D2F6C2F1DC0F9
:101F90008238B1F08338E9F40E949009482F6A81B1
:101FA000898113C089810E948D0C8981811104C0AF
:101FB000DF91CF910C94FE0BDF91CF910C94C30C69
:101FC0008981DF91CF910C948709DF91CF910C9497
:101FD000BA0ADF91CF910895EF92FF920F931F936A
:101FE000CF93DF93EC01162F0196E8814E2F50E03E
:101FF000FA013197E331F10508F0ACC0E659FF4F23
:102000000C946829198289E056C08981823039F0A0
:10201000833061F0813029F50E94442102C00E9482
:102020003A0F9A838B837C836D8396C07E0122E076
:10203000E20EF11C00E0802F0E943103F701819332
:102040007F010F5F0530B9F787C08981823049F47D
:102050006A817B818C819D810E946E290E94430F41
:102060007BC0612FCE010E94920F76C04B816A81A6
:1020700089810E94C9109C838D836EC02C813D8113
:102080003227232732274B816A8189810E94E210FF
:1020900063C00E94F71060C00E94B60F5DC00E942E
:1020A000960F5AC00E94320957C00E94871124C05F
:1020B0000E94891199838A834FC06B8170E0898166
:1020C0009A81AE014C5F5F4F9827892798270E941D
:1020D0008C1142C06B8170E089819A81AE014C5FA6
:1020E0005F4F9827892798270E94B11135C00E9419
:1020F000D41132C00E94B61089832EC06B8170E06B
:1021000089819A81AE014C5F5F4F98278927982774
:102110000E94361121C06B8170E089819A81AE01E5
:102120004C5F5F4F9827892798270E94591114C048
:102130000E94340F11C0CE010E944622FFEF21EE13
:1021400084E0F15020408040E1F700C000000E9490
:10215000852102C08FEF8883612FCE01DF91CF915F
:102160001F910F91FF90EF900C94462284E0089508
:1021700050E0440F551F28E0629F400D511D11246F
:102180009A0168E2869F200D311D1124C9018696AF
:1021900008950F931F93CF93DF930E94B8108C0183
:1021A0000E948E29C82FD0E0DC2FCC27C8010196D1
:1021B0000E948E299E01282BC901DF91CF911F918A
:1021C0000F9108950F931F93CF93DF93122F032F37
:1021D0000E94B810EC01602F0E94A229612FCE014D
:1021E0000196DF91CF911F910F910C94A229AF928C
:1021F000BF92CF92DF92EF92FF920F931F93CF93F4
:10220000DF93A12CE12CF12CB12C00E010E0C0E018
:10221000D0E06701C00ED11EF601EC0FFD1FEE0FDE
:10222000FF1FE65BFE4F259134914C2F6B2D8A2DBD
:102230000E94E2102196C430D10571F70C5F1F4F48
:10224000B39485E0B812E3CF84E1E80EF11CA394C7
:1022500084E0A812D9CFDF91CF911F910F91FF9009
:10226000EF90DF90CF90BF90AF900895EF92FF92E4
:102270000F931F93CF93DF93EA017A01E60EF71EC7
:102280008C01C8018696CE15DF0561F0003A110574
:1022900020F40E948E29888301C0188221960F5F46
:1022A0001F4FEFCFDF91CF911F910F91FF90EF90D4
:1022B0000895EF92FF920F931F93CF93DF93EA015C
:1022C0007A01E60EF71E8C01C8018696CE15DF0551
:1022D00051F0003A110518F468810E94A229219654
:1022E0000F5F1F4FF1CFDF91CF911F910F91FF90A3
:1022F000EF900895462F843038F4753028F4643018
:1023000018F4672F0C94C91080E090E0089580E1E4
:1023100008958AE393E00895EF92FF920F931F933D
:10232000CF93DF93EA017A01E60EF71E8C01C80114
:102330008A539F4FCE15DF0569F00A3323E0120759
:1023400020F40E948E29888301C0188221960F5F95
:102350001F4FEDCFDF91CF911F910F91FF90EF9025
:102360000895EF92FF920F931F93CF93DF93EA01AB
:102370007A01E60EF71E8C01C8018A539F4FCE15D5
:10238000DF0559F00A3323E0120718F468810E9430
:10239000A22921960F5F1F4FEFCFDF91CF911F91A1
:1023A0000F91FF90EF900895CF93DF93C6ECD0E0AC
:1023B00060E0CE010E94A2292196C11584E0D807D1
:1023C000B9F7DF91CF910895DF92EF92FF920F93CB
:1023D0001F93CF93DF9300D000D0CDB7DEB7F82E98
:1023E0008FE08F15E8F18FEF93E00E948E29811125
:1023F00037C006EC10E0FF2069F0011584E01807F3
:1024000079F1C8010E948E29811101C0FA940F5FF1
:102410001F4FF1CF19821A821B821C82DD24D394B4
:1024200078018FEFE81AF80AC8010E948E29898383
:102430001A828823A9F09FEF980F933058F48A836B
:10244000D9820E5F1F4FC7010E948E298B8388237C
:1024500039F07801CE0101960E9465058701E0CF31
:102460000F900F900F900F90DF91CF911F910F91D0
:10247000FF90EF90DF9008950F931F93CF93DF931A
:10248000C62FD42F122FFC0182818823C9F06093BC
:10249000DE010E9438219093DD018093DC0180E20F
:1024A0008C0F883008F057C0C77081E001C0880FDA
:1024B000CA95EAF7DF91CF911F910F910C949F1667
:1024C0008091DE01681330C08091DC019091DD01C4
:1024D0000E945021883C910538F500E20D0FCD1780
:1024E000B9F080E28C0F883040F4C77081E001C001
:1024F000880FCA95EAF70E94A616083028F581E0F1
:102500009D2F977001C0880F9A95EAF70E949F1639
:10251000812F0E948C160830F0F4D77081E001C042
:10252000880FDA95EAF70AC080E28C0F883098F4B9
:10253000C77081E001C0880FCA95EAF7DF91CF919B
:102540001F910F910C94A616812FDF91CF911F91AF
:102550000F910C948C16DF91CF911F910F910895DC
:102560009C01CB01233F4CE53407F9F078F4283D7A
:10257000FCE53F07B9F0293D4CE5340711F1273D53
:102580003C4531F526E241EE61EE1EC0253FFCE5FB
:102590003F0799F070F0263F3C45D1F427E245EE25
:1025A00066EE12C027E245EE0EC026E241EE60EE76
:1025B0000BC027E245EE64EE07C026E241EE62EE74
:1025C00003C028E241E065EE0E943C1280E00895DD
:1025D000FC018281882319F01092DE01089581E0C8
:1025E0000895CF93DF93EC01FB018281882309F4E6
:1025F0001FC1C230FCE5DF0708F41BC1C6319CE5F2
:10260000D90738F09E012A5F3C452930310508F092
:1026100010C10E94B41F9093830280938202C03144
:10262000ECE5DE0709F4C3C008F041C0C8308CE512
:10263000D80709F49AC0F0F4C430ECE5DE0709F4D9
:1026400087C068F4C2308CE5D80709F477C0C3307E
:10265000DC4509F0E3C080918202826076C0C6301A
:10266000ECE5DE0709F46EC008F07BC080918202C1
:1026700088606BC0CC308CE5D80709F485C068F45D
:10268000CA30ECE5DE0709F474C008F079C00E9496
:10269000201980918202806858C0CE308CE5D8071E
:1026A00009F476C008F07FC0809182028BC0CB3FD6
:1026B000ECE5DE0709F44FC018F5C3318CE5D80707
:1026C00009F47DC078F4C131ECE5DE0709F473C08C
:1026D000C231DC4509F0A2C00E942019809182021B
:1026E0008F7733C0C5318CE5D80709F472C008F480
:1026F00086C0CA3FDC4509F091C0809183023EC08C
:10270000CF3FFCE5DF0709F45FC058F4CD3F9CE5FF
:10271000D90709F444C008F43FC080918302826065
:102720002DC0C130FDE5DF0709F475C008F45DC0B8
:10273000C230DD4509F072C080E06EC08091820237
:10274000816003C08091820280618093820266C0B2
:102750008091820211C08091830282608093830203
:102760005DC0809182028062F0CF8091820280649D
:10277000ECCF8091820288608460E7CF8160EECFE9
:10278000809182028E7FE1CF809182028D7FDDCFAA
:1027900080918202877FD9CF8091830218C0809177
:1027A00083028D7FDBCF809182028F7ECECF80919E
:1027B00082028F7DCACF809182028F7BC6CF8091AB
:1027C0008202877F8B7FC1CF809183028D7F8E7F36
:1027D000C5CF8091820282FB222720F991E09227C7
:1027E00090FB82F990FB83F9B0CF80918302982F00
:1027F000909591708E7F892B90FB81F9AFCF0E94CD
:1028000020198091820287FB222720F991E09227EC
:1028100090FB87F99ACF81E00E9443208091820249
:10282000909183020E94C51F0E94201980E001C080
:1028300081E0DF91CF910895CF93DF9386319C455E
:1028400041F5EB010E94EA1E982F8A812091080130
:1028500030910901882379F09A7A81E009F480E0C7
:102860008093DF01911102C069E201C065E3C901F3
:102870000E948A200AC08091DF01811102C069E2B2
:1028800001C065E3C9010E948C200E94381F80E0CE
:1028900001C081E0DF91CF9108959093E50180938D
:1028A000E4010895E091E401F091E501309721F011
:1028B0000190F081E02D099480E00895E091E40119
:1028C000F091E501309721F00280F381E02D099429
:1028D00008952091E2013091E3012817390771F042
:1028E0009093E3018093E201E091E401F091E5012E
:1028F000309721F00680F781E02D0994089520910A
:10290000E0013091E1012817390771F09093E1015E
:102910008093E001E091E401F091E501309721F02E
:102920000084F185E02D0994089585B7806885BFFE
:1029300085B7806885BF089508950C949C140C9405
:102940009D140C949C140C949C140E9495140E9449
:10295000A1140C949F1481E008950C94AB140E9470
:102960002F210E9437030E94470F0E94AF210E942F
:10297000900C0E94040E0C94A314AF92BF92CF92BD
:10298000DF92EF92FF920F931F93CF93DF93CDB718
:10299000DEB72A970FB6F894DEBF0FBECDBF0E94F8
:1029A00087030E94AD14811111C08FEF89838A8340
:1029B0001B820E9438218160782F9D838C834981FE
:1029C0005A816B818D810E94571540C087EEA82ED9
:1029D00081E0B82E00E010E0C02E802F0E9431036D
:1029E000E82EF501D1905F01D82631F40F5F1F4F1B
:1029F0000530110589F7D9CF8091490281FD0E94E8
:102A00004B0480E0FF24F3949D2D9F21D1F08E8311
:102A1000CF82EF2081E009F480E088870E9438218E
:102A20008160782F9A8789874E815F8168858A8542
:102A30000E945715F801E951FE4F8081F826F08277
:102A400005C08F5FFF0C8430F9F6D0CF0E94CE0C0A
:102A50000E94680E0E9452149091E6018917B1F00D
:102A60000E9452148093E6012A960FB6F894DEBFB6
:102A70000FBECDBFDF91CF911F910F91FF90EF90CF
:102A8000DF90CF90BF90AF900C94E1052A960FB6DF
:102A9000F894DEBF0FBECDBFDF91CF911F910F9194
:102AA000FF90EF90DF90CF90BF90AF900895CF93BD
:102AB000DF93CDB7DEB72B970FB6F894DEBF0FBE0E
:102AC000CDBF4F83588769877A878B87DE01119640
:102AD00086E0FD0111928A95E9F785E0FE013796BF
:102AE00001900D928A95E1F749815A816B817C8131
:102AF0008D819E810E94D91B2B960FB6F894DEBF64
:102B00000FBECDBFDF91CF910895FC0180819181EF
:102B10000E94AB1E0895CF93882309F49CC0C82F50
:102B20008238C1F40E94521481FD95C069E38091FE
:102B30000801909109010E948A200E94381F2FEFFE
:102B400081EE94E0215080409040E1F700C0000009
:102B500069E319C0833801F50E94521480FD7BC0DF
:102B600063E580910801909109010E948A200E94EA
:102B7000381F2FEF81EE94E0215080409040E1F724
:102B800000C0000063E580910801909109010E9456
:102B90008C20CF910C94381F8438C1F40E945214B9
:102BA00082FD59C067E480910801909109010E945B
:102BB0008A200E94381F2FEF81EE94E02150804040
:102BC0009040E1F700C0000067E4DDCF8CEF8C0F90
:102BD000813AD0F46C2F80910801909109010E94F4
:102BE0005420882349F06C2F8091080190910901AD
:102BF0000E948C200E94381F6C2F809108019091B8
:102C000009010E948A20C5CF80E28C0F883048F4E9
:102C1000C77081E001C0880FCA95EAF70E94ED1ED7
:102C2000B8CFEBE5EC0FE33040F4F0E0E755FE4FB2
:102C3000808190E0CF910C946914C85AC73158F440
:102C4000EC2FF0E0EE0FFF1FE558FE4F80819181E1
:102C5000CF910C947F14CF910895882309F45BC021
:102C6000682F823879F40E94521481FF54C069E3BE
:102C700080910801909109010E948A200E94381FCA
:102C800069E310C08338B1F40E94521480FF43C03E
:102C900063E580910801909109010E948A200E94B9
:102CA000381F63E580910801909109010E948C20F2
:102CB0000C94381F843879F40E94521482FF2BC080
:102CC00067E480910801909109010E948A200E9486
:102CD000381F67E4E7CF8CEF860F813A18F380E264
:102CE000860F883048F4677081E001C0880F6A95CC
:102CF000EAF70E94F31EDCCF8BE5860F833020F4C9
:102D000080E090E00C946914685A673120F480E008
:102D100090E00C947F140895CF93C82F0E948B15D8
:102D2000C93349F42FEF87EE93E021508040904063
:102D3000E1F700C000008C2FCF910C942D16882352
:102D400021F00E94ED1E0C94381F0895882321F075
:102D50000E94F31E0C94381F0895CF92DF92EF92D9
:102D6000FF920F931F93CF93DF937C01062FC72F02
:102D7000FC01158112951F70D281D1110E940A1F8A
:102D80000E94E31E882399F0DD2389F08C2F807F39
:102D9000803421F080E2800F883048F082E00E9489
:102DA000821F0E94E31E91E0D82ED92601C0D12CAB
:102DB000CC2EC2948FE0C8228C2D90E0FC01E35809
:102DC000FF4F0C9468298C2F807FCF70882311F0DF
:102DD000C295C07FDD2399F0CC2309F482C180E243
:102DE000800F883010F0011104C08C2F0E94ED1E5E
:102DF00003C08C2F0E94FD1E0E94381F72C1802FBD
:102E00000E942D16CC2309F491C180E2800F8830F6
:102E100010F0011104C08C2F0E94F31E03C08C2FF0
:102E20000E94031F0E94381F81C18C2F807FCF70AA
:102E3000803211F0C295C07F002319F00130C9F033
:102E400022C0DD2371F0112341F0113031F40E94D2
:102E50001D1F8C2B0E94251F69C10E941D1F8C2BDA
:102E60001DC0112319F0113009F460C10E942E1FFA
:102E700025C0DD2321F0163008F058C10EC01530F2
:102E800008F054C11BC0DD2361F0112331F0F701BC
:102E9000858180FF26C18F7085838C2F0E949F16AD
:102EA00045C1112359F0093309F02CC1FFEF27EE7A
:102EB00083E0F15020408040E1F722C18C2F0E9436
:102EC000A61634C18C2F86958695837019F08130B3
:102ED00061F02CC1DD2321F0802F9C2F937002C064
:102EE00080E090E00E94691429C1DD2321F0802F49
:102EF0009C2F937002C080E090E00E947F141EC15E
:102F00008C2F837009F045C0D11114C1402F429518
:102F100046954770440F440F602F6F70862F90E0E6
:102F2000A0E0B0E0042E04C0880F991FAA1FBB1FA9
:102F30000A94D2F704FF10C00FE010E020E030E068
:102F400004C0000F111F221F331F4A95D2F70095AE
:102F500010952095309503C000E010E09801C695CB
:102F6000C695C370BC01CD01602B712B822B932BB6
:102F7000C23049F058F4C13019F00E942A1DDAC05D
:102F80000E94181DD7C00E943C1DD4C00E94161D6F
:102F9000D1C0DD2319F08C2F817001C08695882364
:102FA00009F4C8C0402F429546954770440F440F1E
:102FB000602F6F70862F90E0A0E0B0E0042E04C078
:102FC000880F991FAA1FBB1F0A94D2F704FF10C0D5
:102FD0000FE010E020E030E004C0000F111F221FBE
:102FE000331F4A95D2F7009510952095309503C070
:102FF00000E010E09801C695C695C370BC01CD01F4
:10300000602B712B822B932BC23049F058F4C130C6
:1030100019F00E94EF1D8EC00E94DD1D8BC00E9422
:10302000011E88C00E94501D85C0CF70DD2339F07D
:103030008C2F0E94761D802F0E949F167BC0802FB0
:103040000E94A6168C2F0E94971D74C0023F01F1AA
:1030500028F4003F41F0013FA1F03FC0033FF9F0E9
:10306000043F39F13AC0DD2341F0153008F05EC06D
:103070008C2F8F710E94BC1D59C0163008F056C0AD
:10308000F7CFDD2339F08C2F8F710E94761D4EC053
:10309000DD23C9F38C2F8F710E94971D47C0DD235C
:1030A00029F08C2F8F710E94611D40C00E945C1D11
:1030B0003DC0DD2349F0CF718C2F0E94761D63E067
:1030C0008C2F0E946D1F32C081E00E94821F12303F
:1030D00068F182E00E94821F29C0DD2331F01123B4
:1030E00091F2802F0E948B1521C0112399F2093390
:1030F00049F49FEFE7EEF3E09150E040F040E1F754
:1031000000C00000802F0E942D1610C04C2F4F7061
:10311000602FC7010E9443060E94871C0FC04C2FDE
:103120004F70602FC7010E94460608C088EF8C0DC3
:10313000843020F40E9452140E94E105DD20C9F081
:103140000E94DF1E80FD15C0F70112820E94D91E69
:103150000E94761DC7010E94DA180E94D91EDF91D5
:10316000CF911F910F91FF90EF90DF90CF900C9433
:10317000971DDF91CF911F910F91FF90EF90DF90FE
:10318000CF9008950F931F93CF93DF93EC01688145
:1031900079818A810E94B61E8C010E94131E0E94B2
:1031A000041DB801CE010E94AD16DF91CF911F9191
:1031B0000F910895CF93DF93EC01988189812B8142
:1031C0003C81232B31F08F3F31F481E09F3F19F494
:1031D00003C081E001C080E080FD19C0CE010E94E3
:1031E000FA0581110CC00E94E31E882381F08A81B8
:1031F000882369F082E0DF91CF910C94821FCE0189
:103200000E94C218CE01DF91CF910C94A304DF91EC
:10321000CF9108950E940A1F0E941A1F0E94381F12
:1032200080E090E00E94691480E090E00C947F14AC
:1032300080910801909109010E948E200C940A1936
:103240000E94FA1E0C941819E92FE295EF704E2F88
:1032500050E0FA013297EE30F105B0F4E357FF4F3A
:103260000C946829803F91F018F4883E68F40EC0F1
:10327000843F51F40BC0883E48F0813F29F406C0DA
:1032800093FB882780F9089580E0089581E00895F0
:103290000E94AB1E0E9424190895CF93DF9300D0A3
:1032A00000D01F92CDB7DEB70F900F900F900F9008
:1032B0000F90DF91CF910895CF93DF9300D000D08E
:1032C00000D0CDB7DEB726960FB6F894DEBF0FBE9E
:1032D000CDBFDF91CF9108951F93CF93DF93C0911E
:1032E000ED0116E08091EE01C81799F0D0E01C9F27
:1032F000F0011D9FF00D1124E151FE4F40815181DD
:1033000062817381848195810E945C192196C770C6
:10331000E9CFDF91CF911F91089540911F02509105
:1033200020026091210270912202809123029091EB
:1033300024020C945C190F931F93CF93DF93809119
:10334000240282958F7009F05DC08091210288234C
:1033500009F458C08091ED011091EE0160911F02B7
:1033600070912002C0912202D091230291E06F3F20
:1033700009F090E0292F06E0811709F443C0209757
:1033800021F07F3F21F030E003C031E001C0322F57
:1033900090E030FD34C0089FF001099FF00D11242A
:1033A000DF01A151BE4F11963C911197371327C0F1
:1033B0003C91361324C012963C91129731111FC0D4
:1033C00013964D915C9114974C1B5D0B483C510535
:1033D000B0F4809124028F70806180932402EC50BD
:1033E000FE4F80818F70806180838FE192E00E9428
:1033F000DA18DF91CF911F910F910C946C190196FF
:103400008770BACFDF91CF911F910F9108959F924E
:10341000AF92BF92CF92DF92EF92FF920F931F93E2
:10342000CF93DF93CDB7DEB761970FB6F894DEBFC9
:103430000FBECDBF8C0185E0F801DE011D96019025
:103440000D928A95E1F7F80140815181E2809091D7
:103450001F02609120022091220230912302211547
:10346000310531F06F3F31F481E09F3F19F403C023
:1034700081E001C080E0F82FF1709F2E80FD46C1F1
:10348000F801A380B4808FE1C82E82E0D82EF0909E
:103490002102F501E21BF30BFF2009F4DFC080914C
:1034A0002402E83CF10508F09BC0282F207F09F09A
:1034B00052C0561313C0491311C0FE2CE1100EC0A8
:1034C0008F708061809324020E948D19C6010E9432
:1034D000DA1880912402F801858358C1AB2831F0B5
:1034E0005F3F31F481E04F3F19F403C081E001C038
:1034F00080E080FD03C081E08E2502C080E090E086
:10350000F82FF170FF2E80FF1CC08091ED012091FB
:10351000EE0136E0821709F417C190E0389FF00100
:10352000399FF00D1124E151FE4F6181561306C001
:103530006081461303C06281E61203C00196877062
:10354000E9CFFE2CEE2009F421C180912402816094
:10355000809324025AC0561306C0491304C0E110D8
:1035600002C0F8019FC04D875E878D859E850E94B1
:103570004819882379F1EE2069F120912402822FE5
:1035800082958F7090E0029774F080911F02909165
:10359000200298878F831986BB86AA862C87CE0146
:1035A00007960E94DA1886E0F801AFE1B2E00190D8
:1035B0000D928A95E1F70E949B190E948D190DC00A
:1035C000561729F14D875E878D859E850E94481983
:1035D00081112CC0C8010E94DA18FF24F394D6C0D0
:1035E000282F207F69F77A2DB98AA88A6E2D8989BC
:1035F0000E944D198FE192E00E94DA1886E0F601F0
:1036000011928A95E9F70E948D19F12CBFC04913D8
:10361000D9CFE110D7CFF8018583C8010E94DA180D
:1036200086E0F60111928A95E9F7B0C0EE2091F29A
:1036300020912402822F82958F7090E002970CF4E3
:10364000B2CF80911F02909120029A8389831B82BE
:10365000BD82AC822E83CE010196A3CFE83CF1055A
:1036600008F047C0FE2CEE2009F4B4CF561330C04A
:1036700049132EC02091240220FD21C0822F829563
:103680008F70482F50E041155105C9F0F80125838E
:103690004F30510541F08F5F982F9295907F822F88
:1036A0008F70892B8583C8010E94DA1886E0F801A3
:1036B000AFE1B2E001900D928A95E1F742C086E059
:1036C000F801AFE1B2E001900D928A95E1F75EC09A
:1036D0004D875E878D859E850E944819811163CF35
:1036E00080912402816080932402C8010E94DA182C
:1036F0004DC07A2DB98AA88A6E2D89890E944D19EC
:1037000086E0F60111928A95E9F71BC0EE2009F4D4
:1037100061CF4D875E878D859E850E944819F82E62
:10372000882309F457CF86E0F801AFE1B2E00190B9
:103730000D928A95E1F78FE192E00E9485150E9433
:103740009B190E948D1922C04D875E878D859E85AD
:103750000E94AB1E292F22952F70223028F49F70D3
:1037600039F0811105C00BC0243028F49F7049F452
:10377000805E883020F0C8010E94DA189F2CF92C56
:1037800005C0F8019581907F99F7F9CF8F2D61964B
:103790000FB6F894DEBF0FBECDBFDF91CF911F9162
:1037A0000F91FF90EF90DF90CF90BF90AF909F90E0
:1037B00008951F93CF93DF93CDB7DEB72C970FB645
:1037C000F894DEBF0FBECDBF4F83588769877A87D5
:1037D0008B879C87CE0107960E94071A8823D1F019
:1037E0009F8188852A853B85232B31F08F3F31F4DB
:1037F00081E09F3F19F403C081E001C080E080FDBB
:1038000047C04F81588569857A858B859C850E9444
:103810005C193EC086E0FE013796DE0111960190EC
:103820000D928A95E1F7FF81E8856A857B856115B0
:10383000710531F0EF3F31F481E0FF3F19F403C02F
:1038400081E001C080E080FD23C02091EE0130E0E6
:10385000C9010196877099274091ED0150E08417C6
:103860009507F1F1F983EA837D836C8396E0929F5B
:10387000D001939FB00D1124A151BE4FFE0131968E
:1038800001900D929A95E1F78093EE010E946C19D8
:1038900016E08091ED019091EE01891771F1189F6A
:1038A000C001112481519E4F0E94071A882329F1DB
:1038B000E091ED011E9FF0011124E151FE4F408186
:1038C000518162817381848195810E945C1980910C
:1038D000ED0190E00196877099278093ED01D9CF93
:1038E0000E9420191092EE011092ED01EFE1F2E03A
:1038F00086E0DF011D928A95E9F72C960FB6F894C1
:10390000DEBF0FBECDBFDF91CF911F910895EF9223
:10391000FF920F931F93CF93DF938C01892B09F4B0
:103920006CC0F12CEE24E394E8012196F801849117
:10393000843740F4843008F051C0813081F0823007
:1039400019F15BC0853709F444C0A8F19CE7980FD2
:10395000903708F052C08F770E942D1641C00E5F3D
:103960001F4FFE01849190E2980F983050F48770B9
:10397000FE2D01C0FF0F8A95EAF78F2F0E940D1FC1
:1039800014C00E948B152DC00E5F1F4FFE01849145
:1039900090E2980F983060F48770FE2D01C0FF0F01
:1039A0008A95EAF78F2F0E94131F0E94381F19C0B3
:1039B0000E942D1616C00E5F1F4FFE01C491CC232E
:1039C00081F08FE99FE00197F1F700C00000C1503E
:1039D000F6CF0E5F1F4FFE01F49003C00E948B15BF
:1039E0008E018F2D882309F49FCFEFE9FFE03197F7
:1039F000F1F700C000008150F5CFDF91CF911F910A
:103A00000F91FF90EF900895089508950C94051D6F
:103A10000C94061D0E94081D6093380270933902B1
:103A200080933A0290933B020C940A190C940A1D5D
:103A30000F931F93009138021091390220913A029E
:103A400030913B02602B712B822B932B1F910F9196
:103A50000C940A1D0F931F930091380210913902A4
:103A600020913A0230913B026023712382239323F9
:103A70001F910F910C940A1D0F931F930091380210
:103A80001091390220913A0230913B026027712750
:103A9000822793271F910F910C940A1D0C94051DEA
:103AA0000E944E1D6093340270933502809336025B
:103AB000909337020C940A1960E070E0CB010C94EB
:103AC000501D0F931F9341E050E060E070E08A01C9
:103AD0009B0104C0000F111F221F331F8A95D2F7CC
:103AE000C901B8011F910F910C94501D0F931F93A2
:103AF00041E050E060E070E004C0440F551F661FD5
:103B0000771F8A95D2F78091340290913502A09167
:103B10003602B09137028A019B01082B192B2A2B00
:103B20003B2BC901B8011F910F910C94501D0F93AD
:103B30001F9341E050E060E070E004C0440F551F67
:103B4000661F771F8A95D2F74095509560957095BE
:103B50008091340290913502A0913602B0913702E3
:103B60008A019B01082319232A233B23C901B80199
:103B70001F910F910C94501D0F931F9341E050E043
:103B800060E070E004C0440F551F661F771F8A95E0
:103B9000D2F78091340290913502A0913602B09113
:103BA00037028A019B01082719272A273B27C901C9
:103BB000B8011F910F910C94501D0F931F9300910A
:103BC0003402109135022091360230913702602B79
:103BD000712B822B932B1F910F910C94501D0F93DF
:103BE0001F930091340210913502209136023091DA
:103BF000370260237123822393231F910F910C942A
:103C0000501D0F931F9300913402109135022091A3
:103C100036023091370260277127822793271F9140
:103C20000F910C94501D0895990F990F890FE82F4B
:103C3000E695E695E695877051E001C0550F8A95A7
:103C4000EAF785E0E89FF0011124EB5DFD4F20E0ED
:103C500030E070E04081CB01022E02C0969587953E
:103C60000A94E2F7817081958427852384278193C4
:103C70002F5F3F4F2530310569F70895990F990F50
:103C8000890F682F669566956695982F977085E0E1
:103C9000689FB001112440E050E080E0FB01E40F98
:103CA000F51FEB5DFD4F208130E0092E02C03695F7
:103CB00027950A94E2F721703327042E01C0220FC2
:103CC0000A94EAF7822B4F5F5F4F4530510531F779
:103CD0000895BF92CF92DF92EF92FF920F931F93BE
:103CE000CF93DF938C01C0903402D0903502E090E6
:103CF0003602F09037028091380290913902A091FB
:103D00003A02B0913B02C82AD92AEA2AFB2ACFE11B
:103D1000D0E0D701C6010C2E04C0B695A7959795A3
:103D200087950A94D2F780FD04C0219790F7B12CB3
:103D300007C0BC2EB8018C2F0E944F060197A9F333
:103D40008B2DDF91CF911F910F91FF90EF90DF901E
:103D5000CF90BF900895CF93DF93EC010E94691E2E
:103D6000BE010E944F06DF91CF9108951F93CF931C
:103D7000DF93EB019091EC01992321F0CB010E949C
:103D8000AB1E13C0882349F0CB010E94691E182F77
:103D9000682FCE010E94141E04C0CB010E943E1E5B
:103DA000182FBE01812F0E944F06DF91CF911F91E6
:103DB000089580913C02859585958595089580911B
:103DC0003C028770089590913C02977081E009F45D
:103DD00080E0089580914802089590914802892BCF
:103DE000809348020895809590914802892380939A
:103DF0004802089510924802089590914702892B35
:103E0000809347020895809590914702892380937B
:103E10004702089510924702089590914602892B17
:103E2000809346020895809590914602892380935D
:103E30004602089510924602089580913D02089529
:103E400008950C94201F0C94211F90913D02981707
:103E500021F080933D020C94231F089580913D0230
:103E6000882329F010923D0280E00C94231F0895CE
:103E7000E0910801F0910901809148028083E0916E
:103E80000801F0910901908180914702892B80837C
:103E9000E0910801F0910901908180914602892BFF
:103EA000808380913D02882381F0E0910801F091A8
:103EB00009019081892B80838091080190910901EB
:103EC0000E94482081110E942E1F8091080190912C
:103ED00009010C945E140C94201F98E0899F9001B6
:103EE0001124262B20933C020E94761D80913C02D7
:103EF0008595859585950C946B1F10923C0280E00A
:103F00000C946B1F20913C028095822380933C028D
:103F1000982F977079F430E0482F082E000C550B3D
:103F20002417350739F08595859585950E94971D4D
:103F30000C947D1F08956FEF7FEF80E090E00C946C
:103F4000C02980E090E00E949C2921E08C3E9E4F99
:103F500009F020E0822F089582E090E00C948E29F1
:103F600083E090E00C948E29CF9384E090E00E944F
:103F70008E29C82F81E290E00E948E292C2F30E0FC
:103F8000A901582BCA01CF910895CF93C92F682F4B
:103F900084E090E00E94A2296C2F81E290E0CF9112
:103FA0000C94A229AB01BC018FE090E00C94B429E1
:103FB000AB01BC0183E190E00C94B42960E070E0B7
:103FC000CB010C94D81F60E070E0CB010E94D21F9F
:103FD0000C94DE1F6CEE7EEF80E090E00E94C02922
:103FE00060E082E090E00E94A22960E083E090E03F
:103FF0000E94A229109238021092390210923A02BD
:1040000010923B0260E084E090E00E94A22960E010
:1040100081E290E00E94A22960E085E090E00E94A9
:10402000A22960E086E090E00E94A2296FEF87E07D
:1040300090E00E94A22940E050E0BA0188E090E0C0
:104040000E94B42960E08DE090E00E94A22940E047
:1040500050E0BA0188E190E00E94B42960E087E175
:1040600090E00E94A22940E050E0BA018CE190E08B
:104070000E94B42960E080E290E00E94A2290C94A2
:10408000E31F0C94EA1F682F8EE090E00C94A229A5
:10409000FC01329697E080E0915029F02191222393
:1040A000D9F38F5FF9CF0895662349F0FC0132966A
:1040B00008962191621729F0E817F907D1F780E0F7
:1040C000089581E008959C01FC0132969FEF80E005
:1040D0004191461789F09F3F19F4411101C0982F73
:1040E0008F5F8630A9F79F3F39F0F901E90FF11D85
:1040F00097FDFA956283089508959C012A5F3F4FCA
:10410000FC014281461301C0128201968217930777
:10411000B9F708950C9463200C947D20029626E054
:10412000FC0111922A95E9F7089508950C949520C1
:104130000C949520CF930E9498200E9487030E94A0
:104140009620C0E08C2F0E943103811104C0CF5F04
:10415000C530C1F701C081E0CF9108950C9495203E
:104160000C94AE200E94B02080918802843009F423
:1041700039C010924A0220E488E190E00FB6F8942A
:10418000A895809360000FBE2093600080E00E949D
:10419000E1050E94CB0C80914B0281110AC081E0A5
:1041A00080934B0280915802817080934C020E9450
:1041B000FE0B0E94B02083B7817F846083BF83B7EA
:1041C000816083BF7894889583B78E7F83BF0FB655
:1041D000F894A895809160008861809360001092A7
:1041E00060000FBE08950C9495200E9420190E9433
:1041F00052140E94E10510924B0280914C028111F1
:104200000E94C30C0E94100C0C94F3201F920F927A
:104210000FB60F9211248F939F93AF93BF9380910A
:104220004A02811113C080917E0290917F02A09179
:104230008002B09181024196A11DB11D80937E0242
:1042400090937F02A0938002B0938102BF91AF91BF
:104250009F918F910F900FBE0F901F90189582E045
:1042600084BD93E095BD9AEF97BD80936E0008954D
:104270002FB7F89480917E0290917F02A0918002E6
:10428000B09181022FBF08952FB7F89460917E02FC
:1042900070917F0280918002909181022FBF0895DA
:1042A0009C014FB7F89480917E0290917F02A0917B
:1042B0008002B09181024FBF821B930B08957894C6
:1042C0001F920F920FB60F9211248F939F93AF936B
:1042D000BF9380917E0290917F02A0918002B09165
:1042E00081020196A11DB11D80937E0290937F02F1
:1042F000A0938002B0938102BF91AF919F918F9163
:104300000F900FBE0F901F90189587E797E7909337
:104310000108809300089AE088E10FB6F894A89508
:10432000809360000FBE90936000FFCF0C94340F19
:104330000E9487032FEF83EF91E02150804090404F
:10434000E1F700C000000E94870380E00E94310373
:1043500080FF04C00E9496210C94852108950E943C
:10436000A11F811102C00E9441200E94AC1F8093B6
:1043700049020E94B41F90938302809382020E949C
:10438000B01F682F70E080E090E00C94161D8091C3
:10439000550208950895CF93DF9300D01F92CDB7B3
:1043A000DEB790918802943011F589837B836A830C
:1043B0009093E9008FEF9091E800815095FD06C041
:1043C00095ED9A95F1F700008111F5CF8091E80005
:1043D00085FF0DC040E050E063E070E0CE01019643
:1043E0000E9449248091E8008E778093E8000F9026
:1043F0000F900F90DF91CF910895CF93DF93EC0151
:104400000E942C24823011F0843031F4BE0184E00B
:10441000DF91CF910C94CB21DF91CF910895BC0116
:1044200083E00C94CB21CF93DF93EC010E942C24EA
:10443000823011F0843039F581E08093E9008FEF0C
:104440009091E800815095FD06C095ED9A95F1F7A1
:1044500000008111F5CF8091E80085FF14C040E095
:1044600050E068E070E0CE010E9449248091E800AD
:104470008E778093E80088E0FE01ADE4B2E0019021
:104480000D928A95E1F7DF91CF910895CF93603235
:1044900019F5209188022430F9F4C091E900CF7019
:1044A0003091EC00232F217030FD20E8C22B22E058
:1044B0002093E9002091E80020FF0BC040E050E08D
:1044C00060E270E00E9449248091E8008E7780933A
:1044D000E800CF70C093E900CF91089580918702E2
:1044E000811109C00E9425260E9482268091E20047
:1044F00084608093E20008951092870208950895E1
:1045000008950C94F52042E061EC81E00E949E2524
:1045100042E261EC84E00E949E2542E261EC82E08E
:104520000E949E2542E260EC83E00C949E258091DF
:104530008A02833009F462C030F4813071F0823035
:1045400009F49BC008958A3009F487C08B3009F4C0
:104550006DC0893009F0A9C020C080918902813ADC
:1045600009F0A3C08091E800877F8093E8008091E4
:104570008D0290918E02892B21F468E08DE492E007
:1045800003C060E080E090E070E00E94DF24809152
:10459000E8008B778093E80008958091890281324A
:1045A00009F083C080918D0290918E02009719F0DE
:1045B000029709F07AC08091E800877F8093E80035
:1045C0008091E80082FD05C0809188028111F8CFBA
:1045D0006CC02091F3008091F20090E0922B029742
:1045E00029F48091F1008B7F813021F48091F100DA
:1045F000809355028091E8008B7753C080918902A7
:10460000813A09F052C080918D0290918E02892BDF
:1046100009F04BC08091E800877F8093E80080918B
:10462000E80080FFFCCF8091140136C080918902A0
:104630008132D9F580918D0290918E02892BA9F556
:104640008091E800877F8093E8000E94D3258091C5
:104650008B02809314010C9420198091890281327D
:1046600021F58091E800877F8093E8000E94D325A0
:1046700080918C0280935602089580918902813A3C
:10468000A1F48091E800877F8093E8008091E800A2
:1046900080FFFCCF809156028093F1008091E8006A
:1046A0008E778093E8000C94D32508951F93CF93C1
:1046B000DF93CDB7DEB7A0970FB6F894DEBF0FBE7D
:1046C000CDBF84B7877F84BF0FB6F894A89580913B
:1046D0006000886180936000109260000FBE90E0DF
:1046E00080E80FB6F89480936100909361000FBE4C
:1046F0000E94A5140E9425260E9482268091E20035
:1047000084608093E20078940E9417290E94AF147D
:104710008AE091E00E944D1413E080918802853078
:1047200069F40E94B220809186028823B1F30E942E
:104730009A20882391F30E943324EFCF0E94BD1466
:1047400080918802843049F71093E9008091E80055
:1047500082FFE3CF8091E80085FF0AC040E050E08F
:1047600060E270E0CE0101960E94942491E001C0C5
:1047700090E08091E8008B778093E800992369F2BC
:1047800060E2CE0101960E94EC0FC7CF0C94C823C3
:10479000292F332723303105C9F060F4213031054A
:1047A00081F02230310509F047C08BE590E02EEC16
:1047B00034E046C02132310511F12232310561F178
:1047C0003BC082E190E029E235E03AC09927813090
:1047D000910561F040F08230910559F0039761F541
:1047E000EAE9F4E008C0EAECF4E005C0EEEAF4E03F
:1047F00002C0E0EAF4E0849190E09F0121C06330C0
:104800007105D0F4660F771FFB01EB54FE4F20813A
:10481000318189E090E014C06330710568F4FB01D8
:10482000EE0FFF1FE155FE4F20813181FB01E45562
:10483000FE4F808190E004C080E090E020E030E016
:10484000FA0131832083089580918802843011F029
:1048500081E0089582E0089580915702811102C09D
:104860000C942424089580E189BD82E189BD09B4B6
:1048700000FEFDCF8091D8008F7D8093D80080917D
:10488000E00082608093E0008091E00081FDFCCF39
:104890000895CF92DF92EF92FF920F931F93CF93E1
:1048A000DF93EC018B017A010E94F225811133C064
:1048B000E114F10439F0F70180819181081B190B93
:1048C000C80FD91FC12CD12C0115110519F18091E8
:1048D000E80085FD16C08091E8008E778093E8009F
:1048E000E114F10449F0F70180819181C80ED91ECD
:1048F000D182C08285E00FC00E94F225882321F377
:104900000AC089918093F10001501109FFEFCF1A7D
:10491000DF0ADACF80E0DF91CF911F910F91FF90F6
:10492000EF90DF90CF900895CF92DF92EF92FF92B9
:104930000F931F93CF93DF93EC018B017A010E94B9
:10494000F225811133C0E114F10439F0F7018081BF
:104950009181081B190BC80FD91FC12CD12C01152F
:10496000110519F18091E80085FD16C08091E800DD
:104970008B778093E800E114F10449F0F70180811E
:104980009181C80ED91ED182C08285E00FC00E94DD
:10499000F225882321F30AC08091F1008993015008
:1049A0001109FFEFCF1ADF0ADACF80E0DF91CF9154
:1049B0001F910F91FF90EF90DF90CF90089520917D
:1049C0008F02309190022617370748F06115710564
:1049D00039F42091E8002E772093E80001C0B90156
:1049E000FC0120E06115710579F18091880288232E
:1049F000F1F18530F1F18091E80083FD3CC08091B8
:104A0000E80082FD2EC08091E80080FFEBCF20916E
:104A1000F3008091F20090E0922B6115710551F046
:104A20008830910538F421912093F100615071098B
:104A30000196F3CF21E0089709F020E08091E8008B
:104A40008E778093E800CECF2111CFCF0AC080911E
:104A50008802882361F0853061F08091E80083FD51
:104A60000AC08091E80082FFF2CF80E0089582E0E2
:104A7000089583E0089581E0089520918F02309198
:104A800090022617370748F06115710539F4209117
:104A9000E8002E772093E80001C0B901FC0120E076
:104AA0006115710591F180918802882309F440C055
:104AB000853009F43FC08091E80083FD3DC08091BE
:104AC000E80082FD2FC08091E80080FFE9CF2091AF
:104AD000F3008091F20090E0922B6115710559F07E
:104AE0008830910540F424912093F1003196615073
:104AF00071090196F2CF21E0089709F020E080913A
:104B0000E8008E778093E800CBCF2111CCCF0AC08C
:104B100080918802882361F0853061F08091E800FF
:104B200083FD0AC08091E80082FFF2CF80E0089503
:104B300082E0089583E0089581E00895982F9730EA
:104B400068F59093E900981739F07091EC00209186
:104B5000ED005091F00003C0242F762F50E021FD8E
:104B600002C09F5FECCF3091EB003E7F3093EB00B3
:104B70003091ED003D7F3093ED003091EB003160DE
:104B80003093EB007093EC002093ED005093F00015
:104B90002091EE0027FDE5CF80E008958F7080938F
:104BA000E90081E008958091890287FF11C080911A
:104BB000E80082FD05C0809188028111F8CF11C004
:104BC0008091E8008B770BC080918802882349F0A0
:104BD0008091E80080FFF8CF8091E8008E77809385
:104BE000E80008952091E4003091E50095E64091B9
:104BF000EC00842F817040FF23C08091E80080FD8D
:104C00001DC080918802882399F0853099F08091A9
:104C1000EB0085FD11C04091E4005091E5002417A0
:104C2000350729F3915011F09A01E1CF84E00895FE
:104C300082E0089583E0089581E0089580E008957A
:104C40004091E80042FFDDCF08950E9493260E9424
:104C50009B26E0EEF0E0808181608083E8EDF0E06B
:104C600080818F77808319BCA7EDB0E08C918E7F17
:104C70008C9380818F7E80831092870208950F939A
:104C80001F93CF93DF930E9493260E949B26C8ED2B
:104C9000D0E088818F778883888180688883888145
:104CA0008F7D888319BC1092880210928402109222
:104CB00086021092850200EE10E0F80180818B7F61
:104CC000808388818160888342E060E080E00E9488
:104CD0009E25E1EEF0E080818E7F8083E2EEF0E0C1
:104CE000808181608083808188608083F8018081F9
:104CF0008E7F8083888180618883DF91CF911F912F
:104D00000F910895E8EDF0E080818F7E8083E7EDDC
:104D1000F0E080818160808384E082BF81E08093C5
:104D200087020C943F26E8EDF0E080818E7F80833F
:104D30001092E20008951092DA001092E1000895B6
:104D40001F920F920FB60F9211242F933F934F9300
:104D50005F936F937F938F939F93AF93BF93EF93E3
:104D6000FF938091E10082FF0BC08091E20082FFFF
:104D700007C08091E1008B7F8093E1000E9416299B
:104D80008091DA0080FF1FC08091D80080FF1BC097
:104D90008091DA008E7F8093DA008091D90080FFC5
:104DA0000DC080E189BD82E189BD09B400FEFDCF5F
:104DB00081E0809388020E946E2205C019BC109287
:104DC00088020E947C228091E10080FF19C08091BE
:104DD000E20080FF15C08091E2008E7F8093E200A8
:104DE0008091E20080618093E2008091D80080622F
:104DF0008093D80019BC85E0809388020E948022AD
:104E00008091E10084FF30C08091E20084FF2CC0DB
:104E100080E189BD82E189BD09B400FEFDCF8091AA
:104E2000D8008F7D8093D8008091E1008F7E8093A1
:104E3000E1008091E2008F7E8093E2008091E200A9
:104E400081608093E20080918402882311F084E0E5
:104E500007C08091E30087FD02C081E001C083E0CC
:104E6000809388020E9481228091E10083FF29C003
:104E70008091E20083FF25C08091E100877F8093CD
:104E8000E10082E080938802109284028091E10028
:104E90008E7F8093E1008091E2008E7F8093E2001C
:104EA0008091E20080618093E20042E060E080E077
:104EB0000E949E258091F00088608093F0000E94FF
:104EC0007F22FF91EF91BF91AF919F918F917F9141
:104ED0006F915F914F913F912F910F900FBE0F9067
:104EE0001F9018951F920F920FB60F9211242F93B7
:104EF0003F934F935F936F937F938F939F93AF9362
:104F0000BF93CF93DF93EF93FF93C091E900CF70EE
:104F10008091EC00D82FD17080FDD0E81092E9008C
:104F20008091F000877F8093F00078940E94B627EC
:104F30001092E9008091F00088608093F000CD2B02
:104F4000CF70C093E900FF91EF91DF91CF91BF91B6
:104F5000AF919F918F917F916F915F914F913F9111
:104F60002F910F900FBE0F901F9018951F93CF9306
:104F7000DF93CDB7DEB7AA970FB6F894DEBF0FBEAA
:104F8000CDBFE9E8F2E08091F100819322E0E139C0
:104F9000F207C9F70E9497228091E80083FF2EC193
:104FA0008091890290918A02492F50E04A30510540
:104FB00008F024C1FA01E556FF4F0C9468298038A7
:104FC00021F0823809F01AC108C0809185029091C1
:104FD0008602992389F082600FC080918D028F70C4
:104FE000873008F00BC18093E9008091EB0085FBCE
:104FF000882780F91092E9009091E800977F9093BC
:10500000E8008093F1001092F100D1C0282F2D7F8D
:1050100009F0F4C0882319F0823061F0EFC080916C
:105020008B02813009F0EAC0933009F080E0809370
:1050300086022EC080918B0281112AC080918D0240
:105040008F702FEF280F263008F0D8C08093E9002A
:105050002091EB0020FF1CC0933021F48091EB00E5
:10506000806214C09091EB0090619093EB0021E07E
:1050700030E0A90102C0440F551F8A95E2F7409322
:10508000EA001092EA008091EB0088608093EB00C8
:105090001092E9008091E800877F8093E8000E94E9
:1050A000D325ACC08111AAC010918B021F778091CB
:1050B000E3008078812B8093E3008091E800877F74
:1050C0008093E8000E94D3258091E80080FFFCCF08
:1050D0008091E30080688093E300111102C082E0B8
:1050E00001C083E08093880289C08058823008F034
:1050F00085C080918B0290918C028C3D53E0950786
:1051000079F583E08A838AE289834FB7F894DE01D8
:10511000139620E03EE051E2E32FF0E05093570079
:10512000E49120FF03C0E295EF703F5FEF708E2F98
:1051300090E0EA3010F0C79601C0C0968D939D9321
:105140002F5F243149F74FBF8091E800877F80931C
:10515000E8006AE270E0CE0101960E94DF2416C0EA
:1051600060918D0270918E02AE014F5F5F4F0E9481
:10517000C623BC01892B09F441C09091E800977FB8
:105180009093E80089819A810E943D258091E800F2
:105190008B778093E80032C0803881F58091E800F9
:1051A000877F8093E800809184028093F100809152
:1051B000E8008E7772CF811121C080918B0290918F
:1051C0008C0299270297D4F48091E800877F80931E
:1051D000E80080918B02809384020E94D325809105
:1051E0008402811106C08091E30087FD02C081E046
:1051F00001C084E0809388020E9483228091E800AD
:1052000083FF0AC08091E800877F8093E800809147
:10521000EB0080628093EB00AA960FB6F894DEBF95
:105220000FBECDBFDF91CF911F9108950895CF9309
:10523000809188028823A1F0C091E900CF709091FD
:10524000EC00892F817090FD80E8C82B1092E90056
:105250008091E80083FD0E94B627CF70C093E900DB
:10526000CF91089587FB082E062687FD819567FD5F
:1052700061950E9475290EF4919507FC819508951A
:10528000AA1BBB1B51E107C0AA1FBB1FA617B7076C
:1052900010F0A61BB70B881F991F5A95A9F7809588
:1052A0009095BC01CD01089597FB072E16F400944C
:1052B00007D077FD09D00E94402907FC05D03EF4B5
:1052C000909581959F4F0895709561957F4F0895B2
:1052D000EE0FFF1F0590F491E02D099469279627A2
:1052E00069277827872778270895991B79E004C0D4
:1052F000991F961708F0961B881F7A95C9F7809515
:105300000895FC014150504030F001900616D1F74D
:105310003197CF010895882799270895F999FECFED
:1053200092BD81BDF89A992780B50895A6E1B0E0B5
:1053300044E050E00C94C829A8E1B0E042E050E01D
:105340000C94C829262FF999FECF92BD81BDF89AF9
:10535000019700B4021639F01FBA20BD0FB6F894B9
:10536000FA9AF99A0FBE08950396272F0E94A3294F
:105370000E94A229252F0E94A329242F0C94A3293F
:105380000196272F0E94A3290C94A229DC01CB01AE
:10539000FC01F999FECF06C0F2BDE1BDF89A319645
:1053A00000B40D9241505040B8F70895F894FFCFE3
:1053B0000102000B000B0B013E02C7211322CA2180
:1053C0000F22FD2101F4F19593F0676636C6E200E5
:1053D000E900EA00B500B600B700CD008301CC00BB
:1053E0008A0192019401210223022402250226024D
:1053F00027022A02B300B4006F007000818283008C
:1054000001020202020606060909090909090F0F2D
:105410000F0F0F0F15151500FF0100010000FFFF12
:105420000000010001FF00F535F634E200E900EA72
:1054300000B500B600B700CD008301CC008A019210
:105440000194012102230224022502260227022AB6
:1054500002B300B4006F0070008182834022328F5B
:0C546000053B055D05E004F9041905009A
:00000001FF
