:100000000C9465020C94AC020C94AC020C94AC02FF
:100010000C94AC020C94AC020C94AC020C94AC02A8
:100020000C94AC020C94AC020C943B260C940D275F
:100030000C94C21E0C94AC020C94AC020C94AC0256
:100040000C94AC020C94AC020C94AC020C94AC0278
:100050000C94AC020C940F1F0C94AC020C94AC02E8
:100060000C94AC020C94AC020C94AC020C94AC0258
:100070000C94AC020C94AC020C94AC020C94AC0248
:100080000C94AC020C94AC020C94AC020C94AC0238
:100090000C94AC020C94AC020C94AC020C94AC0228
:1000A0000C94AC020C94AC020C94AC022A0E2D0EF3
:1000B000350E3A0E3F0E440E490E4E0E530E580E9C
:1000C0005D0E620E640E670E6A0E6D0E700E730E7C
:1000D000750E7A0E8F148F14C114C1140E152C15C1
:1000E0004D164D163715CC15DD15DD153D164D1683
:1000F0004D164616ED16ED16FF16FF16F616FF16F0
:10010000FF16FF16ED16ED16FB16FF16FF16FB1673
:100110007A27A1279928A1279928ED27102899281F
:10012000672876282400250026005500210022009B
:10013000230056001E001F00200057000151270019
:1001400063005800A800AE00000000000100C45C7D
:10015000C55CC35CCB5CCA5CC75CC65CC95CC85C84
:100160000100010001000100005C0100010001002C
:100170000000000032190A00047F3F1F643214643B
:100180003214783C1E1E140A052223252628292A0B
:100190002C2D2F3032333536383A3B3D3E404243EA
:1001A0004547494A4C4E5051535557595A5C5E6029
:1001B00062646668696B6D6F71737577797B7D7F3B
:1001C00081838587898A8C8E90929496989A9C9E3A
:1001D0009FA1A3A5A7A8AAACAEAFB1B3B4B6B8B956
:1001E000BBBCBEBFC1C2C3C5C6C7C9CACBCCCDCEBE
:1001F000D0D1D2D2D3D4D5D6D7D7D8D9D9DADADBA1
:10020000DBDBDCDCDCDCDCDDDDDDDDDCDCDCDCDC2C
:10021000DBDBDBDADAD9D9D8D7D7D6D5D4D3D2D26B
:10022000D1D0CECDCCCBCAC9C7C6C5C3C2C1BFBE53
:10023000BCBBB9B8B6B4B3B1AFAEACAAA8A7A5A3BE
:10024000A19F9E9C9A98969492908E8C8A8987857D
:1002500083817F7D7B79777573716F6D6B6968665C
:100260006462605E5C5A5957555351504E4C4A492E
:1002700047454342403E3D3B3A3836353332302FD6
:100280002D2C2A292826252322FFAA7F554000014C
:100290000101010101010101020202020202020246
:1002A0000203030303030303030404040404040418
:1002B00005050505050606060606070707070708DC
:1002C000080808090909090A0A0A0B0B0B0C0C0C8F
:1002D0000D0D0D0E0E0E0F0F0F1010111111121229
:1002E00013131414151516161717181819191A1AA6
:1002F0001B1B1C1D1D1E1E1F202021222223242407
:10030000252626272829292A2B2C2D2D2E2F303142
:100310003232333435363738393A3B3C3D3E3F4054
:100320004142434445464748494A4C4D4E4F50513F
:100330005354555658595A5B5D5E5F6162646566F9
:1003400068696B6C6D6F7072737577787A7B7D7E80
:100350008082838587888A8C8E8F91939596989AD0
:100360009C9EA0A2A3A5A7A9ABADAFB1B3B5B7BAE8
:10037000BCBEC0C2C4C6C9CBCDCFD1D4D6D8DBDDBC
:10038000DFE2E4E7E9EBEEF0F3F5F8FAFDFF0C034A
:100390004800750062003100360000001A034A0070
:1003A0006F007300680020004A006F0068006E0054
:1003B00073006F006E0000000403090409023B0093
:1003C000020100A0FA090400000103010100092153
:1003D000110100012240000705810308000A0904F9
:1003E0000100010300000009211101000122810028
:1003F0000705820320000A12011001000000086AAC
:100400006A104801000102000105010902A10185ED
:10041000020901A100050919012905150025019509
:1004200005750181029501750381010501093009F6
:10043000311581257F9502750881060938158125BA
:100440007F950175088106050C0A38021581257F04
:10045000950175088106C0C005010980A1018503C9
:1004600019012AB700150126B70095017510810002
:10047000C0050C0901A101850419012AA00215017A
:1004800026A002950175108100C005010906A10191
:10049000050719E029E71500250195087501810276
:1004A0009501750881010507190029FF150026FF30
:1004B000009506750881000508190129059505753F
:1004C000019102950175039101C011241FBECFEF68
:1004D000DAE0DEBFCDBF04B603FE27C08091EF0295
:1004E0009091F002A091F102B091F2028730904B0E
:1004F000A740B04BD1F41092EF021092F00210928C
:10050000F1021092F20214BE84B7877F84BF0FB647
:10051000F894A895809160008861809360001092A3
:1005200060000FBEE0E0F8E3099511E0A0E0B1E063
:10053000E4E7F4E502C005900D92A63DB107D9F7B6
:1005400022E0A6EDB1E001C01D92AF3EB207E1F797
:100550000E947B230C94382A0C940000CF93DF93E5
:1005600087988F9857985F98A0E3B1E045E351E0F2
:1005700061E070E08D91E82FE295EF70F0E021A14D
:100580008F70EB0102C0CC0FDD1F8A95E2F7CE0120
:100590009C2F9095922391A392A1892B82A34A1715
:1005A0005B0741F7ACE2B1E040E351E061E070E0AD
:1005B0008D91E82FE295EF70F0E021A18F70EB01B3
:1005C00002C0CC0FDD1F8A95E2F7CE019C2F9095DB
:1005D000922391A392A1892B82A34A175B0741F72B
:1005E000DF91CF9108954F925F927F928F929F9269
:1005F000AF92BF92CF92DF92EF92FF920F931F9331
:10060000CF93DF9380E3482E81E0582EACEAB2E02E
:1006100091EBE92E92E0F92EB12C01E010E06D0192
:10062000AC901C92E20189912E01E82FE295EF70C7
:10063000F0E091A18F70980101C0220F8A95EAF72E
:10064000892F822B81A382A1922E9094892182A34B
:10065000D0EADA95F1F78CE291E060E070E0EC012D
:100660008990CE01482D42954F7050E0EA0148A193
:100670007C9050E0D82DDF7002C055954795DA95F3
:10068000E2F740FD08C0502F062E01C0550F0A9416
:10069000EAF7452F01C040E047294C936F5F7F4F39
:1006A00064307105E1F681A1982291A282A1282BE4
:1006B00022A3119681E0F60190819A1101C080E099
:1006C000B82AEA16FB0609F0AACF5091B50210929B
:1006D000B5023091D701432F440F4093D701909139
:1006E000D601292F220F2093D6013FB1331F332784
:1006F000331F342B3093D70199B1991F9927991F34
:10070000922B9093D60121E03F3709F020E09F37EC
:1007100011F080E001C082E0922F982B9093B502F7
:1007200081E0591301C080E08B29DF91CF911F91A7
:100730000F91FF90EF90DF90CF90BF90AF909F9080
:100740008F907F905F904F900895811106C066232F
:1007500011F08AEA09C089EA07C0813039F46623BA
:1007600011F08CEA01C08BEA0C943814089581E0F2
:10077000089581E008950C94B90308950C94BD0385
:100780001F93CF93DF9300D000D01F92CDB7DEB779
:1007900049835A836B833091340289819A81311164
:1007A00014C0662359F0222349F00E94241C182FFC
:1007B000682F89819A810E94CF1B03C00E94F91B78
:1007C000182F69817A81812F04C00E94241C6981BD
:1007D0007A810F900F900F900F900F90DF91CF9133
:1007E0001F910C947804FC01262F40815181628175
:1007F000738184810C94C003CF93DF93EC0160E09C
:100800000E94F303BE01DF91CF910C94BE030E94BE
:10081000561D811102C00E94FD1D0C9491060C947E
:100820008D0608950E94DB160E9411042FEF84E3C9
:100830009CE0215080409040E1F700C000000C9403
:10084000351F0F931F93CF93DF93EC0161E00E945C
:10085000F3038C01BE010E94BB03882379F1BE0122
:10086000C8010E942410882349F1BE01C8010E94DA
:100870007610882319F1BE01C8010E94A1118823B6
:10088000E9F0BE01C8010E94130E8823B9F08A81E5
:10089000882369F001158CE5180731F00F3D1C45E0
:1008A00031F40E94FD1D0AC00E94120407C0CE014F
:1008B000DF91CF911F910F910C94B70380E0DF91EE
:1008C000CF911F910F91089508950C94640481E0D5
:1008D00008950C946704CF93C82F0E9465048C2F51
:1008E0000E946904CF91089580E090E008950895F2
:1008F000E72FF0E095E0899FE00DF11D1124EE0F48
:10090000FF1FEE0FFF1FE60FF11DEE0FFF1FEC5D47
:10091000FE4F859194910895880F991FFC01EC5822
:10092000FE4F859194910895CF93DF930E947804B0
:100930000E94AC05EC018115904508F041C0C1153D
:1009400080E4D80708F0D1C0C83ED10510F5C03EFC
:10095000D10508F0FDC0C83AD10578F4C53AD105F3
:1009600008F0A2C0C130D10509F4F2C008F4EEC00D
:10097000C430D10508F0ECC0E9C0CF3BD10508F484
:100980009BC0C03CD10508F4E1C0CE01805C910958
:100990009EC0C11590E2D90758F4C11521E0D207D5
:1009A00008F0D6C0C03FD10508F4D0C0D065D0C093
:1009B000C11580E3D80708F08EC0CE019F7087C0B4
:1009C000C11595E5D90708F043C0C11524E5D20744
:1009D00008F0A2C0C11582E5D80708F5C11591E558
:1009E000D90708F085C0CE0174E0969587957A9571
:1009F000E1F783709C2F937021E030E002C0220F5A
:100A0000331F9A95E2F73C68382BCF70C695C69590
:100A100080E2C89FE0011124C22BD32B99C09E0114
:100A2000237033278C2F86958695C115D34508F002
:100A300064C0C1E0D0E002C0CC0FDD1F2A95E2F710
:100A400020E2829FC0011124C82BD92BDC6880C012
:100A5000C11529E5D207A0F4C11588E5D80708F02B
:100A600060C0C11596E5D90708F070C08C2F0E94B0
:100A700040068F71C82FD0E0DC2FCC27D06268C031
:100A8000C1152AE5D20708F451C0CE019056811550
:100A9000904208F05BC08D2F8F710E944006DD27C9
:100AA000D0628F71D82B54C0C55AD0E0CD59DE4FDB
:100AB000C881D0E0D0644CC0C85AD0E0CC0FDD1F54
:100AC000CB5CDE4F0990D881C02DD46441C00E9418
:100AD0008C04EC013DC0CE019927D3FF03C0EC018B
:100AE000D86C36C0EC01D06C33C0DF70D06A30C037
:100AF000DC2FCC27C16FD06A2BC0C1E0D0E002C090
:100B0000CC0FDD1F2A95E2F720E2829FC00111245D
:100B1000C82BD92BDA681CC0DC2FCC27C46FD06A55
:100B200017C0DC2FCC27C06FD06A12C08C2F8F70FB
:100B30000E94400694E0D695C7959A95E1F7CF704C
:100B4000D0E0DC2FCC27D069C82B02C0C0E0D0E0B9
:100B5000CE01DF91CF9108958238910569F1B0F40B
:100B60008133910509F46DC048F48932910509F487
:100B700063C08A32910509F469C0089585339105EF
:100B800009F455C089339105B9F00895833E910564
:100B900069F138F4803E9105B1F0823E910509F18A
:100BA0000895863E9105A9F1873E9105B9F1843EED
:100BB000910509F064C023C02091E00220FD4FC0E0
:100BC00021FD4DC008958091E00280FD44C08091D8
:100BD000E10280FF44C08091E00284FD42C083EEC8
:100BE0004DC08091E00282FF38C0F5CF8091E002D5
:100BF00082FD33C08091E10280FD31C0ECCF809155
:100C0000E10281FF32C08091E00284FD2AC087EEBC
:100C100035C08091E00283FF26C0F5CF8091E002CD
:100C200083FD21C08091E10281FD1FC0ECCF809146
:100C3000E00285FD1CC01DC08091E00285FD19C049
:100C400016C08091E00286FD16C017C08091E002B8
:100C500086FD13C010C089E311C082EE0FC080EE84
:100C60000DC080E00BC086EE09C084EE07C089E2AB
:100C700005C085E303C08AE201C081E390E00895E6
:100C80009091E00292FF0DC0282F2871283019F4AE
:100C9000877F846006C0282F2471243011F48B7F55
:100CA000886093FF0DC0282F2871283119F4877EA2
:100CB000846106C0282F2471243111F48B7E886151
:100CC0002091E10220FF0DC0382F3871383019F41F
:100CD000877F816006C0382F3171313011F48E7FEB
:100CE000886021FF0DC0282F2871283119F4877ED4
:100CF000816106C0282F2171213111F48E7E886117
:100D000094FD877E0895E82FF0E0EF54FD4F808139
:100D10000895089508950C948A060C948B060C94FB
:100D20008A060C948F060E94AE02ECEAF2E0A1EB78
:100D3000B2E011921D9282E0E13BF807D1F785E025
:100D40000E94B7060C940704CF938CEA92E00E94AD
:100D5000F302C82F282F45E061EB72E08CEA92E0A5
:100D60000E94B8060E940F048C2FCF910895089519
:100D7000FF920F931F93CF93DF938C01F62ED72F03
:100D8000C42F222349F081E08093DA010E94F41EEF
:100D90009093D9018093D8018091DA018823C1F022
:100DA0008091D8019091D9010E94001F459780F051
:100DB000EF2DFD2FD8014C2F50E0CD01801B910B62
:100DC000841795071CF48D918193F7CF1092DA0167
:100DD000DF91CF911F910F91FF900895EF92FF92B5
:100DE0000F931F93CF93DF938B01682F11110AC0CC
:100DF000442329F0E82FF0E0E257FD4F6491762F6D
:100E0000862F75C0212F30E0E82FF0E0442321F039
:100E1000E257FD4FE491F0E046E0049FC001112449
:100E2000CFEFD0E0BE010E94E7284BEA4603C001A5
:100E3000479F900D1124800F911D800F911D982FB9
:100E4000990F890FAE01421B530B4E9FD0014F9F4C
:100E5000B00D5E9FB00D11249B2F189FA00111248F
:100E6000452F55278E01041B150B0E9FA0010F9FC8
:100E7000500D1E9F500D11247E01E81AF108E29ECC
:100E80008001E39E100DF29E100D1124212F3327B7
:100E9000C21BD30BCE9F9001CF9F300DDE9F300D34
:100EA000112462307105A9F048F46115710569F0EB
:100EB00061307105C9F48B2F752F0DC06430710539
:100EC00081F058F06630710579F47E2F8B2F932FC7
:100ED0000DC0832F7B2F9E2F09C08E2F7B2F952F28
:100EE00005C08E2F732F02C07E2F852F692FDF91B3
:100EF000CF911F910F91FF90EF90089541E00E94D4
:100F0000EE06089508950E947E070895CF93DF931B
:100F1000762FE901682F842F0E94830779836883E5
:100F20008A83DF91CF9108958091B602282F26956C
:100F300030E02115310519F48170826005C02B3233
:100F4000310524F0817084658093B602089588E0AD
:100F500090E00C94D929CF92DF92EF92FF926B012F
:100F60007C010E949407B701A60188E090E0FF9001
:100F7000EF90DF90CF900C94F729E6EBF2E083E05E
:100F8000808311828FEF82838383148260817181D9
:100F9000828193810C94AB078091B60280FF02C0DE
:100FA0008695089580E008959091BA02933018F4E0
:100FB0009F5F9093BA02882351F06091B6027091BE
:100FC000B7028091B8029091B9020C94AB070895D2
:100FD00081E00C94D4079091BA02992319F09150B2
:100FE0009093BA02882351F06091B6027091B702D3
:100FF0008091B8029091B9020C94AB07089581E0FA
:101000000C94EB0770E00C94840E609108018091C1
:10101000B60280FF0AC08091070123E0829FC001D1
:10102000112485549D4F0C940208809109019091E0
:101030000A01891780F7E82FF0E09F01220F331F84
:10104000E20FF31FE554FD4F1182108212828F5F71
:10105000F0CF9091B60290FF16C0909109012091B7
:101060000A01921770F4E92FF0E0DF01AA0FBB1F0D
:10107000EA0FFB1FE554FD4F8183608342839F5F2E
:10108000F0CF0C9405080895CF93DF9300D01F9202
:10109000CDB7DEB79091B60290FF0AC09E012F5FD8
:1010A0003F4F0E9486074B8169818A810E942908EF
:1010B0000F900F900F90DF91CF910895CF93DF9312
:1010C000EC01EC81F0E0E757FE4F4491E6EBF2E0F3
:1010D000628181810E9444088C818F5F8C83DF91C3
:1010E000CF910895CF93DF93EC01E6EBF2E04381DB
:1010F00062818C810E9444088C818F5F8C83DF9198
:10110000CF9108950F931F93CF93DF9300D01F9239
:10111000CDB7DEB78C018091DB0181110AC09E0141
:101120002F5F3F4F4FEF6FEF0E9486078A818093BA
:10113000DB01F8018481813051F028F0823061F4C4
:101140004091DB010AC08091DB0140E007C0609163
:10115000DB0140E080E003C040E080E060E00E940E
:101160002908F801848190E0019663E070E00E9414
:10117000FB2884830F900F900F90DF91CF911F91E8
:101180000F910895AF92BF92CF92DF92EF92FF92AC
:101190000F931F93CF93DF9300D01F92CDB7DEB78D
:1011A000182FF62E042FE22E9091B60290FF6DC0FC
:1011B000E92FE695AE2FB0E0AA59BE4F8C918093EF
:1011C0001C029E7F923061F49E012F5F3F4F812F62
:1011D0000E9486074B8169818A810E94290843C049
:1011E000823019F40091B9023EC0863019F4109192
:1011F000B70239C08930D9F38931A9F5E9518E2F69
:101200008170D82EE695F0E0E757FD4FA590B49099
:10121000C12CBB2460910B01C61618F52C2D30E0B3
:10122000A29EC001A39E900DB29E900D112470E06D
:101230000E94E728812FD11002C0860F01C0861BB3
:1012400090910901290F311DA901440F551F240F49
:10125000351F25543D4F402F6F2D0E948607C394A4
:10126000D9CF0E9405081093B702F092B8020093FC
:10127000B902EE2051F06091B6027091B7028091F0
:10128000B8029091B9020E94AB070F900F900F9097
:10129000DF91CF911F910F91FF90EF90DF90CF9052
:1012A000BF90AF900895E6EBF2E09181282F438143
:1012B000628188E0890F0C94C20881E00C94530984
:1012C000E6EBF2E09181282F4381628188EF890F5C
:1012D0000C94C20881E00C946009E6EBF2E06281B4
:1012E00028E0620F08F46FEF282F438181810C946E
:1012F000C20881E00C946D09E6EBF2E0628128E01F
:10130000621B08F460E0282F438181810C94C2089D
:1013100081E00C947C09E6EBF2E0438128E0420F87
:1013200008F44FEF282F628181810C94C20881E07C
:101330000C948B09E6EBF2E0438128E0421B08F4B1
:1013400040E0282F628181810C94C20881E00C94D6
:101350009A0920E00C94C208FF920F931F93CF9339
:10136000DF93EC01F12C0FEF10E060910B01F6160A
:10137000F0F4809109012F2D30E0280F311DC901B3
:10138000880F991F280F391F25543D4F70E0C80161
:101390000E94FB28962F8C814091B9026091B8027F
:1013A000F99E800D11240E948607F394DECF0E94DF
:1013B00005089A818C8190FF02C08F5F01C0815027
:1013C0008C83DF91CF911F910F91FF900895AF9281
:1013D000BF92CF92DF92EF92FF920F931F93CF9322
:1013E000DF93FC01828180FF02C00FEF01C001E0AA
:1013F00010E04BE0A42E80910B01181708F043C0B9
:1014000080910901C12ED12CE601C80FD11DCE015A
:10141000880F991FC80FD91FC554DD4F1982188234
:101420001A8234E0E32EF12CB12C8091DD018B0D7A
:101430008C302CF06A2D0E94D928892F05C087FF97
:1014400003C090910B01890F082E000C990BC81650
:10145000D90691F48091B9028E9DA0018F9D500D07
:10146000112455954795559547959E016091B80271
:101470008091B7020E948607B00EF1E0EF1AF108E2
:10148000A1F61F5FB8CF0E9405088091DD010130F1
:1014900031F4811102C080910B01815007C090E0AE
:1014A000019660910B0170E00E94FB288093DD01A2
:1014B000DF91CF911F910F91FF90EF90DF90CF9030
:1014C000BF90AF900895CF938091090190910A0148
:1014D000891770F4E82FF0E09F01220F331FE20F0D
:1014E000F31FE554FD4F1182108212828F5FF0CFFF
:1014F000C0E060910B01C617C0F5EC2FF0E070E082
:10150000CF010E94FB2820910901820F2091DC016C
:10151000022E000C330B90E0E217F307CCF0209181
:101520000601022E000C330B2E173F078CF09C0196
:10153000220F331F820F931F9C0125543D4F409172
:10154000B9026091B8028091B7020E9486070BC071
:10155000FC01EE0FFF1F8E0F9F1FFC01E554FD4F96
:10156000118210821282CF5FC4CF0E9405082091A1
:1015700005018091DC01820F8093DC0190910601CE
:10158000920F9093060119165CF4082E000C990B2B
:1015900040910B0150E041505109841795071CF010
:1015A000219520930501CF9108958F929F92AF923C
:1015B000BF92CF92DF92EF92FF920F931F93CF9340
:1015C000DF938C01FC014481C42FD0E09E01DE0139
:1015D0000E943F299B01AC010E9455296B017C01AF
:1015E000E0E2F0E0EC1BFD0BA5E5B0E09B01AC01F7
:1015F0000E9455294B015C019F01DF010E943729A0
:101600009B01AC010E9460299B01AC012C0D3D1D8A
:101610004E1D5F1DC501B4010E940F29C22FD22F9C
:101620002A3228F4F3E02F9F900111240DC025E504
:1016300030E02C1B3109C901880F991F280F391F71
:1016400037FF02C02F5F3F4F35952795C22FC095BA
:10165000F12C85E5E82EED1A80910B01F816C8F4FF
:10166000F1FC02C08E2D01C08D2F909109012F2D0C
:1016700030E0290F311DA901440F551F240F351FDC
:1016800025543D4F4C2F6091B8020E948607F39479
:10169000E3CF0E940508F8018481811102C091E026
:1016A00003C0803219F49FEF9093040190910401DC
:1016B000890FF8018483DF91CF911F910F91FF90E3
:1016C000EF90DF90CF90BF90AF909F908F90089554
:1016D0000F931F93CF93DF93EC0100E010E0809114
:1016E0000B01282F30E00217130724F59091090110
:1016F0009801290F311DA901440F551F240F351FD3
:1017000025543D4F869590E04C81081719071CF42D
:10171000442331F002C0411103C04091B90201C01D
:1017200040E06091B8028091B7020E9486070F5F87
:101730001F4FD5CF0E9405088C8190E001968170E3
:1017400099278C83DF91CF911F910F9108958F92EC
:101750009F92AF92BF92CF92DF92EF92FF920F9340
:101760001F93CF93DF93FC01B280948081E0848348
:1017700000E015E05BE4A52E88248394EE24EA942F
:10178000F12C7BE4C72ED12C80910B01081708F0B7
:101790008FC0C02FD0E01C9FF0011D9FF00D1124C1
:1017A000E252FE4F911003C01382128267C0238160
:1017B000222389F1215023833481332319F09A2D78
:1017C000921B01C0922F8091B9021C9FF0011D9FB6
:1017D000F00D1124E252FE4F899FC0011124B60181
:1017E0000E94E7286283211104C0332311F0148280
:1017F000A38222E02B1508F441C01C9FF0011D9F1D
:10180000F00D1124E252FE4F8091B7028083809147
:10181000B802818333C00E94B4298230914074F5AC
:1018200082E08B1530F40E94B429B7010E94FB2896
:1018300002C08091B7021C9FF0011D9FF00D112482
:10184000E252FE4F808322E02B1558F40E94B42907
:101850002091B8022695622F70E00E94FB28820F2B
:1018600002C08091B8021C9FF0011D9FF00D112451
:10187000E252FE4F81831282A38284828091090109
:101880009E01280F311DC901880F991F280F391F8C
:1018900025543D4F1C9FF0011D9FF00D1124E25275
:1018A000FE4F4281618180810E9486070F5F6CCF6D
:1018B000DF91CF911F910F91FF90EF90DF90CF902C
:1018C000BF90AF909F908F900C940508E6EBF2E0EC
:1018D00080818E7F808360817181828193810E946B
:1018E000AB0710921D022FEF80E792E0215080405D
:1018F0009040E1F700C000000C940508E6EBF2E030
:1019000080818E7F808310921D022FEF80E792E00E
:10191000215080409040E1F700C000000C94050881
:101920006091B602669570E04BE050E08CE091E08B
:101930000E94C429892B19F481E080931D020E9422
:10194000F41E909316028093150208959091B602AA
:1019500090FF35C09170811102C0926006C08B3239
:1019600010F0946502C0880F982B9093B6026623FE
:1019700051F06091B6027091B7028091B8029091D7
:10198000B9020E94AB076091B602669570E04BE029
:1019900050E08CE091E00E94C429892B19F010924C
:1019A0001D0202C00E94900C81E0809318024091B9
:1019B000B9026091B8028091B7020C94A909089508
:1019C000682F9091B602969581E0890F8B3208F0CE
:1019D00081E00C94A60C81E00C94E00C682F9091AF
:1019E000B60296958FEF890F09F48AE20C94A60C43
:1019F00081E00C94EE0C61E00C94A60CE6EBF2E0B6
:101A000080818160808386950C94FB0C8091B60266
:101A100080FD0C94660C0C94FE0C60E00C94A60CFB
:101A200080911B0281112EC00E94561D811104C09D
:101A30000E94FD1D0E94BD070E94A7076093B60289
:101A40007093B7028093B8029093B9026E7F61F4ED
:101A50000E94BD070E94A7076093B6027093B70269
:101A60008093B8029093B9020E94940710921D02CD
:101A70008091B60280FF03C086950E940D0D81E023
:101A800080931B020895E6EBF2E080818160808301
:101A900086950C940D0D10921D0208950F931F93BF
:101AA000CF93DF9380911D02882309F49CC080911D
:101AB0001C02E091B602E695E81BE0931702823023
:101AC00049F4F0E0EB57FE4FE491CE2FD0E00EE565
:101AD00018E059C0863049F4F0E0EE57FE4FE4912B
:101AE000CE2FD0E002E718E04EC0893051F4E695E1
:101AF000F0E0E158FE4FE491CE2FD0E00CEA19E07F
:101B000042C08F3051F4E695F0E0E458FE4FE49186
:101B1000CE2FD0E007EE19E036C0853149F4F0E071
:101B2000E758FE4FE491CE2FD0E003E61AE02BC039
:101B30008831D9F0833239F4E7E7F1E0C591D491E7
:101B400002E818E020C08432A9F08532C1F48E2F5B
:101B500063E00E94CD28E92FF0E0EC58FE4FE491BD
:101B6000CE2FD0E007EA1BE00EC0C8E2D0E005EDC2
:101B70001AE009C0C4EFD1E008E61BE004C0C0EDE4
:101B8000D7E002E817E080911802882389F01092CC
:101B900018020E94F41E9E0120953095820F931F1B
:101BA000909316028093150210921A021092190255
:101BB00080911502909116020E94001F8C179D07BC
:101BC00090F0E0911502F0911602CE0FDF1FD09336
:101BD0001602C093150285E192E0F801DF91CF91E2
:101BE0001F910F910994DF91CF911F910F9108954B
:101BF000882311F0FA0101C0FB010994CF93DF9310
:101C0000C82FD62F0E94CC078C1740F00E94CC071B
:101C10008D1720F4DF91CF910C94EB0C8C2FDF917A
:101C2000CF910C94FB0C0F931F93CF93FB01C281B8
:101C3000CC2309F463C08C010E94A51C8272F801B8
:101C4000E35CFC45E431F10508F059C0EA5AFF4F66
:101C50000C9431290E94060D06C048EF5CE06BEE43
:101C60007CE00E94F80DC0E04AC04BEE5CE068EFFB
:101C70007CE0F7CF4AE659E06DE579E0F2CF4DE53B
:101C800059E06AE679E0EDCF48E859E069E779E0A4
:101C9000E8CF49E759E068E879E0E3CF46EA59E060
:101CA00067E979E0DECF47E959E066EA79E0D9CF24
:101CB0004FEF57E068EE77E0D4CF48EE57E06FEF94
:101CC00077E0CFCF81E017C065E082E010C068E028
:101CD00086E00DC06EE089E00AC064E18FE007C0D5
:101CE00067E185E104C088E106C062E289E10E9403
:101CF000FE0DB9CF83E20E94FB0CB5CFC1E08C2F63
:101D0000CF911F910F910895519A2BB12D7F3BB127
:101D100032604FB7F894FC01CB01880F991F680F10
:101D2000791F6E0F7F1FE617F70789F0819198E002
:101D30003BB9000000C087FF2BB9880F000000C02E
:101D400000C000C02BB900C09A9591F7ECCF4FBFEF
:101D50008FE594E00197F1F700C0000008950C941E
:101D6000A503FF920F931F93CF93DF93C2E2D2E0BC
:101D700043EA51E021EA31E061E070E0F2E0C43290
:101D8000DF0709F44CC0FA010191AF01A02FA29521
:101D9000AF70B0E09196EC9191970F70CB01002E4F
:101DA00001C0880F0A94EAF7982F90959E23919688
:101DB0009C93919792969C919297892B92968C9353
:101DC0009297F90111919F01E12FE295EF70F0E0F8
:101DD000F1A01F70CB01012E01C0880F0A94EAF711
:101DE000982F90959F2191A392A1892B82A39096E1
:101DF0008C9190E002C0959587950A95E2F78170E5
:101E0000E0A1F0E002C0F595E7951A95E2F7E0FD54
:101E100002C090E001C092E0892B8993AFCFDF919F
:101E2000CF911F910F91FF9008953F924F925F9233
:101E30006F927F928F929F92AF92BF92CF92DF92DA
:101E4000EF92FF920F931F93CF93DF9382E2682E5E
:101E500082E0782E93EAE92E91E0F92E01EA11E072
:101E600020E2822E22E0922ECEE1D2E063015301E5
:101E7000312C34E0432E512CD501ED915D014E2FD4
:101E8000440F440FF60141936F01D7012D917D015D
:101E9000E22FE295EF70F0E080A190E02F7002C099
:101EA000959587952A95E2F781709927F8015191C8
:101EB0008F01E52FE295EF70F0E020A130E05F7038
:101EC00002C0359527955A95E2F7F901E170FF2791
:101ED00020FF02C0E2E0F0E0E82BF92BE42BD30175
:101EE000ED933D01EF70F0E0EF56FE4F9081F4016D
:101EF0008081890F808384303CF088818F5F888364
:101F000060E0832D0E94AF0ED4018C918D3F3CF494
:101F100088818150888361E0832D0E94AF0EF40197
:101F20008081082E000C990BB2010E94FB28D4017D
:101F30008D934D0133942196B2E03B129DCFDF91FA
:101F4000CF911F910F91FF90EF90DF90CF90BF90B6
:101F5000AF909F908F907F906F905F904F903F9049
:101F600008950F931F93CF93DF93C42FD22FFC01BB
:101F700082818823C9F0409326020E94F41E909328
:101F800025028093240280E28C0F883008F057C02D
:101F9000C77081E001C0880FCA95EAF7DF91CF9141
:101FA0001F910F910C944B1480912602481330C05E
:101FB00080912402909125020E94001F883C910587
:101FC00038F510E21D0FCD17B9F080E28C0F883084
:101FD00040F4C77081E001C0880FCA95EAF70E94FB
:101FE0005214183028F581E09D2F977001C0880F9A
:101FF0009A95EAF70E944B14802F0E9438141830EB
:10200000F0F4D77081E001C0880FDA95EAF70AC0D2
:1020100080E28C0F883098F4C77081E001C0880F8F
:10202000CA95EAF7DF91CF911F910F910C9452144A
:10203000802FDF91CF911F910F910C943814DF9175
:10204000CF911F910F9108950F939C01CB01243FD5
:102050004CE5340731F188F4293DFCE53F07D9F020
:102060002A3D4CE5340779F1283D3C45A9F506E2C7
:1020700021EE41EE68ED7CE52BC0263FFCE53F07F5
:10208000E1F0A8F0273F3C4539F507E225EE46EEA2
:1020900067EF7CE51DC007E225EE45EE69ED7CE5C6
:1020A00017C006E221EE40EE64EF7CE511C007E2C6
:1020B00025EE44EE65EF7CE50BC006E221EE42EE34
:1020C00066EF7CE505C008E221E045EE6AED7CE5BF
:1020D0000E94B10F80E008C0FC018281882319F0C2
:1020E0001092260201C081E00F910895CF93DF93F3
:1020F000EC01FB018281882309F41FC1C230FCE599
:10210000DF0708F41BC1C6319CE5D90738F09E01F2
:102110002B5F3C452930310508F010C10E94691D34
:102120009093E1028093E002C031ECE5DE0709F410
:10213000C3C008F041C0C8308CE5D80709F49AC084
:10214000F0F4C430ECE5DE0709F487C068F4C2306F
:102150008CE5D80709F477C0C330DC4509F0E3C04B
:102160008091E002826076C0C630ECE5DE0709F4BB
:102170006EC008F07BC08091E00288606BC0CC30FC
:102180008CE5D80709F485C068F4CA30ECE5DE07B1
:1021900009F474C008F079C00E94DB168091E00257
:1021A000806858C0CE308CE5D80709F476C008F0B6
:1021B0007FC08091E0028BC0CC3FECE5DE0709F4E4
:1021C0004FC018F5C3318CE5D80709F47DC078F409
:1021D000C131ECE5DE0709F473C0C231DC4509F01A
:1021E000A2C00E94DB168091E0028F7733C0C53118
:1021F0008CE5D80709F472C008F486C0CB3FDC45F3
:1022000009F091C08091E1023EC0C115FDE5DF07F4
:1022100009F45FC058F4CE3F9CE5D90709F444C0E7
:1022200008F43FC08091E10282602DC0C230FDE51C
:10223000DF0709F475C008F45DC0C330DD4509F05F
:1022400072C080E06EC08091E002816003C0809126
:10225000E00280618093E00266C08091E00211C0DC
:102260008091E10282608093E1025DC08091E00292
:102270008062F0CF8091E0028064ECCF8091E00238
:1022800088608460E7CF8160EECF8091E0028E7F2E
:10229000E1CF8091E0028D7FDDCF8091E002877FEA
:1022A000D9CF8091E10218C08091E1028D7FDBCF10
:1022B0008091E0028F7ECECF8091E0028F7DCACFE9
:1022C0008091E0028F7BC6CF8091E002877F8B7F79
:1022D000C1CF8091E1028D7F8E7FC5CF8091E002DA
:1022E00082FB222720F991E0922790FB82F990FB54
:1022F00083F9B0CF8091E102982F909591708E7FF5
:10230000892B90FB81F9AFCF0E94DB168091E00210
:1023100087FB222720F991E0922790FB87F99ACF3B
:1023200081E00E94FF1D8091E0029091E1020E94F5
:102330007A1D0E94DB1680E001C081E0DF91CF9121
:102340000895CF93DF9386319C4541F5EB010E94C0
:10235000A51C982F8A81209117013091180188239C
:1023600079F09A7A81E009F480E080932702911154
:1023700002C069E201C065E3C9010E94461E0AC0AD
:1023800080912702811102C069E201C065E3C901A1
:102390000E94481E0E94F31C80E001C081E0DF9192
:1023A000CF91089590932D0280932C020895E0918F
:1023B0002C02F0912D02309721F00190F081E02D58
:1023C000099480E00895E0912C02F0912D0230975D
:1023D00021F00280F381E02D09940895E0912C0210
:1023E000F0912D02309739F022E0DC012C9304802B
:1023F000F581E02D0994089520912A0230912B0255
:102400002817390771F090932B0280932A02E091EC
:102410002C02F0912D02309721F00680F781E02DFB
:10242000099408952091280230912902281739072C
:1024300071F09093290280932802E0912C02F09190
:102440002D02309721F00084F185E02D0994089544
:1024500085B7806885BF85B7806885BF089581E0AE
:1024600008950C942F1208950C9433120C94331287
:102470000C9436120C9433120C943A120C943312BE
:102480000E9428120E943E120C943C120E94EB1EE5
:102490000E9493060E94461F0E94100D0E94B10EDA
:1024A0000C943812AF92BF92CF92DF92EF92FF92CC
:1024B0000F931F93CF93DF93CDB7DEB72A970FB655
:1024C000F894DEBF0FBECDBF0E9434120E943312BB
:1024D0000E94A4060E943112811111C08FEF8983DE
:1024E0008A831B820E94F41E8160782F9D838C83D7
:1024F00049815A816B818D810E94F21240C08FE226
:10250000A82E82E0B82E00E010E0C02E802F0E949E
:102510008306E82EF501D1905F01D82631F40F5FD4
:102520001F4F0530110589F7D9CF8091910281FDA8
:102530000E94890680E0FF24F3949D2D9F21D1F015
:102540008E83CF82EF2081E009F480E088870E94AB
:10255000F41E8160782F9A8789874E815F81688514
:102560008A850E94F212F801E15DFD4F8081F82614
:10257000F08205C08F5FFF0C8430F9F6D0CF0E9447
:102580004E0D0E94150F0E94F5200E94D7119091C8
:102590002E028917B1F00E94D71180932E022A963D
:1025A0000FB6F894DEBF0FBECDBFDF91CF911F9164
:1025B0000F91FF90EF90DF90CF90BF90AF900C9471
:1025C0006B042A960FB6F894DEBF0FBECDBFDF9125
:1025D000CF911F910F91FF90EF90DF90CF90BF9020
:1025E000AF900895CF93DF93CDB7DEB72B970FB69B
:1025F000F894DEBF0FBECDBF4F83588769877A87B7
:102600008B87DE01119686E0FD0111928A95E9F72C
:1026100085E0FE01379601900D928A95E1F7498198
:102620005A816B817C818D819E810E9494192B96A9
:102630000FB6F894DEBF0FBECDBFDF91CF910895E6
:10264000FC01808191810E94661C0895CF938823AC
:1026500009F4A4C0C82F8238C1F40E94D71181FDAB
:102660009DC069E380911701909118010E94461E58
:102670000E94F31C2FEF81EE94E0215080409040A7
:10268000E1F700C0000069E319C0833801F50E943A
:10269000D71180FD83C063E58091170190911801E7
:1026A0000E94461E0E94F31C2FEF81EE94E0215001
:1026B00080409040E1F700C0000063E58091170181
:1026C000909118010E94481ECF910C94F31C8438FD
:1026D000C1F40E94D71182FD61C067E480911701A7
:1026E000909118010E94461E0E94F31C2FEF81EE6C
:1026F00094E0215080409040E1F700C0000067E482
:10270000DDCF8CEF8C0F813AD0F46C2F80911701C4
:10271000909118010E94101E882349F06C2F80911F
:102720001701909118010E94481E0E94F31C6C2F03
:1027300080911701909118010E94461EC5CF80E23A
:102740008C0F883048F4C77081E001C0880FCA95AB
:10275000EAF70E94A81CB8CFEBE5EC0FE33040F499
:10276000F0E0ED52FE4F808190E0CF910C94FC118F
:10277000E8E5EC0FE73150F4F0E0EE0FFF1FEB550A
:10278000FE4F80819181CF910C941212C03F30F0A6
:102790008C2F0E94EA1FCF910C94D720CF910895DF
:1027A000882309F464C0823879F40E94D71181FF2C
:1027B0005EC069E380911701909118010E94461E46
:1027C0000E94F31C69E310C08338B1F40E94D71152
:1027D00080FF4DC063E580911701909118010E9420
:1027E000461E0E94F31C63E5809117019091180129
:1027F0000E94481E0C94F31C843879F40E94D7116F
:1028000082FF35C067E480911701909118010E9402
:10281000461E0E94F31C67E4E7CF9CEF980F913AA5
:1028200010F4682FE1CF90E2980F983050F4877041
:1028300091E001C0990F8A95EAF7892F0E94AE1C9A
:10284000D9CF9BE5980F933020F480E090E00C9472
:10285000FC1198E5980F973120F480E090E00C94FB
:102860001212803F20F00E9452200C94D72008952D
:10287000CF93C82F0E942613C93349F42FEF87EE58
:1028800093E0215080409040E1F700C000008C2F81
:10289000CF910C94D013882321F00E94A81C0C9493
:1028A000F31C0895882321F00E94AE1C0C94F31CA5
:1028B0000895CF92DF92EF92FF920F931F93CF93E1
:1028C000DF937C01062FC72FFC01158112951F7025
:1028D000D281D1110E94C51C0E949E1C882399F0B0
:1028E000DD2389F08C2F807F803421F080E2800FFF
:1028F000883048F082E00E943D1D0E949E1C91E0BD
:10290000D82ED92601C0D12CCC2EC2948FE0C8225B
:102910008C2D90E0FC01E659FF4F0C9431298C2F4F
:10292000807FCF70882311F0C295C07FDD2399F09E
:10293000CC2309F48DC180E2800F883010F00111A2
:1029400004C08C2F0E94A81C03C08C2F0E94B81CAE
:102950000E94F31C7DC1802F0E94D013CC2309F468
:102960009CC180E2800F883010F0011104C08C2FD0
:102970000E94AE1C03C08C2F0E94BE1C0E94F31C40
:102980008CC18C2F807FCF70803211F0C295C07FB8
:10299000002319F00130C9F022C0DD2371F01123AA
:1029A00041F0113031F40E94D81C8C2B0E94E01CA5
:1029B00074C10E94D81C8C2B1DC0112319F011303A
:1029C00009F46BC10E94E91C25C0DD2321F01630FB
:1029D00008F063C10EC0153008F05FC11BC0DD23D5
:1029E00061F0112331F0F701858180FF31C18F70D3
:1029F00085838C2F0E944B1450C1112359F0093349
:102A000009F037C1FFEF27EE83E0F150204080400E
:102A1000E1F72DC18C2F0E9452143FC18C2F869557
:102A20008695837019F0813061F037C1DD2321F084
:102A3000802F9C2F937002C080E090E00E94FC11D8
:102A400034C1DD2321F0802F9C2F937002C080E0E1
:102A500090E00E94121229C1802FDD2319F00E94FC
:102A6000EA1F02C00E9452200E94D7201EC18C2F54
:102A7000837009F045C0D11114C1402F429546958D
:102A80004770440F440F602F6F70862F90E0A0E0D6
:102A9000B0E0042E04C0880F991FAA1FBB1F0A9420
:102AA000D2F704FF10C00FE010E020E030E004C0D7
:102AB000000F111F221F331F4A95D2F70095109562
:102AC0002095309503C000E010E09801C695C695AA
:102AD000C370BC01CD01602B712B822B932BC230B4
:102AE00049F058F4C13019F00E94E51ADAC00E948A
:102AF000D31AD7C00E94F71AD4C00E94D11AD1C0ED
:102B0000DD2319F08C2F817001C08695882309F48C
:102B1000C8C0402F429546954770440F440F602F20
:102B20006F70862F90E0A0E0B0E0042E04C0880F04
:102B3000991FAA1FBB1F0A94D2F704FF10C00FE011
:102B400010E020E030E004C0000F111F221F331FEF
:102B50004A95D2F7009510952095309503C000E076
:102B600010E09801C695C695C370BC01CD01602BDD
:102B7000712B822B932BC23049F058F4C13019F0DD
:102B80000E94AA1B8EC00E94981B8BC00E94BC1B77
:102B900088C00E940B1B85C0CF70DD2339F08C2FBD
:102BA0000E94311B802F0E944B147BC0802F0E94FB
:102BB00052148C2F0E94521B74C0023F01F128F462
:102BC000003F41F0013FA1F03FC0033FF9F0043F57
:102BD00039F13AC0DD2341F0153008F05EC08C2F8A
:102BE0008F710E94771B59C0163008F056C0F7CF7E
:102BF000DD2339F08C2F8F710E94311B4EC0DD23F5
:102C0000C9F38C2F8F710E94521B47C0DD2329F01E
:102C10008C2F8F710E941C1B40C00E94171B3DC04F
:102C2000DD2349F0CF718C2F0E94311B63E08C2F84
:102C30000E94281D32C081E00E943D1D123068F1C3
:102C400082E00E943D1D29C0DD2331F0112391F265
:102C5000802F0E94261321C0112399F2093349F4D1
:102C60009FEFE7EEF3E09150E040F040E1F700C065
:102C70000000802F0E94D01310C04C2F4F70602F87
:102C8000C7010E9474040E94421A0FC04C2F4F705B
:102C9000602FC7010E94770408C088EF8C0D843034
:102CA00020F40E94D7110E946B04DD20C9F00E941D
:102CB0009A1C80FD15C0F70112820E94941C0E948C
:102CC000311BC7010E9491160E94941CDF91CF9185
:102CD0001F910F91FF90EF90DF90CF900C94521BBB
:102CE000DF91CF911F910F91FF90EF90DF90CF90E8
:102CF00008950F931F93CF93DF93EC01688179813F
:102D00008A810E94711C8C010E94CE1B0E94BF1AF6
:102D1000B801CE010E945914DF91CF911F910F91FC
:102D20000895CF93DF93EC01988189812B813C81B9
:102D3000232B31F08F3F31F481E09F3F19F403C022
:102D400081E001C080E080FD19C0CE010E94210415
:102D500081110CC00E949E1C882381F08A818823E7
:102D600069F082E0DF91CF910C943D1DCE010E946D
:102D70007916CE01DF91CF910C94FC03DF91CF91B6
:102D800008950E94C51C0E94D51C0E94F31C0E943D
:102D900008220E94D72080E090E00E94FC1180E091
:102DA00090E00C94121280911701909118010E94EA
:102DB0004A1E0C94C1160E94B51C0C94D316E92F20
:102DC000E295EF704E2F50E0FA013297EE30F105A8
:102DD000B0F4E658FF4F0C943129803F91F018F47D
:102DE000883E68F40EC0843F51F40BC0883E48F022
:102DF000813F29F406C093FB882780F9089580E07D
:102E0000089581E008950E94661C0E94DF160895CF
:102E1000CF93DF9300D000D01F92CDB7DEB70F90D5
:102E20000F900F900F900F90DF91CF910895CF9357
:102E3000DF9300D000D000D0CDB7DEB726960FB616
:102E4000F894DEBF0FBECDBFDF91CF9108951F93E1
:102E5000CF93DF93C091350216E080913602C817F8
:102E600099F0D0E01C9FF0011D9FF00D1124E95C4A
:102E7000FD4F4081518162817381848195810E94DF
:102E800017172196C770E9CFDF91CF911F91089551
:102E900040916702509168026091690270916A02E4
:102EA00080916B0290916C020C9417170F931F93F3
:102EB000CF93DF9380916C0282958F7009F05DC093
:102EC00080916902882309F458C0809135021091DD
:102ED00036026091670270916802C0916A02D091D7
:102EE0006B0291E06F3F09F090E0292F06E0811717
:102EF00009F443C0209721F07F3F21F030E003C068
:102F000031E001C0322F90E030FD34C0089FF00165
:102F1000099FF00D1124DF01A95CBD4F11963C9172
:102F20001197371327C03C91361324C012963C9159
:102F3000129731111FC013964D915C9114974C1B41
:102F40005D0B483C5105B0F480916C028F7080613C
:102F500080936C02E45CFD4F80818F708061808380
:102F600087E692E00E949116DF91CF911F910F9119
:102F70000C94271701968770BACFDF91CF911F91DC
:102F80000F9108959F92AF92BF92CF92DF92EF92EE
:102F9000FF920F931F93CF93DF93CDB7DEB7619767
:102FA0000FB6F894DEBF0FBECDBF8C0185E0F801EF
:102FB000DE011D9601900D928A95E1F7F80140819E
:102FC0005181E280909167026091680220916A02CB
:102FD00030916B022115310531F06F3F31F481E002
:102FE0009F3F19F403C081E001C080E0F82FF17029
:102FF0009F2E80FD46C1F801A380B48087E6C82ECD
:1030000082E0D82EF0906902F501E21BF30BFF205D
:1030100009F4DFC080916C02E83CF10508F09BC028
:10302000282F207F09F052C0561313C0491311C036
:10303000FE2CE1100EC08F70806180936C020E94A4
:103040004817C6010E94911680916C02F801858391
:1030500058C1AB2831F05F3F31F481E04F3F19F4A4
:1030600003C081E001C080E080FD03C081E08E25C7
:1030700002C080E090E0F82FF170FF2E80FF1CC0AE
:10308000809135022091360236E0821709F417C18B
:1030900090E0389FF001399FF00D1124E95CFD4F5D
:1030A0006181561306C06081461303C06281E61237
:1030B00003C001968770E9CFFE2CEE2009F421C1F0
:1030C00080916C02816080936C025AC0561306C0D6
:1030D000491304C0E11002C0F8019FC04D875E870C
:1030E0008D859E850E940317882379F1EE2069F172
:1030F00020916C02822F82958F7090E0029774F07D
:10310000809167029091680298878F831986BB86A9
:10311000AA862C87CE0107960E94911686E0F801B8
:10312000A7E6B2E001900D928A95E1F70E9456174A
:103130000E9448170DC0561729F14D875E878D856F
:103140009E850E94031781112CC0C8010E94911610
:10315000FF24F394D6C0282F207F69F77A2DB98AEF
:10316000A88A6E2D89890E94081787E692E00E943E
:10317000911686E0F60111928A95E9F70E944817A8
:10318000F12CBFC04913D9CFE110D7CFF801858307
:10319000C8010E94911686E0F60111928A95E9F71E
:1031A000B0C0EE2091F220916C02822F82958F7038
:1031B00090E002970CF4B2CF809167029091680280
:1031C0009A8389831B82BD82AC822E83CE010196B5
:1031D000A3CFE83CF10508F047C0FE2CEE2009F42F
:1031E000B4CF561330C049132EC020916C0220FD7D
:1031F00021C0822F82958F70482F50E041155105D4
:10320000C9F0F80125834F30510541F08F5F982FA9
:103210009295907F822F8F70892B8583C8010E94A1
:10322000911686E0F801A7E6B2E001900D928A952A
:10323000E1F742C086E0F801A7E6B2E001900D9206
:103240008A95E1F75EC04D875E878D859E850E94D9
:103250000317811163CF80916C02816080936C02AF
:10326000C8010E9491164DC07A2DB98AA88A6E2D88
:1032700089890E94081786E0F60111928A95E9F77C
:103280001BC0EE2009F461CF4D875E878D859E853A
:103290000E940317F82E882309F457CF86E0F8011F
:1032A000A7E6B2E001900D928A95E1F787E692E0F9
:1032B0000E9420130E9456170E94481722C04D8773
:1032C0005E878D859E850E94661C292F22952F7012
:1032D000223028F49F7039F0811105C00BC02430D2
:1032E00028F49F7049F4805E883020F0C8010E9465
:1032F00091169F2CF92C05C0F8019581907F99F7C4
:10330000F9CF8F2D61960FB6F894DEBF0FBECDBFFB
:10331000DF91CF911F910F91FF90EF90DF90CF90B1
:10332000BF90AF909F9008951F93CF93DF93CDB739
:10333000DEB72C970FB6F894DEBF0FBECDBF4F831C
:10334000588769877A878B879C87CE0107960E946A
:10335000C2178823D1F09F8188852A853B85232B3E
:1033600031F08F3F31F481E09F3F19F403C081E0D9
:1033700001C080E080FD47C04F81588569857A850E
:103380008B859C850E9417173EC086E0FE0137960C
:10339000DE01119601900D928A95E1F7FF81E88593
:1033A0006A857B856115710531F0EF3F31F481E06D
:1033B000FF3F19F403C081E001C080E080FD23C01D
:1033C0002091360230E0C90101968770992740911B
:1033D000350250E084179507F1F1F983EA837D8384
:1033E0006C8396E0929FD001939FB00D1124A95C4D
:1033F000BD4FFE01319601900D929A95E1F78093B1
:1034000036020E94271716E080913502909136020D
:10341000891771F1189FC0011124895C9D4F0E948A
:10342000C217882329F1E09135021E9FF001112473
:10343000E95CFD4F40815181628173818481958176
:103440000E9417178091350290E0019687709927A6
:1034500080933502D9CF0E94DB161092360210926B
:103460003502E7E6F2E086E0DF011D928A95E9F792
:103470002C960FB6F894DEBF0FBECDBFDF91CF9173
:103480001F910895EF92FF920F931F93CF93DF93B5
:103490008C01892B09F46CC0F12CEE24E394E80133
:1034A0002196F8018491843740F4843008F051C0AB
:1034B000813081F0823019F15BC0853709F444C056
:1034C000A8F19CE7980F903708F052C08F770E94C0
:1034D000D01341C00E5F1F4FFE01849190E2980F00
:1034E000983050F48770FE2D01C0FF0F8A95EAF7DF
:1034F0008F2F0E94C81C14C00E9426132DC00E5F7F
:103500001F4FFE01849190E2980F983060F487700D
:10351000FE2D01C0FF0F8A95EAF78F2F0E94CE1C67
:103520000E94F31C19C00E94D01316C00E5F1F4FDB
:10353000FE01C491CC2381F08FE99FE00197F1F760
:1035400000C00000C150F6CF0E5F1F4FFE01F49087
:1035500003C00E9426138E018F2D882309F49FCF6C
:10356000EFE9FFE03197F1F700C000008150F5CF9F
:10357000DF91CF911F910F91FF90EF9008950895E3
:1035800008950C94C01A0C94C11A0E94C31A609337
:1035900080027093810280938202909383020C9444
:1035A000C1160C94C51A0F931F93009180021091BD
:1035B00081022091820230918302602B712B822B39
:1035C000932B1F910F910C94C51A0F931F93009189
:1035D0008002109181022091820230918302602347
:1035E0007123822393231F910F910C94C51A0F937B
:1035F0001F930091800210918102209182023091EC
:10360000830260277127822793271F910F910C94C3
:10361000C51A0C94C01A0E94091B60937C02709317
:103620007D0280937E0290937F020C94C11660E02D
:1036300070E0CB010C940B1B0F931F9341E050E003
:1036400060E070E08A019B0104C0000F111F221F7F
:10365000331F8A95D2F7C901B8011F910F910C94BD
:103660000B1B0F931F9341E050E060E070E004C03B
:10367000440F551F661F771F8A95D2F780917C02F1
:1036800090917D02A0917E02B0917F028A019B0100
:10369000082B192B2A2B3B2BC901B8011F910F9125
:1036A0000C940B1B0F931F9341E050E060E070E01F
:1036B00004C0440F551F661F771F8A95D2F74095A7
:1036C00050956095709580917C0290917D02A091BB
:1036D0007E02B0917F028A019B01082319232A23CD
:1036E0003B23C901B8011F910F910C940B1B0F9341
:1036F0001F9341E050E060E070E004C0440F551FAC
:10370000661F771F8A95D2F780917C0290917D0287
:10371000A0917E02B0917F028A019B0108271927A0
:103720002A273B27C901B8011F910F910C940B1B4D
:103730000F931F9300917C0210917D0220917E02D5
:1037400030917F02602B712B822B932B1F910F9155
:103750000C940B1B0F931F9300917C0210917D0220
:1037600020917E0230917F02602371238223932374
:103770001F910F910C940B1B0F931F9300917C02D0
:1037800010917D0220917E0230917F026027712787
:10379000822793271F910F910C940B1B0895990F6B
:1037A000990F890FE82FE695E695E695877051E029
:1037B00001C0550F8A95EAF785E0E89FF0011124D2
:1037C000E359FD4F20E030E070E04081CB01022E54
:1037D00002C0969587950A94E2F7817081958427B7
:1037E0008523842781932F5F3F4F2530310569F76B
:1037F0000895990F990F890F682F669566956695BC
:10380000982F977085E0689FB001112440E050E048
:1038100080E0FB01E40FF51FE359FD4F208130E00C
:10382000092E02C0369527950A94E2F721703327B6
:10383000042E01C0220F0A94EAF7822B4F5F5F4FDC
:103840004530510531F70895BF92CF92DF92EF9244
:10385000FF920F931F93CF93DF938C01C0907C0254
:10386000D0907D02E0907E02F0907F0280918002F5
:1038700090918102A0918202B0918302C82AD92A34
:10388000EA2AFB2ACFE1D0E0D701C6010C2E04C002
:10389000B695A795979587950A94D2F780FD04C0B1
:1038A000219790F7B12C07C0BC2EB8018C2F0E9435
:1038B00094040197A9F38B2DDF91CF911F910F9164
:1038C000FF90EF90DF90CF90BF900895CF93DF935C
:1038D000EC010E94241CBE010E949404DF91CF9150
:1038E00008951F93CF93DF93EB01909134029923B6
:1038F00021F0CB010E94661C13C0882349F0CB0144
:103900000E94241C182F682FCE010E94CF1B04C0D8
:10391000CB010E94F91B182FBE01812F0E94940435
:10392000DF91CF911F9108958091840285958595AF
:1039300085950895809184028770089590918402FE
:10394000977081E009F480E00895809190020895D5
:1039500090919002892B8093900208958095909188
:103960009002892380939002089510929002089506
:1039700090918F02892B80938F020895809590916A
:103980008F02892380938F02089510928F020895E9
:1039900090918E02892B80938E020895809590914C
:1039A0008E02892380938E02089510928E020895CC
:1039B00080918502089508950C94DB1C0C94DC1C06
:1039C00090918502981721F0809385020C94DE1C5B
:1039D000089580918502882329F01092850280E065
:1039E0000C94DE1C0895E0911701F091180180916C
:1039F00090028083E0911701F091180190818091ED
:103A00008F02892B8083E0911701F091180190813A
:103A100080918E02892B808380918502882381F09A
:103A2000E0911701F09118019081892B808380919A
:103A30001701909118010E94041E81110E94E91C37
:103A400080911701909118010C94E3110C94DB1CE8
:103A500098E0899F90011124262B209384020E94D4
:103A6000311B809184028595859585950C94261D42
:103A70001092840280E00C94261D2091840280958F
:103A8000822380938402982F977079F430E0482F36
:103A9000082E000C550B2417350739F085958595B0
:103AA00085950E94521B0C94381D089580E090E08B
:103AB0000E94DF2921E08C3E9E4F09F020E0822FFA
:103AC000089582E090E00C94D12983E090E00C947A
:103AD000D129CF9384E090E00E94D129C82F81E2C0
:103AE00090E00E94D1292C2F30E0A901582BCA0167
:103AF000CF910895CF93C92F682F84E090E00E9462
:103B0000E5296C2F81E290E0CF910C94E529AB017F
:103B1000BC018FE090E00C94F729AB01BC0183E17C
:103B200090E00C94F72960E070E0CB010C948D1DBF
:103B300060E070E0CB010E94871D0C94931D6CEE39
:103B40007EEF80E090E00E94032A60E082E090E057
:103B50000E94E52960E083E090E00E94E529109250
:103B6000800210928102109282021092830260E021
:103B700084E090E00E94E52960E081E290E00E940C
:103B8000E52960E085E090E00E94E52960E086E0BC
:103B900090E00E94E5296FEF87E090E00E94E52920
:103BA00040E050E0BA0188E090E00E94F72960E030
:103BB0008DE090E00E94E52940E050E0BA0188E104
:103BC00090E00E94F72960E087E190E00E94E529FB
:103BD00040E050E0BA018CE190E00E94F72960E0FB
:103BE00080E290E00E94E52940E050E0BA0188E1DF
:103BF00090E00E94F7290C94981D0C949F1D682F4B
:103C00008EE090E00C94E529FC01329697E080E08C
:103C1000915029F021912223D9F38F5FF9CF089594
:103C2000662349F0FC01329608962191621729F02B
:103C3000E817F907D1F780E0089581E008959C0125
:103C4000FC0132969FEF80E04191461789F09F3F3B
:103C500019F4411101C0982F8F5F8630A9F79F3F5B
:103C600039F0F901E90FF11D97FDFA956283089586
:103C700008959C012A5F3F4FFC014281461301C019
:103C80001282019682179307B9F708950C941F1EAC
:103C90000C94391E029626E0FC0111922A95E9F750
:103CA000089508950C94511E0C94511ECF930E94B8
:103CB000541E0E94A4060E94521EC0E08C2F0E9437
:103CC0008306811104C0CF5FC530C1F701C081E018
:103CD000CF9108950C94511E0C946A1E0E946C1E84
:103CE0008091E602843009F439C01092920220E4F7
:103CF00088E190E00FB6F894A895809360000FBE1D
:103D00002093600080E00E946B040E944B0D809124
:103D1000930281110AC081E0809393028091B602E0
:103D20008170809394020E947E0C0E946C1E83B767
:103D3000817F846083BF83B7816083BF78948895D7
:103D400083B78E7F83BF0FB6F894A89580916000EB
:103D5000886180936000109260000FBE08950C94FB
:103D6000511E0E94DB160E94D7110E946B04109214
:103D700093028091940281110E94430D0E94900C45
:103D80000C94AF1E1F920F920FB60F9211248F93B7
:103D90009F93AF93BF9380919202811113C0809142
:103DA000DC029091DD02A091DE02B091DF0241962B
:103DB000A11DB11D8093DC029093DD02A093DE0271
:103DC000B093DF02BF91AF919F918F910F900FBE83
:103DD0000F901F90189582E084BD93E095BD9AEFF7
:103DE00097BD80936E0008952FB7F8948091DC0200
:103DF0009091DD02A091DE02B091DF022FBF089505
:103E00009C014FB7F8948091DC029091DD02A09163
:103E1000DE02B091DF024FBF821B930B08957894AE
:103E20001F920F920FB60F9211248F939F93AF930F
:103E3000BF938091DC029091DD02A091DE02B091EF
:103E4000DF020196A11DB11D8093DC029093DD027B
:103E5000A093DE02B093DF02BF91AF919F918F914B
:103E60000F900FBE0F901F90189587E797E79093DC
:103E70000108809300089AE088E10FB6F894A895AD
:103E8000809360000FBE90936000FFCF0E94561D8C
:103E9000811102C00E94FD1D0E94611D809391024C
:103EA0000E94691D9093E1028093E0020E94651DCB
:103EB000682F70E080E090E00E94D11A60917C024F
:103EC00070917D0280917E0290917F020C94091B7B
:103ED00080919B0280FF0BC060911E0185E0689F6E
:103EE000B001112475956795759567952BC081FF75
:103EF00009C060911E0185E0689FB001112475958D
:103F0000679520C082FF07C060911E0185E0689F11
:103F1000B001112417C090919A029923D1F06091B9
:103F20001D01961788F720911E0185E0289F9001BA
:103F30001124929FA001939F500D112470E0CA019B
:103F40000E94FB286038710540F46115710519F471
:103F500006C065E070E0862F08958FE7089581E040
:103F6000089580919B0280FF08C060911A0170E063
:103F7000759567957595679521C081FF06C060911D
:103F80001A0170E07595679519C082FF04C06091B1
:103F90001A0170E010C090919902992399F06091F4
:103FA00019019617A0F780911A01899FC001112469
:103FB00070E00E94FB286038710540F461157105BE
:103FC00019F406C061E070E0862F08958FE7089528
:103FD00081E00895803F21F40E94681F819504C00C
:103FE000813F29F40E94681F80939F020895823FB9
:103FF00021F40E94681F819504C0833F29F40E9428
:10400000681F80939E020895893F19F40E94B11F92
:1040100005C08A3F31F40E94B11F81958093A002B0
:1040200008958B3F21F40E94B11F819504C08C3FFD
:1040300029F40E94B11F8093A1020895843F21F4C6
:1040400080919D02816017C0853F21F480919D027F
:10405000826011C0863F21F480919D0284600BC074
:10406000873F21F480919D02886005C0883F31F42C
:1040700080919D02806180939D0208958D3F21F47F
:1040800080919B0281600BC08E3F21F480919B0246
:10409000826005C08F3F29F480919B0284608093E9
:1040A0009B020895803F39F480919F0287FF6AC088
:1040B00010929F0267C0813F29F480919F021816D9
:1040C000BCF360C090919E02823F29F497FF5AC0D2
:1040D00010929E0257C0833F19F41916CCF352C0B8
:1040E0009091A002893F31F419160CF04BC0109248
:1040F000A00248C08A3F19F497FF44C0F8CF8B3F15
:1041000039F48091A10287FF3DC01092A1023AC00C
:104110008C3F29F48091A1021816BCF333C0843F70
:1041200021F480919D028E7F17C0853F21F48091FC
:104130009D028D7F11C0863F21F480919D028B7F6F
:104140000BC0873F21F480919D02877F05C0883F87
:1041500031F480919D028F7E80939D0213C08D3F2C
:1041600021F480919B028E7F0BC08E3F21F48091C1
:104170009B028D7F05C08F3F29F480919B028B7F2E
:1041800080939B0280919E02811106C080919F02C4
:10419000811102C010929A028091A002811106C082
:1041A0008091A102811102C01092990208950E948B
:1041B000F41E20919E02211104C020919F0222230F
:1041C00021F090939802809397022091A0022111F0
:1041D00004C02091A102222321F0909396028093A3
:1041E00095028CE992E00C94EE11EF92FF920F93FE
:1041F0001F93CF93DF9300D000D000D0CDB7DEB7B0
:1042000086E0ECE9F2E0DE01119601900D928A95CC
:10421000E1F7E0909E02F0909F020091A0021091C1
:10422000A10210929E0210929F021092A002109280
:10423000A102E11003C0FF2009F45DC08091970244
:10424000909198020E94001FAC0190919A029923CC
:1042500039F020911F0130E02417350758F04BC08A
:10426000209120018AE0289F90011124241735070E
:1042700018F041C09F3F19F09F5F90939A02EE2083
:1042800061F00E94681F1E1414F09FEF01C091E0BE
:10429000989F902D112490939E02FF2061F00E9420
:1042A000681F1F1414F09FEF01C091E0989F902D9C
:1042B000112490939F0230919E023323E1F02091CC
:1042C0009F022223C1F045EB3403C001112499233E
:1042D00019F090939E0203C081E080939E0235EB1B
:1042E0002303C0011124992319F090939F0203C066
:1042F00081E080939F02011103C0112309F45DC086
:1043000080919502909196020E94001FAC019091BD
:104310009902992339F020911B0130E024173507C9
:1043200058F04BC020911C018AE0289F9001112475
:104330002417350718F041C09F3F19F09F5F9093F5
:104340009902002361F00E94B11F101614F09FEF34
:1043500001C091E0989F902D11249093A002112309
:1043600061F00E94B11F111614F09FEF01C091E09F
:10437000989F902D11249093A1023091A002332395
:10438000E1F02091A1022223C1F045EB3403C001EA
:104390001124992319F09093A00203C081E0809327
:1043A000A00235EB2303C0011124992319F0909347
:1043B000A10203C081E08093A10280919E0281113D
:1043C0000BC080919F02811107C08091A0028111D2
:1043D00003C08091A10281110E94D720EB82FC8250
:1043E0000D831E8386E0FE013196ACE9B2E00190B8
:1043F0000D928A95E1F726960FB6F894DEBF0FBEB0
:10440000CDBFDF91CF911F910F91FF90EF90089555
:10441000ECE9F2E086E0DF011D928A95E9F710925F
:104420009A021092990210929B0208958091AA021A
:104430000895CF93DF9300D01F92CDB7DEB7909150
:10444000E602943019F589837B836A8382E0809346
:10445000E9008FEF9091E800815095FD06C095ED41
:104460009A95F1F700008111F5CF8091E80085FF62
:104470000DC040E050E063E070E0CE0101960E9484
:104480002F248091E8008E778093E8000F900F90A2
:104490000F90DF91CF910895BC0184E00C94192214
:1044A000BC0183E00C94192222E02093E9002FEF55
:1044B0003091E800215035FD06C035ED3A95F1F711
:1044C00000002111F5CF2091E80025FF0BC040E04E
:1044D00050E066E070E00E942F248091E8008E7723
:1044E0008093E8000895CF93DF9321E02093E900C3
:1044F0002FEF3091E800215035FD06C035ED3A959B
:10450000F1F700002111F5CF2091E80025FF14C03C
:10451000EC0140E050E068E070E00E942F248091C0
:10452000E8008E778093E80088E0FE01A2EAB2E01E
:1045300001900D928A95E1F7DF91CF9108958091D6
:10454000E502811109C00E94C0250E941D268091AC
:10455000E20084608093E20008951092E5020895DD
:10456000089508950C94B11E42E061EC81E00E9430
:10457000392542E261EC82E00C9439258091E80211
:10458000833009F460C030F4813071F0823009F476
:1045900099C008958A3009F485C08B3009F46BC046
:1045A000893009F0A7C020C08091E702813A09F064
:1045B000A1C08091E800877F8093E8008091EB02A2
:1045C0009091EC02892B21F468E082EA92E003C02A
:1045D00060E080E090E070E00E947A248091E80042
:1045E0008B778093E80008958091E702813209F08B
:1045F00081C08091EB029091EC02029708F07AC0A2
:104600008091E800877F8093E8008091E80082FD38
:1046100005C08091E6028111F8CF6CC02091F300B3
:104620008091F20090E0922B029729F48091F100A2
:104630008B7F813021F48091F1008093AA028091D8
:10464000E8008B7753C08091E702813A09F052C0AD
:104650008091EB029091EC02892B09F04BC0809184
:10466000E800877F8093E8008091E80080FFFCCF1E
:1046700080912B0136C08091E7028132D9F580917B
:10468000EB029091EC02892BA9F58091E800877FDD
:104690008093E8000E946E258091E90280932B01AF
:1046A0000C94DB168091E702813221F58091E800BD
:1046B000877F8093E8000E946E258091EA028093B4
:1046C000AB0208958091E702813AA1F48091E8005D
:1046D000877F8093E8008091E80080FFFCCF809185
:1046E000AB028093F1008091E8008E778093E80020
:1046F0000C946E25089584B7877F84BF0FB6F89415
:10470000A89580916000886180936000109260009D
:104710000FBE90E080E80FB6F8948093610090930C
:1047200061000FBE0E9440120E94C0250E941D26FB
:104730008091E20084608093E20078940E94B22825
:104740000E94461281E291E00E94D2118091E6021D
:10475000853069F40E946E1E8091E4028823B1F3D3
:104760000E94561E882391F30E941924EFCF0E94C5
:1047700052120E9434120E943312E8CF0C94C023CC
:10478000292F332723303105C9F060F4213031055A
:1047900081F02230310509F044C08BE390E02CEB2E
:1047A00033E043C021323105E1F02232310549F1D5
:1047B00038C082E190E027EF33E037C0992781309D
:1047C000910549F028F0029761F5EEE8F3E005C0A5
:1047D000E8EBF3E002C0ECE9F3E0849190E09F01A4
:1047E00024C06115710541F061307105D1F489E093
:1047F00090E027EE33E019C089E090E02EEC33E042
:1048000014C06115710541F06130710551F481E802
:1048100090E029E034E009C080E490E02AE834E048
:1048200004C080E090E020E030E0FA013183208392
:10483000089580E189BD82E189BD09B400FEFDCF04
:104840008091D8008F7D8093D8008091E0008260B5
:104850008093E0008091E00081FDFCCF0895CF922D
:10486000DF92EF92FF920F931F93CF93DF93EC01B0
:104870008B017A010E948D25811133C0E114F1046E
:1048800039F0F70180819181081B190BC80FD91FDE
:10489000C12CD12C0115110519F18091E80085FD7D
:1048A00016C08091E8008E778093E800E114F1044F
:1048B00049F0F70180819181C80ED91ED182C08252
:1048C00085E00FC00E948D25882321F30AC08991BD
:1048D0008093F10001501109FFEFCF1ADF0ADACF00
:1048E00080E0DF91CF911F910F91FF90EF90DF90CB
:1048F000CF9008952091ED023091EE0226173707F0
:1049000048F06115710539F42091E8002E77209365
:10491000E80001C0B901FC0120E06115710579F1E1
:104920008091E6028823F1F18530F1F18091E80071
:1049300083FD3CC08091E80082FD2EC08091E8009C
:1049400080FFEBCF2091F3008091F20090E0922B5A
:104950006115710551F08830910538F4219120934B
:10496000F100615071090196F3CF21E0089709F039
:1049700020E08091E8008E778093E800CECF21116F
:10498000CFCF0AC08091E602882361F0853061F0C4
:104990008091E80083FD0AC08091E80082FFF2CF99
:1049A00080E0089582E0089583E0089581E008950D
:1049B0002091ED023091EE022617370748F061157D
:1049C000710539F42091E8002E772093E80001C0AA
:1049D000B901FC0120E06115710591F18091E602B9
:1049E000882309F440C0853009F43FC08091E80075
:1049F00083FD3DC08091E80082FD2FC08091E800DA
:104A000080FFE9CF2091F3008091F20090E0922B9B
:104A10006115710559F08830910540F42491209377
:104A2000F1003196615071090196F2CF21E00897AB
:104A300009F020E08091E8008E778093E800CBCFEA
:104A40002111CCCF0AC08091E602882361F0853025
:104A500061F08091E80083FD0AC08091E80082FF48
:104A6000F2CF80E0089582E0089583E0089581E028
:104A70000895982F973068F59093E900981739F0CA
:104A80007091EC002091ED005091F00003C0242FB4
:104A9000762F50E021FD02C09F5FECCF3091EB00FC
:104AA0003E7F3093EB003091ED003D7F3093ED0081
:104AB0003091EB0031603093EB007093EC00209369
:104AC000ED005093F0002091EE0027FDE5CF80E04F
:104AD00008958F708093E90081E008958091E70246
:104AE00087FF11C08091E80082FD05C08091E60239
:104AF0008111F8CF11C08091E8008B770BC08091B5
:104B0000E602882349F08091E80080FFF8CF809189
:104B1000E8008E778093E80008952091E4003091BA
:104B2000E50095E64091EC00842F817040FF23C0A2
:104B30008091E80080FD1DC08091E602882399F0F5
:104B4000853099F08091EB0085FD11C04091E40023
:104B50005091E5002417350729F3915011F09A017F
:104B6000E1CF84E0089582E0089583E0089581E034
:104B7000089580E008954091E80042FFDDCF089558
:104B80000E942E260E943626E0EEF0E080818160B1
:104B90008083E8EDF0E080818F77808319BCA7EDFA
:104BA000B0E08C918E7F8C9380818F7E8083109279
:104BB000E50208950F931F93CF93DF930E942E2653
:104BC0000E943626C8EDD0E088818F77888388815F
:104BD0008068888388818F7D888319BC1092E60263
:104BE0001092E2021092E4021092E30200EE10E052
:104BF000F80180818B7F808388818160888342E097
:104C000060E080E00E943925E1EEF0E080818E7F57
:104C10008083E2EEF0E08081816080838081886023
:104C20008083F80180818E7F808388818061888382
:104C3000DF91CF911F910F910895E8EDF0E0808111
:104C40008F7E8083E7EDF0E080818160808384E067
:104C500082BF81E08093E5020C94DA25E8EDF0E074
:104C600080818E7F80831092E20008951092DA0096
:104C70001092E10008951F920F920FB60F92112427
:104C80002F933F934F935F936F937F938F939F9354
:104C9000AF93BF93EF93FF938091E10082FF0BC02E
:104CA0008091E20082FF07C08091E1008B7F8093BA
:104CB000E1000E94B1288091DA0080FF1FC080913E
:104CC000D80080FF1BC08091DA008E7F8093DA00CD
:104CD0008091D90080FF0DC080E189BD82E189BD4E
:104CE00009B400FEFDCF81E08093E6020E949F227E
:104CF00005C019BC1092E6020E94AD228091E1002D
:104D000080FF19C08091E20080FF15C08091E20011
:104D10008E7F8093E2008091E20080618093E200C8
:104D20008091D80080628093D80019BC85E0809380
:104D3000E6020E94B1228091E10084FF30C08091A0
:104D4000E20084FF2CC080E189BD82E189BD09B405
:104D500000FEFDCF8091D8008F7D8093D800809198
:104D6000E1008F7E8093E1008091E2008F7E80934E
:104D7000E2008091E20081608093E2008091E20293
:104D8000882311F084E007C08091E30087FD02C012
:104D900081E001C083E08093E6020E94B22280910C
:104DA000E10083FF29C08091E20083FF25C080914C
:104DB000E100877F8093E10082E08093E602109219
:104DC000E2028091E1008E7F8093E1008091E20019
:104DD0008E7F8093E2008091E20080618093E20008
:104DE00042E060E080E00E9439258091F000886018
:104DF0008093F0000E94B022FF91EF91BF91AF919C
:104E00009F918F917F916F915F914F913F912F91E2
:104E10000F900FBE0F901F9018951F920F920FB614
:104E20000F9211242F933F934F935F936F937F9330
:104E30008F939F93AF93BF93CF93DF93EF93FF93A2
:104E4000C091E900CF708091EC00D82FD17080FD27
:104E5000D0E81092E9008091F000877F8093F00005
:104E600078940E9451271092E9008091F0008860A8
:104E70008093F000CD2BCF70C093E900FF91EF91AC
:104E8000DF91CF91BF91AF919F918F917F916F9162
:104E90005F914F913F912F910F900FBE0F901F90F8
:104EA00018951F93CF93DF93CDB7DEB7AA970FB6B0
:104EB000F894DEBF0FBECDBFE7EEF2E08091F100C7
:104EC000819322E0EF3EF207C9F70E94BE22809153
:104ED000E80083FF2EC18091E7029091E802492FFC
:104EE00050E04A30510508F024C1FA01E857FF4F5D
:104EF0000C943129803821F0823809F01AC108C099
:104F00008091E3029091E402992389F082600FC0BE
:104F10008091EB028F70873008F00BC18093E9001D
:104F20008091EB0085FB882780F91092E900909131
:104F3000E800977F9093E8008093F1001092F100D1
:104F4000D1C0282F2D7F09F0F4C0882319F08230BA
:104F500061F0EFC08091E902813009F0EAC093303E
:104F600009F080E08093E4022EC08091E902811173
:104F70002AC08091EB028F702FEF280F263008F0A7
:104F8000D8C08093E9002091EB0020FF1CC0933033
:104F900021F48091EB00806214C09091EB0090614D
:104FA0009093EB0021E030E0A90102C0440F551FAF
:104FB0008A95E2F74093EA001092EA008091EB00B4
:104FC00088608093EB001092E9008091E800877F71
:104FD0008093E8000E946E25ACC08111AAC0109198
:104FE000E9021F778091E3008078812B8093E300B2
:104FF0008091E800877F8093E8000E946E25809171
:10500000E80080FFFCCF8091E30080688093E3009C
:10501000111102C082E001C083E08093E60289C0E2
:105020008058823008F085C08091E9029091EA02B0
:105030008C3D53E0950779F583E08A838AE2898382
:105040004FB7F894DE01139620E03EE051E2E32FE3
:10505000F0E050935700E49120FF03C0E295EF7019
:105060003F5FEF708E2F90E0EA3010F0C79601C0DE
:10507000C0968D939D932F5F243149F74FBF809148
:10508000E800877F8093E8006AE270E0CE01019635
:105090000E947A2416C06091EB027091EC02AE017E
:1050A0004F5F5F4F0E94BE23BC01892B09F441C0B2
:1050B0009091E800977F9093E80089819A810E94FF
:1050C000D8248091E8008B778093E80032C0803844
:1050D00081F58091E800877F8093E8008091E2026B
:1050E0008093F1008091E8008E7772CF811121C00A
:1050F0008091E9029091EA0299270297D4F4809175
:10510000E800877F8093E8008091E9028093E202C3
:105110000E946E258091E202811106C08091E30019
:1051200087FD02C081E001C084E08093E6020E9416
:10513000B4228091E80083FF0AC08091E800877F55
:105140008093E8008091EB0080628093EB00AA9648
:105150000FB6F894DEBF0FBECDBFDF91CF911F9188
:1051600008950895CF938091E6028823A1F0C0911D
:10517000E900CF709091EC00892F817090FD80E85C
:10518000C82B1092E9008091E80083FD0E9451270E
:10519000CF70C093E900CF910895991B79E004C0C6
:1051A000991F961708F0961B881F7A95C9F7809566
:1051B000089587FB082E062687FD819567FD61957A
:1051C0000E94CD280EF4919507FC81950895AA1BA5
:1051D000BB1B51E107C0AA1FBB1FA617B70710F0E2
:1051E000A61BB70B881F991F5A95A9F78095909514
:1051F000BC01CD01089597FB072E16F4009407D04B
:1052000077FD09D00E94E72807FC05D03EF4909571
:1052100081959F4F0895709561957F4F0895A1E204
:105220001A2EAA1BBB1BFD010DC0AA1FBB1FEE1F20
:10523000FF1FA217B307E407F50720F0A21BB30B6B
:10524000E40BF50B661F771F881F991F1A9469F7E7
:1052500060957095809590959B01AC01BD01CF0143
:105260000895EE0FFF1F0590F491E02D09940E9420
:105270003F29332312F48A1B9B0B0C945029A29FC5
:10528000B001B39FC001A39F700D811D1124911D1A
:10529000B29F700D811D1124911D08950E943F2918
:1052A000B7FF0895821B930B08950E943F29A59F85
:1052B000900DB49F900DA49F800D911D1124089511
:1052C000B7FF0C9455290E945529821B930B089512
:1052D0008F929F92AF92BF92CF92DF92EF92FF9206
:1052E000CF93DF93EC01688179818A819B8161157D
:1052F00071058105910521F464E279ED8BE597E074
:105300002DE133EF41E050E00E94192A49015A0192
:105310009B01AC01A7EAB1E40E9455296B017C0115
:10532000ACEEB4EFA50194010E946329DC01CB012E
:105330008C0D9D1DAE1DBF1DB7FF03C00197A109B8
:10534000B04888839983AA83BB839F77DF91CF91ED
:10535000FF90EF90DF90CF90BF90AF909F908F9095
:1053600008950E946829089580E091E00E946829CC
:105370000895A0E0B0E08093000190930101A09314
:105380000201B09303010895FC014150504030F0F8
:1053900001900616D1F73197CF01089588279927F4
:1053A0000895F999FECF92BD81BDF89A992780B5ED
:1053B0000895A6E1B0E044E050E00C940B2AA8E187
:1053C000B0E042E050E00C940B2A262FF999FECF72
:1053D00092BD81BDF89A019700B4021639F01FBA48
:1053E00020BD0FB6F894FA9AF99A0FBE0895039665
:1053F000272F0E94E6290E94E529252F0E94E629F1
:10540000242F0C94E6290196272F0E94E6290C945C
:10541000E529DC01CB01FC01F999FECF06C0F2BD04
:10542000E1BDF89A319600B40D9241505040B8F762
:105430000895052E97FB1EF400940E94302A57FD14
:1054400007D00E940F2907FC03D04EF40C94302A99
:1054500050954095309521953F4F4F4F5F4F0895A0
:1054600090958095709561957F4F8F4F9F4F0895D0
:04547000F894FFCFDE
:1054740001000000010102000B000B0B01191A1BB3
:105484001C1D1E1F20212286022808641E140A32B5
:105494001E16227322542250224C2201F4F19593B9
:1054A400F0676636C6E200E900EA00B500B600B768
:1054B40000CD008301CC008A0192019401210223D2
:1054C4000224022502260227022A02B300B4006F36
:1054D40000700081828300010202020206060609AE
:1054E40009090909090F0F0F0F0F0F1515151819C1
:1054F40019191919191919191923242525252525C7
:105504002500FF0100010000FFFF0000010001FF72
:1055140000F634F535E200E900EA00B500B600B75C
:1055240000CD008301CC008A019201940121022361
:105534000224022502260227022A02B300B4006FC5
:065544000070008182836B
:00000001FF
