:100000000C94DA060C9421070C9421070C94210718
:100010000C9421070C9421070C9421070C942107C0
:100020000C9421070C9421070C941F2F0C94F12F92
:100030000C944B260C9421070C9421070C94210757
:100040000C9421070C9421070C9421070C94210790
:100050000C9421070C94BF260C9421070C942107C3
:100060000C9421070C9421070C9421070C94210770
:100070000C9421070C9421070C9421070C94210760
:100080000C9421070C9421070C9421070C94210750
:100090000C9421070C9421070C9421070C94210740
:1000A0000C9421070C9421070C942107D313D61329
:1000B000DB13E213E713EC13F113F613FB13001435
:1000C00005140A140E141114141417141A142114FC
:1000D000211421142A1C2A1C5C1C5C1CA91CDD1D7B
:1000E000DD1DDD1DC71C5C1D6D1D6D1DCD1DDD1DC8
:1000F000DD1DD61D6D1E6D1E7F1E7F1E761E7F1E92
:100100007F1E7F1E6D1E6D1E7B1E7F1E7F1E7B1E33
:100110005E3085307D3185307D31D130F4307D31B8
:100120004B315A31040005000600070008000900A1
:100130000A000B000C000D000E000F001000110053
:100140001200005716001900000000000100C35CF7
:10015000C45CC25CCA5CC95CC65CC55CC85CC75C8C
:100160000100010001000100005C015700000000D7
:100170000000000044454255473A206469736162BB
:100180006C65642E0A0044454255473A20656E610D
:10019000626C65642E0A007267626C69676874201D
:1001A00074696D65722064697361626C652E0A0002
:1001B0007267626C696768742074696D6572206526
:1001C0006E61626C65642E0A007267626C696768B2
:1001D000742073657420687376205B4E4F454550DC
:1001E000524F4D5D3A2025752C25752C25750A003A
:1001F0007267626C696768742073657420687376CF
:10020000205B454550524F4D5D3A2025752C257594
:100210002C25750A007267626C69676874206469CE
:100220007361626C65205B4E4F454550524F4D5D8A
:100230003A207267626C696768745F636F6E6669A3
:10024000672E656E61626C65203D2025750A00721F
:1002500067626C696768742064697361626C6520A9
:100260005B454550524F4D5D3A207267626C69673D
:1002700068745F636F6E6669672E656E61626C6538
:10028000203D2025750A007267626C6967687420DA
:10029000656E61626C65205B4E4F454550524F4D17
:1002A0005D3A207267626C696768745F636F6E663F
:1002B00069672E656E61626C65203D2025750A00B8
:1002C0007267626C6967687420656E61626C652034
:1002D0005B454550524F4D5D3A207267626C6967CD
:1002E00068745F636F6E6669672E656E61626C65C8
:1002F000203D2025750A007267626C69676874206A
:10030000746F67676C65205B454550524F4D5D3A91
:10031000207267626C696768745F636F6E66696795
:100320002E656E61626C65203D2025750A0072673E
:10033000626C69676874206D6F6465205B4E4F4521
:100340004550524F4D5D3A2025750A007267626C28
:1003500069676874206D6F6465205B454550524F36
:100360004D5D3A2025750A007267626C6967687492
:100370005F696E6974207267626C696768745F6335
:100380006F6E6669672E6D6F6465203D20302E208C
:1003900057726974652064656661756C7420766156
:1003A0006C75657320746F20454550524F4D2E0A71
:1003B000007267626C696768745F696E6974206552
:1003C00065636F6E666967206973206E6F74206560
:1003D0006E61626C65642E0A007267626C696768A0
:1003E000745F696E6974207374617274210A00729B
:1003F00067626C696768745F696E69742063616CB9
:100400006C65642E0A007267626C696768745F636A
:100410006F6E6669672E7370656564203D20256484
:100420000A007267626C696768745F636F6E666901
:10043000672E76616C203D2025640A007267626C2D
:10044000696768745F636F6E6669672E7361742095
:100450003D2025640A007267626C696768745F6397
:100460006F6E6669672E687565203D2025640A00F9
:100470007267686C696768745F636F6E6669672E20
:100480006D6F6465203D2025640A007267626C69A7
:100490006768745F636F6E6669672E656E61626C14
:1004A00065203D2025640A007267626C6967687484
:1004B0005F636F6E66696720454550524F4D3A0A3B
:1004C000007F3F1F643214643214783C1E1E140AED
:1004D000052223252628292A2C2D2F303233353684
:1004E000383A3B3D3E4042434547494A4C4E5051C5
:1004F000535557595A5C5E6062646668696B6D6FEC
:1005000071737577797B7D7F81838587898A8C8EEE
:1005100090929496989A9C9E9FA1A3A5A7A8AAACF6
:10052000AEAFB1B3B4B6B8B9BBBCBEBFC1C2C3C530
:10053000C6C7C9CACBCCCDCED0D1D2D2D3D4D5D6D2
:10054000D7D7D8D9D9DADADBDBDBDCDCDCDCDCDD05
:10055000DDDDDDDCDCDCDCDCDBDBDBDADAD9D9D8E9
:10056000D7D7D6D5D4D3D2D2D1D0CECDCCCBCAC981
:10057000C7C6C5C3C2C1BFBEBCBBB9B8B6B4B3B1B0
:10058000AFAEACAAA8A7A5A3A19F9E9C9A9896944B
:1005900092908E8C8A89878583817F7D7B79777520
:1005A00073716F6D6B6968666462605E5C5A5957FF
:1005B000555351504E4C4A4947454342403E3D3BBE
:1005C0003A3836353332302F2D2C2A292826252348
:1005D00022000101010101010101010202020202E6
:1005E00002020202030303030303030304040404DB
:1005F00004040405050505050606060606070707A3
:10060000070708080808090909090A0A0A0B0B0B59
:100610000C0C0C0D0D0D0E0E0E0F0F0F10101111F6
:10062000111212131314141515161617171818197A
:10063000191A1A1B1B1C1D1D1E1E1F2020212222E1
:10064000232424252626272829292A2B2C2D2D2E24
:100650002F30313232333435363738393A3B3C3D3E
:100660003E3F404142434445464748494A4C4D4E2F
:100670004F50515354555658595A5B5D5E5F6162F5
:1006800064656668696B6C6D6F7072737577787A84
:100690007B7D7E8082838587888A8C8E8F919395DF
:1006A00096989A9C9EA0A2A3A5A7A9ABADAFB1B303
:1006B000B5B7BABCBEC0C2C4C6C9CBCDCFD1D4D6E3
:1006C000D8DBDDDFE2E4E7E9EBEEF0F3F5F8FAFD85
:1006D000FF0A002530325820006B6579626F617225
:1006E000645F7265706F72743A20000A00253032C0
:1006F00058006B6579626F6172645F7365745F6CDB
:1007000065643A20003F00433E20004C25640A0007
:1007100074696D65725F72656164333228293A20AD
:100720002530346C580A006B6579626F6172645FC2
:1007300069646C653A2025580A006B6579626F61BF
:1007400072645F70726F746F636F6C3A2025580A21
:1007500000686F73745F6B6579626F6172645F6C60
:1007600065647328293A2025580A000A092D205368
:100770007461747573202D0A004743433A20352E67
:10078000342E30204156522D4C4942433A20322ECD
:10079000302E30204156525F415243483A20617614
:1007A00072350A004F5054494F4E533A204C55462B
:1007B000412045585452414B455920434F4E534FC9
:1007C0004C4520434F4D4D414E4420343039360A7C
:1007D000004255494C443A2022302E372E313036D3
:1007E0002D34392D6766323264316522202832304B
:1007F0003A34363A3337204A616E20203620323080
:100800003230290A005649443A203078464545445A
:10081000284A6F7368204A6F686E736F6E29205084
:1008200049443A20307838463733284875623136A3
:1008300029205645523A203078303030310A004471
:100840004553433A204D6163726F205061642077B5
:10085000697468205553422048756220616E642097
:10086000456E636F646572730A000A092D20566530
:100870007273696F6E202D0A000A092D20436F6E76
:10088000736F6C65202D0A4553432F713A097175BA
:1008900069740A000A092D204D61676963202D0AD9
:1008A000443A094465627567204D657373616765F5
:1008B00020546F67676C650A583A094D6174726914
:1008C00078204465627567204D6F646520546F67BA
:1008D000676C65202D2053686F77206B6579707287
:1008E000657373657320696E206D61747269782019
:1008F000677269640A4B3A094B6579626F61726489
:1009000020446562756720546F67676C65202D20F1
:1009100053686F77206B65797072657373207265A9
:10092000706F72740A4D3A094465627567204D6FA5
:1009300075736520546F67676C650A563A0956658A
:100940007273696F6E0A533A095374617475730A4E
:10095000433A09416374697661746520436F6E732D
:100960006F6C65204D6F64650A46312D4631303A13
:100970000953776974636820746F204C61796572DC
:1009800020302D392028463130203D204C30290A96
:10099000302D393A0953776974636820746F204C9D
:1009A0006179657220302D390A47524156453A091E
:1009B00053776974636820746F204C617965722085
:1009C000302028616C7465726E617465290A423A40
:1009D000094A756D7020746F20426F6F746C6F617F
:1009E0006465720A4553433A094A756D7020746F05
:1009F00020426F6F746C6F616465722028616C7443
:100A000065726E617465290A453A095072696E749F
:100A100020454550524F4D2053657474696E67737D
:100A20000A4253504143453A09436C65617220457F
:100A30004550524F4D0A000A002575002E6E6B720C
:100A40006F3A20000A002575002E737761705F628F
:100A500061636B736C6173685F6261636B73706118
:100A600063653A20000A002575002E737761705F78
:100A700067726176655F6573633A20000A002575C9
:100A8000002E6E6F5F6775693A20000A00257500B9
:100A90002E737761705F72616C745F726775693A0B
:100AA00020000A002575002E737761705F6C616C01
:100AB000745F6C6775693A20000A002575002E7313
:100AC0007761705F7263746C5F726775693A20005A
:100AD0000A002575002E737761705F6C63746C5F1C
:100AE0006C6775693A20000A002575002E636170F5
:100AF000736C6F636B5F746F5F636F6E74726F6C38
:100B00003A20000A002575002E737761705F636FCD
:100B10006E74726F6C5F636170736C6F636B3A209D
:100B2000000A0025303258006B65796D61705F6393
:100B30006F6E6669672E7261773A20000A0025752C
:100B4000002E6D6F7573653A20000A002575002E22
:100B50006B6579626F6172643A20000A0025750046
:100B60002E6D61747269783A20000A002575002E96
:100B7000656E61626C653A20000A002530325800CB
:100B800064656275675F636F6E6669672E72617711
:100B90003A20000A0025750064656661756C745F13
:100BA0006C617965723A20003F000A6D6F7573655C
:100BB0003A206F66660A000A6D6F7573653A206F9A
:100BC0006E0A000A6B6579626F6172643A206F6623
:100BD000660A000A6B6579626F6172643A206F6E13
:100BE0000A000A6D61747269783A206F66660A00BD
:100BF0000A6D61747269783A206F6E0A000A646542
:100C00006275673A206F66660A000A6465627567F6
:100C10003A206F6E0A000A0A4A756D70696E672085
:100C2000746F20626F6F746C6F616465722E2E2E0C
:100C30002000433E2000436C656172696E67204569
:100C40004550524F4D0A006565636F6E6669673A9D
:100C50000A005B735D004B6579626F61726420739B
:100C6000746172742E0A005B575D005B535D005B1C
:100C7000525D005B445D005B435D00040330000097
:100C8000000C034800750062003100360000001AB5
:100C9000034A006F007300680020004A006F00687C
:100CA000006E0073006F006E000000040309040969
:100CB000025B00030100A0FA090400000103010126
:100CC00000092111010001224000070581030800ED
:100CD0000A090401000103000000092111010001BB
:100CE0002236000705820320000A090402000203DD
:100CF00000000009211101000122220007058303E1
:100D0000200001070503032000011201100100006B
:100D10000008EDFE738F0100010203010631FF0997
:100D200074A1010975150026FF0095207508810240
:100D30000976150026FF00952075089102C005016F
:100D40000980A10185031A81002A8300160100266B
:100D50000300950175108100C0050C0901A10185F2
:100D6000041A01002A9C02160100269C02950175B6
:100D7000108100C005010906A101050719E029E756
:100D800015002501950875018102950175088101FD
:100D90000507190029FF150026FF00950675088133
:100DA0000005081901290595057501910295017540
:100DB000039101C011241FBECFEFDAE0DEBFCDBF2B
:100DC00004B603FE27C080916E0290916F02A0913D
:100DD0007002B09171028730904BA740B04BD1F4B4
:100DE00010926E0210926F021092700210927102B5
:100DF00014BE84B7877F84BF0FB6F894A8958091FE
:100E00006000886180936000109260000FBEE0E097
:100E1000F8E3099511E0A0E0B1E0EEE9F4E602C0E4
:100E200005900D92AE38B107D9F722E0AEE8B1E0F7
:100E300001C01D92AE36B207E1F70E94432C0C941C
:100E40004D320C940000FF93EF93E0918E01F091EE
:100E50008F01309709F00995EF91FF910895FC01FA
:100E60008591803011F0EFDFFBCF0895FF27E0E29E
:100E700030E247FF0CC0419597FF09C0EDE2609555
:100E8000709580959095611D711D811D911D27FFA5
:100E900002C0219530E350E2AA27660F771F881F12
:100EA000991FAA1FA41710F0A41B63955A95A9F7C0
:100EB000AA3008F0A95FA05DAF93F39561157105A5
:100EC0008105910541F7ED3211F4EF93F395F21797
:100ED00018F43F93F395FBCF8F91B5DFFA95E1F7C7
:100EE0000895E991F9918591803021F0853219F0CA
:100EF000AADFF9CF089520E0E89455915532C1F367
:100F0000503311F4689455915A3348F4505390F388
:100F1000220F022E220F220F200D250FF4CF0EF4E8
:100F2000219589919991533619F3533729F1533506
:100F300059F1BC0188279927E8945C3621F48991FE
:100F4000999168945591543639F446EF7EF077FFC5
:100F50000DC08FEF9FEF0AC055374AE039F0583582
:100F600040E121F0523642E009F00895FF93EF93FB
:100F70007DDFEF91FF91B7CFFF93EF93FC0181915C
:100F80008030B9F360DFFBCFFF93EF9368DFF1CFE1
:100F9000DF93CF93CDB7DEB72596A3DFCF91DF9157
:100FA0000895E82FF0E0EE56FE4F80810895CF932C
:100FB000DF93AEE4B1E043E551E061E070E08D9194
:100FC000E82FE295EF70F0E021A18F70EB0102C0F5
:100FD000CC0FDD1F8A95E2F7CE019C2F90959223CE
:100FE00091A392A1892B82A34A175B0741F7AAE438
:100FF000B1E04EE451E061E070E08D91E82FE295C0
:10100000EF70F0E021A18F70EB0102C0CC0FDD1F6B
:101010008A95E2F7CE019C2F9095922391A392A1FD
:10102000892B82A34A175B0741F7E7E9F1E0A2E9C0
:10103000B1E08CE991E011921D928E179F07D9F7CC
:1010400085E00E94450DDF91CF910C94D3095F920A
:101050006F927F928F929F92AF92BF92CF92DF92C8
:10106000EF92FF920F931F93CF93DF936EE471E0A3
:10107000A7E9B1E02CE9A22E21E0B22E612C01E01B
:1010800010E06D015C901C92EB018991BE01E82F8C
:10109000E295EF70F0E021A18F70A80102C0440F2B
:1010A000551F8A95E2F7CA01242B21A322A1942E71
:1010B0009094292122A350EA5A95F1F79AE4E92E57
:1010C00091E0F92E40E050E0E70189907E01282D63
:1010D00022952F7030E0E90128A17C9030E0D82DD6
:1010E000DF7002C035952795DA95E2F720FD08C03C
:1010F000302F042E01C0330F0A94EAF7232F01C0CA
:1011000020E027292C934F5F5F4F44305105E1F6D3
:1011100091A1992291A292A1892B82A3119681E09B
:10112000F6019081951101C080E0682AAA16BB06DD
:1011300009F0A7CF262D45E062E971E087E991E04B
:101140000E94460D409196011092960120919101C6
:10115000322F330F3093910180919001982F990F86
:10116000909390012FB1221F2227221F232B20931F
:10117000910189B1881F8827881F892B809390014E
:1011800091E02F3709F090E08F3711F080E001C037
:1011900082E0892B8093960191E0481301C090E092
:1011A000C62DC92B0E94DD098C2FDF91CF911F9195
:1011B0000F91FF90EF90DF90CF90BF90AF909F90F6
:1011C0008F907F906F905F900895879857980895BB
:1011D0000895089581110BC083E7662321F00E94D2
:1011E000561A85E110C00E94561A84E10CC0813065
:1011F00079F483E7662321F00E94561A88E103C040
:101200000E94561A87E10E94D71B83E70C94781B33
:1012100008951F93CF93DF938430910540F1833776
:10122000910530F09C012457310921333105F8F440
:10123000FB01EC011281112369F083E70E94561A29
:1012400080919C018F5F80939C018C2F0E94561A85
:1012500010E00EC00E94781B80919C018150809309
:101260009C01811105C083E70E94781B01C011E039
:10127000812FDF91CF911F9108959C013A952115FF
:101280003F4138F5DC01AA27B270AC014427547005
:101290009C012227387094FF0FC090FF02C080E1AC
:1012A00001C080E0AB2B09F08062452B09F080641F
:1012B000232B69F080680BC0892F8170AB2B09F05C
:1012C0008260452B09F08460232B09F08860FB01C4
:1012D00009940895CF93DF93EC01805E91090897FC
:1012E00010F0209719F46AEE7BE102C067E37EE11B
:1012F000CE010E943D098C2FDF91CF910C94561A9C
:10130000CF93DF93EC010E94781BCE01805E9109A0
:10131000089710F0209719F461EF7BE102C06EE3AB
:101320007EE1CE01DF91CF910C943D0981E00895DB
:101330000C9409091F93CF93DF9300D000D01F9224
:10134000CDB7DEB749835A836B832091C50189816C
:101350009A81211112C0662349F00E94BB23182FE5
:10136000682F89819A810E94662303C00E9490237E
:10137000182F69817A81812F04C00E94BB23698163
:101380007A810F900F900F900F900F90DF91CF9177
:101390001F910C949E0AFC014081518162817381EE
:1013A00084810C949A090E94F524811102C00E9444
:1013B00095250E94E3150C94E5080E9459150E949A
:1013C00047160C94E80808950C94E30981E0089509
:1013D0000C94E609CF93C82F0E94E4098C2F0E9439
:1013E000E809CF91089508950E945B1E0E94F309B9
:1013F0002FEF84E39CE0215080409040E1F700C053
:10140000000087E797E790930108809300080C9409
:10141000E5260F931F93CF93DF938C010E94CB0996
:10142000EC01B8010E94B614B801CE010E949809DF
:10143000882309F478C0B801CE010E94FD148823E6
:1014400009F471C0B801CE010E945017882309F435
:101450006AC0B801CE010E949117882309F463C0C5
:10146000B801CE010E94BC13882309F45CC0F801C6
:101470008281882339F1C1308CE5D80759F0CE3DFF
:10148000ECE5DE07E1F0C115FCE5DF07D9F40E94C9
:10149000F40949C080912202C82FC095C170C0FBD9
:1014A00080F980932202CC2329F086E891E00E9403
:1014B0002F0739C084E791E00E942F0735C00E94B2
:1014C000952531C0C631DC4539F50E943C24982F62
:1014D000F801828120913D0130913E01882379F00D
:1014E0009A7A81E009F480E080939D01911102C015
:1014F00069E201C065E3C9010E94CF250AC080915D
:101500009D01811102C069E201C065E3C9010E9429
:10151000D1250E948D2407C0C801DF91CF911F9172
:101520000F910C949609C0E08C2FDF91CF911F9101
:101530000F91089580E090E008950895E72FF0E07E
:1015400095E0899FE00DF11D1124EE0FFF1FEE0FB6
:10155000FF1FE60FF11DEE0FFF1FEC5DFE4F8591A3
:1015600094910895880F991FFC01E956FE4F8591CB
:1015700094910895CF93DF930E949E0A0E946E0C6F
:10158000EC0181159045C8F5C11580E4D80708F035
:1015900023C1C03ED105D8F4C03CD10508F00BC131
:1015A000C83AD10578F4C53AD10508F09AC0C130DF
:1015B000D10509F48FC108F440C1C430D10508F049
:1015C00089C13BC1CF3BD10508F496C036C1C115D6
:1015D00090E2D90750F4C11521E0D20708F07AC192
:1015E000C83ED10508F476C128C1C11580E3D807EB
:1015F00008F0E8C0CE019F70E1C0C11595E5D9079C
:1016000008F043C0C11524E5D20708F0FCC0C1159D
:1016100082E5D80708F5C11591E5D90708F0DFC0C4
:10162000CE0174E0969587957A95E1F783709C2FAB
:10163000937021E030E002C0220F331F9A95E2F749
:101640003C68382BCF70C695C69580E2C89FE001F4
:101650001124C22BD32B3EC19E01237033278C2F24
:1016600086958695C115D34508F0BEC0C1E0D0E08F
:1016700002C0CC0FDD1F2A95E2F720E2829FC00155
:101680001124C82BD92BDC6825C1C11529E5D20747
:10169000A0F4C11588E5D80708F0BAC0C11596E5D1
:1016A000D90708F0CAC08C2F0E94020D8F71C82F75
:1016B000D0E0DC2FCC27D0620DC1C1152AE5D207BE
:1016C00008F4ABC0CE0190568115904208F0B5C029
:1016D0008D2F8F710E94020DDD27D0628F71D82B64
:1016E000F9C0C53AD10509F4ABC0C63AD10509F035
:1016F000AAC0C2E8D0E4EEC0C83AD10509F4A6C039
:10170000C93AD10509F4A5C0CA3AD10509F4A4C063
:10171000CB3AD10509F4A3C0CC3AD10509F4A2C053
:10172000CB3BD10509F4A1C0CC3BD10509F4A0C045
:10173000CD3AD10509F49FC0C03BD10509F49EC044
:10174000CE3AD10509F49DC0CF3AD10509F49CC029
:10175000C13BD10509F49BC0C23BD10509F49AC035
:10176000C33BD10509F499C0C43BD10509F498C025
:10177000C53BD10509F497C0C63BD10509F496C015
:10178000C73BD10509F495C0C83BD10509F494C005
:10179000C93BD10509F493C0CD3BD10509F492C0F2
:1017A000CE3BD10509F491C0CA3BD10509F490C0E4
:1017B000C0E0D4E48FC0CE01805C91090E94B20ADF
:1017C000EC0188C0CE019927D3FF03C0EC01D86C8F
:1017D00081C0EC01D06C7EC0DF70D06A7BC0DC2F92
:1017E000CC27C16FD06A76C0C1E0D0E002C0CC0F78
:1017F000DD1F2A95E2F720E2829FC0011124C82B49
:10180000D92BDA6867C0DC2FCC27C46FD06A62C0DE
:10181000DC2FCC27C06FD06A5DC08C2F8F700E94E8
:10182000020D94E0D695C7959A95E1F7CF70D0E078
:10183000DC2FCC27D069C82B4DC0C0E0D0E04AC017
:10184000C1E8D0E447C0C3E8D0E444C0C2EED4E469
:1018500041C0C9EED4E43EC0CAEED4E43BC0C5EBFF
:10186000D4E438C0C6EBD4E435C0C3EBD4E432C012
:10187000C4EBD4E42FC0C7EBD4E42CC0CCECD4E44C
:1018800029C0CDECD4E426C0C3E8D5E423C0CAE81F
:10189000D5E420C0C2E9D5E41DC0C4E9D5E41AC02E
:1018A000C1E2D6E417C0C3E2D6E414C0C4E2D6E471
:1018B00011C0C5E2D6E40EC0C6E2D6E40BC0C7E252
:1018C000D6E408C0CFE6D4E405C0C0E7D4E402C043
:1018D000CAE2D6E4CE01DF91CF9108958238910516
:1018E00069F1B0F48133910509F46DC048F489328F
:1018F000910509F463C08A32910509F469C008951D
:101900008533910509F455C089339105B9F00895DF
:10191000833E910569F138F4803E9105B1F0823E35
:10192000910509F10895863E9105A9F1873E91053B
:10193000B9F1843E910509F064C023C020915F0293
:1019400020FD4FC021FD4DC0089580915F0280FDB4
:1019500044C08091600280FF44C080915F0284FD9A
:1019600042C083EE4DC080915F0282FF38C0F5CF48
:1019700080915F0282FD33C08091600280FD31C0A2
:10198000ECCF8091600281FF32C080915F0284FDC4
:101990002AC087EE35C080915F0283FF26C0F5CF55
:1019A00080915F0283FD21C08091600281FD1FC094
:1019B000ECCF80915F0285FD1CC01DC080915F024D
:1019C00085FD19C016C080915F0286FD16C017C044
:1019D00080915F0286FD13C010C089E311C082EEC2
:1019E0000FC080EE0DC080E00BC086EE09C084EE13
:1019F00007C089E205C085E303C08AE201C081E334
:101A000090E0089590915F0292FF0DC0282F2871F9
:101A1000283019F4877F846006C0282F2471243071
:101A200011F48B7F886093FF0DC0282F2871283117
:101A300019F4877E846106C0282F2471243111F4A3
:101A40008B7E88612091600220FF0DC0382F387195
:101A5000383019F4877F816006C0382F31713130FA
:101A600011F48E7F886021FF0DC0282F2871283146
:101A700019F4877E816106C0282F2171213111F46C
:101A80008E7E886194FD877E08950895FF920F935E
:101A90001F93CF93DF938C01F62ED72FC42F2223D1
:101AA00049F081E08093A0010E947D2690939F01E0
:101AB00080939E018091A0018823C1F080919E01B6
:101AC00090919F010E949526459780F0EF2DFD2F64
:101AD000D8014C2F50E0CD01801B910B8417950746
:101AE0001CF48D918193F7CF1092A001DF91CF91DB
:101AF0001F910F91FF900895EF92FF920F931F9304
:101B0000CF93DF93F62E472FE82FF0E0711106C038
:101B1000EF52FA4F6491762F862F72C0272F30E054
:101B2000EF52FA4FE4910E2F10E056E0659FC0018E
:101B30001124CFEFD0E0BE010E94CA315BEA560308
:101B4000C001579F900D11248F0D911D8F0D911D78
:101B5000982F990F890F7E01E21AF30AE09ED001B7
:101B6000E19EB00DF09EB00D1124489FA0011124FC
:101B7000452F55277E01E41AF50AE09EA001E19E5B
:101B8000500DF09E500D11247E01E81AF108E29EDE
:101B9000C001E39E900DF29E900D1124892F99278C
:101BA000C81BD90BC09FC001C19F900DD09F900D45
:101BB00011246230710591F048F461157105E1F06E
:101BC00061307105A9F48B2F752F19C06430710530
:101BD00061F038F06630710579F00AC0892F7B2FEB
:101BE0000EC08E2F7B2FE52F0AC08E2F792F02C0BB
:101BF000852F7E2FEB2F03C08B2F7E2FE92F6E2F8B
:101C0000DF91CF911F910F91FF90EF90089508956C
:101C1000CF93DF93762FE901682F842F0E947C0DEC
:101C2000798368838A83DF91CF910895809135020B
:101C3000282F269530E02115310519F48170826036
:101C400005C02831310524F081708E628093350201
:101C5000089588E090E00C940D32CF92DF92EF92DD
:101C6000FF926B017C010E94160EB701A60188E06D
:101C700090E0FF90EF90DF90CF900C942B32E5E353
:101C8000F2E083E0808311828FEF8283838314826A
:101C900060817181828193810C942D0E809122024A
:101CA00080FF08C088EA94E09F938F930E94C80742
:101CB0000F900F908091220280FF0FC0809135021B
:101CC00081701F928F938BE894E09F938F930E9473
:101CD000C8070F900F900F900F908091220280FF05
:101CE0000FC08091350286951F928F9380E794E014
:101CF0009F938F930E94C8070F900F900F900F90A3
:101D00008091220280FF0EC0809136021F928F9335
:101D100086E594E09F938F930E94C8070F900F90E1
:101D20000F900F908091220280FF0EC080913702A9
:101D30001F928F938CE394E09F938F930E94C80728
:101D40000F900F900F900F908091220280FF0EC095
:101D5000809138021F928F9382E294E09F938F9339
:101D60000E94C8070F900F900F900F908091220251
:101D700080FF0EC0809139021F928F9386E094E01D
:101D80009F938F930E94C8070F900F900F900F9012
:101D900008958091350280FF02C08695089580E005
:101DA000089580913902833018F48F5F809339024F
:101DB000609135027091360280913702909138021D
:101DC0000C942D0E80913902882319F08150809354
:101DD00039026091350270913602809137029091FC
:101DE00038020C942D0E60913A0170E0809135021A
:101DF00080FF0AC08091A40123E0829FC0011124CA
:101E0000865C9D4F0C94DE158091A3019091390161
:101E1000891780F7E82FF0E09F01220F331FE20FB0
:101E2000F31FE65CFD4F1182108212828F5FF0CFAC
:101E30009091350290FF16C09091A3012091390135
:101E4000921770F4E92FF0E0DF01AA0FBB1FEA0F31
:101E5000FB1FE65CFD4F8183608342839F5FF0CF71
:101E60000C94F30E0895CF93DF9300D01F92CDB75B
:101E7000DEB79091350290FF0AC09E012F5F3F4F61
:101E80000E94080E4B8169818A810E94180F0F9071
:101E90000F900F90DF91CF910895CF93DF93EC01D6
:101EA000EC81F0E0EF52FB4F4491E5E3F2E0628118
:101EB00081810E94330F8C818F5F8C83DF91CF9162
:101EC0000895CF93DF93EC01E5E3F2E04381628173
:101ED0008C810E94330F8C818F5F8C83DF91CF9137
:101EE0000895EF92FF920F931F93CF93DF9300D04B
:101EF0001F92CDB7DEB7182FF62E042FE22E809159
:101F0000350280FF5DC0E82FE695F0E0ED5AFE4F08
:101F100090819093AC018E7F823061F49E012F5F9F
:101F20003F4F812F0E94080E4B8169818A810E9458
:101F3000180F0CC0923019F40091380207C0963087
:101F400019F41091360202C09930D9F31093360279
:101F5000F092370200933802EE20E9F060913502EA
:101F60007091360280913702909138020E942D0EB6
:101F70008091220280FF24C0809138021F928F93AB
:101F8000809137021F928F93809136021F928F9318
:101F900080EF91E00CC08091220280FF11C01F925F
:101FA0000F931F92FF921F921F9389EC91E09F93D2
:101FB0008F930E94C8070FB6F894DEBF0FBECDBF47
:101FC0000F900F900F90DF91CF911F910F91FF9085
:101FD000EF900895E5E3F2E09181282F438162813B
:101FE00088E0890F0C94710F81E00C94EA0FE5E30F
:101FF000F2E09181282F4381628188EF890F0C9450
:10200000710F81E00C94F70FE5E3F2E0628128E0C4
:10201000620F08F46FEF282F438181810C94710FB8
:1020200081E00C940410E5E3F2E0628128E0621B99
:1020300008F460E0282F438181810C94710F81E0C6
:102040000C941310E5E3F2E0438128E0420F08F41A
:102050004FEF282F628181810C94710F81E00C94E5
:102060002210E5E3F2E0438128E0421B08F440E05F
:10207000282F628181810C94710F81E00C943110C2
:1020800020E00C94710FFF920F931F93CF93DF9377
:10209000EC01F12C0FEF10E060913801F616F0F42E
:1020A0008091A3012F2D30E0280F311DC901880F29
:1020B000991F280F391F265C3D4F70E0C8010E9410
:1020C000DE31962F8C814091380260913702F99E63
:1020D000800D11240E94080EF394DECF0E94F30EAF
:1020E0009A818C8190FF02C08F5F01C081508C83E8
:1020F000DF91CF911F910F91FF900895AF92BF9202
:10210000CF92DF92EF92FF920F931F93CF93DF93C3
:10211000FC01828180FF02C00FEF01C001E010E0EE
:102120004BE0A42E80913801181708F043C080912D
:10213000A301C12ED12CE601C80FD11DCE01880FFD
:10214000991FC80FD91FC65CDD4F198218821A82E9
:1021500034E0E32EF12CB12C8091A2018B0D8C3058
:102160002CF06A2D0E94BC31892F05C087FF03C067
:1021700090913801890F082E000C990BC816D906CA
:1021800091F4809138028E9DA0018F9D500D1124F5
:1021900055954795559547959E01609137028091D9
:1021A00036020E94080EB00EF1E0EF1AF108A1F617
:1021B0001F5FB8CF0E94F30E8091A201013031F46D
:1021C000811102C080913801815007C090E00196D2
:1021D0006091380170E00E94DE318093A201DF91AE
:1021E000CF911F910F91FF90EF90DF90CF90BF9014
:1021F000AF900895CF938091A301909139018917F1
:1022000070F4E82FF0E09F01220F331FE20FF31F5D
:10221000E65CFD4F1182108212828F5FF0CFC0E02A
:1022200060913801C617C0F5EC2FF0E070E0CF01E7
:102230000E94DE312091A301820F2091A101022E84
:10224000000C330B90E0E217F307CCF0209137013C
:10225000022E000C330B2E173F078CF09C01220F2F
:10226000331F820F931F9C01265C3D4F4091380223
:1022700060913702809136020E94080E0BC0FC016B
:10228000EE0FFF1F8E0F9F1FFC01E65CFD4F1182BA
:1022900010821282CF5FC4CF0E94F30E20913601CC
:1022A0008091A101820F8093A10190913701920F3B
:1022B0009093370119165CF4082E000C990B40918D
:1022C000380150E041505109841795071CF02195C1
:1022D00020933601CF91089560913502669570E0A4
:1022E00041E050E08BE391E00E94F831892B19F432
:1022F00081E08093AD010E947D269093A60180939A
:10230000A5018091220280FF08C080EB91E09F939D
:102310008F930E94C8070F900F9008951092AD01FF
:102320008091220280FF08C087E991E09F938F93FC
:102330000E94C8070F900F9008959091350290FF6A
:1023400054C09170811102C0926006C0883110F0B3
:102350009E6202C0880F982B909335026623B1F0DD
:102360006091350270913602809137029091380267
:102370000E942D0E8091220280FF1BC080913502A9
:1023800086951F928F938CE493E00BC0809122027C
:1023900080FF0FC08091350286951F928F938EE249
:1023A00093E09F938F930E94C8070F900F900F9018
:1023B0000F9060913502669570E041E050E08BE34C
:1023C00091E00E94F831892B19F00E948E1102C011
:1023D0000E946C1181E08093A801409138026091C5
:1023E0003702809136020C9440100895682F909126
:1023F0003502969581E0890F883108F081E00C94D0
:102400009D1181E00C94F611682F909135029695FC
:102410008FEF890F09F487E10C949D1181E00C94F2
:10242000041261E00C949D118091350281608093CB
:1024300035028091220280FF0DC01F9281E08F93B0
:1024400080EC92E09F938F930E94C8070F900F90AB
:102450000F900F908091350286950C94111260E0D8
:102460000C949D118091AB01811160C0809122027A
:1024700080FF08C08FEE93E09F938F930E94C80760
:102480000F900F908091220280FF08C089ED93E0A9
:102490009F938F930E94C8070F900F900E94F5247E
:1024A000811110C08091220280FF08C081EB93E06F
:1024B0009F938F930E94C8070F900F900E949525BD
:1024C0000E943F0E0E94290E6093350270933602DF
:1024D00080933702909338026E7FC1F4809122027C
:1024E00080FF08C088E693E09F938F930E94C807FF
:1024F0000F900F900E943F0E0E94290E60933502AC
:102500007093360280933702909338020E94160E21
:102510000E944E0E1092AD018091350280FF03C0E3
:1025200086950E942F1281E08093AB0108958091DF
:1025300035028160809335028091220280FF0DC0B8
:102540001F9281E08F9387E892E09F938F930E9480
:10255000C8070F900F900F900F90809135028695CD
:102560000C942F12809135028E7F809335026091FA
:1025700035027091360280913702909138020E94A4
:102580002D0E8091220280FF0FC080913502817054
:102590001F928F938FE492E09F938F930E94C807BE
:1025A0000F900F900F900F900E948E112FEF80E7E9
:1025B00092E0215080409040E1F700C000000C9470
:1025C000F30E8091220280FF10C080913502809529
:1025D00081701F928F9387EF92E09F938F930E9459
:1025E000C8070F900F900F900F908091350280FDDB
:1025F0000C94B2120C941412809135028E7F809349
:1026000035028091220280FF0CC01F921F9285E14B
:1026100092E09F938F930E94C8070F900F900F90A6
:102620000F900E948E112FEF80E792E021508040A2
:102630009040E1F700C000000C94F30E0F931F933D
:10264000CF93DF938091AD01882309F475C0809109
:10265000AC01E0913502E695E81BE093A7018230DA
:1026600049F4F0E0E353FB4FE491CE2FD0E00DE4CA
:102670001FE032C0863049F4F0E0E653FB4FE491AE
:10268000CE2FD0E001E61FE027C0893051F4E69557
:10269000F0E0E953FB4FE491CE2FD0E003E410E1EA
:1026A0001BC08F3051F4E695F0E0EC53FB4FE49102
:1026B000CE2FD0E00EE710E10FC0853149F4F0E0F5
:1026C000EF53FB4FE491CE2FD0E00AEF10E104C0AE
:1026D000C0EDD7E007E01EE08091A801882389F0D3
:1026E0001092A8010E947D269E0120953095820FB0
:1026F000931F9093A6018093A5011092AA011092B6
:10270000A9018091A5019091A6010E9495268C17A0
:102710009D0790F0E091A501F091A601CE0FDF1F7B
:10272000D093A601C093A50185EA91E0F801DF915D
:10273000CF911F910F910994DF91CF911F910F912C
:102740000895882311F0FA0101C0FB010994CF9389
:10275000DF93C82FD62F0E94C90E8C1740F00E941D
:10276000C90E8D1720F4DF91CF910C9401128C2F9C
:10277000DF91CF910C9411120F931F93CF93FB0114
:10278000C281CC2309F45BC08C010E943C2482727C
:10279000F801E25CFC45E431F10508F053C0EA5A67
:1027A000FF4F0C94F2310E94E1124BC04EE052E117
:1027B00061E072E104C041E052E16EE072E10E942A
:1027C000A1133FC041E050E164EF7FE0F8CF44EF58
:1027D0005FE061E070E1F3CF4FE150E160E170E173
:1027E000EECF40E150E16FE170E1E9CF4DE350E120
:1027F0006EE270E1E4CF4EE250E16DE370E1DFCFD5
:1028000042EE5EE061ED7EE0DACF41ED5EE062EE49
:102810007EE0D5CF81E00E94111213C065E082E016
:102820000BC068E086E008C06EE089E005C064E1A6
:102830008FE002C067E185E10E94A71302C0C1E0FA
:1028400001C0C0E08C2FCF911F910F910895CF93BD
:10285000DF93EC0181E0898B8F810E943F24888582
:102860000E9452240E948D24EA81FB81CE010696AB
:10287000309729F06C897D89DF91CF910994DF91A0
:10288000CF910895CF93DF93FC012081223039F45A
:10289000FB01EC0182810E94B32281E08B87DF91F2
:1028A000CF910895DB01FC018081813021F48D916D
:1028B0009C910C946A09823039F41396ED91FC9145
:1028C000149712968C9109940895FC0180818130AF
:1028D00029F4FB01808191810C9480090895EF9285
:1028E000FF920F931F93CF93DF93FC012285211159
:1028F00036C0EC01E380F480F7E5FF1A26E12E9D57
:10290000C0012F9D900D1124DC01A050BF4F1496E3
:10291000ED91FC9115978A5F9E4F309729F0549660
:102920006D917C915597099586E18E9D80018F9DD3
:10293000100D112400501F4FF80187810E9445247B
:10294000F80180850E9458240E948D2418821986DF
:102950001B861E821D821092AF011092AE01DF9184
:10296000CF911F910F91FF90EF900895DF92EF921A
:10297000FF920F931F93CF93DF93FB0122812223BA
:10298000A1F120913C012F3F81F18C01C0E0D1E009
:10299000E12CF12CDD24D39480913C01082E000C15
:1029A000990B8E159F050CF18E818823C9F08985BE
:1029B0009A858017910739F48091AE019091AF010B
:1029C0000817190769F0DF861C870B878989811131
:1029D00003C0CE010E942714CE0106960E946F14F8
:1029E000FFEFEF1AFF0A6696D7CFDF91CF911F91C5
:1029F0000F91FF90EF90DF900895EF92FF920F9369
:102A00001F93CF93DF939C0137552F3F310511F072
:102A100008F047C040913C01042E000C550B4217B2
:102A2000530714F420933C01FB017C01828196E161
:102A3000929F8001939F100D1124E801C050DF4F39
:102A4000888B92818E81992311F1FA86E9868F5FB6
:102A50008E830E947D269E878D870E9472248F839D
:102A60000E943C2488870E944F249885892B888760
:102A7000E881F981C8018A5F9E4F309719F06C890F
:102A80007D890995F092AF01E092AE010AC08823DA
:102A900041F08989882329F0C8018A5F9E4F0E94EE
:102AA0006F1481E0DF91CF911F910F91FF90EF9014
:102AB0000895CF92DF92EF92FF920F931F93CF93DF
:102AC000DF9380913C018F3FF1F1F12C96E1E92EEB
:102AD0000F2D10E080913C01082E000C990B8017FF
:102AE00091078CF1E09EF001E19EF00D1124E05081
:102AF000FF4FC288D388C114D10419F488ECC82EC2
:102B0000D12CE09EE001E19ED00D1124C050DF4F9A
:102B10008E818823B1F08D859E850E949526C816EA
:102B2000D90678F48989811103C0CE010E94271447
:102B3000E09EC001E19E900D11248A5F9E4F0E948D
:102B40006F14F394C5CFDF91CF911F910F91FF9038
:102B5000EF90DF90CF9008952BB1342F3095232341
:102B60003BB1432B3FB7F894FC01680F791FE61780
:102B7000F70789F0819198E04BB9000000C087FF0A
:102B80002BB9880F000000C000C000C02BB900C0E6
:102B90009A9591F7ECCF3FBF08952AB1242B2AB91B
:102BA0009B01220F331F620F731F0E94AC1587EC2D
:102BB00090E00197F1F700C00000089542E00C9406
:102BC000CD150C94EA08FF920F931F93CF93DF93D8
:102BD000C4EBD1E04DE751E02BE731E061E070E07C
:102BE000F1E0C63BDF0709F44CC0FA010191AF01E7
:102BF000A02FA295AF70B0E09196EC9191970F70D5
:102C0000CB01002E01C0880F0A94EAF7982F909507
:102C10009E2391969C93919792969C919297892B43
:102C200092968C939297F90111919F01E12FE29571
:102C3000EF70F0E0F1A01F70CB01012E01C0880FF2
:102C40000A94EAF7982F90959F2191A392A1892B3E
:102C500082A390968C9190E002C0959587950A95F5
:102C6000E2F78170E0A1F0E002C0F595E7951A95D2
:102C7000E2F7E0FD02C090E001C092E0892B899369
:102C8000AFCFDF91CF911F910F91FF9008955F9289
:102C90006F927F928F929F92AF92BF92CF92DF926C
:102CA000EF92FF920F931F93CF93DF9384EB682EE5
:102CB00081E0782E9DE7E92E91E0F92E0BE711E0F7
:102CC00022EB822E21E0922EC0EBD1E06301530172
:102CD000512CD501ED915D014E2F440F440FF601AB
:102CE00041936F01D7012D917D01E22FE295EF70A5
:102CF000F0E080A190E02F7002C0959587952A950D
:102D0000E2F781709927F80151918F01E52FE29543
:102D1000EF70F0E020A130E05F7002C0359527959C
:102D20005A95E2F7F901E170FF2720FF02C0E2E0C7
:102D3000F0E0E82BF92BE42BD301ED933D01EF708C
:102D4000F0E0E559FE4F9081F4018081890F808386
:102D500084303CF088818F5F888361E0852D0E94FC
:102D6000E115D4018C918D3F3CF48881815088839A
:102D700060E0852D0E94E115F4018081837887FF52
:102D800003C081508C6F8F5FD4018D934D0153949C
:102D90002196B2E05B129DCFDF91CF911F910F91F1
:102DA000FF90EF90DF90CF90BF90AF909F908F906B
:102DB0007F906F905F9008950F931F93CF93DF9351
:102DC000C62FD42F122FFC0182818823C9F0609373
:102DD000B8010E947D269093B7018093B60180E2EE
:102DE0008C0F883008F057C0C77081E001C0880F91
:102DF000CA95EAF7DF91CF911F910F910C94EA1BCE
:102E00008091B801681330C08091B6019091B701EC
:102E10000E949526883C910538F500E20D0FCD17EC
:102E2000B9F080E28C0F883040F4C77081E001C0B7
:102E3000880FCA95EAF70E94F11B083028F581E057
:102E40009D2F977001C0880F9A95EAF70E94EA1BA0
:102E5000812F0E94D71B0830F0F4D77081E001C0A9
:102E6000880FDA95EAF70AC080E28C0F883098F470
:102E7000C77081E001C0880FCA95EAF7DF91CF9152
:102E80001F910F910C94F11B812FDF91CF911F9116
:102E90000F910C94D71BDF91CF911F910F91089543
:102EA0009C01CB01233F4CE53407F9F078F4283D31
:102EB000FCE53F07B9F0293D4CE5340711F1273D0A
:102EC0003C4531F526E241EE61EE1EC0253FFCE5B2
:102ED0003F0799F070F0263F3C45D1F427E245EEDC
:102EE00066EE12C027E245EE0EC026E241EE60EE2D
:102EF0000BC027E245EE64EE07C026E241EE62EE2B
:102F000003C028E241E065EE0E94DC1680E00895EF
:102F1000FC018281882319F01092B801089581E0A4
:102F20000895CF93DF93EC01FB018281882309F49C
:102F30001FC1C230FCE5DF0708F41BC1C6319CE5A8
:102F4000D90738F09E012A5F3C452930310508F049
:102F500010C10E9408259093600280935F02C031E7
:102F6000ECE5DE0709F4C3C008F041C0C8308CE5C9
:102F7000D80709F49AC0F0F4C430ECE5DE0709F490
:102F800087C068F4C2308CE5D80709F477C0C33035
:102F9000DC4509F0E3C080915F02826076C0C630F4
:102FA000ECE5DE0709F46EC008F07BC080915F029B
:102FB00088606BC0CC308CE5D80709F485C068F414
:102FC000CA30ECE5DE0709F474C008F079C00E944D
:102FD0005B1E80915F02806858C0CE308CE5D807B8
:102FE00009F476C008F07FC080915F028BC0CB3FB0
:102FF000ECE5DE0709F44FC018F5C3318CE5D807BE
:1030000009F47DC078F4C131ECE5DE0709F473C042
:10301000C231DC4509F0A2C00E945B1E80915F02B4
:103020008F7733C0C5318CE5D80709F472C008F436
:1030300086C0CA3FDC4509F091C0809160023EC065
:10304000CF3FFCE5DF0709F45FC058F4CD3F9CE5B6
:10305000D90709F444C008F43FC08091600282603F
:103060002DC0C130FDE5DF0709F475C008F45DC06F
:10307000C230DD4509F072C080E06EC080915F0211
:10308000816003C080915F02806180935F0266C0AF
:1030900080915F0211C08091600282608093600223
:1030A0005DC080915F028062F0CF80915F0280649A
:1030B000ECCF80915F0288608460E7CF8160EECFC3
:1030C00080915F028E7FE1CF80915F028D7FDDCFA7
:1030D00080915F02877FD9CF8091600218C0809174
:1030E00060028D7FDBCF80915F028F7ECECF80919B
:1030F0005F028F7DCACF80915F028F7BC6CF8091A8
:103100005F02877F8B7FC1CF809160028D7F8E7F32
:10311000C5CF80915F0282FB222720F991E09227A0
:1031200090FB82F990FB83F9B0CF80916002982FD9
:10313000909591708E7F892B90FB81F9AFCF0E9483
:103140005B1E80915F0287FB222720F991E0922786
:1031500090FB87F99ACF81E00E94972580915F02CA
:10316000909160020E9419250E945B1E80E001C0C0
:1031700081E0DF91CF9108959093BE018093BD01CE
:103180000895E091BD01F091BE01309721F00190CA
:10319000F081E02D099480E00895EF92FF920F9363
:1031A0001F93CF93DF93E091BD01F091BE01309763
:1031B000B1F18C010280F381E02D0995809122020A
:1031C00082FF2DC080FF04C089ED96E00E942F078A
:1031D000E80118E083EDE82E86E0F82E80912202C7
:1031E00080FF0BC088811F928F93FF92EF920E9405
:1031F000C8070F900F900F900F901150219611114A
:10320000EDCF8091220280FF0AC081ED96E0DF9130
:10321000CF911F910F91FF90EF900C942F07DF91AA
:10322000CF911F910F91FF90EF9008952091BB01D6
:103230003091BC012817390771F09093BC0180933D
:10324000BB01E091BD01F091BE01309721F00680F5
:10325000F781E02D099408952091B9013091BA01C8
:103260002817390771F09093BA018093B901E09162
:10327000BD01F091BE01309721F00084F185E02D71
:103280000994089585B7806885BF85B7806885BF34
:10329000089508950C9449190C944A190C944919ED
:1032A0000C9449190E9442190E944E190C944C1911
:1032B00081E008950E9474260E94D7070E94F62696
:1032C0000E9432120C945019CF93C82F8091220281
:1032D00082FF1EC080FF04C082EF96E00E942F078D
:1032E0008091220280FF0CC01F92CF938DEE96E05A
:1032F0009F938F930E94C8070F900F900F900F908D
:103300008091220280FF04C08BEE96E00E942F077E
:103310008C2FCF910C94EA09AF92BF92CF92DF929B
:10332000EF92FF920F931F93CF93DF93CDB7DEB74A
:103330002A970FB6F894DEBF0FBECDBF0E942708B4
:103340000E945819811111C08FEF89838A831B82D3
:103350000E947D268160782F9D838C8349815A81CC
:103360006B818D810E94221A40C080ECA82E81E0E2
:10337000B82E00E010E0C02E802F0E94D107E82E6A
:10338000F501D1905F01D82631F40F5F1F4F053052
:10339000110589F7D9CF8091220281FD0E94E908A9
:1033A00080E0FF24F3949D2D9F21D1F08E83CF8266
:1033B000EF2081E009F480E088870E947D2681600B
:1033C000782F9A8789874E815F8168858A850E94D8
:1033D000221AF801E054FE4F8081F826F08205C0E1
:1033E0008F5FFF0C8430F9F6D0CF0E94C118909106
:1033F000BF018917B1F00E94C1188093BF012A96BE
:103400000FB6F894DEBF0FBECDBFDF91CF911F91F5
:103410000F91FF90EF90DF90CF90BF90AF900C9402
:1034200064192A960FB6F894DEBF0FBECDBFDF91A8
:10343000CF911F910F91FF90EF90DF90CF90BF90B1
:10344000AF900895CF93DF93CDB7DEB72B970FB62C
:10345000F894DEBF0FBECDBF4F83588769877A8748
:103460008B87DE01119686E0FD0111928A95E9F7BE
:1034700085E0FE01379601900D928A95E1F749812A
:103480005A816B817C818D819E810E942B212B969C
:103490000FB6F894DEBF0FBECDBFDF91CF91089578
:1034A000FC01808191810E94FD230895CF938823A0
:1034B00009F41CC1C82F8238C1F40E94C11881FDD3
:1034C00015C169E380913D0190913E010E94CF2595
:1034D0000E948D242FEF81EE94E021508040904097
:1034E000E1F700C0000069E319C0833801F50E94CC
:1034F000C11880FDFBC063E580913D0190913E01C4
:103500000E94CF250E948D242FEF81EE94E0215060
:1035100080409040E1F700C0000063E580913D01EC
:1035200090913E010E94D125CF910C948D24843836
:10353000C1F40E94C11882FDD9C067E480913D01A9
:1035400090913E010E94CF250E948D242FEF81EEA5
:1035500094E0215080409040E1F700C0000067E413
:10356000DDCF8CEF8C0F813A68F48C2F0E94BB2941
:103570008111BCC06C2F80913D0190913E010E9451
:10358000CF25D2CF80E28C0F883048F4C77081E01D
:1035900001C0880FCA95EAF70E943F24C5CF8BE58A
:1035A0008C0F833078F4C53A29F0C63A31F083E8BD
:1035B00090E005C081E890E002C082E890E0CF9101
:1035C0000C94161988E58C0F873108F08FC0C83A23
:1035D00009F445C0C93A09F445C0CA3A09F445C0DE
:1035E000CB3A09F445C0CC3A09F445C0CB3B09F4C9
:1035F00045C0CC3B09F445C0CD3A09F445C0C03BB9
:1036000009F445C0CE3A09F445C0CF3A09F445C0A3
:10361000C13B09F445C0C23B09F445C0C33B09F4B2
:1036200045C0C43B09F445C0C53B09F445C0C63B91
:1036300009F445C0C73B09F445C0C83B09F445C07F
:10364000C93B09F445C0CD3B09F445C0CE3B09F464
:1036500045C0CA3B09F445C080E090E044C082EE1A
:1036600090E041C089EE90E03EC08AEE90E03BC021
:1036700085EB90E038C086EB90E035C083EB90E0BE
:1036800032C084EB90E02FC087EB90E02CC08CEC34
:1036900090E029C08DEC90E026C083E891E023C043
:1036A0008AE891E020C082E991E01DC084E991E0C0
:1036B0001AC081E292E017C083E292E014C084E273
:1036C00092E011C085E292E00EC086E292E00BC06B
:1036D00087E292E008C08FE690E005C080E790E0C6
:1036E00002C08AE292E0CF910C942C19CF910895F8
:1036F000882309F45BC0682F823879F40E94C118CE
:1037000081FF54C069E380913D0190913E010E9488
:10371000CF250E948D2469E310C08338B1F40E9444
:10372000C11880FF43C063E580913D0190913E0147
:103730000E94CF250E948D2463E580913D019091E8
:103740003E010E94D1250C948D24843879F40E9486
:10375000C11882FF2BC067E480913D0190913E012A
:103760000E94CF250E948D2467E4E7CF8CEF860F5F
:10377000813A18F380E2860F883048F4677081E060
:1037800001C0880F6A95EAF70E944524DCCF8BE5DB
:10379000860F833020F480E090E00C941619685A6C
:1037A000673120F480E090E00C942C190895CF93B9
:1037B000C82F0E94561AC93349F42FEF87EE93E0C1
:1037C000215080409040E1F700C000008C2FCF9145
:1037D0000C94781B882321F00E943F240C948D24A4
:1037E0000895882321F00E9445240C948D24089587
:1037F000CF92DF92EF92FF920F931F93CF93DF93BD
:103800007C01062FC72FFC01158112951F70D281F4
:10381000D1110E945F240E943524882379F0DD2392
:1038200069F080E2800F883048F082E00E94D7245F
:103830000E94352491E0D82ED92601C0D12CCC2E5F
:10384000C2948FE0C8228C2D90E0FC01E659FF4F16
:103850000C94F2318C2F807FCF70882311F0C295A9
:10386000C07FDD2399F0CC2309F482C180E2800F70
:10387000883010F0011104C08C2F0E943F2403C037
:103880008C2F0E9452240E948D2472C1802F0E948E
:10389000781BCC2309F491C180E2800F883010F0AE
:1038A000011104C08C2F0E94452403C08C2F0E945C
:1038B00058240E948D2481C18C2F807FCF7080324C
:1038C00011F0C295C07F002319F00130C9F022C069
:1038D000DD2371F0112341F0113031F40E94722484
:1038E0008C2B0E947A2469C10E9472248C2B1DC0EB
:1038F000112319F0113009F460C10E94832425C0FE
:10390000DD2321F0163008F058C10EC0153008F044
:1039100054C11BC0DD2361F0112331F0F701858113
:1039200080FF26C18F7085838C2F0E94EA1B45C1C2
:10393000112359F0093309F02CC1FFEF27EE83E082
:10394000F15020408040E1F722C18C2F0E94F11BF2
:1039500034C18C2F86958695837019F0813061F083
:103960002CC1DD2321F0802F9C2F937002C080E0BA
:1039700090E00E94161929C1DD2321F0802F9C2F91
:10398000937002C080E090E00E942C191EC18C2F21
:10399000837009F045C0D11114C1402F429546955E
:1039A0004770440F440F602F6F70862F90E0A0E0A7
:1039B000B0E0042E04C0880F991FAA1FBB1F0A94F1
:1039C000D2F704FF10C00FE010E020E030E004C0A8
:1039D000000F111F221F331F4A95D2F70095109533
:1039E0002095309503C000E010E09801C695C6957B
:1039F000C370BC01CD01602B712B822B932BC23085
:103A000049F058F4C13019F00E947C22DAC00E94BB
:103A10006A22D7C00E948E22D4C00E946822D1C0E0
:103A2000DD2319F08C2F817001C08695882309F45D
:103A3000C8C0402F429546954770440F440F602FF1
:103A40006F70862F90E0A0E0B0E0042E04C0880FD5
:103A5000991FAA1FBB1F0A94D2F704FF10C00FE0E2
:103A600010E020E030E004C0000F111F221F331FC0
:103A70004A95D2F7009510952095309503C000E047
:103A800010E09801C695C695C370BC01CD01602BAE
:103A9000712B822B932BC23049F058F4C13019F0AE
:103AA0000E9441238EC00E942F238BC00E9453236B
:103AB00088C00E94A22285C0CF70DD2339F08C2FF0
:103AC0000E94C822802F0E94EA1B7BC0802F0E9488
:103AD000F11B8C2F0E94E92274C0023F01F128F4EF
:103AE000003F41F0013FA1F03FC0033FF9F0043F28
:103AF00039F13AC0DD2341F0153008F05EC08C2F5B
:103B00008F710E940E2359C0163008F056C0F7CFAF
:103B1000DD2339F08C2F8F710E94C8224EC0DD2327
:103B2000C9F38C2F8F710E94E92247C0DD2329F051
:103B30008C2F8F710E94B32240C00E94AE223DC0E4
:103B4000DD2349F0CF718C2F0E94C82263E08C2FB7
:103B50000E94C22432C081E00E94D724123068F152
:103B600082E00E94D72429C0DD2331F0112391F295
:103B7000802F0E94561A21C0112399F2093349F46B
:103B80009FEFE7EEF3E09150E040F040E1F700C036
:103B90000000802F0E94781B10C04C2F4F70602FA8
:103BA000C7010E949A0A0E94D9210FC04C2F4F7062
:103BB000602FC7010E949D0A08C088EF8C0D8430D9
:103BC00020F40E94C1180E94EA09DD20C9F00E9479
:103BD000312480FD15C0F70112820E942B240E941F
:103BE000C822C7010E94091E0E942B24DF91CF9199
:103BF0001F910F91FF90EF90DF90CF900C94E922EE
:103C0000DF91CF911F910F91FF90EF90DF90CF90B8
:103C100008950F931F93CF93DF93EC0198818981CF
:103C20002B813C81232B31F08F3F31F481E09F3F8A
:103C300019F403C081E001C080E080FD13C0CE0113
:103C40000E94090A882371F0688179818A810E9423
:103C500008248C010E9465230E945622B801CE01DF
:103C60000E94F81BDF91CF911F910F910895882337
:103C700021F00E9452240C948D240895882321F071
:103C80000E9458240C948D2408950E945F240E9461
:103C90006F240E948D2480E090E00E94161980E03D
:103CA00090E00C942C1980913D0190913E010E946E
:103CB000D3250C94451E0E944C240C94531EE92FCE
:103CC000E295EF704E2F50E0FA013297EE30F10599
:103CD000B0F4E658FF4F0C94F231803F91F018F4A5
:103CE000883E68F40EC0843F51F40BC0883E48F013
:103CF000813F29F406C093FB882780F9089580E06E
:103D0000089581E008950E94FD230E945F1E08959A
:103D1000CF93DF9300D000D01F92CDB7DEB70F90C6
:103D20000F900F900F900F90DF91CF910895CF9348
:103D3000DF9300D000D000D0CDB7DEB726960FB607
:103D4000F894DEBF0FBECDBFDF91CF9108951F93D2
:103D5000CF93DF93C091C60116E08091C701C817C9
:103D600099F0D0E01C9FF0011D9FF00D1124E85345
:103D7000FE4F4081518162817381848195810E94CF
:103D8000971E2196C770E9CFDF91CF911F910895BB
:103D90004091F8015091F9016091FA017091FB0195
:103DA0008091FC019091FD010C94971ECF9380911E
:103DB000FD0182958F7009F05FC08091FA01882320
:103DC00009F45AC08091C601B091C7017091F80101
:103DD000A091F9014091FB015091FC0191E07F3FDE
:103DE00009F090E0692FC6E08B1709F445C0411532
:103DF000510521F0AF3F21F020E003C021E001C0D8
:103E0000262F90E020FD35C0C89FF001C99FF00D1E
:103E10001124E853FE4F21812A132BC02081271340
:103E200028C02281211125C0238134812417350720
:103E300010F421503109241B350B283C3105C8F4FE
:103E40002091FD012F7020612093FD0126E0289F25
:103E5000F001299FF00D1124E353FE4F80818F70F4
:103E60008061808388EF91E00E94091ECF910C94BD
:103E7000A71E01968770B8CFCF910895AF92BF92D9
:103E8000CF92DF92EF92FF920F931F93CF93DF9326
:103E9000CDB7DEB761970FB6F894DEBF0FBECDBFCA
:103EA0008C0185E0F801DE011D9601900D928A9546
:103EB000E1F7D8014C9111965C9111971296EC9014
:103EC0003091F8016091F9018091FB019091FC0122
:103ED000009731F06F3F31F421E03F3F19F403C008
:103EE00021E001C020E0B22FB170BB2E20FD60C1E7
:103EF000F801C380D480A090FA01AA2009F4EEC092
:103F00002091FD01C816D90628F0D601A81BB90BCF
:103F1000CD0104C0809590958C0D9D1DFF24F394D8
:103F2000883C910580F0F12C207F09F09CC07C2D0D
:103F3000D98AC88A6E2D89890E94881E88EF91E0EF
:103F40000E94091E2DC1822F807F09F054C0561394
:103F500014C0431312C0FE2CE1100FC02F7020615B
:103F60002093FD010E94C81E88EF91E00E94091E67
:103F70008091FD01F80185835CC1CD2831F05F3F60
:103F800031F481E04F3F19F403C081E001C080E0CB
:103F900080FD03C081E08E2502C080E090E0F82F14
:103FA000F170FF2E80FF1CC08091C6012091C701D7
:103FB00036E0821709F41AC190E0389FF001399F6A
:103FC000F00D1124E853FE4F6181561306C0608145
:103FD000461303C06281E61203C001968770E9CFE1
:103FE000FE2CEE2009F425C18091FD0181608093B3
:103FF000FD01F12C1EC1561309C0431307C0E11087
:1040000005C08091FD01F8018583A4C04D875E87BE
:104010008D859E850E94831E882379F1EE2069F1AB
:104020002091FD01822F82958F7090E0029774F0AD
:104030008091F8019091F90198878F831986DB862A
:10404000CA862C87CE0107960E94091E86E0F801D9
:10405000A8EFB1E001900D928A95E1F70E94D61E7B
:104060000E94C81E0DC0561771F04D875E878D8562
:104070009E850E94831E81111AC0C8010E94091EDC
:10408000FF24F394D6C04313F0CFE110EECF80911C
:10409000FD01F8018583C8010E94091E86E0E8EF52
:1040A000F1E0DF011D928A95E9F7FA2CC2C0EE20FB
:1040B00021F32091FD01822F82958F7090E002976D
:1040C0002CF28091F8019091F9019A8389831B82E7
:1040D000DD82CC822E83CE010196B6CFC816D906DA
:1040E00028F0F601E81BF90BCF0104C080959095EC
:1040F0008C0D9D1D883C910548F0F12C7C2DD98AB2
:10410000C88A6E2D89890E94881E4AC0FE2CEE2026
:1041100009F4B3CF561333C0431331C02091FD01CE
:1041200020FD24C0822F82958F70482F50E04115CA
:104130005105E1F0D80115962C9315974F30510594
:1041400049F08F5F982F9295907F822F8F70892BE7
:1041500015968C93C8010E94091E86E0F801A8EF0D
:10416000B1E001900D928A95E1F73DC086E0F8013B
:10417000A8EFB1E001900D928A95E1F75AC04D8702
:104180005E878D859E850E94831E81115FCF809101
:10419000FD0181608093FD01C8010E94091E49C094
:1041A000E8EFF1E086E0DF011D928A95E9F71BC098
:1041B000EE2009F462CF4D875E878D859E850E9433
:1041C000831EF82E882309F458CF86E0F801A8EF63
:1041D000B1E001900D928A95E1F788EF91E00E949D
:1041E000501A0E94D61E0E94C81E23C04D875E87AB
:1041F0008D859E850E94FD23292F22952F702230C8
:1042000028F49F7039F0811105C00BC0243028F4C8
:104210009F7049F4805E883020F0C8010E94091E1A
:10422000BF2CFB2C06C0D80115969C91907F91F76E
:10423000F8CF8F2D61960FB6F894DEBF0FBECDBFBD
:10424000DF91CF911F910F91FF90EF90DF90CF9072
:10425000BF90AF9008951F93CF93DF93CDB7DEB794
:104260002C970FB6F894DEBF0FBECDBF4F83588793
:1042700069877A878B879C87CE0107960E943E1FAD
:104280008823D1F09F8188852A853B85232B31F0B7
:104290008F3F31F481E09F3F19F403C081E001C0FA
:1042A00080E080FD47C04F81588569857A858B8580
:1042B0009C850E94971E3EC086E0FE013796DE0177
:1042C000119601900D928A95E1F7FF81E8856A8544
:1042D0007B856115710531F0EF3F31F481E0FF3FDF
:1042E00019F403C081E001C080E080FD23C020916B
:1042F000C70130E0C9010196877099274091C60136
:1043000050E084179507F1F1F983EA837D836C838C
:1043100096E0929FD001939FB00D1124A853BE4FF9
:10432000FE01319601900D929A95E1F78093C701B5
:104330000E94A71E16E08091C6019091C7018917BF
:1043400071F1189FC001112488539E4F0E943E1F97
:10435000882329F1E091C6011E9FF0011124E85342
:10436000FE4F4081518162817381848195810E94D9
:10437000971E8091C60190E00196877099278093DF
:10438000C601D9CF0E945B1E1092C7011092C601D0
:10439000E8EFF1E086E0DF011D928A95E9F72C96BF
:1043A0000FB6F894DEBF0FBECDBFDF91CF911F9146
:1043B0000895EF92FF920F931F93CF93DF938C0199
:1043C000892B09F46CC0F12CEE24E394E8012196CA
:1043D000F8018491843740F4843008F051C0813072
:1043E00081F0823019F15BC0853709F444C0A8F12F
:1043F0009CE7980F903708F052C08F770E94781B87
:1044000041C00E5F1F4FFE01849190E2980F9830DB
:1044100050F48770FE2D01C0FF0F8A95EAF78F2FA9
:104420000E94622414C00E94561A2DC00E5F1F4FB6
:10443000FE01849190E2980F983060F48770FE2D11
:1044400001C0FF0F8A95EAF78F2F0E9468240E940F
:104450008D2419C00E94781B16C00E5F1F4FFE01ED
:10446000C491CC2381F08FE99FE00197F1F700C060
:104470000000C150F6CF0E5F1F4FFE01F49003C045
:104480000E94561A8E018F2D882309F49FCFEFE9E1
:10449000FFE03197F1F700C000008150F5CFDF91C8
:1044A000CF911F910F91FF90EF9008950895089577
:1044B0000C9457220C9458220E945A2260931102A5
:1044C0007093120280931302909314020C94451E71
:1044D0000C945C220F931F93009111021091120211
:1044E0002091130230911402602B712B822B932B9D
:1044F0001F910F910C945C220F931F930091110256
:104500001091120220911302309114026023712342
:10451000822393231F910F910C945C220F931F937E
:104520000091110210911202209113023091140295
:1045300060277127822793271F910F910C945C228B
:104540000C9457220E94A02260930D0270930E02D9
:1045500080930F02909310020C94451E60E070E06F
:10456000CB010C94A2220F931F9341E050E060E036
:1045700070E08A019B0104C0000F111F221F331F2E
:104580008A95D2F7C901B8011F910F910C94A2220C
:104590000F931F9341E050E060E070E004C0440FCF
:1045A000551F661F771F8A95D2F780910D02909153
:1045B0000E02A0910F02B09110028A019B01082BFC
:1045C000192B2A2B3B2BC901B8011F910F910C9479
:1045D000A2220F931F9341E050E060E070E004C01E
:1045E000440F551F661F771F8A95D2F74095509547
:1045F0006095709580910D0290910E02A0910F022E
:10460000B09110028A019B01082319232A233B231E
:10461000C901B8011F910F910C94A2220F931F930F
:1046200041E050E060E070E004C0440F551F661F99
:10463000771F8A95D2F780910D0290910E02A0917A
:104640000F02B09110028A019B01082719272A271F
:104650003B27C901B8011F910F910C94A2220F931F
:104660001F9300910D0210910E0220910F023091C4
:104670001002602B712B822B932B1F910F910C94A6
:10468000A2220F931F9300910D0210910E02209110
:104690000F023091100260237123822393231F9114
:1046A0000F910C94A2220F931F9300910D02109171
:1046B0000E0220910F02309110026027712782278D
:1046C00093271F910F910C94A2220895990F990F8F
:1046D000890FE82FE695E695E695877051E001C0D1
:1046E000550F8A95EAF785E0E89FF0011124E25022
:1046F000FE4F20E030E070E04081CB01022E02C08E
:10470000969587950A94E2F7817081958427852391
:10471000842781932F5F3F4F2530310569F7089536
:10472000990F990F890F682F669566956695982F52
:10473000977085E0689FB001112440E050E080E070
:10474000FB01E40FF51FE250FE4F208130E0092EFF
:1047500002C0369527950A94E2F721703327042E7C
:1047600001C0220F0A94EAF7822B4F5F5F4F45305A
:10477000510531F70895BF92CF92DF92EF92FF92E9
:104780000F931F93CF93DF938C01C0900D02D090B5
:104790000E02E0900F02F0901002809111029091B1
:1047A0001202A0911302B0911402C82AD92AEA2A4F
:1047B000FB2ACFE1D0E0D701C6010C2E04C0B6958C
:1047C000A795979587950A94D2F780FD04C0219705
:1047D00090F7B12C07C0BC2EB8018C2F0E94BA0AEA
:1047E0000197A9F38B2DDF91CF911F910F91FF902E
:1047F000EF90DF90CF90BF900895CF93DF93EC01BF
:104800000E94BB23BE010E94BA0ADF91CF91089596
:104810001F93CF93DF93EB019091C501992321F072
:10482000CB010E94FD2313C0882349F0CB010E94D5
:10483000BB23182F682FCE010E94662304C0CB0132
:104840000E949023182FBE01812F0E94BA0ADF9187
:10485000CF911F9108958091150285958595859535
:1048600008958091150287700895909115029770B0
:1048700081E009F480E008958091210208959091EB
:104880002102892B80932102089580959091210225
:104890008923809321020895109221020895809126
:1048A0002002089590912002892B80932002089580
:1048B0008095909120028923809320020895109280
:1048C0002002089590911F02892B80931F02089562
:1048D000809590911F02892380931F020895109262
:1048E0001F02089580911602089508950C9475246E
:1048F0000C94762490911602981721F0809316025A
:104900000C947824089580911602882329F010923F
:10491000160280E00C9478240895E0913D01F09116
:104920003E01809121028083E0913D01F0913E01A2
:10493000908180912002892B8083E0913D01F0914C
:104940003E01908180911F02892B80838091160205
:10495000882381F0E0913D01F0913E019081892B07
:10496000808380913D0190913E010E949C258111A0
:104970000E94832480913D0190913E010C94CD18BA
:104980000C94752498E0899F90011124262B209384
:1049900015020E94C82280911502859585958595FE
:1049A0000C94C0241092150280E00C94C024209135
:1049B00015028095822380931502982F977079F4C1
:1049C00030E0482F082E000C550B2417350739F01E
:1049D0008595859585950E94E9220C94D2240895A9
:1049E00090938F0180938E01089580E090E00E9463
:1049F000133221E08C3E9E4F09F020E0822F089573
:104A000082E090E00C94053283E090E00C94053253
:104A1000CF9384E090E00E940532C82F81E290E0BD
:104A20000E9405322C2F30E0A901582BCA01CF91EA
:104A30000895CF93C92F682F84E090E00E94193227
:104A40006C2F81E290E0CF910C941932AB01BC0144
:104A50008FE090E00C942B32AB01BC0183E190E03D
:104A60000C942B3260E070E0CB010C942C2560E0BC
:104A700070E0CB010E9426250C9432256CEE7EEF6F
:104A800080E090E00E94373260E082E090E00E9497
:104A9000193260E083E090E00E9419321092110216
:104AA00010921202109213021092140260E084E03D
:104AB00090E00E94193260E081E290E00E94193299
:104AC00060E085E090E00E94193260E086E090E0CE
:104AD0000E9419326FEF87E090E00E94193240E0A7
:104AE00050E0BA0188E090E00E942B3260E08DE057
:104AF00090E00E94193240E050E0BA0188E190E075
:104B00000E942B3260E087E190E00E94193240E081
:104B100050E0BA018CE190E00E942B3260E080E22C
:104B200090E00E9419320C9437250C943E25682F92
:104B30008EE090E00C941932FC01329697E080E010
:104B4000915029F021912223D9F38F5FF9CF089555
:104B50009C01FC0132969FEF80E04191461789F05D
:104B60009F3F19F4411101C0982F8F5F8630A9F73C
:104B70009F3F39F0F901E90FF11D97FDFA95628326
:104B8000089508959C012A5F3F4FFC01428146131E
:104B900001C01282019682179307B9F708950C9409
:104BA000A8250C94C225029626E0FC0111922A95B4
:104BB000E9F7089508950C94DA250C94DA25CF933B
:104BC0000E94DD250E9427080E94DB25C0E08C2F73
:104BD0000E94D107811104C0CF5FC530C1F701C069
:104BE00081E0CF9108950C94DA250C94F3250E946E
:104BF000F52580916502843009F439C010922302B2
:104C000020E488E190E00FB6F894A89580936000C6
:104C10000FBE2093600080E00E94EA090E948E117E
:104C20008091240281110AC081E080932402809146
:104C300035028170809325020E94FC120E94F525A6
:104C400083B7817F846083BF83B7816083BF78949B
:104C5000889583B78E7F83BF0FB6F894A89580910F
:104C60006000886180936000109260000FBE08951C
:104C70000C94DA250E945B1E0E94C1180E94EA096A
:104C8000109224028091250281110E9497120E94A5
:104C90006C110C9438261F920F920FB60F921124AC
:104CA0008F939F93AF93BF9380912302811113C081
:104CB00080915B0290915C02A0915D02B0915E02D6
:104CC0004196A11DB11D80935B0290935C02A0935D
:104CD0005D02B0935E02BF91AF919F918F910F9053
:104CE0000FBE0F901F90189582E084BD93E095BD94
:104CF0009AEF97BD80936E0008952FB7F894809136
:104D00005B0290915C02A0915D02B0915E022FBFA8
:104D100008952FB7F89460915B0270915C028091C6
:104D20005D0290915E022FBF0895CF92DF92EF92C5
:104D3000FF920F931F932FB7F89440915B0250910D
:104D40005C0260915D0270915E022FBF6A017B017F
:104D5000EE24FF248C0120E030E0C016D106E206EC
:104D6000F30610F4415051099A01281B390BC9016F
:104D70001F910F91FF90EF90DF90CF90089578945E
:104D80001F920F920FB60F9211248F939F93AF93A0
:104D9000BF9380915B0290915C02A0915D02B09103
:104DA0005E020196A11DB11D80935B0290935C028F
:104DB000A0935D02B0935E02BF91AF919F918F91DE
:104DC0000F900FBE0F901F90189587E797E790936D
:104DD0000108809300089AE088E10FB6F894A8953E
:104DE000809360000FBE90936000FFCF0E94F52477
:104DF000811102C00E9495250E9400258093220205
:104E00000E9408259093600280935F020E9404250F
:104E1000682F70E080E090E00C946822CF93C82F58
:104E20001F928F938BE097E09F938F930E94C80708
:104E300081E090E0A0E0B0E0BC01CD0104C0660FCD
:104E4000771F881F991FCA95D2F70E9468220F907A
:104E50000F900F900F90CF910C945B1ECF93DF9328
:104E60008B3109F4F9C108F08FC18B3009F4B2C15C
:104E700008F065C1863009F4B0C120F4853009F42A
:104E8000BEC16CC2873009F4CCC1883009F066C25B
:104E900087E49CE00E942F0788E99BE00E942F078F
:104EA0000E9404251F928F9385E99BE09F938F9327
:104EB0000E94C80783E99BE00E942F070E940025FB
:104EC000C82F80E89BE00E942F071F92CF938BE7AB
:104ED0009BE09F938F930E94C80789E79BE00E9405
:104EE0002F078FE69BE00E942F078C2F81701F9267
:104EF0008F938CE69BE09F938F930E94C8078AE66E
:104F00009BE00E942F0780E69BE00E942F07C1FBD9
:104F1000882780F91F928F938DE59BE09F938F9355
:104F20000E94C8078BE59BE00E942F078FE49BE05F
:104F30000E942F07C2FB882780F91F928F938CE471
:104F40009BE09F938F930E94C8078AE49BE00E9496
:104F50002F0781E49BE00E942F07C3FBCC27C0F9F9
:104F60001F92CF938EE39BE09F938F930E94C8077D
:104F70008CE39BE00E942F070E940825EC0188E249
:104F80009BE00E942F07DF93CF9383E29BE09F93E8
:104F90008F930E94C80781E29BE00E942F0788E060
:104FA0009BE00E942F078C2F81701F928F9385E0CA
:104FB0009BE09F938F930E94C8078DB79EB7809602
:104FC0000FB6F8949EBF0FBE8DBF83E09BE00E949A
:104FD0002F078CEE9AE00E942F07C1FB882780F9EB
:104FE0001F928F9389EE9AE09F938F930E94C80738
:104FF00087EE9AE00E942F0785ED9AE00E942F0726
:105000008D2F81701F928F9382ED9AE09F938F93E3
:105010000E94C80780ED9AE00E942F078EEB9AE06D
:105020000E942F07D695D1701F92DF938BEB9AE0E9
:105030009F938F930E94C80789EB9AE00E942F07E5
:1050400087EA9AE00E942F07C2FB882780F91F9207
:105050008F9384EA9AE09F938F930E94C80782EA15
:105060009AE00E942F0780E99AE00E942F07C3FB75
:10507000882780F91F928F938DE89AE09F938F93F2
:105080000E94C8078BE89AE00E942F0781E89AE007
:105090000E942F07C4FB882780F91F928F938EE709
:1050A0009AE09F938F930E94C8078CE79AE00E9432
:1050B0002F078AE69AE00E942F07C5FB882780F910
:1050C0001F928F9387E69AE09F938F930E94C80761
:1050D00085E69AE00E942F0789E49AE00E942F0754
:1050E000C6FB882780F91F928F9386E49AE09F93EE
:1050F0008F930E94C8078DB79EB780960FB6F8941D
:105100009EBF0FBE8DBF84E49AE00E942F078CE300
:105110009AE00E942F07C7FBCC27C0F91F92CF93BC
:1051200089E39AE09F938F930E94C80787E39AE0F0
:105130000E942F070F900F900F900F9049C0803161
:1051400009F4B4C020F48E3009F49AC007C1863146
:1051500009F4C7C0893109F001C18AE698E00E94CC
:105160002F078FE398E00E942F0785E098E00E94C8
:105170002F0781ED97E00E942F0784EA97E00E94B5
:105180002F0789E797E08FC08A32E1F060F4873219
:1051900009F4E0C028F48E3108F4E0C08D51DBC082
:1051A000893269F1DBC0833448F48A3308F0D0C017
:1051B000853309F4CFC0883369F0D0C0833409F453
:1051C000C9C0CCC086E39CE00E942F070E949525B1
:1051D000C1E0C9C084E998E066C080912202817F65
:1051E0008E7F8093220289E798E00E942F0782E356
:1051F0009CE00E942F0781E080932602E9CF0E9465
:105200005B1E86E19CE00E942F079FEF23ED80E369
:10521000915020408040E1F700C000000E94E52648
:10522000D7CF80912202C82FC095C170C0FB80F9F2
:1052300080932202CC2329F08AE09CE00E942F0771
:1052400092C08DEF9BE00E942F0780912202897F00
:10525000877F80932202BCCF9091220291FBCC27C2
:10526000C0F981E0C827892FC0FB81F98093220211
:10527000CC2319F080EF9BE029C082EE9BE013C0A5
:105280009091220292FBCC27C0F981E0C827892F98
:10529000C0FB82F980932202CC2319F083ED9BE0BE
:1052A00015C083EC9BE00E942F0792CF90912202C1
:1052B00093FBCC27C0F981E0C827892FC0FB83F975
:1052C00080932202CC2351F087EB9BE00E942F07B2
:1052D0008091220281608093220245C08AEA9BE08D
:1052E000E2CF8BE697E00E942F070E94C1181F9221
:1052F0008F9381E597E09F938F930E94C8078091D9
:1053000049011F928F938AE397E09F938F930E94A6
:10531000C807809133021F928F9387E297E09F9393
:105320008F930E94C8070E9489269F938F937F9333
:105330006F9380E197E09F938F930E94C8078DB78A
:105340009EB742960FB6F8949EBF0FBE8DBF40CF5A
:10535000895301C080E00E940E273ACF88EA9BE083
:105360000E942F07C0E08C2FDF91CF91089580E03D
:1053700008950C94B729CF93C82F809126028823D3
:1053800019F0813031F038C00E943C248232B1F5EE
:1053900004C00E943C24823261F48C2F0E94B929FF
:1053A000811104C08C2F0E942E2724C081E090E040
:1053B00021C08C2F0E94B72981111BC0C43189F0F4
:1053C00018F4CB3029F010C0C93259F0C83361F459
:1053D00089E798E00E942F0787E097E00E942F0757
:1053E00008C0109226020CC085E097E00E942F07AB
:1053F00007C081E0817006C01092260280E002C0E2
:1054000080E0F8CFCF9108958091320208950895F9
:105410009FB7F894109229029FBF90916502943033
:1054200009F057C09091E9009F703091EC00232F54
:10543000217030FD20E8922B23E02093E900209199
:10544000EB0020FF43C02091EE0027FF3FC02091DA
:105450002702222321F02091E80025FF37C0109277
:10546000270226E03091E80035FD15C03091650235
:10547000343061F53091EB0035FD28C0215021F426
:1054800081E08093270222C0EFE9FFE03197F1F736
:1054900000C00000E7CF8093F1008091E80085FD17
:1054A0000AC08091E80080FFFCCF8091E8008E77F1
:1054B0008093E80006C08FB7F89421E0209329027A
:1054C0008FBF9F709093E90080E008959F70909344
:1054D000E9008FEF08950F931F93CF93DF9300D0D0
:1054E0001F92CDB7DEB78C010E94F62C823011F0EE
:1054F000843021F584E089831B830A8382E08093D2
:10550000E9008FEF9091E800815095FD06C095ED80
:105510009A95F1F700008111F5CF8091E80085FFA1
:105520000DC040E050E063E070E0CE0101960E94C3
:10553000132D8091E8008E778093E8000F900F90F4
:105540000F90DF91CF911F910F910895CF93DF932B
:1055500000D01F92CDB7DEB720916502243031F51F
:1055600023E02983805891099B838A8382E080937A
:10557000E9008FEF9091E800815095FD06C095ED10
:105580009A95F1F700008111F5CF8091E80085FF31
:105590000DC040E050E063E070E0CE0101960E9453
:1055A000132D8091E8008E778093E8000F900F9084
:1055B0000F90DF91CF910895CF93DF93EC010E947C
:1055C000F62C823011F0843039F581E08093E900C7
:1055D0008FEF9091E800815095FD06C095ED9A956A
:1055E000F1F700008111F5CF8091E80085FF14C02C
:1055F00040E050E068E070E0CE010E94132D809101
:10560000E8008E778093E80088E0FE01AAE2B2E02D
:1056100001900D928A95E1F7DF91CF91089587E788
:105620009CE00E942F0780916402811109C00E94B2
:10563000A42E0E94012F8091E20084608093E200FA
:10564000089583E79CE00E942F071092640208955A
:105650008FE69CE00C942F078BE69CE00C942F07C0
:1056600087E69CE00E942F070C943A26209128029E
:105670002F5F822F62E30E94B031992319F02093AB
:10568000280208951092280280912902882371F13E
:1056900080916502843041F58091E9008F702091FE
:1056A000EC00922F917020FD90E8892B93E090936D
:1056B000E9009091EB0090FF14C09091EE0097FFED
:1056C00010C09091E80095FF03C01092F100F9CF4F
:1056D0009091E80090FF05C09091E8009E7790932C
:1056E000E8008F708093E90010922902089542E04B
:1056F00061EC81E00E941D2E42E261EC82E00E949A
:105700001D2E42E261EC83E00C941D2E8091670215
:10571000833009F460C030F4813071F0823009F4D4
:1057200099C008958A3009F485C08B3009F46BC0A4
:10573000893009F0A7C020C080916602813A09F043
:10574000A1C08091E800877F8093E80080916A0281
:1057500090916B02892B21F468E08AE292E003C009
:1057600060E080E090E070E00E945E2D8091E800B3
:105770008B778093E800089580916602813209F06A
:1057800081C080916A0290916B02029708F07AC002
:105790008091E800877F8093E8008091E80082FD97
:1057A00005C0809165028111F8CF6CC02091F30093
:1057B0008091F20090E0922B029729F48091F10001
:1057C0008B7F813021F48091F100809332028091AF
:1057D000E8008B7753C080916602813A09F052C08D
:1057E00080916A0290916B02892B09F04BC08091E5
:1057F000E800877F8093E8008091E80080FFFCCF7D
:105800008091490136C0809166028132D9F580913C
:105810006A0290916B02892BA9F58091E800877F3D
:105820008093E8000E94522E809168028093490183
:105830000C945B1E80916602813221F58091E80014
:10584000877F8093E8000E94522E809169028093A6
:105850003302089580916602813AA1F48091E800B4
:10586000877F8093E8008091E80080FFFCCF8091E3
:1058700033028093F1008091E8008E778093E800F6
:105880000C94522E089584B7877F84BF0FB6F89486
:10589000A8958091600088618093600010926000FC
:1058A0000FBE90E080E80FB6F8948093610090936B
:1058B00061000FBE0E9452190E94A42E0E94012F67
:1058C0008091E20084608093E20088E09AE20E9486
:1058D000F02478940E9495310E945A198FE391E048
:1058E0000E94BC1886E59CE00E942F07809165020B
:1058F000853089F482E59CE00E942F070E94F725FD
:1059000080916302882391F30E94DF25882371F33D
:105910000E94FD2CEBCF0E948C190E941E13E6CF33
:105920000C94922C292F332723303105C9F060F4D1
:105930002130310581F02230310509F047C08BE577
:1059400090E02FEA3CE046C02132310511F12232CD
:10595000310561F13BC082E190E02AE03DE03AC0D0
:1059600099278130910561F040F08230910559F01E
:10597000039761F5EBE7FCE008C0EBEAFCE005C04B
:10598000EFE8FCE002C0E1E8FCE0849190E09F01D8
:1059900021C063307105D0F4660F771FFB01E85713
:1059A000FE4F2081318189E090E014C063307105A1
:1059B00068F4FB01EE0FFF1FEE57FE4F208131818F
:1059C000FB01E158FE4F808190E004C080E090E050
:1059D00020E030E0FA013183208308958091650250
:1059E000843011F081E0089582E0089580913402BE
:1059F000811102C00C94EE2C089580E189BD82E1F2
:105A000089BD09B400FEFDCF8091D8008F7D8093C1
:105A1000D8008091E00082608093E0008091E000F7
:105A200081FDFCCF0895CF92DF92EF92FF920F930A
:105A30001F93CF93DF93EC018B017A010E94712EAB
:105A4000811133C0E114F10439F0F70180819181B3
:105A5000081B190BC80FD91FC12CD12C011511051A
:105A600019F18091E80085FD16C08091E8008E77DD
:105A70008093E800E114F10449F0F70180819181FD
:105A8000C80ED91ED182C08285E00FC00E94712E3F
:105A9000882321F30AC089918093F10001501109F4
:105AA000FFEFCF1ADF0ADACF80E0DF91CF911F91AD
:105AB0000F91FF90EF90DF90CF90089520916C02AE
:105AC00030916D022617370748F06115710539F4DA
:105AD0002091E8002E772093E80001C0B901FC0175
