:100000000C94E8020C942F030C942F030C942F03F0
:100010000C942F030C942F030C942F030C942F0398
:100020000C942F030C942F030C948F260C946127AF
:100030000C94F5200C942F030C942F030C942F0395
:100040000C942F030C942F030C942F030C942F0368
:100050000C942F030C944E210C942F030C942F031B
:100060000C942F030C942F030C942F030C942F0348
:100070000C942F030C942F030C942F030C942F0338
:100080000C942F030C942F030C942F030C942F0328
:100090000C942F030C942F030C942F030C942F0318
:1000A0000C942F030C942F030C942F03720D750DD9
:1000B0007A0D810D860D8B0D900D950D9A0D9F0D6E
:1000C000A40DA90DAD0DB00DB30DB60DB90DC00D3C
:1000D000C00DC00DF10FF40F141025102D103810A5
:1000E0003B103E10411087108A10441047104C10EE
:1000F0005910661069106D107A10D216D2160417B6
:10010000041751178518851885186F1704181518C6
:1001100015187518851885187E1821192119331995
:1001200033192A19331933193319211921192F19A0
:10013000331933192F19CE27F527ED28F527ED2888
:1001400041286428ED28BB28CA2824002500260061
:10015000550021002200230056001E001F00200031
:1001600057000151270063005800A800AE000000AE
:1001700000000100C35CC45CC25CCA5CC95CC65CB4
:10018000C55CC85CC75C0100010001000100005CA7
:100190000100010001000000000001000100010059
:1001A0000100010001000100010001000100010047
:1001B0000100010001000100010001000100000038
:1001C0000000010001000100010001000100010028
:1001D0000100010001000100010001000100010017
:1001E000010001000100000000000000000000000C
:1001F00000002A2B28000000000000000000000082
:10020000000000000029000000002C1E34202122E4
:1002100024342627252E362D3738271E1F2021224D
:10022000232425263333362E37381F0405060708C6
:10023000090A0B0C0D0E0F101112131415161718B6
:10024000191A1B1C1D2F3130232D350405060708F4
:10025000090A0B0C0D0E0F10111213141516171896
:10026000191A1B1C1D2F3130354C000000000000F6
:1002700000000000000000000000000000007E0FF1
:1002800000D4FFFFFFC7000000787F3F1F643214D7
:10029000643214783C1E1E140A05222325262829C0
:1002A0002A2C2D2F3032333536383A3B3D3E4042F2
:1002B000434547494A4C4E5051535557595A5C5E35
:1002C0006062646668696B6D6F71737577797B7D49
:1002D0007F81838587898A8C8E90929496989A9C48
:1002E0009E9FA1A3A5A7A8AAACAEAFB1B3B4B6B860
:1002F000B9BBBCBEBFC1C2C3C5C6C7C9CACBCCCDC2
:10030000CED0D1D2D2D3D4D5D6D7D7D8D9D9DADA9C
:10031000DBDBDBDCDCDCDCDCDDDDDDDDDCDCDCDC1C
:10032000DCDBDBDBDADAD9D9D8D7D7D6D5D4D3D250
:10033000D2D1D0CECDCCCBCAC9C7C6C5C3C2C1BF2E
:10034000BEBCBBB9B8B6B4B3B1AFAEACAAA8A7A592
:10035000A3A19F9E9C9A98969492908E8C8A89874E
:100360008583817F7D7B79777573716F6D6B69682C
:10037000666462605E5C5A5957555351504E4C4A00
:100380004947454342403E3D3B3A383635333230AB
:100390002F2D2C2A292826252322000101010101C5
:1003A000010101010202020202020202020303032E
:1003B00003030303030404040404040405050505FE
:1003C00005060606060607070707070808080809BE
:1003D0000909090A0A0A0B0B0B0C0C0C0D0D0D0E6A
:1003E0000E0E0F0F0F1010111111121213131414FF
:1003F000151516161717181819191A1A1B1B1C1D74
:100400001D1E1E1F202021222223242425262627CC
:100410002829292A2B2C2D2D2E2F303132323334FE
:1004200035363738393A3B3C3D3E3F404142434404
:1004300045464748494A4C4D4E4F505153545556E6
:1004400058595A5B5D5E5F616264656668696B6C92
:100450006D6F7072737577787A7B7D7E808283850D
:1004600087888A8C8E8F91939596989A9C9EA0A24D
:10047000A3A5A7A9ABADAFB1B3B5B7BABCBEC0C257
:10048000C4C6C9CBCDCFD1D4D6D8DBDDDFE2E4E71B
:10049000E9EBEEF0F3F5F8FAFDFF0403300000009D
:1004A0000C034800750062003100360000001A039A
:1004B0004A006F007300680020004A006F00680067
:1004C0006E0073006F006E0000000403090409024F
:1004D0005B00030100A0FA09040000010301010010
:1004E0000921110100012240000705810308000ACB
:1004F000090401000203000000092111010001228A
:1005000022000705820320000107050303200001E4
:100510000904020001030000000921110100012269
:1005200032000705840320000A12011001000000B8
:10053000086A6A10480100010203010660FF0961B0
:10054000A1010962150026FF0095207508810209A6
:1005500063150026FF00952075089102C00501096A
:1005600080A101850319012AB700150126B700955E
:100570000175108100C0050C0901A1018504190154
:100580002AA002150126A002950175108100C00560
:10059000010906A101050719E029E71500250195C4
:1005A0000875018102950175088101050719002967
:1005B000FF150026FF009506750881000508190142
:1005C0002905950575019102950175039101C000FA
:1005D00011241FBECFEFDAE0DEBFCDBF04B603FEAD
:1005E00027C080918F0290919002A0919102B091CA
:1005F00092028730904BA740B04BD1F410928F02FB
:1006000010929002109291021092920214BE84B73E
:10061000877F84BF0FB6F894A895809160008861A9
:1006200080936000109260000FBEE0E0F8E309954F
:1006300011E0A0E0B1E0EEE8F3E502C005900D9214
:10064000AC3BB107D9F722E0ACEBB1E001C01D92A1
:10065000AF38B207E1F70E9445230C94C5290C94EA
:100660000000E82FF0E0E454FE4F80810895CF931E
:10067000DF93A9E1B1E04EE151E061E070E08D91DE
:10068000E82FE295EF70F0E021A18F70EB0102C03E
:10069000CC0FDD1F8A95E2F7CE019C2F9095922317
:1006A00091A392A1892B82A34A175B0741F7A5E189
:1006B000B1E049E151E061E070E08D91E82FE29511
:1006C000EF70F0E021A18F70EB0102C0CC0FDD1FB5
:1006D0008A95E2F7CE019C2F9095922391A392A147
:1006E000892B82A34A175B0741F7E1ECF1E0ACEB01
:1006F000B1E086EC91E011921D928E179F07D9F719
:1007000085E00E942708DF91CF910C94BD05879862
:100710008F9857985F98089508950895FC01E60F03
:10072000F11D308110829FB1892F881F8827881F73
:10073000808329B1922F991F9927991F990F982B80
:10074000908381E0391301C080E008955F926F9239
:100750007F928F929F92AF92BF92CF92DF92EF9251
:10076000FF920F931F93CF93DF9369E171E0A1ECA8
:10077000B1E026ECA22E21E0B22E612C01E010E0C7
:100780006D015C901C92EB018991BE01E82FE2950E
:10079000EF70F0E021A18F70A80102C0440F551F37
:1007A0008A95E2F7CA01242B21A322A1942E9094CA
:1007B000292122A350EA5A95F1F795E1E92E91E01B
:1007C000F92E40E050E0E70189907E01282D229526
:1007D0002F7030E0E90128A17C9030E0D82DDF7047
:1007E00002C035952795DA95E2F720FD08C0302F35
:1007F000042E01C0330F0A94EAF7232F01C020E032
:1008000027292C934F5F5F4F44305105E1F691A1AA
:10081000992291A292A1892B82A3119681E0F601DF
:100820009081951101C080E0682AAA16BB0609F0E4
:10083000A7CF262D45E06CEB71E081EC91E00E94A2
:10084000280864E08CEB91E00E948E03C62DC82B33
:100850000E94C7058C2FDF91CF911F910F91FF90C0
:10086000EF90DF90CF90BF90AF909F908F907F9050
:100870006F905F900895811106C0662311F08AEA97
:1008800009C089EA07C0813039F4662311F08CEA87
:1008900001C08BEA0C947B16089581E0089581E0F5
:1008A00008950C944F0408950C9453041F93CF9310
:1008B000DF9300D000D01F92CDB7DEB749835A83B3
:1008C0006B833091EA0189819A81311114C06623CA
:1008D00059F0222349F00E94581E182F682F898151
:1008E0009A810E94031E03C00E942D1E182F698149
:1008F0007A81812F04C00E94581E69817A810F90ED
:100900000F900F900F900F90DF91CF911F910C944B
:100910006911FC01262F408151816281738184819C
:100920000C945604CF93DF93EC0160E00E9489049D
:10093000BE01DF91CF910C945404FF920F931F934B
:10094000CF93DF93E82FF0E0E651FE4FF490C82FED
:10095000C695C695C695D0E0FE01E658FD4F0491B8
:10096000877010E0082E02C0159507950A94E2F7EB
:1009700001701127FE01E659FD4FC491D0E002C07D
:10098000D595C7958A95E2F7C170DD270115110548
:1009900019F081EE0E947A15209719F086EE0E94D8
:1009A0007A158F2D0E947B16CD2B19F086EE0E94B2
:1009B0001C16012B41F081EEDF91CF911F910F9119
:1009C000FF900C941C16DF91CF911F910F91FF9017
:1009D0000895EF92FF920F931F93CF93DF93EC0153
:1009E000162F0AE08881882309F457C0813009F066
:1009F00045C08981813051F47E0182E0E80EF11C0E
:100A0000CA818C2F0E947A158C2F12C0823049F433
:100A10007E01E2E0EE0EF11C8A810E947A15E70168
:100A20002FC0833041F47E01F2E0EF0EF11C8A8189
:100A30000E941C16F4CF843011F0219621C02A8127
:100A4000229680E090E030E0205331092A303105D1
:100A500058F4089FA001099F500D1124C901840F6B
:100A6000951F21962881EFCF009751F0EFE9FFE025
:100A70003197F1F700C000000197F6CF0E949D0466
:100A80002196812F882309F4ADCFEFE9FFE031975C
:100A9000F1F700C000008150F5CFDF91CF911F9199
:100AA0000F91FF90EF90089560E00C94E9048F920D
:100AB0009F92AF92BF92CF92DF92EF92FF920F93ED
:100AC0001F936B017C0181E090E0A0E0B0E04C015D
:100AD0005D0104C0880C991CAA1CBB1C4A95D2F766
:100AE000AC01BD0104C0440F551F661F771F2A9536
:100AF000D2F7482959296A297B2904C0880F991FF0
:100B0000AA1FBB1F0A95D2F78A019B010C211D2148
:100B10002E213F21401751076207730739F4BC01AA
:100B2000CD016C297D298E299F290AC08095909539
:100B3000A095B095BC01CD016C217D218E219F2116
:100B40001F910F91FF90EF90DF90CF90BF90AF90EB
:100B50009F908F9008950F93382F262F6091320227
:100B6000709133028091340290913502042F432F0B
:100B70000E9457050F910C943F1D0E9487210E94EF
:100B8000901F811102C00E9430200C9487030C94A6
:100B90008C0308950C94C90581E008950C94CC054C
:100BA000CF93C82F0E94CA058C2F0E94CE05CF91EB
:100BB000089508950E940F190E94D9052FEF84E32C
:100BC0009CE0215080409040E1F700C000000C9470
:100BD00074210F931F93CF93DF93EC0161E00E9488
:100BE00089048C01BE010E94490F8823A9F1BE012E
:100BF000C8010E945104882379F1BE01C8010E94F6
:100C00009F12882349F1BE01C8010E94E012882387
:100C100019F1BE01C8010E940B148823E9F0BE013E
:100C2000C8010E945B0D8823B9F08A81882369F08E
:100C300001158CE5180731F00E3D1C4531F40E947A
:100C400030200AC00E94DA0507C0CE01DF91CF91A3
:100C50001F910F910C944D0480E0DF91CF911F9173
:100C60000F91089580E090E008950895880F991FEE
:100C7000FC01E657FD4F859194910895CF93DF9342
:100C80000E9469110E945007EC018115904508F0FF
:100C900043C0C11580E4D80708F0CBC0C03ED105E1
:100CA00028F5C03CD10508F0B3C0C83AD10578F4A6
:100CB000C53AD10508F0A4C0C130D10509F4ECC093
:100CC00008F4E8C0C430D10508F0E6C0E3C0CF3B6B
:100CD000D10508F0DFC0C85AD0E0CC0FDD1FC25EDE
:100CE000DE4F0990D881C02DD464D6C0C11590E2E2
:100CF000D90750F4C11521E0D20708F0CDC0C83E95
:100D0000D10508F4C9C0C6C0C11580E3D80708F0F2
:100D100086C0CE019F707FC0C11595E5D90708F048
:100D200043C0C11524E5D20708F09AC0C11582E579
:100D3000D80708F5C11591E5D90708F07DC0CE01A7
:100D400074E0969587957A95E1F783709C2F937060
:100D500021E030E002C0220F331F9A95E2F73C6891
:100D6000382BCF70C695C69580E2C89FE00111244C
:100D7000C22BD32B91C09E01237033278C2F8695D5
:100D80008695C115D34508F05CC0C1E0D0E002C033
:100D9000CC0FDD1F2A95E2F720E2829FC0011124CB
:100DA000C82BD92BDC6878C0C11529E5D207A0F47F
:100DB000C11588E5D80708F058C0C11596E5D907D0
:100DC00008F068C08C2F0E94E4078F71C82FD0E014
:100DD000DC2FCC27D06260C0C1152AE5D20708F409
:100DE00049C0CE0190568115904208F053C08D2F16
:100DF0008F710E94E407DD27D0628F71D82B4CC021
:100E0000C55AD0E0C45BDE4FC881D0E0D06444C096
:100E1000CE01805C91090E943606EC013DC0CE01F6
:100E20009927D3FF03C0EC01D86C36C0EC01D06C1D
:100E300033C0DF70D06A30C0DC2FCC27C16FD06ADE
:100E40002BC0C1E0D0E002C0CC0FDD1F2A95E2F735
:100E500020E2829FC0011124C82BD92BDA681CC064
:100E6000DC2FCC27C46FD06A17C0DC2FCC27C06F13
:100E7000D06A12C08C2F8F700E94E40794E0D69540
:100E8000C7959A95E1F7CF70D0E0DC2FCC27D069D9
:100E9000C82B02C0C0E0D0E0CE01DF91CF91089511
:100EA0008238910569F1B0F48133910509F46DC080
:100EB00048F48932910509F463C08A32910509F436
:100EC00069C008958533910509F455C089339105AA
:100ED000B9F00895833E910569F138F4803E91059B
:100EE000B1F0823E910509F10895863E9105A9F180
:100EF000873E9105B9F1843E910509F064C023C095
:100F00002091800220FD4FC021FD4DC008958091A9
:100F1000800280FD44C08091810280FF44C08091A6
:100F2000800284FD42C083EE4DC08091800282FF2A
:100F300038C0F5CF8091800282FD33C0809181025C
:100F400080FD31C0ECCF8091810281FF32C0809161
:100F5000800284FD2AC087EE35C08091800283FF25
:100F600026C0F5CF8091800283FD21C0809181024F
:100F700081FD1FC0ECCF8091800285FD1CC01DC08B
:100F80008091800285FD19C016C08091800286FD87
:100F900016C017C08091800286FD13C010C089E37F
:100FA00011C082EE0FC080EE0DC080E00BC086EE57
:100FB00009C084EE07C089E205C085E303C08AE268
:100FC00001C081E390E008959091800292FF0DC0EE
:100FD000282F2871283019F4877F846006C0282FB5
:100FE0002471243011F48B7F886093FF0DC0282F6B
:100FF0002871283119F4877E846106C0282F247156
:10100000243111F48B7E88612091810220FF0DC074
:10101000382F3871383019F4877F816006C0382F37
:101020003171313011F48E7F886021FF0DC0282F7F
:101030002871283119F4877E816106C0282F21711B
:10104000213111F48E7E886194FD877E0895089584
:10105000FF920F931F93CF93DF938C01F62ED72F20
:10106000C42F222349F081E08093C8010E942721E8
:101070009093C7018093C6018091C8018823C1F075
:101080008091C6019091C7010E943F21459780F051
:10109000EF2DFD2FD8014C2F50E0CD01801B910B7F
:1010A000841795071CF48D918193F7CF1092C80196
:1010B000DF91CF911F910F91FF900895EF92FF92D2
:1010C0000F931F93CF93DF93F62E472FE82FF0E077
:1010D000711106C0E656FC4F6491762F862F72C0C0
:1010E000272F30E0E656FC4FE4910E2F10E056E03B
:1010F000659FC0011124CFEFD0E0BE010E942F29CF
:101100005BEA5603C001579F900D11248F0D911D6E
:101110008F0D911D982F990F890F7E01E21AF30A06
:10112000E09ED001E19EB00DF09EB00D1124489FCD
:10113000A0011124452F55277E01E41AF50AE09EEF
:10114000A001E19E500DF09E500D11247E01E81A81
:10115000F108E29EC001E39E900DF29E900D1124D5
:10116000892F9927C81BD90BC09FC001C19F900D23
:10117000D09F900D11246230710591F048F46115F3
:101180007105E1F061307105A9F48B2F752F19C03D
:101190006430710561F038F06630710579F00AC08D
:1011A000892F7B2F0EC08E2F7B2FE52F0AC08E2F0D
:1011B000792F02C0852F7E2FEB2F03C08B2F7E2F20
:1011C000E92F6E2FDF91CF911F910F91FF90EF903C
:1011D00008950895CF93DF93762FE901682F842F28
:1011E0000E945E08798368838A83DF91CF91089596
:1011F00080915602282F269530E02115310519F4EB
:101200008170826005C02831310524F081708E62C2
:1012100080935602089588E090E00C948529CF923F
:10122000DF92EF92FF926B017C010E94F808B701F8
:10123000A60188E090E0FF90EF90DF90CF900C94B3
:10124000A3296091560270915702809158029091A3
:1012500059020C940F09E6E5F2E083E080831182E5
:101260008FEF828383831482608171818281938175
:101270000C940F098091560280FF02C08695089554
:1012800080E0089580915A02833018F48F5F809334
:101290005A026091560270915702809158029091C3
:1012A00059020C940F0980915A02882319F0815039
:1012B00080935A02609156027091570280915802B1
:1012C000909159020C940F0980915A0208958093CD
:1012D0005A02662351F06091560270915702809134
:1012E0005802909159020C940F09089560E00C94F3
:1012F000670980915702089580915802089580915E
:101300005902089570E00C94C60D6091030180911C
:10131000560280FF0AC08091020123E0829FC00133
:101320001124855A9D4F0C9482098091040190915B
:101330000501891780F7E82FF0E09F01220F331F86
:10134000E20FF31FE55AFD4F1182108212828F5F68
:10135000F0CF9091560290FF16C090910401209119
:101360000501921770F4E92FF0E0DF01AA0FBB1F0F
:10137000EA0FFB1FE55AFD4F8183608342839F5F25
:10138000F0CF0C9485090895CF93DF9300D01F927E
:10139000CDB7DEB79091560290FF0AC09E012F5F35
:1013A0003F4F0E94EA084B8169818A810E94A90906
:1013B0000F900F900F90DF91CF910895CF93DF930F
:1013C000EC01EC81F0E0E656FD4F4491E6E5F2E0F9
:1013D000628181810E94C4098C818F5F8C83DF913F
:1013E000CF910895CF93DF93EC01E6E5F2E04381DE
:1013F00062818C810E94C4098C818F5F8C83DF9114
:10140000CF910895EF92FF920F931F93CF93DF93A5
:1014100000D01F92CDB7DEB7082FF62E142FE22E84
:101420008091560280FF35C0E82FE695F0E0E15B41
:10143000FE4F90819093D2018E7F823061F49E01A5
:101440002F5F3F4F802F0E94EA084B8169818A817C
:101450000E94A9090CC0923019F41091590207C0DA
:10146000963019F40091570202C09930D9F30093D5
:101470005702F092580210935902EE2051F06091F9
:1014800056027091570280915802909159020E9421
:101490000F090F900F900F90DF91CF911F910F9137
:1014A000FF90EF900895E6E5F2E09181282F4381C7
:1014B000628188E0890F0C94020A81E00C94530A3F
:1014C000E6E5F2E09181282F4381628188EF890F60
:1014D0000C94020A81E00C94600AE6E5F2E0628175
:1014E00028E0620F08F46FEF282F438181810C946C
:1014F000020A81E00C946D0AE6E5F2E0628128E0E0
:10150000621B08F460E0282F438181810C94020A59
:1015100081E00C947C0AE6E5F2E0438128E0420F8A
:1015200008F44FEF282F628181810C94020A81E038
:101530000C948B0AE6E5F2E0438128E0421B08F4B4
:1015400040E0282F628181810C94020A81E00C9492
:101550009A0A20E00C94020AFF920F931F93CF93F4
:10156000DF93EC01F12C0FEF10E060910601F6160D
:10157000F0F4809104012F2D30E0280F311DC901B6
:10158000880F991F280F391F255A3D4F70E0C80159
:101590000E944329962F8C814091590260915802F4
:1015A000F99E800D11240E94EA08F394DECF0E9478
:1015B00085099A818C8190FF02C08F5F01C08150A4
:1015C0008C83DF91CF911F910F91FF900895AF927F
:1015D000BF92CF92DF92EF92FF920F931F93CF9320
:1015E000DF93FC01828180FF02C00FEF01C001E0A8
:1015F00010E04BE0A42E80910601181708F043C0BC
:1016000080910401C12ED12CE601C80FD11DCE015D
:10161000880F991FC80FD91FC55ADD4F198218822C
:101620001A8234E0E32EF12CB12C8091CA018B0D8B
:101630008C302CF06A2D0E942129892F05C087FF4C
:1016400003C090910601890F082E000C990BC81653
:10165000D90691F4809159028E9DA0018F9D500D65
:10166000112455954795559547959E0160915802CF
:10167000809157020E94EA08B00EF1E0EF1AF108DB
:10168000A1F61F5FB8CF0E9485098091CA01013081
:1016900031F4811102C080910601815007C090E0B1
:1016A00001966091060170E00E9443298093CA016F
:1016B000DF91CF911F910F91FF90EF90DF90CF902E
:1016C000BF90AF900895CF93809104019091050150
:1016D000891770F4E82FF0E09F01220F331FE20F0B
:1016E000F31FE55AFD4F1182108212828F5FF0CFF7
:1016F000C0E060910601C617C0F5EC2FF0E070E085
:10170000CF010E94432920910401820F2091C90139
:10171000022E000C330B90E0E217F307CCF020917F
:101720000101022E000C330B2E173F078CF09C0199
:10173000220F331F820F931F9C01255A3D4F40916A
:10174000590260915802809157020E94EA080BC02A
:10175000FC01EE0FFF1F8E0F9F1FFC01E55AFD4F8E
:10176000118210821282CF5FC4CF0E94850920911E
:1017700000018091C901820F8093C90190910101FC
:10178000920F9093010119165CF4082E000C990B2E
:101790004091060150E041505109841795071CF013
:1017A000219520930001CF910895E6E5F2E0808134
:1017B0008E7F808360817181828193810E940F0975
:1017C0001092D3012FEF80E792E0215080409040AB
:1017D000E1F700C000000C948509E6E5F2E08081A5
:1017E0008E7F80831092D3012FEF80E792E021500B
:1017F00080409040E1F700C000000C9485096091A2
:101800005602669570E041E050E087E091E00E946A
:101810007029892B19F481E08093D3010E9427213C
:101820009093CC018093CB0108959091560290FF44
:1018300035C09170811102C0926006C0883110F0ED
:101840009E6202C0880F982B90935602662351F037
:1018500060915602709157028091580290915902FE
:101860000E940F0960915602669570E041E050E0D9
:1018700087E091E00E947029892B19F01092D30122
:1018800002C00E94FF0B81E08093CE01409159027B
:1018900060915802809157020C94A90A0895682F0C
:1018A00090915602969581E0890F883108F081E089
:1018B0000C94150C81E00C944F0C682F90915602FB
:1018C00096958FEF890F09F487E10C94150C81E050
:1018D0000C945D0C61E00C94150CE6E5F2E080815F
:1018E0008160808386950C946A0C8091560280FDFD
:1018F0000C94D50B0C946D0C60E00C94150C80913D
:10190000D10181112EC00E94901F811104C00E943C
:1019100030200E942B090E940B096093560270939D
:10192000570280935802909359026E7F61F40E948F
:101930002B090E940B096093560270935702809303
:101940005802909359020E94F8081092D301809196
:10195000560280FF03C086950E947C0C81E0809334
:10196000D1010895E6E5F2E080818160808386956B
:101970000C947C0C1092D30108950F931F93CF9376
:10198000DF938091D301882309F475C08091D2013F
:10199000E0915602E695E81BE093CD01823049F4D0
:1019A000F0E0EA56FD4FE491CE2FD0E00EED19E0C5
:1019B00032C0863049F4F0E0ED56FD4FE491CE2F71
:1019C000D0E002EF19E027C0893051F4E695F0E04D
:1019D000E057FD4FE491CE2FD0E00CEA1AE01BC097
:1019E0008F3051F4E695F0E0E357FD4FE491CE2FB0
:1019F000D0E007EE1AE00FC0853149F4F0E0E65779
:101A0000FD4FE491CE2FD0E003E61BE004C0C0ED13
:101A1000D7E009EE18E08091CE01882389F010927A
:101A2000CE010E9427219E0120953095820F931FA1
:101A30009093CC018093CB011092D0011092CF01F2
:101A40008091CB019091CC010E943F218C179D0782
:101A500090F0E091CB01F091CC01CE0FDF1FD0933D
:101A6000CC01C093CB018BEC91E0F801DF91CF91D9
:101A70001F910F910994DF91CF911F910F910895BC
:101A8000882311F0FA0101C0FB010994CF93DF9381
:101A9000C82FD62F0E943A098C1740F00E943A09AD
:101AA0008D1720F4DF91CF910C945A0C8C2FDF917D
:101AB000CF910C946A0C0F931F93CF93FB01C281BB
:101AC000CC2309F45BC08C010E94D91E8272F801FC
:101AD000E25CFC45E431F10508F053C0EA5AFF4FDF
:101AE0000C9457290E94750C4BC047E65CE06AE5F0
:101AF0007CE004C04AE55CE067E67CE00E94400DC3
:101B00003FC04AE65AE06DE57AE0F8CF4DE55AE08D
:101B10006AE67AE0F3CF48E85AE069E77AE0EECF88
:101B200049E75AE068E87AE0E9CF46EA5AE067E92F
:101B30007AE0E4CF47E95AE066EA7AE0DFCF43E5AE
:101B400059E062E479E0DACF42E459E063E579E014
:101B5000D5CF81E00E946A0C13C065E082E00BC023
:101B600068E086E008C06EE089E005C064E18FE0CF
:101B700002C067E185E10E94460D02C0C1E001C0DC
:101B8000C0E08C2FCF911F910F910895519A2BB1E6
:101B90002D7F3BB132604FB7F894FC01CB01880F29
:101BA000991F680F791F6E0F7F1FE617F70789F0DF
:101BB000819198E03BB9000000C087FF2BB9880FE6
:101BC000000000C000C000C02BB900C09A9591F77A
:101BD000ECCF4FBF8FE594E00197F1F700C0000014
:101BE00008950C943B04FF920F931F93CF93DF93C0
:101BF000C8EDD1E049E751E027E731E061E070E06E
:101C0000F1E0CA3DDF0709F44CC0FA010191AF01D0
:101C1000A02FA295AF70B0E09196EC9191970F70C4
:101C2000CB01002E01C0880F0A94EAF7982F9095F7
:101C30009E2391969C93919792969C919297892B33
:101C400092968C939297F90111919F01E12FE29561
:101C5000EF70F0E0F1A01F70CB01012E01C0880FE2
:101C60000A94EAF7982F90959F2191A392A1892B2E
:101C700082A390968C9190E002C0959587950A95E5
:101C8000E2F78170E0A1F0E002C0F595E7951A95C2
:101C9000E2F7E0FD02C090E001C092E0892B899359
:101CA000AFCFDF91CF911F910F91FF9008955F9279
:101CB0006F927F928F929F92AF92BF92CF92DF925C
:101CC000EF92FF920F931F93CF93DF9388ED682ECF
:101CD00081E0782E99E7E92E91E0F92E07E711E0EF
:101CE00026ED822E21E0922EC4EDD1E06301530156
:101CF000512CD501ED915D014E2F440F440FF6019B
:101D000041936F01D7012D917D01E22FE295EF7094
:101D1000F0E080A190E02F7002C0959587952A95FC
:101D2000E2F781709927F80151918F01E52FE29533
:101D3000EF70F0E020A130E05F7002C0359527958C
:101D40005A95E2F7F901E170FF2720FF02C0E2E0B7
:101D5000F0E0E82BF92BE42BD301ED933D01EF707C
:101D6000F0E0E959FE4F9081F4018081890F808372
:101D700084303CF088818F5F888360E0852D0E94ED
:101D8000F10DD4018C918D3F3CF488818150888382
:101D900061E0852D0E94F10DF4018081837887FF39
:101DA00003C081508C6F8F5FD4018D934D0153948C
:101DB0002196B2E05B129DCFDF91CF911F910F91E1
:101DC000FF90EF90DF90CF90BF90AF909F908F905B
:101DD0007F906F905F90089582E290E00E947D294D
:101DE000803281F483E290E00E947D29873051F4B3
:101DF00084E290E00E947D2991E0873009F090E034
:101E0000892F01C080E081700895CF93C82F811180
:101E100002C06FEF01C060E282E290E00E9491296F
:101E2000C11102C06FEF01C067E083E290E00E9441
:101E30009129C11102C06FEF01C067E084E290E018
:101E4000CF910C94912980E00E94050F0C948A1F79
:101E5000089585E290E00E947D29682F70E080E07F
:101E600090E0089585E290E00C9491290E94280F5B
:101E70000E94EC0E81110CC060E070E0CB010E946A
:101E8000320F0E94E6100E94C31181E00C94050FEE
:101E90000895CF93FB01C281CC23E9F09C0122512C
:101EA0003F452031310520F482510E94D3110CC0EE
:101EB0008031FFE59F0751F481E00E94651D43E0FA
:101EC00062E081E00E94AB05C0E018C081319F450F
:101ED000A9F482E0F2CF8031EFE59E0711F481E0B2
:101EE00004C081319F4549F482E00E94861D43E091
:101EF00062E081E00E94AB0501C0C1E08C2FCF9170
:101F000008952FEFFC0120830895CF93DF93EC0118
:101F10008881813889F028F48038A1F40E947F09F3
:101F200010C0823861F0833869F40E94790989838E
:101F30000E947C098A8306C00E943A0902C00E945E
:101F400064098983DF91CF910895CF93DF93EC01EA
:101F500088818138B1F058F4803851F5D9810E94D8
:101F60007C09C82F0E9479094D2F6C2F1DC0823823
:101F7000B1F08338E9F40E947F09482F6A81898192
:101F800013C089810E947C0C8981811104C0DF917A
:101F9000CF910C94ED0BDF91CF910C94B20C898111
:101FA000DF91CF910C947609DF91CF910C94A90A1F
:101FB000DF91CF910895EF92FF920F931F93CF93EC
:101FC000DF93EC01162F0196E8814E2F50E0FA01C5
:101FD0003197E331F10508F0ACC0E659FF4F0C949E
:101FE0005729198289E056C08981823039F08330BF
:101FF00061F0813029F50E94332102C00E94290F2F
:102000009A838B837C836D8396C07E0122E0E20EEF
:10201000F11C00E0802F0E943103F70181937F01C2
:102020000F5F0530B9F787C08981823049F46A8132
:102030007B818C819D810E945D290E94320F7BC033
:10204000612FCE010E94810F76C04B816A81898108
:102050000E94B8109C838D836EC02C813D813227F5
:10206000232732274B816A8189810E94D11063C066
:102070000E94E61060C00E94A50F5DC00E94850FFF
:102080005AC00E94210957C00E94761124C00E94A4
:10209000781199838A834FC06B8170E089819A811E
:1020A000AE014C5F5F4F9827892798270E947B11CC
:1020B00042C06B8170E089819A81AE014C5F5F4FB5
:1020C0009827892798270E94A01135C00E94C31124
:1020D00032C00E94A51089832EC06B8170E0898177
:1020E0009A81AE014C5F5F4F9827892798270E94FD
:1020F000251121C06B8170E089819A81AE014C5F0E
:102100005F4F9827892798270E94481114C00E9482
:10211000230F11C0CE010E943522FFEF21EE84E093
:10212000F15020408040E1F700C000000E9474217F
:1021300002C08FEF8883612FCE01DF91CF911F9175
:102140000F91FF90EF900C94352284E0089550E0B9
:10215000440F551F28E0629F400D511D11249A0124
:1021600068E2869F200D311D1124C90186960895CD
:102170000F931F93CF93DF930E94A7108C010E94AF
:102180007D29C82FD0E0DC2FCC27C80101960E9402
:102190007D299E01282BC901DF91CF911F910F91BD
:1021A00008950F931F93CF93DF93122F032F0E9455
:1021B000A710EC01602F0E949129612FCE0101969A
:1021C000DF91CF911F910F910C949129AF92BF9203
:1021D000CF92DF92EF92FF920F931F93CF93DF93F3
:1021E000A12CE12CF12CB12C00E010E0C0E0D0E0FB
:1021F0006701C00ED11EF601EC0FFD1FEE0FFF1F91
:10220000E65BFE4F259134914C2F6B2D8A2D0E9459
:10221000D1102196C430D10571F70C5F1F4FB394D4
:1022200085E0B812E3CF84E1E80EF11CA39484E0CA
:10223000A812D9CFDF91CF911F910F91FF90EF900E
:10224000DF90CF90BF90AF900895EF92FF920F93E1
:102250001F93CF93DF93EA017A01E60EF71E8C01FC
:10226000C8018696CE15DF0561F0003A110520F40D
:102270000E947D29888301C0188221960F5F1F4F1D
:10228000EFCFDF91CF911F910F91FF90EF900895C5
:10229000EF92FF920F931F93CF93DF93EA017A019E
:1022A000E60EF71E8C01C8018696CE15DF0551F0AB
:1022B000003A110518F468810E94912921960F5F58
:1022C0001F4FF1CFDF91CF911F910F91FF90EF90B2
:1022D0000895462F843038F4753028F4643018F4AB
:1022E000672F0C94B81080E090E0089580E1089585
:1022F0008AE393E00895EF92FF920F931F93CF9399
:10230000DF93EA017A01E60EF71E8C01C8018A53B9
:102310009F4FCE15DF0569F00A3323E0120720F442
:102320000E947D29888301C0188221960F5F1F4F6C
:10233000EDCFDF91CF911F910F91FF90EF90089516
:10234000EF92FF920F931F93CF93DF93EA017A01ED
:10235000E60EF71E8C01C8018A539F4FCE15DF058C
:1023600059F00A3323E0120718F468810E9491297A
:1023700021960F5F1F4FEFCFDF91CF911F910F91EC
:10238000FF90EF900895CF93DF93C6ECD0E060E02C
:10239000CE010E9491292196C11584E0D807B9F792
:1023A000DF91CF910895DF92EF92FF920F931F93E9
:1023B000CF93DF9300D000D0CDB7DEB7F82E8FE0FB
:1023C0008F15E8F18FEF93E00E947D29811137C0CE
:1023D00006EC10E0FF2069F0011584E0180779F1A0
:1023E000C8010E947D29811101C0FA940F5F1F4F1F
:1023F000F1CF19821A821B821C82DD24D3947801CA
:102400008FEFE81AF80AC8010E947D2989831A8291
:102410008823A9F09FEF980F933058F48A83D982CC
:102420000E5F1F4FC7010E947D298B83882339F0DF
:102430007801CE0101960E9454058701E0CF0F90EC
:102440000F900F900F90DF91CF911F910F91FF9000
:10245000EF90DF9008950F931F93CF93DF93C62FD4
:10246000D42F122FFC0182818823C9F06093DC01F4
:102470000E9427219093DB018093DA0180E28C0F88
:10248000883008F057C0C77081E001C0880FCA9536
:10249000EAF7DF91CF911F910F910C948E168091E6
:1024A000DC01681330C08091DA019091DB010E9459
:1024B0003F21883C910538F500E20D0FCD17B9F0AA
:1024C00080E28C0F883040F4C77081E001C0880F33
:1024D000CA95EAF70E949516083028F581E09D2FED
:1024E000977001C0880F9A95EAF70E948E16812F87
:1024F0000E947B160830F0F4D77081E001C0880F8D
:10250000DA95EAF70AC080E28C0F883098F4C77039
:1025100081E001C0880FCA95EAF7DF91CF911F9142
:102520000F910C949516812FDF91CF911F910F91F0
:102530000C947B16DF91CF911F910F9108959C0110
:10254000CB01233F4CE53407F9F078F4283DFCE556
:102550003F07B9F0293D4CE5340711F1273D3C45D3
:1025600031F526E241EE61EE1EC0253FFCE53F0756
:1025700099F070F0263F3C45D1F427E245EE66EE37
:1025800012C027E245EE0EC026E241EE60EE0BC01F
:1025900027E245EE64EE07C026E241EE62EE03C09C
:1025A00028E241E065EE0E942B1280E00895FC01D4
:1025B0008281882319F01092DC01089581E008954A
:1025C000CF93DF93EC01FB018281882309F41FC1C3
:1025D000C230FCE5DF0708F41BC1C6319CE5D90712
:1025E00038F09E012A5F3C452930310508F010C1C2
:1025F0000E94A31F9093810280938002C031ECE57A
:10260000DE0709F4C3C008F041C0C8308CE5D80724
:1026100009F49AC0F0F4C430ECE5DE0709F487C091
:1026200068F4C2308CE5D80709F477C0C330DC45C4
:1026300009F0E3C080918002826076C0C630ECE58C
:10264000DE0709F46EC008F07BC0809180028860CC
:102650006BC0CC308CE5D80709F485C068F4CA306B
:10266000ECE5DE0709F474C008F079C00E940F1988
:1026700080918002806858C0CE308CE5D80709F47C
:1026800076C008F07FC0809180028BC0CB3FECE524
:10269000DE0709F44FC018F5C3318CE5D80709F4FB
:1026A0007DC078F4C131ECE5DE0709F473C0C231B6
:1026B000DC4509F0A2C00E940F19809180028F773B
:1026C00033C0C5318CE5D80709F472C008F486C060
:1026D000CA3FDC4509F091C0809181023EC0CF3FE6
:1026E000FCE5DF0709F45FC058F4CD3F9CE5D9074E
:1026F00009F444C008F43FC08091810282602DC07B
:10270000C130FDE5DF0709F475C008F45DC0C230D3
:10271000DD4509F072C080E06EC08091800281606A
:1027200003C08091800280618093800266C08091A6
:10273000800211C0809181028260809381025DC01D
:10274000809180028062F0CF809180028064ECCF23
:102750008091800288608460E7CF8160EECF8091B5
:1027600080028E7FE1CF809180028D7FDDCF8091CE
:102770008002877FD9CF8091810218C08091810229
:102780008D7FDBCF809180028F7ECECF80918002C3
:102790008F7DCACF809180028F7BC6CF80918002CF
:1027A000877F8B7FC1CF809181028D7F8E7FC5CF48
:1027B0008091800282FB222720F991E0922790FBF2
:1027C00082F990FB83F9B0CF80918102982F909588
:1027D00091708E7F892B90FB81F9AFCF0E940F19EA
:1027E0008091800287FB222720F991E0922790FBBD
:1027F00087F99ACF81E00E943220809180029091E7
:1028000081020E94B41F0E940F1980E001C081E084
:10281000DF91CF910895CF93DF9386319C4541F5A9
:10282000EB010E94D91E982F8A81209108013091D6
:102830000901882379F09A7A81E009F480E0809395
:10284000DD01911102C069E201C065E3C9010E9486
:1028500079200AC08091DD01811102C069E201C0C6
:1028600065E3C9010E947B200E94271F80E001C010
:1028700081E0DF91CF9108959093E3018093E2018D
:102880000895E091E201F091E301309721F0019089
:10289000F081E02D099480E00895E091E201F0914B
:1028A000E301309721F00280F381E02D099408952F
:1028B0002091E0013091E1012817390771F09093E0
:1028C000E1018093E001E091E201F091E3013097B2
:1028D00021F00680F781E02D099408952091DE0112
:1028E0003091DF012817390771F09093DF01809351
:1028F000DE01E091E201F091E301309721F00084E4
:10290000F185E02D0994089585B7806885BF85B766
:10291000806885BF089508950C948B140C948C14D2
:102920000C948B140C948B140E9484140E949014A9
:102930000C948E1481E008950C949A140E941E2128
:102940000E9437030E94360F0E949E210E947F0C36
:102950000E94F30D0C949214AF92BF92CF92DF922B
:10296000EF92FF920F931F93CF93DF93CDB7DEB714
:102970002A970FB6F894DEBF0FBECDBF0E94A60304
:102980000E949C14811111C08FEF89838A831B825E
:102990000E9427218160782F9D838C8349815A81F1
:1029A0006B818D810E94461540C085EEA82E81E086
:1029B000B82E00E010E0C02E802F0E943103E82ED8
:1029C000F501D1905F01D82631F40F5F1F4F05301C
:1029D000110589F7D9CF8091470281FD0E948D03AF
:1029E00080E0FF24F3949D2D9F21D1F08E83CF8230
:1029F000EF2081E009F480E088870E942721816030
:102A0000782F9A8789874E815F8168858A850E94A1
:102A10004615F801EB51FE4F8081F826F08205C083
:102A20008F5FFF0C8430F9F6D0CF0E94BD0C0E945E
:102A3000570E0E9441149091E4018917B1F00E9451
:102A400041148093E4012A960FB6F894DEBF0FBEBE
:102A5000CDBFDF91CF911F910F91FF90EF90DF904D
:102A6000CF90BF90AF900C94D0052A960FB6F894F3
:102A7000DEBF0FBECDBFDF91CF911F910F91FF90B1
:102A8000EF90DF90CF90BF90AF900895CF93DF93FA
:102A9000CDB7DEB72B970FB6F894DEBF0FBECDBF14
:102AA0004F83588769877A878B87DE01119686E086
:102AB000FD0111928A95E9F785E0FE0137960190B4
:102AC0000D928A95E1F749815A816B817C818D81D4
:102AD0009E810E94C81B2B960FB6F894DEBF0FBED6
:102AE000CDBFDF91CF910895FC01808191810E943B
:102AF0009A1E0895CF93882309F49CC0C82F82386A
:102B0000C1F40E94411481FD95C069E380910801E0
:102B1000909109010E9479200E94271F2FEF81EEDA
:102B200094E0215080409040E1F700C0000069E34C
:102B300019C0833801F50E94411480FD7BC063E514
:102B400080910801909109010E9479200E94271F1D
:102B50002FEF81EE94E0215080409040E1F700C0DB
:102B6000000063E580910801909109010E947B209B
:102B7000CF910C94271F8438C1F40E94411482FD28
:102B800059C067E480910801909109010E94792061
:102B90000E94271F2FEF81EE94E02150804090404B
:102BA000E1F700C0000067E4DDCF8CEF8C0F813AC5
:102BB000D0F46C2F80910801909109010E9443206C
:102BC000882349F06C2F80910801909109010E949F
:102BD0007B200E94271F6C2F809108019091090192
:102BE0000E947920C5CF80E28C0F883048F4C770EE
:102BF00081E001C0880FCA95EAF70E94DC1EB8CFB9
:102C0000EBE5EC0FE33040F4F0E0E755FE4F808158
:102C100090E0CF910C945814C85AC73158F4EC2F57
:102C2000F0E0EE0FFF1FE558FE4F80819181CF91BC
:102C30000C946E14CF910895882309F45BC0682F1B
:102C4000823879F40E94411481FF54C069E3809175
:102C50000801909109010E9479200E94271F69E3D1
:102C600010C08338B1F40E94411480FF43C063E573
:102C700080910801909109010E9479200E94271FEC
:102C800063E580910801909109010E947B200C94DA
:102C9000271F843879F40E94411482FF2BC067E417
:102CA00080910801909109010E9479200E94271FBC
:102CB00067E4E7CF8CEF860F813A18F380E2860F46
:102CC000883048F4677081E001C0880F6A95EAF7A0
:102CD0000E94E21EDCCF8BE5860F833020F480E07B
:102CE00090E00C945814685A673120F480E090E02A
:102CF0000C946E140895CF93C82F0E947A15C9338F
:102D000049F42FEF87EE93E0215080409040E1F7A7
:102D100000C000008C2FCF910C941C16882321F04A
:102D20000E94DC1E0C94271F0895882321F00E9426
:102D3000E21E0C94271F0895CF92DF92EF92FF922C
:102D40000F931F93CF93DF937C01062FC72FFC01B6
:102D5000158112951F70D281D1110E94F91E0E9417
:102D6000D21E882399F0DD2389F08C2F807F803458
:102D700021F080E2800F883048F082E00E94711FCD
:102D80000E94D21E91E0D82ED92601C0D12CCC2E83
:102D9000C2948FE0C8228C2D90E0FC01E358FF4FD5
:102DA0000C9457298C2F807FCF70882311F0C29507
:102DB000C07FDD2399F0CC2309F482C180E2800F2B
:102DC000883010F0011104C08C2F0E94DC1E03C05B
:102DD0008C2F0E94EC1E0E94271F72C1802F0E9420
:102DE0001C16CC2309F491C180E2800F883010F0CA
:102DF000011104C08C2F0E94E21E03C08C2F0E9480
:102E0000F21E0E94271F81C18C2F807FCF708032DD
:102E100011F0C295C07F002319F00130C9F022C023
:102E2000DD2371F0112341F0113031F40E940C1FA9
:102E30008C2B0E94141F69C10E940C1F8C2B1DC07B
:102E4000112319F0113009F460C10E941D1F25C023
:102E5000DD2321F0163008F058C10EC0153008F0FF
:102E600054C11BC0DD2361F0112331F0F7018581CE
:102E700080FF26C18F7085838C2F0E948E1645C1DE
:102E8000112359F0093309F02CC1FFEF27EE83E03D
:102E9000F15020408040E1F722C18C2F0E9495160E
:102EA00034C18C2F86958695837019F0813061F03E
:102EB0002CC1DD2321F0802F9C2F937002C080E075
:102EC00090E00E94581429C1DD2321F0802F9C2F0F
:102ED000937002C080E090E00E946E141EC18C2F9F
:102EE000837009F045C0D11114C1402F4295469519
:102EF0004770440F440F602F6F70862F90E0A0E062
:102F0000B0E0042E04C0880F991FAA1FBB1F0A94AB
:102F1000D2F704FF10C00FE010E020E030E004C062
:102F2000000F111F221F331F4A95D2F700951095ED
:102F30002095309503C000E010E09801C695C69535
:102F4000C370BC01CD01602B712B822B932BC2303F
:102F500049F058F4C13019F00E94191DDAC00E94DE
:102F6000071DD7C00E942B1DD4C00E94051DD1C0D3
:102F7000DD2319F08C2F817001C08695882309F418
:102F8000C8C0402F429546954770440F440F602FAC
:102F90006F70862F90E0A0E0B0E0042E04C0880F90
:102FA000991FAA1FBB1F0A94D2F704FF10C00FE09D
:102FB00010E020E030E004C0000F111F221F331F7B
:102FC0004A95D2F7009510952095309503C000E002
:102FD00010E09801C695C695C370BC01CD01602B69
:102FE000712B822B932BC23049F058F4C13019F069
:102FF0000E94DE1D8EC00E94CC1D8BC00E94F01D61
:1030000088C00E943F1D85C0CF70DD2339F08C2F12
:103010000E94651D802F0E948E167BC0802F0E940B
:1030200095168C2F0E94861D74C0023F01F128F472
:10303000003F41F0013FA1F03FC0033FF9F0043FE2
:1030400039F13AC0DD2341F0153008F05EC08C2F15
:103050008F710E94AB1D59C0163008F056C0F7CFD3
:10306000DD2339F08C2F8F710E94651D4EC0DD234A
:10307000C9F38C2F8F710E94861D47C0DD2329F074
:103080008C2F8F710E94501D40C00E944B1D3DC06F
:10309000DD2349F0CF718C2F0E94651D63E08C2FDA
:1030A0000E945C1F32C081E00E94711F123068F1E3
:1030B00082E00E94711F29C0DD2331F0112391F2BB
:1030C000802F0E947A1521C0112399F2093349F407
:1030D0009FEFE7EEF3E09150E040F040E1F700C0F1
:1030E0000000802F0E941C1610C04C2F4F70602FC4
:1030F000C7010E9432060E94761C0FC04C2F4F70F1
:10310000602FC7010E94350608C088EF8C0D8430FF
:1031100020F40E9441140E94D005DD20C9F00E94D5
:10312000CE1E80FD15C0F70112820E94C81E0E94AB
:10313000651DC7010E94C9180E94C81EDF91CF916A
:103140001F910F91FF90EF90DF90CF900C94861D10
:10315000DF91CF911F910F91FF90EF90DF90CF9073
:1031600008950F931F93CF93DF93EC0168817981CA
:103170008A810E94A51E8C010E94021E0E94F31CDF
:10318000B801CE010E949C16DF91CF911F910F9143
:103190000895CF93DF93EC01988189812B813C8145
:1031A000232B31F08F3F31F481E09F3F19F403C0AE
:1031B00081E001C080E080FD19C0CE010E94E905D8
:1031C00081110CC00E94D21E882381F08A8188233D
:1031D00069F082E0DF91CF910C94711FCE010E94C3
:1031E000B118CE01DF91CF910C949204DF91CF9171
:1031F00008950E94F91E0E94091F0E94271F80E067
:1032000090E00E94581480E090E00C946E1480913D
:103210000801909109010E947D200C94F9180E94E8
:10322000E91E0C940719E92FE295EF704E2F50E03C
:10323000FA013297EE30F105B0F4E357FF4F0C94EA
:103240005729803F91F018F4883E68F40EC0843FFF
:1032500051F40BC0883E48F0813F29F406C093FB2F
:10326000882780F9089580E0089581E008950E94FC
:103270009A1E0E9413190895CF93DF9300D000D0B7
:103280001F92CDB7DEB70F900F900F900F900F9059
:10329000DF91CF910895CF93DF9300D000D000D07D
:1032A000CDB7DEB726960FB6F894DEBF0FBECDBF02
:1032B000DF91CF9108951F93CF93DF93C091EB01DE
:1032C00016E08091EC01C81799F0D0E01C9FF00146
:1032D0001D9FF00D1124E351FE4F40815181628109
:1032E0007381848195810E944B192196C770E9CF23
:1032F000DF91CF911F91089540911D0250911E02C0
:1033000060911F027091200280912102909122020F
:103310000C944B190F931F93CF93DF93809122024C
:1033200082958F7009F05DC080911F02882309F497
:1033300058C08091EB011091EC0160911D027091D9
:103340001E02C0912002D091210291E06F3F09F04E
:1033500090E0292F06E0811709F443C0209721F05F
:103360007F3F21F030E003C031E001C0322F90E018
:1033700030FD34C0089FF001099FF00D1124DF01DA
:10338000A351BE4F11963C911197371327C03C9122
:10339000361324C012963C91129731111FC0139618
:1033A0004D915C9114974C1B5D0B483C5105B0F45A
:1033B000809122028F70806180932202EE50FE4F36
:1033C00080818F70806180838DE192E00E94C918B6
:1033D000DF91CF911F910F910C945B19019687702B
:1033E000BACFDF91CF911F910F9108959F92AF9225
:1033F000BF92CF92DF92EF92FF920F931F93CF93E2
:10340000DF93CDB7DEB761970FB6F894DEBF0FBE7E
:10341000CDBF8C0185E0F801DE011D9601900D9273
:103420008A95E1F7F80140815181E28090911D0277
:1034300060911E0220912002309121022115310558
:1034400031F06F3F31F481E09F3F19F403C081E018
:1034500001C080E0F82FF1709F2E80FD46C1F80179
:10346000A380B4808DE1C82E82E0D82EF0901F0298
:10347000F501E21BF30BFF2009F4DFC0809122026B
:10348000E83CF10508F09BC0282F207F09F052C0CE
:10349000561313C0491311C0FE2CE1100EC08F70DB
:1034A0008061809322020E947C19C6010E94C91883
:1034B00080912202F801858358C1AB2831F05F3F2B
:1034C00031F481E04F3F19F403C081E001C080E096
:1034D00080FD03C081E08E2502C080E090E0F82FDF
:1034E000F170FF2E80FF1CC08091EB012091EC0158
:1034F00036E0821709F417C190E0389FF001399F38
:10350000F00D1124E351FE4F6181561306C0608116
:10351000461303C06281E61203C001968770E9CFAB
:10352000FE2CEE2009F421C180912202816080935B
:1035300022025AC0561306C0491304C0E11002C04B
:10354000F8019FC04D875E878D859E850E94371943
:10355000882379F1EE2069F120912202822F829551
:103560008F7090E0029774F080911D0290911E027E
:1035700098878F831986BB86AA862C87CE010796EB
:103580000E94C91886E0F801ADE1B2E001900D9209
:103590008A95E1F70E948A190E947C190DC056177E
:1035A00029F14D875E878D859E850E94371981118F
:1035B0002CC0C8010E94C918FF24F394D6C0282F3C
:1035C000207F69F77A2DB98AA88A6E2D89890E9491
:1035D0003C198DE192E00E94C91886E0F601119233
:1035E0008A95E9F70E947C19F12CBFC04913D9CF05
:1035F000E110D7CFF8018583C8010E94C91886E081
:10360000F60111928A95E9F7B0C0EE2091F220916F
:103610002202822F82958F7090E002970CF4B2CF35
:1036200080911D0290911E029A8389831B82BD8224
:10363000AC822E83CE010196A3CFE83CF10508F0C1
:1036400047C0FE2CEE2009F4B4CF561330C0491306
:103650002EC02091220220FD21C0822F82958F70E2
:10366000482F50E041155105C9F0F80125834F302E
:10367000510541F08F5F982F9295907F822F8F7028
:10368000892B8583C8010E94C91886E0F801ADE145
:10369000B2E001900D928A95E1F742C086E0F80110
:1036A000ADE1B2E001900D928A95E1F75EC04D87E1
:1036B0005E878D859E850E943719811163CF809129
:1036C0002202816080932202C8010E94C9184DC065
:1036D0007A2DB98AA88A6E2D89890E943C1986E0C4
:1036E000F60111928A95E9F71BC0EE2009F461CF2B
:1036F0004D875E878D859E850E943719F82E882319
:1037000009F457CF86E0F801ADE1B2E001900D92E7
:103710008A95E1F78DE192E00E9474150E948A1962
:103720000E947C1922C04D875E878D859E850E94F0
:103730009A1E292F22952F70223028F49F7039F07D
:10374000811105C00BC0243028F49F7049F4805EBD
:10375000883020F0C8010E94C9189F2CF92C05C0A0
:10376000F8019581907F99F7F9CF8F2D61960FB66B
:10377000F894DEBF0FBECDBFDF91CF911F910F91A7
:10378000FF90EF90DF90CF90BF90AF909F90089503
:103790001F93CF93DF93CDB7DEB72C970FB6F89476
:1037A000DEBF0FBECDBF4F83588769877A878B876F
:1037B0009C87CE0107960E94F6198823D1F09F813D
:1037C00088852A853B85232B31F08F3F31F481E0BA
:1037D0009F3F19F403C081E001C080E080FD47C035
:1037E0004F81588569857A858B859C850E944B1908
:1037F0003EC086E0FE013796DE01119601900D92E3
:103800008A95E1F7FF81E8856A857B8561157105F9
:1038100031F0EF3F31F481E0FF3F19F403C081E064
:1038200001C080E080FD23C02091EC0130E0C9019F
:103830000196877099274091EB0150E08417950716
:10384000F1F1F983EA837D836C8396E0929FD00146
:10385000939FB00D1124A351BE4FFE0131960190EC
:103860000D929A95E1F78093EC010E945B1916E0A6
:103870008091EB019091EC01891771F1189FC001C3
:10388000112483519E4F0E94F619882329F1E0915B
:10389000EB011E9FF0011124E351FE4F4081518145
:1038A00062817381848195810E944B198091EB0123
:1038B00090E00196877099278093EB01D9CF0E9401
:1038C0000F191092EC011092EB01EDE1F2E086E0AD
:1038D000DF011D928A95E9F72C960FB6F894DEBFAA
:1038E0000FBECDBFDF91CF911F910895EF92FF9250
:1038F0000F931F93CF93DF938C01892B09F46CC036
:10390000F12CEE24E394E8012196F80184918437A8
:1039100040F4843008F051C0813081F0823019F1D8
:103920005BC0853709F444C0A8F19CE7980F903735
:1039300008F052C08F770E941C1641C00E5F1F4FC7
:10394000FE01849190E2980F983050F48770FE2D1C
:1039500001C0FF0F8A95EAF78F2F0E94FC1E14C04A
:103960000E947A152DC00E5F1F4FFE01849190E2D8
:10397000980F983060F48770FE2D01C0FF0F8A9574
:10398000EAF78F2F0E94021F0E94271F19C00E9472
:103990001C1616C00E5F1F4FFE01C491CC2381F090
:1039A0008FE99FE00197F1F700C00000C150F6CF0A
:1039B0000E5F1F4FFE01F49003C00E947A158E0126
:1039C0008F2D882309F49FCFEFE9FFE03197F1F7BE
:1039D00000C000008150F5CFDF91CF911F910F9172
:1039E000FF90EF900895089508950C94F41C0C94A2
:1039F000F51C0E94F71C6093360270933702809387
:103A00003802909339020C94F9180C94F91C0F9316
:103A10001F930091360210913702209138023091A5
:103A20003902602B712B822B932B1F910F910C94D9
:103A3000F91C0F931F9300913602109137022091C9
:103A400038023091390260237123822393231F911E
:103A50000F910C94F91C0F931F9300913602109153
:103A6000370220913802309139026027712782276E
:103A700093271F910F910C94F91C0C94F41C0E9435
:103A80003D1D609332027093330280933402909311
:103A900035020C94F91860E070E0CB010C943F1DE6
:103AA0000F931F9341E050E060E070E08A019B01BA
:103AB00004C0000F111F221F331F8A95D2F7C901BE
:103AC000B8011F910F910C943F1D0F931F9341E07C
:103AD00050E060E070E004C0440F551F661F771F80
:103AE0008A95D2F78091320290913302A0913402EC
:103AF000B09135028A019B01082B192B2A2B3B2BF5
:103B0000C901B8011F910F910C943F1D0F931F9392
:103B100041E050E060E070E004C0440F551F661FB4
:103B2000771F8A95D2F74095509560957095809152
:103B3000320290913302A0913402B09135028A0191
:103B40009B01082319232A233B23C901B8011F9194
:103B50000F910C943F1D0F931F9341E050E060E0E4
:103B600070E004C0440F551F661F771F8A95D2F777
:103B70008091320290913302A0913402B0913502CB
:103B80008A019B01082719272A273B27C901B80169
:103B90001F910F910C943F1D0F931F9300913202C0
:103BA000109133022091340230913502602B712B39
:103BB000822B932B1F910F910C943F1D0F931F93FA
:103BC000009132021091330220913402309135027B
:103BD00060237123822393231F910F910C943F1D27
:103BE0000F931F93009132021091330220913402FF
:103BF0003091350260277127822793271F910F91FB
:103C00000C943F1D0895990F990F890FE82FE695A1
:103C1000E695E695877051E001C0550F8A95EAF761
:103C200085E0E89FF0011124ED5DFD4F20E030E0DC
:103C300070E04081CB01022E02C0969587950A94D0
:103C4000E2F78170819584278523842781932F5FF4
:103C50003F4F2530310569F70895990F990F890F66
:103C6000682F669566956695982F977085E0689F92
:103C7000B001112440E050E080E0FB01E40FF51FAB
:103C8000ED5DFD4F208130E0092E02C0369527956D
:103C90000A94E2F721703327042E01C0220F0A9400
:103CA000EAF7822B4F5F5F4F4530510531F708959A
:103CB000BF92CF92DF92EF92FF920F931F93CF9319
:103CC000DF938C01C0903202D0903302E090340236
:103CD000F09035028091360290913702A09138021F
:103CE000B0913902C82AD92AEA2AFB2ACFE1D0E0CA
:103CF000D701C6010C2E04C0B695A7959795879558
:103D00000A94D2F780FD04C0219790F7B12C07C028
:103D1000BC2EB8018C2F0E943E060197A9F38B2D73
:103D2000DF91CF911F910F91FF90EF90DF90CF9097
:103D3000BF900895CF93DF93EC010E94581EBE01FF
:103D40000E943E06DF91CF9108951F93CF93DF939A
:103D5000EB019091EA01992321F0CB010E949A1E78
:103D600013C0882349F0CB010E94581E182F682FDA
:103D7000CE010E94031E04C0CB010E942D1E182FED
:103D8000BE01812F0E943E06DF91CF911F910895C1
:103D900080913A02859585958595089580913A029E
:103DA0008770089590913A02977081E009F480E05D
:103DB000089580914602089590914602892B809340
:103DC0004602089580959091460289238093460289
:103DD000089510924602089590914502892B809390
:103DE000450208958095909145028923809345026C
:103DF000089510924502089590914402892B809372
:103E0000440208958095909144028923809344024E
:103E1000089510924402089580913B0208950895F8
:103E20000C940F1F0C94101F90913B02981721F0D7
:103E300080933B020C94121F089580913B028823CB
:103E400029F010923B0280E00C94121F0895E0913B
:103E50000801F0910901809146028083E0910801F8
:103E6000F0910901908180914502892B8083E09136
:103E70000801F0910901908180914402892B80838F
:103E800080913B02882381F0E0910801F0910901C3
:103E90009081892B808380910801909109010E9473
:103EA000372081110E941D1F809108019091090106
:103EB0000C944D140C940F1F98E0899F90011124CD
:103EC000262B20933A020E94651D80913A02859527
:103ED000859585950C945A1F10923A0280E00C94B7
:103EE0005A1F20913A028095822380933A02982F9C
:103EF000977079F430E0482F082E000C550B2417EA
:103F0000350739F08595859585950E94861D0C9419
:103F10006C1F08956FEF7FEF80E090E00C94AF2965
:103F200080E090E00E948B2921E08C3E9E4F09F0BA
:103F300020E0822F089582E090E00C947D2983E0B8
:103F400090E00C947D29CF9384E090E00E947D293D
:103F5000C82F81E290E00E947D292C2F30E0A9013A
:103F6000582BCA01CF910895CF93C92F682F84E0B1
:103F700090E00E9491296C2F81E290E0CF910C9407
:103F80009129AB01BC018FE090E00C94A329AB0117
:103F9000BC0183E190E00C94A32960E070E0CB01C8
:103FA0000C94C71F60E070E0CB010E94C11F0C940D
:103FB000CD1F6CEE7EEF80E090E00E94AF2960E0C4
:103FC00082E090E00E94912960E083E090E00E940E
:103FD00091291092360210923702109238021092F4
:103FE000390260E084E090E00E94912960E081E283
:103FF00090E00E94912960E085E090E00E94912984
:1040000060E086E090E00E9491296FEF87E090E009
:104010000E94912940E050E0BA0188E090E00E94BF
:10402000A32960E08DE090E00E94912940E050E0FB
:10403000BA0188E190E00E94A32960E087E190E066
:104040000E94912940E050E0BA018CE190E00E948A
:10405000A32960E080E290E00E9491290C94D21F95
:104060000C94D91F682F8EE090E00C949129FC01EC
:10407000329697E080E0915029F021912223D9F3E4
:104080008F5FF9CF0895662349F0FC0132960896B8
:104090002191621729F0E817F907D1F780E0089518
:1040A00081E008959C01FC0132969FEF80E04191F0
:1040B000461789F09F3F19F4411101C0982F8F5F77
:1040C0008630A9F79F3F39F0F901E90FF11D97FDFF
:1040D000FA956283089508959C012A5F3F4FFC0181
:1040E0004281461301C01282019682179307B9F7E5
:1040F00008950C9452200C946C20029626E0FC014A
:1041000011922A95E9F7089508950C9484200C944F
:104110008420CF930E9487200E94A6030E948520BE
:10412000C0E08C2F0E943103811104C0CF5FC530E5
:10413000C1F701C081E0CF9108950C9484200C94C4
:104140009D200E949F2080918602843009F439C00E
:104150001092480220E488E190E00FB6F894A89508
:10416000809360000FBE2093600080E00E94D00525
:104170000E94BA0C8091490281110AC081E08093AB
:10418000490280915602817080934A020E94ED0B91
:104190000E949F2083B7817F846083BF83B7816043
:1041A00083BF7894889583B78E7F83BF0FB6F894CA
:1041B000A8958091600088618093600010926000F3
:1041C0000FBE08950C9484200E940F190E94411480
:1041D0000E94D0051092490280914A0281110E94EA
:1041E000B20C0E94FF0B0C94E2201F920F920FB6AC
:1041F0000F9211248F939F93AF93BF9380914802A6
:10420000811113C080917C0290917D02A0917E0269
:10421000B0917F024196A11DB11D80937C029093C5
:104220007D02A0937E02B0937F02BF91AF919F91D8
:104230008F910F900FBE0F901F90189582E084BD54
:1042400093E095BD9AEF97BD80936E0008952FB7C8
:10425000F89480917C0290917D02A0917E02B091B1
:104260007F022FBF08952FB7F89460917C02709160
:104270007D0280917E0290917F022FBF08959C0164
:104280004FB7F89480917C0290917D02A0917E02BC
:10429000B0917F024FBF821B930B089578941F92B9
:1042A0000F920FB60F9211248F939F93AF93BF93EA
:1042B00080917C0290917D02A0917E02B0917F025C
:1042C0000196A11DB11D80937C0290937D02A09365
:1042D0007E02B0937F02BF91AF919F918F910F901B
:1042E0000FBE0F901F90189587E797E790930108EE
:1042F000809300089AE088E10FB6F894A89580931F
:1043000060000FBE90936000FFCF0C94230F0E94BB
:10431000A6032FEF83EF91E0215080409040E1F71A
:1043200000C000000E94A60380E00E94310380FFCD
:1043300004C00E9485210C94742108950E94901F4E
:10434000811102C00E9430200E949B1F809347026F
:104350000E94A31F90938102809380020E949F1F5E
:10436000682F70E080E090E00C94051D809153026E
:1043700008950895CF93DF9300D01F92CDB7DEB795
:1043800090918602943011F589837B836A839093A0
:10439000E9008FEF9091E800815095FD06C095ED02
:1043A0009A95F1F700008111F5CF8091E80085FF23
:1043B0000DC040E050E063E070E0CE0101960E9445
:1043C00038248091E8008E778093E8000F900F905A
:1043D0000F90DF91CF910895CF93DF93EC010E946E
:1043E0001B24823011F0843031F4BE0184E0DF916F
:1043F000CF910C94BA21DF91CF910895BC0183E055
:104400000C94BA21CF93DF93EC010E941B248230DD
:1044100011F0843039F581E08093E9008FEF9091BD
:10442000E800815095FD06C095ED9A95F1F70000E2
:104430008111F5CF8091E80085FF14C040E050E085
:1044400068E070E0CE010E9438248091E8008E7709
:104450008093E80088E0FE01ABE4B2E001900D92A9
:104460008A95E1F7DF91CF910895CF93603219F5E6
:10447000209186022430F9F4C091E900CF70309188
:10448000EC00232F217030FD20E8C22B22E0209386
:10449000E9002091E80020FF0BC040E050E060E21E
:1044A00070E00E9438248091E8008E778093E800C5
:1044B000CF70C093E900CF9108958091850281115A
:1044C00009C00E9414260E9471268091E200846037
:1044D0008093E2000895109285020895089508954A
:1044E0000C94E42042E061EC81E00E948D2542E2E0
:1044F00061EC84E00E948D2542E261EC82E00E9442
:104500008D2542E260EC83E00C948D258091880239
:10451000833009F462C030F4813071F0823009F4E4
:104520009BC008958A3009F487C08B3009F46DC0B0
:10453000893009F0A9C020C080918702813A09F032
:10454000A3C08091E800877F8093E80080918B0270
:1045500090918C02892B21F468E08BE492E003C0F7
:1045600060E080E090E070E00E94CE248091E8005E
:104570008B778093E800089580918702813209F05B
:1045800083C080918B0290918C02009719F0029762
:1045900009F07AC08091E800877F8093E8008091DD
:1045A000E80082FD05C0809186028111F8CF6CC0C1
:1045B0002091F3008091F20090E0922B029729F471
:1045C0008091F1008B7F813021F48091F100809304
:1045D00053028091E8008B7753C080918702813A23
:1045E00009F052C080918B0290918C02892B09F0C6
:1045F0004BC08091E800877F8093E8008091E800BD
:1046000080FFFCCF8091140136C0809187028132F7
:10461000D9F580918B0290918C02892BA9F580911C
:10462000E800877F8093E8000E94C225809189027C
:10463000809314010C940F1980918702813221F527
:104640008091E800877F8093E8000E94C2258091D6
:104650008A0280935402089580918702813AA1F4DE
:104660008091E800877F8093E8008091E80080FFD8
:10467000FCCF809154028093F1008091E8008E7706
:104680008093E8000C94C22508951F93CF93DF9385
:10469000CDB7DEB7A0970FB6F894DEBF0FBECDBF83
:1046A00084B7877F84BF0FB6F894A8958091600087
:1046B000886180936000109260000FBE90E080E8F7
:1046C0000FB6F89480936100909361000FBE0E9432
:1046D00094140E9414260E9471268091E200846046
:1046E0008093E20078940E9406290E949E148AE03A
:1046F00091E00E943C1413E080918602853069F4B9
:104700000E94A120809184028823B1F30E94892015
:10471000882391F30E942224EFCF0E94AC14809151
:104720008602843049F71093E9008091E80082FF07
:10473000E3CF8091E80085FF0AC040E050E060E2EE
:1047400070E0CE0101960E94832491E001C090E0C8
:104750008091E8008B778093E800992369F260E20A
:10476000CE0101960E94DB0FC7CF0C94B723292FEF
:10477000332723303105C9F060F42130310581F051
:104780002230310509F047C08BE590E02EEC34E093
:1047900046C02132310511F12232310561F13BC0B1
:1047A00082E190E029E235E03AC099278130910515
:1047B00061F040F08230910559F0039761F5EAE924
:1047C000F4E008C0EAECF4E005C0EEEAF4E002C070
:1047D000E0EAF4E0849190E09F0121C0633071052C
:1047E000D0F4660F771FFB01EB54FE4F208131811F
:1047F00089E090E014C06330710568F4FB01EE0FAE
:10480000FF1FE155FE4F20813181FB01E455FE4F32
:10481000808190E004C080E090E020E030E0FA0188
:1048200031832083089580918602843011F081E0E5
:10483000089582E0089580915502811102C00C9480
:104840001324089580E189BD82E189BD09B400FE89
:10485000FDCF8091D8008F7D8093D8008091E000BB
:1048600082608093E0008091E00081FDFCCF08959C
:10487000CF92DF92EF92FF920F931F93CF93DF932C
:10488000EC018B017A010E94E125811133C0E11412
:10489000F10439F0F70180819181081B190BC80FD1
:1048A000D91FC12CD12C0115110519F18091E800F7
:1048B00085FD16C08091E8008E778093E800E114B2
:1048C000F10449F0F70180819181C80ED91ED1828F
:1048D000C08285E00FC00E94E125882321F30AC031
:1048E00089918093F10001501109FFEFCF1ADF0A7F
:1048F000DACF80E0DF91CF911F910F91FF90EF9081
:10490000DF90CF900895CF92DF92EF92FF920F93B6
:104910001F93CF93DF93EC018B017A010E94E12575
:10492000811133C0E114F10439F0F70180819181E4
:10493000081B190BC80FD91FC12CD12C011511054B
:1049400019F18091E80085FD16C08091E8008B7711
:104950008093E800E114F10449F0F701808191812E
:10496000C80ED91ED182C08285E00FC00E94E12509
:10497000882321F30AC08091F10089930150110925
:10498000FFEFCF1ADF0ADACF80E0DF91CF911F91DE
:104990000F91FF90EF90DF90CF90089520918D02BE
:1049A00030918E022617370748F06115710539F4EA
:1049B0002091E8002E772093E80001C0B901FC01A6
:1049C00020E06115710579F1809186028823F1F16B
:1049D0008530F1F18091E80083FD3CC08091E800D2
:1049E00082FD2EC08091E80080FFEBCF2091F30084
:1049F0008091F20090E0922B6115710551F08830A2
:104A0000910538F421912093F100615071090196CC
:104A1000F3CF21E0089709F020E08091E8008E773D
:104A20008093E800CECF2111CFCF0AC080918602BB
:104A3000882361F0853061F08091E80083FD0AC031
:104A40008091E80082FFF2CF80E0089582E008952F
:104A500083E0089581E0089520918D0230918E02C7
:104A60002617370748F06115710539F42091E800E1
:104A70002E772093E80001C0B901FC0120E0611508
:104A8000710591F180918602882309F440C0853038
:104A900009F43FC08091E80083FD3DC08091E800AB
:104AA00082FD2FC08091E80080FFE9CF2091F300C4
:104AB0008091F20090E0922B6115710559F08830D9
:104AC000910540F424912093F100319661507109D1
:104AD0000196F2CF21E0089709F020E08091E800EC
:104AE0008E778093E800CBCF2111CCCF0AC0809184
:104AF0008602882361F0853061F08091E80083FDB3
:104B00000AC08091E80082FFF2CF80E0089582E041
:104B1000089583E0089581E00895982F973068F50F
:104B20009093E900981739F07091EC002091ED0016
:104B30005091F00003C0242F762F50E021FD02C0D9
:104B40009F5FECCF3091EB003E7F3093EB003091D4
:104B5000ED003D7F3093ED003091EB0031603093FC
:104B6000EB007093EC002093ED005093F000209147
:104B7000EE0027FDE5CF80E008958F708093E90077
:104B800081E008958091870287FF11C08091E8003D
:104B900082FD05C0809186028111F8CF11C08091FD
:104BA000E8008B770BC080918602882349F08091C2
:104BB000E80080FFF8CF8091E8008E778093E800CE
:104BC00008952091E4003091E50095E64091EC00D5
:104BD000842F817040FF23C08091E80080FD1DC0BC
:104BE00080918602882399F0853099F08091EB00BE
:104BF00085FD11C04091E4005091E5002417350770
:104C000029F3915011F09A01E1CF84E0089582E0F8
:104C1000089583E0089581E0089580E0089540912B
:104C2000E80042FFDDCF08950E9482260E948A2676
:104C3000E0EEF0E0808181608083E8EDF0E080814B
:104C40008F77808319BCA7EDB0E08C918E7F8C9319
:104C500080818F7E80831092850208950F931F9329
:104C6000CF93DF930E9482260E948A26C8EDD0E06F
:104C700088818F77888388818068888388818F7D09
:104C8000888319BC109286021092820210928402CC
:104C90001092830200EE10E0F80180818B7F808308
:104CA00088818160888342E060E080E00E948D25F9
:104CB000E1EEF0E080818E7F8083E2EEF0E08081A3
:104CC00081608083808188608083F80180818E7F0D
:104CD0008083888180618883DF91CF911F910F91BC
:104CE0000895E8EDF0E080818F7E8083E7EDF0E0CD
:104CF00080818160808384E082BF81E0809385022F
:104D00000C942E26E8EDF0E080818E7F8083109257
:104D1000E20008951092DA001092E10008951F92C7
:104D20000F920FB60F9211242F933F934F935F93DF
:104D30006F937F938F939F93AF93BF93EF93FF9363
:104D40008091E10082FF0BC08091E20082FF07C0EA
:104D50008091E1008B7F8093E1000E940529809182
:104D6000DA0080FF1FC08091D80080FF1BC08091B7
:104D7000DA008E7F8093DA008091D90080FF0DC029
:104D800080E189BD82E189BD09B400FEFDCF81E0EB
:104D9000809386020E945D2205C019BC1092860293
:104DA0000E946B228091E10080FF19C08091E20097
:104DB00080FF15C08091E2008E7F8093E200809199
:104DC000E20080618093E2008091D800806280934D
:104DD000D80019BC85E0809386020E946F228091E2
:104DE000E10084FF30C08091E20084FF2CC080E1AC
:104DF00089BD82E189BD09B400FEFDCF8091D80054
:104E00008F7D8093D8008091E1008F7E8093E100B8
:104E10008091E2008F7E8093E2008091E2008160C9
:104E20008093E20080918202882311F084E007C021
:104E30008091E30087FD02C081E001C083E08093A0
:104E400086020E9470228091E10083FF29C0809138
:104E5000E20083FF25C08091E100877F8093E1001D
:104E600082E080938602109282028091E1008E7F20
:104E70008093E1008091E2008E7F8093E200809138
:104E8000E20080618093E20042E060E080E00E9406
:104E90008D258091F00088608093F0000E946E2242
:104EA000FF91EF91BF91AF919F918F917F916F9102
:104EB0005F914F913F912F910F900FBE0F901F90D8
:104EC00018951F920F920FB60F9211242F933F93B4
:104ED0004F935F936F937F938F939F93AF93BF9302
:104EE000CF93DF93EF93FF93C091E900CF70809150
:104EF000EC00D82FD17080FDD0E81092E9008091AD
:104F0000F000877F8093F00078940E94A52710928C
:104F1000E9008091F00088608093F000CD2BCF7085
:104F2000C093E900FF91EF91DF91CF91BF91AF91D5
:104F30009F918F917F916F915F914F913F912F91B1
:104F40000F900FBE0F901F9018951F93CF93DF9374
:104F5000CDB7DEB7AA970FB6F894DEBF0FBECDBFB0
:104F6000E7E8F2E08091F100819322E0EF38F20768
:104F7000C9F70E9486228091E80083FF2EC18091AC
:104F8000870290918802492F50E04A30510508F07D
:104F900024C1FA01E556FF4F0C945729803821F0BF
:104FA000823809F01AC108C080918302909184026E
:104FB000992389F082600FC080918B028F708730B7
:104FC00008F00BC18093E9008091EB0085FB8827F6
:104FD00080F91092E9009091E800977F9093E800A3
:104FE0008093F1001092F100D1C0282F2D7F09F09D
:104FF000F4C0882319F0823061F0EFC080918902FB
:10500000813009F0EAC0933009F080E08093840297
:105010002EC08091890281112AC080918B028F70ED
:105020002FEF280F263008F0D8C08093E900209198
:10503000EB0020FF1CC0933021F48091EB008062D4
:1050400014C09091EB0090619093EB0021E030E070
:10505000A90102C0440F551F8A95E2F74093EA0068
:105060001092EA008091EB0088608093EB00109230
:10507000E9008091E800877F8093E8000E94C225C4
:10508000ACC08111AAC0109189021F778091E30002
:105090008078812B8093E3008091E800877F809364
:1050A000E8000E94C2258091E80080FFFCCF80913B
:1050B000E30080688093E300111102C082E001C028
:1050C00083E08093860289C08058823008F085C0D2
:1050D0008091890290918A028C3D53E0950779F581
:1050E00083E08A838AE289834FB7F894DE011396BE
:1050F00020E03EE051E2E32FF0E050935700E491CE
:1051000020FF03C0E295EF703F5FEF708E2F90E0BD
:10511000EA3010F0C79601C0C0968D939D932F5F23
:10512000243149F74FBF8091E800877F8093E800E2
:105130006AE270E0CE0101960E94CE2416C0609112
:105140008B0270918C02AE014F5F5F4F0E94B523BE
:10515000BC01892B09F441C09091E800977F90939E
:10516000E80089819A810E942C258091E8008B7744
:105170008093E80032C0803881F58091E800877F15
:105180008093E800809182028093F1008091E80092
:105190008E7772CF811121C08091890290918A020D
:1051A00099270297D4F48091E800877F8093E800E4
:1051B00080918902809382020E94C225809182029E
:1051C000811106C08091E30087FD02C081E001C02B
:1051D00084E0809386020E9472228091E80083FF1F
:1051E0000AC08091E800877F8093E8008091EB00FF
:1051F00080628093EB00AA960FB6F894DEBF0FBED4
:10520000CDBFDF91CF911F9108950895CF938091E5
:1052100086028823A1F0C091E900CF709091EC0044
:10522000892F817090FD80E8C82B1092E900809151
:10523000E80083FD0E94A527CF70C093E900CF91BD
:10524000089587FB082E062687FD819567FD6195E9
:105250000E9464290EF4919507FC81950895AA1B7C
:10526000BB1B51E107C0AA1FBB1FA617B70710F051
:10527000A61BB70B881F991F5A95A9F78095909583
:10528000BC01CD01089597FB072E16F4009407D0BA
:1052900077FD09D00E942F2907FC05D03EF4909598
:1052A00081959F4F0895709561957F4F0895EE0FFA
:1052B000FF1F0590F491E02D09946927962769272F
:1052C0007827872778270895991B79E004C0991FCC
:1052D000961708F0961B881F7A95C9F78095089550
:1052E000FC014150504030F001900616D1F7319743
:1052F000CF010895882799270895F999FECF92BD87
:1053000081BDF89A992780B50895A6E1B0E044E000
:1053100050E00C94B729A8E1B0E042E050E00C94D2
:10532000B729262FF999FECF92BD81BDF89A019732
:1053300000B4021639F01FBA20BD0FB6F894FA9ADD
:10534000F99A0FBE08950396272F0E9492290E9472
:105350009129252F0E949229242F0C94922901969D
:10536000272F0E9492290C949129DC01CB01FC018A
:10537000F999FECF06C0F2BDE1BDF89A319600B4AE
:0E5380000D9241505040B8F70895F894FFCFB9
:10538E000102000B000B0B013C02B6210222B921D7
:10539E00FE21EC2101F4F19593F0676636C6E2002A
:1053AE00E900EA00B500B600B700CD008301CC00DD
:1053BE008A0192019401210223022402250226026F
:1053CE0027022A02B300B4006F00700081828300AE
:1053DE0001020202020606060909090909090F0F50
:1053EE000F0F0F0F15151500FF0100010000FFFF35
:1053FE000000010001FF00F535F634E200E900EA95
:10540E0000B500B600B700CD008301CC008A019232
:10541E000194012102230224022502260227022AD8
:10542E0002B300B4006F0070008182834022328F7D
:0C543E00053B055D05E004F904190500BC
:00000001FF
