:100000000C94DC060C9423070C9423070C94230710
:100010000C9423070C9423070C9423070C942307B8
:100020000C9423070C9423070C94E22D0C94B42E0B
:100030000C945E250C9423070C9423070C9423073F
:100040000C9423070C9423070C9423070C94230788
:100050000C9423070C94B7250C9423070C942307C6
:100060000C9423070C9423070C9423070C94230768
:100070000C9423070C9423070C9423070C94230758
:100080000C9423070C9423070C9423070C94230748
:100090000C9423070C9423070C9423070C94230738
:1000A0000C9423070C9423070C9423071B131E1393
:1000B00023132A132F13341339133E1343134813F6
:1000C0004D135213561359135C135F1362136913C4
:1000D00069136913361B361B681B681BB51BE91CAB
:1000E000E91CE91CD31B681C791C791CD91CE91C70
:1000F000E91CE21C881D881D9A1D9A1D911D9A1DE0
:100100009A1D9A1D881D881D961D9A1D9A1D961D63
:10011000212F482F4030482F4030942FB72F4030A8
:100120000E301D300400050006000700080009001D
:100130000A000B000C000D000E000F001000110053
:100140001200005716001900000000000100C35CF7
:10015000C45CC25CCA5CC95CC65CC55CC85CC75C8C
:100160000100010001000100005C015700000000D7
:100170000000000044454255473A206469736162BB
:100180006C65642E0A0044454255473A20656E610D
:10019000626C65642E0A007267626C69676874201D
:1001A00074696D65722064697361626C652E0A0002
:1001B0007267626C696768742074696D6572206526
:1001C0006E61626C65642E0A007267626C696768B2
:1001D000742073657420687376205B4E4F454550DC
:1001E000524F4D5D3A2025752C25752C25750A003A
:1001F0007267626C696768742073657420687376CF
:10020000205B454550524F4D5D3A2025752C257594
:100210002C25750A007267626C69676874206469CE
:100220007361626C65205B4E4F454550524F4D5D8A
:100230003A207267626C696768745F636F6E6669A3
:10024000672E656E61626C65203D2025750A00721F
:1002500067626C696768742064697361626C6520A9
:100260005B454550524F4D5D3A207267626C69673D
:1002700068745F636F6E6669672E656E61626C6538
:10028000203D2025750A007267626C6967687420DA
:10029000656E61626C65205B4E4F454550524F4D17
:1002A0005D3A207267626C696768745F636F6E663F
:1002B00069672E656E61626C65203D2025750A00B8
:1002C0007267626C6967687420656E61626C652034
:1002D0005B454550524F4D5D3A207267626C6967CD
:1002E00068745F636F6E6669672E656E61626C65C8
:1002F000203D2025750A007267626C69676874206A
:10030000746F67676C65205B454550524F4D5D3A91
:10031000207267626C696768745F636F6E66696795
:100320002E656E61626C65203D2025750A0072673E
:10033000626C69676874206D6F6465205B4E4F4521
:100340004550524F4D5D3A2025750A007267626C28
:1003500069676874206D6F6465205B454550524F36
:100360004D5D3A2025750A007267626C6967687492
:100370005F696E6974207267626C696768745F6335
:100380006F6E6669672E6D6F6465203D20302E208C
:1003900057726974652064656661756C7420766156
:1003A0006C75657320746F20454550524F4D2E0A71
:1003B000007267626C696768745F696E6974206552
:1003C00065636F6E666967206973206E6F74206560
:1003D0006E61626C65642E0A007267626C696768A0
:1003E000745F696E6974207374617274210A00729B
:1003F00067626C696768745F696E69742063616CB9
:100400006C65642E0A007267626C696768745F636A
:100410006F6E6669672E7370656564203D20256484
:100420000A007267626C696768745F636F6E666901
:10043000672E76616C203D2025640A007267626C2D
:10044000696768745F636F6E6669672E7361742095
:100450003D2025640A007267626C696768745F6397
:100460006F6E6669672E687565203D2025640A00F9
:100470007267686C696768745F636F6E6669672E20
:100480006D6F6465203D2025640A007267626C69A7
:100490006768745F636F6E6669672E656E61626C14
:1004A00065203D2025640A007267626C6967687484
:1004B0005F636F6E66696720454550524F4D3A0A3B
:1004C000007F3F1F643214643214783C1E1E140AED
:1004D000052223252628292A2C2D2F303233353684
:1004E000383A3B3D3E4042434547494A4C4E5051C5
:1004F000535557595A5C5E6062646668696B6D6FEC
:1005000071737577797B7D7F81838587898A8C8EEE
:1005100090929496989A9C9E9FA1A3A5A7A8AAACF6
:10052000AEAFB1B3B4B6B8B9BBBCBEBFC1C2C3C530
:10053000C6C7C9CACBCCCDCED0D1D2D2D3D4D5D6D2
:10054000D7D7D8D9D9DADADBDBDBDCDCDCDCDCDD05
:10055000DDDDDDDCDCDCDCDCDBDBDBDADAD9D9D8E9
:10056000D7D7D6D5D4D3D2D2D1D0CECDCCCBCAC981
:10057000C7C6C5C3C2C1BFBEBCBBB9B8B6B4B3B1B0
:10058000AFAEACAAA8A7A5A3A19F9E9C9A9896944B
:1005900092908E8C8A89878583817F7D7B79777520
:1005A00073716F6D6B6968666462605E5C5A5957FF
:1005B000555351504E4C4A4947454342403E3D3BBE
:1005C0003A3836353332302F2D2C2A292826252348
:1005D00022000101010101010101010202020202E6
:1005E00002020202030303030303030304040404DB
:1005F00004040405050505050606060606070707A3
:10060000070708080808090909090A0A0A0B0B0B59
:100610000C0C0C0D0D0D0E0E0E0F0F0F10101111F6
:10062000111212131314141515161617171818197A
:10063000191A1A1B1B1C1D1D1E1E1F2020212222E1
:10064000232424252626272829292A2B2C2D2D2E24
:100650002F30313232333435363738393A3B3C3D3E
:100660003E3F404142434445464748494A4C4D4E2F
:100670004F50515354555658595A5B5D5E5F6162F5
:1006800064656668696B6C6D6F7072737577787A84
:100690007B7D7E8082838587888A8C8E8F919395DF
:1006A00096989A9C9EA0A2A3A5A7A9ABADAFB1B303
:1006B000B5B7BABCBEC0C2C4C6C9CBCDCFD1D4D6E3
:1006C000D8DBDDDFE2E4E7E9EBEEF0F3F5F8FAFD85
:1006D000FF0A002530325820006B6579626F617225
:1006E000645F7265706F72743A20000A00253032C0
:1006F00058006B6579626F6172645F7365745F6CDB
:1007000065643A20003F00433E20004C25640A0007
:1007100074696D65725F72656164333228293A20AD
:100720002530346C580A006B6579626F6172645FC2
:1007300069646C653A2025580A006B6579626F61BF
:1007400072645F70726F746F636F6C3A2025580A21
:1007500000686F73745F6B6579626F6172645F6C60
:1007600065647328293A2025580A000A092D205368
:100770007461747573202D0A004743433A20352E67
:10078000342E30204156522D4C4942433A20322ECD
:10079000302E30204156525F415243483A20617614
:1007A00072350A004F5054494F4E533A204C55462B
:1007B000412045585452414B455920434F4E534FC9
:1007C0004C4520434F4D4D414E4420343039360A7C
:1007D000004255494C443A2022302E382E313333D2
:1007E0002D3237312D673762386130312D646972AF
:1007F000747922202832323A32343A3030204A7525
:100800006E2020322032303230290A005649443AD4
:1008100020307846454544284A6F7368204A6F68FF
:100820006E736F6E29205049443A2030783846372D
:100830003328487562313629205645523A2030789F
:10084000303030310A00444553433A204D616372E1
:100850006F205061642077697468205553422048A6
:10086000756220616E6420456E636F646572730A01
:10087000000A092D2056657273696F6E202D0A00DB
:100880000A092D20436F6E736F6C65202D0A455346
:10089000432F713A09717569740A000A092D204DB8
:1008A00061676963202D0A443A09446562756720CF
:1008B0004D65737361676520546F67676C650A588F
:1008C0003A094D6174726978204465627567204DFC
:1008D0006F646520546F67676C65202D2053686FC7
:1008E00077206B65797072657373657320696E200C
:1008F0006D617472697820677269640A4B3A094BBA
:100900006579626F61726420446562756720546F17
:1009100067676C65202D2053686F77206B65797051
:1009200072657373207265706F72740A4D3A094470
:1009300065627567204D6F75736520546F67676CCE
:10094000650A563A0956657273696F6E0A533A0919
:100950005374617475730A433A094163746976612B
:10096000746520436F6E736F6C65204D6F64650A0C
:1009700046312D4631303A095377697463682074E3
:100980006F204C6179657220302D39202846313036
:10099000203D204C30290A302D393A0953776974AB
:1009A000636820746F204C6179657220302D390A9C
:1009B00047524156453A0953776974636820746F0A
:1009C000204C6179657220302028616C7465726EEC
:1009D000617465290A423A094A756D7020746F2066
:1009E000426F6F746C6F616465720A4553433A09D4
:1009F0004A756D7020746F20426F6F746C6F616404
:100A000065722028616C7465726E617465290A458F
:100A10003A095072696E7420454550524F4D20532B
:100A2000657474696E67730A4253504143453A09CD
:100A3000436C65617220454550524F4D0A000A00D3
:100A40002575002E6E6B726F3A20000A0025750026
:100A50002E737761705F6261636B736C6173685F43
:100A60006261636B73706163653A20000A002575EB
:100A7000002E737761705F67726176655F6573637F
:100A80003A20000A002575002E6E6F5F6775693A7F
:100A900020000A002575002E737761705F72616C0B
:100AA000745F726775693A20000A002575002E731D
:100AB0007761705F6C616C745F6C6775693A200078
:100AC0000A002575002E737761705F7263746C5F26
:100AD000726775693A20000A002575002E737761E8
:100AE000705F6C63746C5F6C6775693A20000A0014
:100AF0002575002E636170736C6F636B5F746F5F3D
:100B0000636F6E74726F6C3A20000A002575002EB8
:100B1000737761705F636F6E74726F6C5F63617027
:100B2000736C6F636B3A20000A0025303258006BFB
:100B300065796D61705F636F6E6669672E7261774C
:100B40003A20000A002575002E6D6F7573653A20F6
:100B5000000A002575002E6B6579626F6172643A38
:100B600020000A002575002E6D61747269783A20A4
:100B7000000A002575002E656E61626C653A2000E2
:100B80000A00253032580064656275675F636F6ED6
:100B90006669672E7261773A20000A002575006445
:100BA000656661756C745F6C617965723A20003FAF
:100BB000000A6D6F7573653A206F66660A000A6DEC
:100BC0006F7573653A206F6E0A000A6B6579626F04
:100BD0006172643A206F66660A000A6B6579626F1B
:100BE0006172643A206F6E0A000A6D6174726978EE
:100BF0003A206F66660A000A6D61747269783A205D
:100C00006F6E0A000A64656275673A206F66660A4D
:100C1000000A64656275673A206F6E0A000A0A4A24
:100C2000756D70696E6720746F20626F6F746C6F82
:100C3000616465722E2E2E2000433E2000436C65B9
:100C40006172696E6720454550524F4D0A006565D7
:100C5000636F6E6669673A0A005B735D004B657986
:100C6000626F6172642073746172742E0A005B5744
:100C70005D005B535D005B525D005B445D005B4368
:100C80005D000403300000000C03480075006200A2
:100C90003100360000001A034A006F00730068003C
:100CA00020004A006F0068006E0073006F006E0045
:100CB00000000403090409025B00030100A0FA0913
:100CC000040000010301010009211101000122407B
:100CD000000705810308000A090401000103000060
:100CE00000092111010001223200070582032000C2
:100CF0000A09040200020300000009211101000199
:100D000022220007058303200001070503032000BA
:100D1000011201100100000008EDFE738F010001B7
:100D20000203010631FF0974A1010975150026FFB0
:100D3000009520750881020976150026FF00952090
:100D400075089102C005010980A101850319012AD6
:100D5000B700150126B700950175108100C0050C7C
:100D60000901A101850419012AA002150126A0028A
:100D7000950175108100C005010906A1010507193B
:100D8000E029E71500250195087501810295017597
:100D90000881010507190029FF150026FF009506A7
:100DA000750881000508190129059505750191024D
:100DB000950175039101C00011241FBECFEFDAE049
:100DC000DEBFCDBF04B603FE27C08091D002909154
:100DD000D102A091D202B091D3028730904BA740AC
:100DE000B04BD1F41092D0021092D1021092D202E4
:100DF0001092D30214BE84B7877F84BF0FB6F894D5
:100E0000A8958091600088618093600010926000D6
:100E10000FBEE0E0F8E3099511E0A0E0B1E0E4E204
:100E2000F2E602C005900D92A23FB107D9F722E089
:100E3000A2EFB1E001C01D92A03DB207E1F70E9410
:100E4000082B0C9410310C940000FF93EF93E09169
:100E5000F201F091F301309709F00995EF91FF91BC
:100E60000895FC018591803011F0EFDFFBCF0895EC
:100E7000FF27E0E230E247FF0CC0419597FF09C031
:100E8000EDE26095709580959095611D711D811DB5
:100E9000911D27FF02C0219530E350E2AA27660F7B
:100EA000771F881F991FAA1FA41710F0A41B639512
:100EB0005A95A9F7AA3008F0A95FA05DAF93F39502
:100EC000611571058105910541F7ED3211F4EF933C
:100ED000F395F21718F43F93F395FBCF8F91B5DF9D
:100EE000FA95E1F70895E991F9918591803021F023
:100EF000853219F0AADFF9CF089520E0E8945591E2
:100F00005532C1F3503311F4689455915A3348F473
:100F1000505390F3220F022E220F220F200D250F87
:100F2000F4CF0EF4219589919991533619F35337E3
:100F300029F1533559F1BC0188279927E8945C368B
:100F400021F48991999168945591543639F446EF7A
:100F50007EF077FF0DC08FEF9FEF0AC055374AE054
:100F600039F0583540E121F0523642E009F0089559
:100F7000FF93EF937DDFEF91FF91B7CFFF93EF9357
:100F8000FC0181918030B9F360DFFBCFFF93EF93D9
:100F900068DFF1CFDF93CF93CDB7DEB72596A3DF20
:100FA000CF91DF910895E82FF0E0EA50FE4F808165
:100FB0000895CF93DF93A0E5B1E045E551E061E00E
:100FC00070E08D91E82FE295EF70F0E021A18F7035
:100FD000EB0102C0CC0FDD1F8A95E2F7CE019C2FFA
:100FE0009095922391A392A1892B82A34A175B0724
:100FF00041F7ACE4B1E040E551E061E070E08D9193
:10100000E82FE295EF70F0E021A18F70EB0102C0B4
:10101000CC0FDD1F8A95E2F7CE019C2F909592238D
:1010200091A392A1892B82A34A175B0741F7EBEFAB
:10103000F1E0A6EFB1E080E092E011921D928E17F0
:101040009F07D9F785E00E948B0CDF91CF910C941C
:10105000E8095F926F927F928F929F92AF92BF92B8
:10106000CF92DF92EF92FF920F931F93CF93DF9374
:1010700060E571E0ABEFB1E020E0A22E22E0B22EFD
:10108000612C01E010E06D015C901C92EB018991F4
:10109000BE01E82FE295EF70F0E021A18F70A8016A
:1010A00002C0440F551F8A95E2F7CA01242B21A3E1
:1010B00022A1942E9094292122A350EA5A95F1F767
:1010C0009CE4E92E91E0F92E40E050E0E7018990A0
:1010D0007E01282D22952F7030E0E90128A17C9017
:1010E00030E0D82DDF7002C035952795DA95E2F70C
:1010F00020FD08C0302F042E01C0330F0A94EAF7F8
:10110000232F01C020E027292C934F5F5F4F4430ED
:101110005105E1F691A1992291A292A1892B82A376
:10112000119681E0F6019081951101C080E0682A56
:10113000AA16BB0609F0A7CF262D45E066EF71E0A1
:101140008BEF91E00E948C0C4091FA011092FA0111
:101150002091F501322F330F3093F5018091F40186
:10116000982F990F9093F4012FB1221F2227221F4D
:10117000232B2093F50189B1881F8827881F892B8D
:101180008093F40191E02F3709F090E08F3711F050
:1011900080E001C082E0892B8093FA0191E048133E
:1011A00001C090E0C62DC92B0E94F2098C2FDF915F
:1011B000CF911F910F91FF90EF90DF90CF90BF9054
:1011C000AF909F908F907F906F905F9008958798D9
:1011D0008F9857985F9808950895089581110BC0CE
:1011E00083E7662321F00E94DD1985E110C00E948B
:1011F000DD1984E10CC0813079F483E7662321F0A6
:101200000E94DD1988E103C00E94DD1987E10E9478
:10121000E31A83E70C94841A08951F93CF93DF9306
:101220008430910540F18337910530F09C012457BB
:10123000310921333105F8F4FB01EC01128111234E
:1012400069F083E70E94DD19809100028F5F80932F
:1012500000028C2F0E94DD1910E00EC00E94841A3B
:1012600080910002815080930002811105C083E7C4
:101270000E94841A01C011E0812FDF91CF911F914C
:1012800008959C013A9521153F4138F5DC01AA27C4
:10129000B270AC01442754709C012227387094FF2F
:1012A0000FC090FF02C080E101C080E0AB2B09F0CD
:1012B0008062452B09F08064232B69F080680BC0A5
:1012C000892F8170AB2B09F08260452B09F0846077
:1012D000232B09F08860FB0109940895CF93DF93D5
:1012E000EC01805E9109089710F0209719F466EFE1
:1012F0007AE102C062E57DE1CE010E9441098C2FB6
:10130000DF91CF910C94DD19CF93DF93EC010E9414
:10131000841ACE01805E9109089710F0209719F485
:101320006DEF7AE102C069E57DE1CE01DF91CF91F9
:101330000C94410981E008950C940D0908950C94D2
:101340009E091F93CF93DF9300D000D01F92CDB79B
:10135000DEB749835A836B833091270289819A8152
:10136000311114C0662359F0222349F00E94BF2294
:10137000182F682F89819A810E946A2203C00E94D7
:101380009422182F69817A81812F04C00E94BF2284
:1013900069817A810F900F900F900F900F90DF91DD
:1013A000CF911F910C94860AFC01262F4081518118
:1013B0006281738184810C94A109CF93DF93EC0146
:1013C00060E00E94D409BE01DF91CF910C949F0987
:1013D0000E94F923811102C00E9499240E94B01337
:1013E0000C94E7080E94EC170E9414140C94EC086B
:1013F00008950C94F80981E008950C94FB09CF93AB
:10140000C82F0E94F9098C2F0E94FD09CF910895E1
:1014100008950E94761D0E94080A2FEF84E39CE045
:10142000215080409040E1F700C000000C94DD2581
:101430000F931F93CF93DF93EC0161E00E94D409D7
:101440008C01BE010E944917BE01C8010E949C097F
:10145000882309F450C0BE01C8010E949017882358
:1014600009F449C0BE01C8010E941D15882309F472
:1014700042C0BE01C8010E945E158823E1F1BE0191
:10148000C8010E9489168823B1F1BE01C8010E94DB
:101490000413882381F18A81882331F101308CE59E
:1014A000180751F00E3D8CE51807D9F001151C45C1
:1014B000D9F40E94090A1FC080918402C82FC095E8
:1014C000C170C0FB80F980938402CC2329F086E8A8
:1014D00091E00E9431070FC084E791E00E9431073C
:1014E0000BC00E94992407C0CE01DF91CF911F91BC
:1014F0000F910C949A09C0E08C2FDF91CF911F912E
:101500000F91089580E090E008950895E72FF0E0AE
:1015100095E0899FE00DF11D1124EE0FFF1FEE0FE6
:10152000FF1FE60FF11DEE0FFF1FEC5DFE4F8591D3
:1015300094910895880F991FFC01E956FE4F8591FB
:1015400094910895CF93DF930E94860A0E94B40B72
:10155000EC018115904508F043C0C11580E4D8071F
:1015600008F0CBC0C03ED10528F5C03CD10508F03D
:10157000B3C0C83AD10578F4C53AD10508F0A4C083
:10158000C130D10509F4ECC008F4E8C0C430D1057D
:1015900008F0E6C0E3C0CF3BD10508F0DFC0C85A71
:1015A000D0E0CC0FDD1FCB5ADE4F0990D881C02D83
:1015B000D464D6C0C11590E2D90750F4C11521E01A
:1015C000D20708F0CDC0C83ED10508F4C9C0C6C0D6
:1015D000C11580E3D80708F086C0CE019F707FC098
:1015E000C11595E5D90708F043C0C11524E5D20718
:1015F00008F09AC0C11582E5D80708F5C11591E534
:10160000D90708F07DC0CE0174E0969587957A954C
:10161000E1F783709C2F937021E030E002C0220F2D
:10162000331F9A95E2F73C68382BCF70C695C69564
:1016300080E2C89FE0011124C22BD32B91C09E01F0
:10164000237033278C2F86958695C115D34508F0D6
:101650005CC0C1E0D0E002C0CC0FDD1F2A95E2F7EC
:1016600020E2829FC0011124C82BD92BDC6878C0EE
:10167000C11529E5D207A0F4C11588E5D80708F0FF
:1016800058C0C11596E5D90708F068C08C2F0E9494
:10169000480C8F71C82FD0E0DC2FCC27D06260C0FF
:1016A000C1152AE5D20708F449C0CE01905681152C
:1016B000904208F053C08D2F8F710E94480CDD2797
:1016C000D0628F71D82B4CC0C55AD0E0CD57DE4FB9
:1016D000C881D0E0D06444C0CE01805C91090E94F2
:1016E0009A0AEC013DC0CE019927D3FF03C0EC015B
:1016F000D86C36C0EC01D06C33C0DF70D06A30C01B
:10170000DC2FCC27C16FD06A2BC0C1E0D0E002C073
:10171000CC0FDD1F2A95E2F720E2829FC001112441
:10172000C82BD92BDA681CC0DC2FCC27C46FD06A39
:1017300017C0DC2FCC27C06FD06A12C08C2F8F70DF
:101740000E94480C94E0D695C7959A95E1F7CF7022
:10175000D0E0DC2FCC27D069C82B02C0C0E0D0E09D
:10176000CE01DF91CF9108958238910569F1B0F4EF
:101770008133910509F46DC048F48932910509F46B
:1017800063C08A32910509F469C0089585339105D3
:1017900009F455C089339105B9F00895833E910548
:1017A00069F138F4803E9105B1F0823E910509F16E
:1017B0000895863E9105A9F1873E9105B9F1843ED1
:1017C000910509F064C023C02091C10220FD4FC0E3
:1017D00021FD4DC008958091C10280FD44C08091DB
:1017E000C20280FF44C08091C10284FD42C083EEEA
:1017F0004DC08091C10282FF38C0F5CF8091C102F7
:1018000082FD33C08091C20280FD31C0ECCF809157
:10181000C20281FF32C08091C10284FD2AC087EEDE
:1018200035C08091C10283FF26C0F5CF8091C102EF
:1018300083FD21C08091C20281FD1FC0ECCF809149
:10184000C10285FD1CC01DC08091C10285FD19C06B
:1018500016C08091C10286FD16C017C08091C102DA
:1018600086FD13C010C089E311C082EE0FC080EE68
:101870000DC080E00BC086EE09C084EE07C089E28F
:1018800005C085E303C08AE201C081E390E00895CA
:101890009091C10292FF0DC0282F2871283019F4B1
:1018A000877F846006C0282F2471243011F48B7F39
:1018B000886093FF0DC0282F2871283119F4877E86
:1018C000846106C0282F2471243111F48B7E886135
:1018D0002091C20220FF0DC0382F3871383019F422
:1018E000877F816006C0382F3171313011F48E7FCF
:1018F000886021FF0DC0282F2871283119F4877EB8
:10190000816106C0282F2171213111F48E7E8861FA
:1019100094FD877E08950895FF920F931F93CF93B0
:10192000DF938C01F62ED72FC42F222349F081E0BC
:10193000809303020E9490259093020280930102FB
:10194000809103028823C1F08091010290910202EC
:101950000E94A825459780F0EF2DFD2FD8014C2F30
:1019600050E0CD01801B910B841795071CF48D91DD
:101970008193F7CF10920302DF91CF911F910F91C6
:10198000FF900895EF92FF920F931F93CF93DF93F1
:10199000F62E472FE82FF0E0711106C0EF52FA4FF4
:1019A0006491762F862F72C0272F30E0EF52FA4FC6
:1019B000E4910E2F10E056E0659FC0011124CFEF97
:1019C000D0E0BE010E948D305BEA5603C001579FF4
:1019D000900D11248F0D911D8F0D911D982F990F32
:1019E000890F7E01E21AF30AE09ED001E19EB00D5C
:1019F000F09EB00D1124489FA0011124452F5527BA
:101A00007E01E41AF50AE09EA001E19E500DF09ED1
:101A1000500D11247E01E81AF108E29EC001E39EF8
:101A2000900DF29E900D1124892F9927C81BD90B78
:101A3000C09FC001C19F900DD09F900D11246230B6
:101A4000710591F048F461157105E1F0613071059F
:101A5000A9F48B2F752F19C06430710561F038F02F
:101A60006630710579F00AC0892F7B2F0EC08E2F4A
:101A70007B2FE52F0AC08E2F792F02C0852F7E2F56
:101A8000EB2F03C08B2F7E2FE92F6E2FDF91CF918D
:101A90001F910F91FF90EF9008950895CF93DF93DA
:101AA000762FE901682F842F0E94C20C7983688306
:101AB0008A83DF91CF91089580919702282F2695F0
:101AC00030E02115310519F48170826005C028319C
:101AD000310524F081708E6280939702089588E02A
:101AE00090E00C94D030CF92DF92EF92FF926B0196
:101AF0007C010E945C0DB701A60188E090E0FF9098
:101B0000EF90DF90CF900C94EE30E7E9F2E083E0C5
:101B1000808311828FEF828383831482608171813D
:101B2000828193810C94730D8091840280FF08C0A0
:101B300088EA94E09F938F930E94CA070F900F90BA
:101B40008091840280FF0FC08091970281701F9264
:101B50008F938BE894E09F938F930E94CA070F9016
:101B60000F900F900F908091840280FF0FC08091A2
:101B7000970286951F928F9380E794E09F938F93AF
:101B80000E94CA070F900F900F900F9080918402CF
:101B900080FF0EC0809198021F928F9386E594E09B
:101BA0009F938F930E94CA070F900F900F900F90F2
:101BB0008091840280FF0EC0809199021F928F93C2
:101BC0008CE394E09F938F930E94CA070F900F902D
:101BD0000F900F908091840280FF0EC080919A0236
:101BE0001F928F9382E294E09F938F930E94CA0783
:101BF0000F900F900F900F908091840280FF0EC085
:101C000080919B021F928F9386E094E09F938F9325
:101C10000E94CA070F900F900F900F900895809127
:101C2000970280FF02C08695089580E00895809114
:101C30009B02833018F48F5F80939B026091970220
:101C4000709198028091990290919A020C94730D70
:101C500080919B02882319F0815080939B026091B0
:101C60009702709198028091990290919A020C9437
:101C7000730D70E00C94AB13609139018091970261
:101C800080FF0AC08091380123E0829FC0011124A7
:101C900084569D4F0C94390E80913A0190913B01EE
:101CA000891780F7E82FF0E09F01220F331FE20F22
:101CB000F31FE456FD4F1182108212828F5FF0CF26
:101CC0009091970290FF16C090913A0120913B01AC
:101CD000921770F4E92FF0E0DF01AA0FBB1FEA0FA3
:101CE000FB1FE456FD4F8183608342839F5FF0CFEB
:101CF0000C943C0E0895CF93DF9300D01F92CDB784
:101D0000DEB79091970290FF0AC09E012F5F3F4F70
:101D10000E944E0D4B8169818A810E94600E0F9056
:101D20000F900F90DF91CF910895CF93DF93EC0147
:101D3000EC81F0E0EF52FB4F4491E7E9F2E0628181
:101D400081810E947B0E8C818F5F8C83DF91CF918C
:101D50000895CF93DF93EC01E7E9F2E043816281DC
:101D60008C810E947B0E8C818F5F8C83DF91CF9161
:101D70000895EF92FF920F931F93CF93DF9300D0BC
:101D80001F92CDB7DEB7182FF62E042FE22E8091CA
:101D9000970280FF5DC0E82FE695F0E0EA57FE4F1E
:101DA000908190930D028E7F823061F49E012F5FAF
:101DB0003F4F812F0E944E0D4B8169818A810E9485
:101DC000600E0CC0923019F400919A0207C0963050
:101DD00019F41091980202C09930D9F31093980227
:101DE000F092990200939A02EE20E9F06091970236
:101DF000709198028091990290919A020E94730DBD
:101E00008091840280FF24C080919A021F928F9358
:101E1000809199021F928F93809198021F928F93C5
:101E200080EF91E00CC08091840280FF11C01F926E
:101E30000F931F92FF921F921F9389EC91E09F9343
:101E40008F930E94CA070FB6F894DEBF0FBECDBFB6
:101E50000F900F900F90DF91CF911F910F91FF90F6
:101E6000EF900895E7E9F2E09181282F43816281A4
:101E700088E0890F0C94B90E81E00C94320FE7E9E9
:101E8000F2E09181282F4381628188EF890F0C94C1
:101E9000B90E81E00C943F0FE7E9F2E0628128E09F
:101EA000620F08F46FEF282F438181810C94B90EE3
:101EB00081E00C944C0FE7E9F2E0628128E0621BBC
:101EC00008F460E0282F438181810C94B90E81E0F1
:101ED0000C945B0FE7E9F2E0438128E0420F08F43D
:101EE0004FEF282F628181810C94B90E81E00C9410
:101EF0006A0FE7E9F2E0438128E0421B08F440E082
:101F0000282F628181810C94B90E81E00C94790FA5
:101F100020E00C94B90EFF920F931F93CF93DF93A1
:101F2000EC01F12C0FEF10E060913C01F616F0F49B
:101F300080913A012F2D30E0280F311DC901880F03
:101F4000991F280F391F24563D4F70E0C8010E9489
:101F5000A130962F8C8140919A0260919902F99E4E
:101F6000800D11240E944E0DF394DECF0E943C0E92
:101F70009A818C8190FF02C08F5F01C081508C8359
:101F8000DF91CF911F910F91FF900895AF92BF9273
:101F9000CF92DF92EF92FF920F931F93CF93DF9335
:101FA000FC01828180FF02C00FEF01C001E010E060
:101FB0004BE0A42E80913C01181708F043C080919B
:101FC0003A01C12ED12CE601C80FD11DCE01880FD8
:101FD000991FC80FD91FC456DD4F198218821A8263
:101FE00034E0E32EF12CB12C809105028B0D8C3066
:101FF0002CF06A2D0E947F30892F05C087FF03C017
:1020000090913C01890F082E000C990BC816D90637
:1020100091F480919A028E9DA0018F9D500D112404
:1020200055954795559547959E01609199028091E8
:1020300098020E944E0DB00EF1E0EF1AF108A1F6E1
:102040001F5FB8CF0E943C0E80910502013031F431
:10205000811102C080913C01815007C090E001963F
:1020600060913C0170E00E94A13080930502DF91F5
:10207000CF911F910F91FF90EF90DF90CF90BF9085
:10208000AF900895CF9380913A0190913B018917C9
:1020900070F4E82FF0E09F01220F331FE20FF31FCF
:1020A000E456FD4F1182108212828F5FF0CFC0E0A4
:1020B00060913C01C617C0F5EC2FF0E070E0CF0155
:1020C0000E94A13020913A01820F20910402022E39
:1020D000000C330B90E0E217F307CCF020913701AE
:1020E000022E000C330B2E173F078CF09C01220FA1
:1020F000331F820F931F9C0124563D4F40919A023B
:1021000060919902809198020E944E0D0BC0FC01D3
:10211000EE0FFF1F8E0F9F1FFC01E456FD4F118233
:1021200010821282CF5FC4CF0E943C0E20913601F4
:1021300080910402820F8093040290913701920FE4
:102140009093370119165CF4082E000C990B4091FE
:102150003C0150E041505109841795071CF021952E
:1021600020933601CF91089560919702669570E0B3
:1021700041E050E08DE391E00E94BB30892B19F4DF
:1021800081E080930E020E94902590930702809335
:1021900006028091840280FF08C080EB91E09F934B
:1021A0008F930E94CA070F900F90089510920E020D
:1021B0008091840280FF08C087E991E09F938F930C
:1021C0000E94CA070F900F9008959091970290FF78
:1021D00054C09170811102C0926006C0883110F025
:1021E0009E6202C0880F982B909397026623B1F0ED
:1021F00060919702709198028091990290919A0251
:102200000E94730D8091840280FF1BC08091970211
:1022100086951F928F938CE493E00BC0809184028B
:1022200080FF0FC08091970286951F928F938EE258
:1022300093E09F938F930E94CA070F900F900F9087
:102240000F9060919702669570E041E050E08DE359
:1022500091E00E94BB30892B19F00E94D61002C079
:102260000E94B41081E08093090240919A0260912B
:102270009902809198020C94880F0895682F90918C
:102280009702969581E0890F883108F081E00C94DF
:10229000E51081E00C943E11682F9091970296957D
:1022A0008FEF890F09F487E10C94E51081E00C941D
:1022B0004C1161E00C94E51080919702816080934D
:1022C00097028091840280FF0DC01F9281E08F935E
:1022D00080EC92E09F938F930E94CA070F900F901B
:1022E0000F900F908091970286950C94591160E0A1
:1022F0000C94E51080910C02811160C080918402E1
:1023000080FF08C08FEE93E09F938F930E94CA07CF
:102310000F900F908091840280FF08C089ED93E0B8
:102320009F938F930E94CA070F900F900E94F923EA
:10233000811110C08091840280FF08C081EB93E07E
:102340009F938F930E94CA070F900F900E94992429
:102350000E94850D0E946F0D609397027093980202
:102360008093990290939A026E7FC1F480918402C7
:1023700080FF08C088E693E09F938F930E94CA076E
:102380000F900F900E94850D0E946F0D6093970231
:10239000709398028093990290939A020E945C0D28
:1023A0000E94940D10920E028091970280FF03C04C
:1023B00086950E94771181E080930C0208958091A8
:1023C00097028160809397028091840280FF0DC004
:1023D0001F9281E08F9387E892E09F938F930E94F2
:1023E000CA070F900F900F900F90809197028695DB
:1023F0000C947711809197028E7F80939702609161
:102400009702709198028091990290919A020E948D
:10241000730D8091840280FF0FC0809197028170BC
:102420001F928F938FE492E09F938F930E94CA072D
:102430000F900F900F900F900E94D6102FEF80E713
:1024400092E0215080409040E1F700C000000C94E1
:102450003C0E8091840280FF10C08091970280958D
:1024600081701F928F9387EF92E09F938F930E94CA
:10247000CA070F900F900F900F908091970280FDE8
:102480000C94FA110C945C11809197028E7F8093CA
:1024900097028091840280FF0CC01F921F9285E1F9
:1024A00092E09F938F930E94CA070F900F900F9016
:1024B0000F900E94D6102FEF80E792E021508040CD
:1024C0009040E1F700C000000C943C0E0F931F9366
:1024D000CF93DF9380910E02882309F475C0809119
:1024E0000D02E0919702E695E81BE0930802823026
:1024F00049F4F0E0E353FB4FE491CE2FD0E005E93F
:102500001EE032C0863049F4F0E0E653FB4FE49120
:10251000CE2FD0E009EA1EE027C0893051F4E695BD
:10252000F0E0E953FB4FE491CE2FD0E00BE81FE041
:102530001BC08F3051F4E695F0E0EC53FB4FE49173
:10254000CE2FD0E006EC1FE00FC0853149F4F0E05B
:10255000EF53FB4FE491CE2FD0E002E410E104C032
:10256000C0EDD7E00DE41DE080910902882389F0D9
:10257000109209020E9490259E0120953095820FAD
:10258000931F909307028093060210920B02109201
:102590000A0280910602909107020E94A8258C17DA
:1025A0009D0790F0E0910602F0910702CE0FDF1F29
:1025B000D0930702C093060286E092E0F801DF9113
:1025C000CF911F910F910994DF91CF911F910F919E
:1025D0000895882311F0FA0101C0FB010994CF93FB
:1025E000DF93C82FD62F0E940F0E8C1740F00E9449
:1025F0000F0E8D1720F4DF91CF910C9449118C2F81
:10260000DF91CF910C9459110F931F93CF93FB013E
:10261000C281CC2309F45BC08C010E9440238272EA
:10262000F801E25CFC45E431F10508F053C0EA5AD8
:10263000FF4F0C94B5300E9429124BC046E551E182
:1026400069E471E104C049E451E166E571E10E9489
:10265000E9123FC049E45FE06CE37FE0F8CF4CE370
:102660005FE069E47FE0F3CF47E65FE068E57FE0A5
:10267000EECF48E55FE067E67FE0E9CF45E85FE061
:1026800066E77FE0E4CF46E75FE065E87FE0DFCF25
:1026900048E25EE067E17EE0DACF47E15EE068E2D3
:1026A0007EE0D5CF81E00E94591113C065E082E041
:1026B0000BC068E086E008C06EE089E005C064E118
:1026C0008FE002C067E185E10E94EF1202C0C1E025
:1026D00001C0C0E08C2FCF911F910F9108955AB186
:1026E000E42FEF7021E030E001C0220FEA95EAF715
:1026F000352F322B3AB942954F70E42FF0E032A1DA
:10270000422F4095342342A1242B4FB7F894FC016B
:10271000CB01880F991F680F791F6E0F7F1FE61777
:10272000F70789F0819198E02BB9000000C087FF7E
:102730003BB9880F000000C000C000C03BB900C01A
:102740009A9591F7ECCF4FBF87EC90E00197F1F7A6
:1027500000C00000089541E90C946F130C94EE083A
:10276000FF920F931F93CF93DF93C3E1D2E040EB2F
:1027700051E02EEA31E061E070E0F2E0C531DF07C0
:1027800009F44CC0FA010191AF01A02FA295AF70DE
:10279000B0E09196EC9191970F70CB01002E01C0A3
:1027A000880F0A94EAF7982F90959E2391969C9310
:1027B000919792969C919297892B92968C9392974F
:1027C000F90111919F01E12FE295EF70F0E0F1A086
:1027D0001F70CB01012E01C0880F0A94EAF7982FD1
:1027E00090959F2191A392A1892B82A390968C9181
:1027F00090E002C0959587950A95E2F78170E0A177
:10280000F0E002C0F595E7951A95E2F7E0FD02C009
:1028100090E001C092E0892B8993AFCFDF91CF91F7
:102820001F910F91FF9008955F926F927F928F9208
:102830009F92AF92BF92CF92DF92EF92FF920F934F
:102840001F93CF93DF9383E1682E82E0782E90EB85
:10285000E92E91E0F92E0EEA11E021E1822E22E02C
:10286000922ECFE0D2E063015301512CD501ED91BE
:102870005D014E2F440F440FF60141936F01D701C4
:102880002D917D01E22FE295EF70F0E080A190E0C4
:102890002F7002C0959587952A95E2F78170992748
:1028A000F80151918F01E52FE295EF70F0E020A142
:1028B00030E05F7002C0359527955A95E2F7F9012F
:1028C000E170FF2720FF02C0E2E0F0E0E82BF92BE7
:1028D000E42BD301ED933D01EF70F0E0E256FE4FA3
:1028E0009081F4018081890F808384303CF088815D
:1028F0008F5F888360E0852D0E94AE13D4018C9198
:102900008D3F3CF488818150888361E0852D0E9451
:10291000AE13F4018081837887FF03C081508C6FF0
:102920008F5FD4018D934D0153942196B2E05B12D9
:102930009DCFDF91CF911F910F91FF90EF90DF908E
:10294000CF90BF90AF909F908F907F906F905F904F
:1029500008950F931F93CF93DF93C62FD42F122F79
:10296000FC0182818823C9F0609317020E949025A0
:10297000909316028093150280E28C0F883008F045
:1029800057C0C77081E001C0880FCA95EAF7DF9190
:10299000CF911F910F910C94F61A80911702681332
:1029A00030C080911502909116020E94A825883CA3
:1029B000910538F500E20D0FCD17B9F080E28C0FCC
:1029C000883040F4C77081E001C0880FCA95EAF7EB
:1029D0000E94FD1A083028F581E09D2F977001C0F4
:1029E000880F9A95EAF70E94F61A812F0E94E31A3F
:1029F0000830F0F4D77081E001C0880FDA95EAF76B
:102A00000AC080E28C0F883098F4C77081E001C062
:102A1000880FCA95EAF7DF91CF911F910F910C941F
:102A2000FD1A812FDF91CF911F910F910C94E31A22
:102A3000DF91CF911F910F9108959C01CB01233F0E
:102A40004CE53407F9F078F4283DFCE53F07B9F090
:102A5000293D4CE5340711F1273D3C4531F526E28F
:102A600041EE61EE1EC0253FFCE53F0799F070F096
:102A7000263F3C45D1F427E245EE66EE12C027E240
:102A800045EE0EC026E241EE60EE0BC027E245EEB9
:102A900064EE07C026E241EE62EE03C028E241E0A8
:102AA00065EE0E94A91480E00895FC0182818823CC
:102AB00019F010921702089581E00895CF93DF93E3
:102AC000EC01FB018281882309F41FC1C230FCE5BF
:102AD000DF0708F41BC1C6319CE5D90738F09E0119
:102AE0002A5F3C452930310508F010C10E940C24B2
:102AF0009093C2028093C102C031ECE5DE0709F475
:102B0000C3C008F041C0C8308CE5D80709F49AC0AA
:102B1000F0F4C430ECE5DE0709F487C068F4C23095
:102B20008CE5D80709F477C0C330DC4509F0E3C071
:102B30008091C102826076C0C630ECE5DE0709F400
:102B40006EC008F07BC08091C10288606BC0CC3041
:102B50008CE5D80709F485C068F4CA30ECE5DE07D7
:102B600009F474C008F079C00E94761D8091C102FA
:102B7000806858C0CE308CE5D80709F476C008F0DC
:102B80007FC08091C1028BC0CB3FECE5DE0709F42A
:102B90004FC018F5C3318CE5D80709F47DC078F42F
:102BA000C131ECE5DE0709F473C0C231DC4509F040
:102BB000A2C00E94761D8091C1028F7733C0C531BB
:102BC0008CE5D80709F472C008F486C0CA3FDC451A
:102BD00009F091C08091C2023EC0CF3FFCE5DF0703
:102BE00009F45FC058F4CD3F9CE5D90709F444C00F
:102BF00008F43FC08091C20282602DC0C130FDE563
:102C0000DF0709F475C008F45DC0C230DD4509F086
:102C100072C080E06EC08091C102816003C080916B
:102C2000C10280618093C10266C08091C10211C05F
:102C30008091C20282608093C2025DC08091C10215
:102C40008062F0CF8091C1028064ECCF8091C1029C
:102C500088608460E7CF8160EECF8091C1028E7F73
:102C6000E1CF8091C1028D7FDDCF8091C102877F4E
:102C7000D9CF8091C20218C08091C2028D7FDBCF74
:102C80008091C1028F7ECECF8091C1028F7DCACF4D
:102C90008091C1028F7BC6CF8091C102877F8B7FDD
:102CA000C1CF8091C2028D7F8E7FC5CF8091C1023E
:102CB00082FB222720F991E0922790FB82F990FB7A
:102CC00083F9B0CF8091C202982F909591708E7F3A
:102CD000892B90FB81F9AFCF0E94761D8091C102B4
:102CE00087FB222720F991E0922790FB87F99ACF62
:102CF00081E00E949B248091C1029091C2020E94B7
:102D00001D240E94761D80E001C081E0DF91CF91FB
:102D10000895CF93DF9386319C4541F5EB010E94E6
:102D20004023982F8A8120913F01309140018823D0
:102D300079F09A7A81E009F480E080931802911189
:102D400002C069E201C065E3C9010E94E2240AC031
:102D500080911802811102C069E201C065E3C901D6
:102D60000E94E4240E94912380E001C081E0DF9171
:102D7000CF910895CF93DF93EC0181E0898B8F8110
:102D80000E94432388850E9456230E949123EA8152
:102D9000FB81CE010696309729F06C897D89DF9101
:102DA000CF910994DF91CF910895CF93DF93FC01E8
:102DB0002081223039F4FB01EC0182810E94B7218D
:102DC00081E08B87DF91CF910895DB01FC01808149
:102DD000813021F48D919C910C946E09823039F4EC
:102DE0001396ED91FC91149712968C910994089585
:102DF000FC018081813029F4FB01808191810C9458
:102E000084090895EF92FF920F931F93CF93DF935E
:102E1000FC012285211136C0EC01E380F480F7E546
:102E2000FF1A26E12E9DC0012F9D900D1124DC017B
:102E3000A050BF4F1496ED91FC9115978A5F9E4F5D
:102E4000309729F054966D917C915597099586E1BC
:102E50008E9D80018F9D100D112400501F4FF80191
:102E600087810E944923F80180850E945C230E948B
:102E70009123188219861B861E821D8210921A02C7
:102E800010921902DF91CF911F910F91FF90EF9057
:102E90000895DF92EF92FF920F931F93CF93DF93EA
:102EA000FB0122812223A1F120913E012F3F81F1DC
:102EB0008C01C0E0D1E0E12CF12CDD24D394809191
:102EC0003E01082E000C990B8E159F050CF18E818A
:102ED0008823C9F089859A858017910739F48091F4
:102EE000190290911A020817190769F0DF861C87EA
:102EF0000B878989811103C0CE010E94BA16CE01C9
:102F000006960E940217FFEFEF1AFF0A6696D7CFC8
:102F1000DF91CF911F910F91FF90EF90DF90089577
:102F2000EF92FF920F931F93CF93DF939C0137553E
:102F30002F3F310511F008F047C040913E01042EAB
:102F4000000C550B4217530714F420933E01FB016C
:102F50007C01828196E1929F8001939F100D112444
:102F6000E801C050DF4F888B92818E81992311F147
:102F7000FA86E9868F5F8E830E9490259E878D87D3
:102F80000E9476238F830E94402388870E945323C8
:102F90009885892B8887E881F981C8018A5F9E4FCF
:102FA000309719F06C897D890995F0921A02E092A8
:102FB00019020AC0882341F08989882329F0C801B1
:102FC0008A5F9E4F0E94021781E0DF91CF911F918F
:102FD0000F91FF90EF900895CF92DF92EF92FF92C2
:102FE0000F931F93CF93DF9380913E018F3FF1F1B9
:102FF000F12C96E1E92E0F2D10E080913E01082E74
:10300000000C990B801791078CF1E09EF001E19E76
:10301000F00D1124E050FF4FC288D388C114D104B1
:1030200019F488ECC82ED12CE09EE001E19ED00D71
:103030001124C050DF4F8E818823B1F08D859E858D
:103040000E94A825C816D90678F48989811103C081
:10305000CE010E94BA16E09EC001E19E900D11249F
:103060008A5F9E4F0E940217F394C5CFDF91CF91E4
:103070001F910F91FF90EF90DF90CF900895909364
:10308000200280931F020895E0911F02F091200218
:10309000309721F00190F081E02D099480E00895AF
:1030A000EF92FF920F931F93CF93DF93E0911F0254
:1030B000F09120023097B1F18C010280F381E02D74
:1030C00009958091840282FF2DC080FF04C089EDA4
:1030D00096E00E943107E80118E083EDE82E86E0D3
:1030E000F82E8091840280FF0BC088811F928F93FD
:1030F000FF92EF920E94CA070F900F900F900F90CF
:10310000115021961111EDCF8091840280FF0AC0E9
:1031100081ED96E0DF91CF911F910F91FF90EF909D
:103120000C943107DF91CF911F910F91FF90EF9099
:10313000089520911D0230911E022817390771F061
:1031400090931E0280931D02E0911F02F0912002D5
:10315000309721F00680F781E02D099408952091A1
:103160001B0230911C022817390771F090931C0242
:1031700080931B02E0911F02F0912002309721F012
:103180000084F185E02D0994089585B7806885BF96
:1031900085B7806885BF089508950C94CC180C9469
:1031A000CD180C94CC180C94CC180E94C5180E9411
:1031B000D1180C94CF1881E008950C94DB180E946C
:1031C00087250E94D9070E94EE250E947A110C944F
:1031D000D318CF93C82F8091840282FF1EC080FF36
:1031E00004C082EF96E00E9431078091840280FF44
:1031F0000CC01F92CF938DEE96E09F938F930E9409
:10320000CA070F900F900F900F908091840280FF5B
:1032100004C08BEE96E00E9431078C2FCF910C9466
:10322000FF09AF92BF92CF92DF92EF92FF920F937E
:103230001F93CF93DF93CDB7DEB72A970FB6F894DD
:10324000DEBF0FBECDBF0E9429080E94DD1881118C
:1032500011C08FEF89838A831B820E949025816031
:10326000782F9D838C8349815A816B818D810E9447
:10327000A91940C082E2A82E82E0B82E00E010E03A
:10328000C02E802F0E94D307E82EF501D1905F0158
:10329000D82631F40F5F1F4F0530110589F7D9CFBC
:1032A0008091840281FD0E94ED0880E0FF24F39468
:1032B0009D2D9F21D1F08E83CF82EF2081E009F4F4
:1032C00080E088870E9490258160782F9A8789877F
:1032D0004E815F8168858A850E94A919F801EE5D9B
:1032E000FD4F8081F826F08205C08F5FFF0C84308F
:1032F000F9F6D0CF0E9466120E94441890912102E4
:103300008917B1F00E944418809321022A960FB6C3
:10331000F894DEBF0FBECDBFDF91CF911F910F910B
:10332000FF90EF90DF90CF90BF90AF900C94E91892
:103330002A960FB6F894DEBF0FBECDBFDF91CF91B6
:103340001F910F91FF90EF90DF90CF90BF90AF90C3
:103350000895CF93DF93CDB7DEB72B970FB6F894D0
:10336000DEBF0FBECDBF4F83588769877A878B87B3
:10337000DE01119686E0FD0111928A95E9F785E05C
:10338000FE01379601900D928A95E1F749815A81A5
:103390006B817C818D819E810E942F202B960FB6A0
:1033A000F894DEBF0FBECDBFDF91CF910895FC0131
:1033B000808191810E9401230895CF93882309F48D
:1033C000A1C0C82F8238C1F40E94441881FD9AC060
:1033D00069E380913F01909140010E94E2240E94A4
:1033E00091232FEF81EE94E0215080409040E1F74F
:1033F00000C0000069E319C0833801F50E94441839
:1034000080FD80C063E580913F01909140010E9462
:10341000E2240E9491232FEF81EE94E0215080401E
:103420009040E1F700C0000063E580913F0190917A
:1034300040010E94E424CF910C9491238438C1F47C
:103440000E94441882FD5EC067E480913F01909124
:1034500040010E94E2240E9491232FEF81EE94E02C
:10346000215080409040E1F700C0000067E4DDCFCC
:103470008CEF8C0F813AF8F48C2F0E94A8288111D0
:1034800041C06C2F80913F01909140010E94AC247B
:10349000882349F06C2F80913F01909140010E9458
:1034A000E4240E9491236C2F80913F019091400170
:1034B0000E94E224C0CF80E28C0F883048F4C770AD
:1034C00081E001C0880FCA95EAF70E944323B3CF79
:1034D000EBE5EC0FE33040F4F0E0E052FE4F80818A
:1034E00090E0CF910C949918C85AC73158F4EC2F3A
:1034F000F0E0EE0FFF1FEE54FE4F80819181CF91DF
:103500000C94AF18CF910895882309F45BC0682FFD
:10351000823879F40E94441881FF54C069E3809195
:103520003F01909140010E94E2240E94912369E3AF
:1035300010C08338B1F40E94441880FF43C063E593
:1035400080913F01909140010E94E2240E949123CA
:1035500063E580913F01909140010E94E4240C9426
:103560009123843879F40E94441882FF2BC067E4C9
:1035700080913F01909140010E94E2240E9491239A
:1035800067E4E7CF8CEF860F813A18F380E2860F6D
:10359000883048F4677081E001C0880F6A95EAF7C7
:1035A0000E944923DCCF8BE5860F833020F480E036
:1035B00090E00C949918685A673120F480E090E00C
:1035C0000C94AF180895CF93C82F0E94DD19C9330A
:1035D00049F42FEF87EE93E0215080409040E1F7CF
:1035E00000C000008C2FCF910C94841A882321F006
:1035F0000E9443230C9491230895882321F00E9474
:1036000049230C9491230895CF92DF92EF92FF9279
:103610000F931F93CF93DF937C01062FC72FFC01DD
:10362000158112951F70D281D1110E9463230E94CF
:103630003923882379F0DD2369F080E2800F883018
:1036400048F082E00E94DB230E94392391E0D82ECB
:10365000D92601C0D12CCC2EC2948FE0C8228C2D4B
:1036600090E0FC01E659FF4F0C94B5308C2F807F21
:10367000CF70882311F0C295C07FDD2399F0CC2351
:1036800009F482C180E2800F883010F0011104C07B
:103690008C2F0E94432303C08C2F0E9456230E942C
:1036A000912372C1802F0E94841ACC2309F491C106
:1036B00080E2800F883010F0011104C08C2F0E942E
:1036C000492303C08C2F0E945C230E94912381C157
:1036D0008C2F807FCF70803211F0C295C07F002385
:1036E00019F00130C9F022C0DD2371F0112341F03F
:1036F000113031F40E9476238C2B0E947E2369C105
:103700000E9476238C2B1DC0112319F0113009F46F
:1037100060C10E94872325C0DD2321F0163008F008
:1037200058C10EC0153008F054C11BC0DD2361F034
:10373000112331F0F701858180FF26C18F708583C9
:103740008C2F0E94F61A45C1112359F0093309F054
:103750002CC1FFEF27EE83E0F15020408040E1F7DD
:1037600022C18C2F0E94FD1A34C18C2F869586951C
:10377000837019F0813061F02CC1DD2321F0802F9E
:103780009C2F937002C080E090E00E94991829C19C
:10379000DD2321F0802F9C2F937002C080E090E009
:1037A0000E94AF181EC18C2F837009F045C0D11143
:1037B00014C1402F429546954770440F440F602F27
:1037C0006F70862F90E0A0E0B0E0042E04C0880F58
:1037D000991FAA1FBB1F0A94D2F704FF10C00FE065
:1037E00010E020E030E004C0000F111F221F331F43
:1037F0004A95D2F7009510952095309503C000E0CA
:1038000010E09801C695C695C370BC01CD01602B30
:10381000712B822B932BC23049F058F4C13019F030
:103820000E948021DAC00E946E21D7C00E9492219E
:10383000D4C00E946C21D1C0DD2319F08C2F81707F
:1038400001C08695882309F4C8C0402F429546954B
:103850004770440F440F602F6F70862F90E0A0E0F8
:10386000B0E0042E04C0880F991FAA1FBB1F0A9442
:10387000D2F704FF10C00FE010E020E030E004C0F9
:10388000000F111F221F331F4A95D2F70095109584
:103890002095309503C000E010E09801C695C695CC
:1038A000C370BC01CD01602B712B822B932BC230D6
:1038B00049F058F4C13019F00E9445228EC00E9490
:1038C00033228BC00E94572288C00E94A62185C047
:1038D000CF70DD2339F08C2F0E94CC21802F0E94E5
:1038E000F61A7BC0802F0E94FD1A8C2F0E94ED21BA
:1038F00074C0023F01F128F4003F41F0013FA1F004
:103900003FC0033FF9F0043F39F13AC0DD2341F0F5
:10391000153008F05EC08C2F8F710E94122259C0A2
:10392000163008F056C0F7CFDD2339F08C2F8F7199
:103930000E94CC214EC0DD23C9F38C2F8F710E94D1
:10394000ED2147C0DD2329F08C2F8F710E94B72114
:1039500040C00E94B2213DC0DD2349F0CF718C2FC1
:103960000E94CC2163E08C2F0E94C62332C081E0EC
:103970000E94DB23123068F182E00E94DB2329C021
:10398000DD2331F0112391F2802F0E94DD1921C037
:10399000112399F2093349F49FEFE7EEF3E09150D8
:1039A000E040F040E1F700C00000802F0E94841A40
:1039B00010C04C2F4F70602FC7010E94820A0E94D6
:1039C000DD200FC04C2F4F70602FC7010E94850A69
:1039D00008C088EF8C0D843020F40E9444180E94A7
:1039E000FF09DD20C9F00E94352380FD15C0F701D5
:1039F00012820E942F230E94CC21C7010E942D1DFC
:103A00000E942F23DF91CF911F910F91FF90EF9094
:103A1000DF90CF900C94ED21DF91CF911F910F910A
:103A2000FF90EF90DF90CF9008950F931F93CF9367
:103A3000DF93EC01688179818A810E940C238C01DB
:103A40000E9469220E945A21B801CE010E94041BE3
:103A5000DF91CF911F910F910895CF93DF93FC01D8
:103A60009081818123813481232B31F08F3F31F488
:103A700081E09F3F19F403C081E001C080E080FD38
:103A80000EC0EF01CF010E94180A882341F0CE0139
:103A90000E94151DCE01DF91CF910C94DD09DF91BD
:103AA000CF910895882321F00E9456230C949123EE
:103AB0000895882321F00E945C230C94912308959B
:103AC0000E9463230E9473230E94912380E090E070
:103AD0000E94991880E090E00C94AF1880913F010B
:103AE000909140010E94E6240C94601D0E94502396
:103AF0000C946E1DE92FE295EF704E2F50E0FA0105
:103B00003297EE30F105B0F4E658FF4F0C94B53023
:103B1000803F91F018F4883E68F40EC0843F51F461
:103B20000BC0883E48F0813F29F406C093FB8827EC
:103B300080F9089580E0089581E008950E940123AE
:103B40000E947A1D0895CF93DF9300D000D01F927A
:103B5000CDB7DEB70F900F900F900F900F90DF91C1
:103B6000CF910895CF93DF9300D000D000D0CDB790
:103B7000DEB726960FB6F894DEBF0FBECDBFDF913D
:103B8000CF9108951F93CF93DF93C091280216E041
:103B900080912902C81799F0D0E01C9FF0011D9F69
:103BA000F00D1124E65DFD4F4081518162817381EA
:103BB000848195810E94B21D2196C770E9CFDF9163
:103BC000CF911F91089540915A0250915B026091EC
:103BD0005C0270915D0280915E0290915F020C9494
:103BE000B21D0F931F93CF93DF9380915F02829555
:103BF0008F7009F05DC080915C02882309F458C081
:103C0000809128021091290260915A0270915B0202
:103C1000C0915D02D0915E0291E06F3F09F090E0AB
:103C2000292F06E0811709F443C0209721F07F3F38
:103C300021F030E003C031E001C0322F90E030FDD0
:103C400034C0089FF001099FF00D1124DF01A65D2B
:103C5000BD4F11963C911197371327C03C913613F5
:103C600024C012963C91129731111FC013964D91AA
:103C70005C9114974C1B5D0B483C5105B0F480914E
:103C80005F028F70806180935F02E15DFD4F8081F4
:103C90008F70806180838AE592E00E942D1DDF9104
:103CA000CF911F910F910C94C21D01968770BACFCE
:103CB000DF91CF911F910F9108959F92AF92BF9284
:103CC000CF92DF92EF92FF920F931F93CF93DF93E8
:103CD000CDB7DEB761970FB6F894DEBF0FBECDBF8C
:103CE0008C0185E0F801DE011D9601900D928A9508
:103CF000E1F7F80140815181E28090915A02609190
:103D00005B0220915D0230915E022115310531F098
:103D10006F3F31F481E09F3F19F403C081E001C09F
:103D200080E0F82FF1709F2E80FD46C1F801A3803E
:103D3000B4808AE5C82E82E0D82EF0905C02F501AE
:103D4000E21BF30BFF2009F4DFC080915F02E83C27
:103D5000F10508F09BC0282F207F09F052C05613B0
:103D600013C0491311C0FE2CE1100EC08F7080618A
:103D700080935F020E94E31DC6010E942D1D809169
:103D80005F02F801858358C1AB2831F05F3F31F401
:103D900081E04F3F19F403C081E001C080E080FD65
:103DA00003C081E08E2502C080E090E0F82FF17022
:103DB000FF2E80FF1CC0809128022091290236E04E
:103DC000821709F417C190E0389FF001399FF00D78
:103DD0001124E65DFD4F6181561306C060814613D4
:103DE00003C06281E61203C001968770E9CFFE2C02
:103DF000EE2009F421C180915F02816080935F020F
:103E00005AC0561306C0491304C0E11002C0F8019D
:103E10009FC04D875E878D859E850E949E1D88234D
:103E200079F1EE2069F120915F02822F82958F70E7
:103E300090E0029774F080915A0290915B0298870B
:103E40008F831986BB86AA862C87CE0107960E948F
:103E50002D1D86E0F801AAE5B2E001900D928A9549
:103E6000E1F70E94F11D0E94E31D0DC0561729F1D4
:103E70004D875E878D859E850E949E1D81112CC079
:103E8000C8010E942D1DFF24F394D6C0282F207F47
:103E900069F77A2DB98AA88A6E2D89890E94A31D97
:103EA0008AE592E00E942D1D86E0F60111928A9526
:103EB000E9F70E94E31DF12CBFC04913D9CFE110EF
:103EC000D7CFF8018583C8010E942D1D86E0F60139
:103ED00011928A95E9F7B0C0EE2091F220915F022D
:103EE000822F82958F7090E002970CF4B2CF809170
:103EF0005A0290915B029A8389831B82BD82AC82B5
:103F00002E83CE010196A3CFE83CF10508F047C00F
:103F1000FE2CEE2009F4B4CF561330C049132EC046
:103F200020915F0220FD21C0822F82958F70482F43
:103F300050E041155105C9F0F80125834F30510576
:103F400041F08F5F982F9295907F822F8F70892BF1
:103F50008583C8010E942D1D86E0F801AAE5B2E024
:103F600001900D928A95E1F742C086E0F801AAE53A
:103F7000B2E001900D928A95E1F75EC04D875E87B1
:103F80008D859E850E949E1D811163CF80915F0269
:103F9000816080935F02C8010E942D1D4DC07A2D63
:103FA000B98AA88A6E2D89890E94A31D86E0F60130
:103FB00011928A95E9F71BC0EE2009F461CF4D8775
:103FC0005E878D859E850E949E1DF82E882309F4AC
:103FD00057CF86E0F801AAE5B2E001900D928A95EC
:103FE000E1F78AE592E00E94D7190E94F11D0E9434
:103FF000E31D22C04D875E878D859E850E9401232B
:10400000292F22952F70223028F49F7039F08111CA
:1040100005C00BC0243028F49F7049F4805E8830BE
:1040200020F0C8010E942D1D9F2CF92C05C0F8011D
:104030009581907F99F7F9CF8F2D61960FB6F894FF
:10404000DEBF0FBECDBFDF91CF911F910F91FF90CB
:10405000EF90DF90CF90BF90AF909F9008951F9307
:10406000CF93DF93CDB7DEB72C970FB6F894DEBFB2
:104070000FBECDBF4F83588769877A878B879C8710
:10408000CE0107960E945D1E8823D1F09F8188850E
:104090002A853B85232B31F08F3F31F481E09F3F10
:1040A00019F403C081E001C080E080FD47C04F816A
:1040B000588569857A858B859C850E94B21D3EC096
:1040C00086E0FE013796DE01119601900D928A95E9
:1040D000E1F7FF81E8856A857B856115710531F01F
:1040E000EF3F31F481E0FF3F19F403C081E001C0EC
:1040F00080E080FD23C02091290230E0C9010196B3
:10410000877099274091280250E084179507F1F1B4
:10411000F983EA837D836C8396E0929FD001939F1D
:10412000B00D1124A65DBD4FFE01319601900D9298
:104130009A95E1F7809329020E94C21D16E08091B2
:10414000280290912902891771F1189FC00111244A
:10415000865D9D4F0E945D1E882329F1E091280213
:104160001E9FF0011124E65DFD4F40815181628167
:104170007381848195810E94B21D8091280290E014
:1041800001968770992780932802D9CF0E94761DC7
:104190001092290210922802EAE5F2E086E0DF019F
:1041A0001D928A95E9F72C960FB6F894DEBF0FBEE4
:1041B000CDBFDF91CF911F910895EF92FF920F93A2
:1041C0001F93CF93DF938C01892B09F46CC0F12CE2
:1041D000EE24E394E8012196F8018491843740F4B9
:1041E000843008F051C0813081F0823019F15BC019
:1041F000853709F444C0A8F19CE7980F903708F080
:1042000052C08F770E94841A41C00E5F1F4FFE017B
:10421000849190E2980F983050F48770FE2D01C081
:10422000FF0F8A95EAF78F2F0E94662314C00E9421
:10423000DD192DC00E5F1F4FFE01849190E2980F93
:10424000983060F48770FE2D01C0FF0F8A95EAF761
:104250008F2F0E946C230E94912319C00E94841A00
:1042600016C00E5F1F4FFE01C491CC2381F08FE971
:104270009FE00197F1F700C00000C150F6CF0E5F3C
:104280001F4FFE01F49003C00E94DD198E018F2D97
:10429000882309F49FCFEFE9FFE03197F1F700C0E1
:1042A00000008150F5CFDF91CF911F910F91FF90CA
:1042B000EF900895089508950C945B210C945C216F
:1042C0000E945E2160937302709374028093750262
:1042D000909376020C94601D0C9460210F931F93B1
:1042E0000091730210917402209175023091760250
:1042F000602B712B822B932B1F910F910C946021BB
:104300000F931F9300917302109174022091750214
:104310003091760260237123822393231F910F91A2
:104320000C9460210F931F930091730210917402FB
:10433000209175023091760260277127822793279A
:104340001F910F910C9460210C945B210E94A42179
:1043500060936F0270937002809371029093720267
:104360000C94601D60E070E0CB010C94A6210F93CB
:104370001F9341E050E060E070E08A019B0104C0BF
:10438000000F111F221F331F8A95D2F7C901B801F0
:104390001F910F910C94A6210F931F9341E050E0C1
:1043A00060E070E004C0440F551F661F771F8A95B8
:1043B000D2F780916F0290917002A0917102B0913A
:1043C00072028A019B01082B192B2A2B3B2BC90156
:1043D000B8011F910F910C94A6210F931F9341E0F8
:1043E00050E060E070E004C0440F551F661F771F67
:1043F0008A95D2F7409550956095709580916F029F
:1044000090917002A0917102B09172028A019B0199
:10441000082319232A233B23C901B8011F910F91B7
:104420000C94A6210F931F9341E050E060E070E0F0
:1044300004C0440F551F661F771F8A95D2F78091DD
:104440006F0290917002A0917102B09172028A0184
:104450009B01082719272A273B27C901B8011F916B
:104460000F910C94A6210F931F9300916F0210914E
:1044700070022091710230917202602B712B822B9D
:10448000932B1F910F910C94A6210F931F930091D2
:104490006F021091700220917102309172026023BC
:1044A0007123822393231F910F910C94A6210F93C4
:1044B0001F9300916F021091700220917102309150
:1044C000720260277127822793271F910F910C9406
:1044D000A6210895990F990F890FE82FE695E69583
:1044E000E695877051E001C0550F8A95EAF785E09F
:1044F000E89FF0011124E05AFD4F20E030E070E029
:104500004081CB01022E02C0969587950A94E2F76E
:104510008170819584278523842781932F5F3F4F66
:104520002530310569F70895990F990F890F682F84
:10453000669566956695982F977085E0689FB0019F
:10454000112440E050E080E0FB01E40FF51FE05A49
:10455000FD4F208130E0092E02C0369527950A9440
:10456000E2F721703327042E01C0220F0A94EAF7E4
:10457000822B4F5F5F4F4530510531F70895BF9251
:10458000CF92DF92EF92FF920F931F93CF93DF931F
:104590008C01C0906F02D0907002E0907102F09098
:1045A00072028091730290917402A0917502B09191
:1045B0007602C82AD92AEA2AFB2ACFE1D0E0D7011D
:1045C000C6010C2E04C0B695A795979587950A94B9
:1045D000D2F780FD04C0219790F7B12C07C0BC2E04
:1045E000B8018C2F0E94A20A0197A9F38B2DDF91AD
:1045F000CF911F910F91FF90EF90DF90CF90BF90E0
:104600000895CF93DF93EC010E94BF22BE010E9468
:10461000A20ADF91CF9108951F93CF93DF93EB010F
:1046200090912702992321F0CB010E94012313C00E
:10463000882349F0CB010E94BF22182F682FCE019A
:104640000E946A2204C0CB010E949422182FBE014E
:10465000812F0E94A20ADF91CF911F91089580912E
:104660007702859585958595089580917702877065
:10467000089590917702977081E009F480E00895A1
:1046800080918302089590918302892B8093830205
:1046900008958095909183028923809383020895E1
:1046A000109283020895809182020895909182026F
:1046B000892B8093820208958095909182028923AC
:1046C000809382020895109282020895909181024F
:1046D000892B80938102089580959091810289238E
:1046E000809381020895109281020895809178024A
:1046F000089508950C9479230C947A23909178026C
:10470000981721F0809378020C947C23089580916F
:104710007802882329F01092780280E00C947C23A0
:104720000895E0913F01F0914001809183028083E0
:10473000E0913F01F0914001908180918202892BAC
:104740008083E0913F01F09140019081809181024E
:10475000892B808380917802882381F0E0913F014A
:10476000F09140019081892B808380913F0190914D
:1047700040010E94A02481110E94872380913F0163
:10478000909140010C9450180C94792398E0899FE3
:1047900090011124262B209377020E94CC21809136
:1047A00077028595859585950C94C42310927702A0
:1047B00080E00C94C423209177028095822380931B
:1047C0007702982F977079F430E0482F082E000C6C
:1047D000550B2417350739F08595859585950E94E9
:1047E000ED210C94D62308959093F3018093F20168
:1047F000089580E090E00E94D63021E08C3E9E4FEC
:1048000009F020E0822F089582E090E00C94C830F7
:1048100083E090E00C94C830CF9384E090E00E9455
:10482000C830C82F81E290E00E94C8302C2F30E0C1
:10483000A901582BCA01CF910895CF93C92F682F92
:1048400084E090E00E94DC306C2F81E290E0CF9118
:104850000C94DC30AB01BC018FE090E00C94EE30A6
:10486000AB01BC0183E190E00C94EE3060E070E0BD
:10487000CB010C94302460E070E0CB010E942A242C
:104880000C9436246CEE7EEF80E090E00E94FA30CB
:1048900060E082E090E00E94DC3060E083E090E045
:1048A0000E94DC3010927302109274021092750212
:1048B0001092760260E084E090E00E94DC3060E0DC
:1048C00081E290E00E94DC3060E085E090E00E94B0
:1048D000DC3060E086E090E00E94DC306FEF87E043
:1048E00090E00E94DC3040E050E0BA0188E090E0C7
:1048F0000E94EE3060E08DE090E00E94DC3040E00D
:1049000050E0BA0188E190E00E94EE3060E087E17B
:1049100090E00E94DC3040E050E0BA018CE190E091
:104920000E94EE3060E080E290E00E94DC300C9467
:104930003B240C944224682F8EE090E00C94DC30F1
:10494000FC01329697E080E0915029F021912223DA
:10495000D9F38F5FF9CF0895662349F0FC013296B1
:1049600008962191621729F0E817F907D1F780E03E
:10497000089581E008959C01FC0132969FEF80E04C
:104980004191461789F09F3F19F4411101C0982FBA
:104990008F5F8630A9F79F3F39F0F901E90FF11DCC
:1049A00097FDFA956283089508959C012A5F3F4F11
:1049B000FC014281461301C01282019682179307BF
:1049C000B9F708950C94BB240C94D524029626E0E4
:1049D000FC0111922A95E9F7089508950C94ED24AD
:1049E0000C94ED24CF930E94F0240E9429080E9489
:1049F000EE24C0E08C2F0E94D307811104C0CF5F4A
:104A0000C530C1F701C081E0CF9108950C94ED2429
:104A10000C9406250E9408258091C702843009F471
:104A200039C01092850220E488E190E00FB6F89436
:104A3000A895809360000FBE2093600080E00E94E4
:104A4000FF090E94D6108091860281110AC081E080
:104A500080938602809197028170809387020E94E2
:104A600044120E94082583B7817F846083BF83B787
:104A7000816083BF7894889583B78E7F83BF0FB69C
:104A8000F894A895809160008861809360001092EE
:104A900060000FBE08950C94ED240E94761D0E94C4
:104AA00044180E94FF0910928602809187028111AA
:104AB0000E94DF110E94B4100C944B251F920F929C
:104AC0000FB60F9211248F939F93AF93BF93809152
:104AD0008502811113C08091BD029091BE02A09108
:104AE000BF02B091C0024196A11DB11D8093BD02CD
:104AF0009093BE02A093BF02B093C002BF91AF914A
:104B00009F918F910F900FBE0F901F90189582E08C
:104B100084BD93E095BD9AEF97BD80936E00089594
:104B20002FB7F8948091BD029091BE02A091BF0270
:104B3000B091C0022FBF08952FB7F8946091BD02C5
:104B40007091BE028091BF029091C0022FBF089564
:104B50009C014FB7F8948091BD029091BE02A09144
:104B6000BF02B091C0024FBF821B930B089578948F
:104B70001F920F920FB60F9211248F939F93AF93B2
:104B8000BF938091BD029091BE02A091BF02B091EF
:104B9000C0020196A11DB11D8093BD029093BE027B
:104BA000A093BF02B093C002BF91AF919F918F912C
:104BB0000F900FBE0F901F90189587E797E790937F
:104BC0000108809300089AE088E10FB6F894A89550
:104BD000809360000FBE90936000FFCF0E94F92386
:104BE000811102C00E9499240E94042480938402AF
:104BF0000E940C249093C2028093C1020E94082458
:104C0000682F70E080E090E00C946C21CF93C82F67
:104C10001F928F938BE097E09F938F930E94CA0718
:104C200081E090E0A0E0B0E0BC01CD0104C0660FDF
:104C3000771F881F991FCA95D2F70E946C210F9089
:104C40000F900F900F90CF910C94761DCF93DF9320
:104C50008B3109F4EEC108F08FC18B3009F4B2C179
:104C600008F065C1863009F4B0C120F4853009F43C
:104C7000BEC161C2873009F4C1C1883009F05BC28E
:104C80008EE49CE00E9431078FE99BE00E9431078F
:104C90000E9408241F928F938CE99BE09F938F932F
:104CA0000E94CA078AE99BE00E9431070E940424FF
:104CB000C82F87E89BE00E9431071F92CF9382E8BC
:104CC0009BE09F938F930E94CA0780E89BE00E941D
:104CD000310786E79BE00E9431078C2F81701F927D
:104CE0008F9383E79BE09F938F930E94CA0781E78E
:104CF0009BE00E94310787E69BE00E943107C1FBE1
:104D0000882780F91F928F9384E69BE09F938F936F
:104D10000E94CA0782E69BE00E94310786E59BE07D
:104D20000E943107C2FB882780F91F928F9383E589
:104D30009BE09F938F930E94CA0781E59BE00E94AE
:104D4000310788E49BE00E943107C3FBCC27C0F900
:104D50001F92CF9385E49BE09F938F930E94CA0795
:104D600083E49BE00E9431070E940C24EC018FE257
:104D70009BE00E943107DF93CF938AE29BE09F93F1
:104D80008F930E94CA0788E29BE00E9431078FE060
:104D90009BE00E9431078C2F81701F928F938CE0D3
:104DA0009BE09F938F930E94CA078DB79EB7809612
:104DB0000FB6F8949EBF0FBE8DBF8AE09BE00E94A5
:104DC000310783EF9AE00E943107C1FB882780F901
:104DD0001F928F9380EF9AE09F938F930E94CA0750
:104DE0008EEE9AE00E9431078CED9AE00E94310726
:104DF0008D2F81701F928F9389ED9AE09F938F93EF
:104E00000E94CA0787ED9AE00E94310785EC9AE07C
:104E10000E943107D695D1701F92DF9382EC9AE001
:104E20009F938F930E94CA0780EC9AE00E943107FB
:104E30008EEA9AE00E943107C2FB882780F91F9210
:104E40008F938BEA9AE09F938F930E94CA0789EA17
:104E50009AE00E94310787E99AE00E943107C3FB7C
:104E6000882780F91F928F9384E99AE09F938F930C
:104E70000E94CA0782E99AE00E94310788E89AE016
:104E80000E943107C4FB882780F91F928F9385E821
:104E90009AE09F938F930E94CA0783E89AE00E944A
:104EA000310781E79AE00E943107C5FB882780F926
:104EB0001F928F938EE69AE09F938F930E94CA076A
:104EC0008CE69AE00E94310780E59AE00E94310763
:104ED000C6FB882780F91F928F938DE49AE09F93F9
:104EE0008F930E94CA078DB79EB780960FB6F8942D
:104EF0009EBF0FBE8DBF8BE49AE00E94310783E412
:104F00009AE00E943107C7FBCC27C0F91F92CF93CC
:104F100080E49AE09F938F930E94CA078EE39AE001
:104F20000E9431070F900F900F900F9049C0803171
:104F300009F4A9C020F48E3009F48FC0FCC086317A
:104F400009F4BCC0893109F0F6C081E798E00E94FD
:104F5000310786E498E00E9431078CE098E00E94D7
:104F6000310781ED97E00E94310784EA97E00E94C3
:104F7000310789E797E084C08A32E1F060F4873234
:104F800009F4D5C028F48E3108F4D5C08D51D0C0B5
:104F9000893269F1D0C0833448F48A3308F0C5C03F
:104FA000853309F4C4C0883369F0C5C0833409F47B
:104FB000BEC0C1C08DE39CE00E9431070E949924CD
:104FC000C1E0BEC08BE998E05BC080918402817F24
:104FD0008E7F8093840280E898E00E94310789E305
:104FE0009CE00E94310781E080938802E9CF8DE147
:104FF0009CE00E9431070E94090AE2CF809184025E
:10500000C82FC095C170C0FB80F980938402CC2367
:1050100029F081E19CE00E94310792C084E09CE08D
:105020000E94310780918402897F877F8093840268
:10503000C7CF9091840291FBCC27C0F981E0C827AB
:10504000892FC0FB81F980938402CC2319F087EF6C
:105050009BE029C089EE9BE013C09091840292FBF3
:10506000CC27C0F981E0C827892FC0FB82F9809343
:105070008402CC2319F08AED9BE015C08AEC9BE0FA
:105080000E9431079DCF9091840293FBCC27C0F9F9
:1050900081E0C827892FC0FB83F980938402CC2349
:1050A00051F08EEB9BE00E94310780918402816079
:1050B0008093840245C081EB9BE0E2CF8BE697E0D2
:1050C0000E9431070E9444181F928F9381E597E058
:1050D0009F938F930E94CA0780914B011F928F93D9
:1050E0008AE397E09F938F930E94CA07809195026D
:1050F0001F928F9387E297E09F938F930E94CA0736
:105100000E949C259F938F937F936F9380E197E0FC
:105110009F938F930E94CA078DB79EB742960FB692
:10512000F8949EBF0FBE8DBF4BCF895301C080E066
:105130000E94062645CF8FEA9BE00E943107C0E01F
:105140008C2FDF91CF91089580E008950C94A428CE
:10515000CF93C82F80918802882319F0813031F0D5
:1051600038C00E9440238232B1F504C00E9440231F
:10517000823261F48C2F0E94A628811104C08C2FEA
:105180000E94262624C081E090E021C08C2F0E943E
:10519000A42881111BC0C43189F018F4CB3029F048
:1051A00010C0C93259F0C83361F480E898E00E9419
:1051B000310787E097E00E94310708C0109288020B
:1051C0000CC085E097E00E94310707C081E0817044
:1051D00006C01092880280E002C080E0F8CFCF9134
:1051E000089580919402089508959FB7F8941092BD
:1051F0008B029FBF9091C702943009F057C09091E5
:10520000E9009F703091EC00232F217030FD20E8E1
:10521000922B23E02093E9002091EB0020FF43C074
:105220002091EE0027FF3FC020918902222321F028
:105230002091E80025FF37C01092890226E03091C6
:10524000E80035FD15C03091C702343061F530916A
:10525000EB0035FD28C0215021F481E080938902C4
:1052600022C0EFE9FFE03197F1F700C00000E7CF7F
:105270008093F1008091E80085FD0AC08091E800EC
:1052800080FFFCCF8091E8008E778093E80006C015
:105290008FB7F89421E020938B028FBF9F7090937B
:1052A000E90080E008959F709093E9008FEF0895E2
:1052B000CF93DF9300D01F92CDB7DEB79091C70296
:1052C000943019F589837B836A8382E08093E900B7
:1052D0008FEF9091E800815095FD06C095ED9A956D
:1052E000F1F700008111F5CF8091E80085FF0DC036
:1052F00040E050E063E070E0CE0101960E94D62BC2
:105300008091E8008E778093E8000F900F900F90C7
:10531000DF91CF910895CF93DF93EC010E94B92BD9
:10532000823011F0843031F4BE0184E0DF91CF91FE
:105330000C945829DF91CF910895BC0183E00C941F
:105340005829CF93DF93EC010E94B92B823011F0E2
:10535000843039F581E08093E9008FEF9091E80087
:10536000815095FD06C095ED9A95F1F700008111E9
:10537000F5CF8091E80085FF14C040E050E068E080
:1053800070E0CE010E94D62B8091E8008E7780934A
:10539000E80088E0FE01ACE8B2E001900D928A9549
:1053A000E1F7DF91CF9108958EE79CE00E943107ED
:1053B0008091C602811109C00E94672D0E94C42DF0
:1053C0008091E20084608093E20008958AE79CE087
:1053D0000E9431071092C602089586E79CE00C9463
:1053E000310782E79CE00C9431078EE69CE00E9436
:1053F00031070C944D2520918A022F5F822F62E3A2
:105400000E947330992319F020938A020895109214
:105410008A0280918B02882371F18091C7028430C7
:1054200041F58091E9008F702091EC00922F9170EE
:1054300020FD90E8892B93E09093E9009091EB0098
:1054400090FF14C09091EE0097FF10C09091E8007B
:1054500095FF03C01092F100F9CF9091E80090FF02
:1054600005C09091E8009E779093E8008F7080933C
:10547000E90010928B02089542E061EC81E00E9405
:10548000E02C42E261EC82E00E94E02C42E261EC1E
:1054900083E00C94E02C8091C902833009F460C051
:1054A00030F4813071F0823009F499C008958A3067
:1054B00009F485C08B3009F46BC0893009F0A7C0AE
:1054C00020C08091C802813A09F0A1C08091E80013
:1054D000877F8093E8008091CC029091CD02892B48
:1054E00021F468E08CE892E003C060E080E090E0A6
:1054F00070E00E94212C8091E8008B778093E80077
:1055000008958091C802813209F081C08091CC0257
:105510009091CD02029708F07AC08091E800877FD1
:105520008093E8008091E80082FD05C08091C70269
:105530008111F8CF6CC02091F3008091F20090E0CF
:10554000922B029729F48091F1008B7F813021F416
:105550008091F100809394028091E8008B7753C092
:105560008091C802813A09F052C08091CC0290919A
:10557000CD02892B09F04BC08091E800877F809392
:10558000E8008091E80080FFFCCF80914B0136C09D
:105590008091C8028132D9F58091CC029091CD02E0
:1055A000892BA9F58091E800877F8093E8000E940D
:1055B000152D8091CA0280934B010C94761D809129
:1055C000C802813221F58091E800877F8093E8004E
:1055D0000E94152D8091CB028093950208958091B1
:1055E000C802813AA1F48091E800877F8093E800A7
:1055F0008091E80080FFFCCF809195028093F100BC
:105600008091E8008E778093E8000C94152D089522
:1056100084B7877F84BF0FB6F894A8958091600007
:10562000886180936000109260000FBE90E080E877
:105630000FB6F89480936100909361000FBE0E94B2
:10564000D5180E94672D0E94C42D8091E2008460CD
:105650008093E20085EF98E20E94F42378940E9400
:1056600058300E94DF1881E491E00E943F188DE5D8
:105670009CE00E9431078091C702853089F489E55A
:105680009CE00E9431070E940A258091C502882370
:1056900091F30E94F224882371F30E94C02BEBCF78
:1056A0000E941119E8CF0C94552B292F3327233052
:1056B0003105C9F060F42130310581F02230310527
:1056C00009F047C08BE590E026EB3CE046C0213274
:1056D000310511F12232310561F13BC082E190E0E8
:1056E00021E13DE03AC099278130910561F040F019
:1056F0008230910559F0039761F5E2E8FCE008C0BB
:10570000E2EBFCE005C0E6E9FCE002C0E8E8FCE012
:10571000849190E09F0121C063307105D0F4660F41
:10572000771FFB01E451FE4F2081318189E090E039
:1057300014C06330710568F4FB01EE0FFF1FEA51DE
:10574000FE4F20813181FB01ED51FE4F808190E0C1
:1057500004C080E090E020E030E0FA013183208353
:1057600008958091C702843011F081E0089582E0AD
:10577000089580919602811102C00C94B12B089576
:1057800080E189BD82E189BD09B400FEFDCF809131
:10579000D8008F7D8093D8008091E0008260809354
:1057A000E0008091E00081FDFCCF0895CF92DF9270
:1057B000EF92FF920F931F93CF93DF93EC018B0136
:1057C0007A010E94342D811133C0E114F10439F0C3
:1057D000F70180819181081B190BC80FD91FC12CBB
:1057E000D12C0115110519F18091E80085FD16C035
:1057F0008091E8008E778093E800E114F10449F08D
:10580000F70180819181C80ED91ED182C08285E0C6
:105810000FC00E94342D882321F30AC08991809300
:10582000F10001501109FFEFCF1ADF0ADACF80E053
:10583000DF91CF911F910F91FF90EF90DF90CF906C
:1058400008952091CE023091CF022617370748F0F5
:105850006115710539F42091E8002E772093E80056
:1058600001C0B901FC0120E06115710579F1809159
:10587000C7028823F1F18530F1F18091E80083FDC2
:105880003CC08091E80082FD2EC08091E80080FF3E
:10589000EBCF2091F3008091F20090E0922B611504
:1058A000710551F08830910538F421912093F10071
:1058B000615071090196F3CF21E0089709F020E0CB
:1058C0008091E8008E778093E800CECF2111CFCF72
:1058D0000AC08091C702882361F0853061F0809111
:1058E000E80083FD0AC08091E80082FFF2CF80E0EB
:1058F000089582E0089583E0089581E0089520915D
:10590000CE023091CF022617370748F06115710596
:1059100039F42091E8002E772093E80001C0B90106
:10592000FC0120E06115710591F18091C702882387
:1059300009F440C0853009F43FC08091E80083FD40
:105940003DC08091E80082FD2FC08091E80080FF7B
:10595000E9CF2091F3008091F20090E0922B611545
:10596000710559F08830910540F424912093F1009D
:105970003196615071090196F2CF21E0089709F044
:1059800020E08091E8008E778093E800CBCF211152
:10599000CCCF0AC08091C702882361F0853061F0C6
:1059A0008091E80083FD0AC08091E80082FFF2CF79
:1059B00080E0089582E0089583E0089581E00895ED
:1059C000982F973068F59093E900981739F0709107
:1059D000EC002091ED005091F00003C0242F762FB1
:1059E00050E021FD02C09F5FECCF3091EB003E7F85
:1059F0003093EB003091ED003D7F3093ED0030911E
:105A0000EB0031603093EB007093EC002093ED00DD
:105A10005093F0002091EE0027FDE5CF80E008953F
:105A20008F708093E90081E008958091C80287FF1C
:105A300011C08091E80082FD05C08091C7028111EC
:105A4000F8CF11C08091E8008B770BC08091C7021E
:105A5000882349F08091E80080FFF8CF8091E8002A
:105A60008E778093E80008952091E4003091E5005E
:105A700095E64091EC00842F817040FF23C0809117
:105A8000E80080FD1DC08091C702882399F0853011
:105A900099F08091EB0085FD11C04091E400509198
:105AA000E5002417350729F3915011F09A01E1CF51
:105AB00084E0089582E0089583E0089581E00895E8
:105AC00080E008954091E80042FFDDCF08950E94F4
:105AD000D52D0E94DD2DE0EEF0E080818160808395
