:100000000C94D7060C941E070C941E070C941E0724
:100010000C941E070C941E070C941E070C941E07CC
:100020000C941E070C941E070C94992D0C946B2EA7
:100030000C9415250C941E070C941E070C941E0797
:100040000C941E070C941E070C941E070C941E079C
:100050000C941E070C946E250C941E070C941E071E
:100060000C941E070C941E070C941E070C941E077C
:100070000C941E070C941E070C941E070C941E076C
:100080000C941E070C941E070C941E070C941E075C
:100090000C941E070C941E070C941E070C941E074C
:1000A0000C941E070C941E070C941E07D312D61234
:1000B000DB12E212E712EC12F112F612FB1200133D
:1000C00005130A130E131113141317131A13211304
:1000D00021132113E21AE21A141B141B611B951C35
:1000E000951C951C7F1B141C251C251C851C951C10
:1000F000951C8E1C3F1D3F1D511D511D481D511D3E
:10010000511D511D3F1D3F1D4D1D511D511D4D1DAB
:10011000D82EFF2EF72FFF2EF72F4B2F6E2FF72FF6
:10012000C52FD42F040005000600070008000900B1
:100130000A000B000C000D000E000F001000110053
:100140001200005716001900000000000100C35CF7
:10015000C45CC25CCA5CC95CC65CC55CC85CC75C8C
:100160000100010001000100005C015700000000D7
:100170000000000044454255473A206469736162BB
:100180006C65642E0A0044454255473A20656E610D
:10019000626C65642E0A007267626C69676874201D
:1001A00074696D65722064697361626C652E0A0002
:1001B0007267626C696768742074696D6572206526
:1001C0006E61626C65642E0A007267626C696768B2
:1001D000742073657420687376205B4E4F454550DC
:1001E000524F4D5D3A2025752C25752C25750A003A
:1001F0007267626C696768742073657420687376CF
:10020000205B454550524F4D5D3A2025752C257594
:100210002C25750A007267626C69676874206469CE
:100220007361626C65205B4E4F454550524F4D5D8A
:100230003A207267626C696768745F636F6E6669A3
:10024000672E656E61626C65203D2025750A00721F
:1002500067626C696768742064697361626C6520A9
:100260005B454550524F4D5D3A207267626C69673D
:1002700068745F636F6E6669672E656E61626C6538
:10028000203D2025750A007267626C6967687420DA
:10029000656E61626C65205B4E4F454550524F4D17
:1002A0005D3A207267626C696768745F636F6E663F
:1002B00069672E656E61626C65203D2025750A00B8
:1002C0007267626C6967687420656E61626C652034
:1002D0005B454550524F4D5D3A207267626C6967CD
:1002E00068745F636F6E6669672E656E61626C65C8
:1002F000203D2025750A007267626C69676874206A
:10030000746F67676C65205B454550524F4D5D3A91
:10031000207267626C696768745F636F6E66696795
:100320002E656E61626C65203D2025750A0072673E
:10033000626C69676874206D6F6465205B4E4F4521
:100340004550524F4D5D3A2025750A007267626C28
:1003500069676874206D6F6465205B454550524F36
:100360004D5D3A2025750A007267626C6967687492
:100370005F696E6974207267626C696768745F6335
:100380006F6E6669672E6D6F6465203D20302E208C
:1003900057726974652064656661756C7420766156
:1003A0006C75657320746F20454550524F4D2E0A71
:1003B000007267626C696768745F696E6974206552
:1003C00065636F6E666967206973206E6F74206560
:1003D0006E61626C65642E0A007267626C696768A0
:1003E000745F696E6974207374617274210A00729B
:1003F00067626C696768745F696E69742063616CB9
:100400006C65642E0A007267626C696768745F636A
:100410006F6E6669672E7370656564203D20256484
:100420000A007267626C696768745F636F6E666901
:10043000672E76616C203D2025640A007267626C2D
:10044000696768745F636F6E6669672E7361742095
:100450003D2025640A007267626C696768745F6397
:100460006F6E6669672E687565203D2025640A00F9
:100470007267686C696768745F636F6E6669672E20
:100480006D6F6465203D2025640A007267626C69A7
:100490006768745F636F6E6669672E656E61626C14
:1004A00065203D2025640A007267626C6967687484
:1004B0005F636F6E66696720454550524F4D3A0A3B
:1004C000007F3F1F643214643214783C1E1E140AED
:1004D000052223252628292A2C2D2F303233353684
:1004E000383A3B3D3E4042434547494A4C4E5051C5
:1004F000535557595A5C5E6062646668696B6D6FEC
:1005000071737577797B7D7F81838587898A8C8EEE
:1005100090929496989A9C9E9FA1A3A5A7A8AAACF6
:10052000AEAFB1B3B4B6B8B9BBBCBEBFC1C2C3C530
:10053000C6C7C9CACBCCCDCED0D1D2D2D3D4D5D6D2
:10054000D7D7D8D9D9DADADBDBDBDCDCDCDCDCDD05
:10055000DDDDDDDCDCDCDCDCDBDBDBDADAD9D9D8E9
:10056000D7D7D6D5D4D3D2D2D1D0CECDCCCBCAC981
:10057000C7C6C5C3C2C1BFBEBCBBB9B8B6B4B3B1B0
:10058000AFAEACAAA8A7A5A3A19F9E9C9A9896944B
:1005900092908E8C8A89878583817F7D7B79777520
:1005A00073716F6D6B6968666462605E5C5A5957FF
:1005B000555351504E4C4A4947454342403E3D3BBE
:1005C0003A3836353332302F2D2C2A292826252348
:1005D00022000101010101010101010202020202E6
:1005E00002020202030303030303030304040404DB
:1005F00004040405050505050606060606070707A3
:10060000070708080808090909090A0A0A0B0B0B59
:100610000C0C0C0D0D0D0E0E0E0F0F0F10101111F6
:10062000111212131314141515161617171818197A
:10063000191A1A1B1B1C1D1D1E1E1F2020212222E1
:10064000232424252626272829292A2B2C2D2D2E24
:100650002F30313232333435363738393A3B3C3D3E
:100660003E3F404142434445464748494A4C4D4E2F
:100670004F50515354555658595A5B5D5E5F6162F5
:1006800064656668696B6C6D6F7072737577787A84
:100690007B7D7E8082838587888A8C8E8F919395DF
:1006A00096989A9C9EA0A2A3A5A7A9ABADAFB1B303
:1006B000B5B7BABCBEC0C2C4C6C9CBCDCFD1D4D6E3
:1006C000D8DBDDDFE2E4E7E9EBEEF0F3F5F8FAFD85
:1006D000FF0A002530325820006B6579626F617225
:1006E000645F7265706F72743A20000A00253032C0
:1006F00058006B6579626F6172645F7365745F6CDB
:1007000065643A20003F00433E20004C25640A0007
:1007100074696D65725F72656164333228293A20AD
:100720002530346C580A006B6579626F6172645FC2
:1007300069646C653A2025580A006B6579626F61BF
:1007400072645F70726F746F636F6C3A2025580A21
:1007500000686F73745F6B6579626F6172645F6C60
:1007600065647328293A2025580A000A092D205368
:100770007461747573202D0A004743433A20352E67
:10078000342E30204156522D4C4942433A20322ECD
:10079000302E30204156525F415243483A20617614
:1007A00072350A004F5054494F4E533A204C55462B
:1007B000412045585452414B455920434F4E534FC9
:1007C0004C4520434F4D4D414E4420343039360A7C
:1007D000004255494C443A2022302E392E31352DD5
:1007E000382D6732326564613022202831303A304A
:1007F000353A3138204A756C203130203230323071
:10080000290A005649443A20307836413641284A70
:100810006F7368204A6F686E736F6E292050494469
:100820003A20307834383130284875623136292002
:100830005645523A203078303030310A0044455322
:10084000433A204D6163726F205061642077697470
:1008500068205553422048756220616E6420456EC1
:10086000636F646572730A000A092D2056657273FE
:10087000696F6E202D0A000A092D20436F6E736F79
:100880006C65202D0A4553432F713A0971756974BF
:100890000A000A092D204D61676963202D0A443A38
:1008A000094465627567204D6573736167652054FF
:1008B0006F67676C650A583A094D617472697820F0
:1008C0004465627567204D6F646520546F67676C7F
:1008D00065202D2053686F77206B65797072657382
:1008E00073657320696E206D617472697820677218
:1008F00069640A4B3A094B6579626F6172642044FE
:100900006562756720546F67676C65202D2053689A
:100910006F77206B65797072657373207265706F85
:1009200072740A4D3A094465627567204D6F75739C
:100930006520546F67676C650A563A09566572738D
:10094000696F6E0A533A095374617475730A433AB6
:1009500009416374697661746520436F6E736F6CCF
:1009600065204D6F64650A46312D4631303A095392
:10097000776974636820746F204C617965722030E8
:100980002D392028463130203D204C30290A302D89
:10099000393A0953776974636820746F204C617920
:1009A000657220302D390A47524156453A0953772E
:1009B0006974636820746F204C61796572203020FF
:1009C00028616C7465726E617465290A423A094A3D
:1009D000756D7020746F20426F6F746C6F61646509
:1009E000720A4553433A094A756D7020746F20426C
:1009F0006F6F746C6F616465722028616C746572CE
:100A00006E617465290A453A095072696E74204511
:100A10004550524F4D2053657474696E67730A4296
:100A200053504143453A09436C6561722045455036
:100A3000524F4D0A000A002575002E6E6B726F3AF8
:100A400020000A002575002E737761705F62616374
:100A50006B736C6173685F6261636B737061636514
:100A60003A20000A002575002E737761705F677267
:100A70006176655F6573633A20000A002575002E74
:100A80006E6F5F6775693A20000A002575002E7346
:100A90007761705F72616C745F726775693A20008C
:100AA0000A002575002E737761705F6C616C745F4E
:100AB0006C6775693A20000A002575002E7377610E
:100AC000705F7263746C5F726775693A20000A0028
:100AD0002575002E737761705F6C63746C5F6C6753
:100AE00075693A20000A002575002E636170736CE9
:100AF0006F636B5F746F5F636F6E74726F6C3A20BD
:100B0000000A002575002E737761705F636F6E7445
:100B1000726F6C5F636170736C6F636B3A20000A75
:100B20000025303258006B65796D61705F636F6EC0
:100B30006669672E7261773A20000A002575002EDB
:100B40006D6F7573653A20000A002575002E6B6580
:100B500079626F6172643A20000A002575002E6D7B
:100B600061747269783A20000A002575002E656E5E
:100B700061626C653A20000A0025303258006465D5
:100B80006275675F636F6E6669672E7261773A2080
:100B9000000A0025750064656661756C745F6C61A0
:100BA0007965723A20003F000A6D6F7573653A20CF
:100BB0006F66660A000A6D6F7573653A206F6E0A7C
:100BC000000A6B6579626F6172643A206F66660A2B
:100BD000000A6B6579626F6172643A206F6E0A0079
:100BE0000A6D61747269783A206F66660A000A6D50
:100BF00061747269783A206F6E0A000A64656275E2
:100C0000673A206F66660A000A64656275673A2073
:100C10006F6E0A000A0A4A756D70696E6720746FFC
:100C200020626F6F746C6F616465722E2E2E2000CF
:100C3000433E2000436C656172696E6720454550F4
:100C4000524F4D0A006565636F6E6669673A0A0028
:100C50005B735D004B6579626F61726420737461D0
:100C600072742E0A005B575D005B535D005B525D42
:100C7000005B445D005B435D000403300000000C3A
:100C8000034800750062003100360000001A034A74
:100C9000006F007300680020004A006F0068006E5B
:100CA0000073006F006E0000000403090409025B7A
:100CB00000030100A0FA090400000103010100097A
:100CC00021110100012240000705810308000A09E3
:100CD000040100010300000009211101000122327A
:100CE000000705820320000A090402000203000035
:100CF00000092111010001222200070583032000C1
:100D00000107050303200001120110010000000883
:100D10006A6A10480100010203010631FF0974A14B
:100D2000010975150026FF009520750881020976D6
:100D3000150026FF00952075089102C00501098065
:100D4000A101850319012AB700150126B7009501F5
:100D500075108100C0050C0901A101850419012A43
:100D6000A002150126A002950175108100C00501A1
:100D70000906A101050719E029E7150025019508D5
:100D8000750181029501750881010507190029FF88
:100D9000150026FF00950675088100050819012930
:100DA00005950575019102950175039101C0112406
:100DB0001FBECFEFDAE0DEBFCDBF04B603FE27C013
:100DC0008091CF029091D002A091D102B091D20235
:100DD0008730904BA740B04BD1F41092CF021092C5
:100DE000D0021092D1021092D20214BE84B7877F33
:100DF00084BF0FB6F894A8958091600088618093B5
:100E00006000109260000FBEE0E0F8E3099511E089
:100E1000A0E0B1E0E2E9F1E602C005900D92A23F48
:100E2000B107D9F722E0A2EFB1E001C01D92AF3CBB
:100E3000B207E1F70E94BF2A0C94C7300C9400005F
:100E4000FF93EF93E091F201F091F301309709F0F5
:100E50000995EF91FF910895FC018591803011F083
:100E6000EFDFFBCF0895FF27E0E230E247FF0CC041
:100E7000419597FF09C0EDE260957095809590953A
:100E8000611D711D811D911D27FF02C0219530E359
:100E900050E2AA27660F771F881F991FAA1FA41761
:100EA00010F0A41B63955A95A9F7AA3008F0A95F22
:100EB000A05DAF93F395611571058105910541F72B
:100EC000ED3211F4EF93F395F21718F43F93F39585
:100ED000FBCF8F91B5DFFA95E1F70895E991F9918C
:100EE0008591803021F0853219F0AADFF9CF08957D
:100EF00020E0E89455915532C1F3503311F46894D1
:100F000055915A3348F4505390F3220F022E220F7A
:100F1000220F200D250FF4CF0EF421958991999180
:100F2000533619F3533729F1533559F1BC0188274A
:100F30009927E8945C3621F48991999168945591A8
:100F4000543639F446EF7EF077FF0DC08FEF9FEFF8
:100F50000AC055374AE039F0583540E121F05236A1
:100F600042E009F00895FF93EF937DDFEF91FF9149
:100F7000B7CFFF93EF93FC0181918030B9F360DF2D
:100F8000FBCFFF93EF9368DFF1CFDF93CF93CDB724
:100F9000DEB72596A3DFCF91DF910895E82FF0E02B
:100FA000EA50FE4F80810895CF93DF93A0E5B1E032
:100FB00045E551E061E070E08D91E82FE295EF703A
:100FC000F0E021A18F70EB0102C0CC0FDD1F8A95EC
:100FD000E2F7CE019C2F9095922391A392A1892BA9
:100FE00082A34A175B0741F7ACE4B1E040E551E06A
:100FF00061E070E08D91E82FE295EF70F0E021A1C3
:101000008F70EB0102C0CC0FDD1F8A95E2F7CE0195
:101010009C2F9095922391A392A1892B82A34A178A
:101020005B0741F7EBEFF1E0A6EFB1E080E092E083
:1010300011921D928E179F07D9F785E00E94430CED
:10104000DF91CF910C94A4095F926F927F928F925F
:101050009F92AF92BF92CF92DF92EF92FF920F9347
:101060001F93CF93DF9360E571E0ABEFB1E020E039
:10107000A22E22E0B22E612C01E010E06D015C9006
:101080001C92EB018991BE01E82FE295EF70F0E030
:1010900021A18F70A80102C0440F551F8A95E2F765
:1010A000CA01242B21A322A1942E9094292122A3AA
:1010B00050EA5A95F1F79CE4E92E91E0F92E40E0D0
:1010C00050E0E70189907E01282D22952F7030E0B5
:1010D000E90128A17C9030E0D82DDF7002C0359561
:1010E0002795DA95E2F720FD08C0302F042E01C0C5
:1010F000330F0A94EAF7232F01C020E027292C930D
:101100004F5F5F4F44305105E1F691A1992291A2C2
:1011100092A1892B82A3119681E0F601908195110D
:1011200001C080E0682AAA16BB0609F0A7CF262DC9
:1011300045E066EF71E08BEF91E00E94440C409136
:10114000FA011092FA012091F501322F330F3093FA
:10115000F5018091F401982F990F9093F4012FB12C
:10116000221F2227221F232B2093F50189B1881FDC
:101170008827881F892B8093F40191E02F3F09F085
:1011800090E08F3F11F080E001C082E0892B8093D6
:10119000FA0191E0481301C090E0C62DC92B0E94CE
:1011A000AC098C2FDF91CF911F910F91FF90EF90A1
:1011B000DF90CF90BF90AF909F908F907F906F9077
:1011C0005F90089587988F9857985F98089508952D
:1011D0000895811106C0662311F085E109C084E1FC
:1011E00007C0813039F4662311F088E101C087E13E
:1011F0000C948B1A089581E008959C013A9521156D
:101200003F4138F5DC01AA27B270AC014427547085
:101210009C012227387094FF0FC090FF02C080E12C
:1012200001C080E0AB2B09F08062452B09F080649F
:10123000232B69F080680BC0892F8170AB2B09F0DC
:101240008260452B09F08460232B09F08860FB0144
:1012500009940895CF93DF93EC01805E910908977C
:1012600010F0209719F46EE97AE102C069E07DE19F
:10127000CE010E94FD088C2FDF91CF910C9485192F
:10128000CF93DF93EC010E942C1ACE01805E91096E
:10129000089710F0209719F465EA7AE102C060E13E
:1012A0007DE1CE01DF91CF910C94FD0881E008959E
:1012B0000C94FB0808950C945A091F93CF93DF9365
:1012C00000D000D01F92CDB7DEB749835A836B831D
:1012D0003091260289819A81311114C0662359F018
:1012E000222349F00E947622182F682F89819A8143
:1012F0000E94212203C00E944B22182F69817A810B
:10130000812F04C00E94762269817A810F900F900C
:101310000F900F900F90DF91CF911F910C943E0A88
:10132000FC01262F408151816281738184810C945C
:101330005D09CF93DF93EC0160E00E949009BE014C
:10134000DF91CF910C945B090E94B023811102C000
:101350000E9450240C94E2080E9490170C94E70815
:1013600008950C94B00981E008950C94B309CF93CB
:10137000C82F0E94B1098C2F0E94B509CF91089502
:1013800008950E942D1D0E94C0092FEF84E39CE068
:10139000215080409040E1F700C000000C9494255B
:1013A0000F931F93CF93DF93EC0161E00E949009AC
:1013B0008C01BE010E94ED16BE01C8010E945809B1
:1013C000882309F450C0BE01C8010E943417882345
:1013D00009F449C0BE01C8010E94C114882309F460
:1013E00042C0BE01C8010E9402158823E1F1BE017E
:1013F000C8010E942D168823B1F1BE01C8010E94C8
:10140000BC12882381F18A81882331F101308CE577
:10141000180751F00E3D8CE51807D9F001151C4551
:10142000D9F40E94C1091FC080918302C82FC095C2
:10143000C170C0FB80F980938302CC2329F086E839
:1014400091E00E942C070FC084E791E00E942C07D6
:101450000BC00E94502407C0CE01DF91CF911F9195
:101460000F910C945609C0E08C2FDF91CF911F9102
:101470000F91089580E090E008950895E72FF0E03F
:1014800095E0899FE00DF11D1124EE0FFF1FEE0F77
:10149000FF1FE60FF11DEE0FFF1FEC5DFE4F859164
:1014A00094910895880F991FFC01E956FE4F85918C
:1014B00094910895CF93DF930E943E0A0E946C0B93
:1014C000EC018115904508F043C0C11580E4D807B0
:1014D00008F0CBC0C03ED10528F5C03CD10508F0CE
:1014E000B3C0C83AD10578F4C53AD10508F0A4C014
:1014F000C130D10509F4ECC008F4E8C0C430D1050E
:1015000008F0E6C0E3C0CF3BD10508F0DFC0C85A01
:10151000D0E0CC0FDD1FCB5ADE4F0990D881C02D13
:10152000D464D6C0C11590E2D90750F4C11521E0AA
:10153000D20708F0CDC0C83ED10508F4C9C0C6C066
:10154000C11580E3D80708F086C0CE019F707FC028
:10155000C11595E5D90708F043C0C11524E5D207A8
:1015600008F09AC0C11582E5D80708F5C11591E5C4
:10157000D90708F07DC0CE0174E0969587957A95DD
:10158000E1F783709C2F937021E030E002C0220FBE
:10159000331F9A95E2F73C68382BCF70C695C695F5
:1015A00080E2C89FE0011124C22BD32B91C09E0181
:1015B000237033278C2F86958695C115D34508F067
:1015C0005CC0C1E0D0E002C0CC0FDD1F2A95E2F77D
:1015D00020E2829FC0011124C82BD92BDC6878C07F
:1015E000C11529E5D207A0F4C11588E5D80708F090
:1015F00058C0C11596E5D90708F068C08C2F0E9425
:10160000000C8F71C82FD0E0DC2FCC27D06260C0D7
:10161000C1152AE5D20708F449C0CE0190568115BC
:10162000904208F053C08D2F8F710E94000CDD276F
:10163000D0628F71D82B4CC0C55AD0E0CD57DE4F49
:10164000C881D0E0D06444C0CE01805C91090E9482
:10165000520AEC013DC0CE019927D3FF03C0EC0133
:10166000D86C36C0EC01D06C33C0DF70D06A30C0AB
:10167000DC2FCC27C16FD06A2BC0C1E0D0E002C004
:10168000CC0FDD1F2A95E2F720E2829FC0011124D2
:10169000C82BD92BDA681CC0DC2FCC27C46FD06ACA
:1016A00017C0DC2FCC27C06FD06A12C08C2F8F7070
:1016B0000E94000C94E0D695C7959A95E1F7CF70FB
:1016C000D0E0DC2FCC27D069C82B02C0C0E0D0E02E
:1016D000CE01DF91CF9108958238910569F1B0F480
:1016E0008133910509F46DC048F48932910509F4FC
:1016F00063C08A32910509F469C008958533910564
:1017000009F455C089339105B9F00895833E9105D8
:1017100069F138F4803E9105B1F0823E910509F1FE
:101720000895863E9105A9F1873E9105B9F1843E61
:10173000910509F064C023C02091C00220FD4FC074
:1017400021FD4DC008958091C00280FD44C080916C
:10175000C10280FF44C08091C00284FD42C083EE7C
:101760004DC08091C00282FF38C0F5CF8091C00289
:1017700082FD33C08091C10280FD31C0ECCF8091E9
:10178000C10281FF32C08091C00284FD2AC087EE71
:1017900035C08091C00283FF26C0F5CF8091C00282
:1017A00083FD21C08091C10281FD1FC0ECCF8091DB
:1017B000C00285FD1CC01DC08091C00285FD19C0FE
:1017C00016C08091C00286FD16C017C08091C0026D
:1017D00086FD13C010C089E311C082EE0FC080EEF9
:1017E0000DC080E00BC086EE09C084EE07C089E220
:1017F00005C085E303C08AE201C081E390E008955B
:101800009091C00292FF0DC0282F2871283019F442
:10181000877F846006C0282F2471243011F48B7FC9
:10182000886093FF0DC0282F2871283119F4877E16
:10183000846106C0282F2471243111F48B7E8861C5
:101840002091C10220FF0DC0382F3871383019F4B3
:10185000877F816006C0382F3171313011F48E7F5F
:10186000886021FF0DC0282F2871283119F4877E48
:10187000816106C0282F2171213111F48E7E88618B
:1018800094FD877E08950895FF920F931F93CF9341
:10189000DF938C01F62ED72FC42F222349F081E04D
:1018A000809302020E9447259093010280930002D8
:1018B000809102028823C1F0809100029091010280
:1018C0000E945F25459780F0EF2DFD2FD8014C2F0A
:1018D00050E0CD01801B910B841795071CF48D916E
:1018E0008193F7CF10920202DF91CF911F910F9158
:1018F000FF900895EF92FF920F931F93CF93DF9382
:10190000F62E472FE82FF0E0711106C0EF52FA4F84
:101910006491762F862F72C0272F30E0EF52FA4F56
:10192000E4910E2F10E056E0659FC0011124CFEF27
:10193000D0E0BE010E9444305BEA5603C001579FCD
:10194000900D11248F0D911D8F0D911D982F990FC2
:10195000890F7E01E21AF30AE09ED001E19EB00DEC
:10196000F09EB00D1124489FA0011124452F55274A
:101970007E01E41AF50AE09EA001E19E500DF09E62
:10198000500D11247E01E81AF108E29EC001E39E89
:10199000900DF29E900D1124892F9927C81BD90B09
:1019A000C09FC001C19F900DD09F900D1124623047
:1019B000710591F048F461157105E1F06130710530
:1019C000A9F48B2F752F19C06430710561F038F0C0
:1019D0006630710579F00AC0892F7B2F0EC08E2FDB
:1019E0007B2FE52F0AC08E2F792F02C0852F7E2FE7
:1019F000EB2F03C08B2F7E2FE92F6E2FDF91CF911E
:101A00001F910F91FF90EF9008950895CF93DF936A
:101A1000762FE901682F842F0E947A0C79836883DE
:101A20008A83DF91CF91089580919602282F269581
:101A300030E02115310519F48170826005C028312C
:101A4000310524F081708E6280939602089588E0BB
:101A500090E00C948730CF92DF92EF92FF926B016F
:101A60007C010E94140DB701A60188E090E0FF9070
:101A7000EF90DF90CF900C94A530E6E9F2E083E0A0
:101A8000808311828FEF82838383148260817181CE
:101A9000828193810C942B0D8091830280FF08C07A
:101AA00088EA94E09F938F930E94C5070F900F9050
:101AB0008091830280FF0FC08091960281701F92F7
:101AC0008F938BE894E09F938F930E94C5070F90AC
:101AD0000F900F900F908091830280FF0FC0809134
:101AE000960286951F928F9380E794E09F938F9341
:101AF0000E94C5070F900F900F900F908091830266
:101B000080FF0EC0809197021F928F9386E594E02C
:101B10009F938F930E94C5070F900F900F900F9087
:101B20008091830280FF0EC0809198021F928F9354
:101B30008CE394E09F938F930E94C5070F900F90C2
:101B40000F900F908091830280FF0EC080919902C8
:101B50001F928F9382E294E09F938F930E94C50718
:101B60000F900F900F900F908091830280FF0EC016
:101B700080919A021F928F9386E094E09F938F93B7
:101B80000E94C5070F900F900F900F9008958091BD
:101B9000960280FF02C08695089580E008958091A6
:101BA0009A02833018F48F5F80939A0260919602B4
:101BB0007091970280919802909199020C942B0D4C
:101BC00080919A02882319F0815080939A02609143
:101BD00096027091970280919802909199020C94CC
:101BE0002B0D70E00C9427136091390180919602BF
:101BF00080FF0AC08091380123E0829FC001112438
:101C000085569D4F0C94F10D80913A0190913B01C6
:101C1000891780F7E82FF0E09F01220F331FE20FB2
:101C2000F31FE556FD4F1182108212828F5FF0CFB5
:101C30009091960290FF16C090913A0120913B013D
:101C4000921770F4E92FF0E0DF01AA0FBB1FEA0F33
:101C5000FB1FE556FD4F8183608342839F5FF0CF7A
:101C60000C94F40D0895CF93DF9300D01F92CDB75D
:101C7000DEB79091960290FF0AC09E012F5F3F4F02
:101C80000E94060D4B8169818A810E94180E0F9077
:101C90000F900F90DF91CF910895CF93DF93EC01D8
:101CA000EC81F0E0EF52FB4F4491E6E9F2E0628113
:101CB00081810E94330E8C818F5F8C83DF91CF9165
:101CC0000895CF93DF93EC01E6E9F2E0438162816E
:101CD0008C810E94330E8C818F5F8C83DF91CF913A
:101CE0000895EF92FF920F931F93CF93DF9300D04D
:101CF0001F92CDB7DEB7182FF62E042FE22E80915B
:101D0000960280FF5DC0E82FE695F0E0EA57FE4FAF
:101D1000908190930C028E7F823061F49E012F5F40
:101D20003F4F812F0E94060D4B8169818A810E945D
:101D3000180E0CC0923019F40091990207C0963029
:101D400019F41091970202C09930D9F310939702B9
:101D5000F092980200939902EE20E9F060919602C9
:101D60007091970280919802909199020E942B0D98
:101D70008091830280FF24C0809199021F928F93EB
:101D8000809198021F928F93809197021F928F9358
:101D900080EF91E00CC08091830280FF11C01F9200
:101DA0000F931F92FF921F921F9389EC91E09F93D4
:101DB0008F930E94C5070FB6F894DEBF0FBECDBF4C
:101DC0000F900F900F90DF91CF911F910F91FF9087
:101DD000EF900895E6E9F2E09181282F4381628136
:101DE00088E0890F0C94710E81E00C94EA0EE6E90C
:101DF000F2E09181282F4381628188EF890F0C9452
:101E0000710E81E00C94F70EE6E9F2E0628128E0C1
:101E1000620F08F46FEF282F438181810C94710EBB
:101E200081E00C94040FE6E9F2E0628128E0621B95
:101E300008F460E0282F438181810C94710E81E0C9
:101E40000C94130FE6E9F2E0438128E0420F08F416
:101E50004FEF282F628181810C94710E81E00C94E8
:101E6000220FE6E9F2E0438128E0421B08F440E05B
:101E7000282F628181810C94710E81E00C94310FC6
:101E800020E00C94710EFF920F931F93CF93DF937A
:101E9000EC01F12C0FEF10E060913C01F616F0F42C
:101EA00080913A012F2D30E0280F311DC901880F94
:101EB000991F280F391F25563D4F70E0C8010E9419
:101EC0005830962F8C814091990260919802F99E2A
:101ED000800D11240E94060DF394DECF0E94F40DB4
:101EE0009A818C8190FF02C08F5F01C081508C83EA
:101EF000DF91CF911F910F91FF900895AF92BF9204
:101F0000CF92DF92EF92FF920F931F93CF93DF93C5
:101F1000FC01828180FF02C00FEF01C001E010E0F0
:101F20004BE0A42E80913C01181708F043C080912B
:101F30003A01C12ED12CE601C80FD11DCE01880F68
:101F4000991FC80FD91FC556DD4F198218821A82F2
:101F500034E0E32EF12CB12C809104028B0D8C30F7
:101F60002CF06A2D0E943630892F05C087FF03C0F0
:101F700090913C01890F082E000C990BC816D906C8
:101F800091F4809199028E9DA0018F9D500D112496
:101F900055954795559547959E016091980280917A
:101FA00097020E94060DB00EF1E0EF1AF108A1F6BB
:101FB0001F5FB8CF0E94F40D80910402013031F40C
:101FC000811102C080913C01815007C090E00196D0
:101FD00060913C0170E00E94583080930402DF91D0
:101FE000CF911F910F91FF90EF90DF90CF90BF9016
:101FF000AF900895CF9380913A0190913B0189175A
:1020000070F4E82FF0E09F01220F331FE20FF31F5F
:10201000E556FD4F1182108212828F5FF0CFC0E033
:1020200060913C01C617C0F5EC2FF0E070E0CF01E5
:102030000E94583020913A01820F20910302022E13
:10204000000C330B90E0E217F307CCF0209137013E
:10205000022E000C330B2E173F078CF09C01220F31
:10206000331F820F931F9C0125563D4F40919902CB
:1020700060919802809197020E94060D0BC0FC01AE
:10208000EE0FFF1F8E0F9F1FFC01E556FD4F1182C3
:1020900010821282CF5FC4CF0E94F40D20913601CE
:1020A00080910302820F8093030290913701920F77
:1020B0009093370119165CF4082E000C990B40918F
:1020C0003C0150E041505109841795071CF02195BF
:1020D00020933601CF91089560919602669570E045
:1020E00041E050E08DE391E00E947230892B19F4B9
:1020F00081E080930D020E94472590930602809311
:1021000005028091830280FF08C080EB91E09F93DD
:102110008F930E94C5070F900F90089510920D02A3
:102120008091830280FF08C087E991E09F938F939D
:102130000E94C5070F900F9008959091960290FF0E
:1021400054C09170811102C0926006C0883110F0B5
:102150009E6202C0880F982B909396026623B1F07E
:1021600060919602709197028091980290919902E5
:102170000E942B0D8091830280FF1BC080919602EC
:1021800086951F928F938CE493E00BC0809183021D
:1021900080FF0FC08091960286951F928F938EE2EA
:1021A00093E09F938F930E94C5070F900F900F901D
:1021B0000F9060919602669570E041E050E08DE3EB
:1021C00091E00E947230892B19F00E948E1002C09B
:1021D0000E946C1081E08093080240919902609106
:1021E0009802809197020C94400F0895682F909167
:1021F0009602969581E0890F883108F081E00C9471
:102200009D1081E00C94F610682F9091960296959F
:102210008FEF890F09F487E10C949D1081E00C94F5
:10222000041161E00C949D1080919602816080936E
:1022300096028091830280FF0DC01F9281E08F93F0
:1022400080EC92E09F938F930E94C5070F900F90B0
:102250000F900F908091960286950C94111160E07A
:102260000C949D1080910B02811160C080918302BB
:1022700080FF08C08FEE93E09F938F930E94C50765
:102280000F900F908091830280FF08C089ED93E04A
:102290009F938F930E94C5070F900F900E94B023C9
:1022A000811110C08091830280FF08C081EB93E010
:1022B0009F938F930E94C5070F900F900E94502408
:1022C0000E943D0D0E94270D609396027093970225
:1022D00080939802909399026E7FC1F4809183025B
:1022E00080FF08C088E693E09F938F930E94C50704
:1022F0000F900F900E943D0D0E94270D6093960253
:102300007093970280939802909399020E94140D03
:102310000E944C0D10920D028091960280FF03C026
:1023200086950E942F1181E080930B020895809181
:1023300096028160809396028091830280FF0DC097
:102340001F9281E08F9387E892E09F938F930E9482
:10235000C5070F900F900F900F9080919602869571
:102360000C942F11809196028E7F8093960260913B
:1023700096027091970280919802909199020E9422
:102380002B0D8091830280FF0FC080919602817097
:102390001F928F938FE492E09F938F930E94C507C3
:1023A0000F900F900F900F900E948E102FEF80E7EC
:1023B00092E0215080409040E1F700C000000C9472
:1023C000F40D8091830280FF10C080919602809569
:1023D00081701F928F9387EF92E09F938F930E945B
:1023E000C5070F900F900F900F908091960280FD7F
:1023F0000C94B2110C941411809196028E7F8093EC
:1024000096028091830280FF0CC01F921F9285E18B
:1024100092E09F938F930E94C5070F900F900F90AB
:102420000F900E948E102FEF80E792E021508040A5
:102430009040E1F700C000000C94F40D0F931F933F
:10244000CF93DF9380910D02882309F475C08091AA
:102450000C02E0919602E695E81BE09307028230B9
:1024600049F4F0E0E353FB4FE491CE2FD0E00DE4CC
:102470001EE032C0863049F4F0E0E653FB4FE491B1
:10248000CE2FD0E001E61EE027C0893051F4E6955A
:10249000F0E0E953FB4FE491CE2FD0E003E41FE0DE
:1024A0001BC08F3051F4E695F0E0EC53FB4FE49104
:1024B000CE2FD0E00EE71FE00FC0853149F4F0E0E9
:1024C000EF53FB4FE491CE2FD0E00AEF1FE004C0A2
:1024D000C0EDD7E005E01DE080910802882389F077
:1024E000109208020E9447259E0120953095820F88
:1024F000931F909306028093050210920A02109295
:10250000090280910502909106020E945F258C17B6
:102510009D0790F0E0910502F0910602CE0FDF1FBB
:10252000D0930602C093050285E092E0F801DF91A6
:10253000CF911F910F910994DF91CF911F910F912E
:102540000895882311F0FA0101C0FB010994CF938B
:10255000DF93C82FD62F0E94C70D8C1740F00E9422
:10256000C70D8D1720F4DF91CF910C9401118C2FA2
:10257000DF91CF910C9411110F931F93CF93FB0117
:10258000C281CC2309F45BC08C010E94F7228272C5
:10259000F801E25CFC45E431F10508F053C0EA5A69
:1025A000FF4F0C946C300E94E1114BC04EE051E1A2
:1025B00061E071E104C041E051E16EE071E10E942F
:1025C000A1123FC041E05FE064EF7EE0F8CF44EF4E
:1025D0005EE061E07FE0F3CF4FE15FE060E17FE04C
:1025E000EECF40E15FE06FE17FE0E9CF4DE35FE0F8
:1025F0006EE27FE0E4CF4EE25FE06DE37FE0DFCFAD
:1026000040EE5DE06FEC7DE0DACF4FEC5DE060EE38
:102610007DE0D5CF81E00E94111113C065E082E01A
:102620000BC068E086E008C06EE089E005C064E1A8
:102630008FE002C067E185E10E94A71202C0C1E0FD
:1026400001C0C0E08C2FCF911F910F910895519A36
:102650002BB12D7F3BB132604FB7F894FC01CB0119
:10266000880F991F680F791F6E0F7F1FE617F707F6
:1026700089F0819198E03BB9000000C087FF2BB939
:10268000880F000000C000C000C02BB900C09A95A0
:1026900091F7ECCF4FBF8FE594E00197F1F700C0C1
:1026A000000008950C94E908FF920F931F93CF93B5
:1026B000DF93C2E1D2E040EB51E02EEA31E061E08D
:1026C00070E0F2E0C431DF0709F44CC0FA01019177
:1026D000AF01A02FA295AF70B0E09196EC919197C9
:1026E0000F70CB01002E01C0880F0A94EAF7982FD3
:1026F00090959E2391969C93919792969C919297F8
:10270000892B92968C939297F90111919F01E12F59
:10271000E295EF70F0E0F1A01F70CB01012E01C037
:10272000880F0A94EAF7982F90959F2191A392A180
:10273000892B82A390968C9190E002C09595879505
:102740000A95E2F78170E0A1F0E002C0F595E79507
:102750001A95E2F7E0FD02C090E001C092E0892BFB
:102760008993AFCFDF91CF911F910F91FF90089583
:102770005F926F927F928F929F92AF92BF92CF9211
:10278000DF92EF92FF920F931F93CF93DF9382E13B
:10279000682E82E0782E90EBE92E91E0F92E0EEA79
:1027A00011E020E1822E22E0922ECEE0D2E0630101
:1027B0005301512CD501ED915D014E2F440F440F73
:1027C000F60141936F01D7012D917D01E22FE29532
:1027D000EF70F0E080A190E02F7002C09595879592
:1027E0002A95E2F781709927F80151918F01E52F21
:1027F000E295EF70F0E020A130E05F7002C0359507
:1028000027955A95E2F7F901E170FF2720FF02C0F2
:10281000E2E0F0E0E82BF92BE42BD301ED933D014E
:10282000EF70F0E0E256FE4F9081F4018081890F55
:10283000808384303CF088818F5F888360E0852DC1
:102840000E945213D4018C918D3F3CF488818150B9
:10285000888361E0852D0E945213F4018081837882
:1028600087FF03C081508C6F8F5FD4018D934D0122
:1028700053942196B2E05B129DCFDF91CF911F91CF
:102880000F91FF90EF90DF90CF90BF90AF909F900F
:102890008F907F906F905F9008950F931F93CF93C9
:1028A000DF93C62FD42F122FFC0182818823C9F019
:1028B000609316020E94472590931502809314029C
:1028C00080E28C0F883008F057C0C77081E001C0EB
:1028D000880FCA95EAF7DF91CF911F910F910C9461
:1028E0009E1A80911602681330C080911402909154
:1028F00015020E945F25883C910538F500E20D0F16
:10290000CD17B9F080E28C0F883040F4C77081E0B9
:1029100001C0880FCA95EAF70E94A51A083028F569
:1029200081E09D2F977001C0880F9A95EAF70E9469
:102930009E1A812F0E948B1A0830F0F4D77081E024
:1029400001C0880FDA95EAF70AC080E28C0F883060
:1029500098F4C77081E001C0880FCA95EAF7DF914B
:10296000CF911F910F910C94A51A812FDF91CF91D8
:102970001F910F910C948B1ADF91CF911F910F91A2
:1029800008959C01CB01233F4CE53407F9F078F41E
:10299000283DFCE53F07B9F0293D4CE5340711F12E
:1029A000273D3C4531F526E241EE61EE1EC0253F54
:1029B000FCE53F0799F070F0263F3C45D1F427E253
:1029C00045EE66EE12C027E245EE0EC026E241EE6D
:1029D00060EE0BC027E245EE64EE07C026E241EE52
:1029E00062EE03C028E241E065EE0E944D1480E0F3
:1029F0000895FC018281882319F01092160208952F
:102A000081E00895CF93DF93EC01FB01828188235D
:102A100009F41FC1C230FCE5DF0708F41BC1C63151
:102A20009CE5D90738F09E012A5F3C4529303105E5
:102A300008F010C10E94C3239093C1028093C0028A
:102A4000C031ECE5DE0709F4C3C008F041C0C8306E
:102A50008CE5D80709F49AC0F0F4C430ECE5DE0741
:102A600009F487C068F4C2308CE5D80709F477C050
:102A7000C330DC4509F0E3C08091C002826076C0BB
:102A8000C630ECE5DE0709F46EC008F07BC080912B
:102A9000C00288606BC0CC308CE5D80709F485C0D3
:102AA00068F4CA30ECE5DE0709F474C008F079C0B8
:102AB0000E942D1D8091C002806858C0CE308CE5E8
:102AC000D80709F476C008F07FC08091C0028BC09F
:102AD000CB3FECE5DE0709F44FC018F5C3318CE5B8
:102AE000D80709F47DC078F4C131ECE5DE0709F4BC
:102AF00073C0C231DC4509F0A2C00E942D1D809137
:102B0000C0028F7733C0C5318CE5D80709F472C095
:102B100008F486C0CA3FDC4509F091C08091C1022B
:102B20003EC0CF3FFCE5DF0709F45FC058F4CD3F5E
:102B30009CE5D90709F444C008F43FC08091C10264
:102B400082602DC0C130FDE5DF0709F475C008F4CF
:102B50005DC0C230DD4509F072C080E06EC080917A
:102B6000C002816003C08091C00280618093C00276
:102B700066C08091C00211C08091C10282608093C2
:102B8000C1025DC08091C0028062F0CF8091C0021E
:102B90008064ECCF8091C00288608460E7CF816060
:102BA000EECF8091C0028E7FE1CF8091C0028D7FF9
:102BB000DDCF8091C002877FD9CF8091C10218C03C
:102BC0008091C1028D7FDBCF8091C0028F7ECECFFE
:102BD0008091C0028F7DCACF8091C0028F7BC6CF0B
:102BE0008091C002877F8B7FC1CF8091C1028D7F92
:102BF0008E7FC5CF8091C00282FB222720F991E011
:102C0000922790FB82F990FB83F9B0CF8091C102AB
:102C1000982F909591708E7F892B90FB81F9AFCF83
:102C20000E942D1D8091C00287FB222720F991E090
:102C3000922790FB87F99ACF81E00E9452248091DD
:102C4000C0029091C1020E94D4230E942D1D80E0F9
:102C500001C081E0DF91CF910895CF93DF9386315A
:102C60009C4541F5EB010E94F722982F8A81209123
:102C70003F0130914001882379F09A7A81E009F48C
:102C800080E080931702911102C069E201C065E300
:102C9000C9010E9499240AC080911702811102C0C3
:102CA00069E201C065E3C9010E949B240E94482398
:102CB00080E001C081E0DF91CF910895CF93DF9351
:102CC000EC0181E0898B8F810E94FA2288850E9425
:102CD0000D230E944823EA81FB81CE01069630979E
:102CE00029F06C897D89DF91CF910994DF91CF9193
:102CF0000895CF93DF93FC012081223039F4FB014A
:102D0000EC0182810E946E2181E08B87DF91CF915F
:102D10000895DB01FC018081813021F48D919C912B
:102D20000C942A09823039F41396ED91FC91149792
:102D300012968C9109940895FC018081813029F4C8
:102D4000FB01808191810C9440090895EF92FF92DC
:102D50000F931F93CF93DF93FC012285211136C07F
:102D6000EC01E380F480F7E5FF1A26E12E9DC00117
:102D70002F9D900D1124DC01A050BF4F1496ED91B2
:102D8000FC9115978A5F9E4F309729F054966D916C
:102D90007C915597099586E18E9D80018F9D100D40
:102DA000112400501F4FF80187810E940023F80171
:102DB00080850E9413230E944823188219861B864F
:102DC0001E821D821092190210921802DF91CF917B
:102DD0001F910F91FF90EF900895DF92EF92FF9275
:102DE0000F931F93CF93DF93FB0122812223A1F145
:102DF00020913E012F3F81F18C01C0E0D1E0E12C18
:102E0000F12CDD24D39480913E01082E000C990B07
:102E10008E159F050CF18E818823C9F089859A85CE
:102E20008017910739F480911802909119020817C0
:102E3000190769F0DF861C870B878989811103C018
:102E4000CE010E945E16CE0106960E94A616FFEFE6
:102E5000EF1AFF0A6696D7CFDF91CF911F910F919E
:102E6000FF90EF90DF900895EF92FF920F931F93E2
:102E7000CF93DF939C0137552F3F310511F008F0B8
:102E800047C040913E01042E000C550B42175307DA
:102E900014F420933E01FB017C01828196E1929F14
:102EA0008001939F100D1124E801C050DF4F888BE3
:102EB00092818E81992311F1FA86E9868F5F8E8344
:102EC0000E9447259E878D870E942D238F830E9415
:102ED000F72288870E940A239885892B8887E881B2
:102EE000F981C8018A5F9E4F309719F06C897D89FE
:102EF0000995F0921902E09218020AC0882341F065
:102F00008989882329F0C8018A5F9E4F0E94A616EE
:102F100081E0DF91CF911F910F91FF90EF90089585
:102F2000CF92DF92EF92FF920F931F93CF93DF9395
:102F300080913E018F3FF1F1F12C96E1E92E0F2DAA
:102F400010E080913E01082E000C990B801791072C
:102F50008CF1E09EF001E19EF00D1124E050FF4F56
:102F6000C288D388C114D10419F488ECC82ED12C9E
:102F7000E09EE001E19ED00D1124C050DF4F8E8114
:102F80008823B1F08D859E850E945F25C816D906DD
:102F900078F48989811103C0CE010E945E16E09EFB
:102FA000C001E19E900D11248A5F9E4F0E94A616DB
:102FB000F394C5CFDF91CF911F910F91FF90EF90C8
:102FC000DF90CF90089590931F0280931E02089582
:102FD000E0911E02F0911F02309721F00190F081E4
:102FE000E02D099480E00895EF92FF920F931F93D4
:102FF000CF93DF93E0911E02F0911F023097B1F161
:103000008C010280F381E02D09958091830282FF7B
:103010002DC080FF04C089ED96E00E942C07E801D6
:1030200018E083EDE82E86E0F82E8091830280FF81
:103030000BC088811F928F93FF92EF920E94C50769
:103040000F900F900F900F90115021961111EDCF0E
:103050008091830280FF0AC081ED96E0DF91CF91DD
:103060001F910F91FF90EF900C942C07DF91CF915F
:103070001F910F91FF90EF90089520911C023091C5
:103080001D022817390771F090931D0280931C02CE
:10309000E0911E02F0911F02309721F00680F78127
:1030A000E02D0994089520911A0230911B022817EF
:1030B000390771F090931B0280931A02E0911E026F
:1030C000F0911F02309721F00084F185E02D0994E2
:1030D000089585B7806885BF85B7806885BF0895E6
:1030E00008950C9470180C9471180C9470180C942A
:1030F00070180E9469180E9475180C94731881E06A
:1031000008950C947F180E943E250E94D4070E94C7
:10311000A5250E9432110E9454130C947718CF9366
:10312000C82F8091830282FF1EC080FF04C082EFFF
:1031300096E00E942C078091830280FF0CC01F92B2
:10314000CF938DEE96E09F938F930E94C5070F90CB
:103150000F900F900F908091830280FF04C08BEE40
:1031600096E00E942C078C2FCF910C94B709AF9258
:10317000BF92CF92DF92EF92FF920F931F93CF9364
:10318000DF93CDB7DEB72A970FB6F894DEBF0FBE38
:10319000CDBF0E9424080E948118811111C08FEFB9
:1031A00089838A831B820E9447258160782F9D83B3
:1031B0008C8349815A816B818D810E94511940C055
:1031C00081E2A82E82E0B82E00E010E0C02E802F11
:1031D0000E94CE07E82EF501D1905F01D82631F488
:1031E0000F5F1F4F0530110589F7D9CF80918302FA
:1031F00081FD0E94E80880E0FF24F3949D2D9F212B
:10320000D1F08E83CF82EF2081E009F480E08887BF
:103210000E9447258160782F9A8789874E815F8138
:1032200068858A850E945119F801EF5DFD4F808104
:10323000F826F08205C08F5FFF0C8430F9F6D0CFFE
:103240000E941E120E94B8130E94E817909120025B
:103250008917B1F00E94E817809320022A960FB6D2
:10326000F894DEBF0FBECDBFDF91CF911F910F91BC
:10327000FF90EF90DF90CF90BF90AF900C948F189D
:103280002A960FB6F894DEBF0FBECDBFDF91CF9167
:103290001F910F91FF90EF90DF90CF90BF90AF9074
:1032A0000895CF93DF93CDB7DEB72B970FB6F89481
:1032B000DEBF0FBECDBF4F83588769877A878B8764
:1032C000DE01119686E0FD0111928A95E9F785E00D
:1032D000FE01379601900D928A95E1F749815A8156
:1032E0006B817C818D819E810E94E61F2B960FB69B
:1032F000F894DEBF0FBECDBFDF91CF910895FC01E2
:10330000808191810E94B8220895CF93882309F487
:10331000A1C0C82F8238C1F40E94E81781FD9AC06D
:1033200069E380913F01909140010E9499240E949D
:1033300048232FEF81EE94E0215080409040E1F748
:1033400000C0000069E319C0833801F50E94E81746
:1033500080FD80C063E580913F01909140010E9413
:1033600099240E9448232FEF81EE94E02150804061
:103370009040E1F700C0000063E580913F0190912B
:1033800040010E949B24CF910C9448238438C1F4BF
:103390000E94E81782FD5EC067E480913F01909132
:1033A00040010E9499240E9448232FEF81EE94E06F
:1033B000215080409040E1F700C0000067E4DDCF7D
:1033C0008CEF8C0F813AF8F48C2F0E945F288111CA
:1033D00041C06C2F80913F01909140010E94632475
:1033E000882349F06C2F80913F01909140010E9409
:1033F0009B240E9448236C2F80913F0190914001B3
:103400000E949924C0CF80E28C0F883048F4C770A6
:1034100081E001C0880FCA95EAF70E94FA22B3CF73
:10342000EBE5EC0FE33040F4F0E0E052FE4F80813A
:1034300090E0CF910C943D18C85AC73158F4EC2F46
:10344000F0E0EE0FFF1FEE54FE4F80819181CF918F
:103450000C945318CF910895882309F45BC0682F0A
:10346000823879F40E94E81781FF54C069E38091A3
:103470003F01909140010E9499240E94482369E3F2
:1034800010C08338B1F40E94E81780FF43C063E5A1
:1034900080913F01909140010E9499240E9448230D
:1034A00063E580913F01909140010E949B240C9420
:1034B0004823843879F40E94E81782FF2BC067E420
:1034C00080913F01909140010E9499240E944823DD
:1034D00067E4E7CF8CEF860F813A18F380E2860F1E
:1034E000883048F4677081E001C0880F6A95EAF778
:1034F0000E940023DCCF8BE5860F833020F480E030
:1035000090E00C943D18685A673120F480E090E018
:103510000C9453180895CF93C82F0E948519C9336E
:1035200049F42FEF87EE93E0215080409040E1F77F
:1035300000C000008C2FCF910C942C1A882321F00E
:103540000E94FA220C9448230895882321F00E94B7
:1035500000230C9448230895CF92DF92EF92FF92BC
:103560000F931F93CF93DF937C01062FC72FFC018E
:10357000158112951F70D281D1110E941A230E94C9
:10358000F022882399F0DD2389F08C2F807F80340E
:1035900021F080E2800F883048F082E00E94922380
:1035A0000E94F02291E0D82ED92601C0D12CCC2E39
:1035B000C2948FE0C8228C2D90E0FC01E659FF4FA9
:1035C0000C946C308C2F807FCF70882311F0C295C3
:1035D000C07FDD2399F0CC2309F482C180E2800F03
:1035E000883010F0011104C08C2F0E94FA2203C011
:1035F0008C2F0E940D230E94482372C1802F0E94AD
:103600002C1ACC2309F491C180E2800F883010F08D
:10361000011104C08C2F0E94002303C08C2F0E9434
:1036200013230E94482381C18C2F807FCF7080326A
:1036300011F0C295C07F002319F00130C9F022C0FB
:10364000DD2371F0112341F0113031F40E942D235C
:103650008C2B0E94352369C10E942D238C2B1DC009
:10366000112319F0113009F460C10E943E2325C0D6
:10367000DD2321F0163008F058C10EC0153008F0D7
:1036800054C11BC0DD2361F0112331F0F7018581A6
:1036900080FF26C18F7085838C2F0E949E1A45C1A2
:1036A000112359F0093309F02CC1FFEF27EE83E015
:1036B000F15020408040E1F722C18C2F0E94A51AD2
:1036C00034C18C2F86958695837019F0813061F016
:1036D0002CC1DD2321F0802F9C2F937002C080E04D
:1036E00090E00E943D1829C1DD2321F0802F9C2FFE
:1036F000937002C080E090E00E9453181EC18C2F8E
:10370000837009F045C0D11114C1402F42954695F0
:103710004770440F440F602F6F70862F90E0A0E039
:10372000B0E0042E04C0880F991FAA1FBB1F0A9483
:10373000D2F704FF10C00FE010E020E030E004C03A
:10374000000F111F221F331F4A95D2F700951095C5
:103750002095309503C000E010E09801C695C6950D
:10376000C370BC01CD01602B712B822B932BC23017
:1037700049F058F4C13019F00E943721DAC00E9494
:103780002521D7C00E944921D4C00E942321D1C045
:10379000DD2319F08C2F817001C08695882309F4F0
:1037A000C8C0402F429546954770440F440F602F84
:1037B0006F70862F90E0A0E0B0E0042E04C0880F68
:1037C000991FAA1FBB1F0A94D2F704FF10C00FE075
:1037D00010E020E030E004C0000F111F221F331F53
:1037E0004A95D2F7009510952095309503C000E0DA
:1037F00010E09801C695C695C370BC01CD01602B41
:10380000712B822B932BC23049F058F4C13019F040
:103810000E94FC218EC00E94EA218BC00E940E22D1
:1038200088C00E945D2185C0CF70DD2339F08C2FC8
:103830000E948321802F0E949E1A7BC0802F0E94AD
:10384000A51A8C2F0E94A42174C0023F01F128F414
:10385000003F41F0013FA1F03FC0033FF9F0043FBA
:1038600039F13AC0DD2341F0153008F05EC08C2FED
:103870008F710E94C92159C0163008F056C0F7CF89
:10388000DD2339F08C2F8F710E9483214EC0DD2300
:10389000C9F38C2F8F710E94A42147C0DD2329F02A
:1038A0008C2F8F710E946E2140C00E9469213DC003
:1038B000DD2349F0CF718C2F0E94832163E08C2F90
:1038C0000E947D2332C081E00E949223123068F171
:1038D00082E00E94922329C0DD2331F0112391F26E
:1038E000802F0E94851921C0112399F2093349F4D0
:1038F0009FEFE7EEF3E09150E040F040E1F700C0C9
:103900000000802F0E942C1A10C04C2F4F70602F87
:10391000C7010E943A0A0E9494200FC04C2F4F709A
:10392000602FC7010E943D0A08C088EF8C0D8430CB
:1039300020F40E94E8170E94B709DD20C9F00E9418
:10394000EC2280FD15C0F70112820E94E6220E943F
:103950008321C7010E94D91C0E94E622DF91CF91EA
:103960001F910F91FF90EF90DF90CF900C94A421C6
:10397000DF91CF911F910F91FF90EF90DF90CF904B
:1039800008950F931F93CF93DF93EC0168817981A2
:103990008A810E94C3228C010E9420220E94112150
:1039A000B801CE010E94AC1ADF91CF911F910F9107
:1039B0000895CF93DF93EC01988189812B813C811D
:1039C000232B31F08F3F31F481E09F3F19F403C086
:1039D00081E001C080E080FD19C0CE010E94D009C5
:1039E00081110CC00E94F022882381F08A818823F3
:1039F00069F082E0DF91CF910C949223CE010E9476
:103A0000C11CCE01DF91CF910C949909DF91CF9128
:103A10000895882321F00E940D230C9448230895D3
:103A2000882321F00E9413230C94482308950E94B8
:103A30001A230E942A230E94482380E090E00E94DB
:103A40003D1880E090E00C94531880913F019091D4
:103A500040010E949D240C94171D0E9407230C9482
:103A6000251DE92FE295EF704E2F50E0FA013297B5
:103A7000EE30F105B0F4E658FF4F0C946C30803F07
:103A800091F018F4883E68F40EC0843F51F40BC0E6
:103A9000883E48F0813F29F406C093FB882780F9CF
:103AA000089580E0089581E008950E94B8220E9460
:103AB000311D0895CF93DF9300D000D01F92CDB772
:103AC000DEB70F900F900F900F900F90DF91CF9176
:103AD0000895CF93DF9300D000D000D0CDB7DEB7EC
:103AE00026960FB6F894DEBF0FBECDBFDF91CF9103
:103AF00008951F93CF93DF93C091270216E0809122
:103B00002802C81799F0D0E01C9FF0011D9FF00D0E
:103B10001124E75DFD4F4081518162817381848171
:103B200095810E94691D2196C770E9CFDF91CF91E1
:103B30001F9108954091590250915A0260915B0281
:103B400070915C0280915D0290915E020C94691DFF
:103B50000F931F93CF93DF9380915E0282958F70B6
:103B600009F05DC080915B02882309F458C0809100
:103B70002702109128026091590270915A02C09157
:103B80005C02D0915D0291E06F3F09F090E0292F37
:103B900006E0811709F443C0209721F07F3F21F010
:103BA00030E003C031E001C0322F90E030FD34C07E
:103BB000089FF001099FF00D1124DF01A75DBD4FA3
:103BC00011963C911197371327C03C91361324C0AE
:103BD00012963C91129731111FC013964D915C9132
:103BE00014974C1B5D0B483C5105B0F480915E026C
:103BF0008F70806180935E02E25DFD4F80818F70E7
:103C00008061808389E592E00E94D91CDF91CF9189
:103C10001F910F910C94791D01968770BACFDF9197
:103C2000CF911F910F9108959F92AF92BF92CF9223
:103C3000DF92EF92FF920F931F93CF93DF93CDB755
:103C4000DEB761970FB6F894DEBF0FBECDBF8C0113
:103C500085E0F801DE011D9601900D928A95E1F74D
:103C6000F80140815181E2809091590260915A029D
:103C700020915C0230915D022115310531F06F3FDA
:103C800031F481E09F3F19F403C081E001C080E07E
:103C9000F82FF1709F2E80FD46C1F801A380B480FB
:103CA00089E5C82E82E0D82EF0905B02F501E21B78
:103CB000F30BFF2009F4DFC080915E02E83CF105C0
:103CC00008F09BC0282F207F09F052C0561313C064
:103CD000491311C0FE2CE1100EC08F7080618093DB
:103CE0005E020E949A1DC6010E94D91C80915E024C
:103CF000F801858358C1AB2831F05F3F31F481E092
:103D00004F3F19F403C081E001C080E080FD03C093
:103D100081E08E2502C080E090E0F82FF170FF2E48
:103D200080FF1CC0809127022091280236E0821774
:103D300009F417C190E0389FF001399FF00D11246C
:103D4000E75DFD4F6181561306C06081461303C0D5
:103D50006281E61203C001968770E9CFFE2CEE2047
:103D600009F421C180915E02816080935E025AC095
:103D7000561306C0491304C0E11002C0F8019FC0E9
:103D80004D875E878D859E850E94551D882379F11C
:103D9000EE2069F120915E02822F82958F7090E073
:103DA000029774F08091590290915A0298878F83FC
:103DB0001986BB86AA862C87CE0107960E94D91C3D
:103DC00086E0F801A9E5B2E001900D928A95E1F74D
:103DD0000E94A81D0E949A1D0DC0561729F14D87FB
:103DE0005E878D859E850E94551D81112CC0C8015E
:103DF0000E94D91CFF24F394D6C0282F207F69F796
:103E00007A2DB98AA88A6E2D89890E945A1D89E562
:103E100092E00E94D91C86E0F60111928A95E9F79A
:103E20000E949A1DF12CBFC04913D9CFE110D7CF02
:103E3000F8018583C8010E94D91C86E0F601119221
:103E40008A95E9F7B0C0EE2091F220915E02822FB0
:103E500082958F7090E002970CF4B2CF8091590256
:103E600090915A029A8389831B82BD82AC822E83F1
:103E7000CE010196A3CFE83CF10508F047C0FE2C27
:103E8000EE2009F4B4CF561330C049132EC0209150
:103E90005E0220FD21C0822F82958F70482F50E056
:103EA00041155105C9F0F80125834F30510541F006
:103EB0008F5F982F9295907F822F8F70892B8583AB
:103EC000C8010E94D91C86E0F801A9E5B2E0019082
:103ED0000D928A95E1F742C086E0F801A9E5B2E0CB
:103EE00001900D928A95E1F75EC04D875E878D85C2
:103EF0009E850E94551D811163CF80915E02816075
:103F000080935E02C8010E94D91C4DC07A2DB98AE7
:103F1000A88A6E2D89890E945A1D86E0F6011192A9
:103F20008A95E9F71BC0EE2009F461CF4D875E87C3
:103F30008D859E850E94551DF82E882309F457CF44
:103F400086E0F801A9E5B2E001900D928A95E1F7CB
:103F500089E592E00E947F190E94A81D0E949A1D87
:103F600022C04D875E878D859E850E94B822292FAD
:103F700022952F70223028F49F7039F0811105C0EE
:103F80000BC0243028F49F7049F4805E883020F004
:103F9000C8010E94D91C9F2CF92C05C0F8019581FD
:103FA000907F99F7F9CF8F2D61960FB6F894DEBF09
:103FB0000FBECDBFDF91CF911F910F91FF90EF907A
:103FC000DF90CF90BF90AF909F9008951F93CF93B5
:103FD000DF93CDB7DEB72C970FB6F894DEBF0FBED8
:103FE000CDBF4F83588769877A878B879C87CE019F
:103FF00007960E94141E8823D1F09F8188852A8508
:104000003B85232B31F08F3F31F481E09F3F19F442
:1040100003C081E001C080E080FD47C04F8158852A
:1040200069857A858B859C850E94691D3EC086E0E6
:10403000FE013796DE01119601900D928A95E1F707
:10404000FF81E8856A857B856115710531F0EF3F59
:1040500031F481E0FF3F19F403C081E001C080E04A
:1040600080FD23C02091280230E0C90101968770AD
:1040700099274091270250E084179507F1F1F983C1
:10408000EA837D836C8396E0929FD001939FB00D6D
:104090001124A75DBD4FFE01319601900D929A95B6
:1040A000E1F7809328020E94791D16E08091270293
:1040B00090912802891771F1189FC0011124875D22
:1040C0009D4F0E94141E882329F1E09127021E9F14
:1040D000F0011124E75DFD4F4081518162817381C0
:1040E000848195810E94691D8091270290E001964C
:1040F0008770992780932702D9CF0E942D1D109297
:10410000280210922702E9E5F2E086E0DF011D9225
:104110008A95E9F72C960FB6F894DEBF0FBECDBF97
:10412000DF91CF911F910895EF92FF920F931F930C
:10413000CF93DF938C01892B09F46CC0F12CEE2412
:10414000E394E8012196F8018491843740F48430A7
:1041500008F051C0813081F0823019F15BC08537A1
:1041600009F444C0A8F19CE7980F903708F052C0BA
:104170008F770E942C1A41C00E5F1F4FFE01849161
:1041800090E2980F983050F48770FE2D01C0FF0F19
:104190008A95EAF78F2F0E941D2314C00E9485196B
:1041A0002DC00E5F1F4FFE01849190E2980F983052
:1041B00060F48770FE2D01C0FF0F8A95EAF78F2FFC
:1041C0000E9423230E94482319C00E942C1A16C063
:1041D0000E5F1F4FFE01C491CC2381F08FE99FE059
:1041E0000197F1F700C00000C150F6CF0E5F1F4FDE
:1041F000FE01F49003C00E9485198E018F2D882343
:1042000009F49FCFEFE9FFE03197F1F700C000001C
:104210008150F5CFDF91CF911F910F91FF90EF90DB
:104220000895089508950C9412210C9413210E946E
:1042300015216093720270937302809374029093BD
:1042400075020C94171D0C9417210F931F93009166
:104250007202109173022091740230917502602BEA
:10426000712B822B932B1F910F910C9417210F937D
:104270001F93009172021091730220917402309189
:10428000750260237123822393231F910F910C9455
:1042900017210F931F9300917202109173022091C6
:1042A00074023091750260277127822793271F912E
:1042B0000F910C9417210C9412210E945B216093A2
:1042C0006E0270936F0280937002909371020C944F
:1042D000171D60E070E0CB010C945D210F931F93DC
:1042E00041E050E060E070E08A019B0104C0000FF3
:1042F000111F221F331F8A95D2F7C901B8011F91E0
:104300000F910C945D210F931F9341E050E060E00A
:1043100070E004C0440F551F661F771F8A95D2F7BF
:1043200080916E0290916F02A0917002B091710223
:104330008A019B01082B192B2A2B3B2BC901B801A1
:104340001F910F910C945D210F931F9341E050E05A
:1043500060E070E004C0440F551F661F771F8A9508
:10436000D2F7409550956095709580916E0290912E
:104370006F02A0917002B09171028A019B01082323
:1043800019232A233B23C901B8011F910F910C94D3
:104390005D210F931F9341E050E060E070E004C0A6
:1043A000440F551F661F771F8A95D2F780916E02C2
:1043B00090916F02A0917002B09171028A019B01ED
:1043C000082719272A273B27C901B8011F910F91F8
:1043D0000C945D210F931F9300916E0210916F0258
:1043E0002091700230917102602B712B822B932BE4
:1043F0001F910F910C945D210F931F9300916E02FA
:1044000010916F022091700230917102602371232C
:10441000822393231F910F910C945D210F931F937F
:1044200000916E0210916F02209170023091710222
:1044300060277127822793271F910F910C945D218C
:104440000895990F990F890FE82FE695E695E6955F
:10445000877051E001C0550F8A95EAF785E0E89F23
:10446000F0011124E15AFD4F20E030E070E040817E
:10447000CB01022E02C0969587950A94E2F78170CF
:10448000819584278523842781932F5F3F4F253093
:10449000310569F70895990F990F890F682F66956F
:1044A00066956695982F977085E0689FB0011124F6
:1044B00040E050E080E0FB01E40FF51FE15AFD4FC2
:1044C000208130E0092E02C0369527950A94E2F744
:1044D00021703327042E01C0220F0A94EAF7822BA1
:1044E0004F5F5F4F4530510531F70895BF92CF922E
:1044F000DF92EF92FF920F931F93CF93DF938C0184
:10450000C0906E02D0906F02E0907002F090710245
:104510008091720290917302A0917402B091750221
:10452000C82AD92AEA2AFB2ACFE1D0E0D701C6015E
:104530000C2E04C0B695A795979587950A94D2F747
:1045400080FD04C0219790F7B12C07C0BC2EB801A4
:104550008C2F0E945A0A0197A9F38B2DDF91CF91DE
:104560001F910F91FF90EF90DF90CF90BF90089533
:10457000CF93DF93EC010E947622BE010E945A0A7B
:10458000DF91CF9108951F93CF93DF93EB0190912B
:104590002602992321F0CB010E94B82213C0882360
:1045A00049F0CB010E947622182F682FCE010E947D
:1045B000212204C0CB010E944B22182FBE01812F63
:1045C0000E945A0ADF91CF911F910895809176023F
:1045D00085958595859508958091760287700895D3
:1045E00090917602977081E009F480E008958091BF
:1045F0008202089590918202892B8093820208950D
:10460000809590918202892380938202089510926E
:104610008202089580918102089590918102892BF0
:1046200080938102089580959091810289238093DF
:104630008102089510928102089590918002892B41
:1046400080938002089580959091800289238093C1
:104650008002089510928002089580917702089553
:1046600008950C9430230C9431239091770298177D
:1046700021F0809377020C94332308958091770280
:10468000882329F01092770280E00C943323089558
:10469000E0913F01F0914001809182028083E0919E
:1046A0003F01F0914001908180918102892B8083AC
:1046B000E0913F01F0914001908180918002892B2F
:1046C000808380917702882381F0E0913F01F0910F
:1046D00040019081892B808380913F01909140011E
:1046E0000E94572481110E943E2380913F019091A6
:1046F00040010C94F4170C94302398E0899F9001AA
:104700001124262B209376020E9483218091760229
:104710008595859585950C947B231092760280E093
:104720000C947B23209176028095822380937602DD
:10473000982F977079F430E0482F082E000C550B15
:104740002417350739F08595859585950E94A42114
:104750000C948D2308959093F3018093F2010895B2
:1047600080E090E00E948D3021E08C3E9E4F09F069
:1047700020E0822F089582E090E00C947F3083E067
:1047800090E00C947F30CF9384E090E00E947F30E3
:10479000C82F81E290E00E947F302C2F30E0A901E9
:1047A000582BCA01CF910895CF93C92F682F84E069
:1047B00090E00E9493306C2F81E290E0CF910C94B6
:1047C0009330AB01BC018FE090E00C94A530AB01BD
:1047D000BC0183E190E00C94A53060E070E0CB0177
:1047E0000C94E72360E070E0CB010E94E1230C947D
:1047F000ED236CEE7EEF80E090E00E94B13060E04F
:1048000082E090E00E94933060E083E090E00E94BC
:1048100093301092720210927302109274021092EE
:10482000750260E084E090E00E94933060E081E2F5
:1048300090E00E94933060E085E090E00E94933029
:1048400060E086E090E00E9493306FEF87E090E0B8
:104850000E94933040E050E0BA0188E090E00E946E
:10486000A53060E08DE090E00E94933040E050E0A1
:10487000BA0188E190E00E94A53060E087E190E015
:104880000E94933040E050E0BA018CE190E00E9439
:10489000A53060E080E290E00E9493300C94F22317
:1048A0000C94F923682F8EE090E00C949330FC0177
:1048B000329697E080E0915029F021912223D9F39C
:1048C0008F5FF9CF0895662349F0FC013296089670
:1048D0002191621729F0E817F907D1F780E00895D0
:1048E00081E008959C01FC0132969FEF80E04191A8
:1048F000461789F09F3F19F4411101C0982F8F5F2F
:104900008630A9F79F3F39F0F901E90FF11D97FDB6
:10491000FA956283089508959C012A5F3F4FFC0138
:104920004281461301C01282019682179307B9F79C
:1049300008950C9472240C948C24029626E0FC01B9
:1049400011922A95E9F7089508950C94A4240C94E3
:10495000A424CF930E94A7240E9424080E94A52487
:10496000C0E08C2F0E94CE07811104C0CF5FC530FC
:10497000C1F701C081E0CF9108950C94A4240C9458
:10498000BD240E94BF248091C602843009F439C03E
:104990001092840220E488E190E00FB6F894A89584
:1049A000809360000FBE2093600080E00E94B709F2
:1049B0000E948E108091850281110AC081E080934F
:1049C0008502809196028170809386020E94FC117C
:1049D0000E94BF2483B7817F846083BF83B78160D7
:1049E00083BF7894889583B78E7F83BF0FB6F89482
:1049F000A8958091600088618093600010926000AB
:104A00000FBE08950C94A4240E942D1D0E94E81747
:104A10000E94B709109285028091860281110E943E
:104A200097110E946C100C9402251F920F920FB6E2
:104A30000F9211248F939F93AF93BF938091840221
:104A4000811113C08091BC029091BD02A091BE0261
:104A5000B091BF024196A11DB11D8093BC029093FD
:104A6000BD02A093BE02B093BF02BF91AF919F91D0
:104A70008F910F900FBE0F901F90189582E084BD0C
:104A800093E095BD9AEF97BD80936E0008952FB780
:104A9000F8948091BC029091BD02A091BE02B091A9
:104AA000BF022FBF08952FB7F8946091BC02709198
:104AB000BD028091BE029091BF022FBF08959C015C
:104AC0004FB7F8948091BC029091BD02A091BE02B4
:104AD000B091BF024FBF821B930B089578941F9231
:104AE0000F920FB60F9211248F939F93AF93BF93A2
:104AF0008091BC029091BD02A091BE02B091BF0214
:104B00000196A11DB11D8093BC029093BD02A0939C
:104B1000BE02B093BF02BF91AF919F918F910F9052
:104B20000FBE0F901F90189587E797E790930108A5
:104B3000809300089AE088E10FB6F894A8958093D6
:104B400060000FBE90936000FFCF0E94B0238111E0
:104B500002C00E9450240E94BB23809383020E94C3
:104B6000C3239093C1028093C0020E94BF23682F89
:104B700070E080E090E00C942321CF93C82F1F9227
:104B80008F938BE097E09F938F930E94C50781E0FE
:104B900090E0A0E0B0E0BC01CD0104C0660F771F3B
:104BA000881F991FCA95D2F70E9423210F900F905A
:104BB0000F900F90CF910C942D1DCF93DF938B31DD
:104BC00009F4EEC108F08FC18B3009F4B2C108F0CE
:104BD00065C1863009F4B0C120F4853009F4BEC146
:104BE00061C2873009F4C1C1883009F05BC285E435
:104BF0009CE00E942C0786E99BE00E942C070E9403
:104C0000BF231F928F9383E99BE09F938F930E9412
:104C1000C50781E99BE00E942C070E94BB23C82F97
:104C20008EE79BE00E942C071F92CF9389E79BE0C1
:104C30009F938F930E94C50787E79BE00E942C07F4
:104C40008DE69BE00E942C078C2F81701F928F9322
:104C50008AE69BE09F938F930E94C50788E69BE0BE
:104C60000E942C078EE59BE00E942C07C1FB882741
:104C700080F91F928F938BE59BE09F938F930E9407
:104C8000C50789E59BE00E942C078DE49BE00E940C
:104C90002C07C2FB882780F91F928F938AE49BE040
:104CA0009F938F930E94C50788E49BE00E942C0786
:104CB0008FE39BE00E942C07C3FBCC27C0F91F9217
:104CC000CF938CE39BE09F938F930E94C5078AE369
:104CD0009BE00E942C070E94C323EC0186E29BE02C
:104CE0000E942C07DF93CF9381E29BE09F938F93E9
:104CF0000E94C5078FE19BE00E942C0786E09BE0A5
:104D00000E942C078C2F81701F928F9383E09BE071
:104D10009F938F930E94C5078DB79EB780960FB65D
:104D2000F8949EBF0FBE8DBF81E09BE00E942C07D0
:104D30008AEE9AE00E942C07C1FB882780F91F9217
:104D40008F9387EE9AE09F938F930E94C50785EE1D
:104D50009AE00E942C0783ED9AE00E942C078D2F89
:104D600081701F928F9380ED9AE09F938F930E94A2
:104D7000C5078EEC9AE00E942C078CEB9AE00E940B
:104D80002C07D695D1701F92DF9389EB9AE09F9301
:104D90008F930E94C50787EB9AE00E942C0785EA53
:104DA0009AE00E942C07C2FB882780F91F928F93FC
:104DB00082EA9AE09F938F930E94C50780EA9AE067
:104DC0000E942C078EE89AE00E942C07C3FB8827DC
:104DD00080F91F928F938BE89AE09F938F930E94A4
:104DE000C50789E89AE00E942C078FE79AE00E94A5
:104DF0002C07C4FB882780F91F928F938CE79AE0D9
:104E00009F938F930E94C5078AE79AE00E942C0720
:104E100088E69AE00E942C07C5FB882780F91F923C
:104E20008F9385E69AE09F938F930E94C50783E650
:104E30009AE00E942C0787E49AE00E942C07C6FBA8
:104E4000882780F91F928F9384E49AE09F938F9331
:104E50000E94C5078DB79EB780960FB6F8949EBF87
:104E60000FBE8DBF82E49AE00E942C078AE39AE08D
:104E70000E942C07C7FBCC27C0F91F92CF9387E372
:104E80009AE09F938F930E94C50785E39AE00E9462
:104E90002C070F900F900F900F9049C0803109F4AC
:104EA000A9C020F48E3009F48FC0FCC0863109F40B
:104EB000BCC0893109F0F6C088E698E00E942C0752
:104EC0008DE398E00E942C0783E098E00E942C0775
:104ED00081ED97E00E942C0784EA97E00E942C075E
:104EE00089E797E084C08A32E1F060F4873209F400
:104EF000D5C028F48E3108F4D5C08D51D0C0893288
:104F000069F1D0C0833448F48A3308F0C5C08533D2
:104F100009F4C4C0883369F0C5C0833409F4BEC045
:104F2000C1C084E39CE00E942C070E945024C1E091
:104F3000BEC082E998E05BC080918302817F8E7F52
:104F40008093830287E798E00E942C0780E39CE02F
:104F50000E942C0781E080938702E9CF84E19CE0E6
:104F60000E942C070E94C109E2CF80918302C82FC2
:104F7000C095C170C0FB80F980938302CC2329F0D7
:104F800088E09CE00E942C0792C08BEF9BE00E947F
:104F90002C0780918302897F877F80938302C7CF0C
:104FA0009091830291FBCC27C0F981E0C827892F1B
:104FB000C0FB81F980938302CC2319F08EEE9BE035
:104FC00029C080EE9BE013C09091830292FBCC2716
:104FD000C0F981E0C827892FC0FB82F98093830242
:104FE000CC2319F081ED9BE015C081EC9BE00E9481
:104FF0002C079DCF9091830293FBCC27C0F981E0D1
:10500000C827892FC0FB83F980938302CC2351F0FA
:1050100085EB9BE00E942C07809183028160809346
:10502000830245C088EA9BE0E2CF8BE697E00E94CE
:105030002C070E94E8171F928F9381E597E09F93BA
:105040008F930E94C50780914B011F928F938AE333
:1050500097E09F938F930E94C507809194021F92BF
:105060008F9387E297E09F938F930E94C5070E94DA
:1050700053259F938F937F936F9380E197E09F9346
:105080008F930E94C5078DB79EB742960FB6F894CE
:105090009EBF0FBE8DBF4BCF895301C080E00E94E1
:1050A000BD2545CF86EA9BE00E942C07C0E08C2FEF
:1050B000DF91CF91089580E008950C945B28CF9301
:1050C000C82F80918702882319F0813031F038C0D1
:1050D0000E94F7228232B1F504C00E94F722823288
:1050E00061F48C2F0E945D28811104C08C2F0E94D6
:1050F000DD2524C081E090E021C08C2F0E945B2838
:1051000081111BC0C43189F018F4CB3029F010C0D4
:10511000C93259F0C83361F487E798E00E942C0740
:1051200087E097E00E942C0708C0109287020CC00D
:1051300085E097E00E942C0707C081E0817006C0DF
:105140001092870280E002C080E0F8CFCF910895EE
:1051500080919302089508959FB7F89410928A025F
:105160009FBF9091C602943009F057C09091E9001A
:105170009F703091EC00232F217030FD20E8922B9E
:1051800023E02093E9002091EB0020FF43C0209111
:10519000EE0027FF3FC020918802222321F02091BA
:1051A000E80025FF37C01092880226E03091E80021
:1051B00035FD15C03091C602343061F53091EB00F9
:1051C00035FD28C0215021F481E08093880222C05F
:1051D000EFE9FFE03197F1F700C00000E7CF8093DF
:1051E000F1008091E80085FD0AC08091E80080FF11
:1051F000FCCF8091E8008E778093E80006C08FB7DF
:10520000F89421E020938A028FBF9F709093E90069
:1052100080E008959F709093E9008FEF0895CF93F9
:10522000DF9300D01F92CDB7DEB79091C6029430C5
:1052300019F589837B836A8382E08093E9008FEF8D
:105240009091E800815095FD06C095ED9A95F1F793
:1052500000008111F5CF8091E80085FF0DC040E08E
:1052600050E063E070E0CE0101960E948D2B8091AA
:10527000E8008E778093E8000F900F900F90DF91F9
:10528000CF910895CF93DF93EC010E94702B823071
:1052900011F0843031F4BE0184E0DF91CF910C94A1
:1052A0000F29DF91CF910895BC0183E00C940F2961
:1052B000CF93DF93EC010E94702B823011F0843089
:1052C00039F581E08093E9008FEF9091E8008150FB
:1052D00095FD06C095ED9A95F1F700008111F5CF87
:1052E0008091E80085FF14C040E050E068E070E085
:1052F000CE010E948D2B8091E8008E778093E8008C
:1053000088E0FE01ABE8B2E001900D928A95E1F7EA
:10531000DF91CF91089585E79CE00E942C07809152
:10532000C502811109C00E941E2D0E947B2D809113
:10533000E20084608093E200089581E79CE00E948F
:105340002C071092C50208958DE69CE00C942C0762
:1053500089E69CE00C942C0785E69CE00E942C07D3
:105360000C940425209189022F5F822F62E30E9412
:105370002A30992319F02093890208951092890206
:1053800080918A02882371F18091C602843041F5B0
:105390008091E9008F702091EC00922F917020FD98
:1053A00090E8892B93E09093E9009091EB0090FFB7
:1053B00014C09091EE0097FF10C09091E80095FF07
:1053C00003C01092F100F9CF9091E80090FF05C062
:1053D0009091E8009E779093E8008F708093E900A9
:1053E00010928A02089542E061EC81E00E94972CBD
:1053F00042E261EC82E00E94972C42E261EC83E0A1
:105400000C94972C8091C802833009F460C030F46A
:10541000813071F0823009F499C008958A3009F41E
:1054200085C08B3009F46BC0893009F0A7C020C05B
:105430008091C702813A09F0A1C08091E800877F7E
:105440008093E8008091CB029091CC02892B21F4CB
:1054500068E08BE892E003C060E080E090E070E0FC
:105460000E94D82B8091E8008B778093E800089504
:105470008091C702813209F081C08091CB02909166
:10548000CC02029708F07AC08091E800877F809371
:10549000E8008091E80082FD05C08091C60281117C
:1054A000F8CF6CC02091F3008091F20090E0922B35
:1054B000029729F48091F1008B7F813021F4809153
:1054C000F100809393028091E8008B7753C0809124
:1054D000C702813A09F052C08091CB029091CC0270
:1054E000892B09F04BC08091E800877F8093E8000A
:1054F0008091E80080FFFCCF80914B0136C0809105
:10550000C7028132D9F58091CB029091CC02892BD0
:10551000A9F58091E800877F8093E8000E94CC2C59
:105520008091C90280934B010C942D1D8091C7027C
:10553000813221F58091E800877F8093E8000E9406
:10554000CC2C8091CA028093940208958091C70266
:10555000813AA1F48091E800877F8093E8008091F0
:10556000E80080FFFCCF809194028093F10080914D
:10557000E8008E778093E8000C94CC2C089584B7D3
:10558000877F84BF0FB6F894A895809160008861EA
:1055900080936000109260000FBE90E080E80FB62C
:1055A000F89480936100909361000FBE0E94791877
:1055B0000E941E2D0E947B2D8091E20084608093CA
:1055C000E2008CEA98E20E94AB2378940E940F30AC
:1055D0000E94831881E491E00E94E31784E59CE037
:1055E0000E942C078091C602853089F480E59CE0FA
:1055F0000E942C070E94C1248091C402882391F349
:105600000E94A924882371F30E94772BEBCF0E947C
:10561000B718E8CF0C940C2B292F332723303105F2
:10562000C9F060F42130310581F02230310509F0F4
:1056300047C08BE590E02DEA3CE046C021323105C1
:1056400011F12232310561F13BC082E190E028E0A6
:105650003DE03AC099278130910561F040F08230F9
:10566000910559F0039761F5E9E7FCE008C0E9EA24
:10567000FCE005C0EDE8FCE002C0EFE7FCE084914F
:1056800090E09F0121C063307105D0F4660F771F51
:10569000FB01E451FE4F2081318189E090E014C08C
:1056A0006330710568F4FB01EE0FFF1FEA51FE4FF6
:1056B00020813181FB01ED51FE4F808190E004C0DB
:1056C00080E090E020E030E0FA013183208308950B
:1056D0008091C602843011F081E0089582E008953F
:1056E00080919502811102C00C94682B089580E18D
:1056F00089BD82E189BD09B400FEFDCF8091D8004B
:105700008F7D8093D8008091E00082608093E000DC
:105710008091E00081FDFCCF0895CF92DF92EF925F
:10572000FF920F931F93CF93DF93EC018B017A01CC
:105730000E94EB2C811133C0E114F10439F0F70120
:1057400080819181081B190BC80FD91FC12CD12C46
:105750000115110519F18091E80085FD16C08091B1
:10576000E8008E778093E800E114F10449F0F70136
:1057700080819181C80ED91ED182C08285E00FC080
:105780000E94EB2C882321F30AC089918093F100B9
:1057900001501109FFEFCF1ADF0ADACF80E0DF9165
:1057A000CF911F910F91FF90EF90DF90CF900895D0
:1057B0002091CD023091CE022617370748F06115AF
:1057C000710539F42091E8002E772093E80001C09C
:1057D000B901FC0120E06115710579F18091C602E3
:1057E0008823F1F18530F1F18091E80083FD3CC020
:1057F0008091E80082FD2EC08091E80080FFEBCF11
:105800002091F3008091F20090E0922B61157105D8
:1058100051F08830910538F421912093F1006150C6
:1058200071090196F3CF21E0089709F020E08091FB
:10583000E8008E778093E800CECF2111CFCF0AC049
:105840008091C602882361F0853061F08091E80084
:1058500083FD0AC08091E80082FFF2CF80E00895C6
:1058600082E0089583E0089581E008952091CD02BB
:105870003091CE022617370748F06115710539F4CB
:105880002091E8002E772093E80001C0B901FC01C7
:1058900020E06115710591F18091C602882309F419
:1058A00040C0853009F43FC08091E80083FD3DC0D1
:1058B0008091E80082FD2FC08091E80080FFE9CF51
:1058C0002091F3008091F20090E0922B6115710518
:1058D00059F08830910540F424912093F1003196DD
:1058E000615071090196F2CF21E0089709F020E09C
:1058F0008091E8008E778093E800CBCF2111CCCF48
:105900000AC08091C602882361F0853061F08091E1
:10591000E80083FD0AC08091E80082FFF2CF80E0BA
:10592000089582E0089583E0089581E00895982F16
:10593000973068F59093E900981739F07091EC0072
:105940002091ED005091F00003C0242F762F50E0FD
:1059500021FD02C09F5FECCF3091EB003E7F309382
:10596000EB003091ED003D7F3093ED003091EB0086
:1059700031603093EB007093EC002093ED00509376
:10598000F0002091EE0027FDE5CF80E008958F70B4
:105990008093E90081E008958091C70287FF11C0DC
:1059A0008091E80082FD05C08091C6028111F8CF88
:1059B00011C08091E8008B770BC08091C6028823CC
:1059C00049F08091E80080FFF8CF8091E8008E7761
:1059D0008093E80008952091E4003091E50095E679
:1059E0004091EC00842F817040FF23C08091E8003B
:1059F00080FD1DC08091C602882399F0853099F002
:105A00008091EB0085FD11C04091E4005091E500CC
:105A10002417350729F3915011F09A01E1CF84E062
:105A2000089582E0089583E0089581E0089580E07C
:105A300008954091E80042FFDDCF08950E948C2D2B
:105A40000E94942DE0EEF0E0808181608083E8ED9B
:105A5000F0E080818F77808319BCA7EDB0E08C9156
:105A60008E7F8C9380818F7E80831092C5020895F3
:105A70000F931F93CF93DF930E948C2D0E94942D40
:105A8000C8EDD0E088818F7788838881806888839B
:105A900088818F7D888319BC1092C6021092C20241
:105AA0001092C4021092C30200EE10E0F80180814F
:105AB0008B7F808388818160888342E060E080E022
:105AC0000E94972CE1EEF0E080818E7F8083E2EEF1
:105AD000F0E0808181608083808188608083F8012C
