:100000000C94DA060C9421070C9421070C94210718
:100010000C9421070C9421070C9421070C942107C0
:100020000C9421070C9421070C94D52D0C94A72E29
:100030000C9429250C9421070C9421070C9421077A
:100040000C9421070C9421070C9421070C94210790
:100050000C9421070C949D250C9421070C942107E6
:100060000C9421070C9421070C9421070C94210770
:100070000C9421070C9421070C9421070C94210760
:100080000C9421070C9421070C9421070C94210750
:100090000C9421070C9421070C9421070C94210740
:1000A0000C9421070C9421070C9421070B130E13B9
:1000B00013131A131F13241329132E133313381376
:1000C0003D134213461349134C134F135213591344
:1000D00059135913081B081B3A1B3A1B871BBB1CDF
:1000E000BB1CBB1CA51B3A1C4B1C4B1CAB1CBB1CE0
:1000F000BB1CB41C4B1D4B1D5D1D5D1D541D5D1DAA
:100100005D1D5D1D4B1D4B1D591D5D1D5D1D591D4B
:10011000142F3B2F33303B2F3330872FAA2F333010
:100120000130103004000500060007000800090037
:100130000A000B000C000D000E000F001000110053
:100140001200005716001900000000000100C35CF7
:10015000C45CC25CCA5CC95CC65CC55CC85CC75C8C
:100160000100010001000100005C015700000000D7
:100170000000000044454255473A206469736162BB
:100180006C65642E0A0044454255473A20656E610D
:10019000626C65642E0A007267626C69676874201D
:1001A00074696D65722064697361626C652E0A0002
:1001B0007267626C696768742074696D6572206526
:1001C0006E61626C65642E0A007267626C696768B2
:1001D000742073657420687376205B4E4F454550DC
:1001E000524F4D5D3A2025752C25752C25750A003A
:1001F0007267626C696768742073657420687376CF
:10020000205B454550524F4D5D3A2025752C257594
:100210002C25750A007267626C69676874206469CE
:100220007361626C65205B4E4F454550524F4D5D8A
:100230003A207267626C696768745F636F6E6669A3
:10024000672E656E61626C65203D2025750A00721F
:1002500067626C696768742064697361626C6520A9
:100260005B454550524F4D5D3A207267626C69673D
:1002700068745F636F6E6669672E656E61626C6538
:10028000203D2025750A007267626C6967687420DA
:10029000656E61626C65205B4E4F454550524F4D17
:1002A0005D3A207267626C696768745F636F6E663F
:1002B00069672E656E61626C65203D2025750A00B8
:1002C0007267626C6967687420656E61626C652034
:1002D0005B454550524F4D5D3A207267626C6967CD
:1002E00068745F636F6E6669672E656E61626C65C8
:1002F000203D2025750A007267626C69676874206A
:10030000746F67676C65205B454550524F4D5D3A91
:10031000207267626C696768745F636F6E66696795
:100320002E656E61626C65203D2025750A0072673E
:10033000626C69676874206D6F6465205B4E4F4521
:100340004550524F4D5D3A2025750A007267626C28
:1003500069676874206D6F6465205B454550524F36
:100360004D5D3A2025750A007267626C6967687492
:100370005F696E6974207267626C696768745F6335
:100380006F6E6669672E6D6F6465203D20302E208C
:1003900057726974652064656661756C7420766156
:1003A0006C75657320746F20454550524F4D2E0A71
:1003B000007267626C696768745F696E6974206552
:1003C00065636F6E666967206973206E6F74206560
:1003D0006E61626C65642E0A007267626C696768A0
:1003E000745F696E6974207374617274210A00729B
:1003F00067626C696768745F696E69742063616CB9
:100400006C65642E0A007267626C696768745F636A
:100410006F6E6669672E7370656564203D20256484
:100420000A007267626C696768745F636F6E666901
:10043000672E76616C203D2025640A007267626C2D
:10044000696768745F636F6E6669672E7361742095
:100450003D2025640A007267626C696768745F6397
:100460006F6E6669672E687565203D2025640A00F9
:100470007267686C696768745F636F6E6669672E20
:100480006D6F6465203D2025640A007267626C69A7
:100490006768745F636F6E6669672E656E61626C14
:1004A00065203D2025640A007267626C6967687484
:1004B0005F636F6E66696720454550524F4D3A0A3B
:1004C000007F3F1F643214643214783C1E1E140AED
:1004D000052223252628292A2C2D2F303233353684
:1004E000383A3B3D3E4042434547494A4C4E5051C5
:1004F000535557595A5C5E6062646668696B6D6FEC
:1005000071737577797B7D7F81838587898A8C8EEE
:1005100090929496989A9C9E9FA1A3A5A7A8AAACF6
:10052000AEAFB1B3B4B6B8B9BBBCBEBFC1C2C3C530
:10053000C6C7C9CACBCCCDCED0D1D2D2D3D4D5D6D2
:10054000D7D7D8D9D9DADADBDBDBDCDCDCDCDCDD05
:10055000DDDDDDDCDCDCDCDCDBDBDBDADAD9D9D8E9
:10056000D7D7D6D5D4D3D2D2D1D0CECDCCCBCAC981
:10057000C7C6C5C3C2C1BFBEBCBBB9B8B6B4B3B1B0
:10058000AFAEACAAA8A7A5A3A19F9E9C9A9896944B
:1005900092908E8C8A89878583817F7D7B79777520
:1005A00073716F6D6B6968666462605E5C5A5957FF
:1005B000555351504E4C4A4947454342403E3D3BBE
:1005C0003A3836353332302F2D2C2A292826252348
:1005D00022000101010101010101010202020202E6
:1005E00002020202030303030303030304040404DB
:1005F00004040405050505050606060606070707A3
:10060000070708080808090909090A0A0A0B0B0B59
:100610000C0C0C0D0D0D0E0E0E0F0F0F10101111F6
:10062000111212131314141515161617171818197A
:10063000191A1A1B1B1C1D1D1E1E1F2020212222E1
:10064000232424252626272829292A2B2C2D2D2E24
:100650002F30313232333435363738393A3B3C3D3E
:100660003E3F404142434445464748494A4C4D4E2F
:100670004F50515354555658595A5B5D5E5F6162F5
:1006800064656668696B6C6D6F7072737577787A84
:100690007B7D7E8082838587888A8C8E8F919395DF
:1006A00096989A9C9EA0A2A3A5A7A9ABADAFB1B303
:1006B000B5B7BABCBEC0C2C4C6C9CBCDCFD1D4D6E3
:1006C000D8DBDDDFE2E4E7E9EBEEF0F3F5F8FAFD85
:1006D000FF0A002530325820006B6579626F617225
:1006E000645F7265706F72743A20000A00253032C0
:1006F00058006B6579626F6172645F7365745F6CDB
:1007000065643A20003F00433E20004C25640A0007
:1007100074696D65725F72656164333228293A20AD
:100720002530346C580A006B6579626F6172645FC2
:1007300069646C653A2025580A006B6579626F61BF
:1007400072645F70726F746F636F6C3A2025580A21
:1007500000686F73745F6B6579626F6172645F6C60
:1007600065647328293A2025580A000A092D205368
:100770007461747573202D0A004743433A20352E67
:10078000342E30204156522D4C4942433A20322ECD
:10079000302E30204156525F415243483A20617614
:1007A00072350A004F5054494F4E533A204C55462B
:1007B000412045585452414B455920434F4E534FC9
:1007C0004C4520434F4D4D414E4420343039360A7C
:1007D000004255494C443A2022302E372E313634CF
:1007E0002D322D6735653437663922202831343A69
:1007F00034323A3230204665622032332032303291
:1008000030290A005649443A203078464545442864
:100810004A6F7368204A6F686E736F6E2920504963
:10082000443A2030783846373328487562313629C3
:10083000205645523A203078303030310A00444555
:1008400053433A204D6163726F2050616420776991
:100850007468205553422048756220616E642045BB
:100860006E636F646572730A000A092D2056657203
:1008700073696F6E202D0A000A092D20436F6E7375
:100880006F6C65202D0A4553432F713A09717569C4
:10089000740A000A092D204D61676963202D0A44FE
:1008A0003A094465627567204D6573736167652019
:1008B000546F67676C650A583A094D6174726978BC
:1008C000204465627567204D6F646520546F6767CB
:1008D0006C65202D2053686F77206B657970726589
:1008E0007373657320696E206D6174726978206717
:1008F0007269640A4B3A094B6579626F61726420D0
:10090000446562756720546F67676C65202D2053BE
:10091000686F77206B65797072657373207265708C
:100920006F72740A4D3A094465627567204D6F75A0
:10093000736520546F67676C650A563A095665728D
:1009400073696F6E0A533A095374617475730A437D
:100950003A09416374697661746520436F6E736F01
:100960006C65204D6F64650A46312D4631303A0979
:1009700053776974636820746F204C6179657220C5
:10098000302D392028463130203D204C30290A3086
:100990002D393A0953776974636820746F204C616C
:1009A00079657220302D390A47524156453A09532C
:1009B000776974636820746F204C617965722030A8
:1009C0002028616C7465726E617465290A423A0967
:1009D0004A756D7020746F20426F6F746C6F616424
:1009E00065720A4553433A094A756D7020746F2049
:1009F000426F6F746C6F616465722028616C7465FE
:100A0000726E617465290A453A095072696E7420E4
:100A1000454550524F4D2053657474696E67730A93
:100A20004253504143453A09436C65617220454544
:100A300050524F4D0A000A002575002E6E6B726FE2
:100A40003A20000A002575002E737761705F62619D
:100A5000636B736C6173685F6261636B7370616316
:100A6000653A20000A002575002E737761705F6774
:100A7000726176655F6573633A20000A0025750030
:100A80002E6E6F5F6775693A20000A002575002E8B
:100A9000737761705F72616C745F726775693A2019
:100AA000000A002575002E737761705F6C616C74AD
:100AB0005F6C6775693A20000A002575002E737710
:100AC00061705F7263746C5F726775693A20000AC7
:100AD000002575002E737761705F6C63746C5F6CBA
:100AE0006775693A20000A002575002E63617073EE
:100AF0006C6F636B5F746F5F636F6E74726F6C3A71
:100B000020000A002575002E737761705F636F6E99
:100B100074726F6C5F636170736C6F636B3A20000B
:100B20000A0025303258006B65796D61705F636F24
:100B30006E6669672E7261773A20000A002575009B
:100B40002E6D6F7573653A20000A002575002E6BB7
:100B50006579626F6172643A20000A002575002E83
:100B60006D61747269783A20000A002575002E655F
:100B70006E61626C653A20000A00253032580064CC
:100B8000656275675F636F6E6669672E7261773A3B
:100B900020000A0025750064656661756C745F6CE1
:100BA000617965723A20003F000A6D6F7573653A8E
:100BB000206F66660A000A6D6F7573653A206F6E66
:100BC0000A000A6B6579626F6172643A206F66662B
:100BD0000A000A6B6579626F6172643A206F6E0A6F
:100BE000000A6D61747269783A206F66660A000ABD
:100BF0006D61747269783A206F6E0A000A646562EA
:100C000075673A206F66660A000A64656275673A1E
:100C1000206F6E0A000A0A4A756D70696E6720744B
:100C20006F20626F6F746C6F616465722E2E2E2060
:100C300000433E2000436C656172696E6720454544
:100C400050524F4D0A006565636F6E6669673A0AD8
:100C5000005B735D004B6579626F61726420737431
:100C60006172742E0A005B575D005B535D005B523E
:100C70005D005B445D005B435D00040330000000E9
:100C80000C034800750062003100360000001A03B2
:100C90004A006F007300680020004A006F0068007F
:100CA0006E0073006F006E00000004030904090267
:100CB0005B00030100A0FA09040000010301010028
:100CC0000921110100012240000705810308000AE3
:100CD00009040100010300000009211101000122A3
:100CE00036000705820320000A09040200020300FF
:100CF00000000921110100012222000705830320C1
:100D0000000107050303200001120110010000008B
:100D100008EDFE738F0100010203010631FF097423
:100D2000A1010975150026FF0095207508810209AB
:100D300076150026FF00952075089102C00501096F
:100D400080A10185031A81002A8300160100260371
:100D500000950175108100C0050C0901A1018504F1
:100D60001A01002A9C02160100269C0295017510AA
:100D70008100C005010906A101050719E029E71551
:100D8000002501950875018102950175088101050D
:100D900007190029FF150026FF0095067508810038
:100DA000050819012905950575019102950175033D
:100DB0009101C00011241FBECFEFDAE0DEBFCDBF2E
:100DC00004B603FE27C08091D0029091D102A09179
:100DD000D202B091D3028730904BA740B04BD1F4F0
:100DE0001092D0021092D1021092D2021092D3022D
:100DF00014BE84B7877F84BF0FB6F894A8958091FE
:100E00006000886180936000109260000FBEE0E097
:100E1000F8E3099511E0A0E0B1E0EAE0F2E602C0F3
:100E200005900D92A03FB107D9F722E0A0EFB1E005
:100E300001C01D92A03DB207E1F70E94FB2A0C946D
:100E400003310C940000FF93EF93E091F001F091D7
:100E5000F101309709F00995EF91FF910895FC0198
:100E60008591803011F0EFDFFBCF0895FF27E0E29E
:100E700030E247FF0CC0419597FF09C0EDE2609555
:100E8000709580959095611D711D811D911D27FFA5
:100E900002C0219530E350E2AA27660F771F881F12
:100EA000991FAA1FA41710F0A41B63955A95A9F7C0
:100EB000AA3008F0A95FA05DAF93F39561157105A5
:100EC0008105910541F7ED3211F4EF93F395F21797
:100ED00018F43F93F395FBCF8F91B5DFFA95E1F7C7
:100EE0000895E991F9918591803021F0853219F0CA
:100EF000AADFF9CF089520E0E89455915532C1F367
:100F0000503311F4689455915A3348F4505390F388
:100F1000220F022E220F220F200D250FF4CF0EF4E8
:100F2000219589919991533619F3533729F1533506
:100F300059F1BC0188279927E8945C3621F48991FE
:100F4000999168945591543639F446EF7EF077FFC5
:100F50000DC08FEF9FEF0AC055374AE039F0583582
:100F600040E121F0523642E009F00895FF93EF93FB
:100F70007DDFEF91FF91B7CFFF93EF93FC0181915C
:100F80008030B9F360DFFBCFFF93EF9368DFF1CFE1
:100F9000DF93CF93CDB7DEB72596A3DFCF91DF9157
:100FA0000895E82FF0E0EC50FE4F80810895CF9334
:100FB000DF93AEE4B1E043E551E061E070E08D9194
:100FC000E82FE295EF70F0E021A18F70EB0102C0F5
:100FD000CC0FDD1F8A95E2F7CE019C2F90959223CE
:100FE00091A392A1892B82A34A175B0741F7AAE438
:100FF000B1E04EE451E061E070E08D91E82FE295C0
:10100000EF70F0E021A18F70EB0102C0CC0FDD1F6B
:101010008A95E2F7CE019C2F9095922391A392A1FD
:10102000892B82A34A175B0741F7E9EFF1E0A4EFB0
:10103000B1E08EEF91E011921D928E179F07D9F7C4
:1010400085E00E947D0CDF91CF910C94D5095F92D1
:101050006F927F928F929F92AF92BF92CF92DF92C8
:10106000EF92FF920F931F93CF93DF936EE471E0A3
:10107000A9EFB1E02EEFA22E21E0B22E612C01E00B
:1010800010E06D015C901C92EB018991BE01E82F8C
:10109000E295EF70F0E021A18F70A80102C0440F2B
:1010A000551F8A95E2F7CA01242B21A322A1942E71
:1010B0009094292122A350EA5A95F1F79AE4E92E57
:1010C00091E0F92E40E050E0E70189907E01282D63
:1010D00022952F7030E0E90128A17C9030E0D82DD6
:1010E000DF7002C035952795DA95E2F720FD08C03C
:1010F000302F042E01C0330F0A94EAF7232F01C0CA
:1011000020E027292C934F5F5F4F44305105E1F6D3
:1011100091A1992291A292A1892B82A3119681E09B
:10112000F6019081951101C080E0682AAA16BB06DD
:1011300009F0A7CF262D45E064EF71E089EF91E03B
:101140000E947E0C4091F8011092F8012091F30169
:10115000322F330F3093F3018091F201982F990FC2
:101160009093F2012FB1221F2227221F232B2093BD
:10117000F30189B1881F8827881F892B8093F2018A
:1011800091E02F3709F090E08F3711F080E001C037
:1011900082E0892B8093F80191E0481301C090E030
:1011A000C62DC92B0E94DF098C2FDF91CF911F9193
:1011B0000F91FF90EF90DF90CF90BF90AF909F90F6
:1011C0008F907F906F905F90089587988F98579831
:1011D0005F9808950895089581110BC083E76623F1
:1011E00021F00E94C11985E110C00E94C11984E15B
:1011F0000CC0813079F483E7662321F00E94C11985
:1012000088E103C00E94C11987E10E94B51A83E7F3
:101210000C94561A08951F93CF93DF938430910551
:1012200040F18337910530F09C0124573109213377
:101230003105F8F4FB01EC011281112369F083E719
:101240000E94C1198091FE018F5F8093FE018C2F57
:101250000E94C11910E00EC00E94561A8091FE0132
:1012600081508093FE01811105C083E70E94561AC8
:1012700001C011E0812FDF91CF911F9108959C0152
:101280003A9521153F4138F5DC01AA27B270AC012F
:10129000442754709C012227387094FF0FC090FFA0
:1012A00002C080E101C080E0AB2B09F08062452BD9
:1012B00009F08064232B69F080680BC0892F81704E
:1012C000AB2B09F08260452B09F08460232B09F0D9
:1012D0008860FB0109940895CF93DF93EC01805E51
:1012E0009109089710F0209719F468EC7AE102C090
:1012F00065E17DE1CE010E943F098C2FDF91CF9106
:101300000C94C119CF93DF93EC010E94561ACE01C1
:10131000805E9109089710F0209719F46FEC7AE13C
:1013200002C06CE17DE1CE01DF91CF910C943F09C9
:1013300081E008950C940B091F93CF93DF9300D0A5
:1013400000D01F92CDB7DEB749835A836B832091BB
:10135000270289819A81211112C0662349F00E94D7
:101360009922182F682F89819A810E94442203C0F4
:101370000E946E22182F69817A81812F04C00E94F9
:10138000992269817A810F900F900F900F900F90A2
:10139000DF91CF911F910C94780AFC01408151811B
:1013A0006281738184810C949C090E94D3238111F2
:1013B00002C00E9473240E941B150C94E5080E9431
:1013C00091140E947F150C94EA0808950C94E50985
:1013D00081E008950C94E809CF93C82F0E94E60994
:1013E0008C2F0E94EA09CF91089508950E94391D1B
:1013F0000E94F5092FEF84E39CE02150804090404B
:10140000E1F700C0000087E797E790930108809319
:1014100000080C94C3250F931F93CF93DF93EC0127
:101420000E94CD098C01BE010E94EE13BE01C801CD
:101430000E949A09882309F450C0BE01C8010E9485
:101440003514882309F449C0BE01C8010E948816DA
:10145000882309F442C0BE01C8010E94C91688232E
:10146000E1F1BE01C8010E94F4178823B1F1BE0169
:10147000C8010E94F412882381F18A81882331F106
:1014800001308CE5180751F00E3D8CE51807D9F0B6
:1014900001151C45D9F40E94F6091FC080918402F1
:1014A000C82FC095C170C0FB80F980938402CC2303
:1014B00029F086E891E00E942F070FC084E791E0B1
:1014C0000E942F070BC00E94732407C0CE01DF913A
:1014D000CF911F910F910C949809C0E08C2FDF9150
:1014E000CF911F910F91089580E090E008950895A5
:1014F000E72FF0E095E0899FE00DF11D1124EE0F3C
:10150000FF1FEE0FFF1FE60FF11DEE0FFF1FEC5D3B
:10151000FE4F859194910895880F991FFC01E9561B
:10152000FE4F859194910895CF93DF930E94780A9E
:101530000E94A60BEC018115904508F043C0C1152F
:1015400080E4D80708F0CBC0C03ED10528F5C03CE8
:10155000D10508F0B3C0C83AD10578F4C53AD10531
:1015600008F0A4C0C130D10509F4ECC008F4E8C00B
:10157000C430D10508F0E6C0E3C0CF3BD10508F088
:10158000DFC0C85AD0E0CC0FDD1FCD5ADE4F099026
:10159000D881C02DD464D6C0C11590E2D90750F4CB
:1015A000C11521E0D20708F0CDC0C83ED10508F42E
:1015B000C9C0C6C0C11580E3D80708F086C0CE01F7
:1015C0009F707FC0C11595E5D90708F043C0C115CC
:1015D00024E5D20708F09AC0C11582E5D80708F5BE
:1015E000C11591E5D90708F07DC0CE0174E096954C
:1015F00087957A95E1F783709C2F937021E030E016
:1016000002C0220F331F9A95E2F73C68382BCF7047
:10161000C695C69580E2C89FE0011124C22BD32B4A
:1016200091C09E01237033278C2F86958695C11516
:10163000D34508F05CC0C1E0D0E002C0CC0FDD1F94
:101640002A95E2F720E2829FC0011124C82BD92BF2
:10165000DC6878C0C11529E5D207A0F4C11588E57A
:10166000D80708F058C0C11596E5D90708F068C03A
:101670008C2F0E943A0C8F71C82FD0E0DC2FCC2722
:10168000D06260C0C1152AE5D20708F449C0CE0176
:1016900090568115904208F053C08D2F8F710E9493
:1016A0003A0CDD27D0628F71D82B4CC0C55AD0E0E0
:1016B000CF57DE4FC881D0E0D06444C0CE01805CFB
:1016C00091090E948C0AEC013DC0CE019927D3FFFD
:1016D00003C0EC01D86C36C0EC01D06C33C0DF70B5
:1016E000D06A30C0DC2FCC27C16FD06A2BC0C1E0DC
:1016F000D0E002C0CC0FDD1F2A95E2F720E2829FE6
:10170000C0011124C82BD92BDA681CC0DC2FCC27D0
:10171000C46FD06A17C0DC2FCC27C06FD06A12C04C
:101720008C2F8F700E943A0C94E0D695C7959A95AD
:10173000E1F7CF70D0E0DC2FCC27D069C82B02C0F6
:10174000C0E0D0E0CE01DF91CF91089582389105BD
:1017500069F1B0F48133910509F46DC048F4893220
:10176000910509F463C08A32910509F469C00895AE
:101770008533910509F455C089339105B9F0089571
:10178000833E910569F138F4803E9105B1F0823EC7
:10179000910509F10895863E9105A9F1873E9105CD
:1017A000B9F1843E910509F064C023C02091C102C3
:1017B00020FD4FC021FD4DC008958091C10280FDE4
:1017C00044C08091C20280FF44C08091C10284FD68
:1017D00042C083EE4DC08091C10282FF38C0F5CF78
:1017E0008091C10282FD33C08091C20280FD31C070
:1017F000ECCF8091C20281FF32C08091C10284FD92
:101800002AC087EE35C08091C10283FF26C0F5CF84
:101810008091C10283FD21C08091C20281FD1FC061
:10182000ECCF8091C10285FD1CC01DC08091C1021A
:1018300085FD19C016C08091C10286FD16C017C073
:101840008091C10286FD13C010C089E311C082EEF1
:101850000FC080EE0DC080E00BC086EE09C084EEA4
:1018600007C089E205C085E303C08AE201C081E3C5
:1018700090E008959091C10292FF0DC0282F287129
:10188000283019F4877F846006C0282F2471243003
:1018900011F48B7F886093FF0DC0282F28712831A9
:1018A00019F4877E846106C0282F2471243111F435
:1018B0008B7E88612091C20220FF0DC0382F3871C5
:1018C000383019F4877F816006C0382F317131308C
:1018D00011F48E7F886021FF0DC0282F28712831D8
:1018E00019F4877E816106C0282F2171213111F4FE
:1018F0008E7E886194FD877E08950895FF920F93F0
:101900001F93CF93DF938C01F62ED72FC42F222362
:1019100049F081E0809301020E945B2590930002D0
:101920008093FF01809101028823C1F08091FF0123
:10193000909100020E947325459780F0EF2DFD2FB6
:10194000D8014C2F50E0CD01801B910B84179507D7
:101950001CF48D918193F7CF10920102DF91CF910A
:101960001F910F91FF900895EF92FF920F931F9395
:10197000CF93DF93F62E472FE82FF0E0711106C0CA
:10198000EF52FA4F6491762F862F72C0272F30E0E6
:10199000EF52FA4FE4910E2F10E056E0659FC00120
:1019A0001124CFEFD0E0BE010E9480305BEA5603E5
:1019B000C001579F900D11248F0D911D8F0D911D0A
:1019C000982F990F890F7E01E21AF30AE09ED00149
:1019D000E19EB00DF09EB00D1124489FA00111248E
:1019E000452F55277E01E41AF50AE09EA001E19EED
:1019F000500DF09E500D11247E01E81AF108E29E70
:101A0000C001E39E900DF29E900D1124892F99271D
:101A1000C81BD90BC09FC001C19F900DD09F900DD6
:101A200011246230710591F048F461157105E1F0FF
:101A300061307105A9F48B2F752F19C064307105C1
:101A400061F038F06630710579F00AC0892F7B2F7C
:101A50000EC08E2F7B2FE52F0AC08E2F792F02C04C
:101A6000852F7E2FEB2F03C08B2F7E2FE92F6E2F1C
:101A7000DF91CF911F910F91FF90EF9008950895FE
:101A8000CF93DF93762FE901682F842F0E94B40C47
:101A9000798368838A83DF91CF910895809197023B
:101AA000282F269530E02115310519F481708260C8
:101AB00005C02831310524F081708E628093970231
:101AC000089588E090E00C94C330CF92DF92EF92BB
:101AD000FF926B017C010E944E0DB701A60188E0C8
:101AE00090E0FF90EF90DF90CF900C94E130E7E929
:101AF000F2E083E0808311828FEF828383831482FC
:101B000060817181828193810C94650D8091840242
:101B100080FF08C088EA94E09F938F930E94C807D3
:101B20000F900F908091840280FF0FC080919702E8
:101B300081701F928F938BE894E09F938F930E9404
:101B4000C8070F900F900F900F908091840280FF34
:101B50000FC08091970286951F928F9380E794E043
:101B60009F938F930E94C8070F900F900F900F9034
:101B70008091840280FF0EC0809198021F928F9303
:101B800086E594E09F938F930E94C8070F900F9073
:101B90000F900F908091840280FF0EC08091990277
:101BA0001F928F938CE394E09F938F930E94C807BA
:101BB0000F900F900F900F908091840280FF0EC0C5
:101BC00080919A021F928F9382E294E09F938F9369
:101BD0000E94C8070F900F900F900F908091840281
:101BE00080FF0EC080919B021F928F9386E094E04D
:101BF0009F938F930E94C8070F900F900F900F90A4
:101C000008958091970280FF02C08695089580E034
:101C1000089580919B02833018F48F5F80939B021C
:101C200060919702709198028091990290919A0226
:101C30000C94650D80919B02882319F0815080934C
:101C40009B02609197027091980280919902909105
:101C50009A020C94650D60913A0170E080919702B0
:101C600080FF0AC08091050223E0829FC0011124F9
:101C700084569D4F0C941615809104029091390161
:101C8000891780F7E82FF0E09F01220F331FE20F42
:101C9000F31FE456FD4F1182108212828F5FF0CF46
:101CA0009091970290FF16C0909104022091390103
:101CB000921770F4E92FF0E0DF01AA0FBB1FEA0FC3
:101CC000FB1FE456FD4F8183608342839F5FF0CF0B
:101CD0000C942B0E0895CF93DF9300D01F92CDB7B5
:101CE000DEB79091970290FF0AC09E012F5F3F4F91
:101CF0000E94400D4B8169818A810E94500E0F9095
:101D00000F900F90DF91CF910895CF93DF93EC0167
:101D1000EC81F0E0EF52FB4F4491E7E9F2E06281A1
:101D200081810E946B0E8C818F5F8C83DF91CF91BC
:101D30000895CF93DF93EC01E7E9F2E043816281FC
:101D40008C810E946B0E8C818F5F8C83DF91CF9191
:101D50000895EF92FF920F931F93CF93DF9300D0DC
:101D60001F92CDB7DEB7182FF62E042FE22E8091EA
:101D7000970280FF5DC0E82FE695F0E0EC57FE4F3C
:101D8000908190930D028E7F823061F49E012F5FCF
:101D90003F4F812F0E94400D4B8169818A810E94B3
:101DA000500E0CC0923019F400919A0207C0963080
:101DB00019F41091980202C09930D9F31093980247
:101DC000F092990200939A02EE20E9F06091970256
:101DD000709198028091990290919A020E94650DEB
:101DE0008091840280FF24C080919A021F928F9379
:101DF000809199021F928F93809198021F928F93E6
:101E000080EF91E00CC08091840280FF11C01F928E
:101E10000F931F92FF921F921F9389EC91E09F9363
:101E20008F930E94C8070FB6F894DEBF0FBECDBFD8
:101E30000F900F900F90DF91CF911F910F91FF9016
:101E4000EF900895E7E9F2E09181282F43816281C4
:101E500088E0890F0C94A90E81E00C94220FE7E929
:101E6000F2E09181282F4381628188EF890F0C94E1
:101E7000A90E81E00C942F0FE7E9F2E0628128E0DF
:101E8000620F08F46FEF282F438181810C94A90E13
:101E900081E00C943C0FE7E9F2E0628128E0621BEC
:101EA00008F460E0282F438181810C94A90E81E021
:101EB0000C944B0FE7E9F2E0438128E0420F08F46D
:101EC0004FEF282F628181810C94A90E81E00C9440
:101ED0005A0FE7E9F2E0438128E0421B08F440E0B2
:101EE000282F628181810C94A90E81E00C94690FE6
:101EF00020E00C94A90EFF920F931F93CF93DF93D2
:101F0000EC01F12C0FEF10E060913801F616F0F4BF
:101F1000809104022F2D30E0280F311DC901880F58
:101F2000991F280F391F24563D4F70E0C8010E94A9
:101F30009430962F8C8140919A0260919902F99E7B
:101F4000800D11240E94400DF394DECF0E942B0ED1
:101F50009A818C8190FF02C08F5F01C081508C8379
:101F6000DF91CF911F910F91FF900895AF92BF9293
:101F7000CF92DF92EF92FF920F931F93CF93DF9355
:101F8000FC01828180FF02C00FEF01C001E010E080
:101F90004BE0A42E80913801181708F043C08091BF
:101FA0000402C12ED12CE601C80FD11DCE01880F2D
:101FB000991FC80FD91FC456DD4F198218821A8283
:101FC00034E0E32EF12CB12C809103028B0D8C3088
:101FD0002CF06A2D0E947230892F05C087FF03C044
:101FE00090913801890F082E000C990BC816D9065C
:101FF00091F480919A028E9DA0018F9D500D112425
:1020000055954795559547959E0160919902809108
:1020100098020E94400DB00EF1E0EF1AF108A1F60F
:102020001F5FB8CF0E942B0E80910302013031F464
:10203000811102C080913801815007C090E0019663
:102040006091380170E00E94943080930302DF9128
:10205000CF911F910F91FF90EF90DF90CF90BF90A5
:10206000AF900895CF938091040290913901891720
:1020700070F4E82FF0E09F01220F331FE20FF31FEF
:10208000E456FD4F1182108212828F5FF0CFC0E0C4
:1020900060913801C617C0F5EC2FF0E070E0CF0179
:1020A0000E94943020910402820F20910202022E9D
:1020B000000C330B90E0E217F307CCF020913701CE
:1020C000022E000C330B2E173F078CF09C01220FC1
:1020D000331F820F931F9C0124563D4F40919A025B
:1020E00060919902809198020E94400D0BC0FC0102
:1020F000EE0FFF1F8E0F9F1FFC01E456FD4F118254
:1021000010821282CF5FC4CF0E942B0E2091360125
:1021100080910202820F8093020290913701920F08
:102120009093370119165CF4082E000C990B40911E
:10213000380150E041505109841795071CF0219552
:1021400020933601CF91089560919702669570E0D3
:1021500041E050E08BE391E00E94AE30892B19F40E
:1021600081E080930E020E945B259093070280938A
:1021700006028091840280FF08C080EB91E09F936B
:102180008F930E94C8070F900F90089510920E022F
:102190008091840280FF08C087E991E09F938F932C
:1021A0000E94C8070F900F9008959091970290FF9A
:1021B00054C09170811102C0926006C0883110F045
:1021C0009E6202C0880F982B909397026623B1F00D
:1021D00060919702709198028091990290919A0271
:1021E0000E94650D8091840280FF1BC08091970240
:1021F00086951F928F938CE493E00BC080918402AC
:1022000080FF0FC08091970286951F928F938EE278
:1022100093E09F938F930E94C8070F900F900F90A9
:102220000F9060919702669570E041E050E08BE37B
:1022300091E00E94AE30892B19F00E94C61002C0B6
:102240000E94A41081E08093090240919A0260915B
:102250009902809198020C94780F0895682F9091BC
:102260009702969581E0890F883108F081E00C94FF
:10227000D51081E00C942E11682F909197029695BD
:102280008FEF890F09F487E10C94D51081E00C944D
:102290003C1161E00C94D51080919702816080938D
:1022A00097028091840280FF0DC01F9281E08F937E
:1022B00080EC92E09F938F930E94C8070F900F903D
:1022C0000F900F908091970286950C94491160E0D1
:1022D0000C94D51080910C02811160C08091840211
:1022E00080FF08C08FEE93E09F938F930E94C807F2
:1022F0000F900F908091840280FF08C089ED93E0D9
:102300009F938F930E94C8070F900F900E94D32332
:10231000811110C08091840280FF08C081EB93E09E
:102320009F938F930E94C8070F900F900E94732471
:102330000E94770D0E94610D60939702709398023E
:102340008093990290939A026E7FC1F480918402E7
:1023500080FF08C088E693E09F938F930E94C80790
:102360000F900F900E94770D0E94610D609397026D
:10237000709398028093990290939A020E944E0D56
:102380000E94860D10920E028091970280FF03C07A
:1023900086950E94671181E080930C0208958091D8
:1023A00097028160809397028091840280FF0DC024
:1023B0001F9281E08F9387E892E09F938F930E9412
:1023C000C8070F900F900F900F90809197028695FD
:1023D0000C946711809197028E7F80939702609191
:1023E0009702709198028091990290919A020E94AE
:1023F000650D8091840280FF0FC0809197028170EB
:102400001F928F938FE492E09F938F930E94C8074F
:102410000F900F900F900F900E94C6102FEF80E743
:1024200092E0215080409040E1F700C000000C9401
:102430002B0E8091840280FF10C0809197028095BE
:1024400081701F928F9387EF92E09F938F930E94EA
:10245000C8070F900F900F900F908091970280FD0A
:102460000C94EA110C944C11809197028E7F80930A
:1024700097028091840280FF0CC01F921F9285E119
:1024800092E09F938F930E94C8070F900F900F9038
:102490000F900E94C6102FEF80E792E021508040FD
:1024A0009040E1F700C000000C942B0E0F931F9397
:1024B000CF93DF9380910E02882309F475C0809139
:1024C0000D02E0919702E695E81BE0930802823046
:1024D00049F4F0E0E353FB4FE491CE2FD0E005E860
:1024E0001EE032C0863049F4F0E0E653FB4FE49141
:1024F000CE2FD0E009E91EE027C0893051F4E695DF
:10250000F0E0E953FB4FE491CE2FD0E00BE71FE062
:102510001BC08F3051F4E695F0E0EC53FB4FE49193
:10252000CE2FD0E006EB1FE00FC0853149F4F0E07C
:10253000EF53FB4FE491CE2FD0E002E310E104C053
:10254000C0EDD7E00FE31DE080910902882389F0F8
:10255000109209020E945B259E0120953095820F02
:10256000931F909307028093060210920B02109221
:102570000A0280910602909107020E9473258C172F
:102580009D0790F0E0910602F0910702CE0FDF1F49
:10259000D0930702C093060286E092E0F801DF9133
:1025A000CF911F910F910994DF91CF911F910F91BE
:1025B0000895882311F0FA0101C0FB010994CF931B
:1025C000DF93C82FD62F0E94010E8C1740F00E9477
:1025D000010E8D1720F4DF91CF910C9439118C2FBF
:1025E000DF91CF910C9449110F931F93CF93FB016F
:1025F000C281CC2309F45BC08C010E941A23827231
:10260000F801E25CFC45E431F10508F053C0EA5AF8
:10261000FF4F0C94A8300E9419124BC046E451E1C0
:1026200069E371E104C049E351E166E471E10E94AC
:10263000D9123FC049E35FE06CE27FE0F8CF4CE2A3
:102640005FE069E37FE0F3CF47E55FE068E47FE0C8
:10265000EECF48E45FE067E57FE0E9CF45E75FE084
:1026600066E67FE0E4CF46E65FE065E77FE0DFCF48
:102670004AE15EE069E07EE0DACF49E05EE06AE1EF
:102680007EE0D5CF81E00E94491113C065E082E071
:102690000BC068E086E008C06EE089E005C064E138
:1026A0008FE002C067E185E10E94DF1202C0C1E055
:1026B00001C0C0E08C2FCF911F910F910895CF934F
:1026C000DF93EC0181E0898B8F810E941D23888537
:1026D0000E9430230E946B23EA81FB81CE01069683
:1026E000309729F06C897D89DF91CF910994DF9132
:1026F000CF910895CF93DF93FC012081223039F4EC
:10270000FB01EC0182810E94912181E08B87DF91A6
:10271000CF910895DB01FC018081813021F48D91FE
:102720009C910C946C09823039F41396ED91FC91D4
:10273000149712968C9109940895FC018081813040
:1027400029F4FB01808191810C9482090895EF9214
:10275000FF920F931F93CF93DF93FC0122852111EA
:1027600036C0EC01E380F480F7E5FF1A26E12E9DE8
:10277000C0012F9D900D1124DC01A050BF4F149675
:10278000ED91FC9115978A5F9E4F309729F05496F2
:102790006D917C915597099586E18E9D80018F9D65
:1027A000100D112400501F4FF80187810E94232330
:1027B000F80180850E9436230E946B2318821986B7
:1027C0001B861E821D821092100210920F02DF9152
:1027D000CF911F910F91FF90EF900895DF92EF92AC
:1027E000FF920F931F93CF93DF93FB01228122234C
:1027F000A1F120913C012F3F81F18C01C0E0D1E09B
:10280000E12CF12CDD24D39480913C01082E000CA6
:10281000990B8E159F050CF18E818823C9F089854F
:102820009A858017910739F480910F0290911002D8
:102830000817190769F0DF861C870B8789898111C2
:1028400003C0CE010E945F13CE0106960E94A7131B
:10285000FFEFEF1AFF0A6696D7CFDF91CF911F9156
:102860000F91FF90EF90DF900895EF92FF920F93FA
:102870001F93CF93DF939C0137552F3F310511F004
:1028800008F047C040913C01042E000C550B421744
:10289000530714F420933C01FB017C01828196E1F3
:1028A000929F8001939F100D1124E801C050DF4FCB
:1028B000888B92818E81992311F1FA86E9868F5F48
:1028C0008E830E945B259E878D870E9450238F8375
:1028D0000E941A2388870E942D239885892B888738
:1028E000E881F981C8018A5F9E4F309719F06C89A1
:1028F0007D890995F0921002E0920F020AC08823A8
:1029000041F08989882329F0C8018A5F9E4F0E947F
:10291000A71381E0DF91CF911F910F91FF90EF906E
:102920000895CF92DF92EF92FF920F931F93CF9370
:10293000DF9380913C018F3FF1F1F12C96E1E92E7C
:102940000F2D10E080913C01082E000C990B801790
:1029500091078CF1E09EF001E19EF00D1124E05012
:10296000FF4FC288D388C114D10419F488ECC82E53
:10297000D12CE09EE001E19ED00D1124C050DF4F2C
:102980008E818823B1F08D859E850E947325C8169F
:10299000D90678F48989811103C0CE010E945F13A2
:1029A000E09EC001E19E900D11248A5F9E4F0E941F
:1029B000A713F394C5CFDF91CF911F910F91FF9093
:1029C000EF90DF90CF9008952BB1342F30952323D3
:1029D0003BB1432B3FB7F894FC01680F791FE61712
:1029E000F70789F0819198E04BB9000000C087FF9C
:1029F0002BB9880F000000C000C000C02BB900C078
:102A00009A9591F7ECCF3FBF08952AB1242B2AB9AC
:102A10009B01220F331F620F731F0E94E41487EC87
:102A200090E00197F1F700C00000089542E00C9497
:102A300005150C94EC08FF920F931F93CF93DF932F
:102A4000C5E1D2E04EEA51E02CEA31E061E070E00D
:102A5000F2E0C731DF0709F44CC0FA010191AF0180
:102A6000A02FA295AF70B0E09196EC9191970F7066
:102A7000CB01002E01C0880F0A94EAF7982F909599
:102A80009E2391969C93919792969C919297892BD5
:102A900092968C939297F90111919F01E12FE29503
:102AA000EF70F0E0F1A01F70CB01012E01C0880F84
:102AB0000A94EAF7982F90959F2191A392A1892BD0
:102AC00082A390968C9190E002C0959587950A9587
:102AD000E2F78170E0A1F0E002C0F595E7951A9564
:102AE000E2F7E0FD02C090E001C092E0892B8993FB
:102AF000AFCFDF91CF911F910F91FF9008955F921B
:102B00006F927F928F929F92AF92BF92CF92DF92FD
:102B1000EF92FF920F931F93CF93DF9385E1682E7F
:102B200082E0782E9EEAE92E91E0F92E0CEA11E07F
:102B300023E1822E22E0922EC1E1D2E06301530113
:102B4000512CD501ED915D014E2F440F440FF6013C
:102B500041936F01D7012D917D01E22FE295EF7036
:102B6000F0E080A190E02F7002C0959587952A959E
:102B7000E2F781709927F80151918F01E52FE295D5
:102B8000EF70F0E020A130E05F7002C0359527952E
:102B90005A95E2F7F901E170FF2720FF02C0E2E059
:102BA000F0E0E82BF92BE42BD301ED933D01EF701E
:102BB000F0E0E456FE4F9081F4018081890F80831C
:102BC00084303CF088818F5F888361E0852D0E948E
:102BD0001915D4018C918D3F3CF4888181508883F4
:102BE00060E0852D0E941915F4018081837887FFAC
:102BF00003C081508C6F8F5FD4018D934D0153942E
:102C00002196B2E05B129DCFDF91CF911F910F9182
:102C1000FF90EF90DF90CF90BF90AF909F908F90FC
:102C20007F906F905F9008950F931F93CF93DF93E2
:102C3000C62FD42F122FFC0182818823C9F0609304
:102C400019020E945B25909318028093170280E27C
:102C50008C0F883008F057C0C77081E001C0880F22
:102C6000CA95EAF7DF91CF911F910F910C94C81A82
:102C700080911902681330C0809117029091180258
:102C80000E947325883C910538F500E20D0FCD17A1
:102C9000B9F080E28C0F883040F4C77081E001C049
:102CA000880FCA95EAF70E94CF1A083028F581E00C
:102CB0009D2F977001C0880F9A95EAF70E94C81A55
:102CC000812F0E94B51A0830F0F4D77081E001C05E
:102CD000880FDA95EAF70AC080E28C0F883098F402
:102CE000C77081E001C0880FCA95EAF7DF91CF91E4
:102CF0001F910F910C94CF1A812FDF91CF911F91CB
:102D00000F910C94B51ADF91CF911F910F910895F7
:102D10009C01CB01233F4CE53407F9F078F4283DC2
:102D2000FCE53F07B9F0293D4CE5340711F1273D9B
:102D30003C4531F526E241EE61EE1EC0253FFCE543
:102D40003F0799F070F0263F3C45D1F427E245EE6D
:102D500066EE12C027E245EE0EC026E241EE60EEBE
:102D60000BC027E245EE64EE07C026E241EE62EEBC
:102D700003C028E241E065EE0E94141680E0089549
:102D8000FC018281882319F010921902089581E0D4
:102D90000895CF93DF93EC01FB018281882309F42E
:102DA0001FC1C230FCE5DF0708F41BC1C6319CE53A
:102DB000D90738F09E012A5F3C452930310508F0DB
:102DC00010C10E94E6239093C2028093C102C031D9
:102DD000ECE5DE0709F4C3C008F041C0C8308CE55B
:102DE000D80709F49AC0F0F4C430ECE5DE0709F422
:102DF00087C068F4C2308CE5D80709F477C0C330C7
:102E0000DC4509F0E3C08091C102826076C0C63023
:102E1000ECE5DE0709F46EC008F07BC08091C102CA
:102E200088606BC0CC308CE5D80709F485C068F4A5
:102E3000CA30ECE5DE0709F474C008F079C00E94DE
:102E4000391D8091C102806858C0CE308CE5D8070A
:102E500009F476C008F07FC08091C1028BC0CB3FDF
:102E6000ECE5DE0709F44FC018F5C3318CE5D8074F
:102E700009F47DC078F4C131ECE5DE0709F473C0D4
:102E8000C231DC4509F0A2C00E94391D8091C10207
:102E90008F7733C0C5318CE5D80709F472C008F4C8
:102EA00086C0CA3FDC4509F091C08091C2023EC095
:102EB000CF3FFCE5DF0709F45FC058F4CD3F9CE548
:102EC000D90709F444C008F43FC08091C20282606F
:102ED0002DC0C130FDE5DF0709F475C008F45DC001
:102EE000C230DD4509F072C080E06EC08091C10241
:102EF000816003C08091C10280618093C10266C07D
:102F00008091C10211C08091C20282608093C2028E
:102F10005DC08091C1028062F0CF8091C102806467
:102F2000ECCF8091C10288608460E7CF8160EECFF2
:102F30008091C1028E7FE1CF8091C1028D7FDDCF74
:102F40008091C102877FD9CF8091C20218C0809141
:102F5000C2028D7FDBCF8091C1028F7ECECF809168
:102F6000C1028F7DCACF8091C1028F7BC6CF809175
:102F7000C102877F8B7FC1CF8091C2028D7F8E7F00
:102F8000C5CF8091C10282FB222720F991E09227D0
:102F900090FB82F990FB83F9B0CF8091C202982F09
:102FA000909591708E7F892B90FB81F9AFCF0E9415
:102FB000391D8091C10287FB222720F991E09227D9
:102FC00090FB87F99ACF81E00E9475248091C1021D
:102FD0009091C2020E94F7230E94391D80E001C037
:102FE00081E0DF91CF910895CF93DF9386319C45A7
:102FF00041F5EB010E941A23982F8A8120913D010F
:1030000030913E01882379F09A7A81E009F480E0DA
:1030100080931A02911102C069E201C065E3C901FF
:103020000E94AD240AC080911A02811102C069E297
:1030300001C065E3C9010E94AF240E946B2380E0B8
:1030400001C081E0DF91CF91089590932002809399
:103050001F020895E0911F02F0912002309721F0A5
:103060000190F081E02D099480E00895EF92FF92A5
:103070000F931F93CF93DF93E0911F02F0912002F3
:103080003097B1F18C010280F381E02D0995809198
:10309000840282FF2DC080FF04C089ED96E00E946B
:1030A0002F07E80118E083EDE82E86E0F82E8091E6
:1030B000840280FF0BC088811F928F93FF92EF9252
:1030C0000E94C8070F900F900F900F9011502196FB
:1030D0001111EDCF8091840280FF0AC081ED96E04E
:1030E000DF91CF911F910F91FF90EF900C942F07DC
:1030F000DF91CF911F910F91FF90EF900895209154
:103100001D0230911E022817390771F090931E029C
:1031100080931D02E0911F02F0912002309721F070
:103120000680F781E02D0994089520911B023091CB
:103130001C022817390771F090931C0280931B0220
:10314000E0911F02F0912002309721F00084F18578
:10315000E02D0994089585B7806885BF85B780689C
:1031600085BF089508950C94B2180C94B3180C946C
:10317000B2180C94B2180E94AB180E94B7180C94A5
:10318000B51881E008950E9452250E94D7070E9439
:10319000D4250E946A110C94B918CF93C82F80913E
:1031A000840282FF1EC080FF04C082EF96E00E946E
:1031B0002F078091840280FF0CC01F92CF938DEE69
:1031C00096E09F938F930E94C8070F900F900F90E7
:1031D0000F908091840280FF04C08BEE96E00E94E5
:1031E0002F078C2FCF910C94EC09AF92BF92CF9206
:1031F000DF92EF92FF920F931F93CF93DF93CDB7A0
:10320000DEB72A970FB6F894DEBF0FBECDBF0E947F
:1032100027080E94C118811111C08FEF89838A830A
:103220001B820E945B258160782F9D838C8349815E
:103230005A816B818D810E948D1940C082E2A82E37
:1032400082E0B82E00E010E0C02E802F0E94D1074F
:10325000E82EF501D1905F01D82631F40F5F1F4FA2
:103260000530110589F7D9CF8091840281FD0E9434
:10327000EB0880E0FF24F3949D2D9F21D1F08E83F5
:10328000CF82EF2081E009F480E088870E945B25EF
:103290008160782F9A8789874E815F8168858A85CA
:1032A0000E948D19F801EE5DFD4F8081F826F082B5
:1032B00005C08F5FFF0C8430F9F6D0CF0E94561204
:1032C0000E942A18909121028917B1F00E942A18B1
:1032D000809321022A960FB6F894DEBF0FBECDBFB1
:1032E000DF91CF911F910F91FF90EF90DF90CF90E2
:1032F000BF90AF900C94CD182A960FB6F894DEBF0D
:103300000FBECDBFDF91CF911F910F91FF90EF9036
:10331000DF90CF90BF90AF900895CF93DF93CDB75C
:10332000DEB72B970FB6F894DEBF0FBECDBF4F832D
:10333000588769877A878B87DE01119686E0FD01C1
:1033400011928A95E9F785E0FE01379601900D927A
:103350008A95E1F749815A816B817C818D819E81BB
:103360000E9409202B960FB6F894DEBF0FBECDBF8A
:10337000DF91CF910895FC01808191810E94DB2231
:103380000895CF93882309F48FC0C82F8238C1F4E1
:103390000E942A1881FD88C069E380913D019091C7
:1033A0003E010E94AD240E946B232FEF81EE94E03A
:1033B000215080409040E1F700C0000069E319C04F
:1033C000833801F50E942A1880FD6EC063E5809164
:1033D0003D0190913E010E94AD240E946B232FEF8E
:1033E00081EE94E0215080409040E1F700C0000061
:1033F00063E580913D0190913E010E94AF24CF9101
:103400000C946B238438C1F40E942A1882FD4CC0AE
:1034100067E480913D0190913E010E94AD240E949D
:103420006B232FEF81EE94E0215080409040E1F734
:1034300000C0000067E4DDCF8CEF8C0F813A68F4A8
:103440008C2F0E94992881112FC06C2F80913D01F3
:1034500090913E010E94AD24D2CF80E28C0F883043
:1034600048F4C77081E001C0880FCA95EAF70E944E
:103470001D23C5CFEBE5EC0FE33040F4F0E0E25262
:10348000FE4F808190E0CF910C947F18C85AC731CD
:1034900058F4EC2FF0E0EE0FFF1FE055FE4F808157
:1034A0009181CF910C949518CF910895882309F4B8
:1034B0005BC0682F823879F40E942A1881FF54C0BB
:1034C00069E380913D0190913E010E94AD240E94EC
:1034D0006B2369E310C08338B1F40E942A1880FF7F
:1034E00043C063E580913D0190913E010E94AD246F
:1034F0000E946B2363E580913D0190913E010E9403
:10350000AF240C946B23843879F40E942A1882FF2C
:103510002BC067E480913D0190913E010E94AD2453
:103520000E946B2367E4E7CF8CEF860F813A18F394
:1035300080E2860F883048F4677081E001C0880F10
:103540006A95EAF70E942323DCCF8BE5860F833050
:1035500020F480E090E00C947F18685A673120F4E2
:1035600080E090E00C9495180895CF93C82F0E94A6
:10357000C119C93349F42FEF87EE93E02150804001
:103580009040E1F700C000008C2FCF910C94561AA8
:10359000882321F00E941D230C946B230895882317
:1035A00021F00E9423230C946B230895CF92DF9285
:1035B000EF92FF920F931F93CF93DF937C01062F1F
:1035C000C72FFC01158112951F70D281D1110E9465
:1035D0003D230E941323882379F0DD2369F080E2E4
:1035E000800F883048F082E00E94B5230E941323A8
:1035F00091E0D82ED92601C0D12CCC2EC2948FE0D8
:10360000C8228C2D90E0FC01E659FF4F0C94A830A5
:103610008C2F807FCF70882311F0C295C07FDD236F
:1036200099F0CC2309F482C180E2800F883010F039
:10363000011104C08C2F0E941D2303C08C2F0E94F7
:1036400030230E946B2372C1802F0E94561ACC2314
:1036500009F491C180E2800F883010F0011104C09C
:103660008C2F0E94232303C08C2F0E9436230E949C
:103670006B2381C18C2F807FCF70803211F0C29577
:10368000C07F002319F00130C9F022C0DD2371F0A2
:10369000112341F0113031F40E9450238C2B0E94F1
:1036A000582369C10E9450238C2B1DC0112319F08F
:1036B000113009F460C10E94612325C0DD2321F08F
:1036C000163008F058C10EC0153008F054C11BC0A8
:1036D000DD2361F0112331F0F701858180FF26C1E0
:1036E0008F7085838C2F0E94C81A45C1112359F011
:1036F000093309F02CC1FFEF27EE83E0F1502040A1
:103700008040E1F722C18C2F0E94CF1A34C18C2F48
:1037100086958695837019F0813061F02CC1DD2388
:1037200021F0802F9C2F937002C080E090E00E94D7
:103730007F1829C1DD2321F0802F9C2F937002C0B8
:1037400080E090E00E9495181EC18C2F837009F0D4
:1037500045C0D11114C1402F429546954770440F82
:10376000440F602F6F70862F90E0A0E0B0E0042E31
:1037700004C0880F991FAA1FBB1F0A94D2F704FF29
:1037800010C00FE010E020E030E004C0000F111F77
:10379000221F331F4A95D2F700951095209530953A
:1037A00003C000E010E09801C695C695C370BC0147
:1037B000CD01602B712B822B932BC23049F058F432
:1037C000C13019F00E945A21DAC00E944821D7C0A6
:1037D0000E946C21D4C00E944621D1C0DD2319F083
:1037E0008C2F817001C08695882309F4C8C0402FB2
:1037F000429546954770440F440F602F6F70862F97
:1038000090E0A0E0B0E0042E04C0880F991FAA1F2A
:10381000BB1F0A94D2F704FF10C00FE010E020E0B5
:1038200030E004C0000F111F221F331F4A95D2F74A
:10383000009510952095309503C000E010E09801A8
:10384000C695C695C370BC01CD01602B712B822B30
:10385000932BC23049F058F4C13019F00E941F2256
:103860008EC00E940D228BC00E94312288C00E940F
:10387000802185C0CF70DD2339F08C2F0E94A621D6
:10388000802F0E94C81A7BC0802F0E94CF1A8C2FD5
:103890000E94C72174C0023F01F128F4003F41F0AB
:1038A000013FA1F03FC0033FF9F0043F39F13AC0B6
:1038B000DD2341F0153008F05EC08C2F8F710E941F
:1038C000EC2159C0163008F056C0F7CFDD2339F08F
:1038D0008C2F8F710E94A6214EC0DD23C9F38C2F3F
:1038E0008F710E94C72147C0DD2329F08C2F8F7173
:1038F0000E94912140C00E948C213DC0DD2349F0EF
:10390000CF718C2F0E94A62163E08C2F0E94A023F0
:1039100032C081E00E94B523123068F182E00E943B
:10392000B52329C0DD2331F0112391F2802F0E94AD
:10393000C11921C0112399F2093349F49FEFE7EE31
:10394000F3E09150E040F040E1F700C00000802F2C
:103950000E94561A10C04C2F4F70602FC7010E9452
:10396000740A0E94B7200FC04C2F4F70602FC70100
:103970000E94770A08C088EF8C0D843020F40E94E2
:103980002A180E94EC09DD20C9F00E940F2380FD57
:1039900015C0F70112820E9409230E94A621C701C7
:1039A0000E94E71C0E940923DF91CF911F910F9184
:1039B000FF90EF90DF90CF900C94C721DF91CF91D3
:1039C0001F910F91FF90EF90DF90CF9008950F938C
:1039D0001F93CF93DF93EC01988189812B813C81E8
:1039E000232B31F08F3F31F481E09F3F19F403C066
:1039F00081E001C080E080FD13C0CE010E940B0A6F
:103A0000882371F0688179818A810E94E6228C0185
:103A10000E9443220E943421B801CE010E94D61A8E
:103A2000DF91CF911F910F910895882321F00E947B
:103A300030230C946B230895882321F00E943623B1
:103A40000C946B2308950E943D230E944D230E94F5
:103A50006B2380E090E00E947F1880E090E00C945F
:103A6000951880913D0190913E010E94B1240C94E3
:103A7000231D0E942A230C94311DE92FE295EF703B
:103A80004E2F50E0FA013297EE30F105B0F4E658CF
:103A9000FF4F0C94A830803F91F018F4883E68F4F2
:103AA0000EC0843F51F40BC0883E48F0813F29F49A
:103AB00006C093FB882780F9089580E0089581E08F
:103AC00008950E94DB220E943D1D0895CF93DF934D
:103AD00000D000D01F92CDB7DEB70F900F900F909F
:103AE0000F900F90DF91CF910895CF93DF9300D087
:103AF00000D000D0CDB7DEB726960FB6F894DEBF63
:103B00000FBECDBFDF91CF9108951F93CF93DF9369
:103B1000C091280216E080912902C81799F0D0E0E0
:103B20001C9FF0011D9FF00D1124E65DFD4F4081AB
:103B3000518162817381848195810E94751D2196D6
:103B4000C770E9CFDF91CF911F91089540915A023C
:103B500050915B0260915C0270915D0280915E0207
:103B600090915F020C94751DCF9380915F028295B6
:103B70008F7009F05FC080915C02882309F45AC0FD
:103B800080912802B091290270915A02A0915B02A3
:103B900040915D0250915E0291E07F3F09F090E01C
:103BA000692FC6E08B1709F445C04115510521F076
:103BB000AF3F21F020E003C021E001C0262F90E0BC
:103BC00020FD35C0C89FF001C99FF00D1124E65DAE
:103BD000FD4F21812A132BC02081271328C0228169
:103BE000211125C0238134812417350710F4215079
:103BF0003109241B350B283C3105C8F420915F02A4
:103C00002F70206120935F0226E0289FF001299FFA
:103C1000F00D1124E15DFD4F80818F708061808304
:103C20008AE592E00E94E71CCF910C94851D0196D5
:103C30008770B8CFCF910895AF92BF92CF92DF92A5
:103C4000EF92FF920F931F93CF93DF93CDB7DEB721
:103C500061970FB6F894DEBF0FBECDBF8C0185E033
:103C6000F801DE011D9601900D928A95E1F7D801C9
:103C70004C9111965C9111971296EC9030915A02EA
:103C800060915B0280915D0290915E02009731F03D
:103C90006F3F31F421E03F3F19F403C021E001C040
:103CA00020E0B22FB170BB2E20FD60C1F801C380AF
:103CB000D480A0905C02AA2009F4EEC020915F029B
:103CC000C816D90628F0D601A81BB90BCD0104C02F
:103CD000809590958C0D9D1DFF24F394883C910553
:103CE00080F0F12C207F09F09CC07C2DD98AC88AF5
:103CF0006E2D89890E94661D8AE592E00E94E71C6C
:103D00002DC1822F807F09F054C0561314C0431375
:103D100012C0FE2CE1100FC02F70206120935F02B3
:103D20000E94A61D8AE592E00E94E71C80915F0236
:103D3000F80185835CC1CD2831F05F3F31F481E02B
:103D40004F3F19F403C081E001C080E080FD03C053
:103D500081E08E2502C080E090E0F82FF170FF2E08
:103D600080FF1CC0809128022091290236E0821732
:103D700009F41AC190E0389FF001399FF00D112429
:103D8000E65DFD4F6181561306C06081461303C096
:103D90006281E61203C001968770E9CFFE2CEE2007
:103DA00009F425C180915F02816080935F02F12C4C
:103DB0001EC1561309C0431307C0E11005C080910E
:103DC0005F02F8018583A4C04D875E878D859E853F
:103DD0000E94611D882379F1EE2069F120915F0234
:103DE000822F82958F7090E0029774F080915A0232
:103DF00090915B0298878F831986DB86CA862C8711
:103E0000CE0107960E94E71C86E0F801AAE5B2E021
:103E100001900D928A95E1F70E94B41D0E94A61DA3
:103E20000DC0561771F04D875E878D859E850E9467
:103E3000611D81111AC0C8010E94E71CFF24F39480
:103E4000D6C04313F0CFE110EECF80915F02F801AE
:103E50008583C8010E94E71C86E0EAE5F2E0DF0105
:103E60001D928A95E9F7FA2CC2C0EE2021F3209129
:103E70005F02822F82958F7090E002972CF28091E2
:103E80005A0290915B029A8389831B82DD82CC82E5
:103E90002E83CE010196B6CFC816D90628F0F601BA
:103EA000E81BF90BCF0104C0809590958C0D9D1DEA
:103EB000883C910548F0F12C7C2DD98AC88A6E2D5A
:103EC00089890E94661D4AC0FE2CEE2009F4B3CFFA
:103ED000561333C0431331C020915F0220FD24C02C
:103EE000822F82958F70482F50E041155105E1F0E7
:103EF000D80115962C9315974F30510549F08F5FD7
:103F0000982F9295907F822F8F70892B15968C9386
:103F1000C8010E94E71C86E0F801AAE5B2E0019022
:103F20000D928A95E1F73DC086E0F801AAE5B2E07E
:103F300001900D928A95E1F75AC04D875E878D8575
:103F40009E850E94611D81115FCF80915F0281601B
:103F500080935F02C8010E94E71C49C0EAE5F2E0D5
:103F600086E0DF011D928A95E9F71BC0EE2009F477
:103F700062CF4D875E878D859E850E94611DF82EDC
:103F8000882309F458CF86E0F801AAE5B2E0019051
:103F90000D928A95E1F78AE592E00E94BB190E9492
:103FA000B41D0E94A61D23C04D875E878D859E850A
:103FB0000E94DB22292F22952F70223028F49F7037
:103FC00039F0811105C00BC0243028F49F7049F4EA
:103FD000805E883020F0C8010E94E71CBF2CFB2CBB
:103FE00006C0D80115969C91907F91F7F8CF8F2D40
:103FF00061960FB6F894DEBF0FBECDBFDF91CF91B3
:104000001F910F91FF90EF90DF90CF90BF90AF90F6
:1040100008951F93CF93DF93CDB7DEB72C970FB6DC
:10402000F894DEBF0FBECDBF4F83588769877A876C
:104030008B879C87CE0107960E941C1E8823D1F097
:104040009F8188852A853B85232B31F08F3F31F472
:1040500081E09F3F19F403C081E001C080E080FD52
:1040600047C04F81588569857A858B859C850E94DC
:10407000751D3EC086E0FE013796DE011196019067
:104080000D928A95E1F7FF81E8856A857B85611548
:10409000710531F0EF3F31F481E0FF3F19F403C0C7
:1040A00081E001C080E080FD23C02091290230E042
:1040B000C9010196877099274091280250E0841722
:1040C0009507F1F1F983EA837D836C8396E0929FF3
:1040D000D001939FB00D1124A65DBD4FFE01319616
:1040E00001900D929A95E1F7809329020E94851D17
:1040F00016E08091280290912902891771F1189F8A
:10410000C0011124865D9D4F0E941C1E882329F149
:10411000E09128021E9FF0011124E65DFD4F4081D1
:10412000518162817381848195810E94751D809186
:10413000280290E001968770992780932802D9CFB2
:104140000E94391D1092290210922802EAE5F2E03D
:1041500086E0DF011D928A95E9F72C960FB6F89458
:10416000DEBF0FBECDBFDF91CF911F910895EF92BB
:10417000FF920F931F93CF93DF938C01892B09F448
:104180006CC0F12CEE24E394E8012196F8018491AF
:10419000843740F4843008F051C0813081F082309F
:1041A00019F15BC0853709F444C0A8F19CE7980F6A
:1041B000903708F052C08F770E94561A41C00E5FA8
:1041C0001F4FFE01849190E2980F983050F4877051
:1041D000FE2D01C0FF0F8A95EAF78F2F0E94402322
:1041E00014C00E94C1192DC00E5F1F4FFE018491A3
:1041F00090E2980F983060F48770FE2D01C0FF0F99
:104200008A95EAF78F2F0E9446230E946B2319C0DC
:104210000E94561A16C00E5F1F4FFE01C491CC2398
:1042200081F08FE99FE00197F1F700C00000C150D5
:10423000F6CF0E5F1F4FFE01F49003C00E94C1191C
:104240008E018F2D882309F49FCFEFE9FFE031978E
:10425000F1F700C000008150F5CFDF91CF911F91A1
:104260000F91FF90EF900895089508950C943521D3
:104270000C9436210E94382160937302709374026B
:1042800080937502909376020C94231D0C943A212E
:104290000F931F9300917302109174022091750285
:1042A00030917602602B712B822B932B1F910F91F3
:1042B0000C943A210F931F93009173021091740292
:1042C000209175023091760260237123822393231B
:1042D0001F910F910C943A210F931F930091730239
:1042E0001091740220917502309176026027712737
:1042F000822793271F910F910C943A210C9435211A
:104300000E947E2160936F0270937002809371020D
:10431000909372020C94231D60E070E0CB010C942A
:1043200080210F931F9341E050E060E070E08A012C
:104330009B0104C0000F111F221F331F8A95D2F763
:10434000C901B8011F910F910C9480210F931F9305
:1043500041E050E060E070E004C0440F551F661F6C
:10436000771F8A95D2F780916F0290917002A09189
:104370007102B09172028A019B01082B192B2A2B22
:104380003B2BC901B8011F910F910C9480210F9311
:104390001F9341E050E060E070E004C0440F551FFF
:1043A000661F771F8A95D2F7409550956095709556
:1043B00080916F0290917002A0917102B09172028F
:1043C0008A019B01082319232A233B23C901B80131
:1043D0001F910F910C9480210F931F9341E050E0A7
:1043E00060E070E004C0440F551F661F771F8A9578
:1043F000D2F780916F0290917002A0917102B091FA
:1044000072028A019B01082719272A273B27C90125
:10441000B8011F910F910C9480210F931F9300916D
:104420006F02109170022091710230917202602B24
:10443000712B822B932B1F910F910C9480210F9342
:104440001F9300916F0210917002209171023091C0
:10445000720260237123822393231F910F910C9486
:1044600080210F931F9300916F0210917002209191
:1044700071023091720260277127822793271F9162
:104480000F910C9480210895990F990F890FE82FAF
:10449000E695E695E695877051E001C0550F8A953F
:1044A000EAF785E0E89FF0011124E05AFD4F20E093
:1044B00030E070E04081CB01022E02C096958795D6
:1044C0000A94E2F78170819584278523842781935C
:1044D0002F5F3F4F2530310569F70895990F990FE8
:1044E000890F682F669566956695982F977085E079
:1044F000689FB001112440E050E080E0FB01E40F30
:10450000F51FE05AFD4F208130E0092E02C036959C
:1045100027950A94E2F721703327042E01C0220F59
:104520000A94EAF7822B4F5F5F4F4530510531F710
:104530000895BF92CF92DF92EF92FF920F931F9355
:10454000CF93DF938C01C0906F02D0907002E09007
:104550007102F09072028091730290917402A091A6
:104560007502B0917602C82AD92AEA2AFB2ACFE13D
:10457000D0E0D701C6010C2E04C0B695A79597953B
:1045800087950A94D2F780FD04C0219790F7B12C4B
:1045900007C0BC2EB8018C2F0E94940A0197A9F382
:1045A0008B2DDF91CF911F910F91FF90EF90DF90B6
:1045B000CF90BF900895CF93DF93EC010E94992292
:1045C000BE010E94940ADF91CF9108951F93CF936B
:1045D000DF93EB0190912702992321F0CB010E94F8
:1045E000DB2213C0882349F0CB010E949922182FA7
:1045F000682FCE010E94442204C0CB010E946E228B
:10460000182FBE01812F0E94940ADF91CF911F9134
:104610000895809177028595859585950895809177
:1046200077028770089590917702977081E009F47E
:1046300080E0089580918302089590918302892BF0
:1046400080938302089580959091830289238093BB
:104650008302089510928302089580918202089542
:1046600090918202892B8093820208958095909187
:104670008202892380938202089510928202089513
:1046800090918102892B8093810208958095909169
:1046900081028923809381020895109281020895F6
:1046A00080917802089508950C9453230C94542318
:1046B00090917802981721F0809378020C945623F9
:1046C000089580917802882329F01092780280E082
:1046D0000C9456230895E0913D01F0913E018091A4
:1046E00083028083E0913D01F0913E0190818091B1
:1046F0008202892B8083E0913D01F0913E019081FF
:1047000080918102892B808380917802882381F0B7
:10471000E0913D01F0913E019081892B8083809151
:104720003D0190913E010E947A2481110E946123F3
:1047300080913D0190913E010C9436180C945323C6
:1047400098E0899F90011124262B209377020E94E4
:10475000A621809177028595859585950C949E2359
:104760001092770280E00C949E232091770280952E
:10477000822380937702982F977079F430E0482F46
:10478000082E000C550B2417350739F085958595B3
:1047900085950E94C7210C94B02308959093F10150
:1047A0008093F001089580E090E00E94C93021E0FC
:1047B0008C3E9E4F09F020E0822F089582E090E029
:1047C0000C94BB3083E090E00C94BB30CF9384E03A
:1047D00090E00E94BB30C82F81E290E00E94BB3085
:1047E0002C2F30E0A901582BCA01CF910895CF9307
:1047F000C92F682F84E090E00E94CF306C2F81E2B7
:1048000090E0CF910C94CF30AB01BC018FE090E0F1
:104810000C94E130AB01BC0183E190E00C94E130F9
:1048200060E070E0CB010C940A2460E070E0CB0102
:104830000E9404240C9410246CEE7EEF80E090E043
:104840000E94ED3060E082E090E00E94CF3060E0B6
:1048500083E090E00E94CF301092730210927402B5
:10486000109275021092760260E084E090E00E945F
:10487000CF3060E081E290E00E94CF3060E085E0E0
:1048800090E00E94CF3060E086E090E00E94CF3060
:104890006FEF87E090E00E94CF3040E050E0BA0137
:1048A00088E090E00E94E13060E08DE090E00E94BE
:1048B000CF3040E050E0BA0188E190E00E94E13062
:1048C00060E087E190E00E94CF3040E050E0BA0124
:1048D0008CE190E00E94E13060E080E290E00E9494
:1048E000CF300C9415240C941C24682F8EE090E09B
:1048F0000C94CF30FC01329697E080E0915029F083
:1049000021912223D9F38F5FF9CF08959C01FC01F7
:1049100032969FEF80E04191461789F09F3F19F44E
:10492000411101C0982F8F5F8630A9F79F3F39F062
:10493000F901E90FF11D97FDFA9562830895089535
:104940009C012A5F3F4FFC014281461301C0128245
:10495000019682179307B9F708950C9486240C9456
:10496000A024029626E0FC0111922A95E9F7089509
:1049700008950C94B8240C94B824CF930E94BB24BF
:104980000E9427080E94B924C0E08C2F0E94D10702
:10499000811104C0CF5FC530C1F701C081E0CF9164
:1049A00008950C94B8240C94D1240E94D3248091AF
:1049B000C702843009F439C01092850220E488E1EE
:1049C00090E00FB6F894A895809360000FBE2093F6
:1049D000600080E00E94EC090E94C610809186026F
:1049E00081110AC081E080938602809197028170D4
:1049F000809387020E9434120E94D32483B7817F60
:104A0000846083BF83B7816083BF7894889583B7C0
:104A10008E7F83BF0FB6F894A8958091600088615F
:104A200080936000109260000FBE08950C94B8242B
:104A30000E94391D0E942A180E94EC0910928602D9
:104A40008091870281110E94CF110E94A4100C94C2
:104A500016251F920F920FB60F9211248F939F93DA
:104A6000AF93BF9380918502811113C08091BD02E5
:104A70009091BE02A091BF02B091C0024196A11DCB
:104A8000B11D8093BD029093BE02A093BF02B0936C
:104A9000C002BF91AF919F918F910F900FBE0F9069
:104AA0001F90189582E084BD93E095BD9AEF97BD65
:104AB00080936E0008952FB7F8948091BD02909175
:104AC000BE02A091BF02B091C0022FBF08952FB7C0
:104AD000F8946091BD027091BE028091BF029091E6
:104AE000C0022FBF0895CF92DF92EF92FF920F93F3
:104AF0001F932FB7F8944091BD025091BE02609170
:104B0000BF027091C0022FBF6A017B01EE24FF2417
:104B10008C0120E030E0C016D106E206F30610F466
:104B2000415051099A01281B390BC9011F910F915E
:104B3000FF90EF90DF90CF90089578941F920F929E
:104B40000FB60F9211248F939F93AF93BF938091D1
:104B5000BD029091BE02A091BF02B091C002019629
:104B6000A11DB11D8093BD029093BE02A093BF0210
:104B7000B093C002BF91AF919F918F910F900FBEE4
:104B80000F901F90189587E797E7909301088093FF
:104B900000089AE088E10FB6F894A8958093600029
:104BA0000FBE90936000FFCF0E94D323811102C0FB
:104BB0000E9473240E94DE23809384020E94E623D5
:104BC0009093C2028093C1020E94E223682F70E09A
:104BD00080E090E00C944621CF93C82F1F928F93D2
:104BE0008BE097E09F938F930E94C80781E090E04D
:104BF000A0E0B0E0BC01CD0104C0660F771F881FA4
:104C0000991FCA95D2F70E9446210F900F900F90DE
:104C10000F90CF910C94391DCF93DF938B3109F412
:104C2000F9C108F08FC18B3009F4B2C108F065C139
:104C3000863009F4B0C120F4853009F4BEC16CC2DD
:104C4000873009F4CCC1883009F066C286E49CE064
:104C50000E942F0787E99BE00E942F070E94E22312
:104C60001F928F9384E99BE09F938F930E94C807C4
:104C700082E99BE00E942F070E94DE23C82F8FE766
:104C80009BE00E942F071F92CF938AE79BE09F93A0
:104C90008F930E94C80788E79BE00E942F078EE64B
:104CA0009BE00E942F078C2F81701F928F938BE6C1
:104CB0009BE09F938F930E94C80789E69BE00E9428
:104CC0002F078FE59BE00E942F07C1FB882780F903
:104CD0001F928F938CE59BE09F938F930E94C80750
:104CE0008AE59BE00E942F078EE49BE00E942F073D
:104CF000C2FB882780F91F928F938BE49BE09F93E0
:104D00008F930E94C80789E49BE00E942F0780E4EC
:104D10009BE00E942F07C3FBCC27C0F91F92CF93C3
:104D20008DE39BE09F938F930E94C8078BE39BE0EA
:104D30000E942F070E94E623EC0187E29BE00E947D
:104D40002F07DF93CF9382E29BE09F938F930E9484
:104D5000C80780E29BE00E942F0787E09BE00E944B
:104D60002F078C2F81701F928F9384E09BE09F937D
:104D70008F930E94C8078DB79EB780960FB6F894A0
:104D80009EBF0FBE8DBF82E09BE00E942F078BEE7F
:104D90009AE00E942F07C1FB882780F91F928F930A
:104DA00088EE9AE09F938F930E94C80786EE9AE060
:104DB0000E942F0784ED9AE00E942F078D2F8170AB
:104DC0001F928F9381ED9AE09F938F930E94C80763
:104DD0008FEC9AE00E942F078DEB9AE00E942F073C
:104DE000D695D1701F92DF938AEB9AE09F938F93B1
:104DF0000E94C80788EB9AE00E942F0786EA9AE093
:104E00000E942F07C2FB882780F91F928F9383EAA5
:104E10009AE09F938F930E94C80781EA9AE00E94CC
:104E20002F078FE89AE00E942F07C3FB882780F99D
:104E30001F928F938CE89AE09F938F930E94C807EC
:104E40008AE89AE00E942F0780E89AE00E942F07E4
:104E5000C4FB882780F91F928F938DE79AE09F9378
:104E60008F930E94C8078BE79AE00E942F0789E67C
:104E70009AE00E942F07C5FB882780F91F928F9325
:104E800086E69AE09F938F930E94C80784E69AE093
:104E90000E942F0788E49AE00E942F07C6FB88270C
:104EA00080F91F928F9385E49AE09F938F930E94DD
:104EB000C8078DB79EB780960FB6F8949EBF0FBEF9
:104EC0008DBF83E49AE00E942F078BE39AE00E9453
:104ED0002F07C7FBCC27C0F91F92CF9388E39AE036
:104EE0009F938F930E94C80786E39AE00E942F0742
:104EF0000F900F900F900F9049C0803109F4B4C00B
:104F000020F48E3009F49AC007C1863109F4C7C075
:104F1000893109F001C189E698E00E942F078EE3EC
:104F200098E00E942F0784E098E00E942F0781ED0F
:104F300097E00E942F0784EA97E00E942F0789E7F5
:104F400097E08FC08A32E1F060F4873209F4E0C064
:104F500028F48E3108F4E0C08D51DBC0893269F14C
:104F6000DBC0833448F48A3308F0D0C0853309F4B9
:104F7000CFC0883369F0D0C0833409F4C9C0CCC035
:104F800085E39CE00E942F070E947324C1E0C9C002
:104F900083E998E066C080918402817F8E7F809350
:104FA000840288E798E00E942F0781E39CE00E943A
:104FB0002F0781E080938802E9CF0E94391D85E1A7
:104FC0009CE00E942F079FEF23ED80E3915020404B
:104FD0008040E1F700C000000E94C325D7CF809138
:104FE0008402C82FC095C170C0FB80F980938402F1
:104FF000CC2329F089E09CE00E942F0792C08CEF1F
:105000009BE00E942F0780918402897F877F809395
:105010008402BCCF9091840291FBCC27C0F981E03F
:10502000C827892FC0FB81F980938402CC2319F013
:105030008FEE9BE029C081EE9BE013C0909184022B
:1050400092FBCC27C0F981E0C827892FC0FB82F9E9
:1050500080938402CC2319F082ED9BE015C082EC92
:105060009BE00E942F0792CF9091840293FBCC2764
:10507000C0F981E0C827892FC0FB83F9809384029F
:10508000CC2351F086EB9BE00E942F078091840295
:1050900081608093840245C089EA9BE0E2CF8BE681
:1050A00097E00E942F070E942A181F928F9381E594
:1050B00097E09F938F930E94C807809149011F92A8
:1050C0008F938AE397E09F938F930E94C807809104
:1050D00095021F928F9387E297E09F938F930E9490
:1050E000C8070E9467259F938F937F936F9380E1FA
:1050F00097E09F938F930E94C8078DB79EB7429603
:105100000FB6F8949EBF0FBE8DBF40CF895301C02C
:1051100080E00E94EC253ACF87EA9BE00E942F07AF
:10512000C0E08C2FDF91CF91089580E008950C941A
:105130009528CF93C82F80918802882319F0813059
:1051400031F038C00E941A238232B1F504C00E94A7
:105150001A23823261F48C2F0E949728811104C097
:105160008C2F0E940C2624C081E090E021C08C2F5F
:105170000E94952881111BC0C43189F018F4CB30EE
:1051800029F010C0C93259F0C83361F488E798E0BB
:105190000E942F0787E097E00E942F0708C0109217
:1051A00088020CC085E097E00E942F0707C081E0CD
:1051B000817006C01092880280E002C080E0F8CFC3
:1051C000CF91089580919402089508959FB7F8941F
:1051D00010928B029FBF9091C702943009F057C084
:1051E0009091E9009F703091EC00232F217030FDE9
:1051F00020E8922B23E02093E9002091EB0020FF90
:1052000043C02091EE0027FF3FC020918902222356
:1052100021F02091E80025FF37C01092890226E096
:105220003091E80035FD15C03091C702343061F58A
:105230003091EB0035FD28C0215021F481E08093AE
:10524000890222C0EFE9FFE03197F1F700C00000CA
:10525000E7CF8093F1008091E80085FD0AC080913E
:10526000E80080FFFCCF8091E8008E778093E80013
:1052700006C08FB7F89421E020938B028FBF9F70F8
:105280009093E90080E008959F709093E9008FEF7C
:105290000895CF93DF9300D01F92CDB7DEB79091E2
:1052A000C702943019F589837B836A8382E08093F7
:1052B000E9008FEF9091E800815095FD06C095EDD3
:1052C0009A95F1F700008111F5CF8091E80085FFF4
:1052D0000DC040E050E063E070E0CE0101960E9416
:1052E000C92B8091E8008E778093E8000F900F9093
:1052F0000F90DF91CF910895CF93DF93EC010E943F
:10530000AC2B823011F0843031F4BE0184E0DF91A7
:10531000CF910C944929DF91CF910895BC01605839
:10532000710983E00C944929CF93DF93EC010E942B
:10533000AC2B823011F0843039F581E08093E900A4
:105340008FEF9091E800815095FD06C095ED9A95FC
:10535000F1F700008111F5CF8091E80085FF14C0BE
:1053600040E050E068E070E0CE010E94C92B8091DF
:10537000E8008E778093E80088E0FE01ACE8B2E0B8
:1053800001900D928A95E1F7DF91CF91089586E71C
:105390009CE00E942F078091C602811109C00E94E3
:1053A0005A2D0E94B72D8091E20084608093E20024
:1053B000089582E79CE00E942F071092C60208958C
:1053C0008EE69CE00C942F078AE69CE00C942F0755
:1053D00086E69CE00E942F070C94182520918A02F3
:1053E0002F5F822F62E30E946630992319F0209389
:1053F0008A02089510928A0280918B02882371F1AB
:105400008091C702843041F58091E9008F7020912E
:10541000EC00922F917020FD90E8892B93E09093FF
:10542000E9009091EB0090FF14C09091EE0097FF7F
:1054300010C09091E80095FF03C01092F100F9CFE1
:105440009091E80090FF05C09091E8009E779093BE
:10545000E8008F708093E90010928B02089542E07B
:1054600061EC81E00E94D32C42E261EC82E00E9478
:10547000D32C42E261EC83E00C94D32C8091C902DE
:10548000833009F460C030F4813071F0823009F467
:1054900099C008958A3009F485C08B3009F46BC037
:1054A000893009F0A7C020C08091C802813A09F074
:1054B000A1C08091E800877F8093E8008091CC02B2
:1054C0009091CD02892B21F468E08CE892E003C032
:1054D00060E080E090E070E00E94142C8091E80091
:1054E0008B778093E80008958091C802813209F09B
:1054F00081C08091CC029091CD02029708F07AC0D1
:105500008091E800877F8093E8008091E80082FD29
:1055100005C08091C7028111F8CF6CC02091F300C3
:105520008091F20090E0922B029729F48091F10093
:105530008B7F813021F48091F100809394028091DF
:10554000E8008B7753C08091C802813A09F052C0BD
:105550008091CC029091CD02892B09F04BC08091B3
:10556000E800877F8093E8008091E80080FFFCCF0F
:105570008091490136C08091C8028132D9F580916D
:10558000CC029091CD02892BA9F58091E800877F0C
:105590008093E8000E94082D8091CA0280934901FF
:1055A0000C94391D8091C802813221F58091E80068
:1055B000877F8093E8000E94082D8091CB02809322
:1055C000950208958091C802813AA1F48091E80083
:1055D000877F8093E8008091E80080FFFCCF809176
:1055E00095028093F1008091E8008E778093E80027
:1055F0000C94082D089584B7877F84BF0FB6F89464
:10560000A89580916000886180936000109260008E
:105610000FBE90E080E80FB6F894809361009093FD
:1056200061000FBE0E94BB180E945A2D0E94B72D28
:105630008091E20084608093E20086EE98E20E940E
:10564000CE2378940E944B300E94C3188FE391E0E0
:105650000E94251885E59CE00E942F078091C702D3
:10566000853089F481E59CE00E942F070E94D524B3
:105670008091C502882391F30E94BD24882371F391
:105680000E94B32BEBCF0E94F518E8CF0C94482B67
:10569000292F332723303105C9F060F4213031053B
:1056A00081F02230310509F047C08BE590E02EEA09
:1056B0003CE046C02132310511F12232310561F161
:1056C0003BC082E190E029E03DE03AC0992781307B
:1056D000910561F040F08230910559F0039761F532
:1056E000EAE7FCE008C0EAEAFCE005C0EEE8FCE01E
:1056F00002C0E0E8FCE0849190E09F0121C06330AB
:105700007105D0F4660F771FFB01E651FE4F208133
:10571000318189E090E014C06330710568F4FB01C9
:10572000EE0FFF1FEC51FE4F20813181FB01EF5145
:10573000FE4F808190E004C080E090E020E030E007
:10574000FA013183208308958091C702843011F0DB
:1057500081E0089582E0089580919602811102C04F
:105760000C94A42B089580E189BD82E189BD09B420
:1057700000FEFDCF8091D8008F7D8093D80080916E
:10578000E00082608093E0008091E00081FDFCCF2A
:105790000895CF92DF92EF92FF920F931F93CF93D2
:1057A000DF93EC018B017A010E94272D811133C018
:1057B000E114F10439F0F70180819181081B190B84
:1057C000C80FD91FC12CD12C0115110519F18091D9
:1057D000E80085FD16C08091E8008E778093E80090
:1057E000E114F10449F0F70180819181C80ED91EBE
:1057F000D182C08285E00FC00E94272D882321F32B
:105800000AC089918093F10001501109FFEFCF1A6E
:10581000DF0ADACF80E0DF91CF911F910F91FF90E7
:10582000EF90DF90CF9008952091CE023091CF027B
:105830002617370748F06115710539F42091E80003
:105840002E772093E80001C0B901FC0120E061152A
:10585000710579F18091C7028823F1F18530F1F16A
:105860008091E80083FD3CC08091E80082FD2EC05D
:105870008091E80080FFEBCF2091F3008091F2004F
:1058800090E0922B6115710551F08830910538F444
:1058900021912093F100615071090196F3CF21E02D
:1058A000089709F020E08091E8008E778093E80067
:1058B000CECF2111CFCF0AC08091C702882361F0DB
:1058C000853061F08091E80083FD0AC08091E80096
:1058D00082FFF2CF80E0089582E0089583E008958A
:1058E00081E008952091CE023091CF02261737072C
:1058F00048F06115710539F42091E8002E77209366
:10590000E80001C0B901FC0120E06115710591F1C9
:105910008091C702882309F440C0853009F43FC054
:105920008091E80083FD3DC08091E80082FD2FC09A
:105930008091E80080FFE9CF2091F3008091F20090
:1059400090E0922B6115710559F08830910540F473
:1059500024912093F1003196615071090196F2CFA4
:1059600021E0089709F020E08091E8008E7780938D
:10597000E800CBCF2111CCCF0AC08091C702882389
:1059800061F0853061F08091E80083FD0AC080916C
:10599000E80082FFF2CF80E0089582E0089583E07E
:1059A000089581E00895982F973068F59093E90065
:1059B000981739F07091EC002091ED005091F000B3
:1059C00003C0242F762F50E021FD02C09F5FECCF53
:1059D0003091EB003E7F3093EB003091ED003D7F46
:1059E0003093ED003091EB0031603093EB00709319
:1059F000EC002093ED005093F0002091EE0027FD85
:105A0000E5CF80E008958F708093E90081E00895EC
:105A10008091C80287FF11C08091E80082FD05C017
:105A20008091C7028111F8CF11C08091E8008B7777
:105A30000BC08091C702882349F08091E80080FF65
:105A4000F8CF8091E8008E778093E8000895209148
:105A5000E4003091E50095E64091EC00842F8170E0
:105A600040FF23C08091E80080FD1DC08091C702E7
:105A7000882399F0853099F08091EB0085FD11C065
:105A80004091E4005091E5002417350729F3915027
:105A900011F09A01E1CF84E0089582E0089583E057
:105AA000089581E0089580E008954091E80042FF64
:105AB000DDCF08950E94C82D0E94D02DE0EEF0E0C9
:105AC000808181608083E8EDF0E080818F77808342
:105AD00019BCA7EDB0E08C918E7F8C9380818F7E76
