:100000000C94E4060C942B070C942B070C942B07F0
:100010000C942B070C942B070C942B070C942B0798
:100020000C942B070C942B070C94952F0C94673091
:100030000C94C1260C942B070C942B070C942B07C3
:100040000C942B070C942B070C942B070C942B0768
:100050000C942B070C9435270C942B070C942B072E
:100060000C942B070C942B070C942B070C942B0748
:100070000C942B070C942B070C942B070C942B0738
:100080000C942B070C942B070C942B070C942B0728
:100090000C942B070C942B070C942B070C942B0718
:1000A0000C942B070C942B070C942B0737143A1441
:1000B0003F1446144B14501455145A145F1464140E
:1000C00069146E147214751478147B147E148514DC
:1000D000851485148E1C8E1CC01CC01C0D1D411E59
:1000E000411E411E2B1DC01DD11DD11D311E411EA3
:1000F000411E3A1ED11ED11EE31EE31EDA1EE31E70
:10010000E31EE31ED11ED11EDF1EE31EE31EDF1E13
:10011000D430FB30F331FB30F33147316A31F33106
:10012000C131D031040005000600070008000900B5
:100130000A000B000C000D000E000F001000110053
:10014000130000570100C35CC45CC25CCA5CC95C9C
:10015000C65CC55CC85CC75C010001000100010011
:10016000005C015744454255473A20646973616217
:100170006C65642E0A0044454255473A20656E611D
:10018000626C65642E0A000A0025303862003A204D
:100190000025303258000A722F6320303132333458
:1001A0003536370A007267626C6967687420746953
:1001B0006D65722064697361626C652E0A007267F6
:1001C000626C696768742074696D657220656E6120
:1001D000626C65642E0A007267626C6967687420DD
:1001E00073657420687376205B4E4F454550524FBF
:1001F0004D5D3A2025752C25752C25750A007267F2
:10020000626C696768742073657420687376205B1C
:10021000454550524F4D5D3A2025752C25752C25AE
:10022000750A007267626C6967687420646973613B
:10023000626C65205B4E4F454550524F4D5D3A20F4
:100240007267626C696768745F636F6E6669672E58
:10025000656E61626C65203D2025750A00726762DB
:100260006C696768742064697361626C65205B45C2
:100270004550524F4D5D3A207267626C69676874F1
:100280005F636F6E6669672E656E61626C65203DA7
:100290002025750A007267626C6967687420656E54
:1002A00061626C65205B4E4F454550524F4D5D3A43
:1002B000207267626C696768745F636F6E666967F6
:1002C0002E656E61626C65203D2025750A0072679F
:1002D000626C6967687420656E61626C65205B455D
:1002E0004550524F4D5D3A207267626C6967687481
:1002F0005F636F6E6669672E656E61626C65203D37
:100300002025750A007267626C6967687420746FD3
:1003100067676C65205B454550524F4D5D3A2072D2
:1003200067626C696768745F636F6E6669672E6584
:100330006E61626C65203D2025750A007267626CF3
:1003400069676874206D6F6465205B4E4F4545504A
:10035000524F4D5D3A2025750A007267626C6967DD
:100360006874206D6F6465205B454550524F4D5D4C
:100370003A2025750A007267626C696768745F6964
:100380006E6974207267626C696768745F636F6E10
:100390006669672E6D6F6465203D20302E20577290
:1003A0006974652064656661756C742076616C752E
:1003B000657320746F20454550524F4D2E0A0072D0
:1003C00067626C696768745F696E697420656563EC
:1003D0006F6E666967206973206E6F7420656E6149
:1003E000626C65642E0A007267626C696768745F8C
:1003F000696E6974207374617274210A0072676295
:100400006C696768745F696E69742063616C6C65A0
:10041000642E0A007267626C696768745F636F6E4E
:100420006669672E7370656564203D2025640A0047
:100430007267626C696768745F636F6E6669672E66
:1004400076616C203D2025640A007267626C6967E2
:1004500068745F636F6E6669672E736174203D20F8
:1004600025640A007267626C696768745F636F6E07
:100470006669672E687565203D2025640A007267ED
:10048000686C696768745F636F6E6669672E6D6F0D
:100490006465203D2025640A007267626C696768A4
:1004A000745F636F6E6669672E656E61626C65204E
:1004B0003D2025640A007267626C696768745F6337
:1004C0006F6E66696720454550524F4D3A0A007F6E
:1004D0003F1F643214643214783C1E1E140A052235
:1004E00023252628292A2C2D2F3032333536383A29
:1004F0003B3D3E4042434547494A4C4E505153557F
:1005000057595A5C5E6062646668696B6D6F71739F
:100510007577797B7D7F81838587898A8C8E9092A0
:100520009496989A9C9E9FA1A3A5A7A8AAACAEAFAB
:10053000B1B3B4B6B8B9BBBCBEBFC1C2C3C5C6C7F0
:10054000C9CACBCCCDCED0D1D2D2D3D4D5D6D7D7A1
:10055000D8D9D9DADADBDBDBDCDCDCDCDCDDDDDDE9
:10056000DDDCDCDCDCDCDBDBDBDADAD9D9D8D7D7E5
:10057000D6D5D4D3D2D2D1D0CECDCCCBCAC9C7C692
:10058000C5C3C2C1BFBEBCBBB9B8B6B4B3B1AFAED0
:10059000ACAAA8A7A5A3A19F9E9C9A989694929076
:1005A0008E8C8A89878583817F7D7B79777573714E
:1005B0006F6D6B6968666462605E5C5A595755532B
:1005C00051504E4C4A4947454342403E3D3B3A38E4
:1005D00036353332302F2D2C2A2928262523220088
:1005E00001010101010101010102020202020202F4
:1005F00002020303030303030303040404040404C7
:10060000040505050505060606060607070707078C
:1006100008080808090909090A0A0A0B0B0B0C0C3F
:100620000C0D0D0D0E0E0E0F0F0F101011111112DB
:100630001213131414151516161717181819191A5A
:100640001A1B1B1C1D1D1E1E1F20202122222324BD
:1006500024252626272829292A2B2C2D2D2E2F30FC
:10066000313232333435363738393A3B3C3D3E3F10
:10067000404142434445464748494A4C4D4E4F50FD
:10068000515354555658595A5B5D5E5F61626465BB
:100690006668696B6C6D6F7072737577787A7B7D45
:1006A0007E8082838587888A8C8E8F919395969899
:1006B0009A9C9EA0A2A3A5A7A9ABADAFB1B3B5B7B5
:1006C000BABCBEC0C2C4C6C9CBCDCFD1D4D6D8DB8C
:1006D000DDDFE2E4E7E9EBEEF0F3F5F8FAFDFF0A1F
:1006E000002530325820006B6579626F6172645F5B
:1006F0007265706F72743A20000A0025303258001B
:100700006B6579626F6172645F7365745F6C656459
:100710003A20003F00433E20004C25640A007469E3
:100720006D65725F72656164333228293A20253025
:10073000346C580A006B6579626F6172645F69643A
:100740006C653A2025580A006B6579626F617264A6
:100750005F70726F746F636F6C3A2025580A00687F
:100760006F73745F6B6579626F6172645F6C6564EF
:100770007328293A2025580A000A092D205374614C
:10078000747573202D0A004743433A20352E342ECA
:1007900030204156522D4C4942433A20322E302EC1
:1007A00030204156525F415243483A2061767235BB
:1007B0000A004F5054494F4E533A204C5546412061
:1007C00045585452414B455920434F4E534F4C4589
:1007D00020434F4D4D414E4420343039360A0042BB
:1007E00055494C443A2022302E372E3130332D32A9
:1007F000332D673236613832332D64697274792251
:10080000202831303A33393A3238204A616E20207C
:10081000332032303230290A005649443A203078A9
:1008200046454544284A6F7368204A6F686E736F67
:100830006E29205049443A203078303030302848F2
:100840007562313629205645523A203078303030A2
:10085000310A00444553433A204D6163726F205082
:10086000616420776974682055534220487562207E
:10087000616E6420456E636F646572730A000A09D5
:100880002D2056657273696F6E202D0A000A092D9E
:1008900020436F6E736F6C65202D0A4553432F7193
:1008A0003A09717569740A000A092D204D6167695A
:1008B00063202D0A443A094465627567204D6573CB
:1008C0007361676520546F67676C650A583A094D14
:1008D0006174726978204465627567204D6F646544
:1008E00020546F67676C65202D2053686F77206BED
:1008F00065797072657373657320696E206D6174BC
:1009000072697820677269640A4B3A094B657962AB
:100910006F61726420446562756720546F67676C0D
:1009200065202D2053686F77206B65797072657331
:1009300073207265706F72740A4D3A09446562756E
:1009400067204D6F75736520546F67676C650A5635
:100950003A0956657273696F6E0A533A09537461A6
:100960007475730A433A094163746976617465204A
:10097000436F6E736F6C65204D6F64650A46312D51
:100980004631303A0953776974636820746F204C9C
:100990006179657220302D392028463130203D2084
:1009A0004C30290A302D393A09537769746368202D
:1009B000746F204C6179657220302D390A4752419D
:1009C00056453A0953776974636820746F204C6107
:1009D00079657220302028616C7465726E6174656F
:1009E000290A423A094A756D7020746F20426F6F70
:1009F000746C6F616465720A4553433A094A756DB8
:100A00007020746F20426F6F746C6F616465722028
:100A100028616C7465726E617465290A453A0950E3
:100A200072696E7420454550524F4D205365747461
:100A3000696E67730A4253504143453A09436C65F6
:100A4000617220454550524F4D0A000A002575003D
:100A50002E6E6B726F3A20000A002575002E737798
:100A600061705F6261636B736C6173685F62616325
:100A70006B73706163653A20000A002575002E7360
:100A80007761705F67726176655F6573633A2000B6
:100A90000A002575002E6E6F5F6775693A20000A9F
:100AA000002575002E737761705F72616C745F72E0
:100AB0006775693A20000A002575002E737761700A
:100AC0005F6C616C745F6C6775693A20000A002581
:100AD00075002E737761705F7263746C5F726775F7
:100AE000693A20000A002575002E737761705F6CEB
:100AF00063746C5F6C6775693A20000A00257500A5
:100B00002E636170736C6F636B5F746F5F636F6E86
:100B100074726F6C3A20000A002575002E7377619D
:100B2000705F636F6E74726F6C5F636170736C6F14
:100B3000636B3A20000A0025303258006B65796DEE
:100B400061705F636F6E6669672E7261773A20002D
:100B50000A002575002E6D6F7573653A20000A0036
:100B60002575002E6B6579626F6172643A20000A08
:100B7000002575002E6D61747269783A20000A00B4
:100B80002575002E656E61626C653A20000A0025AD
:100B90003032580064656275675F636F6E666967BF
:100BA0002E7261773A20000A00257500646566613F
:100BB000756C745F6C617965723A20003F000A6D54
:100BC0006F7573653A206F66660A000A6D6F7573FC
:100BD000653A206F6E0A000A6B6579626F61726414
:100BE0003A206F66660A000A6B6579626F6172640B
:100BF0003A206F6E0A000A6D61747269783A206F4C
:100C000066660A000A6D61747269783A206F6E0A2E
:100C1000000A64656275673A206F66660A000A64B6
:100C2000656275673A206F6E0A000A0A4A756D7030
:100C3000696E6720746F20626F6F746C6F6164659A
:100C4000722E2E2E2000433E2000436C6561726997
:100C50006E6720454550524F4D0A006565636F6EC3
:100C60006669673A0A005B735D004B6579626F6184
:100C700072642073746172742E0A005B575D005BAE
:100C8000535D005B525D005B445D005B435D0004AF
:100C900003300000000C034800750062003100368C
:100CA0000000001A034A006F007300680020004A29
:100CB000006F0068006E0073006F006E000000049B
:100CC00003090409025B00030100A0FA0904000003
:100CD0000103010100092111010001224000070563
:100CE000810308000A090401000103000000092132
:100CF000110100012236000705820320000A0904C1
:100D0000020002030000000921110100012222005B
:100D100007058303200001070503032000011201DA
:100D2000100100000008EDFE0000010001020301B7
:100D30000631FF0974A1010975150026FF009520F1
:100D4000750881020976150026FF00952075089127
:100D500002C005010980A10185031A81002A8300D0
:100D6000160100260300950175108100C0050C09CD
:100D700001A10185041A01002A9C02160100269C8B
:100D800002950175108100C005010906A101050742
:100D900019E029E7150025019508750181029501E3
:100DA000750881010507190029FF150026FF009528
:100DB0000675088100050819012905950575019139
:100DC00002950175039101C011241FBECFEFDAE037
:100DD000DEBFCDBF04B603FE27C0809166029091AE
:100DE0006702A0916802B09169028730904BA740DA
:100DF000B04BD1F410926602109267021092680212
:100E00001092690214BE84B7877F84BF0FB6F8942E
:100E1000A8958091600088618093600010926000C6
:100E20000FBEE0E0F8E3099511E0A0E0B1E0EAE8E8
:100E3000F5E602C005900D92AE38B107D9F722E071
:100E4000AEE8B1E001C01D92A636B207E1F70E94FC
:100E5000B92C0C94C3320C940000FF93EF93E091F3
:100E60008E01F0918F01309709F00995EF91FF9174
:100E70000895FC018591803011F0EFDFFBCF0895DC
:100E8000FF27E0E230E247FF0CC0419597FF09C021
:100E9000EDE26095709580959095611D711D811DA5
:100EA000911D27FF02C0219530E350E2AA27660F6B
:100EB000771F881F991FAA1FA41710F0A41B639502
:100EC0005A95A9F7AA3008F0A95FA05DAF93F395F2
:100ED000611571058105910541F7ED3211F4EF932C
:100EE000F395F21718F43F93F395FBCF8F91B5DF8D
:100EF000FA95E1F70895E991F9918591803021F013
:100F0000853219F0AADFF9CF089520E0E8945591D1
:100F10005532C1F3503311F4689455915A3348F463
:100F2000505390F3220F022E220F220F200D250F77
:100F3000F4CF0EF4219589919991533619F35337D3
:100F400029F1533559F1BC0188279927E8945C367B
:100F500021F48991999168945591543639F446EF6A
:100F60007EF077FF0DC08FEF9FEF0AC055374AE044
:100F700039F0583540E121F0523642E009F0089549
:100F8000FF93EF937DDFEF91FF91B7CFFF93EF9347
:100F9000FC0181918030B9F360DFFBCFFF93EF93C9
:100FA00068DFF1CFDF93CF93CDB7DEB72596A3DF10
:100FB000CF91DF91089581110BC083E7662321F063
:100FC0000E94BA1A85E110C00E94BA1A84E10CC0CE
:100FD000813079F483E7662321F00E94BA1A88E110
:100FE00003C00E94BA1A87E10E943B1C83E70C945D
:100FF000DC1B08951F93CF93DF938430910540F15C
:101000008337910530F09C01245731092133310594
:10101000F8F4FB01EC011281112369F083E70E94CF
:10102000BA1A809192018F5F809392018C2F0E9457
:10103000BA1A10E00EC00E94DC1B80919201815010
:1010400080939201811105C083E70E94DC1B01C0DF
:1010500011E0812FDF91CF911F91089580B3887F98
:1010600080BB8AB1887F8AB90895CF93809191011E
:10107000982F990F9093910120919001220F209326
:1010800090018FB1881F8827881F892B8093910139
:1010900099B1991F9927991F922B909390019F378F
:1010A00021F48F3781F4C1E003C08F37B1F4C0E081
:1010B00083E70E94BA1A86E10E943B1C83E70E94E4
:1010C000DC1BCC2351F083E70E94BA1A89E10E940D
:1010D0003B1C83E7CF910C94DC1BCF9108950895BE
:1010E0009C013A9521153F4138F5DC01AA27B270E1
:1010F000AC01442754709C012227387094FF0FC024
:1011000090FF02C080E101C080E0AB2B09F080625B
:10111000452B09F08064232B69F080680BC0892F70
:101120008170AB2B09F08260452B09F08460232B82
:1011300009F08860FB0109940895CF93DF93EC01D7
:10114000805E9109089710F0209719F46EE47CE115
:1011500002C06BE97EE1CE010E9470088C2FDF9106
:10116000CF910C94BA1ACF93DF93EC010E94DC1B51
:10117000CE01805E9109089710F0209719F465E57B
:101180007CE102C062EA7EE1CE01DF91CF910C9456
:10119000700881E008950C94FA071F93CF93DF93B2
:1011A00000D000D01F92CDB7DEB749835A836B833E
:1011B0002091C20189819A81211112C0662349F0D0
:1011C0000E941F24182F682F89819A810E94CA23A8
:1011D00003C00E94F423182F69817A81812F04C0F3
:1011E0000E941F2469817A810F900F900F900F90B9
:1011F0000F90DF91CF911F910C94D009FC01408199
:1012000051816281738184810C94CD080E946B2589
:10121000811102C00E940B260E9447160C94770C85
:101220000E94BD150E94AB160C94790C0C946F08AB
:1012300081E008950C941809CF93C82F0E941609D5
:101240008C2F0E941A09CF91089508950E94BF1E05
:101250000E9425092FEF84E39CE0215080409040BC
:10126000E1F700C0000087E797E7909301088093BB
:1012700000080C945B270F931F93CF93DF938C018F
:101280000E94FE08EC01B8010E941A15B801CE01B7
:101290000E94CB08882309F478C0B801CE010E94CF
:1012A0006115882309F471C0B801CE010E94B417FA
:1012B000882309F46AC0B801CE010E94F51788237B
:1012C00009F463C0B801CE010E942014882309F4F8
:1012D0005CC0F8018281882339F1C1308CE5D807E0
:1012E00059F0CE3DECE5DE07E1F0C115FCE5DF0786
:1012F000D9F40E94260949C080911A02C82FC095CE
:10130000C170C0FB80F980931A02CC2329F086E7D4
:1013100091E00E94390739C084E691E00E943907C4
:1013200035C00E940B2631C0C631DC4539F50E941C
:10133000A024982FF801828120913D0130913E0137
:10134000882379F09A7A81E009F480E08093930110
:10135000911102C069E201C065E3C9010E944526FE
:101360000AC080919301811102C069E201C065E366
:10137000C9010E9447260E94F12407C0C801DF91DD
:10138000CF911F910F910C94C908C0E08C2FDF9171
:10139000CF911F910F91089580E090E008950895F6
:1013A000E72FF0E094E0899FE00DF11D1124EE0F8E
:1013B000FF1FEE0FFF1FE60FF11DEE0FFF1FEC5D8D
:1013C000FE4F859194910895880F991FFC01E9576C
:1013D000FE4F859194910895CF93DF930E94D00999
:1013E0000E94A00BEC0181159045C8F5C11580E461
:1013F000D80708F023C1C03ED105D8F4C03CD105C0
:1014000008F00BC1C83AD10578F4C53AD10508F007
:101410009AC0C130D10509F48FC108F440C1C4306D
:10142000D10508F089C13BC1CF3BD10508F496C076
:1014300036C1C11590E2D90750F4C11521E0D20799
:1014400008F07AC1C83ED10508F476C128C1C1159B
:1014500080E3D80708F0E8C0CE019F70E1C0C11555
:1014600095E5D90708F043C0C11524E5D20708F077
:10147000FCC0C11582E5D80708F5C11591E5D9076B
:1014800008F0DFC0CE0174E0969587957A95E1F774
:1014900083709C2F937021E030E002C0220F331F35
:1014A0009A95E2F73C68382BCF70C695C69580E2D6
:1014B000C89FE0011124C22BD32B3EC19E01237093
:1014C00033278C2F86958695C115D34508F0BEC06D
:1014D000C1E0D0E002C0CC0FDD1F2A95E2F720E288
:1014E000829FC0011124C82BD92BDC6825C1C115EE
:1014F00029E5D207A0F4C11588E5D80708F0BAC0DD
:10150000C11596E5D90708F0CAC08C2F0E94340C8B
:101510008F71C82FD0E0DC2FCC27D0620DC1C11550
:101520002AE5D20708F4ABC0CE019056811590424F
:1015300008F0B5C08D2F8F710E94340CDD27D0626A
:101540008F71D82BF9C0C53AD10509F4ABC0C63AA2
:10155000D10509F0AAC0C2E8D0E4EEC0C83AD1056E
:1015600009F4A6C0C93AD10509F4A5C0CA3AD10503
:1015700009F4A4C0CB3AD10509F4A3C0CC3AD105F3
:1015800009F4A2C0CB3BD10509F4A1C0CC3BD105E5
:1015900009F4A0C0CD3AD10509F49FC0C03BD105E4
:1015A00009F49EC0CE3AD10509F49DC0CF3AD105C9
:1015B00009F49CC0C13BD10509F49BC0C23BD105D5
:1015C00009F49AC0C33BD10509F499C0C43BD105C5
:1015D00009F498C0C53BD10509F497C0C63BD105B5
:1015E00009F496C0C73BD10509F495C0C83BD105A5
:1015F00009F494C0C93BD10509F493C0CD3BD10592
:1016000009F492C0CE3BD10509F491C0CA3BD10583
:1016100009F490C0C0E0D4E48FC0CE01805C910991
:101620000E94E409EC0188C0CE019927D3FF03C0D2
:10163000EC01D86C81C0EC01D06C7EC0DF70D06A48
:101640007BC0DC2FCC27C16FD06A76C0C1E0D0E070
:1016500002C0CC0FDD1F2A95E2F720E2829FC00175
:101660001124C82BD92BDA6867C0DC2FCC27C46FB4
:10167000D06A62C0DC2FCC27C06FD06A5DC08C2FCF
:101680008F700E94340C94E0D695C7959A95E1F737
:10169000CF70D0E0DC2FCC27D069C82B4DC0C0E084
:1016A000D0E04AC0C1E8D0E447C0C3E8D0E444C0B9
:1016B000C2EED4E441C0C9EED4E43EC0CAEED4E4E4
:1016C0003BC0C5EBD4E438C0C6EBD4E435C0C3EBB3
:1016D000D4E432C0C4EBD4E42FC0C7EBD4E42CC0B4
:1016E000CCECD4E429C0CDECD4E426C0C3E8D5E4E6
:1016F00023C0CAE8D5E420C0C2E9D5E41DC0C4E9CE
:10170000D5E41AC0C1E2D6E417C0C3E2D6E414C0DF
:10171000C4E2D6E411C0C5E2D6E40EC0C6E2D6E407
:101720000BC0C7E2D6E408C0CFE6D4E405C0C0E7EA
:10173000D4E402C0CAE2D6E4CE01DF91CF9108958D
:101740008238910569F1B0F48133910509F46DC0D7
:1017500048F48932910509F463C08A32910509F48D
:1017600069C008958533910509F455C08933910501
:10177000B9F00895833E910569F138F4803E9105F2
:10178000B1F0823E910509F10895863E9105A9F1D7
:10179000873E9105B9F1843E910509F064C023C0EC
:1017A0002091570220FD4FC021FD4DC0089580912A
:1017B000570280FD44C08091580280FF44C0809150
:1017C000570284FD42C083EE4DC08091570282FFD4
:1017D00038C0F5CF8091570282FD33C08091580206
:1017E00080FD31C0ECCF8091580281FF32C08091E2
:1017F000570284FD2AC087EE35C08091570283FFCF
:1018000026C0F5CF8091570283FD21C080915802F8
:1018100081FD1FC0ECCF8091570285FD1CC01DC00B
:101820008091570285FD19C016C08091570286FD30
:1018300016C017C08091570286FD13C010C089E3FF
:1018400011C082EE0FC080EE0DC080E00BC086EEAE
:1018500009C084EE07C089E205C085E303C08AE2BF
:1018600001C081E390E008959091570292FF0DC06E
:10187000282F2871283019F4877F846006C0282F0C
:101880002471243011F48B7F886093FF0DC0282FC2
:101890002871283119F4877E846106C0282F2471AD
:1018A000243111F48B7E88612091580220FF0DC0F5
:1018B000382F3871383019F4877F816006C0382F8F
:1018C0003171313011F48E7F886021FF0DC0282FD7
:1018D0002871283119F4877E816106C0282F217173
:1018E000213111F48E7E886194FD877E08950C94D9
:1018F0002E080C943508E82FF0E0EC56FE4F80815E
:101900000895CF92DF92EF92FF920F931F93CF93A0
:10191000DF9386E991E00E94390784E9E82E81E0AF
:10192000F82EC0E0D0E091E9C92E91E0D92E09E867
:1019300011E0DF93CF93DF92CF920E94D2078EE81F
:1019400091E00E943907F70181917F010E9459259A
:101950001F928F931F930F930E94D20787E891E005
:101960000E94390721968DB79EB708960FB6F89456
:101970009EBF0FBE8DBFC430D105D9F6DF91CF9188
:101980001F910F91FF90EF90DF90CF900895CF932C
:10199000DF93AEE4B1E042E551E061E070E08D91AB
:1019A000E82FE295EF70F0E021A18F70EB0102C00B
:1019B000CC0FDD1F8A95E2F7CE019C2F90959223E4
:1019C00091A392A1892B82A34A175B0741F7AAE44E
:1019D000B1E041E050E08D91E82FE295EF70F0E04A
:1019E00021A18F70BA0102C0660F771F8A95E2F7B6
:1019F000CB01962F9095922391A392A1892B82A33C
:101A000071E0AE34B70739F7109298011092940143
:101A1000109299011092950110929A0110929601DC
:101A200010929B011092970184E00E94A90DDF9112
:101A3000CF910C9406095F926F927F928F929F9242
:101A4000AF92BF92CF92DF92EF92FF920F931F93CC
:101A5000CF93DF936EE471E0A8E9B1E02CE9A22E08
:101A600021E0B22E612C01E010E06D015C901C922F
:101A7000EB018991BE01E82FE295EF70F0E021A122
:101A80008F70A80102C0440F551F8A95E2F7CA0162
:101A9000242B21A322A1942E9094292122A350EA41
:101AA0005A95F1F79AE4E92E91E0F92E40E050E0E2
:101AB000E70189907E01282D22952F7030E0E90101
:101AC00028A17C9030E0D82DDF7002C03595279595
:101AD000DA95E2F720FD08C0302F042E01C0330F45
:101AE0000A94EAF7232F01C020E027292C934F5FA7
:101AF0005F4F44305105E1F691A1992291A292A144
:101B0000892B82A3119681E0F6019081951101C085
:101B100080E0682AAA16BB0609F0A7CF262D44E06C
:101B200064E971E088E991E00E94AA0D0E94100921
:101B3000862DDF91CF911F910F91FF90EF90DF9055
:101B4000CF90BF90AF909F908F907F906F905F905D
:101B500008950895FF920F931F93CF93DF938C0105
:101B6000F62ED72FC42F222349F081E080939E01C7
:101B70000E94F32690939D0180939C0180919E0189
:101B80008823C1F080919C0190919D010E940B27B8
:101B9000069780F0EF2DFD2FD8014C2F50E0CD019E
:101BA000801B910B841795071CF48D918193F7CFBF
:101BB00010929E01DF91CF911F910F91FF90089598
:101BC000EF92FF920F931F93CF93DF93F62E472F41
:101BD000E82FF0E0711106C0E152FA4F6491762FC0
:101BE000862F72C0272F30E0E152FA4FE4910E2F7A
:101BF00010E056E0659FC0011124CFEFD0E0BE0198
:101C00000E9440325BEA5603C001579F900D112499
:101C10008F0D911D8F0D911D982F990F890F7E01AA
:101C2000E21AF30AE09ED001E19EB00DF09EB00DE5
:101C30001124489FA0011124452F55277E01E41A45
:101C4000F50AE09EA001E19E500DF09E500D11247A
:101C50007E01E81AF108E29EC001E39E900DF29E1B
:101C6000900D1124892F9927C81BD90BC09FC00143
:101C7000C19F900DD09F900D11246230710591F09D
:101C800048F461157105E1F061307105A9F48B2FFD
:101C9000752F19C06430710561F038F06630710538
:101CA00079F00AC0892F7B2F0EC08E2F7B2FE52F56
:101CB0000AC08E2F792F02C0852F7E2FEB2F03C0F5
:101CC0008B2F7E2FE92F6E2FDF91CF911F910F91D8
:101CD000FF90EF9008950895CF93DF93762FE90159
:101CE000682F842F0E94E00D798368838A83DF91B7
:101CF000CF91089580912D02282F269530E021154F
:101D0000310519F48170826005C02831310524F055
:101D100081708E6280932D02089588E090E00C948B
:101D20008332CF92DF92EF92FF926B017C010E948F
:101D30007A0EB701A60188E090E0FF90EF90DF9067
:101D4000CF900C94A132EDE2F2E083E08083118227
:101D50008FEF82838383148260817181828193817A
:101D60000C94910E80911A0280FF08C086EB94E0DB
:101D70009F938F930E94D2070F900F9080911A0229
:101D800080FF0FC080912D0281701F928F9389E98F
:101D900094E09F938F930E94D2070F900F900F9023
:101DA0000F9080911A0280FF0FC080912D028695BE
:101DB0001F928F938EE794E09F938F930E94D20798
:101DC0000F900F900F900F9080911A0280FF0EC01D
:101DD00080912E021F928F9384E694E09F938F93BD
:101DE0000E94D2070F900F900F900F9080911A02CF
:101DF00080FF0EC080912F021F928F938AE494E09F
:101E00009F938F930E94D2070F900F900F900F9087
:101E100080911A0280FF0EC0809130021F928F9332
:101E200080E394E09F938F930E94D2070F900F90CE
:101E30000F900F9080911A0280FF0EC080913102A6
:101E40001F928F9384E194E09F938F930E94D20717
:101E50000F900F900F900F90089580912D0280FFAA
:101E600002C08695089580E0089580913102833004
:101E700018F48F5F8093310260912D0270912E02D1
:101E800080912F02909130020C94910E809131023A
:101E9000882319F081508093310260912D02709156
:101EA0002E0280912F02909130020C94910E60913D
:101EB0003A0170E080912D0280FF0AC08091A2015A
:101EC00023E0829FC00111248E5C9D4F0C9442162A
:101ED0008091A10190913901891780F7E82FF0E0F6
:101EE0009F01220F331FE20FF31FEE5CFD4F1182A3
:101EF000108212828F5FF0CF90912D0290FF16C05A
:101F00009091A10120913901921770F4E92FF0E02E
:101F1000DF01AA0FBB1FEA0FFB1FEE5CFD4F8183A1
:101F2000608342839F5FF0CF0C94570F0895CF9347
:101F3000DF9300D01F92CDB7DEB790912D0290FFB6
:101F40000AC09E012F5F3F4F0E946C0E4B8169813A
:101F50008A810E947C0F0F900F900F90DF91CF919C
:101F60000895CF93DF93EC01EC81F0E0E152FB4F59
:101F70004491EDE2F2E0628181810E94970F8C81B1
:101F80008F5F8C83DF91CF910895CF93DF93EC0126
:101F9000EDE2F2E0438162818C810E94970F8C8197
:101FA0008F5F8C83DF91CF910895EF92FF920F9313
:101FB0001F93CF93DF9300D01F92CDB7DEB7182FBA
:101FC000F62E042FE22E80912D0280FF5DC0E82FB7
:101FD000E695F0E0EE5AFE4F90819093AA018E7F35
:101FE000823061F49E012F5F3F4F812F0E946C0E63
:101FF0004B8169818A810E947C0F0CC0923019F458
:102000000091300207C0963019F410912E0202C0E0
:102010009930D9F310932E02F0922F0200933002E0
:10202000EE20E9F060912D0270912E0280912F0236
:10203000909130020E94910E80911A0280FF24C07C
:10204000809130021F928F9380912F021F928F9365
:1020500080912E021F928F938EEF91E00CC08091A1
:102060001A0280FF11C01F920F931F92FF921F92BE
:102070001F9387ED91E09F938F930E94D2070FB635
:10208000F894DEBF0FBECDBF0F900F900F90DF9181
:10209000CF911F910F91FF90EF900895EDE2F2E044
:1020A0009181282F4381628188E0890F0C94D50F9C
:1020B00081E00C944E10EDE2F2E09181282F4381F3
:1020C000628188EF890F0C94D50F81E00C945B102E
:1020D000EDE2F2E0628128E0620F08F46FEF282F52
:1020E000438181810C94D50F81E00C946810EDE25E
:1020F000F2E0628128E0621B08F460E0282F43814F
:1021000081810C94D50F81E00C947710EDE2F2E020
:10211000438128E0420F08F44FEF282F628181812C
:102120000C94D50F81E00C948610EDE2F2E043812F
:1021300028E0421B08F440E0282F628181810C9442
:10214000D50F81E00C94951020E00C94D50FFF92F0
:102150000F931F93CF93DF93EC01F12C0FEF10E05F
:1021600060913801F616F0F48091A1012F2D30E036
:10217000280F311DC901880F991F280F391F2E5CA8
:102180003D4F70E0C8010E945432962F8C814091DF
:10219000300260912F02F99E800D11240E946C0E76
:1021A000F394DECF0E94570F9A818C8190FF02C07A
:1021B0008F5F01C081508C83DF91CF911F910F9170
:1021C000FF900895AF92BF92CF92DF92EF92FF926D
:1021D0000F931F93CF93DF93FC01828180FF02C096
:1021E0000FEF01C001E010E04BE0A42E8091380118
:1021F000181708F043C08091A101C12ED12CE6012F
:10220000C80FD11DCE01880F991FC80FD91FCE5CF2
:10221000DD4F198218821A8234E0E32EF12CB12CA2
:102220008091A0018B0D8C302CF06A2D0E943232EF
:10223000892F05C087FF03C090913801890F082EB0
:10224000000C990BC816D90691F4809130028E9D2E
:10225000A0018F9D500D1124559547955595479593
:102260009E0160912F0280912E020E946C0EB00E92
:10227000F1E0EF1AF108A1F61F5FB8CF0E94570FE7
:102280008091A001013031F4811102C080913801A8
:10229000815007C090E001966091380170E00E9483
:1022A00054328093A001DF91CF911F910F91FF9045
:1022B000EF90DF90CF90BF90AF900895CF93809133
:1022C000A10190913901891770F4E82FF0E09F0186
:1022D000220F331FE20FF31FEE5CFD4F11821082BD
:1022E00012828F5FF0CFC0E060913801C617C0F551
:1022F000EC2FF0E070E0CF010E9454322091A10158
:10230000820F20919F01022E000C330B90E0E21708
:10231000F307CCF020913701022E000C330B2E175F
:102320003F078CF09C01220F331F820F931F9C01EB
:102330002E5C3D4F4091300260912F0280912E0221
:102340000E946C0E0BC0FC01EE0FFF1F8E0F9F1F33
:10235000FC01EE5CFD4F118210821282CF5FC4CF70
:102360000E94570F2091360180919F01820F809328
:102370009F0190913701920F9093370119165CF4E9
:10238000082E000C990B4091380150E04150510942
:10239000841795071CF0219520933601CF9108955D
:1023A00060912D02669570E041E050E08BE391E092
:1023B0000E946E32892B19F481E08093AB010E9458
:1023C000F3269093A4018093A30180911A0280FFC9
:1023D00008C08EEB91E09F938F930E94D2070F90DD
:1023E0000F9008951092AB0180911A0280FF08C0EF
:1023F00085EA91E09F938F930E94D2070F900F90F0
:10240000089590912D0290FF54C09170811102C0E7
:10241000926006C0883110F09E6202C0880F982B2F
:1024200090932D026623B1F060912D0270912E02DF
:1024300080912F02909130020E94910E80911A0299
:1024400080FF1BC080912D0286951F928F938AE595
:1024500093E00BC080911A0280FF0FC080912D0283
:1024600086951F928F938CE393E09F938F930E94A6
:10247000D2070F900F900F900F9060912D026695EC
:1024800070E041E050E08BE391E00E946E32892BD6
:1024900019F00E94F21102C00E94D01181E08093D5
:1024A000A6014091300260912F0280912E020C947F
:1024B000A4100895682F90912D02969581E0890FC0
:1024C000883108F081E00C94011281E00C945A12DA
:1024D000682F90912D0296958FEF890F09F487E16F
:1024E0000C94011281E00C94681261E00C940112CA
:1024F00080912D02816080932D0280911A0280FFCD
:102500000DC01F9281E08F938EEC92E09F938F938A
:102510000E94D2070F900F900F900F9080912D0284
:1025200086950C94751260E00C9401128091A901BB
:10253000811160C080911A0280FF08C08DEF93E086
:102540009F938F930E94D2070F900F9080911A0251
:1025500080FF08C087EE93E09F938F930E94D2077D
:102560000F900F900E946B25811110C080911A026C
:1025700080FF08C08FEB93E09F938F930E94D20758
:102580000F900F900E940B260E94A30E0E948D0EAA
:1025900060932D0270932E0280932F02909330024D
:1025A0006E7FC1F480911A0280FF08C086E793E035
:1025B0009F938F930E94D2070F900F900E94A30EBB
:1025C0000E948D0E60932D0270932E0280932F0235
:1025D000909330020E947A0E0E94B20E1092AB01CC
:1025E00080912D0280FF03C086950E94931281E0A6
:1025F0008093A901089580912D02816080932D021E
:1026000080911A0280FF0DC01F9281E08F9385E9AF
:1026100092E09F938F930E94D2070F900F900F909C
:102620000F9080912D0286950C94931280912D022B
:102630008E7F80932D0260912D0270912E028091E9
:102640002F02909130020E94910E80911A0280FF19
:102650000FC080912D0281701F928F938DE592E0C3
:102660009F938F930E94D2070F900F900F900F901F
:102670000E94F2112FEF80E792E0215080409040BD
:10268000E1F700C000000C94570F80911A0280FF00
:1026900010C080912D02809581701F928F9385E0EC
:1026A00093E09F938F930E94D2070F900F900F900B
:1026B0000F9080912D0280FD0C9416130C947812CB
:1026C00080912D028E7F80932D0280911A0280FFCF
:1026D0000CC01F921F9283E292E09F938F930E94FF
:1026E000D2070F900F900F900F900E94F2112FEFD2
:1026F00080E792E0215080409040E1F700C0000068
:102700000C94570F0F931F93CF93DF938091AB01DE
:10271000882309F475C08091AA01E0912D02E69505
:10272000E81BE093A501823049F4F0E0E552FB4F4D
:10273000E491CE2FD0E001EB1FE032C0863049F4A7
:10274000F0E0E852FB4FE491CE2FD0E005EC1FE023
:1027500027C0893051F4E695F0E0EB52FB4FE4914D
:10276000CE2FD0E007EA10E11BC08F3051F4E69580
:10277000F0E0EE52FB4FE491CE2FD0E002EE10E1FC
:102780000FC0853149F4F0E0E153FB4FE491CE2FC7
:10279000D0E00EE511E104C0C0EDD7E00BE61EE08D
:1027A0008091A601882389F01092A6010E94F32649
:1027B0009E0120953095820F931F9093A4018093E2
:1027C000A3011092A8011092A7018091A3019091FA
:1027D000A4010E940B278C179D0790F0E091A301A4
:1027E000F091A401CE0FDF1FD093A401C093A301E9
:1027F00083EA91E0F801DF91CF911F910F91099445
:10280000DF91CF911F910F910895882311F0FA0164
:1028100001C0FB010994CF93DF93C82FD62F0E94EC
:102820002D0F8C1740F00E942D0F8D1720F4DF9193
:10283000CF910C9465128C2FDF91CF910C9475126F
:102840000F931F93CF93FB01C281CC2309F45BC08C
:102850008C010E94A0248272F801E25CFC45E43104
:10286000F10508F053C0EA5AFF4F0C9468320E94F9
:1028700045134BC042E752E165E672E104C045E60C
:1028800052E162E772E10E9405143FC045E650E163
:1028900068E570E1F8CF48E550E165E670E1F3CF17
:1028A00043E850E164E770E1EECF44E750E163E8CC
:1028B00070E1E9CF41EA50E162E970E1E4CF42E939
:1028C00050E161EA70E1DFCF46E45FE065E37FE07D
:1028D000DACF45E35FE066E47FE0D5CF81E00E9498
:1028E000751213C065E082E00BC068E086E008C0A6
:1028F0006EE089E005C064E18FE002C067E185E138
:102900000E940B1402C0C1E001C0C0E08C2FCF9127
:102910001F910F910895CF93DF93EC0181E0898B94
:102920008F810E94A32488850E94B6240E94F124EE
:10293000EA81FB81CE010696309729F06C897D896A
:10294000DF91CF910994DF91CF910895CF93DF93D9
:10295000FC012081223039F4FB01EC0182810E94CC
:10296000172381E08B87DF91CF910895DB01FC0174
:102970008081813021F48D919C910C949D0882304E
:1029800039F41396ED91FC91149712968C91099459
:102990000895FC018081813029F4FB0180819181BF
:1029A0000C94B3080895EF92FF920F931F93CF9367
:1029B000DF93FC012285211136C0EC01E380F48015
:1029C000F7E5FF1A26E12E9DC0012F9D900D1124E1
:1029D000DC01A050BF4F1496ED91FC9115978A5FD2
:1029E0009E4F309729F054966D917C91559709959B
:1029F00086E18E9D80018F9D100D112400501F4F88
:102A0000F80187810E94A924F80180850E94BC24D6
:102A10000E94F124188219861B861E821D82109244
:102A2000AD011092AC01DF91CF911F910F91FF90FA
:102A3000EF900895DF92EF92FF920F931F93CF9341
:102A4000DF93FB0122812223A1F120913C012F3F42
:102A500081F18C01C0E0D1E0E12CF12CDD24D39494
:102A600080913C01082E000C990B8E159F050CF1EE
:102A70008E818823C9F089859A858017910739F45A
:102A80008091AC019091AD010817190769F0DF86BC
:102A90001C870B878989811103C0CE010E948B148A
:102AA000CE0106960E94D314FFEFEF1AFF0A669636
:102AB000D7CFDF91CF911F910F91FF90EF90DF90D3
:102AC0000895EF92FF920F931F93CF93DF939C0192
:102AD00037552F3F310511F008F047C040913C01B8
:102AE000042E000C550B4217530714F420933C019D
:102AF000FB017C01828196E1929F8001939F100DE2
:102B00001124E801C050DF4F888B92818E81992378
:102B100011F1FA86E9868F5F8E830E94F3269E87E5
:102B20008D870E94D6248F830E94A02488870E94CC
:102B3000B3249885892B8887E881F981C8018A5F49
:102B40009E4F309719F06C897D890995F092AD01FF
:102B5000E092AC010AC0882341F08989882329F0DA
:102B6000C8018A5F9E4F0E94D31481E0DF91CF910C
:102B70001F910F91FF90EF900895CF92DF92EF9207
:102B8000FF920F931F93CF93DF9380913C018F3F70
:102B9000F1F1F12C96E1E92E0F2D10E080913C012E
:102BA000082E000C990B801791078CF1E09EF00124
:102BB000E19EF00D1124E050FF4FC288D388C1146C
:102BC000D10419F488ECC82ED12CE09EE001E19EDE
:102BD000D00D1124C050DF4F8E818823B1F08D8538
:102BE0009E850E940B27C816D90678F48989811121
:102BF00003C0CE010E948B14E09EC001E19E900DA7
:102C000011248A5F9E4F0E94D314F394C5CFDF91A5
:102C1000CF911F910F91FF90EF90DF90CF9008958B
:102C20002BB1342F309523233BB1432B3FB7F8947E
:102C3000FC01680F791FE617F70789F0819198E08A
:102C40004BB9000000C087FF2BB9880F000000C0FF
:102C500000C000C02BB900C09A9591F7ECCF3FBFE0
:102C600008952AB1242B2AB99B01220F331F620F2A
:102C7000731F0E94101687EC90E00197F1F700C0D7
:102C80000000089542E00C9431160C94DB07FF928B
:102C90000F931F93CF93DF93C2EBD1E04CE751E04A
:102CA0002AE731E061E070E0F1E0C43BDF0709F4BE
:102CB0004CC0FA010191AF01A02FA295AF70B0E016
:102CC0009196EC9191970F70CB01002E01C0880F67
:102CD0000A94EAF7982F90959E2391969C9391974A
:102CE00092969C919297892B92968C939297F90148
:102CF00011919F01E12FE295EF70F0E0F1A01F70BC
:102D0000CB01012E01C0880F0A94EAF7982F909505
:102D10009F2191A392A1892B82A390968C9190E000
:102D200002C0959587950A95E2F78170E0A1F0E0E1
:102D300002C0F595E7951A95E2F7E0FD02C090E034
:102D400001C092E0892B8993AFCFDF91CF911F9182
:102D50000F91FF9008955F926F927F928F929F9252
:102D6000AF92BF92CF92DF92EF92FF920F931F9399
:102D7000CF93DF9382EB682E81E0782E9CE7E92EDB
:102D800091E0F92E0AE711E020EB822E21E0922E4D
:102D9000CEEAD1E063015301512CD501ED915D01E3
:102DA0004E2F440F440FF60141936F01D7012D912F
:102DB0007D01E22FE295EF70F0E080A190E02F70AE
:102DC00002C0959587952A95E2F781709927F801B9
:102DD00051918F01E52FE295EF70F0E020A130E0F6
:102DE0005F7002C0359527955A95E2F7F901E170B9
:102DF000FF2720FF02C0E2E0F0E0E82BF92BE42BF4
:102E0000D301ED933D01EF70F0E0E659FE4F908164
:102E1000F4018081890F808384303CF088818F5F4A
:102E2000888361E0852D0E944516D4018C918D3FE9
:102E30003CF488818150888360E0852D0E9445168E
:102E4000F4018081837887FF03C081508C6F8F5F8E
:102E5000D4018D934D0153942196B2E05B129DCF26
:102E6000DF91CF911F910F91FF90EF90DF90CF9066
:102E7000BF90AF909F908F907F906F905F900895DC
:102E80000F931F93CF93DF93C62FD42F122FFC01E4
:102E900082818823C9F06093B6010E94F326909343
:102EA000B5018093B40180E28C0F883008F057C0E0
:102EB000C77081E001C0880FCA95EAF7DF91CF9112
:102EC0001F910F910C944E1C8091B601681330C075
:102ED0008091B4019091B5010E940B27883C910527
:102EE00038F500E20D0FCD17B9F080E28C0F883075
:102EF00040F4C77081E001C0880FCA95EAF70E94CC
:102F0000551C083028F581E09D2F977001C0880F6F
:102F10009A95EAF70E944E1C812F0E943B1C0830B4
:102F2000F0F4D77081E001C0880FDA95EAF70AC0A3
:102F300080E28C0F883098F4C77081E001C0880F60
:102F4000CA95EAF7DF91CF911F910F910C94551C10
:102F5000812FDF91CF911F910F910C943B1CDF913A
:102F6000CF911F910F9108959C01CB01233F4CE518
:102F70003407F9F078F4283DFCE53F07B9F0293D26
:102F80004CE5340711F1273D3C4531F526E241EE91
:102F900061EE1EC0253FFCE53F0799F070F0263F2B
:102FA0003C45D1F427E245EE66EE12C027E245EE3D
:102FB0000EC026E241EE60EE0BC027E245EE64EE65
:102FC00007C026E241EE62EE03C028E241E065EE72
:102FD0000E94401780E00895FC018281882319F047
:102FE0001092B601089581E00895CF93DF93EC012C
:102FF000FB018281882309F41FC1C230FCE5DF0791
:1030000008F41BC1C6319CE5D90738F09E012A5F40
:103010003C452930310508F010C10E947E2590936F
:10302000580280935702C031ECE5DE0709F4C3C0B3
:1030300008F041C0C8308CE5D80709F49AC0F0F414
:10304000C430ECE5DE0709F487C068F4C2308CE5D3
:10305000D80709F477C0C330DC4509F0E3C080919C
:103060005702826076C0C630ECE5DE0709F46EC018
:1030700008F07BC08091570288606BC0CC308CE533
:10308000D80709F485C068F4CA30ECE5DE0709F416
:1030900074C008F079C00E94BF1E809157028068FA
:1030A00058C0CE308CE5D80709F476C008F07FC050
:1030B000809157028BC0CB3FECE5DE0709F44FC08F
:1030C00018F5C3318CE5D80709F47DC078F4C13117
:1030D000ECE5DE0709F473C0C231DC4509F0A2C09B
:1030E0000E94BF1E809157028F7733C0C5318CE597
:1030F000D80709F472C008F486C0CA3FDC4509F05D
:1031000091C0809158023EC0CF3FFCE5DF0709F433
:103110005FC058F4CD3F9CE5D90709F444C008F4DA
:103120003FC08091580282602DC0C130FDE5DF07AD
:1031300009F475C008F45DC0C230DD4509F072C005
:1031400080E06EC080915702816003C08091570279
:1031500080618093570266C08091570211C08091B0
:1031600058028260809358025DC08091570280624D
:10317000F0CF809157028064ECCF80915702886035
:103180008460E7CF8160EECF809157028E7FE1CFE0
:10319000809157028D7FDDCF80915702877FD9CFF5
:1031A0008091580218C0809158028D7FDBCF8091AA
:1031B00057028F7ECECF809157028F7DCACF8091EC
:1031C00057028F7BC6CF80915702877F8B7FC1CFFD
:1031D000809158028D7F8E7FC5CF8091570282FBF0
:1031E000222720F991E0922790FB82F990FB83F946
:1031F000B0CF80915802982F909591708E7F892B37
:1032000090FB81F9AFCF0E94BF1E8091570287FBD0
:10321000222720F991E0922790FB87F99ACF81E04D
:103220000E940D2680915702909158020E948F258E
:103230000E94BF1E80E001C081E0DF91CF91089520
:103240009093BC018093BB010895E091BB01F09184
:10325000BC01309721F00190F081E02D099480E0CD
:103260000895EF92FF920F931F93CF93DF93E09116
:10327000BB01F091BC013097B1F18C010280F38168
:10328000E02D099580911A0282FF2DC080FF04C0B5
:1032900087EE96E00E943907E80118E081EEE82EFB
:1032A00086E0F82E80911A0280FF0BC088811F9261
:1032B0008F93FF92EF920E94D2070F900F900F9082
:1032C0000F90115021961111EDCF80911A0280FFBD
:1032D0000AC08FED96E0DF91CF911F910F91FF9083
:1032E000EF900C943907DF91CF911F910F91FF90D0
:1032F000EF9008952091B9013091BA01281739074C
:1033000071F09093BA018093B901E091BB01F09103
:10331000BC01309721F00680F781E02D09940895D3
:103320002091B7013091B8012817390771F09093B7
:10333000B8018093B701E091BB01F091BC013097D7
:1033400021F00084F185E02D0994089585B7806807
:1033500085BF85B7806885BF089508950C94AD1921
:103360000C94AE190C94AD190C94AD190E94A619C9
:103370000E94B2190C94B01981E008950E94EA26C7
:103380000E94C70C0E946C270E9496120C94B419DC
:10339000CF93C82F80911A0282FF1EC080FF04C005
:1033A00080E097E00E94390780911A0280FF0CC0EC
:1033B0001F92CF938BEF96E09F938F930E94D2073B
:1033C0000F900F900F900F9080911A0280FF04C011
:1033D00089EF96E00E9439078C2FCF910C941C093D
:1033E000AF92BF92CF92DF92EF92FF920F931F9313
:1033F000CF93DF93CDB7DEB72A970FB6F894DEBF31
:103400000FBECDBF0E941B0D0E94BC19811111C0BF
:103410008FEF89838A831B820E94F3268160782F35
:103420009D838C8349815A816B818D810E94861A8C
:1034300040C08EEBA82E81E0B82E00E010E0C02E38
:10344000802F0E947B0CE82EF501D1905F01D826D9
:1034500031F40F5F1F4F0430110589F7D9CF8091E8
:103460001A0281FD0E94810C80E0FF24F3949D2DBF
:103470009F21D1F08E83CF82EF2081E009F480E09C
:1034800088870E94F3268160782F9A8789874E81EA
:103490005F8168858A850E94861AF801E254FE4F92
:1034A0008081F826F08205C08F5FFF0C8430F9F62A
:1034B000D0CF0E9425199091BD018917B1F00E94CB
:1034C00025198093BD012A960FB6F894DEBF0FBE72
:1034D000CDBFDF91CF911F910F91FF90EF90DF90C3
:1034E000CF90BF90AF900C94C8192A960FB6F8945D
:1034F000DEBF0FBECDBFDF91CF911F910F91FF9027
:10350000EF90DF90CF90BF90AF900895CF93DF936F
:10351000CDB7DEB72B970FB6F894DEBF0FBECDBF89
:103520004F83588769877A878B87DE01119686E0FB
:10353000FD0111928A95E9F785E0FE013796019029
:103540000D928A95E1F749815A816B817C818D8149
:103550009E810E948F212B960FB6F894DEBF0FBE7E
:10356000CDBFDF91CF910895FC01808191810E94B0
:1035700061240895CF93882309F41CC1C82F823891
:10358000C1F40E94251981FD15C169E380913D01B7
:1035900090913E010E9445260E94F1242FEF81EE7A
:1035A00094E0215080409040E1F700C0000069E3C2
:1035B00019C0833801F50E94251980FDFBC063E521
:1035C00080913D0190913E010E9445260E94F12488
:1035D0002FEF81EE94E0215080409040E1F700C051
:1035E000000063E580913D0190913E010E944726D5
:1035F000CF910C94F1248438C1F40E94251982FDE6
:10360000D9C067E480913D0190913E010E9445261A
:103610000E94F1242FEF81EE94E0215080409040F1
:10362000E1F700C0000067E4DDCF8CEF8C0F813A3A
:1036300068F48C2F0E94312A8111BCC06C2F8091BC
:103640003D0190913E010E944526D2CF80E28C0F31
:10365000883048F4C77081E001C0880FCA95EAF746
:103660000E94A324C5CF8BE58C0F833078F4C53A34
:1036700029F0C63A31F083E890E005C081E890E097
:1036800002C082E890E0CF910C947A1988E58C0F03
:10369000873108F08FC0C83A09F445C0C93A09F427
:1036A00045C0CA3A09F445C0CB3A09F445C0CC3A02
:1036B00009F445C0CB3B09F445C0CC3B09F445C0F7
:1036C000CD3A09F445C0C03B09F445C0CE3A09F4EF
:1036D00045C0CF3A09F445C0C13B09F445C0C23BDF
:1036E00009F445C0C33B09F445C0C43B09F445C0D7
:1036F000C53B09F445C0C63B09F445C0C73B09F4C6
:1037000045C0C83B09F445C0C93B09F445C0CD3BA1
:1037100009F445C0CE3B09F445C0CA3B09F445C095
:1037200080E090E044C082EE90E041C089EE90E0FD
:103730003EC08AEE90E03BC085EB90E038C086EB5F
:1037400090E035C083EB90E032C084EB90E02FC076
:1037500087EB90E02CC08CEC90E029C08DEC90E0E1
:1037600026C083E891E023C08AE891E020C082E986
:1037700091E01DC084E991E01AC081E292E017C097
:1037800083E292E014C084E292E011C085E292E00C
:103790000EC086E292E00BC087E292E008C08FE69E
:1037A00090E005C080E790E002C08AE292E0CF910D
:1037B0000C949019CF910895882309F45BC0682F69
:1037C000823879F40E94251981FF54C069E3809101
:1037D0003D0190913E010E9445260E94F12469E33B
:1037E00010C08338B1F40E94251980FF43C063E5FF
:1037F00080913D0190913E010E9445260E94F12456
:1038000063E580913D0190913E010E9447260C9412
:10381000F124843879F40E94251982FF2BC067E4D3
:1038200080913D0190913E010E9445260E94F12425
:1038300067E4E7CF8CEF860F813A18F380E2860FBA
:10384000883048F4677081E001C0880F6A95EAF714
:103850000E94A924DCCF8BE5860F833020F480E022
:1038600090E00C947A19685A673120F480E090E077
:103870000C9490190895CF93C82F0E94BA1AC93397
:1038800049F42FEF87EE93E0215080409040E1F71C
:1038900000C000008C2FCF910C94DC1B882321F0FA
:1038A0000E94A3240C94F1240895882321F00E94FF
:1038B000A9240C94F1240895CF92DF92EF92FF9205
:1038C0000F931F93CF93DF937C01062FC72FFC012B
:1038D000158112951F70D281D1110E94C3240E94BC
:1038E0009924882379F0DD2369F080E2800F883005
:1038F00048F082E00E943B250E94992491E0D82E56
:10390000D92601C0D12CCC2EC2948FE0C8228C2D98
:1039100090E0FC01E659FF4F0C9468328C2F807FB9
:10392000CF70882311F0C295C07FDD2399F0CC239E
:1039300009F482C180E2800F883010F0011104C0C8
:103940008C2F0E94A32403C08C2F0E94B6240E94B7
:10395000F12472C1802F0E94DC1BCC2309F491C199
:1039600080E2800F883010F0011104C08C2F0E947B
:10397000A92403C08C2F0E94BC240E94F12481C181
:103980008C2F807FCF70803211F0C295C07F0023D2
:1039900019F00130C9F022C0DD2371F0112341F08C
:1039A000113031F40E94D6248C2B0E94DE2469C190
:1039B0000E94D6248C2B1DC0112319F0113009F45C
:1039C00060C10E94E72425C0DD2321F0163008F0F5
:1039D00058C10EC0153008F054C11BC0DD2361F082
:1039E000112331F0F701858180FF26C18F70858317
:1039F0008C2F0E944E1C45C1112359F0093309F048
:103A00002CC1FFEF27EE83E0F15020408040E1F72A
:103A100022C18C2F0E94551C34C18C2F869586950F
:103A2000837019F0813061F02CC1DD2321F0802FEB
:103A30009C2F937002C080E090E00E947A1929C107
:103A4000DD2321F0802F9C2F937002C080E090E056
:103A50000E9490191EC18C2F837009F045C0D111AE
:103A600014C1402F429546954770440F440F602F74
:103A70006F70862F90E0A0E0B0E0042E04C0880FA5
:103A8000991FAA1FBB1F0A94D2F704FF10C00FE0B2
:103A900010E020E030E004C0000F111F221F331F90
:103AA0004A95D2F7009510952095309503C000E017
:103AB00010E09801C695C695C370BC01CD01602B7E
:103AC000712B822B932BC23049F058F4C13019F07E
:103AD0000E94E022DAC00E94CE22D7C00E94F222C9
:103AE000D4C00E94CC22D1C0DD2319F08C2F81706C
:103AF00001C08695882309F4C8C0402F4295469599
:103B00004770440F440F602F6F70862F90E0A0E045
:103B1000B0E0042E04C0880F991FAA1FBB1F0A948F
:103B2000D2F704FF10C00FE010E020E030E004C046
:103B3000000F111F221F331F4A95D2F700951095D1
:103B40002095309503C000E010E09801C695C69519
:103B5000C370BC01CD01602B712B822B932BC23023
:103B600049F058F4C13019F00E94A5238EC00E947C
:103B700093238BC00E94B72388C00E94062385C070
:103B8000CF70DD2339F08C2F0E942C23802F0E94D0
:103B90004E1C7BC0802F0E94551C8C2F0E944D23F1
:103BA00074C0023F01F128F4003F41F0013FA1F051
:103BB0003FC0033FF9F0043F39F13AC0DD2341F043
:103BC000153008F05EC08C2F8F710E94722359C08F
:103BD000163008F056C0F7CFDD2339F08C2F8F71E7
:103BE0000E942C234EC0DD23C9F38C2F8F710E94BD
:103BF0004D2347C0DD2329F08C2F8F710E9417239E
:103C000040C00E9412233DC0DD2349F0CF718C2FAC
:103C10000E942C2363E08C2F0E94262532C081E075
:103C20000E943B25123068F182E00E943B2529C0AA
:103C3000DD2331F0112391F2802F0E94BA1A21C0A6
:103C4000112399F2093349F49FEFE7EEF3E0915025
:103C5000E040F040E1F700C00000802F0E94DC1B34
:103C600010C04C2F4F70602FC7010E94CC090E94DA
:103C70003D220FC04C2F4F70602FC7010E94CF090B
:103C800008C088EF8C0D843020F40E9425190E9412
:103C90001C09DD20C9F00E94952480FD15C0F701A4
:103CA00012820E948F240E942C23C7010E946D1E45
:103CB0000E948F24DF91CF911F910F91FF90EF9081
:103CC000DF90CF900C944D23DF91CF911F910F91F6
:103CD000FF90EF90DF90CF9008950F931F93CF93B5
:103CE000DF93EC01988189812B813C81232B31F07A
:103CF0008F3F31F481E09F3F19F403C081E001C0A0
:103D000080E080FD13C0CE010E943B09882371F042
:103D1000688179818A810E946C248C010E94C92368
:103D20000E94BA22B801CE010E945C1CDF91CF91A3
:103D30001F910F910895882321F00E94B6240C94BE
:103D4000F1240895882321F00E94BC240C94F124CE
:103D500008950E94C3240E94D3240E94F12480E08D
:103D600090E00E947A1980E090E00C949019809184
:103D70003D0190913E010E9449260C94A91E0E948B
:103D8000B0240C94B71EE92FE295EF704E2F50E04F
:103D9000FA013297EE30F105B0F4E658FF4F0C947B
:103DA0006832803F91F018F4883E68F40EC0843F7A
:103DB00051F40BC0883E48F0813F29F406C093FBC4
:103DC000882780F9089580E0089581E008950E9491
:103DD00061240E94C31E0895CF93DF9300D000D0CA
:103DE0001F92CDB7DEB70F900F900F900F900F90EE
:103DF000DF91CF910895CF93DF9300D000D000D012
:103E0000CDB7DEB726960FB6F894DEBF0FBECDBF96
:103E1000DF91CF9108951F93CF93DF93C091C3019A
:103E200016E08091C401C81799F0D0E01C9FF00102
:103E30001D9FF00D1124EB53FE4F40815181628193
:103E40007381848195810E94FB1E2196C770E9CF02
:103E5000DF91CF911F9108954091F5015091F601A6
:103E60006091F7017091F8018091F9019091FA0148
:103E70000C94FB1ECF938091FA0182958F7009F00C
:103E80005FC08091F701882309F45AC08091C30173
:103E9000B091C4017091F501A091F6014091F80133
:103EA0005091F90191E07F3F09F090E0692FC6E061
:103EB0008B1709F445C04115510521F0AF3F21F0A2
:103EC00020E003C021E001C0262F90E020FD35C096
:103ED000C89FF001C99FF00D1124EB53FE4F2181C3
:103EE0002A132BC02081271328C02281211125C02D
:103EF000238134812417350710F421503109241B04
:103F0000350B283C3105C8F42091FA012F7020614F
:103F10002093FA0126E0289FF001299FF00D11243B
:103F2000E653FE4F80818F708061808385EF91E042
:103F30000E946D1ECF910C940B1F01968770B8CF15
:103F4000CF910895AF92BF92CF92DF92EF92FF92FE
:103F50000F931F93CF93DF93CDB7DEB761970FB663
:103F6000F894DEBF0FBECDBF8C0185E0F801DE0105
:103F70001D9601900D928A95E1F7D8014C9111960A
:103F80005C9111971296EC903091F5016091F601D9
:103F90008091F8019091F901009731F06F3F31F471
:103FA00021E03F3F19F403C021E001C020E0B22F1F
:103FB000B170BB2E20FD60C1F801C380D480A090F9
:103FC000F701AA2009F4EEC02091FA01C816D9061B
:103FD00028F0D601A81BB90BCD0104C0809590959F
:103FE0008C0D9D1DFF24F394883C910580F0F12CED
:103FF000207F09F09CC07C2DD98AC88A6E2D8989C2
:104000000E94EC1E85EF91E00E946D1E2DC1822F53
:10401000807F09F054C0561314C0431312C0FE2C05
:10402000E1100FC02F7020612093FA010E942C1F15
:1040300085EF91E00E946D1E8091FA01F801858361
:104040005CC1CD2831F05F3F31F481E04F3F19F47E
:1040500003C081E001C080E080FD03C081E08E25C7
:1040600002C080E090E0F82FF170FF2E80FF1CC0AE
:104070008091C3012091C40136E0821709F41AC16E
:1040800090E0389FF001399FF00D1124EB53FE4F63
:104090006181561306C06081461303C06281E61237
:1040A00003C001968770E9CFFE2CEE2009F425C1EC
:1040B0008091FA0181608093FA01F12C1EC15613A0
:1040C00009C0431307C0E11005C08091FA01F8014F
:1040D0008583A4C04D875E878D859E850E94E71EDF
:1040E000882379F1EE2069F12091FA01822F8295DF
:1040F0008F7090E0029774F08091F5019091F60135
:1041000098878F831986DB86CA862C87CE0107960F
:104110000E946D1E86E0F801A5EFB1E001900D92BE
:104120008A95E1F70E943A1F0E942C1F0DC0561776
:1041300071F04D875E878D859E850E94E71E8111F7
:104140001AC0C8010E946D1EFF24F394D6C0431309
:10415000F0CFE110EECF8091FA01F8018583C8011C
:104160000E946D1E86E0E5EFF1E0DF011D928A9569
:10417000E9F7FA2CC2C0EE2021F32091FA01822F38
:1041800082958F7090E002972CF28091F5019091CA
:10419000F6019A8389831B82DD82CC822E83CE0135
:1041A0000196B6CFC816D90628F0F601E81BF90B20
:1041B000CF0104C0809590958C0D9D1D883C910584
:1041C00048F0F12C7C2DD98AC88A6E2D89890E94ED
:1041D000EC1E4AC0FE2CEE2009F4B3CF561333C0B8
:1041E000431331C02091FA0120FD24C0822F829513
:1041F0008F70482F50E041155105E1F0D801159618
:104200002C9315974F30510549F08F5F982F929559
:10421000907F822F8F70892B15968C93C8010E94F6
:104220006D1E86E0F801A5EFB1E001900D928A9530
:10423000E1F73DC086E0F801A5EFB1E001900D92F5
:104240008A95E1F75AC04D875E878D859E850E94CD
:10425000E71E81115FCF8091FA0181608093FA019E
:10426000C8010E946D1E49C0E5EFF1E086E0DF0164
:104270001D928A95E9F71BC0EE2009F462CF4D87A5
:104280005E878D859E850E94E71EF82E882309F49F
:1042900058CF86E0F801A5EFB1E001900D928A9524
:1042A000E1F785EF91E00E94B41A0E943A1F0E9444
:1042B0002C1F23C04D875E878D859E850E946124BB
:1042C000292F22952F70223028F49F7039F0811108
:1042D00005C00BC0243028F49F7049F4805E8830FC
:1042E00020F0C8010E946D1EBF2CFB2C06C0D80117
:1042F00015969C91907F91F7F8CF8F2D61960FB610
:10430000F894DEBF0FBECDBFDF91CF911F910F910B
:10431000FF90EF90DF90CF90BF90AF9008951F93E4
:10432000CF93DF93CDB7DEB72C970FB6F894DEBFEF
:104330000FBECDBF4F83588769877A878B879C874D
:10434000CE0107960E94A21F8823D1F09F81888505
:104350002A853B85232B31F08F3F31F481E09F3F4D
:1043600019F403C081E001C080E080FD47C04F81A7
:10437000588569857A858B859C850E94FB1E3EC089
:1043800086E0FE013796DE01119601900D928A9526
:10439000E1F7FF81E8856A857B856115710531F05C
:1043A000EF3F31F481E0FF3F19F403C081E001C029
:1043B00080E080FD23C02091C40130E0C901019656
:1043C000877099274091C30150E084179507F1F158
:1043D000F983EA837D836C8396E0929FD001939F5B
:1043E000B00D1124AB53BE4FFE01319601900D92DA
:1043F0009A95E1F78093C4010E940B1F16E080910B
:10440000C3019091C401891771F1189FC001112453
:104410008B539E4F0E94A21F882329F1E091C30174
:104420001E9FF0011124EB53FE4F408151816281A8
:104430007381848195810E94FB1E8091C30190E06D
:104440000196877099278093C301D9CF0E94BF1E20
:104450001092C4011092C301E5EFF1E086E0DF01A4
:104460001D928A95E9F72C960FB6F894DEBF0FBE21
:10447000CDBFDF91CF911F910895EF92FF920F93DF
:104480001F93CF93DF938C01892B09F46CC0F12C1F
:10449000EE24E394E8012196F8018491843740F4F6
:1044A000843008F051C0813081F0823019F15BC056
:1044B000853709F444C0A8F19CE7980F903708F0BD
:1044C00052C08F770E94DC1B41C00E5F1F4FFE0160
:1044D000849190E2980F983050F48770FE2D01C0BF
:1044E000FF0F8A95EAF78F2F0E94C62414C00E94FE
:1044F000BA1A2DC00E5F1F4FFE01849190E2980FF3
:10450000983060F48770FE2D01C0FF0F8A95EAF79E
:104510008F2F0E94CC240E94F12419C00E94DC1B22
:1045200016C00E5F1F4FFE01C491CC2381F08FE9AE
:104530009FE00197F1F700C00000C150F6CF0E5F79
:104540001F4FFE01F49003C00E94BA1A8E018F2DF6
:10455000882309F49FCFEFE9FFE03197F1F700C01E
:1045600000008150F5CFDF91CF911F910F91FF9007
:10457000EF900895089508950C94BB220C94BC22EA
:104580000E94BE226093090270930A0280930B027C
:1045900090930C020C94A91E0C94C0220F931F93AD
:1045A0000091090210910A0220910B0230910C0235
:1045B000602B712B822B932B1F910F910C94C02297
:1045C0000F931F930091090210910A0220910B0290
:1045D00030910C0260237123822393231F910F914A
:1045E0000C94C0220F931F930091090210910A02AC
:1045F00020910B0230910C026027712782279327AC
:104600001F910F910C94C0220C94BB220E94042392
:10461000609305027093060280930702909308024C
:104620000C94A91E60E070E0CB010C9406230F935C
:104630001F9341E050E060E070E08A019B0104C0FC
:10464000000F111F221F331F8A95D2F7C901B8012D
:104650001F910F910C9406230F931F9341E050E09C
:1046600060E070E004C0440F551F661F771F8A95F5
:10467000D2F78091050290910602A0910702B091B5
:1046800008028A019B01082B192B2A2B3B2BC901FD
:10469000B8011F910F910C9406230F931F9341E0D3
:1046A00050E060E070E004C0440F551F661F771FA4
:1046B0008A95D2F740955095609570958091050246
:1046C00090910602A0910702B09108028A019B0115
:1046D000082319232A233B23C901B8011F910F91F5
:1046E0000C9406230F931F9341E050E060E070E0CC
:1046F00004C0440F551F661F771F8A95D2F780911B
:10470000050290910602A0910702B09108028A0169
:104710009B01082719272A273B27C901B8011F91A8
:104720000F910C9406230F931F9300910502109193
:1047300006022091070230910802602B712B822B18
:10474000932B1F910F910C9406230F931F930091AD
:1047500005021091060220910702309108026023A1
:104760007123822393231F910F910C9406230F939F
:104770001F930091050210910602209107023091CB
:10478000080260277127822793271F910F910C94AD
:1047900006230895990F990F890FE82FE695E6955E
:1047A000E695877051E001C0550F8A95EAF785E0DC
:1047B000E89FF0011124E550FE4F20E030E070E06A
:1047C0004081CB01022E02C0969587950A94E2F7AC
:1047D0008170819584278523842781932F5F3F4FA4
:1047E0002530310569F70895990F990F890F682FC2
:1047F000669566956695982F977085E0689FB001DD
:10480000112440E050E080E0FB01E40FF51FE5508B
:10481000FE4F208130E0092E02C0369527950A947C
:10482000E2F721703327042E01C0220F0A94EAF721
:10483000822B4F5F5F4F4530510531F70895BF928E
:10484000CF92DF92EF92FF920F931F93CF93DF935C
:104850008C01C0900502D0900602E0900702F09013
:1048600008028091090290910A02A0910B02B09176
:104870000C02C82AD92AEA2AFB2ACFE1D0E0D701C4
:10488000C6010C2E04C0B695A795979587950A94F6
:10489000D2F780FD04C0219790F7B12C07C0BC2E41
:1048A000B8018C2F0E94EC090197A9F38B2DDF91A1
:1048B000CF911F910F91FF90EF90DF90CF90BF901D
:1048C0000895CF93DF93EC010E941F24BE010E9444
:1048D000EC09DF91CF9108951F93CF93DF93EB0104
:1048E0009091C201992321F0CB010E94612413C051
:1048F000882349F0CB010E941F24182F682FCE0176
:104900000E94CA2304C0CB010E94F423182FBE01C9
:10491000812F0E94EC09DF91CF911F910895809122
:104920000D02859585958595089580910D02877076
:10493000089590910D02977081E009F480E0089548
:1049400080911902089590911902892B8093190280
:1049500008958095909119028923809319020895F2
:1049600010921902089580911802089590911802EA
:10497000892B8093180208958095909118028923BD
:1049800080931802089510921802089590911702CA
:10499000892B80931702089580959091170289239F
:1049A00080931702089510921702089580910E02C5
:1049B000089508950C94D9240C94DA2490910E0251
:1049C000981721F080930E020C94DC2408958091B6
:1049D0000E02882329F010920E0280E00C94DC2451
:1049E0000895E0913D01F0913E018091190280838C
:1049F000E0913D01F0913E01908180911802892B58
:104A00008083E0913D01F0913E01908180911702F9
:104A1000892B808380910E02882381F0E0913D01F3
:104A2000F0913E019081892B808380913D0190918E
:104A30003E010E94122681110E94E72480913D01CF
:104A400090913E010C9431190C94D92498E0899FDF
:104A500090011124262B20930D020E942C2380917B
:104A60000D028595859585950C94242510920D024F
:104A700080E00C94242520910D0280958223809360
:104A80000D02982F977079F430E0482F082E000C13
:104A9000550B2417350739F08595859585950E9426
:104AA0004D230C943625089590938F0180938E01A9
:104AB00008958295982F937344E0949F9001112458
:104AC0008C7C86958695282B822F8575880F2A7A6F
:104AD0002695822B089580E090E00E94893221E0A3
:104AE0008C3E9E4F09F020E0822F089582E090E0F6
:104AF0000C947B3283E090E00C947B32CF9384E083
:104B000090E00E947B32C82F81E290E00E947B32CD
:104B10002C2F30E0A901582BCA01CF910895CF93D3
:104B2000C92F682F84E090E00E948F326C2F81E2C1
:104B300090E0CF910C948F32AB01BC018FE090E0FC
:104B40000C94A132AB01BC0183E190E00C94A13242
:104B500060E070E0CB010C94A22560E070E0CB0136
:104B60000E949C250C94A8256CEE7EEF80E090E0DE
:104B70000E94AD3260E082E090E00E948F3260E0FF
:104B800083E090E00E948F321092090210920A0294
:104B900010920B0210920C0260E084E090E00E9400
:104BA0008F3260E081E290E00E948F3260E085E029
:104BB00090E00E948F3260E086E090E00E948F32A9
:104BC0006FEF87E090E00E948F3240E050E0BA0142
:104BD00088E090E00E94A13260E08DE090E00E94C9
:104BE0008F3240E050E0BA0188E190E00E94A132AB
:104BF00060E087E190E00E948F3240E050E0BA012F
:104C00008CE190E00E94A13260E080E290E00E949E
:104C10008F320C94AD250C94B425682F8EE090E073
:104C20000C948F32FC01329697E080E0915029F08D
:104C300021912223D9F38F5FF9CF08959C01FC01C4
:104C400032969FEF80E04191461789F09F3F19F41B
:104C5000411101C0982F8F5F8630A9F79F3F39F02F
:104C6000F901E90FF11D97FDFA9562830895089502
:104C70009C012A5F3F4FFC014281461301C0128212
:104C8000019682179307B9F708950C941E260C9489
:104C90003826029626E0FC0111922A95E9F708953C
:104CA00008950C9450260C945026CF930E945326BE
:104CB0000E941B0D0E945126C0E08C2F0E947B0C8D
:104CC000811104C0CF5FC430C1F701C081E0CF9132
:104CD00008950C9450260C9469260E946B268091AE
:104CE0005D02843009F439C010921B0220E488E18F
:104CF00090E00FB6F894A895809360000FBE2093C3
:104D0000600080E00E941C090E94F21180911C0248
:104D100081110AC081E080931C0280912D02817074
:104D200080931D020E9460130E946B2683B7817FCF
:104D3000846083BF83B7816083BF7894889583B78D
:104D40008E7F83BF0FB6F894A8958091600088612C
:104D500080936000109260000FBE08950C9450265E
:104D60000E94BF1E0E9425190E941C0910921C025D
:104D700080911D0281110E94FB120E94D0110C949F
:104D8000AE261F920F920FB60F9211248F939F930E
:104D9000AF93BF9380911B02811113C08091530286
:104DA00090915402A0915502B09156024196A11DD6
:104DB000B11D8093530290935402A0935502B09377
:104DC0005602BF91AF919F918F910F900FBE0F90A0
:104DD0001F90189582E084BD93E095BD9AEF97BD32
:104DE00080936E0008952FB7F894809153029091AC
:104DF0005402A0915502B09156022FBF08952FB7CB
:104E0000F8946091530270915402809155029091F0
:104E100056022FBF0895CF92DF92EF92FF920F9329
:104E20001F932FB7F8944091530250915402609110
:104E30005502709156022FBF6A017B01EE24FF24B8
:104E40008C0120E030E0C016D106E206F30610F433
:104E5000415051099A01281B390BC9011F910F912B
:104E6000FF90EF90DF90CF90089578941F920F926B
:104E70000FB60F9211248F939F93AF93BF9380919E
:104E8000530290915402A0915502B091560201969E
:104E9000A11DB11D8093530290935402A09355021B
:104EA000B0935602BF91AF919F918F910F900FBE1B
:104EB0000F901F90189587E797E7909301088093CC
:104EC00000089AE088E10FB6F894A89580936000F6
:104ED0000FBE90936000FFCF0E946B25811102C02E
:104EE0000E940B260E94762580931A020E947E253E
:104EF00090935802809357020E947A25682F70E0A1
:104F000080E090E00C94CC22CF93C82F1F928F9317
:104F100089E197E09F938F930E94D20781E090E010
:104F2000A0E0B0E0BC01CD0104C0660F771F881F70
:104F3000991FCA95D2F70E94CC220F900F900F9024
:104F40000F90CF910C94BF1ECF93DF938B3109F458
:104F5000F9C108F08FC18B3009F4B2C108F065C106
:104F6000863009F4B0C120F4853009F4BEC16CC2AA
:104F7000873009F4CCC1883009F066C28BE59CE02B
:104F80000E9439078CEA9BE00E9439070E947A252B
:104F90001F928F9389EA9BE09F938F930E94D20781
:104FA00087EA9BE00E9439070E947625C82F84E992
:104FB0009BE00E9439071F92CF938FE89BE09F935D
:104FC0008F930E94D2078DE89BE00E94390783E807
:104FD0009BE00E9439078C2F81701F928F9380E88D
:104FE0009BE09F938F930E94D2078EE79BE00E94E5
:104FF000390784E79BE00E943907C1FB882780F9C5
:105000001F928F9381E79BE09F938F930E94D2071B
:105010008FE69BE00E94390783E69BE00E943907F8
:10502000C2FB882780F91F928F9380E69BE09F93B5
:105030008F930E94D2078EE59BE00E94390785E599
:105040009BE00E943907C3FBCC27C0F91F92CF9386
:1050500082E59BE09F938F930E94D20780E59BE0BF
:105060000E9439070E947E25EC018CE39BE00E94A0
:105070003907DF93CF9387E39BE09F938F930E9441
:10508000D20785E39BE00E9439078CE19BE00E94F8
:1050900039078C2F81701F928F9389E19BE09F933A
:1050A0008F930E94D2078DB79EB780960FB6F89463
:1050B0009EBF0FBE8DBF87E19BE00E94390780E055
:1050C0009BE00E943907C1FB882780F91F928F93CC
:1050D0008DEF9AE09F938F930E94D2078BEF9AE017
:1050E0000E94390789EE9AE00E9439078D2F81705E
:1050F0001F928F9386EE9AE09F938F930E94D20720
:1051000084EE9AE00E94390782ED9AE00E94390706
:10511000D695D1701F92DF938FEC9AE09F938F9377
:105120000E94D2078DEC9AE00E9439078BEB9AE03F
:105130000E943907C2FB882780F91F928F9388EB62
:105140009AE09F938F930E94D20786EB9AE00E9489
:10515000390784EA9AE00E943907C3FB882780F95F
:105160001F928F9381EA9AE09F938F930E94D207B8
:105170008FE99AE00E94390785E99AE00E94390791
:10518000C4FB882780F91F928F9382E99AE09F934E
:105190008F930E94D20780E99AE00E9439078EE738
:1051A0009AE00E943907C5FB882780F91F928F93E8
:1051B0008BE79AE09F938F930E94D20789E79AE04A
:1051C0000E9439078DE59AE00E943907C6FB8827BF
:1051D00080F91F928F938AE59AE09F938F930E94A4
:1051E000D2078DB79EB780960FB6F8949EBF0FBEBC
:1051F0008DBF88E59AE00E94390780E59AE00E9419
:105200003907C7FBCC27C0F91F92CF938DE49AE0F2
:105210009F938F930E94D2078BE49AE00E943907F4
:105220000F900F900F900F9049C0803109F4B4C0D7
:1052300020F48E3009F49AC007C1863109F4C7C042
:10524000893109F001C18EE798E00E94390783E5B2
:1052500098E00E94390789E198E00E9439078FEDB4
:1052600097E00E94390782EB97E00E94390787E8B0
:1052700097E08FC08A32E1F060F4873209F4E0C031
:1052800028F48E3108F4E0C08D51DBC0893269F119
:10529000DBC0833448F48A3308F0D0C0853309F486
:1052A000CFC0883369F0D0C0833409F4C9C0CCC002
:1052B0008AE49CE00E9439070E940B26C1E0C9C025
:1052C00088EA98E066C080911A02817F8E7F809381
:1052D0001A028DE898E00E94390786E49CE00E945B
:1052E000390781E080931E02E9CF0E94BF1E8AE247
:1052F0009CE00E9439079FEF23ED80E3915020400E
:105300008040E1F700C000000E945B27D7CF80916A
:105310001A02C82FC095C170C0FB80F980931A0291
:10532000CC2329F08EE19CE00E94390792C081E1F4
:105330009CE00E94390780911A02897F877F8093C1
:105340001A02BCCF90911A0291FBCC27C0F981E0E0
:10535000C827892FC0FB81F980931A02CC2319F04A
:1053600084E09CE029C086EF9BE013C090911A0274
:1053700092FBCC27C0F981E0C827892FC0FB82F9B6
:1053800080931A02CC2319F087EE9BE015C087EDBD
:105390009BE00E94390792CF90911A0293FBCC2791
:1053A000C0F981E0C827892FC0FB83F980931A02D6
:1053B000CC2351F08BEC9BE00E94390780911A02BC
:1053C000816080931A0245C08EEB9BE0E2CF89E7B3
:1053D00097E00E9439070E9425191F928F938FE54D
:1053E00097E09F938F930E94D207809149011F926B
:1053F0008F9388E497E09F938F930E94D2078091C8
:105400002B021F928F9385E397E09F938F930E94C7
:10541000D2070E94FF269F938F937F936F938EE115
:1054200097E09F938F930E94D2078DB79EB74296C5
:105430000FB6F8949EBF0FBE8DBF40CF895301C0F9
:1054400080E00E9484273ACF8CEB9BE00E943907D2
:10545000C0E08C2FDF91CF91089580E008950C94E7
:105460002D2ACF93C82F80911E02882319F08130F6
:1054700031F038C00E94A0248232B1F504C00E94ED
:10548000A024823261F48C2F0E942F2A811104C043
:105490008C2F0E94A42724C081E090E021C08C2F93
:1054A0000E942D2A81111BC0C43189F018F4CB3021
:1054B00029F010C0C93259F0C83361F48DE898E082
:1054C0000E94390785E197E00E94390708C01092D1
:1054D0001E020CC083E197E00E94390707C081E0FB
:1054E000817006C010921E0280E002C080E0F8CFFA
:1054F000CF91089580912A02089508959FB7F89456
:10550000109221029FBF90915D02943009F057C024
:105510009091E9009F703091EC00232F217030FDB5
:1055200020E8922B23E02093E9002091EB0020FF5C
:1055300043C02091EE0027FF3FC020911F0222238D
:1055400021F02091E80025FF37C010921F0226E0CD
:105550003091E80035FD15C030915D02343061F5C1
:105560003091EB0035FD28C0215021F481E080937B
:105570001F0222C0EFE9FFE03197F1F700C0000001
:10558000E7CF8093F1008091E80085FD0AC080910B
:10559000E80080FFFCCF8091E8008E778093E800E0
:1055A00006C08FB7F89421E0209321028FBF9F702F
:1055B0009093E90080E008959F709093E9008FEF49
:1055C00008950F931F93CF93DF9300D01F92CDB711
:1055D000DEB78C010E946C2D823011F0843021F5F1
:1055E00084E089831B830A8382E08093E9008FEF44
:1055F0009091E800815095FD06C095ED9A95F1F7E0
:1056000000008111F5CF8091E80085FF0DC040E0DA
:1056100050E063E070E0CE0101960E94892D8091F8
:10562000E8008E778093E8000F900F900F90DF9145
:10563000CF911F910F910895CF93DF9300D01F92C8
:10564000CDB7DEB720915D02243031F523E0298308
:10565000805891099B838A8382E08093E9008FEFD1
:105660009091E800815095FD06C095ED9A95F1F76F
:1056700000008111F5CF8091E80085FF0DC040E06A
:1056800050E063E070E0CE0101960E94892D809188
:10569000E8008E778093E8000F900F900F90DF91D5
:1056A000CF910895CF93DF93EC010E946C2D82304F
:1056B00011F0843039F581E08093E9008FEF90910B
:1056C000E800815095FD06C095ED9A95F1F7000030
:1056D0008111F5CF8091E80085FF14C040E050E0D3
:1056E00068E070E0CE010E94892D8091E8008E77FD
:1056F0008093E80088E0FE01A2E2B2E001900D9202
:105700008A95E1F7DF91CF9108958BE89CE00E94A4
:10571000390780915C02811109C00E941A2F0E94F2
:10572000772F8091E20084608093E200089587E8FB
:105730009CE00E94390710925C02089583E89CE087
:105740000C9439078FE79CE00C9439078BE79CE0B9
:105750000E9439070C94B026209120022F5F822FDF
:1057600062E30E942632992319F0209320020895C3
:105770001092200280912102882371F180915D02B4
:10578000843041F58091E9008F702091EC00922FD8
:10579000917020FD90E8892B93E09093E90090911F
:1057A000EB0090FF14C09091EE0097FF10C0909115
:1057B000E80095FF03C01092F100F9CF9091E80046
:1057C00090FF05C09091E8009E779093E8008F705D
:1057D0008093E90010922102089542E061EC81E09B
:1057E0000E94932E42E261EC82E00E94932E42E2FC
:1057F00061EC83E00C94932E80915F02833009F476
:1058000060C030F4813071F0823009F499C008959D
:105810008A3009F485C08B3009F46BC0893009F0F7
:10582000A7C020C080915E02813A09F0A1C080919A
:10583000E800877F8093E800809162029091630284
:10584000892B21F468E082E292E003C060E080E00E
:1058500090E070E00E94D42D8091E8008B778093D7
:10586000E800089580915E02813209F081C0809144
:10587000620290916302029708F07AC08091E8007A
:10588000877F8093E8008091E80082FD05C08091C9
:105890005D028111F8CF6CC02091F3008091F2007D
:1058A00090E0922B029729F48091F1008B7F813058
:1058B00021F48091F10080932A028091E8008B7797
:1058C00053C080915E02813A09F052C08091620219
:1058D00090916302892B09F04BC08091E800877F8B
:1058E0008093E8008091E80080FFFCCF809149011F
:1058F00036C080915E028132D9F58091620290912A
:105900006302892BA9F58091E800877F8093E800E6
:105910000E94C82E80916002809349010C94BF1EA2
:1059200080915E02813221F58091E800877F80932B
:10593000E8000E94C82E8091610280932B02089596
:1059400080915E02813AA1F48091E800877F809384
:10595000E8008091E80080FFFCCF80912B028093CB
:10596000F1008091E8008E778093E8000C94C82EB7
:10597000089584B7877F84BF0FB6F894A895809167
:105980006000886180936000109260000FBE90E01C
:1059900080E80FB6F89480936100909361000FBE89
:1059A0000E94B6190E941A2F0E94772F8091E20060
:1059B00084608093E2008EE79AE20E9454257894F6
:1059C0000E940B320E94BE198FE391E00E942019C1
:1059D0008AE69CE00E94390780915D02853089F457
:1059E00086E69CE00E9439070E946D2680915B024A
:1059F000882391F30E945526882371F30E94732D0A
:105A0000EBCF0E94F0190E948213E6CF0C94082D70
:105A1000292F332723303105C9F060F421303105B7
:105A200081F02230310509F047C08BE590E023EC8E
:105A30003CE046C02132310511F12232310561F1DD
:105A40003BC082E190E02EE13DE03AC099278130F1
:105A5000910561F040F08230910559F0039761F5AE
:105A6000EFE8FCE008C0EFEBFCE005C0E3EAFCE097
:105A700002C0E5E9FCE0849190E09F0121C0633021
:105A80007105D0F4660F771FFB01E957FE4F2081A7
:105A9000318189E090E014C06330710568F4FB0146
:105AA000EE0FFF1FEF57FE4F20813181FB01E258BF
:105AB000FE4F808190E004C080E090E020E030E084
:105AC000FA0131832083089580915D02843011F0C2
:105AD00081E0089582E0089580912C02811102C036
