:100000000C94D4060C941B070C941B070C941B0730
:100010000C941B070C941B070C941B070C941B07D8
:100020000C941B070C941B070C943A2F0C940C3067
:100030000C9466260C941B070C941B070C941B074E
:100040000C941B070C941B070C941B070C941B07A8
:100050000C941B070C94DA260C941B070C941B07BA
:100060000C941B070C941B070C941B070C941B0788
:100070000C941B070C941B070C941B070C941B0778
:100080000C941B070C941B070C941B070C941B0768
:100090000C941B070C941B070C941B070C941B0758
:1000A0000C941B070C941B070C941B07DC13DF1329
:1000B000E413EB13F013F513FA13FF1304140914EC
:1000C0000E14131417141A141D14201423142A14B4
:1000D0002A142A14331C331C651C651CB21CE61D33
:1000E000E61DE61DD01C651D761D761DD61DE61D80
:1000F000E61DDF1D761E761E881E881E7F1E881E4A
:10010000881E881E761E761E841E881E881E841EEB
:100110007930A0309831A0309831EC300F319831DF
:100120006631753127001E001F00200021002200CB
:100130002300240025002600040005000600070017
:100140000800090044454255473A206469736162DA
:100150006C65642E0A0044454255473A20656E613D
:10016000626C65642E0A000A0025303862003A206D
:100170000025303258000A722F6320303132333478
:100180003536370A007267626C6967687420746973
:100190006D65722064697361626C652E0A00726716
:1001A000626C696768742074696D657220656E6140
:1001B000626C65642E0A007267626C6967687420FD
:1001C00073657420687376205B4E4F454550524FDF
:1001D0004D5D3A2025752C25752C25750A00726712
:1001E000626C696768742073657420687376205B3D
:1001F000454550524F4D5D3A2025752C25752C25CF
:10020000750A007267626C6967687420646973615B
:10021000626C65205B4E4F454550524F4D5D3A2014
:100220007267626C696768745F636F6E6669672E78
:10023000656E61626C65203D2025750A00726762FB
:100240006C696768742064697361626C65205B45E2
:100250004550524F4D5D3A207267626C6967687411
:100260005F636F6E6669672E656E61626C65203DC7
:100270002025750A007267626C6967687420656E74
:1002800061626C65205B4E4F454550524F4D5D3A63
:10029000207267626C696768745F636F6E66696716
:1002A0002E656E61626C65203D2025750A007267BF
:1002B000626C6967687420656E61626C65205B457D
:1002C0004550524F4D5D3A207267626C69676874A1
:1002D0005F636F6E6669672E656E61626C65203D57
:1002E0002025750A007267626C6967687420746FF4
:1002F00067676C65205B454550524F4D5D3A2072F3
:1003000067626C696768745F636F6E6669672E65A4
:100310006E61626C65203D2025750A007267626C13
:1003200069676874206D6F6465205B4E4F4545506A
:10033000524F4D5D3A2025750A007267626C6967FD
:100340006874206D6F6465205B454550524F4D5D6C
:100350003A2025750A007267626C696768745F6984
:100360006E6974207267626C696768745F636F6E30
:100370006669672E6D6F6465203D20302E205772B0
:100380006974652064656661756C742076616C754E
:10039000657320746F20454550524F4D2E0A0072F0
:1003A00067626C696768745F696E6974206565630C
:1003B0006F6E666967206973206E6F7420656E6169
:1003C000626C65642E0A007267626C696768745FAC
:1003D000696E6974207374617274210A00726762B5
:1003E0006C696768745F696E69742063616C6C65C1
:1003F000642E0A007267626C696768745F636F6E6F
:100400006669672E7370656564203D2025640A0067
:100410007267626C696768745F636F6E6669672E86
:1004200076616C203D2025640A007267626C696702
:1004300068745F636F6E6669672E736174203D2018
:1004400025640A007267626C696768745F636F6E27
:100450006669672E687565203D2025640A0072670D
:10046000686C696768745F636F6E6669672E6D6F2D
:100470006465203D2025640A007267626C696768C4
:10048000745F636F6E6669672E656E61626C65206E
:100490003D2025640A007267626C696768745F6357
:1004A0006F6E66696720454550524F4D3A0A007F8E
:1004B0003F1F643214643214783C1E1E140A052255
:1004C00023252628292A2C2D2F3032333536383A49
:1004D0003B3D3E4042434547494A4C4E505153559F
:1004E00057595A5C5E6062646668696B6D6F7173C0
:1004F0007577797B7D7F81838587898A8C8E9092C1
:100500009496989A9C9E9FA1A3A5A7A8AAACAEAFCB
:10051000B1B3B4B6B8B9BBBCBEBFC1C2C3C5C6C710
:10052000C9CACBCCCDCED0D1D2D2D3D4D5D6D7D7C1
:10053000D8D9D9DADADBDBDBDCDCDCDCDCDDDDDD09
:10054000DDDCDCDCDCDCDBDBDBDADAD9D9D8D7D705
:10055000D6D5D4D3D2D2D1D0CECDCCCBCAC9C7C6B2
:10056000C5C3C2C1BFBEBCBBB9B8B6B4B3B1AFAEF0
:10057000ACAAA8A7A5A3A19F9E9C9A989694929096
:100580008E8C8A89878583817F7D7B79777573716E
:100590006F6D6B6968666462605E5C5A595755534B
:1005A00051504E4C4A4947454342403E3D3B3A3804
:1005B00036353332302F2D2C2A29282625232200A8
:1005C0000101010101010101010202020202020214
:1005D00002020303030303030303040404040404E7
:1005E00004050505050506060606060707070707AD
:1005F00008080808090909090A0A0A0B0B0B0C0C60
:100600000C0D0D0D0E0E0E0F0F0F101011111112FB
:100610001213131414151516161717181819191A7A
:100620001A1B1B1C1D1D1E1E1F20202122222324DD
:1006300024252626272829292A2B2C2D2D2E2F301C
:10064000313232333435363738393A3B3C3D3E3F30
:10065000404142434445464748494A4C4D4E4F501D
:10066000515354555658595A5B5D5E5F61626465DB
:100670006668696B6C6D6F7072737577787A7B7D65
:100680007E8082838587888A8C8E8F9193959698B9
:100690009A9C9EA0A2A3A5A7A9ABADAFB1B3B5B7D5
:1006A000BABCBEC0C2C4C6C9CBCDCFD1D4D6D8DBAC
:1006B000DDDFE2E4E7E9EBEEF0F3F5F8FAFDFF0A3F
:1006C000002530325820006B6579626F6172645F7B
:1006D0007265706F72743A20000A0025303258003B
:1006E0006B6579626F6172645F7365745F6C65647A
:1006F0003A20003F00433E20004C25640A00746904
:100700006D65725F72656164333228293A20253045
:10071000346C580A006B6579626F6172645F69645A
:100720006C653A2025580A006B6579626F617264C6
:100730005F70726F746F636F6C3A2025580A00689F
:100740006F73745F6B6579626F6172645F6C65640F
:100750007328293A2025580A000A092D205374616C
:10076000747573202D0A004743433A20352E342EEA
:1007700030204156522D4C4942433A20322E302EE1
:1007800030204156525F415243483A2061767235DB
:100790000A004F5054494F4E533A204C5546412081
:1007A00045585452414B455920434F4E534F4C45A9
:1007B00020434F4D4D414E4420343039360A0042DB
:1007C00055494C443A2022302E372E3130332D32C9
:1007D000332D673236613832332D64697274792271
:1007E000202831303A33393A3133204A616E2020A3
:1007F000332032303230290A005649443A203078CA
:1008000046454544284A6F7368204A6F686E736F87
:100810006E29205049443A20307830303030284812
:100820007562313629205645523A203078303030C2
:10083000310A00444553433A204D6163726F2050A2
:10084000616420776974682055534220487562209E
:10085000616E6420456E636F646572730A000A09F5
:100860002D2056657273696F6E202D0A000A092DBE
:1008700020436F6E736F6C65202D0A4553432F71B3
:100880003A09717569740A000A092D204D6167697A
:1008900063202D0A443A094465627567204D6573EB
:1008A0007361676520546F67676C650A583A094D34
:1008B0006174726978204465627567204D6F646564
:1008C00020546F67676C65202D2053686F77206B0D
:1008D00065797072657373657320696E206D6174DC
:1008E00072697820677269640A4B3A094B657962CC
:1008F0006F61726420446562756720546F67676C2E
:1009000065202D2053686F77206B65797072657351
:1009100073207265706F72740A4D3A09446562758E
:1009200067204D6F75736520546F67676C650A5655
:100930003A0956657273696F6E0A533A09537461C6
:100940007475730A433A094163746976617465206A
:10095000436F6E736F6C65204D6F64650A46312D71
:100960004631303A0953776974636820746F204CBC
:100970006179657220302D392028463130203D20A4
:100980004C30290A302D393A09537769746368204D
:10099000746F204C6179657220302D390A475241BD
:1009A00056453A0953776974636820746F204C6127
:1009B00079657220302028616C7465726E6174658F
:1009C000290A423A094A756D7020746F20426F6F90
:1009D000746C6F616465720A4553433A094A756DD8
:1009E0007020746F20426F6F746C6F616465722049
:1009F00028616C7465726E617465290A453A095004
:100A000072696E7420454550524F4D205365747481
:100A1000696E67730A4253504143453A09436C6516
:100A2000617220454550524F4D0A000A002575005D
:100A30002E6E6B726F3A20000A002575002E7377B8
:100A400061705F6261636B736C6173685F62616345
:100A50006B73706163653A20000A002575002E7380
:100A60007761705F67726176655F6573633A2000D6
:100A70000A002575002E6E6F5F6775693A20000ABF
:100A8000002575002E737761705F72616C745F7200
:100A90006775693A20000A002575002E737761702A
:100AA0005F6C616C745F6C6775693A20000A0025A1
:100AB00075002E737761705F7263746C5F72677517
:100AC000693A20000A002575002E737761705F6C0B
:100AD00063746C5F6C6775693A20000A00257500C5
:100AE0002E636170736C6F636B5F746F5F636F6EA7
:100AF00074726F6C3A20000A002575002E737761BE
:100B0000705F636F6E74726F6C5F636170736C6F34
:100B1000636B3A20000A0025303258006B65796D0E
:100B200061705F636F6E6669672E7261773A20004D
:100B30000A002575002E6D6F7573653A20000A0056
:100B40002575002E6B6579626F6172643A20000A28
:100B5000002575002E6D61747269783A20000A00D4
:100B60002575002E656E61626C653A20000A0025CD
:100B70003032580064656275675F636F6E666967DF
:100B80002E7261773A20000A00257500646566615F
:100B9000756C745F6C617965723A20003F000A6D74
:100BA0006F7573653A206F66660A000A6D6F75731C
:100BB000653A206F6E0A000A6B6579626F61726434
:100BC0003A206F66660A000A6B6579626F6172642B
:100BD0003A206F6E0A000A6D61747269783A206F6C
:100BE00066660A000A6D61747269783A206F6E0A4F
:100BF000000A64656275673A206F66660A000A64D7
:100C0000656275673A206F6E0A000A0A4A756D7050
:100C1000696E6720746F20626F6F746C6F616465BA
:100C2000722E2E2E2000433E2000436C65617269B7
:100C30006E6720454550524F4D0A006565636F6EE3
:100C40006669673A0A005B735D004B6579626F61A4
:100C500072642073746172742E0A005B575D005BCE
:100C6000535D005B525D005B445D005B435D0004CF
:100C700003300000000C03480075006200310036AC
:100C80000000001A034A006F007300680020004A49
:100C9000006F0068006E0073006F006E00000004BB
:100CA00003090409025B00030100A0FA0904000023
:100CB0000103010100092111010001224000070583
:100CC000810308000A090401000103000000092152
:100CD000110100012236000705820320000A0904E1
:100CE000020002030000000921110100012222007C
:100CF00007058303200001070503032000011201FB
:100D0000100100000008EDFE0000010001020301D7
:100D10000631FF0974A1010975150026FF00952011
:100D2000750881020976150026FF00952075089147
:100D300002C005010980A10185031A81002A8300F0
:100D4000160100260300950175108100C0050C09ED
:100D500001A10185041A01002A9C02160100269CAB
:100D600002950175108100C005010906A101050762
:100D700019E029E715002501950875018102950103
:100D8000750881010507190029FF150026FF009548
:100D90000675088100050819012905950575019159
:100DA00002950175039101C011241FBECFEFDAE057
:100DB000DEBFCDBF04B603FE27C0809165029091CF
:100DC0006602A0916702B09168028730904BA740FD
:100DD000B04BD1F410926502109266021092670235
:100DE0001092680214BE84B7877F84BF0FB6F89450
:100DF000A8958091600088618093600010926000E7
:100E00000FBEE0E0F8E3099511E0A0E0B1E0E4ED09
:100E1000F4E602C005900D92AE38B107D9F722E092
:100E2000AEE8B1E001C01D92A536B207E1F70E941D
:100E30005E2C0C9468320C940000FF93EF93E091C9
:100E40008E01F0918F01309709F00995EF91FF9194
:100E50000895FC018591803011F0EFDFFBCF0895FC
:100E6000FF27E0E230E247FF0CC0419597FF09C041
:100E7000EDE26095709580959095611D711D811DC5
:100E8000911D27FF02C0219530E350E2AA27660F8B
:100E9000771F881F991FAA1FA41710F0A41B639522
:100EA0005A95A9F7AA3008F0A95FA05DAF93F39512
:100EB000611571058105910541F7ED3211F4EF934C
:100EC000F395F21718F43F93F395FBCF8F91B5DFAD
:100ED000FA95E1F70895E991F9918591803021F033
:100EE000853219F0AADFF9CF089520E0E8945591F2
:100EF0005532C1F3503311F4689455915A3348F484
:100F0000505390F3220F022E220F220F200D250F97
:100F1000F4CF0EF4219589919991533619F35337F3
:100F200029F1533559F1BC0188279927E8945C369B
:100F300021F48991999168945591543639F446EF8A
:100F40007EF077FF0DC08FEF9FEF0AC055374AE064
:100F500039F0583540E121F0523642E009F0089569
:100F6000FF93EF937DDFEF91FF91B7CFFF93EF9367
:100F7000FC0181918030B9F360DFFBCFFF93EF93E9
:100F800068DFF1CFDF93CF93CDB7DEB72596A3DF30
:100F9000CF91DF910895811106C0662311F08CE096
:100FA00009C08DE007C0813039F4662311F08EE06E
:100FB00001C08FE00C94E01B089581E0089580B398
:100FC000887F80BB8AB1887F8AB90895CF9380914A
:100FD0009101982F990F9093910120919001220FE8
:100FE000209390018FB1881F8827881F892B8093B9
:100FF000910199B1991F9927991F922B9093900174
:101000009F3721F48F3751F4C1E003C08F3751F47B
:10101000C0E08AE00E94E01BCC2321F08BE0CF915E
:101020000C94E01BCF91089508959C013A952115E9
:101030003F4138F5DC01AA27B270AC014427547057
:101040009C012227387094FF0FC090FF02C080E1FE
:1010500001C080E0AB2B09F08062452B09F0806471
:10106000232B69F080680BC0892F8170AB2B09F0AE
:101070008260452B09F08460232B09F08860FB0116
:1010800009940895CF93DF93EC01805E910908974E
:1010900010F0209719F463EF7BE102C060E47EE179
:1010A000CE010E9415088C2FDF91CF910C945F1A0E
:1010B000CF93DF93EC010E94811BCE01805E9109EA
:1010C000089710F0209719F46AEF7BE102C067E4FB
:1010D0007EE1CE01DF91CF910C94150881E0089557
:1010E0000C94DD071F93CF93DF9300D000D01F92A5
:1010F000CDB7DEB749835A836B832091C1018981C3
:101100009A81211112C0662349F00E94C423182F2E
:10111000682F89819A810E946F2303C00E949923BE
:10112000182F69817A81812F04C00E94C4236981AC
:101130007A810F900F900F900F900F90DF91CF91C9
:101140001F910C947509FC0140815181628173816A
:1011500084810C9472080E941025811102C00E94A3
:10116000B0250E94EC150C941C0C0E9462150E9484
:1011700050160C941E0C0C94140881E008950C94E5
:10118000BD08CF93C82F0E94BB088C2F0E94BF08B8
:10119000CF91089508950E94641E0E94CA082FEFFF
:1011A00084E39CE0215080409040E1F700C00000C3
:1011B00087E797E790930108809300080C94002735
:1011C0000F931F93CF93DF938C010E94A308EC0130
:1011D000B8010E94BF14B801CE010E947008882394
:1011E00009F478C0B801CE010E940615882309F4DD
:1011F00071C0B801CE010E945917882309F46AC052
:10120000B801CE010E949A17882309F463C0B8017F
:10121000CE010E94C513882309F45CC0F8018281C5
:10122000882339F1C1308CE5D80759F0CE3DECE583
:10123000DE07E1F0C115FCE5DF07D9F40E94CB0819
:1012400049C080911902C82FC095C170C0FB80F9B8
:1012500080931902CC2329F086E591E00E942907AA
:1012600039C084E491E00E94290735C00E94B0256E
:1012700031C0C631DC4539F50E944524982FF8016C
:10128000828120913D0130913E01882379F09A7A44
:1012900081E009F480E080939201911102C069E23B
:1012A00001C065E3C9010E94EA250AC0809192014C
:1012B000811102C069E201C065E3C9010E94EC2509
:1012C0000E94962407C0C801DF91CF911F910F9112
:1012D0000C946E08C0E08C2FDF91CF911F910F917D
:1012E000089580E090E008950895E72FF0E094E0FD
:1012F000899FE00DF11D1124EE0FFF1FEE0FFF1F60
:10130000E60FF11DEE0FFF1FEC5DFE4F85919491EE
:101310000895880F991FFC01E959FE4F859194911A
:101320000895CF93DF930E9475090E94450BEC014D
:1013300081159045C8F5C11580E4D80708F023C190
:10134000C03ED105D8F4C03CD10508F00BC1C83A65
:10135000D10578F4C53AD10508F09AC0C130D1055D
:1013600009F48FC108F440C1C430D10508F089C127
:101370003BC1CF3BD10508F496C036C1C11590E200
:10138000D90750F4C11521E0D20708F07AC1C83E50
:10139000D10508F476C128C1C11580E3D80708F04B
:1013A000E8C0CE019F70E1C0C11595E5D90708F0EE
:1013B00043C0C11524E5D20708F0FCC0C11582E581
:1013C000D80708F5C11591E5D90708F0DFC0CE01AF
:1013D00074E0969587957A95E1F783709C2F9370CA
:1013E00021E030E002C0220F331F9A95E2F73C68FB
:1013F000382BCF70C695C69580E2C89FE0011124B6
:10140000C22BD32B3EC19E01237033278C2F869590
:101410008695C115D34508F0BEC0C1E0D0E002C03A
:10142000CC0FDD1F2A95E2F720E2829FC001112434
:10143000C82BD92BDC6825C1C11529E5D207A0F43A
:10144000C11588E5D80708F0BAC0C11596E5D907D7
:1014500008F0CAC08C2F0E94D90B8F71C82FD0E022
:10146000DC2FCC27D0620DC1C1152AE5D20708F4C4
:10147000ABC0CE0190568115904208F0B5C08D2FBB
:101480008F710E94D90BDD27D0628F71D82BF9C0E4
:10149000C53AD10509F4ABC0C63AD10509F0AAC0D6
:1014A000C2E8D0E4EEC0C83AD10509F4A6C0C93AF2
:1014B000D10509F4A5C0CA3AD10509F4A4C0CB3AB4
:1014C000D10509F4A3C0CC3AD10509F4A2C0CB3BA5
:1014D000D10509F4A1C0CC3BD10509F4A0C0CD3A97
:1014E000D10509F49FC0C03BD10509F49EC0CE3A96
:1014F000D10509F49DC0CF3AD10509F49CC0C13B88
:10150000D10509F49BC0C23BD10509F49AC0C33B85
:10151000D10509F499C0C43BD10509F498C0C53B75
:10152000D10509F497C0C63BD10509F496C0C73B65
:10153000D10509F495C0C83BD10509F494C0C93B55
:10154000D10509F493C0CD3BD10509F492C0CE3B3F
:10155000D10509F491C0CA3BD10509F490C0C0E09F
:10156000D4E48FC0CE01805C91090E948909EC010E
:1015700088C0CE019927D3FF03C0EC01D86C81C08D
:10158000EC01D06C7EC0DF70D06A7BC0DC2FCC2732
:10159000C16FD06A76C0C1E0D0E002C0CC0FDD1FC1
:1015A0002A95E2F720E2829FC0011124C82BD92B93
:1015B000DA6867C0DC2FCC27C46FD06A62C0DC2F2A
:1015C000CC27C06FD06A5DC08C2F8F700E94D90B62
:1015D00094E0D695C7959A95E1F7CF70D0E0DC2FCF
:1015E000CC27D069C82B4DC0C0E0D0E04AC0C1E8CC
:1015F000D0E447C0C3E8D0E444C0C2EED4E441C064
:10160000C9EED4E43EC0CAEED4E43BC0C5EBD4E49A
:1016100038C0C6EBD4E435C0C3EBD4E432C0C4EB6D
:10162000D4E42FC0C7EBD4E42CC0CCECD4E429C064
:10163000CDECD4E426C0C3E8D5E423C0CAE8D5E4A1
:1016400020C0C2E9D5E41DC0C4E9D5E41AC0C1E296
:10165000D6E417C0C3E2D6E414C0C4E2D6E411C095
:10166000C5E2D6E40EC0C6E2D6E40BC0C7E2D6E4BB
:1016700008C0CFE6D4E405C0C0E7D4E402C0CAE2A3
:10168000D6E4CE01DF91CF9108958238910569F1BA
:10169000B0F48133910509F46DC048F489329105A5
:1016A00009F463C08A32910509F469C0089585334D
:1016B000910509F455C089339105B9F00895833E29
:1016C000910569F138F4803E9105B1F0823E9105B3
:1016D00009F10895863E9105A9F1873E9105B9F17A
:1016E000843E910509F064C023C02091560220FD7C
:1016F0004FC021FD4DC008958091560280FD44C029
:101700008091570280FF44C08091560284FD42C000
:1017100083EE4DC08091560282FF38C0F5CF809194
:10172000560282FD33C08091570280FD31C0ECCF5C
:101730008091570281FF32C08091560284FD2AC0F9
:1017400087EE35C08091560283FF26C0F5CF809189
:10175000560283FD21C08091570281FD1FC0ECCF4E
:101760008091560285FD1CC01DC08091560285FDEA
:1017700019C016C08091560286FD16C017C0809110
:10178000560286FD13C010C089E311C082EE0FC05F
:1017900080EE0DC080E00BC086EE09C084EE07C06D
:1017A00089E205C085E303C08AE201C081E390E0DD
:1017B00008959091560292FF0DC0282F287128306D
:1017C00019F4877F846006C0282F2471243011F417
:1017D0008B7F886093FF0DC0282F2871283119F462
:1017E000877E846106C0282F2471243111F48B7EFA
:1017F00088612091570220FF0DC0382F3871383092
:1018000019F4877F816006C0382F3171313011F4AF
:101810008E7F886021FF0DC0282F2871283119F490
:10182000877E816106C0282F2171213111F48E7EBF
:10183000886194FD877E08950C94DF070C94E60779
:10184000E82FF0E0ED56FE4F80810895CF92DF92B1
:10185000EF92FF920F931F93CF93DF9386E791E070
:101860000E94290783E9E82E81E0F82EC0E0D0E04D
:1018700091E7C92E91E0D92E09E611E0DF93CF93CD
:10188000DF92CF920E94C2078EE691E00E94290764
:10189000F70181917F010E94FE241F928F931F9375
:1018A0000F930E94C20787E691E00E9429072196C4
:1018B0008DB79EB708960FB6F8949EBF0FBE8DBF2A
:1018C000C430D105D9F6DF91CF911F910F91FF90D0
:1018D000EF90DF90CF900895CF93DF93AEE4B1E027
:1018E00042E551E061E070E08D91E82FE295EF7004
:1018F000F0E021A18F70EB0102C0CC0FDD1F8A95B3
:10190000E2F7CE019C2F9095922391A392A1892B6F
:1019100082A34A175B0741F7AAE4B1E041E050E037
:101920008D91E82FE295EF70F0E021A18F70BA0160
:1019300002C0660F771F8A95E2F7CB01962F90952C
:10194000922391A392A1892B82A371E0AE34B707B1
:1019500039F710929701109293011092980110920A
:101960009401109299011092950110929A0110928F
:10197000960184E00E944E0DDF91CF910C94AB084C
:101980005F926F927F928F929F92AF92BF92CF920F
:10199000DF92EF92FF920F931F93CF93DF936EE44A
:1019A00071E0A7E9B1E02BE9A22E21E0B22E612C73
:1019B00001E010E06D015C901C92EB018991BE0189
:1019C000E82FE295EF70F0E021A18F70A80102C02E
:1019D000440F551F8A95E2F7CA01242B21A322A1A7
:1019E000942E9094292122A350EA5A95F1F79AE473
:1019F000E92E91E0F92E40E050E0E70189907E0168
:101A0000282D22952F7030E0E90128A17C9030E04C
:101A1000D82DDF7002C035952795DA95E2F720FDC5
:101A200008C0302F042E01C0330F0A94EAF7232F89
:101A300001C020E027292C934F5F5F4F44305105B0
:101A4000E1F691A1992291A292A1892B82A31196EC
:101A500081E0F6019081951101C080E0682AAA1604
:101A6000BB0609F0A7CF262D44E063E971E087E9C2
:101A700091E00E944F0D0E94B508862DDF91CF9115
:101A80001F910F91FF90EF90DF90CF90BF90AF909C
:101A90009F908F907F906F905F9008950895FF9230
:101AA0000F931F93CF93DF938C01F62ED72FC42F64
:101AB000222349F081E080939D010E949826909313
:101AC0009C0180939B0180919D018823C1F08091AE
:101AD0009B0190919C010E94B026069780F0EF2D0B
:101AE000FD2FD8014C2F50E0CD01801B910B8417A6
:101AF00095071CF48D918193F7CF10929D01DF9192
:101B0000CF911F910F91FF900895EF92FF920F9345
:101B10001F93CF93DF93F62E472FE82FF0E071113C
:101B200006C0E154FA4F6491762F862F72C0272F9A
:101B300030E0E154FA4FE4910E2F10E056E0659F3B
:101B4000C0011124CFEFD0E0BE010E94E5315BEA75
:101B50005603C001579F900D11248F0D911D8F0DBD
:101B6000911D982F990F890F7E01E21AF30AE09ECA
:101B7000D001E19EB00DF09EB00D1124489FA00150
:101B80001124452F55277E01E41AF50AE09EA00195
:101B9000E19E500DF09E500D11247E01E81AF108CF
:101BA000E29EC001E39E900DF29E900D1124892FBC
:101BB0009927C81BD90BC09FC001C19F900DD09F12
:101BC000900D11246230710591F048F46115710592
:101BD000E1F061307105A9F48B2F752F19C06430C5
:101BE000710561F038F06630710579F00AC0892F0F
:101BF0007B2F0EC08E2F7B2FE52F0AC08E2F792FC3
:101C000002C0852F7E2FEB2F03C08B2F7E2FE92F55
:101C10006E2FDF91CF911F910F91FF90EF9008955C
:101C20000895CF93DF93762FE901682F842F0E94C8
:101C3000850D798368838A83DF91CF9108958091A0
:101C40002C02282F269530E02115310519F48170DA
:101C5000826005C02831310524F081708E62809346
:101C60002C02089588E090E00C942832CF92DF9205
:101C7000EF92FF926B017C010E941F0EB701A6013B
:101C800088E090E0FF90EF90DF90CF900C94463288
:101C9000ECE2F2E083E0808311828FEF8283838322
:101CA000148260817181828193810C94360E8091BF
:101CB000190280FF08C086E994E09F938F930E94E9
:101CC000C2070F900F908091190280FF0FC0809182
:101CD0002C0281701F928F9389E794E09F938F93DA
:101CE0000E94C2070F900F900F900F9080911902E1
:101CF00080FF0FC080912C0286951F928F938EE5F6
:101D000094E09F938F930E94C2070F900F900F90C3
:101D10000F908091190280FF0EC080912D021F92BA
:101D20008F9384E494E09F938F930E94C2070F9057
:101D30000F900F900F908091190280FF0EC080913C
:101D40002E021F928F938AE294E09F938F930E94BA
:101D5000C2070F900F900F900F908091190280FF93
:101D60000EC080912F021F928F9380E194E09F9389
:101D70008F930E94C2070F900F900F900F90809149
:101D8000190280FF0EC0809130021F928F9384EF62
:101D900093E09F938F930E94C2070F900F900F9034
:101DA0000F90089580912C0280FF02C086950895BF
:101DB00080E0089580913002833018F48F5F809323
:101DC000300260912C0270912D0280912E02909130
:101DD0002F020C94360E80913002882319F0815026
:101DE0008093300260912C0270912D0280912E021E
:101DF00090912F020C94360E60913A0170E0809120
:101E00002C0280FF0AC08091A10123E0829FC001C3
:101E100011248F5C9D4F0C94E7158091A001909147
:101E20003901891780F7E82FF0E09F01220F331F57
:101E3000E20FF31FEF5CFD4F1182108212828F5F61
:101E4000F0CF90912C0290FF16C09091A0012091AC
:101E50003901921770F4E92FF0E0DF01AA0FBB1FE0
:101E6000EA0FFB1FEF5CFD4F8183608342839F5F1E
:101E7000F0CF0C94FC0E0895CF93DF9300D01F9207
:101E8000CDB7DEB790912C0290FF0AC09E012F5F64
:101E90003F4F0E94110E4B8169818A810E94210F60
:101EA0000F900F900F90DF91CF910895CF93DF9314
:101EB000EC01EC81F0E0E154FB4F4491ECE2F2E004
:101EC000628181810E943C0F8C818F5F8C83DF91C6
:101ED000CF910895CF93DF93EC01ECE2F2E04381E0
:101EE00062818C810E943C0F8C818F5F8C83DF919B
:101EF000CF910895EF92FF920F931F93CF93DF93AB
:101F000000D01F92CDB7DEB7182FF62E042FE22E89
:101F100080912C0280FF5DC0E82FE695F0E0EE5A3C
:101F2000FE4F90819093A9018E7F823061F49E01D3
:101F30002F5F3F4F812F0E94110E4B8169818A8153
:101F40000E94210F0CC0923019F400912F0207C09B
:101F5000963019F410912D0202C09930D9F31093E4
:101F60002D02F0922E0200932F02EE20E9F06091F4
:101F70002C0270912D0280912E0290912F020E94CE
:101F8000360E8091190280FF24C080912F021F928B
:101F90008F9380912E021F928F9380912D021F921A
:101FA0008F938EED91E00CC08091190280FF11C0DB
:101FB0001F920F931F92FF921F921F9387EB91E046
:101FC0009F938F930E94C2070FB6F894DEBF0FBE97
:101FD000CDBF0F900F900F90DF91CF911F910F9178
:101FE000FF90EF900895ECE2F2E09181282F438179
:101FF000628188E0890F0C947A0F81E00C94F30FD2
:10200000ECE2F2E09181282F4381628188EF890F11
:102010000C947A0F81E00C940010ECE2F2E0628103
:1020200028E0620F08F46FEF282F438181810C9420
:102030007A0F81E00C940D10ECE2F2E0628128E06E
:10204000621B08F460E0282F438181810C947A0F91
:1020500081E00C941C10ECE2F2E0438128E0420F96
:1020600008F44FEF282F628181810C947A0F81E070
:102070000C942B10ECE2F2E0438128E0421B08F4C0
:1020800040E0282F628181810C947A0F81E00C94CA
:102090003A1020E00C947A0FFF920F931F93CF9386
:1020A000DF93EC01F12C0FEF10E060913801F61690
:1020B000F0F48091A0012F2D30E0280F311DC901CF
:1020C000880F991F280F391F2F5C3D4F70E0C80102
:1020D0000E94F931962F8C8140912F0260912E023F
:1020E000F99E800D11240E94110EF394DECF0E9400
:1020F000FC0E9A818C8190FF02C08F5F01C08150DD
:102100008C83DF91CF911F910F91FF900895AF9233
:10211000BF92CF92DF92EF92FF920F931F93CF93D4
:10212000DF93FC01828180FF02C00FEF01C001E05C
:1021300010E04BE0A42E80913801181708F043C03E
:102140008091A001C12ED12CE601C80FD11DCE0176
:10215000880F991FC80FD91FCF5CDD4F19821882D5
:102160001A8234E0E32EF12CB12C80919F018B0D6B
:102170008C302CF06A2D0E94D731892F05C087FF43
:1021800003C090913801890F082E000C990BC816D6
:10219000D90691F480912F028E9DA0018F9D500D44
:1021A000112455954795559547959E0160912E02AE
:1021B00080912D020E94110EB00EF1E0EF1AF1088D
:1021C000A1F61F5FB8CF0E94FC0E80919F010130E5
:1021D00031F4811102C080913801815007C090E034
:1021E00001966091380170E00E94F93180939F015F
:1021F000DF91CF911F910F91FF90EF90DF90CF90E3
:10220000BF90AF900895CF938091A0019091390134
:10221000891770F4E82FF0E09F01220F331FE20FBF
:10222000F31FEF5CFD4F1182108212828F5FF0CF9F
:10223000C0E060913801C617C0F5EC2FF0E070E007
:10224000CF010E94F9312091A001820F20919E01BF
:10225000022E000C330B90E0E217F307CCF0209134
:102260003701022E000C330B2E173F078CF09C0118
:10227000220F331F820F931F9C012F5C3D4F409113
:102280002F0260912E0280912D020E94110E0BC030
:10229000FC01EE0FFF1F8E0F9F1FFC01EF5CFD4F37
:1022A000118210821282CF5FC4CF0E94FC0E209157
:1022B000360180919E01820F80939E01909137019B
:1022C000920F9093370119165CF4082E000C990BAD
:1022D0004091380150E041505109841795071CF096
:1022E000219520933601CF91089560912C02669537
:1022F00070E041E050E08BE391E00E941332892BC3
:1023000019F481E08093AA010E9498269093A3017A
:102310008093A2018091190280FF08C08EE991E0AC
:102320009F938F930E94C2070F900F900895109271
:10233000AA018091190280FF08C085E891E09F936F
:102340008F930E94C2070F900F90089590912C02D6
:1023500090FF54C09170811102C0926006C0883114
:1023600010F09E6202C0880F982B90932C02662377
:10237000B1F060912C0270912D0280912E0290910B
:102380002F020E94360E8091190280FF1BC080919F
:102390002C0286951F928F938AE393E00BC0809165
:1023A000190280FF0FC080912C0286951F928F9397
:1023B0008CE193E09F938F930E94C2070F900F9040
:1023C0000F900F9060912C02669570E041E050E014
:1023D0008BE391E00E941332892B19F00E94971130
:1023E00002C00E94751181E08093A50140912F02E7
:1023F00060912E0280912D020C9449100895682F4F
:1024000090912C02969581E0890F883108F081E047
:102410000C94A61181E00C94FF11682F90912C026E
:1024200096958FEF890F09F487E10C94A61181E04E
:102430000C940D1261E00C94A61180912C02816025
:1024400080932C028091190280FF0DC01F9281E0C1
:102450008F938EEA92E09F938F930E94C2070F9012
:102460000F900F900F9080912C0286950C941A1269
:1024700060E00C94A6118091A801811160C0809148
:10248000190280FF08C08DED93E09F938F930E9407
:10249000C2070F900F908091190280FF08C087EC4F
:1024A00093E09F938F930E94C2070F900F900E941A
:1024B0001025811110C08091190280FF08C08FE99A
:1024C00093E09F938F930E94C2070F900F900E94FA
:1024D000B0250E94480E0E94320E60932C02709329
:1024E0002D0280932E0290932F026E7FC1F4809173
:1024F000190280FF08C086E593E09F938F930E94A6
:10250000C2070F900F900E94480E0E94320E6093F7
:102510002C0270932D0280932E0290932F020E9422
:102520001F0E0E94570E1092AA0180912C0280FF6C
:1025300003C086950E94381281E08093A801089517
:1025400080912C02816080932C028091190280FF7F
:102550000DC01F9281E08F9385E792E09F938F9348
:102560000E94C2070F900F900F900F9080912C0245
:1025700086950C94381280912C028E7F80932C02C9
:1025800060912C0270912D0280912E0290912F0269
:102590000E94360E8091190280FF0FC080912C029C
:1025A00081701F928F938DE392E09F938F930E948F
:1025B000C2070F900F900F900F900E9497112FEF6E
:1025C00080E792E0215080409040E1F700C0000099
:1025D0000C94FC0E8091190280FF10C080912C0297
:1025E000809581701F928F9385EE92E09F938F93D9
:1025F0000E94C2070F900F900F900F9080912C02B5
:1026000080FD0C94BB120C941D1280912C028E7FC5
:1026100080932C028091190280FF0CC01F921F92A0
:1026200083E092E09F938F930E94C2070F900F90D8
:102630000F900F900E9497112FEF80E792E02150AA
:1026400080409040E1F700C000000C94FC0E0F9316
:102650001F93CF93DF938091AA01882309F475C05B
:102660008091A901E0912C02E695E81BE093A4017A
:10267000823049F4F0E0E554FB4FE491CE2FD0E0F6
:1026800006E51FE032C0863049F4F0E0E854FB4F25
:10269000E491CE2FD0E00AE61FE027C0893051F444
:1026A000E695F0E0EB54FB4FE491CE2FD0E00CE444
:1026B00010E11BC08F3051F4E695F0E0EE54FB4F73
:1026C000E491CE2FD0E007E810E10FC0853149F446
:1026D000F0E0E155FB4FE491CE2FD0E003E011E1B3
:1026E00004C0C0EDD7E000E11EE08091A501882381
:1026F00089F01092A5010E9498269E0120953095A0
:10270000820F931F9093A3018093A2011092A701BF
:102710001092A6018091A2019091A3010E94B0267F
:102720008C179D0790F0E091A201F091A301CE0FCC
:10273000DF1FD093A301C093A20182EA91E0F801C8
:10274000DF91CF911F910F910994DF91CF911F914C
:102750000F910895882311F0FA0101C0FB0109943B
:10276000CF93DF93C82FD62F0E94D20E8C1740F044
:102770000E94D20E8D1720F4DF91CF910C940A1293
:102780008C2FDF91CF910C941A120F931F93CF933C
:10279000FB01C281CC2309F45BC08C010E9445245B
:1027A0008272F801E25CFC45E431F10508F053C0A7
:1027B000EA5AFF4F0C940D320E94EA124BC047E1D7
:1027C00052E16AE072E104C04AE052E167E172E17D
:1027D0000E94AA133FC04AE050E16DEF7FE0F8CFBE
:1027E0004DEF5FE06AE070E1F3CF48E250E169E16C
:1027F00070E1EECF49E150E168E270E1E9CF46E4F3
:1028000050E167E370E1E4CF47E350E166E470E153
:10281000DFCF4BEE5EE06AED7EE0DACF4AED5EE0C0
:102820006BEE7EE0D5CF81E00E941A1213C065E006
:1028300082E00BC068E086E008C06EE089E005C079
:1028400064E18FE002C067E185E10E94B01302C03D
:10285000C1E001C0C0E08C2FCF911F910F9108956E
:10286000CF93DF93EC0181E0898B8F810E94482414
:1028700088850E945B240E949624EA81FB81CE0118
:102880000696309729F06C897D89DF91CF91099464
:10289000DF91CF910895CF93DF93FC012081223007
:1028A00039F4FB01EC0182810E94BC2281E08B871C
:1028B000DF91CF910895DB01FC018081813021F40B
:1028C0008D919C910C944208823039F41396ED91CD
:1028D000FC91149712968C9109940895FC018081C3
:1028E000813029F4FB01808191810C94580808956E
:1028F000EF92FF920F931F93CF93DF93FC012285FA
:10290000211136C0EC01E380F480F7E5FF1A26E1DF
:102910002E9DC0012F9D900D1124DC01A050BF4FB2
:102920001496ED91FC9115978A5F9E4F309729F090
:1029300054966D917C915597099586E18E9D800105
:102940008F9D100D112400501F4FF80187810E94A8
:102950004E24F80180850E9461240E9496241882EA
:1029600019861B861E821D821092AC011092AB014B
:10297000DF91CF911F910F91FF90EF900895DF921B
:10298000EF92FF920F931F93CF93DF93FB0122816E
:102990002223A1F120913C012F3F81F18C01C0E065
:1029A000D1E0E12CF12CDD24D39480913C01082E60
:1029B000000C990B8E159F050CF18E818823C9F0B0
:1029C00089859A858017910739F48091AB019091A0
:1029D000AC010817190769F0DF861C870B87898906
:1029E000811103C0CE010E943014CE0106960E94D0
:1029F0007814FFEFEF1AFF0A6696D7CFDF91CF91D9
:102A00001F910F91FF90EF90DF900895EF92FF924A
:102A10000F931F93CF93DF939C0137552F3F3105C1
:102A200011F008F047C040913C01042E000C550BFA
:102A30004217530714F420933C01FB017C0182816F
:102A400096E1929F8001939F100D1124E801C050E0
:102A5000DF4F888B92818E81992311F1FA86E98666
:102A60008F5F8E830E9498269E878D870E947B248D
:102A70008F830E94452488870E9458249885892B3B
:102A80008887E881F981C8018A5F9E4F309719F0E5
:102A90006C897D890995F092AC01E092AB010AC086
:102AA000882341F08989882329F0C8018A5F9E4FD5
:102AB0000E94781481E0DF91CF911F910F91FF90D8
:102AC000EF900895CF92DF92EF92FF920F931F93B2
:102AD000CF93DF9380913C018F3FF1F1F12C96E190
:102AE000E92E0F2D10E080913C01082E000C990B6F
:102AF000801791078CF1E09EF001E19EF00D11240A
:102B0000E050FF4FC288D388C114D10419F488EC77
:102B1000C82ED12CE09EE001E19ED00D1124C050C2
:102B2000DF4F8E818823B1F08D859E850E94B0266F
:102B3000C816D90678F48989811103C0CE010E9494
:102B40003014E09EC001E19E900D11248A5F9E4FDB
:102B50000E947814F394C5CFDF91CF911F910F910C
:102B6000FF90EF90DF90CF9008952BB1342F3095E8
:102B700023233BB1432B3FB7F894FC01680F791F27
:102B8000E617F70789F0819198E04BB9000000C083
:102B900087FF2BB9880F000000C000C000C02BB910
:102BA00000C09A9591F7ECCF3FBF08952AB1242B2E
:102BB0002AB99B01220F331F620F731F0E94B515A4
:102BC00087EC90E00197F1F700C00000089542E023
:102BD0000C94D6150C94CB07FF920F931F93CF93B1
:102BE000DF93C1EBD1E04CE751E02AE731E061E04F
:102BF00070E0F1E0C33BDF0709F44CC0FA0101913A
:102C0000AF01A02FA295AF70B0E09196EC91919793
:102C10000F70CB01002E01C0880F0A94EAF7982F9D
:102C200090959E2391969C93919792969C919297C2
:102C3000892B92968C939297F90111919F01E12F24
:102C4000E295EF70F0E0F1A01F70CB01012E01C002
:102C5000880F0A94EAF7982F90959F2191A392A14B
:102C6000892B82A390968C9190E002C095958795D0
:102C70000A95E2F78170E0A1F0E002C0F595E795D2
:102C80001A95E2F7E0FD02C090E001C092E0892BC6
:102C90008993AFCFDF91CF911F910F91FF9008954E
:102CA0005F926F927F928F929F92AF92BF92CF92DC
:102CB000DF92EF92FF920F931F93CF93DF9381EBFD
:102CC000682E81E0782E9CE7E92E91E0F92E0AE744
:102CD00011E02FEA822E21E0922ECDEAD1E06301AD
:102CE0005301512CD501ED915D014E2F440F440F3E
:102CF000F60141936F01D7012D917D01E22FE295FD
:102D0000EF70F0E080A190E02F7002C0959587955C
:102D10002A95E2F781709927F80151918F01E52FEB
:102D2000E295EF70F0E020A130E05F7002C03595D1
:102D300027955A95E2F7F901E170FF2720FF02C0BD
:102D4000E2E0F0E0E82BF92BE42BD301ED933D0119
:102D5000EF70F0E0E659FE4F9081F4018081890F19
:102D6000808384303CF088818F5F888361E0852D8B
:102D70000E94EA15D4018C918D3F3CF488818150EA
:102D8000888360E0852D0E94EA15F40180818378B4
:102D900087FF03C081508C6F8F5FD4018D934D01ED
:102DA00053942196B2E05B129DCFDF91CF911F919A
:102DB0000F91FF90EF90DF90CF90BF90AF909F90DA
:102DC0008F907F906F905F9008950F931F93CF9394
:102DD000DF93C62FD42F122FFC0182818823C9F0E4
:102DE0006093B5010E9498269093B4018093B3013B
:102DF00080E28C0F883008F057C0C77081E001C0B6
:102E0000880FCA95EAF7DF91CF911F910F910C942B
:102E1000F31B8091B501681330C08091B30190918C
:102E2000B4010E94B026883C910538F500E20D0FF0
:102E3000CD17B9F080E28C0F883040F4C77081E084
:102E400001C0880FCA95EAF70E94FA1B083028F5DE
:102E500081E09D2F977001C0880F9A95EAF70E9434
:102E6000F31B812F0E94E01B0830F0F4D77081E043
:102E700001C0880FDA95EAF70AC080E28C0F88302B
:102E800098F4C77081E001C0880FCA95EAF7DF9116
:102E9000CF911F910F910C94FA1B812FDF91CF914D
:102EA0001F910F910C94E01BDF91CF911F910F9117
:102EB00008959C01CB01233F4CE53407F9F078F4E9
:102EC000283DFCE53F07B9F0293D4CE5340711F1F9
:102ED000273D3C4531F526E241EE61EE1EC0253F1F
:102EE000FCE53F0799F070F0263F3C45D1F427E21E
:102EF00045EE66EE12C027E245EE0EC026E241EE38
:102F000060EE0BC027E245EE64EE07C026E241EE1C
:102F100062EE03C028E241E065EE0E94E51680E023
:102F20000895FC018281882319F01092B50108955B
:102F300081E00895CF93DF93EC01FB018281882328
:102F400009F41FC1C230FCE5DF0708F41BC1C6311C
:102F50009CE5D90738F09E012A5F3C4529303105B0
:102F600008F010C10E9423259093570280935602C7
:102F7000C031ECE5DE0709F4C3C008F041C0C83039
:102F80008CE5D80709F49AC0F0F4C430ECE5DE070C
:102F900009F487C068F4C2308CE5D80709F477C01B
:102FA000C330DC4509F0E3C080915602826076C0F0
:102FB000C630ECE5DE0709F46EC008F07BC08091F6
:102FC000560288606BC0CC308CE5D80709F485C008
:102FD00068F4CA30ECE5DE0709F474C008F079C083
:102FE0000E94641E80915602806858C0CE308CE5E5
:102FF000D80709F476C008F07FC0809156028BC0D4
:10300000CB3FECE5DE0709F44FC018F5C3318CE582
:10301000D80709F47DC078F4C131ECE5DE0709F486
:1030200073C0C231DC4509F0A2C00E94641E8091C9
:1030300056028F7733C0C5318CE5D80709F472C0CA
:1030400008F486C0CA3FDC4509F091C08091570260
:103050003EC0CF3FFCE5DF0709F45FC058F4CD3F29
:103060009CE5D90709F444C008F43FC08091570299
:1030700082602DC0C130FDE5DF0709F475C008F49A
:103080005DC0C230DD4509F072C080E06EC0809145
:103090005602816003C0809156028061809356027F
:1030A00066C08091560211C0809157028260809361
:1030B00057025DC0809156028062F0CF8091560227
:1030C0008064ECCF8091560288608460E7CF816095
:1030D000EECF809156028E7FE1CF809156028D7F98
:1030E000DDCF80915602877FD9CF8091570218C0DB
:1030F000809157028D7FDBCF809156028F7ECECF9D
:10310000809156028F7DCACF809156028F7BC6CFA9
:1031100080915602877F8B7FC1CF809157028D7F30
:103120008E7FC5CF8091560282FB222720F991E045
:10313000922790FB82F990FB83F9B0CF80915702E0
:10314000982F909591708E7F892B90FB81F9AFCF4E
:103150000E94641E8091560287FB222720F991E08D
:10316000922790FB87F99ACF81E00E94B225809147
:103170005602909157020E9434250E94641E80E0FE
:1031800001C081E0DF91CF9108959093BB018093BE
:10319000BA010895E091BA01F091BB01309721F096
:1031A0000190F081E02D099480E00895EF92FF9264
:1031B0000F931F93CF93DF93E091BA01F091BB017E
:1031C0003097B1F18C010280F381E02D0995809157
:1031D000190282FF2DC080FF04C087EC96E00E9498
:1031E0002907E80118E081ECE82E86E0F82E8091AE
:1031F000190280FF0BC088811F928F93FF92EF927C
:103200000E94C2070F900F900F900F9011502196BF
:103210001111EDCF8091190280FF0AC08FEB96E06B
:10322000DF91CF911F910F91FF90EF900C942907A0
:10323000DF91CF911F910F91FF90EF900895209112
:10324000B8013091B9012817390771F09093B9018D
:103250008093B801E091BA01F091BB01309721F061
:103260000680F781E02D099408952091B6013091F0
:10327000B7012817390771F09093B7018093B60111
:10328000E091BA01F091BB01309721F00084F18503
:10329000E02D0994089585B7806885BF85B780685B
:1032A00085BF089508950C9452190C9453190C94E9
:1032B00052190C9452190E944B190E9457190C94E0
:1032C000551981E008950E948F260E946C0C0E947F
:1032D00011270E943B120C945919CF93C82F80914B
:1032E000190282FF1EC080FF04C080EE96E00E949B
:1032F00029078091190280FF0CC01F92CF938BED9C
:1033000096E09F938F930E94C2070F900F900F90AB
:103310000F908091190280FF04C089ED96E00E9411
:1033200029078C2FCF910C94C108AF92BF92CF92F6
:10333000DF92EF92FF920F931F93CF93DF93CDB75E
:10334000DEB72A970FB6F894DEBF0FBECDBF0E943E
:10335000C00C0E946119811111C08FEF89838A838B
:103360001B820E9498268160782F9D838C834981DF
:103370005A816B818D810E942B1A40C08DEBA82E43
:1033800081E0B82E00E010E0C02E802F0E94200CBB
:10339000E82EF501D1905F01D82631F40F5F1F4F61
:1033A0000430110589F7D9CF8091190281FD0E945F
:1033B000260C80E0FF24F3949D2D9F21D1F08E8375
:1033C000CF82EF2081E009F480E088870E94982670
:1033D0008160782F9A8789874E815F8168858A8589
:1033E0000E942B1AF801E354FE4F8081F826F082E8
:1033F00005C08F5FFF0C8430F9F6D0CF0E94CA1849
:103400009091BC018917B1F00E94CA188093BC0149
:103410002A960FB6F894DEBF0FBECDBFDF91CF91D5
:103420001F910F91FF90EF90DF90CF90BF90AF90E2
:103430000C946D192A960FB6F894DEBF0FBECDBF5F
:10344000DF91CF911F910F91FF90EF90DF90CF9080
:10345000BF90AF900895CF93DF93CDB7DEB72B9792
:103460000FB6F894DEBF0FBECDBF4F835887698774
:103470007A878B87DE01119686E0FD0111928A958D
:10348000E9F785E0FE01379601900D928A95E1F704
:1034900049815A816B817C818D819E810E9434217A
:1034A0002B960FB6F894DEBF0FBECDBFDF91CF9144
:1034B0000895FC01808191810E9406240895CF9394
:1034C000882309F41CC1C82F8238C1F40E94CA188D
:1034D00081FD15C169E380913D0190913E010E94FB
:1034E000EA250E9496242FEF81EE94E0215080403F
:1034F0009040E1F700C0000069E319C0833801F58E
:103500000E94CA1880FDFBC063E580913D01909147
:103510003E010E94EA250E9496242FEF81EE94E05E
:10352000215080409040E1F700C0000063E58091A9
:103530003D0190913E010E94EC25CF910C94962480
:103540008438C1F40E94CA1882FDD9C067E4809112
:103550003D0190913E010E94EA250E9496242FEFA2
:1035600081EE94E0215080409040E1F700C00000DF
:1035700067E4DDCF8CEF8C0F813A68F48C2F0E94CA
:10358000D6298111BCC06C2F80913D0190913E01E4
:103590000E94EA25D2CF80E28C0F883048F4C770B1
:1035A00081E001C0880FCA95EAF70E944824C5CF80
:1035B0008BE58C0F833078F4C53A29F0C63A31F0A8
:1035C00083E890E005C081E890E002C082E890E0E6
:1035D000CF910C941F1988E58C0F873108F08FC0AC
:1035E000C83A09F445C0C93A09F445C0CA3A09F4D1
:1035F00045C0CB3A09F445C0CC3A09F445C0CB3BB1
:1036000009F445C0CC3B09F445C0CD3A09F445C0A6
:10361000C03B09F445C0CE3A09F445C0CF3A09F49D
:1036200045C0C13B09F445C0C23B09F445C0C33B9A
:1036300009F445C0C43B09F445C0C53B09F445C085
:10364000C63B09F445C0C73B09F445C0C83B09F473
:1036500045C0C93B09F445C0CD3B09F445C0CE3B4C
:1036600009F445C0CA3B09F445C080E090E044C07D
:1036700082EE90E041C089EE90E03EC08AEE90E09C
:103680003BC085EB90E038C086EB90E035C083EB23
:1036900090E032C084EB90E02FC087EB90E02CC02C
:1036A0008CEC90E029C08DEC90E026C083E891E09E
:1036B00023C08AE891E020C082E991E01DC084E93E
:1036C00091E01AC081E292E017C083E292E014C058
:1036D00084E292E011C085E292E00EC086E292E0C0
:1036E0000BC087E292E008C08FE690E005C080E75B
:1036F00090E002C08AE292E0CF910C943519CF910C
:103700000895882309F45BC0682F823879F40E94F9
:10371000CA1881FF54C069E380913D0190913E0138
:103720000E94EA250E94962469E310C08338B1F410
:103730000E94CA1880FF43C063E580913D019091CB
:103740003E010E94EA250E94962463E580913D0196
:1037500090913E010E94EC250C949624843879F4D3
:103760000E94CA1882FF2BC067E480913D019091AE
:103770003E010E94EA250E94962467E4E7CF8CEF81
:10378000860F813A18F380E2860F883048F467701C
:1037900081E001C0880F6A95EAF70E944E24DCCFD1
:1037A0008BE5860F833020F480E090E00C941F19A5
:1037B000685A673120F480E090E00C943519089540
:1037C000CF93C82F0E945F1AC93349F42FEF87EEB9
:1037D00093E0215080409040E1F700C000008C2F22
:1037E000CF910C94811B882321F00E9448240C94D3
:1037F00096240895882321F00E944E240C94962448
:103800000895CF92DF92EF92FF920F931F93CF9381
:10381000DF937C01062FC72FFC01158112951F70C5
:10382000D281D1110E9468240E943E24882379F01D
:10383000DD2369F080E2800F883048F082E00E944A
:10384000E0240E943E2491E0D82ED92601C0D12C3C
:10385000CC2EC2948FE0C8228C2D90E0FC01E6595A
:10386000FF4F0C940D328C2F807FCF70882311F086
:10387000C295C07FDD2399F0CC2309F482C180E298
:10388000800F883010F0011104C08C2F0E94482452
:1038900003C08C2F0E945B240E94962472C1802F4B
:1038A0000E94811BCC2309F491C180E2800F8830F3
:1038B00010F0011104C08C2F0E944E2403C08C2FE5
:1038C0000E9461240E94962481C18C2F807FCF703A
:1038D000803211F0C295C07F002319F00130C9F089
:1038E00022C0DD2371F0112341F0113031F40E9428
:1038F0007B248C2B0E94832469C10E947B248C2B07
:103900001DC0112319F0113009F460C10E948C24EC
:1039100025C0DD2321F0163008F058C10EC0153047
:1039200008F054C11BC0DD2361F0112331F0F70111
:10393000858180FF26C18F7085838C2F0E94F31BA9
:1039400045C1112359F0093309F02CC1FFEF27EECF
:1039500083E0F15020408040E1F722C18C2F0E948B
:10396000FA1B34C18C2F86958695837019F08130AF
:1039700061F02CC1DD2321F0802F9C2F937002C0B9
:1039800080E090E00E941F1929C1DD2321F0802FE3
:103990009C2F937002C080E090E00E9435191EC1F8
:1039A0008C2F837009F045C0D11114C1402F42956E
:1039B00046954770440F440F602F6F70862F90E03C
:1039C000A0E0B0E0042E04C0880F991FAA1FBB1FFF
:1039D0000A94D2F704FF10C00FE010E020E030E0BE
:1039E00004C0000F111F221F331F4A95D2F7009504
:1039F00010952095309503C000E010E09801C69521
:103A0000C695C370BC01CD01602B712B822B932B0B
:103A1000C23049F058F4C13019F00E948522DAC052
:103A20000E947322D7C00E949722D4C00E947122A4
:103A3000D1C0DD2319F08C2F817001C086958823B9
:103A400009F4C8C0402F429546954770440F440F73
:103A5000602F6F70862F90E0A0E0B0E0042E04C0CD
:103A6000880F991FAA1FBB1F0A94D2F704FF10C02A
:103A70000FE010E020E030E004C0000F111F221F13
:103A8000331F4A95D2F7009510952095309503C0C5
:103A900000E010E09801C695C695C370BC01CD0149
:103AA000602B712B822B932BC23049F058F4C1301C
:103AB00019F00E944A238EC00E9438238BC00E94B6
:103AC0005C2388C00E94AB2285C0CF70DD2339F013
:103AD0008C2F0E94D122802F0E94F31B7BC0802F4D
:103AE0000E94FA1B8C2F0E94F22274C0023F01F147
:103AF00028F4003F41F0013FA1F03FC0033FF9F03F
:103B0000043F39F13AC0DD2341F0153008F05EC0C2
:103B10008C2F8F710E94172359C0163008F056C0A1
:103B2000F7CFDD2339F08C2F8F710E94D1224EC048
:103B3000DD23C9F38C2F8F710E94F22247C0DD2351
:103B400029F08C2F8F710E94BC2240C00E94B722A6
:103B50003DC0DD2349F0CF718C2F0E94D12263E05C
:103B60008C2F0E94CB2432C081E00E94E0241230CE
:103B700068F182E00E94E02429C0DD2331F01123A6
:103B800091F2802F0E945F1A21C0112399F209330C
:103B900049F49FEFE7EEF3E09150E040F040E1F7A9
:103BA00000C00000802F0E94811B10C04C2F4F705E
:103BB000602FC7010E9471090E94E2210FC04C2FA3
:103BC0004F70602FC7010E94740908C088EF8C0DE8
:103BD000843020F40E94CA180E94C108DD20C9F078
:103BE0000E943A2480FD15C0F70112820E943424FD
:103BF0000E94D122C7010E94121E0E943424DF912C
:103C0000CF911F910F91FF90EF90DF90CF900C9488
:103C1000F222DF91CF911F910F91FF90EF90DF90F3
:103C2000CF9008950F931F93CF93DF93EC0198816A
:103C300089812B813C81232B31F08F3F31F481E04E
:103C40009F3F19F403C081E001C080E080FD13C0F4
:103C5000CE010E94E008882371F0688179818A8111
:103C60000E9411248C010E946E230E945F22B801E1
:103C7000CE010E94011CDF91CF911F910F910895F9
:103C8000882321F00E945B240C94962408958823B5
:103C900021F00E9461240C94962408950E946824C7
:103CA0000E9478240E94962480E090E00E941F19D0
:103CB00080E090E00C94351980913D0190913E0197
:103CC0000E94EE250C944E1E0E9455240C945C1EFE
:103CD000E92FE295EF704E2F50E0FA013297EE3067
:103CE000F105B0F4E658FF4F0C940D32803F91F08F
:103CF00018F4883E68F40EC0843F51F40BC0883E2F
:103D000048F0813F29F406C093FB882780F9089585
:103D100080E0089581E008950E9406240E94681EB4
:103D20000895CF93DF9300D000D01F92CDB7DEB7B8
:103D30000F900F900F900F900F90DF91CF910895FB
:103D4000CF93DF9300D000D000D0CDB7DEB726965A
:103D50000FB6F894DEBF0FBECDBFDF91CF910895AF
:103D60001F93CF93DF93C091C20116E08091C301EE
:103D7000C81799F0D0E01C9FF0011D9FF00D112491
:103D8000EC53FE4F40815181628173818481958122
:103D90000E94A01E2196C770E9CFDF91CF911F919D
:103DA00008954091F4015091F5016091F6017091F0
:103DB000F7018091F8019091F9010C94A01ECF9326
:103DC0008091F90182958F7009F05FC08091F601B2
:103DD000882309F45AC08091C201B091C301709147
:103DE000F401A091F5014091F7015091F80191E0A3
:103DF0007F3F09F090E0692FC6E08B1709F445C0BA
:103E00004115510521F0AF3F21F020E003C021E032
:103E100001C0262F90E020FD35C0C89FF001C99F4A
:103E2000F00D1124EC53FE4F21812A132BC0208169
:103E3000271328C02281211125C023813481241712
:103E4000350710F421503109241B350B283C31056E
:103E5000C8F42091F9012F7020612093F90126E028
:103E6000289FF001299FF00D1124E753FE4F808118
:103E70008F708061808384EF91E00E94121ECF9149
:103E80000C94B01E01968770B8CFCF910895AF9271
:103E9000BF92CF92DF92EF92FF920F931F93CF9337
:103EA000DF93CDB7DEB761970FB6F894DEBF0FBED4
:103EB000CDBF8C0185E0F801DE011D9601900D92C9
:103EC0008A95E1F7D8014C9111965C911197129661
:103ED000EC903091F4016091F5018091F70190919F
:103EE000F801009731F06F3F31F421E03F3F19F4C2
:103EF00003C021E001C020E0B22FB170BB2E20FD35
:103F000060C1F801C380D480A090F601AA2009F412
:103F1000EEC02091F901C816D90628F0D601A81BD9
:103F2000B90BCD0104C0809590958C0D9D1DFF248B
:103F3000F394883C910580F0F12C207F09F09CC01F
:103F40007C2DD98AC88A6E2D89890E94911E84EFA2
:103F500091E00E94121E2DC1822F807F09F054C073
:103F6000561314C0431312C0FE2CE1100FC02F7063
:103F700020612093F9010E94D11E84EF91E00E94FC
:103F8000121E8091F901F80185835CC1CD2831F0C2
:103F90005F3F31F481E04F3F19F403C081E001C07D
:103FA00080E080FD03C081E08E2502C080E090E0CB
:103FB000F82FF170FF2E80FF1CC08091C20120916C
:103FC000C30136E0821709F41AC190E0389FF0016E
:103FD000399FF00D1124EC53FE4F6181561306C03A
:103FE0006081461303C06281E61203C001968770A8
:103FF000E9CFFE2CEE2009F425C18091F901816002
:104000008093F901F12C1EC1561309C0431307C058
:10401000E11005C08091F901F8018583A4C04D87A6
:104020005E878D859E850E948C1E882379F1EE2007
:1040300069F12091F901822F82958F7090E00297AB
:1040400074F08091F4019091F50198878F8319861F
:10405000DB86CA862C87CE0107960E94121E86E058
:10406000F801A4EFB1E001900D928A95E1F70E946A
:10407000DF1E0E94D11E0DC0561771F04D875E875E
:104080008D859E850E948C1E81111AC0C8010E94D8
:10409000121EFF24F394D6C04313F0CFE110EECFED
:1040A0008091F901F8018583C8010E94121E86E003
:1040B000E4EFF1E0DF011D928A95E9F7FA2CC2C026
:1040C000EE2021F32091F901822F82958F7090E0EC
:1040D00002972CF28091F4019091F5019A838983E3
:1040E0001B82DD82CC822E83CE010196B6CFC8160C
:1040F000D90628F0F601E81BF90BCF0104C0809522
:1041000090958C0D9D1D883C910548F0F12C7C2DDF
:10411000D98AC88A6E2D89890E94911E4AC0FE2CB8
:10412000EE2009F4B3CF561333C0431331C02091AE
:10413000F90120FD24C0822F82958F70482F50E016
:1041400041155105E1F0D80115962C9315974F3084
:10415000510549F08F5F982F9295907F822F8F7035
:10416000892B15968C93C8010E94121E86E0F801D7
:10417000A4EFB1E001900D928A95E1F73DC086E091
:10418000F801A4EFB1E001900D928A95E1F75AC0D1
:104190004D875E878D859E850E948C1E81115FCF25
:1041A0008091F90181608093F901C8010E94121E7B
:1041B00049C0E4EFF1E086E0DF011D928A95E9F75E
:1041C0001BC0EE2009F462CF4D875E878D859E85EA
:1041D0000E948C1EF82E882309F458CF86E0F8013F
:1041E000A4EFB1E001900D928A95E1F784EF91E0A0
:1041F0000E94591A0E94DF1E0E94D11E23C04D87C3
:104200005E878D859E850E940624292F22952F701A
:10421000223028F49F7039F0811105C00BC0243082
:1042200028F49F7049F4805E883020F0C8010E9415
:10423000121EBF2CFB2C06C0D80115969C91907FB6
:1042400091F7F8CF8F2D61960FB6F894DEBF0FBEB1
:10425000CDBFDF91CF911F910F91FF90EF90DF9035
:10426000CF90BF90AF9008951F93CF93DF93CDB7BA
:10427000DEB72C970FB6F894DEBF0FBECDBF4F83CD
:10428000588769877A878B879C87CE0107960E941B
:10429000471F8823D1F09F8188852A853B85232B62
:1042A00031F08F3F31F481E09F3F19F403C081E08A
:1042B00001C080E080FD47C04F81588569857A85BF
:1042C0008B859C850E94A01E3EC086E0FE0137962D
:1042D000DE01119601900D928A95E1F7FF81E88544
:1042E0006A857B856115710531F0EF3F31F481E01E
:1042F000FF3F19F403C081E001C080E080FD23C0CE
:104300002091C30130E0C90101968770992740913F
:10431000C20150E084179507F1F1F983EA837D83A8
:104320006C8396E0929FD001939FB00D1124AC5303
:10433000BE4FFE01319601900D929A95E1F7809360
:10434000C3010E94B01E16E08091C2019091C3018A
:10435000891771F1189FC00111248C539E4F0E9440
:10436000471F882329F1E091C2011E9FF00111240B
:10437000EC53FE4F4081518162817381848195812C
:104380000E94A01E8091C20190E00196877099273B
:104390008093C201D9CF0E94641E1092C301109273
:1043A000C201E4EFF1E086E0DF011D928A95E9F7B2
:1043B0002C960FB6F894DEBF0FBECDBFDF91CF9124
:1043C0001F910895EF92FF920F931F93CF93DF9366
:1043D0008C01892B09F46CC0F12CEE24E394E801E4
:1043E0002196F8018491843740F4843008F051C05C
:1043F000813081F0823019F15BC0853709F444C007
:10440000A8F19CE7980F903708F052C08F770E9470
:10441000811B41C00E5F1F4FFE01849190E2980FF7
:10442000983050F48770FE2D01C0FF0F8A95EAF78F
:104430008F2F0E946B2414C00E945F1A2DC00E5F44
:104440001F4FFE01849190E2980F983060F48770BE
:10445000FE2D01C0FF0F8A95EAF78F2F0E9471246D
:104460000E94962419C00E94811B16C00E5F1F4F28
:10447000FE01C491CC2381F08FE99FE00197F1F711
:1044800000C00000C150F6CF0E5F1F4FFE01F49038
:1044900003C00E945F1A8E018F2D882309F49FCFDD
:1044A000EFE9FFE03197F1F700C000008150F5CF50
:1044B000DF91CF911F910F91FF90EF900895089594
:1044C00008950C9460220C9461220E9463226093F0
:1044D00008027093090280930A0290930B020C94D5
:1044E0004E1E0C9465220F931F93009108021091A9
:1044F000090220910A0230910B02602B712B822B52
:10450000932B1F910F910C9465220F931F93009191
:1045100008021091090220910A0230910B026023D7
:104520007123822393231F910F910C9465220F9383
:104530001F93009108021091090220910A02309104
:104540000B0260277127822793271F910F910C94EC
:1045500065220C9460220E94A92260930402709349
:10456000050280930602909307020C944E1E60E0B1
:1045700070E0CB010C94AB220F931F9341E050E00D
:1045800060E070E08A019B0104C0000F111F221F30
:10459000331F8A95D2F7C901B8011F910F910C946E
:1045A000AB220F931F9341E050E060E070E004C045
:1045B000440F551F661F771F8A95D2F7809104021A
:1045C00090910502A0910602B09107028A019B0119
:1045D000082B192B2A2B3B2BC901B8011F910F91D6
:1045E0000C94AB220F931F9341E050E060E070E029
:1045F00004C0440F551F661F771F8A95D2F7409558
:104600005095609570958091040290910502A0915B
:104610000602B09107028A019B01082319232A236D
:104620003B23C901B8011F910F910C94AB220F934A
:104630001F9341E050E060E070E004C0440F551F5C
:10464000661F771F8A95D2F7809104029091050228
:10465000A0910602B09107028A019B010827192741
:104660002A273B27C901B8011F910F910C94AB2257
:104670000F931F93009104021091050220910602EE
:1046800030910702602B712B822B932B1F910F917E
:104690000C94AB220F931F9300910402109105021A
:1046A0002091060230910702602371238223932315
:1046B0001F910F910C94AB220F931F930091040252
:1046C00010910502209106023091070260277127A0
:1046D000822793271F910F910C94AB220895990F75
:1046E000990F890FE82FE695E695E695877051E0DA
:1046F00001C0550F8A95EAF785E0E89FF001112483
:10470000E650FE4F20E030E070E04081CB01022E09
:1047100002C0969587950A94E2F781708195842767
:104720008523842781932F5F3F4F2530310569F71B
:104730000895990F990F890F682F6695669566956C
:10474000982F977085E0689FB001112440E050E0F9
:1047500080E0FB01E40FF51FE650FE4F208130E0C2
:10476000092E02C0369527950A94E2F72170332767
:10477000042E01C0220F0A94EAF7822B4F5F5F4F8D
:104780004530510531F70895BF92CF92DF92EF92F5
:10479000FF920F931F93CF93DF938C01C09004027D
:1047A000D0900502E0900602F09007028091080286
:1047B00090910902A0910A02B0910B02C82AD92A4D
:1047C000EA2AFB2ACFE1D0E0D701C6010C2E04C0B3
:1047D000B695A795979587950A94D2F780FD04C062
:1047E000219790F7B12C07C0BC2EB8018C2F0E94E6
:1047F00091090197A9F38B2DDF91CF911F910F9113
:10480000FF90EF90DF90CF90BF900895CF93DF930C
:10481000EC010E94C423BE010E949109DF91CF9157
:1048200008951F93CF93DF93EB019091C1019923DA
:1048300021F0CB010E94062413C0882349F0CB014C
:104840000E94C423182F682FCE010E946F2304C03A
:10485000CB010E949923182FBE01812F0E9491093C
:10486000DF91CF911F91089580910C0285958595D8
:104870008595089580910C028770089590910C029F
:10488000977081E009F480E00895809118020895FE
:1048900090911802892B8093180208958095909129
:1048A000180289238093180208951092180208951F
:1048B00080911702089590911702892B8093170217
:1048C0000895809590911702892380931702089587
:1048D00010921702089590911602892B8093160268
:1048E0000895809590911602892380931602089569
:1048F00010921602089580910D02089508950C9467
:104900007E240C947F2490910D02981721F08093BF
:104910000D020C948124089580910D02882329F0C2
:1049200010920D0280E00C9481240895E0913D01E5
:10493000F0913E01809118028083E0913D01F09159
:104940003E01908180911702892B8083E0913D0187
:10495000F0913E01908180911602892B8083809195
:104960000D02882381F0E0913D01F0913E0190819C
:10497000892B808380913D0190913E010E94B72553
:1049800081110E948C2480913D0190913E010C94F4
:10499000D6180C947E2498E0899F90011124262B30
:1049A00020930C020E94D12280910C02859585955E
:1049B00085950C94C92410920C0280E00C94C924B3
:1049C00020910C028095822380930C02982F97707F
:1049D00079F430E0482F082E000C550B24173507CA
:1049E00039F08595859585950E94F2220C94DB24FB
:1049F000089590938F0180938E0108958295982F4A
:104A0000937344E0949F900111248C7C8695869545
:104A1000282B822F8575880F2A7A2695822B089558
:104A200080E090E00E942E3221E08C3E9E4F09F003
:104A300020E0822F089582E090E00C94203283E001
:104A400090E00C942032CF9384E090E00E942032DA
:104A5000C82F81E290E00E9420322C2F30E0A90183
:104A6000582BCA01CF910895CF93C92F682F84E0A6
:104A700090E00E9434326C2F81E290E0CF910C9450
:104A80003432AB01BC018FE090E00C944632AB01B4
:104A9000BC0183E190E00C94463260E070E0CB0111
:104AA0000C94472560E070E0CB010E9441250C94F6
:104AB0004D256CEE7EEF80E090E00E94523260E087
:104AC00082E090E00E94343260E083E090E00E9457
:104AD0003432109208021092090210920A021092C7
:104AE0000B0260E084E090E00E94343260E081E2FA
:104AF00090E00E94343260E085E090E00E94343221
:104B000060E086E090E00E9434326FEF87E090E052
:104B10000E94343240E050E0BA0188E090E00E9408
:104B2000463260E08DE090E00E94343240E050E098
:104B3000BA0188E190E00E94463260E087E190E0AF
:104B40000E94343240E050E0BA018CE190E00E94D3
:104B5000463260E080E290E00E9434320C945225AC
:104B60000C945925682F8EE090E00C943432FC01AF
:104B7000329697E080E0915029F021912223D9F3D9
:104B80008F5FF9CF08959C01FC0132969FEF80E082
:104B90004191461789F09F3F19F4411101C0982FA8
:104BA0008F5F8630A9F79F3F39F0F901E90FF11DBA
:104BB00097FDFA956283089508959C012A5F3F4FFF
:104BC000FC014281461301C01282019682179307AD
:104BD000B9F708950C94C3250C94DD25029626E0C0
:104BE000FC0111922A95E9F7089508950C94F52592
:104BF0000C94F525CF930E94F8250E94C00C0E94CA
:104C0000F625C0E08C2F0E94200C811104C0CF5FDC
:104C1000C430C1F701C081E0CF9108950C94F5250F
:104C20000C940E260E94102680915C02843009F4B8
:104C300039C010921A0220E488E190E00FB6F8948F
:104C4000A895809360000FBE2093600080E00E94D2
:104C5000C1080E94971180911B0281110AC081E056
:104C600080931B0280912C02817080931C020E9411
:104C700005130E94102683B7817F846083BF83B7AA
:104C8000816083BF7894889583B78E7F83BF0FB68A
:104C9000F894A895809160008861809360001092DC
:104CA00060000FBE08950C94F5250E94641E0E94BA
:104CB000CA180E94C10810921B0280911C02811127
:104CC0000E94A0120E9475110C9453261F920F92FD
:104CD0000FB60F9211248F939F93AF93BF93809140
:104CE0001A02811113C08091520290915302A09137
:104CF0005402B09155024196A11DB11D80935202FC
:104D000090935302A0935402B0935502BF91AF9178
:104D10009F918F910F900FBE0F901F90189582E07A
:104D200084BD93E095BD9AEF97BD80936E00089582
:104D30002FB7F8948091520290915302A09154029F
:104D4000B09155022FBF08952FB7F8946091520289
:104D50007091530280915402909155022FBF089593
:104D6000CF92DF92EF92FF920F931F932FB7F89499
:104D70004091520250915302609154027091550239
:104D80002FBF6A017B01EE24FF248C0120E030E07C
:104D9000C016D106E206F30610F4415051099A01FB
:104DA000281B390BC9011F910F91FF90EF90DF90E5
:104DB000CF90089578941F920F920FB60F921124FE
:104DC0008F939F93AF93BF93809152029091530220
:104DD000A0915402B09155020196A11DB11D80937E
:104DE000520290935302A0935402B0935502BF9184
:104DF000AF919F918F910F900FBE0F901F901895BC
:104E000087E797E790930108809300089AE088E18C
:104E10000FB6F894A895809360000FBE9093600041
:104E2000FFCF0E941025811102C00E94B0250E9470
:104E30001B25809319020E9423259093570280938B
:104E400056020E941F25682F70E080E090E00C94CD
:104E50007122CF93C82F1F928F9389EF96E09F9373
:104E60008F930E94C20781E090E0A0E0B0E0BC0117
:104E7000CD0104C0660F771F881F991FCA95D2F70E
:104E80000E9471220F900F900F900F90CF910C9471
:104E9000641ECF93DF938B3109F4F9C108F08FC101
:104EA0008B3009F4B2C108F065C1863009F4B0C195
:104EB00020F4853009F4BEC16CC2873009F4CCC13E
:104EC000883009F066C28BE39CE00E9429078CE8D9
:104ED0009BE00E9429070E941F251F928F9389E85B
:104EE0009BE09F938F930E94C20787E89BE00E94FC
:104EF00029070E941B25C82F84E79BE00E942907F1
:104F00001F92CF938FE69BE09F938F930E94C207DF
:104F10008DE69BE00E94290783E69BE00E9429071B
:104F20008C2F81701F928F9380E69BE09F938F93CD
:104F30000E94C2078EE59BE00E94290784E59BE062
:104F40000E942907C1FB882780F91F928F9381E572
:104F50009BE09F938F930E94C2078FE49BE00E9487
:104F6000290783E49BE00E942907C2FB882780F978
:104F70001F928F9380E49BE09F938F930E94C207C0
:104F80008EE39BE00E94290785E39BE00E942907AE
:104F9000C3FBCC27C0F91F92CF9382E39BE09F9382
:104FA0008F930E94C20780E39BE00E9429070E9422
:104FB0002325EC018CE19BE00E942907DF93CF932E
:104FC00087E19BE09F938F930E94C20785E19BE05E
:104FD0000E9429078CEF9AE00E9429078C2F81708C
:104FE0001F928F9389EF9AE09F938F930E94C2073D
:104FF0008DB79EB780960FB6F8949EBF0FBE8DBF3B
:1050000087EF9AE00E94290780EE9AE00E94290724
:10501000C1FB882780F91F928F938DED9AE09F93B3
:105020008F930E94C2078BED9AE00E94290789ECBA
:105030009AE00E9429078D2F81701F928F9386EC32
:105040009AE09F938F930E94C20784EC9AE00E949B
:10505000290782EB9AE00E942907D695D1701F920A
:10506000DF938FEA9AE09F938F930E94C2078DEAA5
:105070009AE00E9429078BE99AE00E942907C2FB67
:10508000882780F91F928F9388E99AE09F938F93E6
:105090000E94C20786E99AE00E94290784E89AE004
:1050A0000E942907C3FB882780F91F928F9381E80C
:1050B0009AE09F938F930E94C2078FE79AE00E9425
:1050C000290785E79AE00E942907C4FB882780F911
:1050D0001F928F9382E79AE09F938F930E94C2075B
:1050E00080E79AE00E9429078EE59AE00E9429074E
:1050F000C5FB882780F91F928F938BE59AE09F93D9
:105100008F930E94C20789E59AE00E9429078DE3E8
:105110009AE00E942907C6FB882780F91F928F9387
:105120008AE39AE09F938F930E94C2078DB79EB740
:1051300080960FB6F8949EBF0FBE8DBF88E39AE0AD
:105140000E94290780E39AE00E942907C7FBCC2729
:10515000C0F91F92CF938DE29AE09F938F930E94A4
:10516000C2078BE29AE00E9429070F900F900F90E0
:105170000F9049C0803109F4B4C020F48E3009F496
:105180009AC007C1863109F4C7C0893109F001C14D
:105190008EE598E00E94290783E398E00E942907A2
:1051A00089EF97E00E9429078FEB97E00E9429077B
:1051B00082E997E00E94290787E697E08FC08A324C
:1051C000E1F060F4873209F4E0C028F48E3108F48D
:1051D000E0C08D51DBC0893269F1DBC0833448F413
:1051E0008A3308F0D0C0853309F4CFC0883369F022
:1051F000D0C0833409F4C9C0CCC08AE29CE00E94CC
:1052000029070E94B025C1E0C9C088E898E066C0BF
:1052100080911902817F8E7F809319028DE698E03C
:105220000E94290786E29CE00E94290781E0809382
:105230001D02E9CF0E94641E8AE09CE00E942907BB
:105240009FEF23ED80E3915020408040E1F700C0C4
:1052500000000E940027D7CF80911902C82FC09567
:10526000C170C0FB80F980931902CC2329F08EEF26
:105270009BE00E94290792C081EF9BE00E942907D2
:1052800080911902897F877F80931902BCCF90910A
:10529000190291FBCC27C0F981E0C827892FC0FBF8
:1052A00081F980931902CC2319F084EE9BE029C088
:1052B00086ED9BE013C09091190292FBCC27C0F9B8
:1052C00081E0C827892FC0FB82F980931902CC2383
:1052D00019F087EC9BE015C087EB9BE00E94290743
:1052E00092CF9091190293FBCC27C0F981E0C82797
:1052F000892FC0FB83F980931902CC2351F08BEAEC
:105300009BE00E9429078091190281608093190215
:1053100045C08EE99BE0E2CF89E597E00E9429072E
:105320000E94CA181F928F938FE397E09F938F93E9
:105330000E94C207809149011F928F9388E297E0F3
:105340009F938F930E94C20780912A021F928F938E
:1053500085E197E09F938F930E94C2070E94A42645
:105360009F938F937F936F938EEF96E09F938F938E
:105370000E94C2078DB79EB742960FB6F8949EBFA3
:105380000FBE8DBF40CF895301C080E00E94292706
:105390003ACF8CE99BE00E942907C0E08C2FDF9177
:1053A000CF91089580E008950C94D229CF93C82F0F
:1053B00080911D02882319F0813031F038C00E949D
:1053C00045248232B1F504C00E944524823261F442
:1053D0008C2F0E94D429811104C08C2F0E94492750
:1053E00024C081E090E021C08C2F0E94D22981113D
:1053F0001BC0C43189F018F4CB3029F010C0C93279
:1054000059F0C83361F48DE698E00E94290785EFD2
:1054100096E00E94290708C010921D020CC083EF7D
:1054200096E00E94290707C081E0817006C01092B3
:105430001D0280E002C080E0F8CFCF9108958091F6
:105440002902089508959FB7F894109220029FBFF3
:1054500090915C02943009F057C09091E9009F70E0
:105460003091EC00232F217030FD20E8922B23E0B7
:105470002093E9002091EB0020FF43C02091EE0033
:1054800027FF3FC020911E02222321F02091E80037
:1054900025FF37C010921E0226E03091E80035FD4E
:1054A00015C030915C02343061F53091EB0035FD70
:1054B00028C0215021F481E080931E0222C0EFE930
:1054C000FFE03197F1F700C00000E7CF8093F100D3
:1054D0008091E80085FD0AC08091E80080FFFCCF44
:1054E0008091E8008E778093E80006C08FB7F8942B
:1054F00021E0209320028FBF9F709093E90080E00D
:1055000008959F709093E9008FEF08950F931F9374
:10551000CF93DF9300D01F92CDB7DEB78C010E94EE
:10552000112D823011F0843021F584E089831B83B2
:105530000A8382E08093E9008FEF9091E800815028
:1055400095FD06C095ED9A95F1F700008111F5CF14
:105550008091E80085FF0DC040E050E063E070E01E
:10556000CE0101960E942E2D8091E8008E778093C7
:10557000E8000F900F900F90DF91CF911F910F9146
:105580000895CF93DF9300D01F92CDB7DEB720915F
:105590005C02243031F523E02983805891099B83F4
:1055A0008A8382E08093E9008FEF9091E800815038
:1055B00095FD06C095ED9A95F1F700008111F5CFA4
:1055C0008091E80085FF0DC040E050E063E070E0AE
:1055D000CE0101960E942E2D8091E8008E77809357
:1055E000E8000F900F900F90DF91CF910895CF9327
:1055F000DF93EC010E94112D823011F0843039F5D7
:1056000081E08093E9008FEF9091E800815095FD53
:1056100006C095ED9A95F1F700008111F5CF8091C4
:10562000E80085FF14C040E050E068E070E0CE0183
:105630000E942E2D8091E8008E778093E80088E00C
:10564000FE01A1E2B2E001900D928A95E1F7DF91AF
:10565000CF9108958BE69CE00E94290780915B0220
:10566000811109C00E94BF2E0E941C2F8091E20070
:1056700084608093E200089587E69CE00E942907F9
:1056800010925B02089583E69CE00C9429078FE555
:105690009CE00C9429078BE59CE00E9429070C9460
:1056A000552620911F022F5F822F62E30E94CB318B
:1056B000992319F020931F02089510921F028091E0
:1056C0002002882371F180915C02843041F5809141
:1056D000E9008F702091EC00922F917020FD90E8EE
:1056E000892B93E09093E9009091EB0090FF14C018
:1056F0009091EE0097FF10C09091E80095FF03C0D5
:105700001092F100F9CF9091E80090FF05C09091C0
:10571000E8009E779093E8008F708093E9001092E4
:105720002002089542E061EC81E00E94382E42E2BE
:1057300061EC82E00E94382E42E261EC83E00C943E
:10574000382E80915E02833009F460C030F48130DD
:1057500071F0823009F499C008958A3009F485C047
:105760008B3009F46BC0893009F0A7C020C080914C
:105770005D02813A09F0A1C08091E800877F8093A3
:10578000E8008091610290916202892B21F468E027
:1057900081E292E003C060E080E090E070E00E946F
:1057A000792D8091E8008B778093E80008958091AF
:1057B0005D02813209F081C08091610290916202A4
:1057C000029708F07AC08091E800877F8093E80014
:1057D0008091E80082FD05C080915C028111F8CFC4
:1057E0006CC02091F3008091F20090E0922B029720
:1057F00029F48091F1008B7F813021F48091F100B8
:10580000809329028091E8008B7753C080915D02DC
:10581000813A09F052C08091610290916202892B15
:1058200009F04BC08091E800877F8093E800809169
:10583000E80080FFFCCF8091490136C080915D0275
:105840008132D9F58091610290916202892BA9F58C
:105850008091E800877F8093E8000E946D2E809100
:105860005F02809349010C94641E80915D02813235
:1058700021F58091E800877F8093E8000E946D2EDB
:105880008091600280932A02089580915D02813A9E
:10589000A1F48091E800877F8093E8008091E80080
:1058A00080FFFCCF80912A028093F1008091E80074
:1058B0008E778093E8000C946D2E089584B7877FCF
:1058C00084BF0FB6F894A89580916000886180939A
:1058D0006000109260000FBE90E080E80FB6F89470
:1058E00080936100909361000FBE0E945B190E943B
:1058F000BF2E0E941C2F8091E20084608093E20002
:1059000083E29AE20E94F92478940E94B0310E94C6
:1059100063198FE391E00E94C5188AE49CE00E941D
:10592000290780915C02853089F486E49CE00E941E
:1059300029070E94122680915A02882391F30E941F
:10594000FA25882371F30E94182DEBCF0E94951938
:105950000E942713E6CF0C94AD2C292F3327233038
:105960003105C9F060F42130310581F02230310574
:1059700009F047C08BE590E023EA3CE046C02132C5
:10598000310511F12232310561F13BC082E190E035
:105990002EEF3CE03AC099278130910561F040F04C
:1059A0008230910559F0039761F5EFE6FCE008C0FD
:1059B000EFE9FCE005C0E3E8FCE002C0E5E7FCE05D
:1059C000849190E09F0121C063307105D0F4660F8F
:1059D000771FFB01E957FE4F2081318189E090E07C
:1059E00014C06330710568F4FB01EE0FFF1FEF5721
:1059F000FE4F20813181FB01E258FE4F808190E013
:105A000004C080E090E020E030E0FA0131832083A0
:105A1000089580915C02843011F081E0089582E065
:105A2000089580912B02811102C00C94092D0895D4
:105A300080E189BD82E189BD09B400FEFDCF80917E
:105A4000D8008F7D8093D8008091E00082608093A1
:105A5000E0008091E00081FDFCCF0895CF92DF92BD
:105A6000EF92FF920F931F93CF93DF93EC018B0183
:105A70007A010E948C2E811133C0E114F10439F0B7
:105A8000F70180819181081B190BC80FD91FC12C08
:105A9000D12C0115110519F18091E80085FD16C082
:105AA0008091E8008E778093E800E114F10449F0DA
:105AB000F70180819181C80ED91ED182C08285E014
:105AC0000FC00E948C2E882321F30AC089918093F5
:105AD000F10001501109FFEFCF1ADF0ADACF80E0A1
