:100000000C94DB060C9422070C9422070C94220714
:100010000C9422070C9422070C9422070C942207BC
:100020000C9422070C9422070C94A22D0C94742E8D
:100030000C941E250C9422070C9422070C94220782
:100040000C9422070C9422070C9422070C9422078C
:100050000C9422070C9477250C9422070C94220709
:100060000C9422070C9422070C9422070C9422076C
:100070000C9422070C9422070C9422070C9422075C
:100080000C9422070C9422070C9422070C9422074C
:100090000C9422070C9422070C9422070C9422073C
:1000A0000C9422070C9422070C942207DB12DE1218
:1000B000E312EA12EF12F412F912FE1203130813FC
:1000C0000D131213161319131C131F1322132913C4
:1000D00029132913F61AF61A281B281B751BA91CAD
:1000E000A91CA91C931B281C391C391C991CA91C70
:1000F000A91CA21C481D481D5A1D5A1D511D5A1DE0
:100100005A1D5A1D481D481D561D5A1D5A1D561D63
:10011000E12E082F0030082F0030542F772F0030A9
:10012000CE2FDD2F0400050006000700080009009F
:100130000A000B000C000D000E000F001000110053
:100140001200005716001900000000000100C35CF7
:10015000C45CC25CCA5CC95CC65CC55CC85CC75C8C
:100160000100010001000100005C015700000000D7
:100170000000000044454255473A206469736162BB
:100180006C65642E0A0044454255473A20656E610D
:10019000626C65642E0A007267626C69676874201D
:1001A00074696D65722064697361626C652E0A0002
:1001B0007267626C696768742074696D6572206526
:1001C0006E61626C65642E0A007267626C696768B2
:1001D000742073657420687376205B4E4F454550DC
:1001E000524F4D5D3A2025752C25752C25750A003A
:1001F0007267626C696768742073657420687376CF
:10020000205B454550524F4D5D3A2025752C257594
:100210002C25750A007267626C69676874206469CE
:100220007361626C65205B4E4F454550524F4D5D8A
:100230003A207267626C696768745F636F6E6669A3
:10024000672E656E61626C65203D2025750A00721F
:1002500067626C696768742064697361626C6520A9
:100260005B454550524F4D5D3A207267626C69673D
:1002700068745F636F6E6669672E656E61626C6538
:10028000203D2025750A007267626C6967687420DA
:10029000656E61626C65205B4E4F454550524F4D17
:1002A0005D3A207267626C696768745F636F6E663F
:1002B00069672E656E61626C65203D2025750A00B8
:1002C0007267626C6967687420656E61626C652034
:1002D0005B454550524F4D5D3A207267626C6967CD
:1002E00068745F636F6E6669672E656E61626C65C8
:1002F000203D2025750A007267626C69676874206A
:10030000746F67676C65205B454550524F4D5D3A91
:10031000207267626C696768745F636F6E66696795
:100320002E656E61626C65203D2025750A0072673E
:10033000626C69676874206D6F6465205B4E4F4521
:100340004550524F4D5D3A2025750A007267626C28
:1003500069676874206D6F6465205B454550524F36
:100360004D5D3A2025750A007267626C6967687492
:100370005F696E6974207267626C696768745F6335
:100380006F6E6669672E6D6F6465203D20302E208C
:1003900057726974652064656661756C7420766156
:1003A0006C75657320746F20454550524F4D2E0A71
:1003B000007267626C696768745F696E6974206552
:1003C00065636F6E666967206973206E6F74206560
:1003D0006E61626C65642E0A007267626C696768A0
:1003E000745F696E6974207374617274210A00729B
:1003F00067626C696768745F696E69742063616CB9
:100400006C65642E0A007267626C696768745F636A
:100410006F6E6669672E7370656564203D20256484
:100420000A007267626C696768745F636F6E666901
:10043000672E76616C203D2025640A007267626C2D
:10044000696768745F636F6E6669672E7361742095
:100450003D2025640A007267626C696768745F6397
:100460006F6E6669672E687565203D2025640A00F9
:100470007267686C696768745F636F6E6669672E20
:100480006D6F6465203D2025640A007267626C69A7
:100490006768745F636F6E6669672E656E61626C14
:1004A00065203D2025640A007267626C6967687484
:1004B0005F636F6E66696720454550524F4D3A0A3B
:1004C000007F3F1F643214643214783C1E1E140AED
:1004D000052223252628292A2C2D2F303233353684
:1004E000383A3B3D3E4042434547494A4C4E5051C5
:1004F000535557595A5C5E6062646668696B6D6FEC
:1005000071737577797B7D7F81838587898A8C8EEE
:1005100090929496989A9C9E9FA1A3A5A7A8AAACF6
:10052000AEAFB1B3B4B6B8B9BBBCBEBFC1C2C3C530
:10053000C6C7C9CACBCCCDCED0D1D2D2D3D4D5D6D2
:10054000D7D7D8D9D9DADADBDBDBDCDCDCDCDCDD05
:10055000DDDDDDDCDCDCDCDCDBDBDBDADAD9D9D8E9
:10056000D7D7D6D5D4D3D2D2D1D0CECDCCCBCAC981
:10057000C7C6C5C3C2C1BFBEBCBBB9B8B6B4B3B1B0
:10058000AFAEACAAA8A7A5A3A19F9E9C9A9896944B
:1005900092908E8C8A89878583817F7D7B79777520
:1005A00073716F6D6B6968666462605E5C5A5957FF
:1005B000555351504E4C4A4947454342403E3D3BBE
:1005C0003A3836353332302F2D2C2A292826252348
:1005D00022000101010101010101010202020202E6
:1005E00002020202030303030303030304040404DB
:1005F00004040405050505050606060606070707A3
:10060000070708080808090909090A0A0A0B0B0B59
:100610000C0C0C0D0D0D0E0E0E0F0F0F10101111F6
:10062000111212131314141515161617171818197A
:10063000191A1A1B1B1C1D1D1E1E1F2020212222E1
:10064000232424252626272829292A2B2C2D2D2E24
:100650002F30313232333435363738393A3B3C3D3E
:100660003E3F404142434445464748494A4C4D4E2F
:100670004F50515354555658595A5B5D5E5F6162F5
:1006800064656668696B6C6D6F7072737577787A84
:100690007B7D7E8082838587888A8C8E8F919395DF
:1006A00096989A9C9EA0A2A3A5A7A9ABADAFB1B303
:1006B000B5B7BABCBEC0C2C4C6C9CBCDCFD1D4D6E3
:1006C000D8DBDDDFE2E4E7E9EBEEF0F3F5F8FAFD85
:1006D000FF0A002530325820006B6579626F617225
:1006E000645F7265706F72743A20000A00253032C0
:1006F00058006B6579626F6172645F7365745F6CDB
:1007000065643A20003F00433E20004C25640A0007
:1007100074696D65725F72656164333228293A20AD
:100720002530346C580A006B6579626F6172645FC2
:1007300069646C653A2025580A006B6579626F61BF
:1007400072645F70726F746F636F6C3A2025580A21
:1007500000686F73745F6B6579626F6172645F6C60
:1007600065647328293A2025580A000A092D205368
:100770007461747573202D0A004743433A20352E67
:10078000342E30204156522D4C4942433A20322ECD
:10079000302E30204156525F415243483A20617614
:1007A00072350A004F5054494F4E533A204C55462B
:1007B000412045585452414B455920434F4E534FC9
:1007C0004C4520434F4D4D414E4420343039360A7C
:1007D000004255494C443A2022302E382E313932CD
:1007E0002D372D673434613961382D64697274791D
:1007F00022202831383A32323A3139204A756E2077
:1008000020392032303230290A005649443A20300B
:100810007846454544284A6F7368204A6F686E736E
:100820006F6E29205049443A2030783846373328B3
:10083000487562313629205645523A20307830309A
:1008400030310A00444553433A204D6163726F20B2
:10085000506164207769746820555342204875625E
:1008600020616E6420456E636F646572730A000ACE
:10087000092D2056657273696F6E202D0A000A09D2
:100880002D20436F6E736F6C65202D0A4553432FE7
:10089000713A09717569740A000A092D204D616762
:1008A0006963202D0A443A094465627567204D65E5
:1008B000737361676520546F67676C650A583A09FE
:1008C0004D6174726978204465627567204D6F646C
:1008D0006520546F67676C65202D2053686F772003
:1008E0006B65797072657373657320696E206D61D5
:1008F0007472697820677269640A4B3A094B6579AA
:10090000626F61726420446562756720546F676727
:100910006C65202D2053686F77206B657970726548
:100920007373207265706F72740A4D3A0944656280
:100930007567204D6F75736520546F67676C650A26
:10094000563A0956657273696F6E0A533A095374C1
:10095000617475730A433A09416374697661746519
:1009600020436F6E736F6C65204D6F64650A46316E
:100970002D4631303A0953776974636820746F20CB
:100980004C6179657220302D392028463130203D68
:10099000204C30290A302D393A095377697463683D
:1009A00020746F204C6179657220302D390A4752CE
:1009B0004156453A0953776974636820746F204C37
:1009C0006179657220302028616C7465726E617483
:1009D00065290A423A094A756D7020746F20426F8A
:1009E0006F746C6F616465720A4553433A094A75C6
:1009F0006D7020746F20426F6F746C6F61646572EC
:100A00002028616C7465726E617465290A453A0923
:100A10005072696E7420454550524F4D2053657495
:100A200074696E67730A4253504143453A09436CF7
:100A300065617220454550524F4D0A000A002575E8
:100A4000002E6E6B726F3A20000A002575002E731F
:100A50007761705F6261636B736C6173685F626121
:100A6000636B73706163653A20000A002575002E80
:100A7000737761705F67726176655F6573633A2053
:100A8000000A002575002E6E6F5F6775693A2000B9
:100A90000A002575002E737761705F72616C745F58
:100AA000726775693A20000A002575002E73776118
:100AB000705F6C616C745F6C6775693A20000A0046
:100AC0002575002E737761705F7263746C5F726757
:100AD00075693A20000A002575002E737761705FF2
:100AE0006C63746C5F6C6775693A20000A00257549
:100AF000002E636170736C6F636B5F746F5F636F05
:100B00006E74726F6C3A20000A002575002E7377A0
:100B100061705F636F6E74726F6C5F636170736C32
:100B20006F636B3A20000A0025303258006B6579FC
:100B30006D61705F636F6E6669672E7261773A20D0
:100B4000000A002575002E6D6F7573653A20000A46
:100B5000002575002E6B6579626F6172643A200022
:100B60000A002575002E6D61747269783A20000ABA
:100B7000002575002E656E61626C653A20000A00E2
:100B8000253032580064656275675F636F6E666911
:100B9000672E7261773A20000A0025750064656649
:100BA00061756C745F6C617965723A20003F000A70
:100BB0006D6F7573653A206F66660A000A6D6F7512
:100BC00073653A206F6E0A000A6B6579626F617215
:100BD000643A206F66660A000A6B6579626F61721B
:100BE000643A206F6E0A000A6D61747269783A2067
:100BF0006F66660A000A6D61747269783A206F6EDA
:100C00000A000A64656275673A206F66660A000A20
:100C100064656275673A206F6E0A000A0A4A756D4C
:100C200070696E6720746F20626F6F746C6F61649F
:100C300065722E2E2E2000433E2000436C656172AB
:100C4000696E6720454550524F4D0A006565636FD8
:100C50006E6669673A0A005B735D004B6579626F87
:100C60006172642073746172742E0A005B575D00B8
:100C70005B535D005B525D005B445D005B435D0068
:100C80000403300000000C034800750062003100CE
:100C9000360000001A034A006F007300680020004D
:100CA0004A006F0068006E0073006F006E00000065
:100CB0000403090409025B00030100A0FA0904000F
:100CC0000001030101000921110100012240000778
:100CD00005810308000A090401000103000000095E
:100CE00021110100012232000705820320000A09B8
:100CF0000402000203000000092111010001222268
:100D000000070583032000010705030320000112EB
:100D100001100100000008EDFE738F0100010203C5
:100D2000010631FF0974A1010975150026FF009520
:100D300020750881020976150026FF0095207508A8
:100D40009102C005010980A101850319012AB7009C
:100D5000150126B700950175108100C0050C090129
:100D6000A101850419012AA002150126A0029501FE
:100D700075108100C005010906A101050719E029C8
:100D8000E715002501950875018102950175088117
:100D9000010507190029FF150026FF0095067508B3
:100DA0008100050819012905950575019102950134
:100DB00075039101C00011241FBECFEFDAE0DEBF42
:100DC000CDBF04B603FE27C08091CF029091D00220
:100DD000A091D102B091D2028730904BA740B04B86
:100DE000D1F41092CF021092D0021092D102109240
:100DF000D20214BE84B7877F84BF0FB6F894A8953B
:100E000080916000886180936000109260000FBE46
:100E1000E0E0F8E3099511E0A0E0B1E0E4EAF1E6F2
:100E200002C005900D92A23FB107D9F722E0A2EFD0
:100E3000B1E001C01D92AF3CB207E1F70E94C82AA1
:100E40000C94D0300C940000FF93EF93E091F201EA
:100E5000F091F301309709F00995EF91FF91089512
:100E6000FC018591803011F0EFDFFBCF0895FF2763
:100E7000E0E230E247FF0CC0419597FF09C0EDE288
:100E80006095709580959095611D711D811D911DD6
:100E900027FF02C0219530E350E2AA27660F771F93
:100EA000881F991FAA1FA41710F0A41B63955A95B9
:100EB000A9F7AA3008F0A95FA05DAF93F39561157B
:100EC00071058105910541F7ED3211F4EF93F3952A
:100ED000F21718F43F93F395FBCF8F91B5DFFA9596
:100EE000E1F70895E991F9918591803021F08532FB
:100EF00019F0AADFF9CF089520E0E8945591553212
:100F0000C1F3503311F4689455915A3348F4505357
:100F100090F3220F022E220F220F200D250FF4CF67
:100F20000EF4219589919991533619F3533729F18C
:100F3000533559F1BC0188279927E8945C3621F490
:100F40008991999168945591543639F446EF7EF021
:100F500077FF0DC08FEF9FEF0AC055374AE039F099
:100F6000583540E121F0523642E009F00895FF93F0
:100F7000EF937DDFEF91FF91B7CFFF93EF93FC01EC
:100F800081918030B9F360DFFBCFFF93EF9368DF8F
:100F9000F1CFDF93CF93CDB7DEB72596A3DFCF9107
:100FA000DF910895E82FF0E0EA50FE4F8081089528
:100FB000CF93DF93A0E5B1E045E551E061E070E05B
:100FC0008D91E82FE295EF70F0E021A18F70EB0199
:100FD00002C0CC0FDD1F8A95E2F7CE019C2F9095C1
:100FE000922391A392A1892B82A34A175B0741F711
:100FF000ACE4B1E040E551E061E070E08D91E82FB4
:10100000E295EF70F0E021A18F70EB0102C0CC0FF0
:10101000DD1F8A95E2F7CE019C2F9095922391A334
:1010200092A1892B82A34A175B0741F7EBEFF1E00E
:10103000A6EFB1E080E092E011921D928E179F071B
:10104000D9F785E00E944B0CDF91CF910C94A80951
:101050005F926F927F928F929F92AF92BF92CF9248
:10106000DF92EF92FF920F931F93CF93DF9360E590
:1010700071E0ABEFB1E020E0A22E22E0B22E612CB5
:1010800001E010E06D015C901C92EB018991BE01C2
:10109000E82FE295EF70F0E021A18F70A80102C067
:1010A000440F551F8A95E2F7CA01242B21A322A1E0
:1010B000942E9094292122A350EA5A95F1F79CE4AA
:1010C000E92E91E0F92E40E050E0E70189907E01A1
:1010D000282D22952F7030E0E90128A17C9030E086
:1010E000D82DDF7002C035952795DA95E2F720FDFF
:1010F00008C0302F042E01C0330F0A94EAF7232FC3
:1011000001C020E027292C934F5F5F4F44305105E9
:10111000E1F691A1992291A292A1892B82A3119625
:1011200081E0F6019081951101C080E0682AAA163D
:10113000BB0609F0A7CF262D45E066EF71E08BEFE7
:1011400091E00E944C0C4091FA011092FA0120911A
:10115000F501322F330F3093F5018091F401982F70
:10116000990F9093F4012FB1221F2227221F232BC6
:101170002093F50189B1881F8827881F892B8093C8
:10118000F40191E02F3709F090E08F3711F080E003
:1011900001C082E0892B8093FA0191E0481301C0DD
:1011A00090E0C62DC92B0E94B2098C2FDF91CF9100
:1011B0001F910F91FF90EF90DF90CF90BF90AF9075
:1011C0009F908F907F906F905F90089587988F98F1
:1011D00057985F98089508950895811106C0662371
:1011E00011F085E109C084E107C0813039F466233C
:1011F00011F088E101C087E10C94A31A089581E001
:1012000008959C013A9521153F4138F5DC01AA2744
:10121000B270AC01442754709C012227387094FFAF
:101220000FC090FF02C080E101C080E0AB2B09F04D
:101230008062452B09F08064232B69F080680BC025
:10124000892F8170AB2B09F08260452B09F08460F7
:10125000232B09F08860FB0109940895CF93DF9355
:10126000EC01805E9109089710F0209719F466EB65
:101270007AE102C062E17DE1CE010E9401098C2F7A
:10128000DF91CF910C949D19CF93DF93EC010E94D5
:10129000441ACE01805E9109089710F0209719F446
:1012A0006DEB7AE102C069E17DE1CE01DF91CF9182
:1012B0000C94010981E008950C94FF0808950C94A2
:1012C0005E091F93CF93DF9300D000D01F92CDB75C
:1012D000DEB749835A836B833091260289819A81D4
:1012E000311114C0662359F0222349F00E947F2255
:1012F000182F682F89819A810E942A2203C00E9498
:101300005422182F69817A81812F04C00E947F2284
:1013100069817A810F900F900F900F900F90DF915D
:10132000CF911F910C94460AFC01262F40815181D8
:101330006281738184810C946109CF93DF93EC0106
:1013400060E00E949409BE01DF91CF910C945F0987
:101350000E94B923811102C00E9459240E94701377
:101360000C94E6080E94AC170E94D4130C94EB086E
:1013700008950C94B80981E008950C94BB09CF93AB
:10138000C82F0E94B9098C2F0E94BD09CF910895E2
:1013900008950E94361D0E94C8092FEF84E39CE047
:1013A000215080409040E1F700C000000C949D2542
:1013B0000F931F93CF93DF93EC0161E00E94940998
:1013C0008C01BE010E940917BE01C8010E945C0980
:1013D000882309F450C0BE01C8010E945017882319
:1013E00009F449C0BE01C8010E94DD14882309F434
:1013F00042C0BE01C8010E941E158823E1F1BE0152
:10140000C8010E9449168823B1F1BE01C8010E949B
:10141000C412882381F18A81882331F101308CE55F
:10142000180751F00E3D8CE51807D9F001151C4541
:10143000D9F40E94C9091FC080918302C82FC095AA
:10144000C170C0FB80F980938302CC2329F086E829
:1014500091E00E9430070FC084E791E00E943007BE
:101460000BC00E94592407C0CE01DF91CF911F917C
:101470000F910C945A09C0E08C2FDF91CF911F91EE
:101480000F91089580E090E008950895E72FF0E02F
:1014900095E0899FE00DF11D1124EE0FFF1FEE0F67
:1014A000FF1FE60FF11DEE0FFF1FEC5DFE4F859154
:1014B00094910895880F991FFC01E956FE4F85917C
:1014C00094910895CF93DF930E94460A0E94740B73
:1014D000EC018115904508F043C0C11580E4D807A0
:1014E00008F0CBC0C03ED10528F5C03CD10508F0BE
:1014F000B3C0C83AD10578F4C53AD10508F0A4C004
:10150000C130D10509F4ECC008F4E8C0C430D105FD
:1015100008F0E6C0E3C0CF3BD10508F0DFC0C85AF1
:10152000D0E0CC0FDD1FCB5ADE4F0990D881C02D03
:10153000D464D6C0C11590E2D90750F4C11521E09A
:10154000D20708F0CDC0C83ED10508F4C9C0C6C056
:10155000C11580E3D80708F086C0CE019F707FC018
:10156000C11595E5D90708F043C0C11524E5D20798
:1015700008F09AC0C11582E5D80708F5C11591E5B4
:10158000D90708F07DC0CE0174E0969587957A95CD
:10159000E1F783709C2F937021E030E002C0220FAE
:1015A000331F9A95E2F73C68382BCF70C695C695E5
:1015B00080E2C89FE0011124C22BD32B91C09E0171
:1015C000237033278C2F86958695C115D34508F057
:1015D0005CC0C1E0D0E002C0CC0FDD1F2A95E2F76D
:1015E00020E2829FC0011124C82BD92BDC6878C06F
:1015F000C11529E5D207A0F4C11588E5D80708F080
:1016000058C0C11596E5D90708F068C08C2F0E9414
:10161000080C8F71C82FD0E0DC2FCC27D06260C0BF
:10162000C1152AE5D20708F449C0CE0190568115AC
:10163000904208F053C08D2F8F710E94080CDD2757
:10164000D0628F71D82B4CC0C55AD0E0CD57DE4F39
:10165000C881D0E0D06444C0CE01805C91090E9472
:101660005A0AEC013DC0CE019927D3FF03C0EC011B
:10167000D86C36C0EC01D06C33C0DF70D06A30C09B
:10168000DC2FCC27C16FD06A2BC0C1E0D0E002C0F4
:10169000CC0FDD1F2A95E2F720E2829FC0011124C2
:1016A000C82BD92BDA681CC0DC2FCC27C46FD06ABA
:1016B00017C0DC2FCC27C06FD06A12C08C2F8F7060
:1016C0000E94080C94E0D695C7959A95E1F7CF70E3
:1016D000D0E0DC2FCC27D069C82B02C0C0E0D0E01E
:1016E000CE01DF91CF9108958238910569F1B0F470
:1016F0008133910509F46DC048F48932910509F4EC
:1017000063C08A32910509F469C008958533910553
:1017100009F455C089339105B9F00895833E9105C8
:1017200069F138F4803E9105B1F0823E910509F1EE
:101730000895863E9105A9F1873E9105B9F1843E51
:10174000910509F064C023C02091C00220FD4FC064
:1017500021FD4DC008958091C00280FD44C080915C
:10176000C10280FF44C08091C00284FD42C083EE6C
:101770004DC08091C00282FF38C0F5CF8091C00279
:1017800082FD33C08091C10280FD31C0ECCF8091D9
:10179000C10281FF32C08091C00284FD2AC087EE61
:1017A00035C08091C00283FF26C0F5CF8091C00272
:1017B00083FD21C08091C10281FD1FC0ECCF8091CB
:1017C000C00285FD1CC01DC08091C00285FD19C0EE
:1017D00016C08091C00286FD16C017C08091C0025D
:1017E00086FD13C010C089E311C082EE0FC080EEE9
:1017F0000DC080E00BC086EE09C084EE07C089E210
:1018000005C085E303C08AE201C081E390E008954A
:101810009091C00292FF0DC0282F2871283019F432
:10182000877F846006C0282F2471243011F48B7FB9
:10183000886093FF0DC0282F2871283119F4877E06
:10184000846106C0282F2471243111F48B7E8861B5
:101850002091C10220FF0DC0382F3871383019F4A3
:10186000877F816006C0382F3171313011F48E7F4F
:10187000886021FF0DC0282F2871283119F4877E38
:10188000816106C0282F2171213111F48E7E88617B
:1018900094FD877E08950895FF920F931F93CF9331
:1018A000DF938C01F62ED72FC42F222349F081E03D
:1018B000809302020E9450259093010280930002BF
:1018C000809102028823C1F0809100029091010270
:1018D0000E946825459780F0EF2DFD2FD8014C2FF1
:1018E00050E0CD01801B910B841795071CF48D915E
:1018F0008193F7CF10920202DF91CF911F910F9148
:10190000FF900895EF92FF920F931F93CF93DF9371
:10191000F62E472FE82FF0E0711106C0EF52FA4F74
:101920006491762F862F72C0272F30E0EF52FA4F46
:10193000E4910E2F10E056E0659FC0011124CFEF17
:10194000D0E0BE010E944D305BEA5603C001579FB4
:10195000900D11248F0D911D8F0D911D982F990FB2
:10196000890F7E01E21AF30AE09ED001E19EB00DDC
:10197000F09EB00D1124489FA0011124452F55273A
:101980007E01E41AF50AE09EA001E19E500DF09E52
:10199000500D11247E01E81AF108E29EC001E39E79
:1019A000900DF29E900D1124892F9927C81BD90BF9
:1019B000C09FC001C19F900DD09F900D1124623037
:1019C000710591F048F461157105E1F06130710520
:1019D000A9F48B2F752F19C06430710561F038F0B0
:1019E0006630710579F00AC0892F7B2F0EC08E2FCB
:1019F0007B2FE52F0AC08E2F792F02C0852F7E2FD7
:101A0000EB2F03C08B2F7E2FE92F6E2FDF91CF910D
:101A10001F910F91FF90EF9008950895CF93DF935A
:101A2000762FE901682F842F0E94820C79836883C6
:101A30008A83DF91CF91089580919602282F269571
:101A400030E02115310519F48170826005C028311C
:101A5000310524F081708E6280939602089588E0AB
:101A600090E00C949030CF92DF92EF92FF926B0156
:101A70007C010E941C0DB701A60188E090E0FF9058
:101A8000EF90DF90CF900C94AE30E6E9F2E083E087
:101A9000808311828FEF82838383148260817181BE
:101AA000828193810C94330D8091830280FF08C062
:101AB00088EA94E09F938F930E94C9070F900F903C
:101AC0008091830280FF0FC08091960281701F92E7
:101AD0008F938BE894E09F938F930E94C9070F9098
:101AE0000F900F900F908091830280FF0FC0809124
:101AF000960286951F928F9380E794E09F938F9331
:101B00000E94C9070F900F900F900F908091830251
:101B100080FF0EC0809197021F928F9386E594E01C
:101B20009F938F930E94C9070F900F900F900F9073
:101B30008091830280FF0EC0809198021F928F9344
:101B40008CE394E09F938F930E94C9070F900F90AE
:101B50000F900F908091830280FF0EC080919902B8
:101B60001F928F9382E294E09F938F930E94C90704
:101B70000F900F900F900F908091830280FF0EC006
:101B800080919A021F928F9386E094E09F938F93A7
:101B90000E94C9070F900F900F900F9008958091A9
:101BA000960280FF02C08695089580E00895809196
:101BB0009A02833018F48F5F80939A0260919602A4
:101BC0007091970280919802909199020C94330D34
:101BD00080919A02882319F0815080939A02609133
:101BE00096027091970280919802909199020C94BC
:101BF000330D70E00C946B13609139018091960263
:101C000080FF0AC08091380123E0829FC001112427
:101C100085569D4F0C94F90D80913A0190913B01AE
:101C2000891780F7E82FF0E09F01220F331FE20FA2
:101C3000F31FE556FD4F1182108212828F5FF0CFA5
:101C40009091960290FF16C090913A0120913B012D
:101C5000921770F4E92FF0E0DF01AA0FBB1FEA0F23
:101C6000FB1FE556FD4F8183608342839F5FF0CF6A
:101C70000C94FC0D0895CF93DF9300D01F92CDB745
:101C8000DEB79091960290FF0AC09E012F5F3F4FF2
:101C90000E940E0D4B8169818A810E94200E0F9057
:101CA0000F900F90DF91CF910895CF93DF93EC01C8
:101CB000EC81F0E0EF52FB4F4491E6E9F2E0628103
:101CC00081810E943B0E8C818F5F8C83DF91CF914D
:101CD0000895CF93DF93EC01E6E9F2E0438162815E
:101CE0008C810E943B0E8C818F5F8C83DF91CF9122
:101CF0000895EF92FF920F931F93CF93DF9300D03D
:101D00001F92CDB7DEB7182FF62E042FE22E80914A
:101D1000960280FF5DC0E82FE695F0E0EA57FE4F9F
:101D2000908190930C028E7F823061F49E012F5F30
:101D30003F4F812F0E940E0D4B8169818A810E9445
:101D4000200E0CC0923019F40091990207C0963011
:101D500019F41091970202C09930D9F310939702A9
:101D6000F092980200939902EE20E9F060919602B9
:101D70007091970280919802909199020E94330D80
:101D80008091830280FF24C0809199021F928F93DB
:101D9000809198021F928F93809197021F928F9348
:101DA00080EF91E00CC08091830280FF11C01F92F0
:101DB0000F931F92FF921F921F9389EC91E09F93C4
:101DC0008F930E94C9070FB6F894DEBF0FBECDBF38
:101DD0000F900F900F90DF91CF911F910F91FF9077
:101DE000EF900895E6E9F2E09181282F4381628126
:101DF00088E0890F0C94790E81E00C94F20EE6E9EC
:101E0000F2E09181282F4381628188EF890F0C9441
:101E1000790E81E00C94FF0EE6E9F2E0628128E0A1
:101E2000620F08F46FEF282F438181810C94790EA3
:101E300081E00C940C0FE6E9F2E0628128E0621B7D
:101E400008F460E0282F438181810C94790E81E0B1
:101E50000C941B0FE6E9F2E0438128E0420F08F4FE
:101E60004FEF282F628181810C94790E81E00C94D0
:101E70002A0FE6E9F2E0438128E0421B08F440E043
:101E8000282F628181810C94790E81E00C94390FA6
:101E900020E00C94790EFF920F931F93CF93DF9362
:101EA000EC01F12C0FEF10E060913C01F616F0F41C
:101EB00080913A012F2D30E0280F311DC901880F84
:101EC000991F280F391F25563D4F70E0C8010E9409
:101ED0006130962F8C814091990260919802F99E11
:101EE000800D11240E940E0DF394DECF0E94FC0D94
:101EF0009A818C8190FF02C08F5F01C081508C83DA
:101F0000DF91CF911F910F91FF900895AF92BF92F3
:101F1000CF92DF92EF92FF920F931F93CF93DF93B5
:101F2000FC01828180FF02C00FEF01C001E010E0E0
:101F30004BE0A42E80913C01181708F043C080911B
:101F40003A01C12ED12CE601C80FD11DCE01880F58
:101F5000991FC80FD91FC556DD4F198218821A82E2
:101F600034E0E32EF12CB12C809104028B0D8C30E7
:101F70002CF06A2D0E943F30892F05C087FF03C0D7
:101F800090913C01890F082E000C990BC816D906B8
:101F900091F4809199028E9DA0018F9D500D112486
:101FA00055954795559547959E016091980280916A
:101FB00097020E940E0DB00EF1E0EF1AF108A1F6A3
:101FC0001F5FB8CF0E94FC0D80910402013031F4F4
:101FD000811102C080913C01815007C090E00196C0
:101FE00060913C0170E00E94613080930402DF91B7
:101FF000CF911F910F91FF90EF90DF90CF90BF9006
:10200000AF900895CF9380913A0190913B01891749
:1020100070F4E82FF0E09F01220F331FE20FF31F4F
:10202000E556FD4F1182108212828F5FF0CFC0E023
:1020300060913C01C617C0F5EC2FF0E070E0CF01D5
:102040000E94613020913A01820F20910302022EFA
:10205000000C330B90E0E217F307CCF0209137012E
:10206000022E000C330B2E173F078CF09C01220F21
:10207000331F820F931F9C0125563D4F40919902BB
:1020800060919802809197020E940E0D0BC0FC0196
:10209000EE0FFF1F8E0F9F1FFC01E556FD4F1182B3
:1020A00010821282CF5FC4CF0E94FC0D20913601B6
:1020B00080910302820F8093030290913701920F67
:1020C0009093370119165CF4082E000C990B40917F
:1020D0003C0150E041505109841795071CF02195AF
:1020E00020933601CF91089560919602669570E035
:1020F00041E050E08DE391E00E947B30892B19F4A0
:1021000081E080930D020E945025909306028093F7
:1021100005028091830280FF08C080EB91E09F93CD
:102120008F930E94C9070F900F90089510920D028F
:102130008091830280FF08C087E991E09F938F938D
:102140000E94C9070F900F9008959091960290FFFA
:1021500054C09170811102C0926006C0883110F0A5
:102160009E6202C0880F982B909396026623B1F06E
:1021700060919602709197028091980290919902D5
:102180000E94330D8091830280FF1BC080919602D4
:1021900086951F928F938CE493E00BC0809183020D
:1021A00080FF0FC08091960286951F928F938EE2DA
:1021B00093E09F938F930E94C9070F900F900F9009
:1021C0000F9060919602669570E041E050E08DE3DB
:1021D00091E00E947B30892B19F00E94961002C07A
:1021E0000E94741081E080930802409199026091EE
:1021F0009802809197020C94480F0895682F90914F
:102200009602969581E0890F883108F081E00C9460
:10221000A51081E00C94FE10682F9091960296957F
:102220008FEF890F09F487E10C94A51081E00C94DD
:102230000C1161E00C94A51080919602816080934E
:1022400096028091830280FF0DC01F9281E08F93E0
:1022500080EC92E09F938F930E94C9070F900F909C
:102260000F900F908091960286950C94191160E062
:102270000C94A51080910B02811160C080918302A3
:1022800080FF08C08FEE93E09F938F930E94C90751
:102290000F900F908091830280FF08C089ED93E03A
:1022A0009F938F930E94C9070F900F900E94B923AC
:1022B000811110C08091830280FF08C081EB93E000
:1022C0009F938F930E94C9070F900F900E945924EB
:1022D0000E94450D0E942F0D609396027093970205
:1022E00080939802909399026E7FC1F4809183024B
:1022F00080FF08C088E693E09F938F930E94C907F0
:102300000F900F900E94450D0E942F0D6093960232
:102310007093970280939802909399020E941C0DEB
:102320000E94540D10920D028091960280FF03C00E
:1023300086950E94371181E080930B020895809169
:1023400096028160809396028091830280FF0DC087
:102350001F9281E08F9387E892E09F938F930E9472
:10236000C9070F900F900F900F908091960286955D
:102370000C943711809196028E7F80939602609123
:1023800096027091970280919802909199020E9412
:10239000330D8091830280FF0FC08091960281707F
:1023A0001F928F938FE492E09F938F930E94C907AF
:1023B0000F900F900F900F900E9496102FEF80E7D4
:1023C00092E0215080409040E1F700C000000C9462
:1023D000FC0D8091830280FF10C080919602809551
:1023E00081701F928F9387EF92E09F938F930E944B
:1023F000C9070F900F900F900F908091960280FD6B
:102400000C94BA110C941C11809196028E7F8093CB
:1024100096028091830280FF0CC01F921F9285E17B
:1024200092E09F938F930E94C9070F900F900F9097
:102430000F900E9496102FEF80E792E0215080408D
:102440009040E1F700C000000C94FC0D0F931F9327
:10245000CF93DF9380910D02882309F475C080919A
:102460000C02E0919602E695E81BE09307028230A9
:1024700049F4F0E0E353FB4FE491CE2FD0E005E5C3
:102480001EE032C0863049F4F0E0E653FB4FE491A1
:10249000CE2FD0E009E61EE027C0893051F4E69542
:1024A000F0E0E953FB4FE491CE2FD0E00BE41FE0C6
:1024B0001BC08F3051F4E695F0E0EC53FB4FE491F4
:1024C000CE2FD0E006E81FE00FC0853149F4F0E0E0
:1024D000EF53FB4FE491CE2FD0E002E010E104C0B7
:1024E000C0EDD7E00DE01DE080910802882389F05F
:1024F000109208020E9450259E0120953095820F6F
:10250000931F909306028093050210920A02109284
:10251000090280910502909106020E9468258C179D
:102520009D0790F0E0910502F0910602CE0FDF1FAB
:10253000D0930602C093050285E092E0F801DF9196
:10254000CF911F910F910994DF91CF911F910F911E
:102550000895882311F0FA0101C0FB010994CF937B
:10256000DF93C82FD62F0E94CF0D8C1740F00E940A
:10257000CF0D8D1720F4DF91CF910C9409118C2F82
:10258000DF91CF910C9419110F931F93CF93FB01FF
:10259000C281CC2309F45BC08C010E9400238272AB
:1025A000F801E25CFC45E431F10508F053C0EA5A59
:1025B000FF4F0C9475300E94E9114BC046E151E188
:1025C00069E071E104C049E051E166E171E10E9416
:1025D000A9123FC049E05FE06CEF7EE0F8CF4CEF1E
:1025E0005EE069E07FE0F3CF47E25FE068E17FE033
:1025F000EECF48E15FE067E27FE0E9CF45E45FE0EE
:1026000066E37FE0E4CF46E35FE065E47FE0DFCFB1
:1026100048EE5DE067ED7DE0DACF47ED5DE068EE26
:102620007DE0D5CF81E00E94191113C065E082E002
:102630000BC068E086E008C06EE089E005C064E198
:102640008FE002C067E185E10E94AF1202C0C1E0E5
:1026500001C0C0E08C2FCF911F910F9108955AB106
:10266000E42FEF7021E030E001C0220FEA95EAF795
:10267000352F322B3AB942954F70E42FF0E032A15A
:10268000422F4095342342A1242B4FB7F894FC01EC
:10269000CB01880F991F680F791F6E0F7F1FE617F8
:1026A000F70789F0819198E02BB9000000C087FFFF
:1026B0003BB9880F000000C000C000C03BB900C09B
:1026C0009A9591F7ECCF4FBF87EC90E00197F1F727
:1026D00000C00000089541E90C942F130C94ED08FC
:1026E000FF920F931F93CF93DF93C2E1D2E040EBB1
:1026F00051E02EEA31E061E070E0F2E0C431DF0742
:1027000009F44CC0FA010191AF01A02FA295AF705E
:10271000B0E09196EC9191970F70CB01002E01C023
:10272000880F0A94EAF7982F90959E2391969C9390
:10273000919792969C919297892B92968C939297CF
:10274000F90111919F01E12FE295EF70F0E0F1A006
:102750001F70CB01012E01C0880F0A94EAF7982F51
:1027600090959F2191A392A1892B82A390968C9101
:1027700090E002C0959587950A95E2F78170E0A1F7
:10278000F0E002C0F595E7951A95E2F7E0FD02C08A
:1027900090E001C092E0892B8993AFCFDF91CF9178
:1027A0001F910F91FF9008955F926F927F928F9289
:1027B0009F92AF92BF92CF92DF92EF92FF920F93D0
:1027C0001F93CF93DF9382E1682E82E0782E90EB07
:1027D000E92E91E0F92E0EEA11E020E1822E22E0AE
:1027E000922ECEE0D2E063015301512CD501ED9140
:1027F0005D014E2F440F440FF60141936F01D70145
:102800002D917D01E22FE295EF70F0E080A190E044
:102810002F7002C0959587952A95E2F781709927C8
:10282000F80151918F01E52FE295EF70F0E020A1C2
:1028300030E05F7002C0359527955A95E2F7F901AF
:10284000E170FF2720FF02C0E2E0F0E0E82BF92B67
:10285000E42BD301ED933D01EF70F0E0E256FE4F23
:102860009081F4018081890F808384303CF08881DD
:102870008F5F888360E0852D0E946E13D4018C9158
:102880008D3F3CF488818150888361E0852D0E94D2
:102890006E13F4018081837887FF03C081508C6FB1
:1028A0008F5FD4018D934D0153942196B2E05B125A
:1028B0009DCFDF91CF911F910F91FF90EF90DF900F
:1028C000CF90BF90AF909F908F907F906F905F90D0
:1028D00008950F931F93CF93DF93C62FD42F122FFA
:1028E000FC0182818823C9F0609316020E94502562
:1028F000909315028093140280E28C0F883008F0C8
:1029000057C0C77081E001C0880FCA95EAF7DF9110
:10291000CF911F910F910C94B61A809116026813F3
:1029200030C080911402909115020E946825883C65
:10293000910538F500E20D0FCD17B9F080E28C0F4C
:10294000883040F4C77081E001C0880FCA95EAF76B
:102950000E94BD1A083028F581E09D2F977001C0B4
:10296000880F9A95EAF70E94B61A812F0E94A31A3F
:102970000830F0F4D77081E001C0880FDA95EAF7EB
:102980000AC080E28C0F883098F4C77081E001C0E3
:10299000880FCA95EAF7DF91CF911F910F910C94A0
:1029A000BD1A812FDF91CF911F910F910C94A31A23
:1029B000DF91CF911F910F9108959C01CB01233F8F
:1029C0004CE53407F9F078F4283DFCE53F07B9F011
:1029D000293D4CE5340711F1273D3C4531F526E210
:1029E00041EE61EE1EC0253FFCE53F0799F070F017
:1029F000263F3C45D1F427E245EE66EE12C027E2C1
:102A000045EE0EC026E241EE60EE0BC027E245EE39
:102A100064EE07C026E241EE62EE03C028E241E028
:102A200065EE0E94691480E00895FC01828188238C
:102A300019F010921602089581E00895CF93DF9364
:102A4000EC01FB018281882309F41FC1C230FCE53F
:102A5000DF0708F41BC1C6319CE5D90738F09E0199
:102A60002A5F3C452930310508F010C10E94CC2373
:102A70009093C1028093C002C031ECE5DE0709F4F7
:102A8000C3C008F041C0C8308CE5D80709F49AC02B
:102A9000F0F4C430ECE5DE0709F487C068F4C23016
:102AA0008CE5D80709F477C0C330DC4509F0E3C0F2
:102AB0008091C002826076C0C630ECE5DE0709F482
:102AC0006EC008F07BC08091C00288606BC0CC30C3
:102AD0008CE5D80709F485C068F4CA30ECE5DE0758
:102AE00009F474C008F079C00E94361D8091C002BC
:102AF000806858C0CE308CE5D80709F476C008F05D
:102B00007FC08091C0028BC0CB3FECE5DE0709F4AB
:102B10004FC018F5C3318CE5D80709F47DC078F4AF
:102B2000C131ECE5DE0709F473C0C231DC4509F0C0
:102B3000A2C00E94361D8091C0028F7733C0C5317C
:102B40008CE5D80709F472C008F486C0CA3FDC459A
:102B500009F091C08091C1023EC0CF3FFCE5DF0784
:102B600009F45FC058F4CD3F9CE5D90709F444C08F
:102B700008F43FC08091C10282602DC0C130FDE5E4
:102B8000DF0709F475C008F45DC0C230DD4509F007
:102B900072C080E06EC08091C002816003C08091ED
:102BA000C00280618093C00266C08091C00211C0E3
:102BB0008091C10282608093C1025DC08091C00299
:102BC0008062F0CF8091C0028064ECCF8091C0021F
:102BD00088608460E7CF8160EECF8091C0028E7FF5
:102BE000E1CF8091C0028D7FDDCF8091C002877FD1
:102BF000D9CF8091C10218C08091C1028D7FDBCFF7
:102C00008091C0028F7ECECF8091C0028F7DCACFCF
:102C10008091C0028F7BC6CF8091C002877F8B7F5F
:102C2000C1CF8091C1028D7F8E7FC5CF8091C002C0
:102C300082FB222720F991E0922790FB82F990FBFA
:102C400083F9B0CF8091C102982F909591708E7FBB
:102C5000892B90FB81F9AFCF0E94361D8091C00275
:102C600087FB222720F991E0922790FB87F99ACFE2
:102C700081E00E945B248091C0029091C1020E9479
:102C8000DD230E94361D80E001C081E0DF91CF91FD
:102C90000895CF93DF9386319C4541F5EB010E9467
:102CA0000023982F8A8120913F0130914001882391
:102CB00079F09A7A81E009F480E08093170291110B
:102CC00002C069E201C065E3C9010E94A2240AC0F2
:102CD00080911702811102C069E201C065E3C90158
:102CE0000E94A4240E94512380E001C081E0DF9172
:102CF000CF910895CF93DF93EC0181E0898B8F8191
:102D00000E94032388850E9416230E945123EA8192
:102D1000FB81CE010696309729F06C897D89DF9181
:102D2000CF910994DF91CF910895CF93DF93FC0168
:102D30002081223039F4FB01EC0182810E9477214D
:102D400081E08B87DF91CF910895DB01FC018081C9
:102D5000813021F48D919C910C942E09823039F4AC
:102D60001396ED91FC91149712968C910994089505
:102D7000FC018081813029F4FB01808191810C94D8
:102D800044090895EF92FF920F931F93CF93DF931F
:102D9000FC012285211136C0EC01E380F480F7E5C7
:102DA000FF1A26E12E9DC0012F9D900D1124DC01FC
:102DB000A050BF4F1496ED91FC9115978A5F9E4FDE
:102DC000309729F054966D917C915597099586E13D
:102DD0008E9D80018F9D100D112400501F4FF80112
:102DE00087810E940923F80180850E941C230E948C
:102DF0005123188219861B861E821D821092190289
:102E000010921802DF91CF911F910F91FF90EF90D8
:102E10000895DF92EF92FF920F931F93CF93DF936A
:102E2000FB0122812223A1F120913E012F3F81F15C
:102E30008C01C0E0D1E0E12CF12CDD24D394809111
:102E40003E01082E000C990B8E159F050CF18E810A
:102E50008823C9F089859A858017910739F4809174
:102E60001802909119020817190769F0DF861C876C
:102E70000B878989811103C0CE010E947A16CE0189
:102E800006960E94C216FFEFEF1AFF0A6696D7CF8A
:102E9000DF91CF911F910F91FF90EF90DF900895F8
:102EA000EF92FF920F931F93CF93DF939C013755BF
:102EB0002F3F310511F008F047C040913E01042E2C
:102EC000000C550B4217530714F420933E01FB01ED
:102ED0007C01828196E1929F8001939F100D1124C5
:102EE000E801C050DF4F888B92818E81992311F1C8
:102EF000FA86E9868F5F8E830E9450259E878D8794
:102F00000E9436238F830E94002388870E94132308
:102F10009885892B8887E881F981C8018A5F9E4F4F
:102F2000309719F06C897D890995F0921902E09229
:102F300018020AC0882341F08989882329F0C80132
:102F40008A5F9E4F0E94C21681E0DF91CF911F9150
:102F50000F91FF90EF900895CF92DF92EF92FF9242
:102F60000F931F93CF93DF9380913E018F3FF1F139
:102F7000F12C96E1E92E0F2D10E080913E01082EF4
:102F8000000C990B801791078CF1E09EF001E19EF7
:102F9000F00D1124E050FF4FC288D388C114D10432
:102FA00019F488ECC82ED12CE09EE001E19ED00DF2
:102FB0001124C050DF4F8E818823B1F08D859E850E
:102FC0000E946825C816D90678F48989811103C042
:102FD000CE010E947A16E09EC001E19E900D112460
:102FE0008A5F9E4F0E94C216F394C5CFDF91CF91A6
:102FF0001F910F91FF90EF90DF90CF9008959093E5
:103000001F0280931E020895E0911E02F0911F029C
:10301000309721F00190F081E02D099480E008952F
:10302000EF92FF920F931F93CF93DF93E0911E02D5
:10303000F0911F023097B1F18C010280F381E02DF5
:1030400009958091830282FF2DC080FF04C089ED25
:1030500096E00E943007E80118E083EDE82E86E054
:10306000F82E8091830280FF0BC088811F928F937E
:10307000FF92EF920E94C9070F900F900F900F9050
:10308000115021961111EDCF8091830280FF0AC06B
:1030900081ED96E0DF91CF911F910F91FF90EF901E
:1030A0000C943007DF91CF911F910F91FF90EF901B
:1030B000089520911C0230911D022817390771F0E4
:1030C00090931D0280931C02E0911E02F0911F025A
:1030D000309721F00680F781E02D09940895209122
:1030E0001A0230911B022817390771F090931B02C6
:1030F00080931A02E0911E02F0911F02309721F096
:103100000084F185E02D0994089585B7806885BF16
:1031100085B7806885BF089508950C948C180C9429
:103120008D180C948C180C948C180E9485180E9491
:1031300091180C948F1881E008950C949B180E94AC
:1031400047250E94D8070E94AE250E943A110C9490
:103150009318CF93C82F8091830282FF1EC080FFF7
:1031600004C082EF96E00E9430078091830280FFC6
:103170000CC01F92CF938DEE96E09F938F930E9489
:10318000C9070F900F900F900F908091830280FFDE
:1031900004C08BEE96E00E9430078C2FCF910C94E8
:1031A000BF09AF92BF92CF92DF92EF92FF920F933F
:1031B0001F93CF93DF93CDB7DEB72A970FB6F8945E
:1031C000DEBF0FBECDBF0E9428080E949D1881114E
:1031D00011C08FEF89838A831B820E9450258160F2
:1031E000782F9D838C8349815A816B818D810E94C8
:1031F000691940C081E2A82E82E0B82E00E010E0FC
:10320000C02E802F0E94D207E82EF501D1905F01D9
:10321000D82631F40F5F1F4F0530110589F7D9CF3C
:103220008091830281FD0E94EC0880E0FF24F394EA
:103230009D2D9F21D1F08E83CF82EF2081E009F474
:1032400080E088870E9450258160782F9A8789873F
:103250004E815F8168858A850E946919F801EF5D5A
:10326000FD4F8081F826F08205C08F5FFF0C84300F
:10327000F9F6D0CF0E9426120E94041890912002E5
:103280008917B1F00E940418809320022A960FB685
:10329000F894DEBF0FBECDBFDF91CF911F910F918C
:1032A000FF90EF90DF90CF90BF90AF900C94A91853
:1032B0002A960FB6F894DEBF0FBECDBFDF91CF9137
:1032C0001F910F91FF90EF90DF90CF90BF90AF9044
:1032D0000895CF93DF93CDB7DEB72B970FB6F89451
:1032E000DEBF0FBECDBF4F83588769877A878B8734
:1032F000DE01119686E0FD0111928A95E9F785E0DD
:10330000FE01379601900D928A95E1F749815A8125
:103310006B817C818D819E810E94EF1F2B960FB661
:10332000F894DEBF0FBECDBFDF91CF910895FC01B1
:10333000808191810E94C1220895CF93882309F44E
:10334000A1C0C82F8238C1F40E94041881FD9AC020
:1033500069E380913F01909140010E94A2240E9464
:1033600051232FEF81EE94E0215080409040E1F70F
:1033700000C0000069E319C0833801F50E940418F9
:1033800080FD80C063E580913F01909140010E94E3
:10339000A2240E9451232FEF81EE94E0215080401F
:1033A0009040E1F700C0000063E580913F019091FB
:1033B00040010E94A424CF910C9451238438C1F47D
:1033C0000E94041882FD5EC067E480913F019091E5
:1033D00040010E94A2240E9451232FEF81EE94E02D
:1033E000215080409040E1F700C0000067E4DDCF4D
:1033F0008CEF8C0F813AF8F48C2F0E946828811191
:1034000041C06C2F80913F01909140010E946C243B
:10341000882349F06C2F80913F01909140010E94D8
:10342000A4240E9451236C2F80913F019091400170
:103430000E94A224C0CF80E28C0F883048F4C7706D
:1034400081E001C0880FCA95EAF70E940323B3CF39
:10345000EBE5EC0FE33040F4F0E0E052FE4F80810A
:1034600090E0CF910C945918C85AC73158F4EC2FFA
:10347000F0E0EE0FFF1FEE54FE4F80819181CF915F
:103480000C946F18CF910895882309F45BC0682FBE
:10349000823879F40E94041881FF54C069E3809156
:1034A0003F01909140010E94A2240E94512369E3B0
:1034B00010C08338B1F40E94041880FF43C063E554
:1034C00080913F01909140010E94A2240E945123CB
:1034D00063E580913F01909140010E94A4240C94E7
:1034E0005123843879F40E94041882FF2BC067E4CA
:1034F00080913F01909140010E94A2240E9451239B
:1035000067E4E7CF8CEF860F813A18F380E2860FED
:10351000883048F4677081E001C0880F6A95EAF747
:103520000E940923DCCF8BE5860F833020F480E0F6
:1035300090E00C945918685A673120F480E090E0CC
:103540000C946F180895CF93C82F0E949D19C9330A
:1035500049F42FEF87EE93E0215080409040E1F74F
:1035600000C000008C2FCF910C94441A882321F0C6
:103570000E9403230C9451230895882321F00E9474
:1035800009230C9451230895CF92DF92EF92FF927A
:103590000F931F93CF93DF937C01062FC72FFC015E
:1035A000158112951F70D281D1110E9423230E9490
:1035B000F922882379F0DD2369F080E2800F8830DA
:1035C00048F082E00E949B230E94F92291E0D82ECD
:1035D000D92601C0D12CCC2EC2948FE0C8228C2DCC
:1035E00090E0FC01E659FF4F0C9475308C2F807FE2
:1035F000CF70882311F0C295C07FDD2399F0CC23D2
:1036000009F482C180E2800F883010F0011104C0FB
:103610008C2F0E94032303C08C2F0E9416230E942C
:10362000512372C1802F0E94441ACC2309F491C106
:1036300080E2800F883010F0011104C08C2F0E94AE
:10364000092303C08C2F0E941C230E94512381C197
:103650008C2F807FCF70803211F0C295C07F002305
:1036600019F00130C9F022C0DD2371F0112341F0BF
:10367000113031F40E9436238C2B0E943E2369C105
:103680000E9436238C2B1DC0112319F0113009F430
:1036900060C10E94472325C0DD2321F0163008F0C9
:1036A00058C10EC0153008F054C11BC0DD2361F0B5
:1036B000112331F0F701858180FF26C18F7085834A
:1036C0008C2F0E94B61A45C1112359F0093309F015
:1036D0002CC1FFEF27EE83E0F15020408040E1F75E
:1036E00022C18C2F0E94BD1A34C18C2F86958695DD
:1036F000837019F0813061F02CC1DD2321F0802F1F
:103700009C2F937002C080E090E00E94591829C15C
:10371000DD2321F0802F9C2F937002C080E090E089
:103720000E946F181EC18C2F837009F045C0D11103
:1037300014C1402F429546954770440F440F602FA7
:103740006F70862F90E0A0E0B0E0042E04C0880FD8
:10375000991FAA1FBB1F0A94D2F704FF10C00FE0E5
:1037600010E020E030E004C0000F111F221F331FC3
:103770004A95D2F7009510952095309503C000E04A
:1037800010E09801C695C695C370BC01CD01602BB1
:10379000712B822B932BC23049F058F4C13019F0B1
:1037A0000E944021DAC00E942E21D7C00E945221DF
:1037B000D4C00E942C21D1C0DD2319F08C2F817040
:1037C00001C08695882309F4C8C0402F42954695CC
:1037D0004770440F440F602F6F70862F90E0A0E079
:1037E000B0E0042E04C0880F991FAA1FBB1F0A94C3
:1037F000D2F704FF10C00FE010E020E030E004C07A
:10380000000F111F221F331F4A95D2F70095109504
:103810002095309503C000E010E09801C695C6954C
:10382000C370BC01CD01602B712B822B932BC23056
:1038300049F058F4C13019F00E9405228EC00E9450
:10384000F3218BC00E94172288C00E94662185C088
:10385000CF70DD2339F08C2F0E948C21802F0E94A5
:10386000B61A7BC0802F0E94BD1A8C2F0E94AD21FA
:1038700074C0023F01F128F4003F41F0013FA1F084
:103880003FC0033FF9F0043F39F13AC0DD2341F076
:10389000153008F05EC08C2F8F710E94D22159C064
:1038A000163008F056C0F7CFDD2339F08C2F8F711A
:1038B0000E948C214EC0DD23C9F38C2F8F710E9492
:1038C000AD2147C0DD2329F08C2F8F710E94772115
:1038D00040C00E9472213DC0DD2349F0CF718C2F82
:1038E0000E948C2163E08C2F0E94862332C081E0ED
:1038F0000E949B23123068F182E00E949B2329C022
:10390000DD2331F0112391F2802F0E949D1921C0F7
:10391000112399F2093349F49FEFE7EEF3E0915058
:10392000E040F040E1F700C00000802F0E94441A00
:1039300010C04C2F4F70602FC7010E94420A0E9496
:103940009D200FC04C2F4F70602FC7010E94450A69
:1039500008C088EF8C0D843020F40E9404180E9467
:10396000BF09DD20C9F00E94F52280FD15C0F701D6
:1039700012820E94EF220E948C21C7010E94ED1C3E
:103980000E94EF22DF91CF911F910F91FF90EF9056
:10399000DF90CF900C94AD21DF91CF911F910F91CB
:1039A000FF90EF90DF90CF9008950F931F93CF93E8
:1039B000DF93EC01688179818A810E94CC228C019D
:1039C0000E9429220E941A21B801CE010E94C41A25
:1039D000DF91CF911F910F910895CF93DF93FC0159
:1039E0009081818123813481232B31F08F3F31F409
:1039F00081E09F3F19F403C081E001C080E080FDB9
:103A00000EC0EF01CF010E94D809882341F0CE01FA
:103A10000E94D51CCE01DF91CF910C949D09DF91BE
:103A2000CF910895882321F00E9416230C945123EE
:103A30000895882321F00E941C230C94512308959B
:103A40000E9423230E9433230E94512380E090E0B0
:103A50000E94591880E090E00C946F1880913F010B
:103A6000909140010E94A6240C94201D0E941023D6
:103A70000C942E1DE92FE295EF704E2F50E0FA01C5
:103A80003297EE30F105B0F4E658FF4F0C947530E4
:103A9000803F91F018F4883E68F40EC0843F51F4E2
:103AA0000BC0883E48F0813F29F406C093FB88276D
:103AB00080F9089580E0089581E008950E94C12270
:103AC0000E943A1D0895CF93DF9300D000D01F923B
:103AD000CDB7DEB70F900F900F900F900F90DF9142
:103AE000CF910895CF93DF9300D000D000D0CDB711
:103AF000DEB726960FB6F894DEBF0FBECDBFDF91BE
:103B0000CF9108951F93CF93DF93C091270216E0C2
:103B100080912802C81799F0D0E01C9FF0011D9FEA
:103B2000F00D1124E75DFD4F408151816281738169
:103B3000848195810E94721D2196C770E9CFDF9123
:103B4000CF911F9108954091590250915A0260916E
:103B50005B0270915C0280915D0290915E020C9418
:103B6000721D0F931F93CF93DF9380915E02829516
:103B70008F7009F05DC080915B02882309F458C002
:103B800080912702109128026091590270915A0287
:103B9000C0915C02D0915D0291E06F3F09F090E02E
:103BA000292F06E0811709F443C0209721F07F3FB9
:103BB00021F030E003C031E001C0322F90E030FD51
:103BC00034C0089FF001099FF00D1124DF01A75DAB
:103BD000BD4F11963C911197371327C03C91361376
:103BE00024C012963C91129731111FC013964D912B
:103BF0005C9114974C1B5D0B483C5105B0F48091CF
:103C00005E028F70806180935E02E25DFD4F808175
:103C10008F708061808389E592E00E94ED1CDF91C6
:103C2000CF911F910F910C94821D01968770BACF8E
:103C3000DF91CF911F910F9108959F92AF92BF9204
:103C4000CF92DF92EF92FF920F931F93CF93DF9368
:103C5000CDB7DEB761970FB6F894DEBF0FBECDBF0C
:103C60008C0185E0F801DE011D9601900D928A9588
:103C7000E1F7F80140815181E28090915902609111
:103C80005A0220915C0230915D022115310531F01C
:103C90006F3F31F481E09F3F19F403C081E001C020
:103CA00080E0F82FF1709F2E80FD46C1F801A380BF
:103CB000B48089E5C82E82E0D82EF0905B02F50131
:103CC000E21BF30BFF2009F4DFC080915E02E83CA9
:103CD000F10508F09BC0282F207F09F052C0561331
:103CE00013C0491311C0FE2CE1100EC08F7080610B
:103CF00080935E020E94A31DC6010E94ED1C80916C
:103D00005E02F801858358C1AB2831F05F3F31F482
:103D100081E04F3F19F403C081E001C080E080FDE5
:103D200003C081E08E2502C080E090E0F82FF170A2
:103D3000FF2E80FF1CC0809127022091280236E0D0
:103D4000821709F417C190E0389FF001399FF00DF8
:103D50001124E75DFD4F6181561306C06081461353
:103D600003C06281E61203C001968770E9CFFE2C82
:103D7000EE2009F421C180915E02816080935E0291
:103D80005AC0561306C0491304C0E11002C0F8011E
:103D90009FC04D875E878D859E850E945E1D88230E
:103DA00079F1EE2069F120915E02822F82958F7069
:103DB00090E0029774F08091590290915A0298878E
:103DC0008F831986BB86AA862C87CE0107960E9410
:103DD000ED1C86E0F801A9E5B2E001900D928A950C
:103DE000E1F70E94B11D0E94A31D0DC0561729F1D5
:103DF0004D875E878D859E850E945E1D81112CC03A
:103E0000C8010E94ED1CFF24F394D6C0282F207F08
:103E100069F77A2DB98AA88A6E2D89890E94631D57
:103E200089E592E00E94ED1C86E0F60111928A95E8
:103E3000E9F70E94A31DF12CBFC04913D9CFE110AF
:103E4000D7CFF8018583C8010E94ED1C86E0F601FA
:103E500011928A95E9F7B0C0EE2091F220915E02AE
:103E6000822F82958F7090E002970CF4B2CF8091F0
:103E7000590290915A029A8389831B82BD82AC8237
:103E80002E83CE010196A3CFE83CF10508F047C090
:103E9000FE2CEE2009F4B4CF561330C049132EC0C7
:103EA00020915E0220FD21C0822F82958F70482FC5
:103EB00050E041155105C9F0F80125834F305105F7
:103EC00041F08F5F982F9295907F822F8F70892B72
:103ED0008583C8010E94ED1C86E0F801A9E5B2E0E7
:103EE00001900D928A95E1F742C086E0F801A9E5BC
:103EF000B2E001900D928A95E1F75EC04D875E8732
:103F00008D859E850E945E1D811163CF80915E022A
:103F1000816080935E02C8010E94ED1C4DC07A2D25
:103F2000B98AA88A6E2D89890E94631D86E0F601F0
:103F300011928A95E9F71BC0EE2009F461CF4D87F5
:103F40005E878D859E850E945E1DF82E882309F46C
:103F500057CF86E0F801A9E5B2E001900D928A956D
:103F6000E1F789E592E00E9497190E94B11D0E9435
:103F7000A31D22C04D875E878D859E850E94C1222C
:103F8000292F22952F70223028F49F7039F081114B
:103F900005C00BC0243028F49F7049F4805E88303F
:103FA00020F0C8010E94ED1C9F2CF92C05C0F801DF
:103FB0009581907F99F7F9CF8F2D61960FB6F89480
:103FC000DEBF0FBECDBFDF91CF911F910F91FF904C
:103FD000EF90DF90CF90BF90AF909F9008951F9388
:103FE000CF93DF93CDB7DEB72C970FB6F894DEBF33
:103FF0000FBECDBF4F83588769877A878B879C8791
:10400000CE0107960E941D1E8823D1F09F818885CE
:104010002A853B85232B31F08F3F31F481E09F3F90
:1040200019F403C081E001C080E080FD47C04F81EA
:10403000588569857A858B859C850E94721D3EC056
:1040400086E0FE013796DE01119601900D928A9569
:10405000E1F7FF81E8856A857B856115710531F09F
:10406000EF3F31F481E0FF3F19F403C081E001C06C
:1040700080E080FD23C02091280230E0C901019634
:10408000877099274091270250E084179507F1F136
:10409000F983EA837D836C8396E0929FD001939F9E
:1040A000B00D1124A75DBD4FFE01319601900D9218
:1040B0009A95E1F7809328020E94821D16E0809174
:1040C000270290912802891771F1189FC0011124CD
:1040D000875D9D4F0E941D1E882329F1E0912702D4
:1040E0001E9FF0011124E75DFD4F408151816281E7
:1040F0007381848195810E94721D8091270290E0D6
:1041000001968770992780932702D9CF0E94361D88
:104110001092280210922702E9E5F2E086E0DF0122
:104120001D928A95E9F72C960FB6F894DEBF0FBE64
:10413000CDBFDF91CF911F910895EF92FF920F9322
:104140001F93CF93DF938C01892B09F46CC0F12C62
:10415000EE24E394E8012196F8018491843740F439
:10416000843008F051C0813081F0823019F15BC099
:10417000853709F444C0A8F19CE7980F903708F000
:1041800052C08F770E94441A41C00E5F1F4FFE013C
:10419000849190E2980F983050F48770FE2D01C002
:1041A000FF0F8A95EAF78F2F0E94262314C00E94E2
:1041B0009D192DC00E5F1F4FFE01849190E2980F54
:1041C000983060F48770FE2D01C0FF0F8A95EAF7E2
:1041D0008F2F0E942C230E94512319C00E94441A41
:1041E00016C00E5F1F4FFE01C491CC2381F08FE9F2
:1041F0009FE00197F1F700C00000C150F6CF0E5FBD
:104200001F4FFE01F49003C00E949D198E018F2D57
:10421000882309F49FCFEFE9FFE03197F1F700C061
:1042200000008150F5CFDF91CF911F910F91FF904A
:10423000EF900895089508950C941B210C941C216F
:104240000E941E2160937202709373028093740225
:10425000909375020C94201D0C9420210F931F93B2
:1042600000917202109173022091740230917502D4
:10427000602B712B822B932B1F910F910C9420217B
:104280000F931F9300917202109173022091740298
:104290003091750260237123822393231F910F9124
:1042A0000C9420210F931F930091720210917302BE
:1042B000209174023091750260277127822793271D
:1042C0001F910F910C9420210C941B210E946421BA
:1042D00060936E0270936F028093700290937102EC
:1042E0000C94201D60E070E0CB010C9466210F93CC
:1042F0001F9341E050E060E070E08A019B0104C040
:10430000000F111F221F331F8A95D2F7C901B80170
:104310001F910F910C9466210F931F9341E050E081
:1043200060E070E004C0440F551F661F771F8A9538
:10433000D2F780916E0290916F02A0917002B091BD
:1043400071028A019B01082B192B2A2B3B2BC901D7
:10435000B8011F910F910C9466210F931F9341E0B8
:1043600050E060E070E004C0440F551F661F771FE7
:104370008A95D2F7409550956095709580916E0220
:1043800090916F02A0917002B09171028A019B011D
:10439000082319232A233B23C901B8011F910F9138
:1043A0000C9466210F931F9341E050E060E070E0B1
:1043B00004C0440F551F661F771F8A95D2F780915E
:1043C0006E0290916F02A0917002B09171028A0109
:1043D0009B01082719272A273B27C901B8011F91EC
:1043E0000F910C9466210F931F9300916E02109110
:1043F0006F022091700230917102602B712B822B21
:10440000932B1F910F910C9466210F931F93009192
:104410006E0210916F022091700230917102602340
:104420007123822393231F910F910C9466210F9384
:104430001F9300916E0210916F02209170023091D3
:10444000710260277127822793271F910F910C9487
:1044500066210895990F990F890FE82FE695E69543
:10446000E695877051E001C0550F8A95EAF785E01F
:10447000E89FF0011124E15AFD4F20E030E070E0A8
:104480004081CB01022E02C0969587950A94E2F7EF
:104490008170819584278523842781932F5F3F4FE7
:1044A0002530310569F70895990F990F890F682F05
:1044B000669566956695982F977085E0689FB00120
:1044C000112440E050E080E0FB01E40FF51FE15AC9
:1044D000FD4F208130E0092E02C0369527950A94C1
:1044E000E2F721703327042E01C0220F0A94EAF765
:1044F000822B4F5F5F4F4530510531F70895BF92D2
:10450000CF92DF92EF92FF920F931F93CF93DF939F
:104510008C01C0906E02D0906F02E0907002F0901B
:1045200071028091720290917302A0917402B09115
:104530007502C82AD92AEA2AFB2ACFE1D0E0D7019E
:10454000C6010C2E04C0B695A795979587950A9439
:10455000D2F780FD04C0219790F7B12C07C0BC2E84
:10456000B8018C2F0E94620A0197A9F38B2DDF916D
:10457000CF911F910F91FF90EF90DF90CF90BF9060
:104580000895CF93DF93EC010E947F22BE010E9429
:10459000620ADF91CF9108951F93CF93DF93EB01D0
:1045A00090912602992321F0CB010E94C12213C0D1
:1045B000882349F0CB010E947F22182F682FCE015B
:1045C0000E942A2204C0CB010E945422182FBE014F
:1045D000812F0E94620ADF91CF911F9108958091EF
:1045E00076028595859585950895809176028770E8
:1045F000089590917602977081E009F480E0089523
:1046000080918202089590918202892B8093820288
:104610000895809590918202892380938202089563
:1046200010928202089580918102089590918102F2
:10463000892B80938102089580959091810289232E
:1046400080938102089510928102089590918002D2
:10465000892B809380020895809590918002892310
:1046600080938002089510928002089580917702CD
:10467000089508950C9439230C943A23909177026D
:10468000981721F0809377020C943C230895809131
:104690007702882329F01092770280E00C943C2363
:1046A0000895E0913F01F091400180918202808362
:1046B000E0913F01F0914001908180918102892B2E
:1046C0008083E0913F01F0914001908180918002D0
:1046D000892B808380917702882381F0E0913F01CC
:1046E000F09140019081892B808380913F019091CE
:1046F00040010E94602481110E94472380913F0164
:10470000909140010C9410180C94392398E0899FE3
:1047100090011124262B209376020E948C218091F7
:1047200076028595859585950C9484231092760262
:1047300080E00C94842320917602809582238093DC
:104740007602982F977079F430E0482F082E000CED
:10475000550B2417350739F08595859585950E9469
:10476000AD210C94962308959093F3018093F20168
:10477000089580E090E00E94963021E08C3E9E4FAC
:1047800009F020E0822F089582E090E00C948830B8
:1047900083E090E00C948830CF9384E090E00E9416
:1047A0008830C82F81E290E00E9488302C2F30E0C2
:1047B000A901582BCA01CF910895CF93C92F682F13
:1047C00084E090E00E949C306C2F81E290E0CF91D9
:1047D0000C949C30AB01BC018FE090E00C94AE30A7
:1047E000AB01BC0183E190E00C94AE3060E070E07E
:1047F000CB010C94F02360E070E0CB010E94EA232F
:104800000C94F6236CEE7EEF80E090E00E94BA30CC
:1048100060E082E090E00E949C3060E083E090E005
:104820000E949C30109272021092730210927402D5
:104830001092750260E084E090E00E949C3060E09D
:1048400081E290E00E949C3060E085E090E00E9470
:104850009C3060E086E090E00E949C306FEF87E043
:1048600090E00E949C3040E050E0BA0188E090E087
:104870000E94AE3060E08DE090E00E949C3040E00D
:1048800050E0BA0188E190E00E94AE3060E087E13C
:1048900090E00E949C3040E050E0BA018CE190E052
:1048A0000E94AE3060E080E290E00E949C300C9468
:1048B000FB230C940224682F8EE090E00C949C3033
:1048C000FC01329697E080E0915029F0219122235B
:1048D000D9F38F5FF9CF0895662349F0FC01329632
:1048E00008962191621729F0E817F907D1F780E0BF
:1048F000089581E008959C01FC0132969FEF80E0CD
:104900004191461789F09F3F19F4411101C0982F3A
:104910008F5F8630A9F79F3F39F0F901E90FF11D4C
:1049200097FDFA956283089508959C012A5F3F4F91
:10493000FC014281461301C012820196821793073F
:10494000B9F708950C947B240C949524029626E0E4
:10495000FC0111922A95E9F7089508950C94AD246D
:104960000C94AD24CF930E94B0240E9428080E948A
:10497000AE24C0E08C2F0E94D207811104C0CF5F0B
:10498000C530C1F701C081E0CF9108950C94AD24EA
:104990000C94C6240E94C8248091C602843009F475
:1049A00039C01092840220E488E190E00FB6F894B8
:1049B000A895809360000FBE2093600080E00E9465
:1049C000BF090E9496108091850281110AC081E082
:1049D00080938502809196028170809386020E9466
:1049E00004120E94C82483B7817F846083BF83B789
:1049F000816083BF7894889583B78E7F83BF0FB61D
:104A0000F894A8958091600088618093600010926E
:104A100060000FBE08950C94AD240E94361D0E94C4
:104A200004180E94BF0910928502809186028111AC
:104A30000E949F110E9474100C940B251F920F92DC
:104A40000FB60F9211248F939F93AF93BF938091D2
:104A50008402811113C08091BC029091BD02A0918B
:104A6000BE02B091BF024196A11DB11D8093BC0250
:104A70009093BD02A093BE02B093BF02BF91AF91CD
:104A80009F918F910F900FBE0F901F90189582E00D
:104A900084BD93E095BD9AEF97BD80936E00089515
:104AA0002FB7F8948091BC029091BD02A091BE02F4
:104AB000B091BF022FBF08952FB7F8946091BC0248
:104AC0007091BD028091BE029091BF022FBF0895E8
:104AD0009C014FB7F8948091BC029091BD02A091C7
:104AE000BE02B091BF024FBF821B930B0895789412
:104AF0001F920F920FB60F9211248F939F93AF9333
:104B0000BF938091BC029091BD02A091BE02B09172
:104B1000BF020196A11DB11D8093BC029093BD02FE
:104B2000A093BE02B093BF02BF91AF919F918F91AE
:104B30000F900FBE0F901F90189587E797E79093FF
:104B40000108809300089AE088E10FB6F894A895D0
:104B5000809360000FBE90936000FFCF0E94B92346
:104B6000811102C00E9459240E94C42380938302B1
:104B70000E94CC239093C1028093C0020E94C8235C
:104B8000682F70E080E090E00C942C21CF93C82F28
:104B90001F928F938BE097E09F938F930E94C9079A
:104BA00081E090E0A0E0B0E0BC01CD0104C0660F60
:104BB000771F881F991FCA95D2F70E942C210F904A
:104BC0000F900F900F90CF910C94361DCF93DF93E1
:104BD0008B3109F4EEC108F08FC18B3009F4B2C1FA
:104BE00008F065C1863009F4B0C120F4853009F4BD
:104BF000BEC161C2873009F4C1C1883009F05BC20F
:104C00008CE49CE00E9430078DE99BE00E94300715
:104C10000E94C8231F928F938AE99BE09F938F93F2
:104C20000E94C90788E99BE00E9430070E94C423C4
:104C3000C82F85E89BE00E9430071F92CF9380E841
:104C40009BE09F938F930E94C9078EE79BE00E9491
:104C5000300784E79BE00E9430078C2F81701F9201
:104C60008F9381E79BE09F938F930E94C9078FE604
:104C70009BE00E94300785E69BE00E943007C1FB65
:104C8000882780F91F928F9382E69BE09F938F93F2
:104C90000E94C90780E69BE00E94300784E59BE004
:104CA0000E943007C2FB882780F91F928F9381E50D
:104CB0009BE09F938F930E94C9078FE49BE00E9423
:104CC000300786E49BE00E943007C3FBCC27C0F985
:104CD0001F92CF9383E49BE09F938F930E94C90719
:104CE00081E49BE00E9430070E94CC23EC018DE21E
:104CF0009BE00E943007DF93CF9388E29BE09F9375
:104D00008F930E94C90786E29BE00E9430078DE0E6
:104D10009BE00E9430078C2F81701F928F938AE056
:104D20009BE09F938F930E94C9078DB79EB7809693
:104D30000FB6F8949EBF0FBE8DBF88E09BE00E9427
:104D4000300781EF9AE00E943007C1FB882780F985
:104D50001F928F938EEE9AE09F938F930E94C907C4
:104D60008CEE9AE00E9430078AED9AE00E943007AC
:104D70008D2F81701F928F9387ED9AE09F938F9371
:104D80000E94C90785ED9AE00E94300783EC9AE003
:104D90000E943007D695D1701F92DF9380EC9AE085
:104DA0009F938F930E94C9078EEB9AE00E94300771
:104DB0008CEA9AE00E943007C2FB882780F91F9294
:104DC0008F9389EA9AE09F938F930E94C90787EA9D
:104DD0009AE00E94300785E99AE00E943007C3FB01
:104DE000882780F91F928F9382E99AE09F938F938F
:104DF0000E94C90780E99AE00E94300786E89AE09D
:104E00000E943007C4FB882780F91F928F9383E8A4
:104E10009AE09F938F930E94C90781E89AE00E94CD
:104E200030078FE69AE00E943007C5FB882780F99B
:104E30001F928F938CE69AE09F938F930E94C907ED
:104E40008AE69AE00E9430078EE49AE00E943007DA
:104E5000C6FB882780F91F928F938BE49AE09F937B
:104E60008F930E94C9078DB79EB780960FB6F894AE
:104E70009EBF0FBE8DBF89E49AE00E94300781E497
:104E80009AE00E943007C7FBCC27C0F91F92CF934E
:104E90008EE39AE09F938F930E94C9078CE39AE078
:104EA0000E9430070F900F900F900F9049C08031F3
:104EB00009F4A9C020F48E3009F48FC0FCC08631FB
:104EC00009F4BCC0893109F0F6C08FE698E00E9471
:104ED000300784E498E00E9430078AE098E00E945E
:104EE000300781ED97E00E94300784EA97E00E9446
:104EF000300789E797E084C08A32E1F060F48732B6
:104F000009F4D5C028F48E3108F4D5C08D51D0C035
:104F1000893269F1D0C0833448F48A3308F0C5C0BF
:104F2000853309F4C4C0883369F0C5C0833409F4FB
:104F3000BEC0C1C08BE39CE00E9430070E94592490
:104F4000C1E0BEC089E998E05BC080918302817FA7
:104F50008E7F809383028EE798E00E94300787E37C
:104F60009CE00E94300781E080938702E9CF8BE1CB
:104F70009CE00E9430070E94C909E2CF8091830221
:104F8000C82FC095C170C0FB80F980938302CC23E9
:104F900029F08FE09CE00E94300792C082E09CE004
:104FA0000E94300780918302897F877F80938302EC
:104FB000C7CF9091830291FBCC27C0F981E0C8272D
:104FC000892FC0FB81F980938302CC2319F085EFF0
:104FD0009BE029C087EE9BE013C09091830292FB77
:104FE000CC27C0F981E0C827892FC0FB82F98093C4
:104FF0008302CC2319F088ED9BE015C088EC9BE080
:105000000E9430079DCF9091830293FBCC27C0F97B
:1050100081E0C827892FC0FB83F980938302CC23CA
:1050200051F08CEB9BE00E943007809183028160FD
:105030008093830245C08FEA9BE0E2CF8BE697E046
:105040000E9430070E9404181F928F9381E597E019
:105050009F938F930E94C90780914B011F928F935A
:105060008AE397E09F938F930E94C90780919402EF
:105070001F928F9387E297E09F938F930E94C907B7
:105080000E945C259F938F937F936F9380E197E0BD
:105090009F938F930E94C9078DB79EB742960FB614
:1050A000F8949EBF0FBE8DBF4BCF895301C080E0E7
:1050B0000E94C62545CF8DEA9BE00E943007C0E0E4
:1050C0008C2FDF91CF91089580E008950C9464288F
:1050D000CF93C82F80918702882319F0813031F057
:1050E00038C00E9400238232B1F504C00E94002320
:1050F000823261F48C2F0E946628811104C08C2FAB
:105100000E94E62524C081E090E021C08C2F0E94FF
:10511000642881111BC0C43189F018F4CB3029F008
:1051200010C0C93259F0C83361F48EE798E00E948C
:10513000300787E097E00E94300708C0109287028E
:105140000CC085E097E00E94300707C081E08170C5
:1051500006C01092870280E002C080E0F8CFCF91B5
:10516000089580919302089508959FB7F89410923E
:105170008A029FBF9091C602943009F057C0909167
:10518000E9009F703091EC00232F217030FD20E862
:10519000922B23E02093E9002091EB0020FF43C0F5
:1051A0002091EE0027FF3FC020918802222321F0AA
:1051B0002091E80025FF37C01092880226E0309148
:1051C000E80035FD15C03091C602343061F53091EC
:1051D000EB0035FD28C0215021F481E08093880246
:1051E00022C0EFE9FFE03197F1F700C00000E7CF00
:1051F0008093F1008091E80085FD0AC08091E8006D
:1052000080FFFCCF8091E8008E778093E80006C095
:105210008FB7F89421E020938A028FBF9F709093FC
:10522000E90080E008959F709093E9008FEF089562
:10523000CF93DF9300D01F92CDB7DEB79091C60217
:10524000943019F589837B836A8382E08093E90037
:105250008FEF9091E800815095FD06C095ED9A95ED
:10526000F1F700008111F5CF8091E80085FF0DC0B6
:1052700040E050E063E070E0CE0101960E94962B82
:105280008091E8008E778093E8000F900F900F9048
:10529000DF91CF910895CF93DF93EC010E94792B9A
:1052A000823011F0843031F4BE0184E0DF91CF917F
:1052B0000C941829DF91CF910895BC0183E00C94E0
:1052C0001829CF93DF93EC010E94792B823011F0E3
:1052D000843039F581E08093E9008FEF9091E80008
:1052E000815095FD06C095ED9A95F1F7000081116A
:1052F000F5CF8091E80085FF14C040E050E068E001
:1053000070E0CE010E94962B8091E8008E7780930A
:10531000E80088E0FE01ABE8B2E001900D928A95CA
:10532000E1F7DF91CF9108958CE79CE00E94300770
:105330008091C502811109C00E94272D0E94842DF1
:105340008091E20084608093E200089588E79CE009
:105350000E9430071092C502089584E79CE00C94E7
:10536000300780E79CE00C9430078CE69CE00E94BC
:1053700030070C940D25209189022F5F822F62E364
:105380000E943330992319F02093890208951092D6
:10539000890280918A02882371F18091C60284304B
:1053A00041F58091E9008F702091EC00922F91706F
:1053B00020FD90E8892B93E09093E9009091EB0019
:1053C00090FF14C09091EE0097FF10C09091E800FC
:1053D00095FF03C01092F100F9CF9091E80090FF83
:1053E00005C09091E8009E779093E8008F708093BD
:1053F000E90010928A02089542E061EC81E00E9487
:10540000A02C42E261EC82E00E94A02C42E261EC1E
:1054100083E00C94A02C8091C802833009F460C012
:1054200030F4813071F0823009F499C008958A30E7
:1054300009F485C08B3009F46BC0893009F0A7C02E
:1054400020C08091C702813A09F0A1C08091E80094
:10545000877F8093E8008091CB029091CC02892BCA
:1054600021F468E08BE892E003C060E080E090E027
:1054700070E00E94E12B8091E8008B778093E80038
:1054800008958091C702813209F081C08091CB02DA
:105490009091CC02029708F07AC08091E800877F53
:1054A0008093E8008091E80082FD05C08091C602EB
:1054B0008111F8CF6CC02091F3008091F20090E050
:1054C000922B029729F48091F1008B7F813021F497
:1054D0008091F100809393028091E8008B7753C014
:1054E0008091C702813A09F052C08091CB0290911D
:1054F000CC02892B09F04BC08091E800877F809314
:10550000E8008091E80080FFFCCF80914B0136C01D
:105510008091C7028132D9F58091CB029091CC0263
:10552000892BA9F58091E800877F8093E8000E948D
:10553000D52C8091C90280934B010C94361D80912B
:10554000C702813221F58091E800877F8093E800CF
:105550000E94D52C8091CA02809394020895809174
:10556000C702813AA1F48091E800877F8093E80028
:105570008091E80080FFFCCF809194028093F1003D
:105580008091E8008E778093E8000C94D52C0895E4
:1055900084B7877F84BF0FB6F894A8958091600088
:1055A000886180936000109260000FBE90E080E8F8
:1055B0000FB6F89480936100909361000FBE0E9433
:1055C00095180E94272D0E94842D8091E20084600E
:1055D0008093E20085EB98E20E94B42378940E94C5
:1055E00018300E949F1881E491E00E94FF178BE51C
:1055F0009CE00E9430078091C602853089F487E5DF
:105600009CE00E9430070E94CA248091C402882333
:1056100091F30E94B224882371F30E94802BEBCF78
:105620000E94D118E8CF0C94152B292F3327233053
:105630003105C9F060F42130310581F022303105A7
:1056400009F047C08BE590E024EB3CE046C02132F6
:10565000310511F12232310561F13BC082E190E068
:105660002FE03DE03AC099278130910561F040F08C
:105670008230910559F0039761F5E0E8FCE008C03D
:10568000E0EBFCE005C0E4E9FCE002C0E6E8FCE099
:10569000849190E09F0121C063307105D0F4660FC2
:1056A000771FFB01E451FE4F2081318189E090E0BA
:1056B00014C06330710568F4FB01EE0FFF1FEA515F
:1056C000FE4F20813181FB01ED51FE4F808190E042
:1056D00004C080E090E020E030E0FA0131832083D4
:1056E00008958091C602843011F081E0089582E02F
:1056F000089580919502811102C00C94712B089538
:1057000080E189BD82E189BD09B400FEFDCF8091B1
:10571000D8008F7D8093D8008091E00082608093D4
:10572000E0008091E00081FDFCCF0895CF92DF92F0
:10573000EF92FF920F931F93CF93DF93EC018B01B6
:105740007A010E94F42C811133C0E114F10439F084
:10575000F70180819181081B190BC80FD91FC12C3B
:10576000D12C0115110519F18091E80085FD16C0B5
:105770008091E8008E778093E800E114F10449F00D
:10578000F70180819181C80ED91ED182C08285E047
:105790000FC00E94F42C882321F30AC089918093C2
:1057A000F10001501109FFEFCF1ADF0ADACF80E0D4
:1057B000DF91CF911F910F91FF90EF90DF90CF90ED
:1057C00008952091CD023091CE022617370748F078
:1057D0006115710539F42091E8002E772093E800D7
:1057E00001C0B901FC0120E06115710579F18091DA
:1057F000C6028823F1F18530F1F18091E80083FD44
:105800003CC08091E80082FD2EC08091E80080FFBE
:10581000EBCF2091F3008091F20090E0922B611584
:10582000710551F08830910538F421912093F100F1
:10583000615071090196F3CF21E0089709F020E04B
:105840008091E8008E778093E800CECF2111CFCFF2
:105850000AC08091C602882361F0853061F0809192
:10586000E80083FD0AC08091E80082FFF2CF80E06B
:10587000089582E0089583E0089581E008952091DD
:10588000CD023091CE022617370748F06115710519
:1058900039F42091E8002E772093E80001C0B90187
:1058A000FC0120E06115710591F18091C602882309
:1058B00009F440C0853009F43FC08091E80083FDC1
:1058C0003DC08091E80082FD2FC08091E80080FFFC
:1058D000E9CF2091F3008091F20090E0922B6115C6
:1058E000710559F08830910540F424912093F1001E
:1058F0003196615071090196F2CF21E0089709F0C5
:1059000020E08091E8008E778093E800CBCF2111D2
:10591000CCCF0AC08091C602882361F0853061F047
:105920008091E80083FD0AC08091E80082FFF2CFF9
:1059300080E0089582E0089583E0089581E008956D
:10594000982F973068F59093E900981739F0709187
:10595000EC002091ED005091F00003C0242F762F31
:1059600050E021FD02C09F5FECCF3091EB003E7F05
:105970003093EB003091ED003D7F3093ED0030919E
:10598000EB0031603093EB007093EC002093ED005E
:105990005093F0002091EE0027FDE5CF80E00895C0
:1059A0008F708093E90081E008958091C70287FF9E
:1059B00011C08091E80082FD05C08091C60281116E
:1059C000F8CF11C08091E8008B770BC08091C602A0
:1059D000882349F08091E80080FFF8CF8091E800AB
:1059E0008E778093E80008952091E4003091E500DF
:1059F00095E64091EC00842F817040FF23C0809198
:105A0000E80080FD1DC08091C602882399F0853092
:105A100099F08091EB0085FD11C04091E400509118
:105A2000E5002417350729F3915011F09A01E1CFD1
:105A300084E0089582E0089583E0089581E0089568
:105A400080E008954091E80042FFDDCF08950E9474
:105A5000952D0E949D2DE0EEF0E080818160808395
:105A6000E8EDF0E080818F77808319BCA7EDB0E08E
:105A70008C918E7F8C9380818F7E80831092C50263
:105A800008950F931F93CF93DF930E94952D0E944B
:105A90009D2DC8EDD0E088818F77888388818068CC
:105AA000888388818F7D888319BC1092C6021092EA
:105AB000C2021092C4021092C30200EE10E0F8017C
:105AC00080818B7F808388818160888342E060E071
:105AD00080E00E94A02CE1EEF0E080818E7F808348
