:100000000C94D7060C941E070C941E070C941E0724
:100010000C941E070C941E070C941E070C941E07CC
:100020000C941E070C941E070C94DA2D0C94AC2E25
:100030000C9456250C941E070C941E070C941E0756
:100040000C941E070C941E070C941E070C941E079C
:100050000C941E070C94AF250C941E070C941E07DD
:100060000C941E070C941E070C941E070C941E077C
:100070000C941E070C941E070C941E070C941E076C
:100080000C941E070C941E070C941E070C941E075C
:100090000C941E070C941E070C941E070C941E074C
:1000A0000C941E070C941E070C941E0714131713B0
:1000B0001C13231328132D13321337133C1341132E
:1000C00046134B134F135213551358135B136213FC
:1000D00062136213231B231B551B551BA21BD61C2B
:1000E000D61CD61CC01B551C661C661CC61CD61C08
:1000F000D61CCF1C801D801D921D921D891D921D36
:10010000921D921D801D801D8E1D921D921D8E1DA3
:10011000192F402F3830402F38308C2FAF2F3830E8
:10012000063015300400050006000700080009002D
:100130000A000B000C000D000E000F001000110053
:100140001200005716001900000000000100C35CF7
:10015000C45CC25CCA5CC95CC65CC55CC85CC75C8C
:100160000100010001000100005C015700000000D7
:100170000000000044454255473A206469736162BB
:100180006C65642E0A0044454255473A20656E610D
:10019000626C65642E0A007267626C69676874201D
:1001A00074696D65722064697361626C652E0A0002
:1001B0007267626C696768742074696D6572206526
:1001C0006E61626C65642E0A007267626C696768B2
:1001D000742073657420687376205B4E4F454550DC
:1001E000524F4D5D3A2025752C25752C25750A003A
:1001F0007267626C696768742073657420687376CF
:10020000205B454550524F4D5D3A2025752C257594
:100210002C25750A007267626C69676874206469CE
:100220007361626C65205B4E4F454550524F4D5D8A
:100230003A207267626C696768745F636F6E6669A3
:10024000672E656E61626C65203D2025750A00721F
:1002500067626C696768742064697361626C6520A9
:100260005B454550524F4D5D3A207267626C69673D
:1002700068745F636F6E6669672E656E61626C6538
:10028000203D2025750A007267626C6967687420DA
:10029000656E61626C65205B4E4F454550524F4D17
:1002A0005D3A207267626C696768745F636F6E663F
:1002B00069672E656E61626C65203D2025750A00B8
:1002C0007267626C6967687420656E61626C652034
:1002D0005B454550524F4D5D3A207267626C6967CD
:1002E00068745F636F6E6669672E656E61626C65C8
:1002F000203D2025750A007267626C69676874206A
:10030000746F67676C65205B454550524F4D5D3A91
:10031000207267626C696768745F636F6E66696795
:100320002E656E61626C65203D2025750A0072673E
:10033000626C69676874206D6F6465205B4E4F4521
:100340004550524F4D5D3A2025750A007267626C28
:1003500069676874206D6F6465205B454550524F36
:100360004D5D3A2025750A007267626C6967687492
:100370005F696E6974207267626C696768745F6335
:100380006F6E6669672E6D6F6465203D20302E208C
:1003900057726974652064656661756C7420766156
:1003A0006C75657320746F20454550524F4D2E0A71
:1003B000007267626C696768745F696E6974206552
:1003C00065636F6E666967206973206E6F74206560
:1003D0006E61626C65642E0A007267626C696768A0
:1003E000745F696E6974207374617274210A00729B
:1003F00067626C696768745F696E69742063616CB9
:100400006C65642E0A007267626C696768745F636A
:100410006F6E6669672E7370656564203D20256484
:100420000A007267626C696768745F636F6E666901
:10043000672E76616C203D2025640A007267626C2D
:10044000696768745F636F6E6669672E7361742095
:100450003D2025640A007267626C696768745F6397
:100460006F6E6669672E687565203D2025640A00F9
:100470007267686C696768745F636F6E6669672E20
:100480006D6F6465203D2025640A007267626C69A7
:100490006768745F636F6E6669672E656E61626C14
:1004A00065203D2025640A007267626C6967687484
:1004B0005F636F6E66696720454550524F4D3A0A3B
:1004C000007F3F1F643214643214783C1E1E140AED
:1004D000052223252628292A2C2D2F303233353684
:1004E000383A3B3D3E4042434547494A4C4E5051C5
:1004F000535557595A5C5E6062646668696B6D6FEC
:1005000071737577797B7D7F81838587898A8C8EEE
:1005100090929496989A9C9E9FA1A3A5A7A8AAACF6
:10052000AEAFB1B3B4B6B8B9BBBCBEBFC1C2C3C530
:10053000C6C7C9CACBCCCDCED0D1D2D2D3D4D5D6D2
:10054000D7D7D8D9D9DADADBDBDBDCDCDCDCDCDD05
:10055000DDDDDDDCDCDCDCDCDBDBDBDADAD9D9D8E9
:10056000D7D7D6D5D4D3D2D2D1D0CECDCCCBCAC981
:10057000C7C6C5C3C2C1BFBEBCBBB9B8B6B4B3B1B0
:10058000AFAEACAAA8A7A5A3A19F9E9C9A9896944B
:1005900092908E8C8A89878583817F7D7B79777520
:1005A00073716F6D6B6968666462605E5C5A5957FF
:1005B000555351504E4C4A4947454342403E3D3BBE
:1005C0003A3836353332302F2D2C2A292826252348
:1005D00022000101010101010101010202020202E6
:1005E00002020202030303030303030304040404DB
:1005F00004040405050505050606060606070707A3
:10060000070708080808090909090A0A0A0B0B0B59
:100610000C0C0C0D0D0D0E0E0E0F0F0F10101111F6
:10062000111212131314141515161617171818197A
:10063000191A1A1B1B1C1D1D1E1E1F2020212222E1
:10064000232424252626272829292A2B2C2D2D2E24
:100650002F30313232333435363738393A3B3C3D3E
:100660003E3F404142434445464748494A4C4D4E2F
:100670004F50515354555658595A5B5D5E5F6162F5
:1006800064656668696B6C6D6F7072737577787A84
:100690007B7D7E8082838587888A8C8E8F919395DF
:1006A00096989A9C9EA0A2A3A5A7A9ABADAFB1B303
:1006B000B5B7BABCBEC0C2C4C6C9CBCDCFD1D4D6E3
:1006C000D8DBDDDFE2E4E7E9EBEEF0F3F5F8FAFD85
:1006D000FF0A002530325820006B6579626F617225
:1006E000645F7265706F72743A20000A00253032C0
:1006F00058006B6579626F6172645F7365745F6CDB
:1007000065643A20003F00433E20004C25640A0007
:1007100074696D65725F72656164333228293A20AD
:100720002530346C580A006B6579626F6172645FC2
:1007300069646C653A2025580A006B6579626F61BF
:1007400072645F70726F746F636F6C3A2025580A21
:1007500000686F73745F6B6579626F6172645F6C60
:1007600065647328293A2025580A000A092D205368
:100770007461747573202D0A004743433A20352E67
:10078000342E30204156522D4C4942433A20322ECD
:10079000302E30204156525F415243483A20617614
:1007A00072350A004F5054494F4E533A204C55462B
:1007B000412045585452414B455920434F4E534FC9
:1007C0004C4520434F4D4D414E4420343039360A7C
:1007D000004255494C443A2022302E392E31352DD5
:1007E000352D6734653166623722202832313A323E
:1007F000313A3535204A756C202032203230323083
:10080000290A005649443A20307846454544284A4A
:100810006F7368204A6F686E736F6E292050494469
:100820003A203078384637332848756231362920E7
:100830005645523A203078303030310A0044455322
:10084000433A204D6163726F205061642077697470
:1008500068205553422048756220616E6420456EC1
:10086000636F646572730A000A092D2056657273FE
:10087000696F6E202D0A000A092D20436F6E736F79
:100880006C65202D0A4553432F713A0971756974BF
:100890000A000A092D204D61676963202D0A443A38
:1008A000094465627567204D6573736167652054FF
:1008B0006F67676C650A583A094D617472697820F0
:1008C0004465627567204D6F646520546F67676C7F
:1008D00065202D2053686F77206B65797072657382
:1008E00073657320696E206D617472697820677218
:1008F00069640A4B3A094B6579626F6172642044FE
:100900006562756720546F67676C65202D2053689A
:100910006F77206B65797072657373207265706F85
:1009200072740A4D3A094465627567204D6F75739C
:100930006520546F67676C650A563A09566572738D
:10094000696F6E0A533A095374617475730A433AB6
:1009500009416374697661746520436F6E736F6CCF
:1009600065204D6F64650A46312D4631303A095392
:10097000776974636820746F204C617965722030E8
:100980002D392028463130203D204C30290A302D89
:10099000393A0953776974636820746F204C617920
:1009A000657220302D390A47524156453A0953772E
:1009B0006974636820746F204C61796572203020FF
:1009C00028616C7465726E617465290A423A094A3D
:1009D000756D7020746F20426F6F746C6F61646509
:1009E000720A4553433A094A756D7020746F20426C
:1009F0006F6F746C6F616465722028616C746572CE
:100A00006E617465290A453A095072696E74204511
:100A10004550524F4D2053657474696E67730A4296
:100A200053504143453A09436C6561722045455036
:100A3000524F4D0A000A002575002E6E6B726F3AF8
:100A400020000A002575002E737761705F62616374
:100A50006B736C6173685F6261636B737061636514
:100A60003A20000A002575002E737761705F677267
:100A70006176655F6573633A20000A002575002E74
:100A80006E6F5F6775693A20000A002575002E7346
:100A90007761705F72616C745F726775693A20008C
:100AA0000A002575002E737761705F6C616C745F4E
:100AB0006C6775693A20000A002575002E7377610E
:100AC000705F7263746C5F726775693A20000A0028
:100AD0002575002E737761705F6C63746C5F6C6753
:100AE00075693A20000A002575002E636170736CE9
:100AF0006F636B5F746F5F636F6E74726F6C3A20BD
:100B0000000A002575002E737761705F636F6E7445
:100B1000726F6C5F636170736C6F636B3A20000A75
:100B20000025303258006B65796D61705F636F6EC0
:100B30006669672E7261773A20000A002575002EDB
:100B40006D6F7573653A20000A002575002E6B6580
:100B500079626F6172643A20000A002575002E6D7B
:100B600061747269783A20000A002575002E656E5E
:100B700061626C653A20000A0025303258006465D5
:100B80006275675F636F6E6669672E7261773A2080
:100B9000000A0025750064656661756C745F6C61A0
:100BA0007965723A20003F000A6D6F7573653A20CF
:100BB0006F66660A000A6D6F7573653A206F6E0A7C
:100BC000000A6B6579626F6172643A206F66660A2B
:100BD000000A6B6579626F6172643A206F6E0A0079
:100BE0000A6D61747269783A206F66660A000A6D50
:100BF00061747269783A206F6E0A000A64656275E2
:100C0000673A206F66660A000A64656275673A2073
:100C10006F6E0A000A0A4A756D70696E6720746FFC
:100C200020626F6F746C6F616465722E2E2E2000CF
:100C3000433E2000436C656172696E6720454550F4
:100C4000524F4D0A006565636F6E6669673A0A0028
:100C50005B735D004B6579626F61726420737461D0
:100C600072742E0A005B575D005B535D005B525D42
:100C7000005B445D005B435D000403300000000C3A
:100C8000034800750062003100360000001A034A74
:100C9000006F007300680020004A006F0068006E5B
:100CA0000073006F006E0000000403090409025B7A
:100CB00000030100A0FA090400000103010100097A
:100CC00021110100012240000705810308000A09E3
:100CD000040100010300000009211101000122327A
:100CE000000705820320000A090402000203000035
:100CF00000092111010001222200070583032000C1
:100D00000107050303200001120110010000000883
:100D1000EDFE738F0100010203010631FF0974A18A
:100D2000010975150026FF009520750881020976D6
:100D3000150026FF00952075089102C00501098065
:100D4000A101850319012AB700150126B7009501F5
:100D500075108100C0050C0901A101850419012A43
:100D6000A002150126A002950175108100C00501A1
:100D70000906A101050719E029E7150025019508D5
:100D8000750181029501750881010507190029FF88
:100D9000150026FF00950675088100050819012930
:100DA00005950575019102950175039101C0112406
:100DB0001FBECFEFDAE0DEBFCDBF04B603FE27C013
:100DC0008091CA029091CB02A091CC02B091CD0249
:100DD0008730904BA740B04BD1F41092CA021092CA
:100DE000CB021092CC021092CD0214BE84B7877F42
:100DF00084BF0FB6F894A8958091600088618093B5
:100E00006000109260000FBEE0E0F8E3099511E089
:100E1000A0E0B1E0E4E1F2E602C005900D92AE3E42
:100E2000B107D9F722E0AEEEB1E001C01D92AA3CB5
:100E3000B207E1F70E94002B0C9408310C940000DB
:100E4000FF93EF93E091EE01F091EF01309709F0FD
:100E50000995EF91FF910895FC018591803011F083
:100E6000EFDFFBCF0895FF27E0E230E247FF0CC041
:100E7000419597FF09C0EDE260957095809590953A
:100E8000611D711D811D911D27FF02C0219530E359
:100E900050E2AA27660F771F881F991FAA1FA41761
:100EA00010F0A41B63955A95A9F7AA3008F0A95F22
:100EB000A05DAF93F395611571058105910541F72B
:100EC000ED3211F4EF93F395F21718F43F93F39585
:100ED000FBCF8F91B5DFFA95E1F70895E991F9918C
:100EE0008591803021F0853219F0AADFF9CF08957D
:100EF00020E0E89455915532C1F3503311F46894D1
:100F000055915A3348F4505390F3220F022E220F7A
:100F1000220F200D250FF4CF0EF421958991999180
:100F2000533619F3533729F1533559F1BC0188274A
:100F30009927E8945C3621F48991999168945591A8
:100F4000543639F446EF7EF077FF0DC08FEF9FEFF8
:100F50000AC055374AE039F0583540E121F05236A1
:100F600042E009F00895FF93EF937DDFEF91FF9149
:100F7000B7CFFF93EF93FC0181918030B9F360DF2D
:100F8000FBCFFF93EF9368DFF1CFDF93CF93CDB724
:100F9000DEB72596A3DFCF91DF910895E82FF0E02B
:100FA000E051FE4F80810895CF93DF93ABE4B1E031
:100FB00040E551E061E070E08D91E82FE295EF703F
:100FC000F0E021A18F70EB0102C0CC0FDD1F8A95EC
:100FD000E2F7CE019C2F9095922391A392A1892BA9
:100FE00082A34A175B0741F7A7E4B1E04BE451E065
:100FF00061E070E08D91E82FE295EF70F0E021A1C3
:101000008F70EB0102C0CC0FDD1F8A95E2F7CE0195
:101010009C2F9095922391A392A1892B82A34A178A
:101020005B0741F7E5EFF1E0A0EFB1E08AEF91E077
:1010300011921D928E179F07D9F785E00E94840CAC
:10104000DF91CF910C94E50987988F9857985F9816
:10105000089508950895FC01E60FF11D3081108276
:101060009FB1892F881F8827881F808329B1922FDD
:10107000991F9927991F990F982B908381E0391315
:1010800001C080E008955F926F927F928F929F924D
:10109000AF92BF92CF92DF92EF92FF920F931F9386
:1010A000CF93DF936BE471E0A5EFB1E02AEFA22EBE
:1010B00021E0B22E612C01E010E06D015C901C92E9
:1010C000EB018991BE01E82FE295EF70F0E021A1DC
:1010D0008F70A80102C0440F551F8A95E2F7CA011C
:1010E000242B21A322A1942E9094292122A350EAFB
:1010F0005A95F1F797E4E92E91E0F92E40E050E09F
:10110000E70189907E01282D22952F7030E0E901BA
:1011100028A17C9030E0D82DDF7002C0359527954E
:10112000DA95E2F720FD08C0302F042E01C0330FFE
:101130000A94EAF7232F01C020E027292C934F5F60
:101140005F4F44305105E1F691A1992291A292A1FD
:10115000892B82A3119681E0F6019081951101C03F
:1011600080E0682AAA16BB0609F0A7CF262D45E025
:1011700060EF71E085EF91E00E94850C64E080EF04
:1011800091E00E942B08C62DC82B0E94ED098C2FE0
:10119000DF91CF911F910F91FF90EF90DF90CF9053
:1011A000BF90AF909F908F907F906F905F900895C9
:1011B000FC018081813049F483E70E94C61983E1F4
:1011C0000E94CC1A83E70C946D1A823019F481E0E6
:1011D0000C94AF21089581110BC083E7662321F0A1
:1011E0000E94C61985E110C00E94C61984E10CC096
:1011F000813079F483E7662321F00E94C61988E1E3
:1012000003C00E94C61987E10E94CC1A83E70C94A0
:101210006D1A08951F93CF93DF938430910540F1A9
:101220008337910530F09C01245731092133310572
:10123000F8F4FB01EC011281112369F083E70E94AD
:10124000C6198091FA018F5F8093FA018C2F0E945A
:10125000C61910E00EC00E946D1A8091FA018150EB
:101260008093FA01811105C083E70E946D1A01C0C5
:1012700011E0812FDF91CF911F9108959C013A9544
:1012800021153F4138F5DC01AA27B270AC01442793
:1012900054709C012227387094FF0FC090FF02C049
:1012A00080E101C080E0AB2B09F08062452B09F0A2
:1012B0008064232B69F080680BC0892F8170AB2B71
:1012C00009F08260452B09F08460232B09F08860C7
:1012D000FB0109940895CF93DF93EC01805E91099F
:1012E000089710F0209719F46FED7AE102C06AE4D4
:1012F0007DE1CE010E943E098C2FDF91CF910C94AD
:10130000C619CF93DF93EC010E946D1ACE01805E67
:101310009109089710F0209719F466EE7AE102C05F
:1013200061E57DE1CE01DF91CF910C943E0981E032
:1013300008950C940A0908950C949B091F93CF9368
:10134000DF9300D000D01F92CDB7DEB749835A8318
:101350006B833091210289819A81311114C06623F7
:1013600059F0222349F00E94B722182F682F898153
:101370009A810E94622203C00E948C22182F6981E8
:101380007A81812F04C00E94B72269817A810F90EF
:101390000F900F900F900F90DF91CF911F910C94B1
:1013A0007F0AFC01262F40815181628173818481F3
:1013B0000C949E09CF93DF93EC0160E00E94D10969
:1013C000BE01DF91CF910C949C090E94F123811101
:1013D00002C00E9491240C9424080E94D1170C94FE
:1013E000290808950C94F10981E008950C94F409FA
:1013F000CF93C82F0E94F2098C2F0E94F609CF913B
:10140000089508950E946E1D0E94010A2FEF84E343
:101410009CE0215080409040E1F700C000000C9417
:10142000D5250F931F93CF93DF93EC0161E00E94CA
:10143000D1098C01BE010E942E17BE01C8010E9475
:101440009909882309F450C0BE01C8010E9475178C
:10145000882309F449C0BE01C8010E9402158823EF
:1014600009F442C0BE01C8010E9443158823E1F17E
:10147000BE01C8010E946E168823B1F1BE01C801E9
:101480000E94FD12882381F18A81882331F1013085
:101490008CE5180751F00E3D8CE51807D9F00115C1
:1014A0001C45D9F40E94020A1FC080917E02C82FF9
:1014B000C095C170C0FB80F980937E02CC2329F0D7
:1014C00086E891E00E942C070FC084E791E00E941B
:1014D0002C070BC00E94912407C0CE01DF91CF9151
:1014E0001F910F910C949709C0E08C2FDF91CF9141
:1014F0001F910F91089580E090E008950895E72FDF
:10150000F0E095E0899FE00DF11D1124EE0FFF1F23
:10151000EE0FFF1FE60FF11DEE0FFF1FEC5DFE4FFC
:10152000859194910895880F991FFC01E956FE4F0B
:10153000859194910895CF93DF930E947F0A0E9432
:10154000AD0BEC018115904508F043C0C11580E456
:10155000D80708F0CBC0C03ED10528F5C03CD10566
:1015600008F0B3C0C83AD10578F4C53AD10508F0FF
:10157000A4C0C130D10509F4ECC008F4E8C0C430FF
:10158000D10508F0E6C0E3C0CF3BD10508F0DFC0CD
:10159000C85AD0E0CC0FDD1FC05BDE4F0990D88168
:1015A000C02DD464D6C0C11590E2D90750F4C1153E
:1015B00021E0D20708F0CDC0C83ED10508F4C9C06B
:1015C000C6C0C11580E3D80708F086C0CE019F7061
:1015D0007FC0C11595E5D90708F043C0C11524E5C2
:1015E000D20708F09AC0C11582E5D80708F5C115E1
:1015F00091E5D90708F07DC0CE0174E096958795F6
:101600007A95E1F783709C2F937021E030E002C05F
:10161000220F331F9A95E2F73C68382BCF70C6959E
:10162000C69580E2C89FE0011124C22BD32B91C044
:101630009E01237033278C2F86958695C115D3453F
:1016400008F05CC0C1E0D0E002C0CC0FDD1F2A95DD
:10165000E2F720E2829FC0011124C82BD92BDC685D
:1016600078C0C11529E5D207A0F4C11588E5D807CF
:1016700008F058C0C11596E5D90708F068C08C2F4E
:101680000E94410C8F71C82FD0E0DC2FCC27D06294
:1016900060C0C1152AE5D20708F449C0CE019056B2
:1016A0008115904208F053C08D2F8F710E94410C1C
:1016B000DD27D0628F71D82B4CC0C55AD0E0C258FC
:1016C000DE4FC881D0E0D06444C0CE01805C910977
:1016D0000E94930AEC013DC0CE019927D3FF03C0BD
:1016E000EC01D86C36C0EC01D06C33C0DF70D06A2E
:1016F00030C0DC2FCC27C16FD06A2BC0C1E0D0E056
:1017000002C0CC0FDD1F2A95E2F720E2829FC001C4
:101710001124C82BD92BDA681CC0DC2FCC27C46F4E
:10172000D06A17C0DC2FCC27C06FD06A12C08C2FB4
:101730008F700E94410C94E0D695C7959A95E1F779
:10174000CF70D0E0DC2FCC27D069C82B02C0C0E01E
:10175000D0E0CE01DF91CF9108958238910569F1F3
:10176000B0F48133910509F46DC048F489329105D4
:1017700009F463C08A32910509F469C0089585337C
:10178000910509F455C089339105B9F00895833E58
:10179000910569F138F4803E9105B1F0823E9105E2
:1017A00009F10895863E9105A9F1873E9105B9F1A9
:1017B000843E910509F064C023C02091BB0220FD46
:1017C0004FC021FD4DC008958091BB0280FD44C0F3
:1017D0008091BC0280FF44C08091BB0284FD42C066
:1017E00083EE4DC08091BB0282FF38C0F5CF80915F
:1017F000BB0282FD33C08091BC0280FD31C0ECCFC2
:101800008091BC0281FF32C08091BB0284FD2AC05E
:1018100087EE35C08091BB0283FF26C0F5CF809153
:10182000BB0283FD21C08091BC0281FD1FC0ECCFB3
:101830008091BB0285FD1CC01DC08091BB0285FD4F
:1018400019C016C08091BB0286FD16C017C08091DA
:10185000BB0286FD13C010C089E311C082EE0FC029
:1018600080EE0DC080E00BC086EE09C084EE07C09C
:1018700089E205C085E303C08AE201C081E390E00C
:1018800008959091BB0292FF0DC0282F2871283037
:1018900019F4877F846006C0282F2471243011F446
:1018A0008B7F886093FF0DC0282F2871283119F491
:1018B000877E846106C0282F2471243111F48B7E29
:1018C00088612091BC0220FF0DC0382F387138305C
:1018D00019F4877F816006C0382F3171313011F4DF
:1018E0008E7F886021FF0DC0282F2871283119F4C0
:1018F000877E816106C0282F2171213111F48E7EEF
:10190000886194FD877E08950895FF920F931F9339
:10191000CF93DF938C01F62ED72FC42F222349F0CB
:1019200081E08093FD010E9488259093FC018093C3
:10193000FB018091FD018823C1F08091FB01909112
:10194000FC010E94A025459780F0EF2DFD2FD801C6
:101950004C2F50E0CD01801B910B841795071CF490
:101960008D918193F7CF1092FD01DF91CF911F915F
:101970000F91FF900895EF92FF920F931F93CF93D3
:10198000DF93F62E472FE82FF0E0711106C0EF52DB
:10199000FA4F6491762F862F72C0272F30E0EF52D6
:1019A000FA4FE4910E2F10E056E0659FC00111241C
:1019B000CFEFD0E0BE010E9485305BEA5603C00144
:1019C000579F900D11248F0D911D8F0D911D982FF4
:1019D000990F890F7E01E21AF30AE09ED001E19E81
:1019E000B00DF09EB00D1124489FA0011124452F89
:1019F00055277E01E41AF50AE09EA001E19E500DF4
:101A0000F09E500D11247E01E81AF108E29EC001FB
:101A1000E39E900DF29E900D1124892F9927C81BEB
:101A2000D90BC09FC001C19F900DD09F900D112474
:101A30006230710591F048F461157105E1F0613093
:101A40007105A9F48B2F752F19C06430710561F0F1
:101A500038F06630710579F00AC0892F7B2F0EC0EF
:101A60008E2F7B2FE52F0AC08E2F792F02C0852F56
:101A70007E2FEB2F03C08B2F7E2FE92F6E2FDF9150
:101A8000CF911F910F91FF90EF9008950895CF93FC
:101A9000DF93762FE901682F842F0E94BB0C798396
:101AA00068838A83DF91CF91089580919102282FD6
:101AB000269530E02115310519F48170826005C04A
:101AC0002831310524F081708E628093910208954F
:101AD00088E090E00C94C830CF92DF92EF92FF92B2
:101AE0006B017C010E94550DB701A60188E090E0D2
:101AF000FF90EF90DF90CF900C94E630E1E9F2E0B8
:101B000083E0808311828FEF8283838314826081DC
:101B10007181828193810C946C0D80917E0280FF93
:101B200008C088EA94E09F938F930E94C5070F90A6
:101B30000F9080917E0280FF0FC080919102817092
:101B40001F928F938BE894E09F938F930E94C50719
:101B50000F900F900F900F9080917E0280FF0FC02A
:101B60008091910286951F928F9380E794E09F93D6
:101B70008F930E94C5070F900F900F900F90809148
:101B80007E0280FF0EC0809192021F928F9386E5A5
:101B900094E09F938F930E94C5070F900F900F9032
:101BA0000F9080917E0280FF0EC0809193021F9261
:101BB0008F938CE394E09F938F930E94C5070F90BF
:101BC0000F900F900F9080917E0280FF0EC0809149
:101BD00094021F928F9382E294E09F938F930E94CE
:101BE000C5070F900F900F900F9080917E0280FF9D
:101BF0000EC0809195021F928F9386E094E09F9390
:101C00008F930E94C5070F900F900F900F9008952B
:101C10008091910280FF02C08695089580E008952A
:101C200080919502833018F48F5F809395026091C4
:101C300091027091920280919302909194020C947F
:101C40006C0D80919502882319F081508093950244
:101C5000609191027091920280919302909194020E
:101C60000C946C0D70E00C946813609134018091B9
:101C7000910280FF0AC08091330123E0829FC0015E
:101C800011248A569D4F0C94320E8091350190910B
:101C90003601891780F7E82FF0E09F01220F331FEC
:101CA000E20FF31FEA56FD4F1182108212828F5FFE
:101CB000F0CF9091910290FF16C090913501209144
:101CC0003601921770F4E92FF0E0DF01AA0FBB1F75
:101CD000EA0FFB1FEA56FD4F8183608342839F5FBB
:101CE000F0CF0C94350E0895CF93DF9300D01F9260
:101CF000CDB7DEB79091910290FF0AC09E012F5F91
:101D00003F4F0E94470D4B8169818A810E94590E85
:101D10000F900F900F90DF91CF910895CF93DF93A5
:101D2000EC01EC81F0E0EF52FB4F4491E1E9F2E08D
:101D3000628181810E94740E8C818F5F8C83DF9120
:101D4000CF910895CF93DF93EC01E1E9F2E0438175
:101D500062818C810E94740E8C818F5F8C83DF91F5
:101D6000CF910895EF92FF920F931F93CF93DF933C
:101D700000D01F92CDB7DEB7182FF62E042FE22E1B
:101D80008091910280FF5DC0E82FE695F0E0EF576B
:101D9000FE4F9081909307028E7F823061F49E0106
:101DA0002F5F3F4F812F0E94470D4B8169818A81B0
:101DB0000E94590E0CC0923019F40091940207C091
:101DC000963019F41091920202C09930D9F3109311
:101DD0009202F092930200939402EE20E9F0609157
:101DE00091027091920280919302909194020E94CC
:101DF0006C0D80917E0280FF24C0809194021F921E
:101E00008F93809193021F928F93809192021F92E1
:101E10008F9380EF91E00CC080917E0280FF11C013
:101E20001F920F931F92FF921F921F9389EC91E0D4
:101E30009F938F930E94C5070FB6F894DEBF0FBE25
:101E4000CDBF0F900F900F90DF91CF911F910F9109
:101E5000FF90EF900895E1E9F2E09181282F43810E
:101E6000628188E0890F0C94B20E81E00C942B0FF4
:101E7000E1E9F2E09181282F4381628188EF890FA7
:101E80000C94B20E81E00C94380FE1E9F2E062812B
:101E900028E0620F08F46FEF282F438181810C94B2
:101EA000B20E81E00C94450FE1E9F2E0628128E096
:101EB000621B08F460E0282F438181810C94B20EEC
:101EC00081E00C94540FE1E9F2E0438128E0420FF5
:101ED00008F44FEF282F628181810C94B20E81E0CB
:101EE0000C94630FE1E9F2E0438128E0421B08F41F
:101EF00040E0282F628181810C94B20E81E00C9425
:101F0000720F20E00C94B20EFF920F931F93CF93A9
:101F1000DF93EC01F12C0FEF10E060913701F61622
:101F2000F0F4809135012F2D30E0280F311DC901CB
:101F3000880F991F280F391F2A563D4F70E0C8019E
:101F40000E949930962F8C81409194026091930267
:101F5000F99E800D11240E94470DF394DECF0E945C
:101F6000350E9A818C8190FF02C08F5F01C0815035
:101F70008C83DF91CF911F910F91FF900895AF92C5
:101F8000BF92CF92DF92EF92FF920F931F93CF9366
:101F9000DF93FC01828180FF02C00FEF01C001E0EE
:101FA00010E04BE0A42E80913701181708F043C0D1
:101FB00080913501C12ED12CE601C80FD11DCE0173
:101FC000880F991FC80FD91FCA56DD4F1982188272
:101FD0001A8234E0E32EF12CB12C8091FF018B0D9D
:101FE0008C302CF06A2D0E947730892F05C087FF36
:101FF00003C090913701890F082E000C990BC81669
:10200000D90691F4809194028E9DA0018F9D500D70
:10201000112455954795559547959E0160919302DA
:10202000809192020E94470DB00EF1E0EF1AF10884
:10203000A1F61F5FB8CF0E94350E8091FF010130DD
:1020400031F4811102C080913701815007C090E0C6
:1020500001966091370170E00E9499308093FF01F2
:10206000DF91CF911F910F91FF90EF90DF90CF9074
:10207000BF90AF900895CF93809135019091360134
:10208000891770F4E82FF0E09F01220F331FE20F51
:10209000F31FEA56FD4F1182108212828F5FF0CF3C
:1020A000C0E060913701C617C0F5EC2FF0E070E09A
:1020B000CF010E94993020913501820F2091FE01BD
:1020C000022E000C330B90E0E217F307CCF02091C6
:1020D0003201022E000C330B2E173F078CF09C01AF
:1020E000220F331F820F931F9C012A563D4F4091B0
:1020F000940260919302809192020E94470D0BC05E
:10210000FC01EE0FFF1F8E0F9F1FFC01EA56FD4FD3
:10211000118210821282CF5FC4CF0E94350E2091AF
:1021200031018091FE01820F8093FE019091320176
:10213000920F9093320119165CF4082E000C990B43
:102140004091370150E041505109841795071CF028
:10215000219520933101CF91089560919102669568
:1021600070E041E050E088E391E00E94B330892BB9
:1021700019F481E0809308020E948825909301025F
:102180008093000280917E0280FF08C080EB91E086
:102190009F938F930E94C5070F900F900895109200
:1021A000080280917E0280FF08C087E991E09F933A
:1021B0008F930E94C5070F900F9008959091910200
:1021C00090FF54C09170811102C0926006C08831A6
:1021D00010F09E6202C0880F982B909391026623A4
:1021E000B1F060919102709192028091930290916E
:1021F00094020E946C0D80917E0280FF1BC0809132
:10220000910286951F928F938CE493E00BC080918E
:102210007E0280FF0FC08091910286951F928F935E
:102220008EE293E09F938F930E94C5070F900F90CB
:102230000F900F9060919102669570E041E050E040
:1022400088E391E00E94B330892B19F00E94CF10EF
:1022500002C00E94AD1081E080930302409194027D
:1022600060919302809192020C94810F0895682FDF
:1022700090919102969581E0890F883108F081E074
:102280000C94DE1081E00C943711682F909191022C
:1022900096958FEF890F09F487E10C94DE1081E0A9
:1022A0000C94451161E00C94DE10809191028160E4
:1022B0008093910280917E0280FF0DC01F9281E089
:1022C0008F9380EC92E09F938F930E94C5070F90AD
:1022D0000F900F900F908091910286950C9452115F
:1022E00060E00C94DE1080910602811160C0809144
:1022F0007E0280FF08C08FEE93E09F938F930E9431
:10230000C5070F900F9080917E0280FF08C089ED75
:1023100093E09F938F930E94C5070F900F900E94A8
:10232000F123811110C080917E0280FF08C081EBF3
:1023300093E09F938F930E94C5070F900F900E9488
:1023400091240E947E0D0E94680D6093910270930B
:10235000920280939302909394026E7FC1F48091D5
:102360007E0280FF08C088E693E09F938F930E94CF
:10237000C5070F900F900E947E0D0E94680D60931C
:1023800091027093920280939302909394020E9420
:10239000550D0E948D0D109208028091910280FFD0
:1023A00003C086950E94701181E080930602089513
:1023B0008091910281608093910280917E0280FFE2
:1023C0000DC01F9281E08F9387E892E09F938F93D7
:1023D0000E94C5070F900F900F900F90809191026F
:1023E00086950C947011809191028E7F809391025A
:1023F0006091910270919202809193029091940267
:102400000E946C0D80917E0280FF0FC0809191022E
:1024100081701F928F938FE492E09F938F930E941D
:10242000C5070F900F900F900F900E94CF102FEFC5
:1024300080E792E0215080409040E1F700C000002A
:102440000C94350E80917E0280FF10C08091910225
:10245000809581701F928F9387EF92E09F938F9367
:102460000E94C5070F900F900F900F9080919102DE
:1024700080FD0C94F3110C945511809191028E7F84
:102480008093910280917E0280FF0CC01F921F9268
:1024900085E192E09F938F930E94C5070F900F9064
:1024A0000F900F900E94CF102FEF80E792E0215005
:1024B00080409040E1F700C000000C94350E0F936F
:1024C0001F93CF93DF9380910802882309F475C08E
:1024D00080910702E0919102E695E81BE0930202E9
:1024E000823049F4F0E0E353FB4FE491CE2FD0E08B
:1024F0000EE81EE032C0863049F4F0E0E653FB4FB0
:10250000E491CE2FD0E002EA1EE027C0893051F4DA
:10251000E695F0E0E953FB4FE491CE2FD0E004E8DC
:102520001FE01BC08F3051F4E695F0E0EC53FB4FF9
:10253000E491CE2FD0E00FEB1FE00FC0853149F4BE
:10254000F0E0EF53FB4FE491CE2FD0E00BE310E12E
:1025500004C0C0EDD7E006E41DE0809103028823AB
:1025600089F0109203020E9488259E0120953095E3
:10257000820F931F90930102809300021092050234
:102580001092040280910002909101020E94A02505
:102590008C179D0790F0E0910002F0910102CE0FA0
:1025A000DF1FD0930102C093000280E092E0F801A7
:1025B000DF91CF911F910F910994DF91CF911F91DE
:1025C0000F910895882311F0FA0101C0FB010994CD
:1025D000CF93DF93C82FD62F0E94080E8C1740F0A0
:1025E0000E94080E8D1720F4DF91CF910C944211B8
:1025F0008C2FDF91CF910C9452110F931F93CF9397
:10260000FB01C281CC2309F45BC08C010E943823FA
:102610008272F801E25CFC45E431F10508F053C038
:10262000EA5AFF4F0C94AD300E9422124BC04FE487
:1026300051E162E471E104C042E451E16FE471E10F
:102640000E94E2123FC042E45FE065E37FE0F8CF22
:1026500045E35FE062E47FE0F3CF40E65FE061E501
:102660007FE0EECF41E55FE060E67FE0E9CF4EE757
:102670005FE06FE67FE0E4CF4FE65FE06EE77FE08C
:10268000DFCF41E25EE060E17EE0DACF40E15EE094
:1026900061E27EE0D5CF81E00E94521113C065E077
:1026A00082E00BC068E086E008C06EE089E005C00B
:1026B00064E18FE002C067E185E10E94E81202C098
:1026C000C1E001C0C0E08C2FCF911F910F91089500
:1026D000519A2BB12D7F3BB132604FB7F894FC017A
:1026E000CB01880F991F680F791F6E0F7F1FE617A8
:1026F000F70789F0819198E03BB9000000C087FF9F
:102700002BB9880F000000C000C000C02BB900C06A
:102710009A9591F7ECCF4FBF8FE594E00197F1F7D1
:1027200000C0000008950C94EB08FF920F931F93D4
:10273000CF93DF93CDE0D2E04BEA51E029EA31E0DC
:1027400061E070E0F2E0CF30DF0709F44CC0FA013D
:102750000191AF01A02FA295AF70B0E09196EC91DE
:1027600091970F70CB01002E01C0880F0A94EAF7F1
:10277000982F90959E2391969C93919792969C91D9
:102780009297892B92968C939297F90111919F01C0
:10279000E12FE295EF70F0E0F1A01F70CB01012E68
:1027A00001C0880F0A94EAF7982F90959F2191A372
:1027B00092A1892B82A390968C9190E002C095956E
:1027C00087950A95E2F78170E0A1F0E002C0F595E7
:1027D000E7951A95E2F7E0FD02C090E001C092E0B3
:1027E000892B8993AFCFDF91CF911F910F91FF90EC
:1027F00008955F926F927F928F929F92AF92BF9255
:10280000CF92DF92EF92FF920F931F93CF93DF93BC
:102810008DE0682E82E0782E9BEAE92E91E0F92E79
:1028200009EA11E02BE0822E22E0922EC9E0D2E0EC
:1028300063015301512CD501ED915D014E2F440FE1
:10284000440FF60141936F01D7012D917D01E22FD5
:10285000E295EF70F0E080A190E02F7002C09595B6
:1028600087952A95E2F781709927F80151918F0198
:10287000E52FE295EF70F0E020A130E05F7002C03C
:10288000359527955A95E2F7F901E170FF2720FF6A
:1028900002C0E2E0F0E0E82BF92BE42BD301ED934A
:1028A0003D01EF70F0E0E756FE4F9081F40180812A
:1028B000890F808384303CF088818F5F888360E05B
:1028C000852D0E949313D4018C918D3F3CF4888117
:1028D0008150888361E0852D0E949313F4018081EB
:1028E000837887FF03C081508C6F8F5FD4018D93F5
:1028F0004D0153942196B2E05B129DCFDF91CF91B1
:102900001F910F91FF90EF90DF90CF90BF90AF900D
:102910009F908F907F906F905F9008950F931F937B
:10292000CF93DF93C62FD42F122FFC0182818823EF
:10293000C9F0609311020E94882590931002809341
:102940000F0280E28C0F883008F057C0C77081E01A
:1029500001C0880FCA95EAF7DF91CF911F910F91BF
:102960000C94DF1A80911102681330C080910F021D
:10297000909110020E94A025883C910538F500E254
:102980000D0FCD17B9F080E28C0F883040F4C7707E
:1029900081E001C0880FCA95EAF70E94E61A083064
:1029A00028F581E09D2F977001C0880F9A95EAF76E
:1029B0000E94DF1A812F0E94CC1A0830F0F4D770E1
:1029C00081E001C0880FDA95EAF70AC080E28C0F37
:1029D000883098F4C77081E001C0880FCA95EAF783
:1029E000DF91CF911F910F910C94E61A812FDF9107
:1029F000CF911F910F910C94CC1ADF91CF911F9121
:102A00000F9108959C01CB01233F4CE53407F9F069
:102A100078F4283DFCE53F07B9F0293D4CE5340743
:102A200011F1273D3C4531F526E241EE61EE1EC035
:102A3000253FFCE53F0799F070F0263F3C45D1F477
:102A400027E245EE66EE12C027E245EE0EC026E212
:102A500041EE60EE0BC027E245EE64EE07C026E2D1
:102A600041EE62EE03C028E241E065EE0E948E1462
:102A700080E00895FC018281882319F010921102F0
:102A8000089581E00895CF93DF93EC01FB018281EB
:102A9000882309F41FC1C230FCE5DF0708F41BC11D
:102AA000C6319CE5D90738F09E012A5F3C452930A4
:102AB000310508F010C10E9404249093BC02809359
:102AC000BB02C031ECE5DE0709F4C3C008F041C029
:102AD000C8308CE5D80709F49AC0F0F4C430ECE5AE
:102AE000DE0709F487C068F4C2308CE5D80709F422
:102AF00077C0C330DC4509F0E3C08091BB0282603F
:102B000076C0C630ECE5DE0709F46EC008F07BC085
:102B10008091BB0288606BC0CC308CE5D80709F48B
:102B200085C068F4CA30ECE5DE0709F474C008F02B
:102B300079C00E946E1D8091BB02806858C0CE3063
:102B40008CE5D80709F476C008F07FC08091BB02FD
:102B50008BC0CB3FECE5DE0709F44FC018F5C3315D
:102B60008CE5D80709F47DC078F4C131ECE5DE07C7
:102B700009F473C0C231DC4509F0A2C00E946E1D89
:102B80008091BB028F7733C0C5318CE5D80709F43B
:102B900072C008F486C0CA3FDC4509F091C080913C
:102BA000BC023EC0CF3FFCE5DF0709F45FC058F42C
:102BB000CD3F9CE5D90709F444C008F43FC080919B
:102BC000BC0282602DC0C130FDE5DF0709F475C08D
:102BD00008F45DC0C230DD4509F072C080E06EC00F
:102BE0008091BB02816003C08091BB0280618093B1
:102BF000BB0266C08091BB0211C08091BC028260A2
:102C00008093BC025DC08091BB028062F0CF809156
:102C1000BB028064ECCF8091BB0288608460E7CF08
:102C20008160EECF8091BB028E7FE1CF8091BB02AD
:102C30008D7FDDCF8091BB02877FD9CF8091BC0291
:102C400018C08091BC028D7FDBCF8091BB028F7E4C
:102C5000CECF8091BB028F7DCACF8091BB028F7B8C
:102C6000C6CF8091BB02877F8B7FC1CF8091BC0292
:102C70008D7F8E7FC5CF8091BB0282FB222720F9FA
:102C800091E0922790FB82F990FB83F9B0CF80917D
:102C9000BC02982F909591708E7F892B90FB81F9C3
:102CA000AFCF0E946E1D8091BB0287FB222720F9C7
:102CB00091E0922790FB87F99ACF81E00E949324BC
:102CC0008091BB029091BC020E9415240E946E1D4F
:102CD00080E001C081E0DF91CF910895CF93DF9331
:102CE00086319C4541F5EB010E943823982F8A815B
:102CF00020913A0130913B01882379F09A7A81E062
:102D000009F480E080931202911102C069E201C0CF
:102D100065E3C9010E94DA240AC080911202811180
:102D200002C069E201C065E3C9010E94DC240E947F
:102D3000892380E001C081E0DF91CF910895CF9396
:102D4000DF93EC0181E0898B8F810E943B23888592
:102D50000E944E230E948923EA81FB81CE010696C0
:102D6000309729F06C897D89DF91CF910994DF91AB
:102D7000CF910895CF93DF93FC012081223039F465
:102D8000FB01EC0182810E94AF2181E08B87DF9102
:102D9000CF910895DB01FC018081813021F48D9178
:102DA0009C910C946B09823039F41396ED91FC914F
:102DB000149712968C9109940895FC0180818130BA
:102DC00029F4FB01808191810C9481090895EF928F
:102DD000FF920F931F93CF93DF93FC012285211164
:102DE00036C0EC01E380F480F7E5FF1A26E12E9D62
:102DF000C0012F9D900D1124DC01A050BF4F1496EF
:102E0000ED91FC9115978A5F9E4F309729F054966B
:102E10006D917C915597099586E18E9D80018F9DDE
:102E2000100D112400501F4FF80187810E9441238B
:102E3000F80180850E9454230E94892318821986F4
:102E40001B861E821D821092140210921302DF91C3
:102E5000CF911F910F91FF90EF900895DF92EF9225
:102E6000FF920F931F93CF93DF93FB0122812223C5
:102E7000A1F1209139012F3F81F18C01C0E0D1E017
:102E8000E12CF12CDD24D39480913901082E000C23
:102E9000990B8E159F050CF18E818823C9F08985C9
:102EA0009A858017910739F480911302909114024A
:102EB0000817190769F0DF861C870B87898981113C
:102EC00003C0CE010E949F16CE0106960E94E7160F
:102ED000FFEFEF1AFF0A6696D7CFDF91CF911F91D0
:102EE0000F91FF90EF90DF900895EF92FF920F9374
:102EF0001F93CF93DF939C0137552F3F310511F07E
:102F000008F047C040913901042E000C550B4217C0
:102F1000530714F420933901FB017C01828196E16F
:102F2000929F8001939F100D1124E801C050DF4F44
:102F3000888B92818E81992311F1FA86E9868F5FC1
:102F40008E830E9488259E878D870E946E238F83A3
:102F50000E94382388870E944B239885892B888775
:102F6000E881F981C8018A5F9E4F309719F06C891A
:102F70007D890995F0921402E09213020AC0882319
:102F800041F08989882329F0C8018A5F9E4F0E94F9
:102F9000E71681E0DF91CF911F910F91FF90EF90A5
:102FA0000895CF92DF92EF92FF920F931F93CF93EA
:102FB000DF93809139018F3FF1F1F12C96E1E92EF9
:102FC0000F2D10E080913901082E000C990B80170D
:102FD00091078CF1E09EF001E19EF00D1124E0508C
:102FE000FF4FC288D388C114D10419F488ECC82ECD
:102FF000D12CE09EE001E19ED00D1124C050DF4FA6
:103000008E818823B1F08D859E850E94A025C816EB
:10301000D90678F48989811103C0CE010E949F16D8
:10302000E09EC001E19E900D11248A5F9E4F0E9498
:10303000E716F394C5CFDF91CF911F910F91FF90C9
:10304000EF90DF90CF90089590931A028093190229
:103050000895E0911902F0911A02309721F0019041
:10306000F081E02D099480E00895EF92FF920F9394
:103070001F93CF93DF93E0911902F0911A023097DA
:10308000B1F18C010280F381E02D099580917E02DF
:1030900082FF2DC080FF04C089ED96E00E942C07BE
:1030A000E80118E083EDE82E86E0F82E80917E029C
:1030B00080FF0BC088811F928F93FF92EF920E9436
:1030C000C5070F900F900F900F901150219611117E
:1030D000EDCF80917E0280FF0AC081ED96E0DF9106
:1030E000CF911F910F91FF90EF900C942C07DF91DF
:1030F000CF911F910F91FF90EF90089520911702AB
:10310000309118022817390771F0909318028093B4
:103110001702E0911902F0911A02309721F006800F
:10312000F781E02D0994089520911502309116023F
:103130002817390771F09093160280931502E091D9
:103140001902F0911A02309721F00084F185E02DE8
:103150000994089585B7806885BF85B7806885BF65
:10316000089508950C94B1180C94B2180C94B118E9
:103170000C94B1180E94AA180E94B6180C94B418A6
:1031800081E008950C94C0180E947F250E94D40706
:103190000E94E6250E9473110E9495130C94B818A2
:1031A000CF93C82F80917E0282FF1EC080FF04C093
:1031B00082EF96E00E942C0780917E0280FF0CC077
:1031C0001F92CF938DEE96E09F938F930E94C50739
:1031D0000F900F900F900F9080917E0280FF04C09F
:1031E0008BEE96E00E942C078C2FCF910C94F8095F
:1031F000AF92BF92CF92DF92EF92FF920F931F9305
:10320000CF93DF93CDB7DEB72A970FB6F894DEBF22
:103210000FBECDBF0E9443080E94C218811111C089
:103220008FEF89838A831B820E9488258160782F93
:103230009D838C8349815A816B818D810E94921973
:1032400040C08CE1A82E82E0B82E00E010E0C02E35
:10325000802F0E94CE07E82EF501D1905F01D8267D
:1032600031F40F5F1F4F0530110589F7D9CF8091D9
:103270007E0281FD0E942A0880E0FF24F3949D2DA8
:103280009F21D1F08E83CF82EF2081E009F480E08E
:1032900088870E9488258160782F9A8789874E8148
:1032A0005F8168858A850E949219F801E45EFD4F6E
:1032B0008081F826F08205C08F5FFF0C8430F9F61C
:1032C000D0CF0E945F120E94F9130E94291890919A
:1032D0001B028917B1F00E94291880931B022A96BD
:1032E0000FB6F894DEBF0FBECDBFDF91CF911F9117
:1032F0000F91FF90EF90DF90CF90BF90AF900C9424
:10330000D0182A960FB6F894DEBF0FBECDBFDF915E
:10331000CF911F910F91FF90EF90DF90CF90BF90D2
:10332000AF900895CF93DF93CDB7DEB72B970FB64D
:10333000F894DEBF0FBECDBF4F83588769877A8769
:103340008B87DE01119686E0FD0111928A95E9F7DF
:1033500085E0FE01379601900D928A95E1F749814B
:103360005A816B817C818D819E810E9427202B96C2
:103370000FB6F894DEBF0FBECDBFDF91CF91089599
:10338000FC01808191810E94F9220895CF938823C6
:1033900009F4A1C0C82F8238C1F40E94291881FD08
:1033A0009AC069E380913A0190913B010E94DA242E
:1033B0000E9489232FEF81EE94E0215080409040BD
:1033C000E1F700C0000069E319C0833801F50E94ED
:1033D000291880FD80C063E580913A0190913B01FE
:1033E0000E94DA240E9489232FEF81EE94E021507D
:1033F00080409040E1F700C0000063E580913A0111
:1034000090913B010E94DC24CF910C948923843855
:10341000C1F40E94291882FD5EC067E480913A01E0
:1034200090913B010E94DA240E9489232FEF81EEC4
:1034300094E0215080409040E1F700C0000067E434
:10344000DDCF8CEF8C0F813AF8F48C2F0E94A028EE
:10345000811141C06C2F80913A0190913B010E94F3
:10346000A424882349F06C2F80913A0190913B016C
:103470000E94DC240E9489236C2F80913A01909154
:103480003B010E94DA24C0CF80E28C0F883048F4E0
:10349000C77081E001C0880FCA95EAF70E943B23FC
:1034A000B3CFEBE5EC0FE33040F4F0E0E552FE4F34
:1034B000808190E0CF910C947E18C85AC73158F49F
:1034C000EC2FF0E0EE0FFF1FE355FE4F808191815E
:1034D000CF910C949418CF910895882309F45BC080
:1034E000682F823879F40E94291881FF54C069E35B
:1034F00080913A0190913B010E94DA240E94892335
:1035000069E310C08338B1F40E94291880FF43C0DA
:1035100063E580913A0190913B010E94DA240E9478
:10352000892363E580913A0190913B010E94DC245C
:103530000C948923843879F40E94291882FF2BC0C7
:1035400067E480913A0190913B010E94DA240E9445
:10355000892367E4E7CF8CEF860F813A18F380E286
:10356000860F883048F4677081E001C0880F6A9543
:10357000EAF70E944123DCCF8BE5860F833020F4ED
:1035800080E090E00C947E18685A673120F480E067
:1035900090E00C9494180895CF93C82F0E94C619F8
:1035A000C93349F42FEF87EE93E0215080409040DB
:1035B000E1F700C000008C2FCF910C946D1A882386
:1035C00021F00E943B230C9489230895882321F045
:1035D0000E9441230C9489230895CF92DF92EF92A9
:1035E000FF920F931F93CF93DF937C01062FC72F7A
:1035F000FC01158112951F70D281D1110E945B23AD
:103600000E943123882399F0DD2389F08C2F807F5D
:10361000803421F080E2800F883048F082E00E9400
:10362000D3230E94312391E0D82ED92601C0D12C7A
:10363000CC2EC2948FE0C8228C2D90E0FC01E6597C
:10364000FF4F0C94AD308C2F807FCF70882311F00A
:10365000C295C07FDD2399F0CC2309F482C180E2BA
:10366000800F883010F0011104C08C2F0E943B2382
:1036700003C08C2F0E944E230E94892372C1802F89
:103680000E946D1ACC2309F491C180E2800F88302A
:1036900010F0011104C08C2F0E94412303C08C2F15
:1036A0000E9454230E94892381C18C2F807FCF7078
:1036B000803211F0C295C07F002319F00130C9F0AB
:1036C00022C0DD2371F0112341F0113031F40E944A
:1036D0006E238C2B0E94762369C10E946E238C2B53
:1036E0001DC0112319F0113009F460C10E947F231D
:1036F00025C0DD2321F0163008F058C10EC015306A
:1037000008F054C11BC0DD2361F0112331F0F70133
:10371000858180FF26C18F7085838C2F0E94DF1AE0
:1037200045C1112359F0093309F02CC1FFEF27EEF1
:1037300083E0F15020408040E1F722C18C2F0E94AD
:10374000E61A34C18C2F86958695837019F08130E6
:1037500061F02CC1DD2321F0802F9C2F937002C0DB
:1037600080E090E00E947E1829C1DD2321F0802FA7
:103770009C2F937002C080E090E00E9494181EC1BC
:103780008C2F837009F045C0D11114C1402F429590
:1037900046954770440F440F602F6F70862F90E05E
:1037A000A0E0B0E0042E04C0880F991FAA1FBB1F21
:1037B0000A94D2F704FF10C00FE010E020E030E0E0
:1037C00004C0000F111F221F331F4A95D2F7009526
:1037D00010952095309503C000E010E09801C69543
:1037E000C695C370BC01CD01602B712B822B932B2E
:1037F000C23049F058F4C13019F00E947821DAC083
:103800000E946621D7C00E948A21D4C00E946421F0
:10381000D1C0DD2319F08C2F817001C086958823DB
:1038200009F4C8C0402F429546954770440F440F95
:10383000602F6F70862F90E0A0E0B0E0042E04C0EF
:10384000880F991FAA1FBB1F0A94D2F704FF10C04C
:103850000FE010E020E030E004C0000F111F221F35
:10386000331F4A95D2F7009510952095309503C0E7
:1038700000E010E09801C695C695C370BC01CD016B
:10388000602B712B822B932BC23049F058F4C1303E
:1038900019F00E943D228EC00E942B228BC00E94F4
:1038A0004F2288C00E949E2185C0CF70DD2339F051
:1038B0008C2F0E94C421802F0E94DF1A7BC0802F92
:1038C0000E94E61A8C2F0E94E52174C0023F01F18C
:1038D00028F4003F41F0013FA1F03FC0033FF9F061
:1038E000043F39F13AC0DD2341F0153008F05EC0E5
:1038F0008C2F8F710E940A2259C0163008F056C0D2
:10390000F7CFDD2339F08C2F8F710E94C4214EC078
:10391000DD23C9F38C2F8F710E94E52147C0DD2381
:1039200029F08C2F8F710E94AF2140C00E94AA21E4
:103930003DC0DD2349F0CF718C2F0E94C42163E08C
:103940008C2F0E94BE2332C081E00E94D32312300C
:1039500068F182E00E94D32329C0DD2331F01123D6
:1039600091F2802F0E94C61921C0112399F20933C8
:1039700049F49FEFE7EEF3E09150E040F040E1F7CB
:1039800000C00000802F0E946D1A10C04C2F4F7095
:10399000602FC7010E947B0A0E94D5200FC04C2FC8
:1039A0004F70602FC7010E947E0A08C088EF8C0DFF
:1039B000843020F40E9429180E94F809DD20C9F003
:1039C0000E942D2380FD15C0F70112820E9427233B
:1039D0000E94C421C7010E941A1D0E942723DF9163
:1039E000CF911F910F91FF90EF90DF90CF900C94AB
:1039F000E521DF91CF911F910F91FF90EF90DF9024
:103A0000CF9008950F931F93CF93DF93EC016881BC
:103A100079818A810E9404238C010E9461220E9484
:103A20005221B801CE010E94ED1ADF91CF911F9172
:103A30000F910895CF93DF93EC01988189812B81B9
:103A40003C81232B31F08F3F31F481E09F3F19F40B
:103A500003C081E001C080E080FD19C0CE010E945A
:103A6000110A81110CC00E943123882381F08A81C0
:103A7000882369F082E0DF91CF910C94D323CE01AB
:103A80000E94021DCE01DF91CF910C94DA09DF91E3
:103A9000CF910895882321F00E944E230C9489230E
:103AA0000895882321F00E9454230C9489230895BB
:103AB0000E945B230E946B230E94892380E090E098
:103AC0000E947E1880E090E00C94941880913A0156
:103AD00090913B010E94DE240C94581D0E944823C3
:103AE0000C94661DE92FE295EF704E2F50E0FA011D
:103AF0003297EE30F105B0F4E658FF4F0C94AD303C
:103B0000803F91F018F4883E68F40EC0843F51F471
:103B10000BC0883E48F0813F29F406C093FB8827FC
:103B200080F9089580E0089581E008950E94F922C7
:103B30000E94721D0895CF93DF9300D000D01F9292
:103B4000CDB7DEB70F900F900F900F900F90DF91D1
:103B5000CF910895CF93DF9300D000D000D0CDB7A0
:103B6000DEB726960FB6F894DEBF0FBECDBFDF914D
:103B7000CF9108951F93CF93DF93C091220216E057
:103B800080912302C81799F0D0E01C9FF0011D9F7F
:103B9000F00D1124EC5DFD4F4081518162817381F4
:103BA000848195810E94AA1D2196C770E9CFDF917B
:103BB000CF911F9108954091540250915502609108
:103BC00056027091570280915802909159020C94BC
:103BD000AA1D0F931F93CF93DF9380915902829573
:103BE0008F7009F05DC080915602882309F458C097
:103BF000809122021091230260915402709155022B
:103C0000C0915702D091580291E06F3F09F090E0C7
:103C1000292F06E0811709F443C0209721F07F3F48
:103C200021F030E003C031E001C0322F90E030FDE0
:103C300034C0089FF001099FF00D1124DF01AC5D35
:103C4000BD4F11963C911197371327C03C91361305
:103C500024C012963C91129731111FC013964D91BA
:103C60005C9114974C1B5D0B483C5105B0F480915E
:103C700059028F70806180935902E75DFD4F80810A
:103C80008F708061808384E592E00E941A1DDF912D
:103C9000CF911F910F910C94BA1D01968770BACFE6
:103CA000DF91CF911F910F9108959F92AF92BF9294
:103CB000CF92DF92EF92FF920F931F93CF93DF93F8
:103CC000CDB7DEB761970FB6F894DEBF0FBECDBF9C
:103CD0008C0185E0F801DE011D9601900D928A9518
:103CE000E1F7F80140815181E280909154026091A6
:103CF000550220915702309158022115310531F0BB
:103D00006F3F31F481E09F3F19F403C081E001C0AF
:103D100080E0F82FF1709F2E80FD46C1F801A3804E
:103D2000B48084E5C82E82E0D82EF0905602F501CA
:103D3000E21BF30BFF2009F4DFC080915902E83C3D
:103D4000F10508F09BC0282F207F09F052C05613C0
:103D500013C0491311C0FE2CE1100EC08F7080619A
:103D6000809359020E94DB1DC6010E941A1D80919A
:103D70005902F801858358C1AB2831F05F3F31F417
:103D800081E04F3F19F403C081E001C080E080FD75
:103D900003C081E08E2502C080E090E0F82FF17032
:103DA000FF2E80FF1CC0809122022091230236E06A
:103DB000821709F417C190E0389FF001399FF00D88
:103DC0001124EC5DFD4F6181561306C060814613DE
:103DD00003C06281E61203C001968770E9CFFE2C12
:103DE000EE2009F421C1809159028160809359022B
:103DF0005AC0561306C0491304C0E11002C0F801AE
:103E00009FC04D875E878D859E850E94961D882365
:103E100079F1EE2069F120915902822F82958F70FD
:103E200090E0029774F08091540290915502988727
:103E30008F831986BB86AA862C87CE0107960E949F
:103E40001A1D86E0F801A4E5B2E001900D928A9572
:103E5000E1F70E94E91D0E94DB1D0DC0561729F1F4
:103E60004D875E878D859E850E94961D81112CC091
:103E7000C8010E941A1DFF24F394D6C0282F207F6A
:103E800069F77A2DB98AA88A6E2D89890E949B1DAF
:103E900084E592E00E941A1D86E0F60111928A954F
:103EA000E9F70E94DB1DF12CBFC04913D9CFE11007
:103EB000D7CFF8018583C8010E941A1D86E0F6015C
:103EC00011928A95E9F7B0C0EE2091F22091590243
:103ED000822F82958F7090E002970CF4B2CF809180
:103EE0005402909155029A8389831B82BD82AC82D1
:103EF0002E83CE010196A3CFE83CF10508F047C020
:103F0000FE2CEE2009F4B4CF561330C049132EC056
:103F10002091590220FD21C0822F82958F70482F59
:103F200050E041155105C9F0F80125834F30510586
:103F300041F08F5F982F9295907F822F8F70892B01
:103F40008583C8010E941A1D86E0F801A4E5B2E04D
:103F500001900D928A95E1F742C086E0F801A4E550
:103F6000B2E001900D928A95E1F75EC04D875E87C1
:103F70008D859E850E94961D811163CF8091590287
:103F8000816080935902C8010E941A1D4DC07A2D8C
:103F9000B98AA88A6E2D89890E949B1D86E0F60148
:103FA00011928A95E9F71BC0EE2009F461CF4D8785
:103FB0005E878D859E850E94961DF82E882309F4C4
:103FC00057CF86E0F801A4E5B2E001900D928A9502
:103FD000E1F784E592E00E94C0190E94E91D0E9469
:103FE000DB1D22C04D875E878D859E850E94F9224C
:103FF000292F22952F70223028F49F7039F08111DB
:1040000005C00BC0243028F49F7049F4805E8830CE
:1040100020F0C8010E941A1D9F2CF92C05C0F80140
:104020009581907F99F7F9CF8F2D61960FB6F8940F
:10403000DEBF0FBECDBFDF91CF911F910F91FF90DB
:10404000EF90DF90CF90BF90AF909F9008951F9317
:10405000CF93DF93CDB7DEB72C970FB6F894DEBFC2
:104060000FBECDBF4F83588769877A878B879C8720
:10407000CE0107960E94551E8823D1F09F81888526
:104080002A853B85232B31F08F3F31F481E09F3F20
:1040900019F403C081E001C080E080FD47C04F817A
:1040A000588569857A858B859C850E94AA1D3EC0AE
:1040B00086E0FE013796DE01119601900D928A95F9
:1040C000E1F7FF81E8856A857B856115710531F02F
:1040D000EF3F31F481E0FF3F19F403C081E001C0FC
:1040E00080E080FD23C02091230230E0C9010196C9
:1040F000877099274091220250E084179507F1F1CB
:10410000F983EA837D836C8396E0929FD001939F2D
:10411000B00D1124AC5DBD4FFE01319601900D92A2
:104120009A95E1F7809323020E94BA1D16E08091D0
:10413000220290912302891771F1189FC001112466
:104140008C5D9D4F0E94551E882329F1E09122022B
:104150001E9FF0011124EC5DFD4F40815181628171
:104160007381848195810E94AA1D8091220290E032
:1041700001968770992780932202D9CF0E946E1DE5
:104180001092230210922202E4E5F2E086E0DF01C1
:104190001D928A95E9F72C960FB6F894DEBF0FBEF4
:1041A000CDBFDF91CF911F910895EF92FF920F93B2
:1041B0001F93CF93DF938C01892B09F46CC0F12CF2
:1041C000EE24E394E8012196F8018491843740F4C9
:1041D000843008F051C0813081F0823019F15BC029
:1041E000853709F444C0A8F19CE7980F903708F090
:1041F00052C08F770E946D1A41C00E5F1F4FFE01A3
:10420000849190E2980F983050F48770FE2D01C091
:10421000FF0F8A95EAF78F2F0E945E2314C00E9439
:10422000C6192DC00E5F1F4FFE01849190E2980FBA
:10423000983060F48770FE2D01C0FF0F8A95EAF771
:104240008F2F0E9464230E94892319C00E946D1A37
:1042500016C00E5F1F4FFE01C491CC2381F08FE981
:104260009FE00197F1F700C00000C150F6CF0E5F4C
:104270001F4FFE01F49003C00E94C6198E018F2DBE
:10428000882309F49FCFEFE9FFE03197F1F700C0F1
:1042900000008150F5CFDF91CF911F910F91FF90DA
:1042A000EF900895089508950C9453210C9454218F
:1042B0000E94562160936D0270936E0280936F028C
:1042C000909370020C94581D0C9458210F931F93D7
:1042D00000916D0210916E0220916F023091700278
:1042E000602B712B822B932B1F910F910C945821D3
:1042F0000F931F9300916D0210916E0220916F0237
:104300003091700260237123822393231F910F91B8
:104310000C9458210F931F9300916D0210916E021F
:1043200020916F02309170026027712782279327B6
:104330001F910F910C9458210C9453210E949C21A1
:104340006093690270936A0280936B0290936C028F
:104350000C94581D60E070E0CB010C949E210F93EB
:104360001F9341E050E060E070E08A019B0104C0CF
:10437000000F111F221F331F8A95D2F7C901B80100
:104380001F910F910C949E210F931F9341E050E0D9
:1043900060E070E004C0440F551F661F771F8A95C8
:1043A000D2F78091690290916A02A0916B02B0915C
:1043B0006C028A019B01082B192B2A2B3B2BC9016C
:1043C000B8011F910F910C949E210F931F9341E010
:1043D00050E060E070E004C0440F551F661F771F77
:1043E0008A95D2F7409550956095709580916902B5
:1043F00090916A02A0916B02B0916C028A019B01BC
:10440000082319232A233B23C901B8011F910F91C7
:104410000C949E210F931F9341E050E060E070E008
:1044200004C0440F551F661F771F8A95D2F78091ED
:10443000690290916A02A0916B02B0916C028A01AC
:104440009B01082719272A273B27C901B8011F917B
:104450000F910C949E210F931F930091690210916C
:104460006A0220916B0230916C02602B712B822BBF
:10447000932B1F910F910C949E210F931F930091EA
:10448000690210916A0220916B0230916C026023E4
:104490007123822393231F910F910C949E210F93DC
:1044A0001F930091690210916A0220916B02309172
:1044B0006C0260277127822793271F910F910C941C
:1044C0009E210895990F990F890FE82FE695E6959B
:1044D000E695877051E001C0550F8A95EAF785E0AF
:1044E000E89FF0011124E65AFD4F20E030E070E033
:1044F0004081CB01022E02C0969587950A94E2F77F
:104500008170819584278523842781932F5F3F4F76
:104510002530310569F70895990F990F890F682F94
:10452000669566956695982F977085E0689FB001AF
:10453000112440E050E080E0FB01E40FF51FE65A53
:10454000FD4F208130E0092E02C0369527950A9450
:10455000E2F721703327042E01C0220F0A94EAF7F4
:10456000822B4F5F5F4F4530510531F70895BF9261
:10457000CF92DF92EF92FF920F931F93CF93DF932F
:104580008C01C0906902D0906A02E0906B02F090BA
:104590006C0280916D0290916E02A0916F02B091B9
:1045A0007002C82AD92AEA2AFB2ACFE1D0E0D70133
:1045B000C6010C2E04C0B695A795979587950A94C9
:1045C000D2F780FD04C0219790F7B12C07C0BC2E14
:1045D000B8018C2F0E949B0A0197A9F38B2DDF91C4
:1045E000CF911F910F91FF90EF90DF90CF90BF90F0
:1045F0000895CF93DF93EC010E94B722BE010E9481
:104600009B0ADF91CF9108951F93CF93DF93EB0126
:1046100090912102992321F0CB010E94F92213C02D
:10462000882349F0CB010E94B722182F682FCE01B2
:104630000E94622204C0CB010E948C22182FBE016E
:10464000812F0E949B0ADF91CF911F910895809145
:104650007102859585958595089580917102877081
:10466000089590917102977081E009F480E00895B7
:1046700080917D02089590917D02892B80937D0227
:104680000895809590917D02892380937D020895FD
:1046900010927D02089580917C02089590917C0291
:1046A000892B80937C020895809590917C028923C8
:1046B00080937C02089510927C02089590917B0271
:1046C000892B80937B020895809590917B028923AA
:1046D00080937B02089510927B020895809172026C
:1046E000089508950C9471230C9472239091720292
:1046F000981721F0809372020C947423089580918E
:104700007202882329F01092720280E00C947423C4
:104710000895E0913A01F0913B0180917D02808300
:10472000E0913A01F0913B01908180917C02892BCC
:104730008083E0913A01F0913B01908180917B026E
:10474000892B808380917202882381F0E0913A0165
:10475000F0913B019081892B808380913A01909167
:104760003B010E94982481110E947F2380913A018D
:1047700090913B010C9435180C94712398E0899F1B
:1047800090011124262B209371020E94C421809154
:1047900071028595859585950C94BC2310927102C4
:1047A00080E00C94BC232091710280958223809339
:1047B0007102982F977079F430E0482F082E000C82
:1047C000550B2417350739F08595859585950E94F9
:1047D000E5210C94CE2308959093EF018093EE0190
:1047E000089580E090E00E94CE3021E08C3E9E4F04
:1047F00009F020E0822F089582E090E00C94C03010
:1048000083E090E00C94C030CF9384E090E00E946D
:10481000C030C82F81E290E00E94C0302C2F30E0E1
:10482000A901582BCA01CF910895CF93C92F682FA2
:1048300084E090E00E94D4306C2F81E290E0CF9130
:104840000C94D430AB01BC018FE090E00C94E630C6
:10485000AB01BC0183E190E00C94E63060E070E0D5
:10486000CB010C94282460E070E0CB010E9422244C
:104870000C942E246CEE7EEF80E090E00E94F230EB
:1048800060E082E090E00E94D43060E083E090E05D
:104890000E94D43010926D0210926E0210926F023C
:1048A0001092700260E084E090E00E94D43060E0FA
:1048B00081E290E00E94D43060E085E090E00E94C8
:1048C000D43060E086E090E00E94D4306FEF87E063
:1048D00090E00E94D43040E050E0BA0188E090E0DF
:1048E0000E94E63060E08DE090E00E94D43040E02D
:1048F00050E0BA0188E190E00E94E63060E087E194
:1049000090E00E94D43040E050E0BA018CE190E0A9
:104910000E94E63060E080E290E00E94D4300C9487
:1049200033240C943A24682F8EE090E00C94D43019
:10493000FC01329697E080E0915029F021912223EA
:10494000D9F38F5FF9CF0895662349F0FC013296C1
:1049500008962191621729F0E817F907D1F780E04E
:10496000089581E008959C01FC0132969FEF80E05C
:104970004191461789F09F3F19F4411101C0982FCA
:104980008F5F8630A9F79F3F39F0F901E90FF11DDC
:1049900097FDFA956283089508959C012A5F3F4F21
:1049A000FC014281461301C01282019682179307CF
:1049B000B9F708950C94B3240C94CD24029626E004
:1049C000FC0111922A95E9F7089508950C94E524C5
:1049D0000C94E524CF930E94E8240E9443080E948F
:1049E000E624C0E08C2F0E94CE07811104C0CF5F67
:1049F000C530C1F701C081E0CF9108950C94E52442
:104A00000C94FE240E9400258091C102843009F498
:104A100039C010927F0220E488E190E00FB6F8944C
:104A2000A895809360000FBE2093600080E00E94F4
:104A3000F8090E94CF108091800281110AC081E0A4
:104A400080938002809191028170809381020E9404
:104A50003D120E94002583B7817F846083BF83B7A6
:104A6000816083BF7894889583B78E7F83BF0FB6AC
:104A7000F894A895809160008861809360001092FE
:104A800060000FBE08950C94E5240E946E1D0E94E4
:104A900029180E94F80910928002809181028111E8
:104AA0000E94D8110E94AD100C9443251F920F92C2
:104AB0000FB60F9211248F939F93AF93BF93809162
:104AC0007F02811113C08091B7029091B802A0912A
:104AD000B902B091BA024196A11DB11D8093B702EF
:104AE0009093B802A093B902B093BA02BF91AF916C
:104AF0009F918F910F900FBE0F901F90189582E09D
:104B000084BD93E095BD9AEF97BD80936E000895A4
:104B10002FB7F8948091B7029091B802A091B90292
:104B2000B091BA022FBF08952FB7F8946091B702E1
:104B30007091B8028091B9029091BA022FBF089586
:104B40009C014FB7F8948091B7029091B802A09160
:104B5000B902B091BA024FBF821B930B08957894AB
:104B60001F920F920FB60F9211248F939F93AF93C2
:104B7000BF938091B7029091B802A091B902B09111
:104B8000BA020196A11DB11D8093B7029093B8029D
:104B9000A093B902B093BA02BF91AF919F918F9148
:104BA0000F900FBE0F901F90189587E797E790938F
:104BB0000108809300089AE088E10FB6F894A89560
:104BC000809360000FBE90936000FFCF0E94F1239E
:104BD000811102C00E9491240E94FC2380937E02D6
:104BE0000E9404249093BC028093BB020E94002484
:104BF000682F70E080E090E00C946421CF93C82F80
:104C00001F928F938BE097E09F938F930E94C5072D
:104C100081E090E0A0E0B0E0BC01CD0104C0660FEF
:104C2000771F881F991FCA95D2F70E9464210F90A1
:104C30000F900F900F90CF910C946E1DCF93DF9338
:104C40008B3109F4EEC108F08FC18B3009F4B2C189
:104C500008F065C1863009F4B0C120F4853009F44C
:104C6000BEC161C2873009F4C1C1883009F05BC29E
:104C700085E49CE00E942C0786E99BE00E942C07BB
:104C80000E9400241F928F9383E99BE09F938F9350
:104C90000E94C50781E99BE00E942C070E94FC232B
:104CA000C82F8EE79BE00E942C071F92CF9389E7C5
:104CB0009BE09F938F930E94C50787E79BE00E942C
:104CC0002C078DE69BE00E942C078C2F81701F9291
:104CD0008F938AE69BE09F938F930E94C50788E697
:104CE0009BE00E942C078EE59BE00E942C07C1FBF5
:104CF000882780F91F928F938BE59BE09F938F937A
:104D00000E94C50789E59BE00E942C078DE49BE08B
:104D10000E942C07C2FB882780F91F928F938AE498
:104D20009BE09F938F930E94C50788E49BE00E94BD
:104D30002C078FE39BE00E942C07C3FBCC27C0F914
:104D40001F92CF938CE39BE09F938F930E94C507A4
:104D50008AE39BE00E942C070E940424EC0186E277
:104D60009BE00E942C07DF93CF9381E29BE09F930F
:104D70008F930E94C5078FE19BE00E942C0786E07D
:104D80009BE00E942C078C2F81701F928F9383E0F1
:104D90009BE09F938F930E94C5078DB79EB7809627
:104DA0000FB6F8949EBF0FBE8DBF81E09BE00E94BE
:104DB0002C078AEE9AE00E942C07C1FB882780F915
:104DC0001F928F9387EE9AE09F938F930E94C5075F
:104DD00085EE9AE00E942C0783ED9AE00E942C0752
:104DE0008D2F81701F928F9380ED9AE09F938F9308
:104DF0000E94C5078EEC9AE00E942C078CEB9AE08B
:104E00000E942C07D695D1701F92DF9389EB9AE010
:104E10009F938F930E94C50787EB9AE00E942C070F
:104E200085EA9AE00E942C07C2FB882780F91F922E
:104E30008F9382EA9AE09F938F930E94C50780EA3E
:104E40009AE00E942C078EE89AE00E942C07C3FB90
:104E5000882780F91F928F938BE89AE09F938F9316
:104E60000E94C50789E89AE00E942C078FE79AE024
:104E70000E942C07C4FB882780F91F928F938CE730
:104E80009AE09F938F930E94C5078AE79AE00E9459
:104E90002C0788E69AE00E942C07C5FB882780F93A
:104EA0001F928F9385E69AE09F938F930E94C50788
:104EB00083E69AE00E942C0787E49AE00E942C0780
:104EC000C6FB882780F91F928F9384E49AE09F9312
:104ED0008F930E94C5078DB79EB780960FB6F89442
:104EE0009EBF0FBE8DBF82E49AE00E942C078AE32A
:104EF0009AE00E942C07C7FBCC27C0F91F92CF93E2
:104F000087E39AE09F938F930E94C50785E39AE019
:104F10000E942C070F900F900F900F9049C0803186
:104F200009F4A9C020F48E3009F48FC0FCC086318A
:104F300009F4BCC0893109F0F6C088E698E00E9407
:104F40002C078DE398E00E942C0783E098E00E94F4
:104F50002C0781ED97E00E942C0784EA97E00E94DD
:104F60002C0789E797E084C08A32E1F060F4873249
:104F700009F4D5C028F48E3108F4D5C08D51D0C0C5
:104F8000893269F1D0C0833448F48A3308F0C5C04F
:104F9000853309F4C4C0883369F0C5C0833409F48B
:104FA000BEC0C1C084E39CE00E942C070E949124F3
:104FB000C1E0BEC082E998E05BC080917E02817F43
:104FC0008E7F80937E0287E798E00E942C0780E323
:104FD0009CE00E942C0781E080938202E9CF84E16B
:104FE0009CE00E942C070E94020AE2CF80917E0280
:104FF000C82FC095C170C0FB80F980937E02CC237E
:1050000029F088E09CE00E942C0792C08BEF9BE087
:105010000E942C0780917E02897F877F80937E0289
:10502000C7CF90917E0291FBCC27C0F981E0C827C1
:10503000892FC0FB81F980937E02CC2319F08EEE7C
:105040009BE029C080EE9BE013C090917E0292FB12
:10505000CC27C0F981E0C827892FC0FB82F9809353
:105060007E02CC2319F081ED9BE015C081EC9BE022
:105070000E942C079DCF90917E0293FBCC27C0F914
:1050800081E0C827892FC0FB83F980937E02CC235F
:1050900051F085EB9BE00E942C0780917E0281609D
:1050A00080937E0245C088EA9BE0E2CF8BE697E0E2
:1050B0000E942C070E9429181F928F9381E597E088
:1050C0009F938F930E94C507809146011F928F93F3
:1050D0008AE397E09F938F930E94C50780918F0288
:1050E0001F928F9387E297E09F938F930E94C5074B
:1050F0000E9494259F938F937F936F9380E197E015
:105100009F938F930E94C5078DB79EB742960FB6A7
:10511000F8949EBF0FBE8DBF4BCF895301C080E076
:105120000E94FE2545CF86EA9BE00E942C07C0E046
:105130008C2FDF91CF91089580E008950C949C28E6
:10514000CF93C82F80918202882319F0813031F0EB
:1051500038C00E9438238232B1F504C00E9438233F
:10516000823261F48C2F0E949E28811104C08C2F02
:105170000E941E2624C081E090E021C08C2F0E9456
:105180009C2881111BC0C43189F018F4CB3029F060
:1051900010C0C93259F0C83361F487E798E00E9423
:1051A0002C0787E097E00E942C0708C0109282022B
:1051B0000CC085E097E00E942C0707C081E0817059
:1051C00006C01092820280E002C080E0F8CFCF914A
:1051D000089580918E02089508959FB7F8941092D3
:1051E00085029FBF9091C102943009F057C0909101
:1051F000E9009F703091EC00232F217030FD20E8F2
:10520000922B23E02093E9002091EB0020FF43C084
:105210002091EE0027FF3FC020918302222321F03E
:105220002091E80025FF37C01092830226E03091DC
:10523000E80035FD15C03091C102343061F5309180
:10524000EB0035FD28C0215021F481E080938302DA
:1052500022C0EFE9FFE03197F1F700C00000E7CF8F
:105260008093F1008091E80085FD0AC08091E800FC
:1052700080FFFCCF8091E8008E778093E80006C025
:105280008FB7F89421E0209385028FBF9F70909391
:10529000E90080E008959F709093E9008FEF0895F2
:1052A000CF93DF9300D01F92CDB7DEB79091C102AC
:1052B000943019F589837B836A8382E08093E900C7
:1052C0008FEF9091E800815095FD06C095ED9A957D
:1052D000F1F700008111F5CF8091E80085FF0DC046
:1052E00040E050E063E070E0CE0101960E94CE2BDA
:1052F0008091E8008E778093E8000F900F900F90D8
:10530000DF91CF910895CF93DF93EC010E94B12BF1
:10531000823011F0843031F4BE0184E0DF91CF910E
:105320000C945029DF91CF910895BC0183E00C9437
:105330005029CF93DF93EC010E94B12B823011F002
:10534000843039F581E08093E9008FEF9091E80097
:10535000815095FD06C095ED9A95F1F700008111F9
:10536000F5CF8091E80085FF14C040E050E068E090
:1053700070E0CE010E94CE2B8091E8008E77809362
:10538000E80088E0FE01A6E8B2E001900D928A955F
:10539000E1F7DF91CF91089585E79CE00E942C070B
:1053A0008091C002811109C00E945F2D0E94BC2D16
:1053B0008091E20084608093E200089581E79CE0A0
:1053C0000E942C071092C00208958DE69CE00C9478
:1053D0002C0789E69CE00C942C0785E69CE00E9453
:1053E0002C070C944525209184022F5F822F62E3C5
:1053F0000E946B30992319F0209384020895109233
:10540000840280918502882371F18091C1028430E9
:1054100041F58091E9008F702091EC00922F9170FE
:1054200020FD90E8892B93E09093E9009091EB00A8
:1054300090FF14C09091EE0097FF10C09091E8008B
:1054400095FF03C01092F100F9CF9091E80090FF12
:1054500005C09091E8009E779093E8008F7080934C
:10546000E90010928502089542E061EC81E00E941B
:10547000D82C42E261EC82E00E94D82C42E261EC3E
:1054800083E00C94D82C8091C302833009F460C06F
:1054900030F4813071F0823009F499C008958A3077
:1054A00009F485C08B3009F46BC0893009F0A7C0BE
:1054B00020C08091C202813A09F0A1C08091E80029
:1054C000877F8093E8008091C6029091C702892B64
:1054D00021F468E086E892E003C060E080E090E0BC
:1054E00070E00E94192C8091E8008B778093E8008F
:1054F00008958091C202813209F081C08091C60274
:105500009091C702029708F07AC08091E800877FE7
:105510008093E8008091E80082FD05C08091C1027F
:105520008111F8CF6CC02091F3008091F20090E0DF
:10553000922B029729F48091F1008B7F813021F426
:105540008091F10080938E028091E8008B7753C0A8
:105550008091C202813A09F052C08091C6029091B6
:10556000C702892B09F04BC08091E800877F8093A8
:10557000E8008091E80080FFFCCF8091460136C0B2
:105580008091C2028132D9F58091C6029091C70202
:10559000892BA9F58091E800877F8093E8000E941D
:1055A0000D2D8091C402809346010C946E1D809154
:1055B000C202813221F58091E800877F8093E80064
:1055C0000E940D2D8091C50280938F0208958091D5
:1055D000C202813AA1F48091E800877F8093E800BD
:1055E0008091E80080FFFCCF80918F028093F100D2
:1055F0008091E8008E778093E8000C940D2D08953B
:1056000084B7877F84BF0FB6F894A8958091600017
:10561000886180936000109260000FBE90E080E887
:105620000FB6F89480936100909361000FBE0E94C2
:10563000BA180E945F2D0E94BC2D8091E200846008
:105640008093E2008DEE98E20E94EC2378940E9411
:1056500050300E94C4188CE391E00E94241884E525
:105660009CE00E942C078091C102853089F480E57E
:105670009CE00E942C070E9402258091BF02882393
:1056800091F30E94EA24882371F30E94B82BEBCF98
:105690000E94F818E8CF0C944D2B292F3327233084
:1056A0003105C9F060F42130310581F02230310537
:1056B00009F047C08BE590E02DEA3CE046C021327E
:1056C000310511F12232310561F13BC082E190E0F8
:1056D00028E03DE03AC099278130910561F040F023
:1056E0008230910559F0039761F5E9E7FCE008C0C5
:1056F000E9EAFCE005C0EDE8FCE002C0EFE7FCE011
:10570000849190E09F0121C063307105D0F4660F51
:10571000771FFB01E951FE4F2081318189E090E044
:1057200014C06330710568F4FB01EE0FFF1FEF51E9
:10573000FE4F20813181FB01E252FE4F808190E0DB
:1057400004C080E090E020E030E0FA013183208363
:1057500008958091C102843011F081E0089582E0C3
:10576000089580919002811102C00C94A92B089594
:1057700080E189BD82E189BD09B400FEFDCF809141
:10578000D8008F7D8093D8008091E0008260809364
:10579000E0008091E00081FDFCCF0895CF92DF9280
:1057A000EF92FF920F931F93CF93DF93EC018B0146
:1057B0007A010E942C2D811133C0E114F10439F0DB
:1057C000F70180819181081B190BC80FD91FC12CCB
:1057D000D12C0115110519F18091E80085FD16C045
:1057E0008091E8008E778093E800E114F10449F09D
:1057F000F70180819181C80ED91ED182C08285E0D7
:105800000FC00E942C2D882321F30AC08991809318
:10581000F10001501109FFEFCF1ADF0ADACF80E063
:10582000DF91CF911F910F91FF90EF90DF90CF907C
:1058300008952091C8023091C9022617370748F011
:105840006115710539F42091E8002E772093E80066
:1058500001C0B901FC0120E06115710579F1809169
:10586000C1028823F1F18530F1F18091E80083FDD8
:105870003CC08091E80082FD2EC08091E80080FF4E
:10588000EBCF2091F3008091F20090E0922B611514
:10589000710551F08830910538F421912093F10081
:1058A000615071090196F3CF21E0089709F020E0DB
:1058B0008091E8008E778093E800CECF2111CFCF82
:1058C0000AC08091C102882361F0853061F0809127
:1058D000E80083FD0AC08091E80082FFF2CF80E0FB
:1058E000089582E0089583E0089581E0089520916D
:1058F000C8023091C9022617370748F061157105B3
:1059000039F42091E8002E772093E80001C0B90116
:10591000FC0120E06115710591F18091C10288239D
:1059200009F440C0853009F43FC08091E80083FD50
:105930003DC08091E80082FD2FC08091E80080FF8B
:10594000E9CF2091F3008091F20090E0922B611555
:10595000710559F08830910540F424912093F100AD
:105960003196615071090196F2CF21E0089709F054
:1059700020E08091E8008E778093E800CBCF211162
:10598000CCCF0AC08091C102882361F0853061F0DC
:105990008091E80083FD0AC08091E80082FFF2CF89
:1059A00080E0089582E0089583E0089581E00895FD
:1059B000982F973068F59093E900981739F0709117
:1059C000EC002091ED005091F00003C0242F762FC1
:1059D00050E021FD02C09F5FECCF3091EB003E7F95
:1059E0003093EB003091ED003D7F3093ED0030912E
:1059F000EB0031603093EB007093EC002093ED00EE
:105A00005093F0002091EE0027FDE5CF80E008954F
:105A10008F708093E90081E008958091C20287FF32
:105A200011C08091E80082FD05C08091C102811102
:105A3000F8CF11C08091E8008B770BC08091C10234
:105A4000882349F08091E80080FFF8CF8091E8003A
:105A50008E778093E80008952091E4003091E5006E
:105A600095E64091EC00842F817040FF23C0809127
:105A7000E80080FD1DC08091C102882399F0853027
:105A800099F08091EB0085FD11C04091E4005091A8
:105A9000E5002417350729F3915011F09A01E1CF61
:105AA00084E0089582E0089583E0089581E00895F8
:105AB00080E008954091E80042FFDDCF08950E9404
:105AC000CD2D0E94D52DE0EEF0E0808181608083B5
:105AD000E8EDF0E080818F77808319BCA7EDB0E01E
