:100000000C94DB060C9422070C9422070C94220714
:100010000C9422070C9422070C9422070C942207BC
:100020000C9422070C9422070C94F42D0C94C62EE9
:100030000C9470250C9422070C9422070C94220730
:100040000C9422070C9422070C9422070C9422078C
:100050000C9422070C94C9250C9422070C942207B7
:100060000C9422070C9422070C9422070C9422076C
:100070000C9422070C9422070C9422070C9422075C
:100080000C9422070C9422070C9422070C9422074C
:100090000C9422070C9422070C9422070C9422073C
:1000A0000C9422070C9422070C9422072D13301372
:1000B00035133C13411346134B13501355135A1366
:1000C0005F13641368136B136E13711374137B1334
:1000D0007B137B13481B481B7A1B7A1BC71BFB1C1B
:1000E000FB1CFB1CE51B7A1C8B1C8B1CEB1CFB1CE0
:1000F000FB1CF41C9A1D9A1DAC1DAC1DA31DAC1D50
:10010000AC1DAC1D9A1D9A1DA81DAC1DAC1DA81DD3
:10011000332F5A2F52305A2F5230A62FC92F523018
:1001200020302F30040005000600070008000900F9
:100130000A000B000C000D000E000F001000110053
:100140001200005716001900000000000100C35CF7
:10015000C45CC25CCA5CC95CC65CC55CC85CC75C8C
:100160000100010001000100005C015700000000D7
:100170000000000044454255473A206469736162BB
:100180006C65642E0A0044454255473A20656E610D
:10019000626C65642E0A007267626C69676874201D
:1001A00074696D65722064697361626C652E0A0002
:1001B0007267626C696768742074696D6572206526
:1001C0006E61626C65642E0A007267626C696768B2
:1001D000742073657420687376205B4E4F454550DC
:1001E000524F4D5D3A2025752C25752C25750A003A
:1001F0007267626C696768742073657420687376CF
:10020000205B454550524F4D5D3A2025752C257594
:100210002C25750A007267626C69676874206469CE
:100220007361626C65205B4E4F454550524F4D5D8A
:100230003A207267626C696768745F636F6E6669A3
:10024000672E656E61626C65203D2025750A00721F
:1002500067626C696768742064697361626C6520A9
:100260005B454550524F4D5D3A207267626C69673D
:1002700068745F636F6E6669672E656E61626C6538
:10028000203D2025750A007267626C6967687420DA
:10029000656E61626C65205B4E4F454550524F4D17
:1002A0005D3A207267626C696768745F636F6E663F
:1002B00069672E656E61626C65203D2025750A00B8
:1002C0007267626C6967687420656E61626C652034
:1002D0005B454550524F4D5D3A207267626C6967CD
:1002E00068745F636F6E6669672E656E61626C65C8
:1002F000203D2025750A007267626C69676874206A
:10030000746F67676C65205B454550524F4D5D3A91
:10031000207267626C696768745F636F6E66696795
:100320002E656E61626C65203D2025750A0072673E
:10033000626C69676874206D6F6465205B4E4F4521
:100340004550524F4D5D3A2025750A007267626C28
:1003500069676874206D6F6465205B454550524F36
:100360004D5D3A2025750A007267626C6967687492
:100370005F696E6974207267626C696768745F6335
:100380006F6E6669672E6D6F6465203D20302E208C
:1003900057726974652064656661756C7420766156
:1003A0006C75657320746F20454550524F4D2E0A71
:1003B000007267626C696768745F696E6974206552
:1003C00065636F6E666967206973206E6F74206560
:1003D0006E61626C65642E0A007267626C696768A0
:1003E000745F696E6974207374617274210A00729B
:1003F00067626C696768745F696E69742063616CB9
:100400006C65642E0A007267626C696768745F636A
:100410006F6E6669672E7370656564203D20256484
:100420000A007267626C696768745F636F6E666901
:10043000672E76616C203D2025640A007267626C2D
:10044000696768745F636F6E6669672E7361742095
:100450003D2025640A007267626C696768745F6397
:100460006F6E6669672E687565203D2025640A00F9
:100470007267686C696768745F636F6E6669672E20
:100480006D6F6465203D2025640A007267626C69A7
:100490006768745F636F6E6669672E656E61626C14
:1004A00065203D2025640A007267626C6967687484
:1004B0005F636F6E66696720454550524F4D3A0A3B
:1004C000007F3F1F643214643214783C1E1E140AED
:1004D000052223252628292A2C2D2F303233353684
:1004E000383A3B3D3E4042434547494A4C4E5051C5
:1004F000535557595A5C5E6062646668696B6D6FEC
:1005000071737577797B7D7F81838587898A8C8EEE
:1005100090929496989A9C9E9FA1A3A5A7A8AAACF6
:10052000AEAFB1B3B4B6B8B9BBBCBEBFC1C2C3C530
:10053000C6C7C9CACBCCCDCED0D1D2D2D3D4D5D6D2
:10054000D7D7D8D9D9DADADBDBDBDCDCDCDCDCDD05
:10055000DDDDDDDCDCDCDCDCDBDBDBDADAD9D9D8E9
:10056000D7D7D6D5D4D3D2D2D1D0CECDCCCBCAC981
:10057000C7C6C5C3C2C1BFBEBCBBB9B8B6B4B3B1B0
:10058000AFAEACAAA8A7A5A3A19F9E9C9A9896944B
:1005900092908E8C8A89878583817F7D7B79777520
:1005A00073716F6D6B6968666462605E5C5A5957FF
:1005B000555351504E4C4A4947454342403E3D3BBE
:1005C0003A3836353332302F2D2C2A292826252348
:1005D00022000101010101010101010202020202E6
:1005E00002020202030303030303030304040404DB
:1005F00004040405050505050606060606070707A3
:10060000070708080808090909090A0A0A0B0B0B59
:100610000C0C0C0D0D0D0E0E0E0F0F0F10101111F6
:10062000111212131314141515161617171818197A
:10063000191A1A1B1B1C1D1D1E1E1F2020212222E1
:10064000232424252626272829292A2B2C2D2D2E24
:100650002F30313232333435363738393A3B3C3D3E
:100660003E3F404142434445464748494A4C4D4E2F
:100670004F50515354555658595A5B5D5E5F6162F5
:1006800064656668696B6C6D6F7072737577787A84
:100690007B7D7E8082838587888A8C8E8F919395DF
:1006A00096989A9C9EA0A2A3A5A7A9ABADAFB1B303
:1006B000B5B7BABCBEC0C2C4C6C9CBCDCFD1D4D6E3
:1006C000D8DBDDDFE2E4E7E9EBEEF0F3F5F8FAFD85
:1006D000FF0A002530325820006B6579626F617225
:1006E000645F7265706F72743A20000A00253032C0
:1006F00058006B6579626F6172645F7365745F6CDB
:1007000065643A20003F00433E20004C25640A0007
:1007100074696D65725F72656164333228293A20AD
:100720002530346C580A006B6579626F6172645FC2
:1007300069646C653A2025580A006B6579626F61BF
:1007400072645F70726F746F636F6C3A2025580A21
:1007500000686F73745F6B6579626F6172645F6C60
:1007600065647328293A2025580A000A092D205368
:100770007461747573202D0A004743433A20352E67
:10078000342E30204156522D4C4942433A20322ECD
:10079000302E30204156525F415243483A20617614
:1007A00072350A004F5054494F4E533A204C55462B
:1007B000412045585452414B455920434F4E534FC9
:1007C0004C4520434F4D4D414E4420343039360A7C
:1007D000004255494C443A2022302E382E313932CD
:1007E0002D372D673434613961382D64697274791D
:1007F00022202831383A32323A3136204A756E207A
:1008000020392032303230290A005649443A20300B
:100810007846454544284A6F7368204A6F686E736E
:100820006F6E29205049443A2030783846373328B3
:10083000487562313629205645523A20307830309A
:1008400030310A00444553433A204D6163726F20B2
:10085000506164207769746820555342204875625E
:1008600020616E6420456E636F646572730A000ACE
:10087000092D2056657273696F6E202D0A000A09D2
:100880002D20436F6E736F6C65202D0A4553432FE7
:10089000713A09717569740A000A092D204D616762
:1008A0006963202D0A443A094465627567204D65E5
:1008B000737361676520546F67676C650A583A09FE
:1008C0004D6174726978204465627567204D6F646C
:1008D0006520546F67676C65202D2053686F772003
:1008E0006B65797072657373657320696E206D61D5
:1008F0007472697820677269640A4B3A094B6579AA
:10090000626F61726420446562756720546F676727
:100910006C65202D2053686F77206B657970726548
:100920007373207265706F72740A4D3A0944656280
:100930007567204D6F75736520546F67676C650A26
:10094000563A0956657273696F6E0A533A095374C1
:10095000617475730A433A09416374697661746519
:1009600020436F6E736F6C65204D6F64650A46316E
:100970002D4631303A0953776974636820746F20CB
:100980004C6179657220302D392028463130203D68
:10099000204C30290A302D393A095377697463683D
:1009A00020746F204C6179657220302D390A4752CE
:1009B0004156453A0953776974636820746F204C37
:1009C0006179657220302028616C7465726E617483
:1009D00065290A423A094A756D7020746F20426F8A
:1009E0006F746C6F616465720A4553433A094A75C6
:1009F0006D7020746F20426F6F746C6F61646572EC
:100A00002028616C7465726E617465290A453A0923
:100A10005072696E7420454550524F4D2053657495
:100A200074696E67730A4253504143453A09436CF7
:100A300065617220454550524F4D0A000A002575E8
:100A4000002E6E6B726F3A20000A002575002E731F
:100A50007761705F6261636B736C6173685F626121
:100A6000636B73706163653A20000A002575002E80
:100A7000737761705F67726176655F6573633A2053
:100A8000000A002575002E6E6F5F6775693A2000B9
:100A90000A002575002E737761705F72616C745F58
:100AA000726775693A20000A002575002E73776118
:100AB000705F6C616C745F6C6775693A20000A0046
:100AC0002575002E737761705F7263746C5F726757
:100AD00075693A20000A002575002E737761705FF2
:100AE0006C63746C5F6C6775693A20000A00257549
:100AF000002E636170736C6F636B5F746F5F636F05
:100B00006E74726F6C3A20000A002575002E7377A0
:100B100061705F636F6E74726F6C5F636170736C32
:100B20006F636B3A20000A0025303258006B6579FC
:100B30006D61705F636F6E6669672E7261773A20D0
:100B4000000A002575002E6D6F7573653A20000A46
:100B5000002575002E6B6579626F6172643A200022
:100B60000A002575002E6D61747269783A20000ABA
:100B7000002575002E656E61626C653A20000A00E2
:100B8000253032580064656275675F636F6E666911
:100B9000672E7261773A20000A0025750064656649
:100BA00061756C745F6C617965723A20003F000A70
:100BB0006D6F7573653A206F66660A000A6D6F7512
:100BC00073653A206F6E0A000A6B6579626F617215
:100BD000643A206F66660A000A6B6579626F61721B
:100BE000643A206F6E0A000A6D61747269783A2067
:100BF0006F66660A000A6D61747269783A206F6EDA
:100C00000A000A64656275673A206F66660A000A20
:100C100064656275673A206F6E0A000A0A4A756D4C
:100C200070696E6720746F20626F6F746C6F61649F
:100C300065722E2E2E2000433E2000436C656172AB
:100C4000696E6720454550524F4D0A006565636FD8
:100C50006E6669673A0A005B735D004B6579626F87
:100C60006172642073746172742E0A005B575D00B8
:100C70005B535D005B525D005B445D005B435D0068
:100C80000403300000000C034800750062003100CE
:100C9000360000001A034A006F007300680020004D
:100CA0004A006F0068006E0073006F006E00000065
:100CB0000403090409025B00030100A0FA0904000F
:100CC0000001030101000921110100012240000778
:100CD00005810308000A090401000103000000095E
:100CE00021110100012232000705820320000A09B8
:100CF0000402000203000000092111010001222268
:100D000000070583032000010705030320000112EB
:100D100001100100000008EDFE738F0100010203C5
:100D2000010631FF0974A1010975150026FF009520
:100D300020750881020976150026FF0095207508A8
:100D40009102C005010980A101850319012AB7009C
:100D5000150126B700950175108100C0050C090129
:100D6000A101850419012AA002150126A0029501FE
:100D700075108100C005010906A101050719E029C8
:100D8000E715002501950875018102950175088117
:100D9000010507190029FF150026FF0095067508B3
:100DA0008100050819012905950575019102950134
:100DB00075039101C00011241FBECFEFDAE0DEBF42
:100DC000CDBF04B603FE27C08091CC029091CD0226
:100DD000A091CE02B091CF028730904BA740B04B8C
:100DE000D1F41092CC021092CD021092CE02109249
:100DF000CF0214BE84B7877F84BF0FB6F894A8953E
:100E000080916000886180936000109260000FBE46
:100E1000E0E0F8E3099511E0A0E0B1E0E8E4F2E6F3
:100E200002C005900D92AE3EB107D9F722E0AEEEBA
:100E3000B1E001C01D92AC3CB207E1F70E941A2B51
:100E40000C9422310C940000FF93EF93E091EE019B
:100E5000F091EF01309709F00995EF91FF91089516
:100E6000FC018591803011F0EFDFFBCF0895FF2763
:100E7000E0E230E247FF0CC0419597FF09C0EDE288
:100E80006095709580959095611D711D811D911DD6
:100E900027FF02C0219530E350E2AA27660F771F93
:100EA000881F991FAA1FA41710F0A41B63955A95B9
:100EB000A9F7AA3008F0A95FA05DAF93F39561157B
:100EC00071058105910541F7ED3211F4EF93F3952A
:100ED000F21718F43F93F395FBCF8F91B5DFFA9596
:100EE000E1F70895E991F9918591803021F08532FB
:100EF00019F0AADFF9CF089520E0E8945591553212
:100F0000C1F3503311F4689455915A3348F4505357
:100F100090F3220F022E220F220F200D250FF4CF67
:100F20000EF4219589919991533619F3533729F18C
:100F3000533559F1BC0188279927E8945C3621F490
:100F40008991999168945591543639F446EF7EF021
:100F500077FF0DC08FEF9FEF0AC055374AE039F099
:100F6000583540E121F0523642E009F00895FF93F0
:100F7000EF937DDFEF91FF91B7CFFF93EF93FC01EC
:100F800081918030B9F360DFFBCFFF93EF9368DF8F
:100F9000F1CFDF93CF93CDB7DEB72596A3DFCF9107
:100FA000DF910895E82FF0E0EE50FE4F8081089524
:100FB000CF93DF93ABE4B1E040E551E061E070E056
:100FC0008D91E82FE295EF70F0E021A18F70EB0199
:100FD00002C0CC0FDD1F8A95E2F7CE019C2F9095C1
:100FE000922391A392A1892B82A34A175B0741F711
:100FF000A7E4B1E04BE451E061E070E08D91E82FAF
:10100000E295EF70F0E021A18F70EB0102C0CC0FF0
:10101000DD1F8A95E2F7CE019C2F9095922391A334
:1010200092A1892B82A34A175B0741F7E7EFF1E012
:10103000A2EFB1E08CEF91E011921D928E179F0705
:10104000D9F785E00E949D0CDF91CF910C94FA09AD
:101050005F926F927F928F929F92AF92BF92CF9248
:10106000DF92EF92FF920F931F93CF93DF936BE486
:1010700071E0A7EFB1E02CEFA22E21E0B22E612C9F
:1010800001E010E06D015C901C92EB018991BE01C2
:10109000E82FE295EF70F0E021A18F70A80102C067
:1010A000440F551F8A95E2F7CA01242B21A322A1E0
:1010B000942E9094292122A350EA5A95F1F797E4AF
:1010C000E92E91E0F92E40E050E0E70189907E01A1
:1010D000282D22952F7030E0E90128A17C9030E086
:1010E000D82DDF7002C035952795DA95E2F720FDFF
:1010F00008C0302F042E01C0330F0A94EAF7232FC3
:1011000001C020E027292C934F5F5F4F44305105E9
:10111000E1F691A1992291A292A1892B82A3119625
:1011200081E0F6019081951101C080E0682AAA163D
:10113000BB0609F0A7CF262D45E062EF71E087EFEF
:1011400091E00E949E0C4091F6011092F6012091D0
:10115000F101322F330F3093F1018091F001982F7C
:10116000990F9093F0012FB1221F2227221F232BCA
:101170002093F10189B1881F8827881F892B8093CC
:10118000F00191E02F3709F090E08F3711F080E007
:1011900001C082E0892B8093F60191E0481301C0E1
:1011A00090E0C62DC92B0E94040A8C2FDF91CF91AD
:1011B0001F910F91FF90EF90DF90CF90BF90AF9075
:1011C0009F908F907F906F905F90089587988F98F1
:1011D00057985F98089508950895FC0180818130A3
:1011E00049F483E70E94EF1983E10E94F51A83E72F
:1011F0000C94961A823019F481E00C94C921089558
:1012000081110BC083E7662321F00E94EF1985E16D
:1012100010C00E94EF1984E10CC0813079F483E79B
:10122000662321F00E94EF1988E103C00E94EF19A4
:1012300087E10E94F51A83E70C94961A08951F938C
:10124000CF93DF938430910540F18337910530F0DF
:101250009C012457310921333105F8F4FB01EC01DD
:101260001281112369F083E70E94EF198091FC013C
:101270008F5F8093FC018C2F0E94EF1910E00EC04D
:101280000E94961A8091FC0181508093FC0181118B
:1012900005C083E70E94961A01C011E0812FDF91FB
:1012A000CF911F9108959C013A9521153F4138F542
:1012B000DC01AA27B270AC01442754709C0122279C
:1012C000387094FF0FC090FF02C080E101C080E041
:1012D000AB2B09F08062452B09F08064232B69F069
:1012E00080680BC0892F8170AB2B09F08260452B81
:1012F00009F08460232B09F08860FB0109940895AC
:10130000CF93DF93EC01805E9109089710F020974E
:1013100019F468E07BE102C064E67DE1CE010E9441
:1013200053098C2FDF91CF910C94EF19CF93DF935A
:10133000EC010E94961ACE01805E9109089710F088
:10134000209719F46FE07BE102C06BE67DE1CE01EE
:10135000DF91CF910C94530981E008950C941F09FB
:1013600008950C94B0091F93CF93DF9300D000D061
:101370001F92CDB7DEB749835A836B833091230226
:1013800089819A81311114C0662359F0222349F0D2
:101390000E94D122182F682F89819A810E947C2275
:1013A00003C00E94A622182F69817A81812F04C070
:1013B0000E94D12269817A810F900F900F900F9037
:1013C0000F90DF91CF911F910C94980AFC01262F6A
:1013D000408151816281738184810C94B309CF93E0
:1013E000DF93EC0160E00E94E609BE01DF91CF913E
:1013F0000C94B1090E940B24811102C00E94AB24FD
:101400000E94C2130C94E6080E94FE170E94261444
:101410000C94EB0808950C940A0A81E008950C944A
:101420000D0ACF93C82F0E940B0A8C2F0E940F0A1F
:10143000CF91089508950E94881D0E941A0A2FEFE7
:1014400084E39CE0215080409040E1F700C0000020
:101450000C94EF250F931F93CF93DF93EC0161E082
:101460000E94E6098C01BE010E945B17BE01C80103
:101470000E94AE09882309F450C0BE01C8010E9431
:10148000A217882309F449C0BE01C8010E942F1584
:10149000882309F442C0BE01C8010E947015882348
:1014A000E1F1BE01C8010E949B168823B1F1BE0183
:1014B000C8010E941613882381F18A81882331F1A3
:1014C00001308CE5180751F00E3D8CE51807D9F076
:1014D00001151C45D9F40E941B0A1FC0809180028F
:1014E000C82FC095C170C0FB80F980938002CC23C7
:1014F00029F086E891E00E9430070FC084E791E070
:101500000E9430070BC00E94AB2407C0CE01DF91C0
:10151000CF911F910F910C94AC09C0E08C2FDF91FB
:10152000CF911F910F91089580E090E00895089564
:10153000E72FF0E095E0899FE00DF11D1124EE0FFB
:10154000FF1FEE0FFF1FE60FF11DEE0FFF1FEC5DFB
:10155000FE4F859194910895880F991FFC01E956DB
:10156000FE4F859194910895CF93DF930E94980A3E
:101570000E94C60BEC018115904508F043C0C115CF
:1015800080E4D80708F0CBC0C03ED10528F5C03CA8
:10159000D10508F0B3C0C83AD10578F4C53AD105F1
:1015A00008F0A4C0C130D10509F4ECC008F4E8C0CB
:1015B000C430D10508F0E6C0E3C0CF3BD10508F048
:1015C000DFC0C85AD0E0CC0FDD1FC05BDE4F0990F2
:1015D000D881C02DD464D6C0C11590E2D90750F48B
:1015E000C11521E0D20708F0CDC0C83ED10508F4EE
:1015F000C9C0C6C0C11580E3D80708F086C0CE01B7
:101600009F707FC0C11595E5D90708F043C0C1158B
:1016100024E5D20708F09AC0C11582E5D80708F57D
:10162000C11591E5D90708F07DC0CE0174E096950B
:1016300087957A95E1F783709C2F937021E030E0D5
:1016400002C0220F331F9A95E2F73C68382BCF7007
:10165000C695C69580E2C89FE0011124C22BD32B0A
:1016600091C09E01237033278C2F86958695C115D6
:10167000D34508F05CC0C1E0D0E002C0CC0FDD1F54
:101680002A95E2F720E2829FC0011124C82BD92BB2
:10169000DC6878C0C11529E5D207A0F4C11588E53A
:1016A000D80708F058C0C11596E5D90708F068C0FA
:1016B0008C2F0E945A0C8F71C82FD0E0DC2FCC27C2
:1016C000D06260C0C1152AE5D20708F449C0CE0136
:1016D00090568115904208F053C08D2F8F710E9453
:1016E0005A0CDD27D0628F71D82B4CC0C55AD0E080
:1016F000C258DE4FC881D0E0D06444C0CE01805CC7
:1017000091090E94AC0AEC013DC0CE019927D3FF9C
:1017100003C0EC01D86C36C0EC01D06C33C0DF7074
:10172000D06A30C0DC2FCC27C16FD06A2BC0C1E09B
:10173000D0E002C0CC0FDD1F2A95E2F720E2829FA5
:10174000C0011124C82BD92BDA681CC0DC2FCC2790
:10175000C46FD06A17C0DC2FCC27C06FD06A12C00C
:101760008C2F8F700E945A0C94E0D695C7959A954D
:10177000E1F7CF70D0E0DC2FCC27D069C82B02C0B6
:10178000C0E0D0E0CE01DF91CF910895823891057D
:1017900069F1B0F48133910509F46DC048F48932E0
:1017A000910509F463C08A32910509F469C008956E
:1017B0008533910509F455C089339105B9F0089531
:1017C000833E910569F138F4803E9105B1F0823E87
:1017D000910509F10895863E9105A9F1873E91058D
:1017E000B9F1843E910509F064C023C02091BD0287
:1017F00020FD4FC021FD4DC008958091BD0280FDA8
:1018000044C08091BE0280FF44C08091BD0284FD2F
:1018100042C083EE4DC08091BD0282FF38C0F5CF3B
:101820008091BD0282FD33C08091BE0280FD31C037
:10183000ECCF8091BE0281FF32C08091BD0284FD59
:101840002AC087EE35C08091BD0283FF26C0F5CF48
:101850008091BD0283FD21C08091BE0281FD1FC029
:10186000ECCF8091BD0285FD1CC01DC08091BD02E2
:1018700085FD19C016C08091BD0286FD16C017C037
:101880008091BD0286FD13C010C089E311C082EEB5
:101890000FC080EE0DC080E00BC086EE09C084EE64
:1018A00007C089E205C085E303C08AE201C081E385
:1018B00090E008959091BD0292FF0DC0282F2871ED
:1018C000283019F4877F846006C0282F24712430C3
:1018D00011F48B7F886093FF0DC0282F2871283169
:1018E00019F4877E846106C0282F2471243111F4F5
:1018F0008B7E88612091BE0220FF0DC0382F387189
:10190000383019F4877F816006C0382F317131304B
:1019100011F48E7F886021FF0DC0282F2871283197
:1019200019F4877E816106C0282F2171213111F4BD
:101930008E7E886194FD877E08950895FF920F93AF
:101940001F93CF93DF938C01F62ED72FC42F222322
:1019500049F081E08093FF010E94A2259093FE014F
:101960008093FD018091FF018823C1F08091FD01EA
:101970009091FE010E94BA25459780F0EF2DFD2F32
:10198000D8014C2F50E0CD01801B910B8417950797
:101990001CF48D918193F7CF1092FF01DF91CF91CD
:1019A0001F910F91FF900895EF92FF920F931F9355
:1019B000CF93DF93F62E472FE82FF0E0711106C08A
:1019C000EF52FA4F6491762F862F72C0272F30E0A6
:1019D000EF52FA4FE4910E2F10E056E0659FC001E0
:1019E0001124CFEFD0E0BE010E949F305BEA560386
:1019F000C001579F900D11248F0D911D8F0D911DCA
:101A0000982F990F890F7E01E21AF30AE09ED00108
:101A1000E19EB00DF09EB00D1124489FA00111244D
:101A2000452F55277E01E41AF50AE09EA001E19EAC
:101A3000500DF09E500D11247E01E81AF108E29E2F
:101A4000C001E39E900DF29E900D1124892F9927DD
:101A5000C81BD90BC09FC001C19F900DD09F900D96
:101A600011246230710591F048F461157105E1F0BF
:101A700061307105A9F48B2F752F19C06430710581
:101A800061F038F06630710579F00AC0892F7B2F3C
:101A90000EC08E2F7B2FE52F0AC08E2F792F02C00C
:101AA000852F7E2FEB2F03C08B2F7E2FE92F6E2FDC
:101AB000DF91CF911F910F91FF90EF9008950895BE
:101AC000CF93DF93762FE901682F842F0E94D40CE7
:101AD000798368838A83DF91CF91089580919302FF
:101AE000282F269530E02115310519F48170826088
:101AF00005C02831310524F081708E6280939302F5
:101B0000089588E090E00C94E230CF92DF92EF925B
:101B1000FF926B017C010E946E0DB701A60188E067
:101B200090E0FF90EF90DF90CF900C940031E3E9CC
:101B3000F2E083E0808311828FEF828383831482BB
:101B400060817181828193810C94850D80918002E6
:101B500080FF08C088EA94E09F938F930E94C90792
:101B60000F900F908091800280FF0FC080919302B0
:101B700081701F928F938BE894E09F938F930E94C4
:101B8000C9070F900F900F900F908091800280FFF7
:101B90000FC08091930286951F928F9380E794E007
:101BA0009F938F930E94C9070F900F900F900F90F3
:101BB0008091800280FF0EC0809194021F928F93CB
:101BC00086E594E09F938F930E94C9070F900F9032
:101BD0000F900F908091800280FF0EC0809195023F
:101BE0001F928F938CE394E09F938F930E94C90779
:101BF0000F900F900F900F908091800280FF0EC089
:101C0000809196021F928F9382E294E09F938F932C
:101C10000E94C9070F900F900F900F908091800243
:101C200080FF0EC0809197021F928F9386E094E010
:101C30009F938F930E94C9070F900F900F900F9062
:101C400008958091930280FF02C08695089580E0F8
:101C5000089580919702833018F48F5F80939702E4
:101C600060919302709194028091950290919602F6
:101C70000C94850D80919702882319F081508093F0
:101C800097026091930270919402809195029091D5
:101C900096020C94850D70E00C94BD136091340194
:101CA0008091930280FF0AC08091330123E0829FDC
:101CB000C001112488569D4F0C944B0E8091350124
:101CC00090913601891780F7E82FF0E09F01220FED
:101CD000331FE20FF31FE856FD4F1182108212826C
:101CE0008F5FF0CF9091930290FF16C090913501D5
:101CF00020913601921770F4E92FF0E0DF01AA0F6E
:101D0000BB1FEA0FFB1FE856FD4F818360834283B0
:101D10009F5FF0CF0C944E0E0895CF93DF9300D0C9
:101D20001F92CDB7DEB79091930290FF0AC09E013B
:101D30002F5F3F4F0E94600D4B8169818A810E9415
:101D4000720E0F900F900F90DF91CF910895CF9367
:101D5000DF93EC01EC81F0E0EF52FB4F4491E3E9BB
:101D6000F2E0628181810E948D0E8C818F5F8C8375
:101D7000DF91CF910895CF93DF93EC01E3E9F2E097
:101D8000438162818C810E948D0E8C818F5F8C8358
:101D9000DF91CF910895EF92FF920F931F93CF930E
:101DA000DF9300D01F92CDB7DEB7182FF62E042F89
:101DB000E22E8091930280FF5DC0E82FE695F0E06F
:101DC000EF57FE4F9081909309028E7F823061F42D
:101DD0009E012F5F3F4F812F0E94600D4B816981D3
:101DE0008A810E94720E0CC0923019F40091960202
:101DF00007C0963019F41091940202C09930D9F3BB
:101E000010939402F092950200939602EE20E9F06E
:101E10006091930270919402809195029091960244
:101E20000E94850D8091800280FF24C080919602DF
:101E30001F928F93809195021F928F9380919402AD
:101E40001F928F9380EF91E00CC08091800280FF01
:101E500011C01F920F931F92FF921F921F9389EC44
:101E600091E09F938F930E94C9070FB6F894DEBF4D
:101E70000FBECDBF0F900F900F90DF91CF911F91AC
:101E80000F91FF90EF900895E3E9F2E09181282F00
:101E90004381628188E0890F0C94CB0E81E00C9421
:101EA000440FE3E9F2E09181282F4381628188EFBA
:101EB000890F0C94CB0E81E00C94510FE3E9F2E012
:101EC000628128E0620F08F46FEF282F438181813F
:101ED0000C94CB0E81E00C945E0FE3E9F2E062819A
:101EE00028E0621B08F460E0282F438181810C9474
:101EF000CB0E81E00C946D0FE3E9F2E0438128E022
:101F0000420F08F44FEF282F628181810C94CB0E91
:101F100081E00C947C0FE3E9F2E0438128E0421B6E
:101F200008F440E0282F628181810C94CB0E81E07F
:101F30000C948B0F20E00C94CB0EFF920F931F9309
:101F4000CF93DF93EC01F12C0FEF10E0609137019C
:101F5000F616F0F4809135012F2D30E0280F311D59
:101F6000C901880F991F280F391F28563D4F70E06F
:101F7000C8010E94B330962F8C81409196026091E7
:101F80009502F99E800D11240E94600DF394DECF1E
:101F90000E944E0E9A818C8190FF02C08F5F01C01B
:101FA00081508C83DF91CF911F910F91FF90089505
:101FB000AF92BF92CF92DF92EF92FF920F931F9357
:101FC000CF93DF93FC01828180FF02C00FEF01C03D
:101FD00001E010E04BE0A42E80913701181708F0C3
:101FE00043C080913501C12ED12CE601C80FD11D0F
:101FF000CE01880F991FC80FD91FC856DD4F19820F
:1020000018821A8234E0E32EF12CB12C8091010267
:102010008B0D8C302CF06A2D0E949130892F05C0D9
:1020200087FF03C090913701890F082E000C990B90
:10203000C816D90691F4809196028E9DA0018F9DBD
:10204000500D112455954795559547959E016091E2
:102050009502809194020E94600DB00EF1E0EF1A9B
:10206000F108A1F61F5FB8CF0E944E0E80910102C9
:10207000013031F4811102C080913701815007C0D5
:1020800090E001966091370170E00E94B330809338
:102090000102DF91CF911F910F91FF90EF90DF90A0
:1020A000CF90BF90AF900895CF93809135019091DC
:1020B0003601891770F4E82FF0E09F01220F331FDB
:1020C000E20FF31FE856FD4F1182108212828F5FDC
:1020D000F0CFC0E060913701C617C0F5EC2FF0E0FB
:1020E00070E0CF010E94B33020913501820F209122
:1020F0000002022E000C330B90E0E217F307CCF045
:1021000020913201022E000C330B2E173F078CF06A
:102110009C01220F331F820F931F9C0128563D4FB5
:102120004091960260919502809194020E94600D08
:102130000BC0FC01EE0FFF1F8E0F9F1FFC01E85626
:10214000FD4F118210821282CF5FC4CF0E944E0ECB
:102150002091310180910002820F809300029091C2
:102160003201920F9093320119165CF4082E000C84
:10217000990B4091370150E0415051098417950760
:102180001CF0219520933101CF9108956091930225
:10219000669570E041E050E088E391E00E94CD3028
:1021A000892B19F481E080930A020E94A225909362
:1021B0000302809302028091800280FF08C080EBBE
:1021C00091E09F938F930E94C9070F900F900895FD
:1021D00010920A028091800280FF08C087E991E096
:1021E0009F938F930E94C9070F900F90089590912D
:1021F000930290FF54C09170811102C0926006C09A
:10220000883110F09E6202C0880F982B9093930241
:102210006623B1F0609193027091940280919502CF
:10222000909196020E94850D8091800280FF1BC0D4
:102230008091930286951F928F938CE493E00BC05C
:102240008091800280FF0FC08091930286951F923B
:102250008F938EE293E09F938F930E94C9070F9014
:102260000F900F900F9060919302669570E041E09F
:1022700050E088E391E00E94CD30892B19F00E9454
:10228000E81002C00E94C61081E0809305024091D0
:10229000960260919502809194020C949A0F089591
:1022A000682F90919302969581E0890F883108F00C
:1022B00081E00C94F71081E00C945011682F9091FC
:1022C000930296958FEF890F09F487E10C94F7102C
:1022D00081E00C945E1161E00C94F7108091930200
:1022E0008160809393028091800280FF0DC01F92D5
:1022F00081E08F9380EC92E09F938F930E94C907B7
:102300000F900F900F900F908091930286950C94F0
:102310006B1160E00C94F71080910802811160C08D
:102320008091800280FF08C08FEE93E09F938F938F
:102330000E94C9070F900F908091800280FF08C013
:1023400089ED93E09F938F930E94C9070F900F90A0
:102350000E940B24811110C08091800280FF08C070
:1023600081EB93E09F938F930E94C9070F900F908A
:102370000E94AB240E94970D0E94810D60939302EE
:102380007093940280939502909396026E7FC1F4AD
:102390008091800280FF08C088E693E09F938F932E
:1023A0000E94C9070F900F900E94970D0E94810D07
:1023B0006093930270939402809395029093960297
:1023C0000E946E0D0E94A60D10920A028091930247
:1023D00080FF03C086950E94891181E080930802E6
:1023E000089580919302816080939302809180028E
:1023F00080FF0DC01F9281E08F9387E892E09F934A
:102400008F930E94C9070F900F900F900F908091AB
:10241000930286950C948911809193028E7F80930C
:102420009302609193027091940280919502909131
:1024300096020E94850D8091800280FF0FC08091DE
:10244000930281701F928F938FE492E09F938F93FA
:102450000E94C9070F900F900F900F900E94E810F4
:102460002FEF80E792E0215080409040E1F700C0DC
:1024700000000C944E0E8091800280FF10C080916D
:102480009302809581701F928F9387EF92E09F93C4
:102490008F930E94C9070F900F900F900F9080911B
:1024A000930280FD0C940C120C946E118091930297
:1024B0008E7F809393028091800280FF0CC01F92D8
:1024C0001F9285E192E09F938F930E94C9070F901E
:1024D0000F900F900F900E94E8102FEF80E792E08E
:1024E000215080409040E1F700C000000C944E0E57
:1024F0000F931F93CF93DF9380910A02882309F4EF
:1025000075C080910902E0919302E695E81BE09383
:102510000402823049F4F0E0E353FB4FE491CE2F04
:10252000D0E007EA1EE032C0863049F4F0E0E6531E
:10253000FB4FE491CE2FD0E00BEB1EE027C089309B
:1025400051F4E695F0E0E953FB4FE491CE2FD0E053
:102550000DE91FE01BC08F3051F4E695F0E0EC531D
:10256000FB4FE491CE2FD0E008ED1FE00FC0853186
:1025700049F4F0E0EF53FB4FE491CE2FD0E004E5B7
:1025800010E104C0C0EDD7E00FE51DE08091050229
:10259000882389F0109205020E94A2259E012095B1
:1025A0003095820F931F9093030280930202109242
:1025B00007021092060280910202909103020E948B
:1025C000BA258C179D0790F0E0910202F09103026A
:1025D000CE0FDF1FD0930302C093020282E092E08D
:1025E000F801DF91CF911F910F910994DF91CF9165
:1025F0001F910F910895882311F0FA0101C0FB018A
:102600000994CF93DF93C82FD62F0E94210E8C17E9
:1026100040F00E94210E8D1720F4DF91CF910C9491
:102620005B118C2FDF91CF910C946B110F931F9343
:10263000CF93FB01C281CC2309F45BC08C010E94C3
:1026400052238272F801E25CFC45E431F10508F0A6
:1026500053C0EA5AFF4F0C94C7300E943B124BC044
:1026600048E651E16BE571E104C04BE551E168E6F4
:1026700071E10E94FB123FC04BE55FE06EE47FE03A
:10268000F8CF4EE45FE06BE57FE0F3CF49E75FE032
:102690006AE67FE0EECF4AE65FE069E77FE0E9CFF8
:1026A00047E95FE068E87FE0E4CF48E85FE067E99A
:1026B0007FE0DFCF4AE35EE069E27EE0DACF49E225
:1026C0005EE06AE37EE0D5CF81E00E946B1113C02B
:1026D00065E082E00BC068E086E008C06EE089E05B
:1026E00005C064E18FE002C067E185E10E9401134B
:1026F00002C0C1E001C0C0E08C2FCF911F910F91AB
:1027000008955AB1E42FEF7021E030E001C0220FAC
:10271000EA95EAF7352F322B3AB942954F70E42FFC
:10272000F0E032A1422F4095342342A1242B4FB731
:10273000F894FC01CB01880F991F680F791F6E0F69
:102740007F1FE617F70789F0819198E02BB9000009
:1027500000C087FF3BB9880F000000C000C000C068
:102760003BB900C09A9591F7ECCF4FBF87EC90E052
:102770000197F1F700C00000089541E90C9481131E
:102780000C940009FF920F931F93CF93DF93CFE038
:10279000D2E04BEA51E029EA31E061E070E0F2E09A
:1027A000C131DF0709F44CC0FA010191AF01A02F3C
:1027B000A295AF70B0E09196EC9191970F70CB011C
:1027C000002E01C0880F0A94EAF7982F90959E2357
:1027D00091969C93919792969C919297892B929621
:1027E0008C939297F90111919F01E12FE295EF707F
:1027F000F0E0F1A01F70CB01012E01C0880F0A94F8
:10280000EAF7982F90959F2191A392A1892B82A3FB
:1028100090968C9190E002C0959587950A95E2F785
:102820008170E0A1F0E002C0F595E7951A95E2F716
:10283000E0FD02C090E001C092E0892B8993AFCF08
:10284000DF91CF911F910F91FF9008955F926F924A
:102850007F928F929F92AF92BF92CF92DF92EF9230
:10286000FF920F931F93CF93DF938FE0682E82E048
:10287000782E9BEAE92E91E0F92E09EA11E02DE08D
:10288000822E22E0922ECBE0D2E063015301512C44
:10289000D501ED915D014E2F440F440FF601419398
:1028A0006F01D7012D917D01E22FE295EF70F0E0ED
:1028B00080A190E02F7002C0959587952A95E2F748
:1028C00081709927F80151918F01E52FE295EF7002
:1028D000F0E020A130E05F7002C0359527955A9551
:1028E000E2F7F901E170FF2720FF02C0E2E0F0E02B
:1028F000E82BF92BE42BD301ED933D01EF70F0E0D1
:10290000E756FE4F9081F4018081890F80838430E7
:102910003CF088818F5F888360E0852D0E94C01322
:10292000D4018C918D3F3CF488818150888361E093
:10293000852D0E94C013F4018081837887FF03C036
:1029400081508C6F8F5FD4018D934D0153942196EC
:10295000B2E05B129DCFDF91CF911F910F91FF905D
:10296000EF90DF90CF90BF90AF909F908F907F902F
:102970006F905F9008950F931F93CF93DF93C62FAF
:10298000D42F122FFC0182818823C9F06093130297
:102990000E94A225909312028093110280E28C0F74
:1029A000883008F057C0C77081E001C0880FCA9511
:1029B000EAF7DF91CF911F910F910C94081B809142
:1029C0001302681330C080911102909112020E948C
:1029D000BA25883C910538F500E20D0FCD17B9F006
:1029E00080E28C0F883040F4C77081E001C0880F0E
:1029F000CA95EAF70E940F1B083028F581E09D2F49
:102A0000977001C0880F9A95EAF70E94081B812FE2
:102A10000E94F51A0830F0F4D77081E001C0880FE9
:102A2000DA95EAF70AC080E28C0F883098F4C77014
:102A300081E001C0880FCA95EAF7DF91CF911F911D
:102A40000F910C940F1B812FDF91CF911F910F914C
:102A50000C94F51ADF91CF911F910F9108959C016D
:102A6000CB01233F4CE53407F9F078F4283DFCE531
:102A70003F07B9F0293D4CE5340711F1273D3C45AE
:102A800031F526E241EE61EE1EC0253FFCE53F0731
:102A900099F070F0263F3C45D1F427E245EE66EE12
:102AA00012C027E245EE0EC026E241EE60EE0BC0FA
:102AB00027E245EE64EE07C026E241EE62EE03C077
:102AC00028E241E065EE0E94BB1480E00895FC011D
:102AD0008281882319F010921302089581E00895ED
:102AE000CF93DF93EC01FB018281882309F41FC19E
:102AF000C230FCE5DF0708F41BC1C6319CE5D907ED
:102B000038F09E012A5F3C452930310508F010C19C
:102B10000E941E249093BE028093BD02C031ECE55A
:102B2000DE0709F4C3C008F041C0C8308CE5D807FF
:102B300009F49AC0F0F4C430ECE5DE0709F487C06C
:102B400068F4C2308CE5D80709F477C0C330DC459F
:102B500009F0E3C08091BD02826076C0C630ECE52A
:102B6000DE0709F46EC008F07BC08091BD0288606A
:102B70006BC0CC308CE5D80709F485C068F4CA3046
:102B8000ECE5DE0709F474C008F079C00E94881DE6
:102B90008091BD02806858C0CE308CE5D80709F41A
:102BA00076C008F07FC08091BD028BC0CB3FECE5C2
:102BB000DE0709F44FC018F5C3318CE5D80709F4D6
:102BC0007DC078F4C131ECE5DE0709F473C0C23191
:102BD000DC4509F0A2C00E94881D8091BD028F775C
:102BE00033C0C5318CE5D80709F472C008F486C03B
:102BF000CA3FDC4509F091C08091BE023EC0CF3F84
:102C0000FCE5DF0709F45FC058F4CD3F9CE5D90728
:102C100009F444C008F43FC08091BE0282602DC018
:102C2000C130FDE5DF0709F475C008F45DC0C230AE
:102C3000DD4509F072C080E06EC08091BD02816008
:102C400003C08091BD0280618093BD0266C0809107
:102C5000BD0211C08091BE0282608093BE025DC041
:102C60008091BD028062F0CF8091BD028064ECCF84
:102C70008091BD0288608460E7CF8160EECF809153
:102C8000BD028E7FE1CF8091BD028D7FDDCF80912F
:102C9000BD02877FD9CF8091BE0218C08091BE024D
:102CA0008D7FDBCF8091BD028F7ECECF8091BD0224
:102CB0008F7DCACF8091BD028F7BC6CF8091BD0230
:102CC000877F8B7FC1CF8091BE028D7F8E7FC5CFE6
:102CD0008091BD0282FB222720F991E0922790FB90
:102CE00082F990FB83F9B0CF8091BE02982F909526
:102CF00091708E7F892B90FB81F9AFCF0E94881D48
:102D00008091BD0287FB222720F991E0922790FB5A
:102D100087F99ACF81E00E94AD248091BD02909105
:102D2000BE020E942F240E94881D80E001C081E025
:102D3000DF91CF910895CF93DF9386319C4541F584
:102D4000EB010E945223982F8A8120913A01309101
:102D50003B01882379F09A7A81E009F480E080933E
:102D60001402911102C069E201C065E3C9010E9429
:102D7000F4240AC080911402811102C069E201C0EA
:102D800065E3C9010E94F6240E94A32380E001C0EC
:102D900081E0DF91CF910895CF93DF93EC0181E043
:102DA000898B8F810E94552388850E9468230E9409
:102DB000A323EA81FB81CE010696309729F06C8926
:102DC0007D89DF91CF910994DF91CF910895CF93C1
:102DD000DF93FC012081223039F4FB01EC01828178
:102DE0000E94C92181E08B87DF91CF910895DB019B
:102DF000FC018081813021F48D919C910C9480099B
:102E0000823039F41396ED91FC91149712968C91BF
:102E100009940895FC018081813029F4FB018081AF
:102E200091810C9496090895EF92FF920F931F934E
:102E3000CF93DF93FC012285211136C0EC01E380A2
:102E4000F480F7E5FF1A26E12E9DC0012F9D900D1D
:102E50001124DC01A050BF4F1496ED91FC91159701
:102E60008A5F9E4F309729F054966D917C915597CB
:102E7000099586E18E9D80018F9D100D11240050D3
:102E80001F4FF80187810E945B23F80180850E9413
:102E90006E230E94A323188219861B861E821D8220
:102EA0001092160210921502DF91CF911F910F918F
:102EB000FF90EF900895DF92EF92FF920F931F9390
:102EC000CF93DF93FB0122812223A1F120913901CD
:102ED0002F3F81F18C01C0E0D1E0E12CF12CDD2409
:102EE000D39480913901082E000C990B8E159F0503
:102EF0000CF18E818823C9F089859A858017910706
:102F000039F480911502909116020817190769F09B
:102F1000DF861C870B878989811103C0CE010E943F
:102F2000CC16CE0106960E941417FFEFEF1AFF0A87
:102F30006696D7CFDF91CF911F910F91FF90EF90C1
:102F4000DF900895EF92FF920F931F93CF93DF933B
:102F50009C0137552F3F310511F008F047C04091D3
:102F60003901042E000C550B4217530714F420931B
:102F70003901FB017C01828196E1929F8001939F40
:102F8000100D1124E801C050DF4F888B92818E8193
:102F9000992311F1FA86E9868F5F8E830E94A2251C
:102FA0009E878D870E9488238F830E945223888763
:102FB0000E9465239885892B8887E881F981C8015B
:102FC0008A5F9E4F309719F06C897D890995F09240
:102FD0001602E09215020AC0882341F089898823ED
:102FE00029F0C8018A5F9E4F0E94141781E0DF918B
:102FF000CF911F910F91FF90EF900895CF92DF92A4
:10300000EF92FF920F931F93CF93DF93809139013B
:103010008F3FF1F1F12C96E1E92E0F2D10E0809118
:103020003901082E000C990B801791078CF1E09E56
:10303000F001E19EF00D1124E050FF4FC288D388CB
:10304000C114D10419F488ECC82ED12CE09EE00103
:10305000E19ED00D1124C050DF4F8E818823B1F046
:103060008D859E850E94BA25C816D90678F489896F
:10307000811103C0CE010E94CC16E09EC001E19EEA
:10308000900D11248A5F9E4F0E941417F394C5CFB0
:10309000DF91CF911F910F91FF90EF90DF90CF9034
:1030A000089590931C0280931B020895E0911B02E7
:1030B000F0911C02309721F00190F081E02D0994ED
:1030C00080E00895EF92FF920F931F93CF93DF93C9
:1030D000E0911B02F0911C023097B1F18C0102804B
:1030E000F381E02D09958091800282FF2DC080FF41
:1030F00004C089ED96E00E943007E80118E083EDF6
:10310000E82E86E0F82E8091800280FF0BC0888137
:103110001F928F93FF92EF920E94C9070F900F901A
:103120000F900F90115021961111EDCF80918002D8
:1031300080FF0AC081ED96E0DF91CF911F910F9142
:10314000FF90EF900C943007DF91CF911F910F917A
:10315000FF90EF9008952091190230911A022817DC
:10316000390771F090931A0280931902E0911B02C3
:10317000F0911C02309721F00680F781E02D099430
:10318000089520911702309118022817390771F01D
:103190009093180280931702E0911B02F0911C0299
:1031A000309721F00084F185E02D0994089585B7CA
:1031B000806885BF85B7806885BF089508950C94A1
:1031C000DE180C94DF180C94DE180C94DE180E94A4
:1031D000D7180E94E3180C94E11881E008950C942C
:1031E000ED180E9499250E94D8070E9400260E948F
:1031F0008C110C94E518CF93C82F8091800282FF28
:103200001EC080FF04C082EF96E00E9430078091CC
:10321000800280FF0CC01F92CF938DEE96E09F93AB
:103220008F930E94C9070F900F900F900F9080917D
:10323000800280FF04C08BEE96E00E9430078C2F46
:10324000CF910C94110AAF92BF92CF92DF92EF927E
:10325000FF920F931F93CF93DF93CDB7DEB72A97DB
:103260000FB6F894DEBF0FBECDBF0E9428080E94A3
:10327000EF18811111C08FEF89838A831B820E940E
:10328000A2258160782F9D838C8349815A816B812F
:103290008D810E94BB1940C08EE1A82E82E0B82E1D
:1032A00000E010E0C02E802F0E94D207E82EF5012A
:1032B000D1905F01D82631F40F5F1F4F0530110503
:1032C00089F7D9CF8091800281FD0E94EC0880E0CF
:1032D000FF24F3949D2D9F21D1F08E83CF82EF2088
:1032E00081E009F480E088870E94A2258160782F20
:1032F0009A8789874E815F8168858A850E94BB197C
:10330000F801E25EFD4F8081F826F08205C08F5FF4
:10331000FF0C8430F9F6D0CF0E9478120E94561824
:1033200090911D028917B1F00E94561880931D02DA
:103330002A960FB6F894DEBF0FBECDBFDF91CF91B6
:103340001F910F91FF90EF90DF90CF90BF90AF90C3
:103350000C94FB182A960FB6F894DEBF0FBECDBFB3
:10336000DF91CF911F910F91FF90EF90DF90CF9061
:10337000BF90AF900895CF93DF93CDB7DEB72B9773
:103380000FB6F894DEBF0FBECDBF4F835887698755
:103390007A878B87DE01119686E0FD0111928A956E
:1033A000E9F785E0FE01379601900D928A95E1F7E5
:1033B00049815A816B817C818D819E810E9441204F
:1033C0002B960FB6F894DEBF0FBECDBFDF91CF9125
:1033D0000895FC01808191810E9413230895CF9369
:1033E000882309F4A1C0C82F8238C1F40E9456185E
:1033F00081FD9AC069E380913A0190913B010E945E
:10340000F4240E94A3232FEF81EE94E0215080400A
:103410009040E1F700C0000069E319C0833801F56E
:103420000E94561880FD80C063E580913A0190911A
:103430003B010E94F4240E94A3232FEF81EE94E02D
:10344000215080409040E1F700C0000063E580918A
:103450003A0190913B010E94F624CF910C94A32352
:103460008438C1F40E94561882FD5EC067E48091E2
:103470003A0190913B010E94F4240E94A3232FEF74
:1034800081EE94E0215080409040E1F700C00000C0
:1034900067E4DDCF8CEF8C0F813AF8F48C2F0E941B
:1034A000BA28811141C06C2F80913A0190913B0163
:1034B0000E94BE24882349F06C2F80913A0190919C
:1034C0003B010E94F6240E94A3236C2F80913A01B5
:1034D00090913B010E94F424C0CF80E28C0F883091
:1034E00048F4C77081E001C0880FCA95EAF70E94CE
:1034F0005523B3CFEBE5EC0FE33040F4F0E0E552B9
:10350000FE4F808190E0CF910C94AB18C85AC73120
:1035100058F4EC2FF0E0EE0FFF1FE355FE4F8081D3
:103520009181CF910C94C118CF910895882309F40B
:103530005BC0682F823879F40E94561881FF54C00E
:1035400069E380913A0190913B010E94F4240E942A
:10355000A32369E310C08338B1F40E94561880FF9A
:1035600043C063E580913A0190913B010E94F424AD
:103570000E94A32363E580913A0190913B010E9450
:10358000F6240C94A323843879F40E94561882FF01
:103590002BC067E480913A0190913B010E94F42492
:1035A0000E94A32367E4E7CF8CEF860F813A18F3DC
:1035B00080E2860F883048F4677081E001C0880F90
:1035C0006A95EAF70E945B23DCCF8BE5860F833098
:1035D00020F480E090E00C94AB18685A673120F436
:1035E00080E090E00C94C1180895CF93C82F0E94FA
:1035F000EF19C93349F42FEF87EE93E02150804053
:103600009040E1F700C000008C2FCF910C94961AE7
:10361000882321F00E9455230C94A3230895882326
:1036200021F00E945B230C94A3230895CF92DF9294
:10363000EF92FF920F931F93CF93DF937C01062F9E
:10364000C72FFC01158112951F70D281D1110E94E4
:1036500075230E944B23882379F0DD2369F080E2F3
:10366000800F883048F082E00E94ED230E944B23B7
:1036700091E0D82ED92601C0D12CCC2EC2948FE057
:10368000C8228C2D90E0FC01E659FF4F0C94C73006
:103690008C2F807FCF70882311F0C295C07FDD23EF
:1036A00099F0CC2309F482C180E2800F883010F0B9
:1036B000011104C08C2F0E94552303C08C2F0E943F
:1036C00068230E94A32372C1802F0E94961ACC23E4
:1036D00009F491C180E2800F883010F0011104C01C
:1036E0008C2F0E945B2303C08C2F0E946E230E94AC
:1036F000A32381C18C2F807FCF70803211F0C295BF
:10370000C07F002319F00130C9F022C0DD2371F021
:10371000112341F0113031F40E9488238C2B0E9438
:10372000902369C10E9488238C2B1DC0112319F09E
:10373000113009F460C10E94992325C0DD2321F0D6
:10374000163008F058C10EC0153008F054C11BC027
:10375000DD2361F0112331F0F701858180FF26C15F
:103760008F7085838C2F0E94081B45C1112359F04F
:10377000093309F02CC1FFEF27EE83E0F150204020
:103780008040E1F722C18C2F0E940F1B34C18C2F87
:1037900086958695837019F0813061F02CC1DD2308
:1037A00021F0802F9C2F937002C080E090E00E9457
:1037B000AB1829C1DD2321F0802F9C2F937002C00C
:1037C00080E090E00E94C1181EC18C2F837009F028
:1037D00045C0D11114C1402F429546954770440F02
:1037E000440F602F6F70862F90E0A0E0B0E0042EB1
:1037F00004C0880F991FAA1FBB1F0A94D2F704FFA9
:1038000010C00FE010E020E030E004C0000F111FF6
:10381000221F331F4A95D2F70095109520953095B9
:1038200003C000E010E09801C695C695C370BC01C6
:10383000CD01602B712B822B932BC23049F058F4B1
:10384000C13019F00E949221DAC00E948021D7C0B5
:103850000E94A421D4C00E947E21D1C0DD2319F092
:103860008C2F817001C08695882309F4C8C0402F31
:10387000429546954770440F440F602F6F70862F16
:1038800090E0A0E0B0E0042E04C0880F991FAA1FAA
:10389000BB1F0A94D2F704FF10C00FE010E020E035
:1038A00030E004C0000F111F221F331F4A95D2F7CA
:1038B000009510952095309503C000E010E0980128
:1038C000C695C695C370BC01CD01602B712B822BB0
:1038D000932BC23049F058F4C13019F00E9457229E
:1038E0008EC00E9445228BC00E94692288C00E941F
:1038F000B82185C0CF70DD2339F08C2F0E94DE21E6
:10390000802F0E94081B7BC0802F0E940F1B8C2FD2
:103910000E94FF2174C0023F01F128F4003F41F0F2
:10392000013FA1F03FC0033FF9F0043F39F13AC035
:10393000DD2341F0153008F05EC08C2F8F710E949E
:10394000242259C0163008F056C0F7CFDD2339F0D5
:103950008C2F8F710E94DE214EC0DD23C9F38C2F86
:103960008F710E94FF2147C0DD2329F08C2F8F71BA
:103970000E94C92140C00E94C4213DC0DD2349F0FE
:10398000CF718C2F0E94DE2163E08C2F0E94D82300
:1039900032C081E00E94ED23123068F182E00E9483
:1039A000ED2329C0DD2331F0112391F2802F0E94F5
:1039B000EF1921C0112399F2093349F49FEFE7EE83
:1039C000F3E09150E040F040E1F700C00000802FAC
:1039D0000E94961A10C04C2F4F70602FC7010E9492
:1039E000940A0E94EF200FC04C2F4F70602FC70128
:1039F0000E94970A08C088EF8C0D843020F40E9442
:103A000056180E94110ADD20C9F00E94472380FD4C
:103A100015C0F70112820E9441230E94DE21C701D6
:103A20000E943F1D0E944123DF91CF911F910F9172
:103A3000FF90EF90DF90CF900C94FF21DF91CF911A
:103A40001F910F91FF90EF90DF90CF9008950F930B
:103A50001F93CF93DF93EC01688179818A810E9463
:103A60001E238C010E947B220E946C21B801CE0192
:103A70000E94161BDF91CF911F910F910895CF9354
:103A8000DF93FC019081818123813481232B31F0EC
:103A90008F3F31F481E09F3F19F403C081E001C002
:103AA00080E080FD0EC0EF01CF010E942A0A88232A
:103AB00041F0CE010E94271DCE01DF91CF910C94E1
:103AC000EF09DF91CF910895882321F00E946823A8
:103AD0000C94A3230895882321F00E946E230C9454
:103AE000A32308950E9475230E9485230E94A32387
:103AF00080E090E00E94AB1880E090E00C94C11848
:103B000080913A0190913B010E94F8240C94721D1F
:103B10000E9462230C94801DE92FE295EF704E2FD6
:103B200050E0FA013297EE30F105B0F4E658FF4F5D
:103B30000C94C730803F91F018F4883E68F40EC0B2
:103B4000843F51F40BC0883E48F0813F29F406C001
:103B500093FB882780F9089580E0089581E0089517
:103B60000E9413230E948C1D0895CF93DF9300D0F1
:103B700000D01F92CDB7DEB70F900F900F900F902F
:103B80000F90DF91CF910895CF93DF9300D000D0B5
:103B900000D0CDB7DEB726960FB6F894DEBF0FBEC5
:103BA000CDBFDF91CF9108951F93CF93DF93C09145
:103BB000240216E080912502C81799F0D0E01C9FDE
:103BC000F0011D9FF00D1124EA5DFD4F40815181F0
:103BD00062817381848195810E94C41D2196C77082
:103BE000E9CFDF91CF911F910895409156025091F6
:103BF0005702609158027091590280915A02909137
:103C00005B020C94C41D0F931F93CF93DF9380919D
:103C10005B0282958F7009F05DC080915802882305
:103C200009F458C080912402109125026091560237
:103C300070915702C0915902D0915A0291E06F3FA2
:103C400009F090E0292F06E0811709F443C020977E
:103C500021F07F3F21F030E003C031E001C0322F7E
:103C600090E030FD34C0089FF001099FF00D112451
:103C7000DF01AA5DBD4F11963C911197371327C004
:103C80003C91361324C012963C91129731111FC0FB
:103C900013964D915C9114974C1B5D0B483C51055C
:103CA000B0F480915B028F70806180935B02E55D70
:103CB000FD4F80818F708061808386E592E00E9455
:103CC0003F1DDF91CF911F910F910C94D41D019650
:103CD0008770BACFDF91CF911F910F9108959F9276
:103CE000AF92BF92CF92DF92EF92FF920F931F930A
:103CF000CF93DF93CDB7DEB761970FB6F894DEBFF1
:103D00000FBECDBF8C0185E0F801DE011D9601904C
:103D10000D928A95E1F7F80140815181E2809091FE
:103D20005602609157022091590230915A02211592
:103D3000310531F06F3F31F481E09F3F19F403C04A
:103D400081E001C080E0F82FF1709F2E80FD46C118
:103D5000F801A380B48086E5C82E82E0D82EF090CA
:103D60005802F501E21BF30BFF2009F4DFC080913C
:103D70005B02E83CF10508F09BC0282F207F09F08A
:103D800052C0561313C0491311C0FE2CE1100EC0CF
:103D90008F70806180935B020E94F51DC6010E94B6
:103DA0003F1D80915B02F801858358C1AB2831F03B
:103DB0005F3F31F481E04F3F19F403C081E001C05F
:103DC00080E080FD03C081E08E2502C080E090E0AD
:103DD000F82FF170FF2E80FF1CC0809124022091EB
:103DE000250236E0821709F417C190E0389FF001F0
:103DF000399FF00D1124EA5DFD4F6181561306C015
:103E00006081461303C06281E61203C00196877089
:103E1000E9CFFE2CEE2009F421C180915B02816084
:103E200080935B025AC0561306C0491304C0E110C8
:103E300002C0F8019FC04D875E878D859E850E94D8
:103E4000B01D882379F1EE2069F120915B02822F69
:103E500082958F7090E0029774F080915602909155
:103E6000570298878F831986BB86AA862C87CE0136
:103E700007960E943F1D86E0F801A6E5B2E001909A
:103E80000D928A95E1F70E94031E0E94F51D0DC058
:103E9000561729F14D875E878D859E850E94B01D3E
:103EA00081112CC0C8010E943F1DFF24F394D6C08D
:103EB000282F207F69F77A2DB98AA88A6E2D8989E3
:103EC0000E94B51D86E592E00E943F1D86E0F60146
:103ED00011928A95E9F70E94F51DF12CBFC0491394
:103EE000D9CFE110D7CFF8018583C8010E943F1DCB
:103EF00086E0F60111928A95E9F7B0C0EE2091F2C2
:103F000020915B02822F82958F7090E002970CF4D3
:103F1000B2CF80915602909157029A8389831B8277
:103F2000BD82AC822E83CE010196A3CFE83CF10581
:103F300008F047C0FE2CEE2009F4B4CF561330C071
:103F400049132EC020915B0220FD21C0822F829553
:103F50008F70482F50E041155105C9F0F8012583B5
:103F60004F30510541F08F5F982F9295907F822FAF
:103F70008F70892B8583C8010E943F1D86E0F80160
:103F8000A6E5B2E001900D928A95E1F742C086E085
:103F9000F801A6E5B2E001900D928A95E1F75EC0C6
:103FA0004D875E878D859E850E94B01D811163CFF0
:103FB00080915B02816080935B02C8010E943F1D7B
:103FC0004DC07A2DB98AA88A6E2D89890E94B51DA7
:103FD00086E0F60111928A95E9F71BC0EE2009F4FC
:103FE00061CF4D875E878D859E850E94B01DF82E1E
:103FF000882309F457CF86E0F801A6E5B2E00190E6
:104000000D928A95E1F786E592E00E94E9190E94F7
:10401000031E0E94F51D22C04D875E878D859E85FB
:104020000E941323292F22952F70223028F49F708D
:1040300039F0811105C00BC0243028F49F7049F479
:10404000805E883020F0C8010E943F1D9F2CF92C13
:1040500005C0F8019581907F99F7F9CF8F2D619672
:104060000FB6F894DEBF0FBECDBFDF91CF911F9189
:104070000F91FF90EF90DF90CF90BF90AF909F9007
:1040800008951F93CF93DF93CDB7DEB72C970FB66C
:10409000F894DEBF0FBECDBF4F83588769877A87FC
:1040A0008B879C87CE0107960E946F1E8823D1F0D4
:1040B0009F8188852A853B85232B31F08F3F31F402
:1040C00081E09F3F19F403C081E001C080E080FDE2
:1040D00047C04F81588569857A858B859C850E946C
:1040E000C41D3EC086E0FE013796DE0111960190A8
:1040F0000D928A95E1F7FF81E8856A857B856115D8
:10410000710531F0EF3F31F481E0FF3F19F403C056
:1041100081E001C080E080FD23C02091250230E0D5
:10412000C9010196877099274091240250E08417B5
:104130009507F1F1F983EA837D836C8396E0929F82
:10414000D001939FB00D1124AA5DBD4FFE013196A1
:1041500001900D929A95E1F7809325020E94D41D5B
:1041600016E08091240290912502891771F1189F21
:10417000C00111248A5D9D4F0E946F1E882329F182
:10418000E09124021E9FF0011124EA5DFD4F408161
:10419000518162817381848195810E94C41D8091C7
:1041A000240290E001968770992780932402D9CF4A
:1041B0000E94881D1092250210922402E6E5F2E08A
:1041C00086E0DF011D928A95E9F72C960FB6F894E8
:1041D000DEBF0FBECDBFDF91CF911F910895EF924B
:1041E000FF920F931F93CF93DF938C01892B09F4D8
:1041F0006CC0F12CEE24E394E8012196F80184913F
:10420000843740F4843008F051C0813081F082302E
:1042100019F15BC0853709F444C0A8F19CE7980FF9
:10422000903708F052C08F770E94961A41C00E5FF7
:104230001F4FFE01849190E2980F983050F48770E0
:10424000FE2D01C0FF0F8A95EAF78F2F0E94782379
:1042500014C00E94EF192DC00E5F1F4FFE01849104
:1042600090E2980F983060F48770FE2D01C0FF0F28
:104270008A95EAF78F2F0E947E230E94A32319C0FC
:104280000E94961A16C00E5F1F4FFE01C491CC23E8
:1042900081F08FE99FE00197F1F700C00000C15065
:1042A000F6CF0E5F1F4FFE01F49003C00E94EF197E
:1042B0008E018F2D882309F49FCFEFE9FFE031971E
:1042C000F1F700C000008150F5CFDF91CF911F9131
:1042D0000F91FF90EF900895089508950C946D212B
:1042E0000C946E210E94702160936F027093700293
:1042F00080937102909372020C94721D0C9472213F
:104300000F931F9300916F02109170022091710220
:1043100030917202602B712B822B932B1F910F9186
:104320000C9472210F931F9300916F0210917002F1
:1043300020917102309172026023712382239323B2
:104340001F910F910C9472210F931F9300916F0294
:1043500010917002209171023091720260277127D2
:10436000822793271F910F910C9472210C946D2139
:104370000E94B62160936B0270936C0280936D0271
:1043800090936E020C94721D60E070E0CB010C946F
:10439000B8210F931F9341E050E060E070E08A0184
:1043A0009B0104C0000F111F221F331F8A95D2F7F3
:1043B000C901B8011F910F910C94B8210F931F935D
:1043C00041E050E060E070E004C0440F551F661FFC
:1043D000771F8A95D2F780916B0290916C02A09121
:1043E0006D02B0916E028A019B01082B192B2A2BBA
:1043F0003B2BC901B8011F910F910C94B8210F9369
:104400001F9341E050E060E070E004C0440F551F8E
:10441000661F771F8A95D2F74095509560957095E5
:1044200080916B0290916C02A0916D02B0916E022E
:104430008A019B01082319232A233B23C901B801C0
:104440001F910F910C94B8210F931F9341E050E0FE
:1044500060E070E004C0440F551F661F771F8A9507
:10446000D2F780916B0290916C02A0916D02B09195
:104470006E028A019B01082719272A273B27C901B9
:10448000B8011F910F910C94B8210F931F930091C5
:104490006B0210916C0220916D0230916E02602BC4
:1044A000712B822B932B1F910F910C94B8210F939A
:1044B0001F9300916B0210916C0220916D0230915C
:1044C0006E0260237123822393231F910F910C941A
:1044D000B8210F931F9300916B0210916C022091F1
:1044E0006D0230916E0260277127822793271F91FA
:1044F0000F910C94B8210895990F990F890FE82F07
:10450000E695E695E695877051E001C0550F8A95CE
:10451000EAF785E0E89FF0011124E45AFD4F20E01E
:1045200030E070E04081CB01022E02C09695879565
:104530000A94E2F7817081958427852384278193EB
:104540002F5F3F4F2530310569F70895990F990F77
:10455000890F682F669566956695982F977085E008
:10456000689FB001112440E050E080E0FB01E40FBF
:10457000F51FE45AFD4F208130E0092E02C0369528
:1045800027950A94E2F721703327042E01C0220FE9
:104590000A94EAF7822B4F5F5F4F4530510531F7A0
:1045A0000895BF92CF92DF92EF92FF920F931F93E5
:1045B000CF93DF938C01C0906B02D0906C02E0909F
:1045C0006D02F0906E0280916F0290917002A09146
:1045D0007102B0917202C82AD92AEA2AFB2ACFE1D5
:1045E000D0E0D701C6010C2E04C0B695A7959795CB
:1045F00087950A94D2F780FD04C0219790F7B12CDB
:1046000007C0BC2EB8018C2F0E94B40A0197A9F3F1
:104610008B2DDF91CF911F910F91FF90EF90DF9045
:10462000CF90BF900895CF93DF93EC010E94D122E9
:10463000BE010E94B40ADF91CF9108951F93CF93DA
:10464000DF93EB0190912302992321F0CB010E948B
:10465000132313C0882349F0CB010E94D122182FC5
:10466000682FCE010E947C2204C0CB010E94A622AA
:10467000182FBE01812F0E94B40ADF91CF911F91A4
:10468000089580917302859585958595089580910B
:1046900073028770089590917302977081E009F416
:1046A00080E0089580917F02089590917F02892B88
:1046B00080937F020895809590917F028923809353
:1046C0007F02089510927F02089580917E020895DE
:1046D00090917E02892B80937E020895809590911F
:1046E0007E02892380937E02089510927E020895AF
:1046F00090917D02892B80937D0208958095909101
:104700007D02892380937D02089510927D02089591
:1047100080917402089508950C948B230C948C233B
:1047200090917402981721F0809374020C948E2358
:10473000089580917402882329F01092740280E019
:104740000C948E230895E0913A01F0913B01809101
:104750007F028083E0913A01F0913B01908180914A
:104760007E02892B8083E0913A01F0913B01908198
:1047700080917D02892B808380917402882381F04F
:10478000E0913A01F0913B019081892B80838091E7
:104790003A0190913B010E94B22481110E94992319
:1047A00080913A0190913B010C9462180C948B23F8
:1047B00098E0899F90011124262B209373020E9478
:1047C000DE21809173028595859585950C94D6237D
:1047D0001092730280E00C94D6232091730280958E
:1047E000822380937302982F977079F430E0482FDA
:1047F000082E000C550B2417350739F08595859543
:1048000085950E94FF210C94E82308959093EF0171
:104810008093EE01089580E090E00E94E83021E06E
:104820008C3E9E4F09F020E0822F089582E090E0B8
:104830000C94DA3083E090E00C94DA30CF9384E08B
:1048400090E00E94DA30C82F81E290E00E94DA30D6
:104850002C2F30E0A901582BCA01CF910895CF9396
:10486000C92F682F84E090E00E94EE306C2F81E227
:1048700090E0CF910C94EE30AB01BC018FE090E062
:104880000C940031AB01BC0183E190E00C94003149
:1048900060E070E0CB010C94422460E070E0CB015A
:1048A0000E943C240C9448246CEE7EEF80E090E063
:1048B0000E940C3160E082E090E00E94EE3060E007
:1048C00083E090E00E94EE3010926F02109270022E
:1048D000109271021092720260E084E090E00E94F7
:1048E000EE3060E081E290E00E94EE3060E085E032
:1048F00090E00E94EE3060E086E090E00E94EE30B2
:104900006FEF87E090E00E94EE3040E050E0BA01A7
:1049100088E090E00E94003160E08DE090E00E942D
:10492000EE3040E050E0BA0188E190E00E940031B2
:1049300060E087E190E00E94EE3040E050E0BA0194
:104940008CE190E00E94003160E080E290E00E9403
:10495000EE300C944D240C945424682F8EE090E09B
:104960000C94EE30FC01329697E080E0915029F0F3
:1049700021912223D9F38F5FF9CF0895662349F05F
:10498000FC01329608962191621729F0E817F90781
:10499000D1F780E0089581E008959C01FC013296F2
:1049A0009FEF80E04191461789F09F3F19F4411134
:1049B00001C0982F8F5F8630A9F79F3F39F0F9012A
:1049C000E90FF11D97FDFA956283089508959C0102
:1049D0002A5F3F4FFC014281461301C012820196BB
:1049E00082179307B9F708950C94CD240C94E7240B
:1049F000029626E0FC0111922A95E9F708950895A0
:104A00000C94FF240C94FF24CF930E9402250E9453
:104A100028080E940025C0E08C2F0E94D207811137
:104A200004C0CF5FC530C1F701C081E0CF910895C8
:104A30000C94FF240C9418250E941A258091C3021F
:104A4000843009F439C01092810220E488E190E0BA
:104A50000FB6F894A895809360000FBE2093600075
:104A600080E00E94110A0E94E81080918202811168
:104A70000AC081E0809382028091930281708093CA
:104A800083020E9456120E941A2583B7817F846098
:104A900083BF83B7816083BF7894889583B78E7F07
:104AA00083BF0FB6F894A8958091600088618093C9
:104AB0006000109260000FBE08950C94FF240E94C5
:104AC000881D0E9456180E94110A1092820280913D
:104AD000830281110E94F1110E94C6100C945D2581
:104AE0001F920F920FB60F9211248F939F93AF9343
:104AF000BF9380918102811113C08091B90290917E
:104B0000BA02A091BB02B091BC024196A11DB11D99
:104B10008093B9029093BA02A093BB02B093BC02F7
:104B2000BF91AF919F918F910F900FBE0F901F90EB
:104B3000189582E084BD93E095BD9AEF97BD809370
:104B40006E0008952FB7F8948091B9029091BA023F
:104B5000A091BB02B091BC022FBF08952FB7F8946B
:104B60006091B9027091BA028091BB029091BC022F
:104B70002FBF08959C014FB7F8948091B90290918E
:104B8000BA02A091BB02B091BC024FBF821B930B33
:104B9000089578941F920F920FB60F9211248F935D
:104BA0009F93AF93BF938091B9029091BA02A09165
:104BB000BB02B091BC020196A11DB11D8093B90248
:104BC0009093BA02A093BB02B093BC02BF91AF9185
:104BD0009F918F910F900FBE0F901F90189587E7B0
:104BE00097E790930108809300089AE088E10FB658
:104BF000F894A895809360000FBE90936000FFCF5B
:104C00000E940B24811102C00E94AB240E94162432
:104C1000809380020E941E249093BE028093BD0266
:104C20000E941A24682F70E080E090E00C947E21AE
:104C3000CF93C82F1F928F938BE097E09F938F9312
:104C40000E94C90781E090E0A0E0B0E0BC01CD0186
:104C500004C0660F771F881F991FCA95D2F70E945C
:104C60007E210F900F900F900F90CF910C94881D84
:104C7000CF93DF938B3109F4EEC108F08FC18B30F5
:104C800009F4B2C108F065C1863009F4B0C120F45E
:104C9000853009F4BEC161C2873009F4C1C18830D2
:104CA00009F05BC28CE49CE00E9430078DE99BE038
:104CB0000E9430070E941A241F928F938AE99BE07A
:104CC0009F938F930E94C90788E99BE00E94300759
:104CD0000E941624C82F85E89BE00E9430071F928F
:104CE000CF9380E89BE09F938F930E94C9078EE744
:104CF0009BE00E94300784E79BE00E9430078C2FE6
:104D000081701F928F9381E79BE09F938F930E9406
:104D1000C9078FE69BE00E94300785E69BE00E9472
:104D20003007C1FB882780F91F928F9382E69BE0B2
:104D30009F938F930E94C90780E69BE00E943007F3
:104D400084E59BE00E943007C2FB882780F91F9210
:104D50008F9381E59BE09F938F930E94C9078FE417
:104D60009BE00E94300786E49BE00E943007C3FB73
:104D7000CC27C0F91F92CF9383E49BE09F938F933E
:104D80000E94C90781E49BE00E9430070E941E2414
:104D9000EC018DE29BE00E943007DF93CF9388E225
:104DA0009BE09F938F930E94C90786E29BE00E943D
:104DB00030078DE09BE00E9430078C2F81701F929E
:104DC0008F938AE09BE09F938F930E94C9078DB7D2
:104DD0009EB780960FB6F8949EBF0FBE8DBF88E039
:104DE0009BE00E94300781EF9AE00E943007C1FBF0
:104DF000882780F91F928F938EEE9AE09F938F936E
:104E00000E94C9078CEE9AE00E9430078AED9AE072
:104E10000E9430078D2F81701F928F9387ED9AE04B
:104E20009F938F930E94C90785ED9AE00E943007F7
:104E300083EC9AE00E943007D695D1701F92DF93E1
:104E400080EC9AE09F938F930E94C9078EEB9AE0C3
:104E50000E9430078CEA9AE00E943007C2FB882744
:104E600080F91F928F9389EA9AE09F938F930E9413
:104E7000C90787EA9AE00E94300785E99AE00E9414
:104E80003007C3FB882780F91F928F9382E99AE04D
:104E90009F938F930E94C90780E99AE00E94300790
:104EA00086E89AE00E943007C4FB882780F91F92A9
:104EB0008F9383E89AE09F938F930E94C90781E8BC
:104EC0009AE00E9430078FE69AE00E943007C5FB07
:104ED000882780F91F928F938CE69AE09F938F9397
:104EE0000E94C9078AE69AE00E9430078EE49AE0A1
:104EF0000E943007C6FB882780F91F928F938BE4AE
:104F00009AE09F938F930E94C9078DB79EB78096B2
:104F10000FB6F8949EBF0FBE8DBF89E49AE00E9441
:104F2000300781E49AE00E943007C7FBCC27C0F924
:104F30001F92CF938EE39AE09F938F930E94C907AD
:104F40008CE39AE00E9430070F900F900F900F9023
:104F500049C0803109F4A9C020F48E3009F48FC013
:104F6000FCC0863109F4BCC0893109F0F6C08FE677
:104F700098E00E94300784E498E00E9430078AE0BD
:104F800098E00E94300781ED97E00E94300784EAA4
:104F900097E00E94300789E797E084C08A32E1F009
:104FA00060F4873209F4D5C028F48E3108F4D5C0F6
:104FB0008D51D0C0893269F1D0C0833448F48A332E
:104FC00008F0C5C0853309F4C4C0883369F0C5C092
:104FD000833409F4BEC0C1C08BE39CE00E9430075B
:104FE0000E94AB24C1E0BEC089E998E05BC080911B
:104FF0008002817F8E7F809380028EE798E00E94FE
:10500000300787E39CE00E94300781E080938402B0
:10501000E9CF8BE19CE00E9430070E941B0AE2CF9F
:1050200080918002C82FC095C170C0FB80F9809329
:105030008002CC2329F08FE09CE00E94300792C0D0
:1050400082E09CE00E94300780918002897F877F08
:1050500080938002C7CF9091800291FBCC27C0F94A
:1050600081E0C827892FC0FB81F980938002CC237F
:1050700019F085EF9BE029C087EE9BE013C090916B
:10508000800292FBCC27C0F981E0C827892FC0FBA2
:1050900082F980938002CC2319F088ED9BE015C043
:1050A00088EC9BE00E9430079DCF9091800293FB9B
:1050B000CC27C0F981E0C827892FC0FB83F98093F2
:1050C0008002CC2351F08CEB9BE00E943007809152
:1050D000800281608093800245C08FEA9BE0E2CF2E
:1050E0008BE697E00E9430070E9456181F928F931C
:1050F00081E597E09F938F930E94C90780914601B5
:105100001F928F938AE397E09F938F930E94C90722
:10511000809191021F928F9387E297E09F938F93E4
:105120000E94C9070E94AE259F938F937F936F9330
:1051300080E197E09F938F930E94C9078DB79EB738
:1051400042960FB6F8949EBF0FBE8DBF4BCF8953CA
:1051500001C080E00E94182645CF8DEA9BE00E94A6
:105160003007C0E08C2FDF91CF91089580E0089543
:105170000C94B628CF93C82F80918402882319F00D
:10518000813031F038C00E9452238232B1F504C020
:105190000E945223823261F48C2F0E94B828811120
:1051A00004C08C2F0E94382624C081E090E021C0EA
:1051B0008C2F0E94B62881111BC0C43189F018F4CD
:1051C000CB3029F010C0C93259F0C83361F48EE7F2
:1051D00098E00E94300787E097E00E94300708C0FF
:1051E000109284020CC085E097E00E94300707C04F
:1051F00081E0817006C01092840280E002C080E0ED
:10520000F8CFCF91089580919002089508959FB7A7
:10521000F894109287029FBF9091C302943009F0D6
:1052200057C09091E9009F703091EC00232F2170BE
:1052300030FD20E8922B23E02093E9002091EB0041
:1052400020FF43C02091EE0027FF3FC02091850240
:10525000222321F02091E80025FF37C0109285021B
:1052600026E03091E80035FD15C03091C30234309E
:1052700061F53091EB0035FD28C0215021F481E02B
:105280008093850222C0EFE9FFE03197F1F700C07B
:105290000000E7CF8093F1008091E80085FD0AC00F
:1052A0008091E80080FFFCCF8091E8008E778093AA
:1052B000E80006C08FB7F89421E0209387028FBFE3
:1052C0009F709093E90080E008959F709093E900AB
:1052D0008FEF0895CF93DF9300D01F92CDB7DEB745
:1052E0009091C302943019F589837B836A8382E0AD
:1052F0008093E9008FEF9091E800815095FD06C002
:1053000095ED9A95F1F700008111F5CF8091E800B5
:1053100085FF0DC040E050E063E070E0CE010196F3
:105320000E94E82B8091E8008E778093E8000F9030
:105330000F900F90DF91CF910895CF93DF93EC0101
:105340000E94CB2B823011F0843031F4BE0184E016
:10535000DF91CF910C946A29DF91CF910895BC0120
:1053600083E00C946A29CF93DF93EC010E94CB2B4E
:10537000823011F0843039F581E08093E9008FEFBD
:105380009091E800815095FD06C095ED9A95F1F752
:1053900000008111F5CF8091E80085FF14C040E046
:1053A00050E068E070E0CE010E94E82B8091E800B8
:1053B0008E778093E80088E0FE01A8E8B2E00190D3
:1053C0000D928A95E1F7DF91CF9108958CE79CE0EB
:1053D0000E9430078091C202811109C00E94792D7C
:1053E0000E94D62D8091E20084608093E2000895AF
:1053F00088E79CE00E9430071092C202089584E77B
:105400009CE00C94300780E79CE00C9430078CE61D
:105410009CE00E9430070C945F25209186022F5F4C
:10542000822F62E30E948530992319F0209386022F
:1054300008951092860280918702882371F18091ED
:10544000C302843041F58091E9008F702091EC0017
:10545000922F917020FD90E8892B93E09093E900C2
:105460009091EB0090FF14C09091EE0097FF10C058
:105470009091E80095FF03C01092F100F9CF909150
:10548000E80090FF05C09091E8009E779093E800B7
:105490008F708093E90010928702089542E061ECDA
:1054A00081E00E94F22C42E261EC82E00E94F22C48
:1054B00042E261EC83E00C94F22C8091C5028330CF
:1054C00009F460C030F4813071F0823009F499C081
:1054D00008958A3009F485C08B3009F46BC0893097
:1054E00009F0A7C020C08091C402813A09F0A1C090
:1054F0008091E800877F8093E8008091C8029091B6
:10550000C902892B21F468E088E892E003C060E0DA
:1055100080E090E070E00E94332C8091E8008B776F
:105520008093E80008958091C402813209F081C01F
:105530008091C8029091C902029708F07AC08091C8
:10554000E800877F8093E8008091E80082FD05C035
:105550008091C3028111F8CF6CC02091F30080913B
:10556000F20090E0922B029729F48091F1008B7F5A
:10557000813021F48091F100809390028091E800C5
:105580008B7753C08091C402813A09F052C0809158
:10559000C8029091C902892B09F04BC08091E800A4
:1055A000877F8093E8008091E80080FFFCCF8091A6
:1055B000460136C08091C4028132D9F58091C8027B
:1055C0009091C902892BA9F58091E800877F80938B
:1055D000E8000E94272D8091C602809346010C941A
:1055E000881D8091C402813221F58091E800877F77
:1055F0008093E8000E94272D8091C702809391023A
:1056000008958091C402813AA1F48091E800877FD7
:105610008093E8008091E80080FFFCCF80919102A8
:105620008093F1008091E8008E778093E8000C94DD
:10563000272D089584B7877F84BF0FB6F894A89567
:1056400080916000886180936000109260000FBEBE
:1056500090E080E80FB6F894809361009093610029
:105660000FBE0E94E7180E94792D0E94D62D8091CE
:10567000E20084608093E20087E099E20E940624C1
:1056800078940E946A300E94F1188CE391E00E94A5
:1056900051188BE59CE00E9430078091C302853051
:1056A00089F487E59CE00E9430070E941C258091C8
:1056B000C102882391F30E940425882371F30E947C
:1056C000D22BEBCF0E942319E8CF0C94672B292F04
:1056D000332723303105C9F060F42130310581F0E2
:1056E0002230310509F047C08BE590E024EB3CE027
:1056F00046C02132310511F12232310561F13BC042
:1057000082E190E02FE03DE03AC099278130910599
:1057100061F040F08230910559F0039761F5E0E8BF
:10572000FCE008C0E0EBFCE005C0E4E9FCE002C0FE
:10573000E6E8FCE0849190E09F0121C063307105B0
:10574000D0F4660F771FFB01E951FE4F20813181B4
:1057500089E090E014C06330710568F4FB01EE0F3E
:10576000FF1FEF51FE4F20813181FB01E252FE4FBE
:10577000808190E004C080E090E020E030E0FA0119
:105780003183208308958091C302843011F081E039
:10579000089582E0089580919202811102C00C94D4
:1057A000C32B089580E189BD82E189BD09B400FE63
:1057B000FDCF8091D8008F7D8093D8008091E0004C
:1057C00082608093E0008091E00081FDFCCF08952D
:1057D000CF92DF92EF92FF920F931F93CF93DF93BD
:1057E000EC018B017A010E94462D811133C0E11436
:1057F000F10439F0F70180819181081B190BC80F62
:10580000D91FC12CD12C0115110519F18091E80087
:1058100085FD16C08091E8008E778093E800E11442
:10582000F10449F0F70180819181C80ED91ED1821F
:10583000C08285E00FC00E94462D882321F30AC054
:1058400089918093F10001501109FFEFCF1ADF0A0F
:10585000DACF80E0DF91CF911F910F91FF90EF9011
:10586000DF90CF9008952091CA023091CB02261785
:10587000370748F06115710539F42091E8002E775B
:105880002093E80001C0B901FC0120E06115710519
:1058900079F18091C3028823F1F18530F1F1809193
:1058A000E80083FD3CC08091E80082FD2EC080911D
:1058B000E80080FFEBCF2091F3008091F20090E0B0
:1058C000922B6115710551F08830910538F42191C2
:1058D0002093F100615071090196F3CF21E0089700
:1058E00009F020E08091E8008E778093E800CECF29
:1058F0002111CFCF0AC08091C302882361F0853087
:1059000061F08091E80083FD0AC08091E80082FF89
:10591000F2CF80E0089582E0089583E0089581E069
:1059200008952091CA023091CB022617370748F01C
:105930006115710539F42091E8002E772093E80075
:1059400001C0B901FC0120E06115710591F1809160
:10595000C302882309F440C0853009F43FC0809118
:10596000E80083FD3DC08091E80082FD2FC080915A
:10597000E80080FFE9CF2091F3008091F20090E0F1
:10598000922B6115710559F08830910540F42491EE
:105990002093F1003196615071090196F2CF21E018
:1059A000089709F020E08091E8008E778093E80066
:1059B000CBCF2111CCCF0AC08091C302882361F0E4
:1059C000853061F08091E80083FD0AC08091E80095
:1059D00082FFF2CF80E0089582E0089583E0089589
:1059E00081E00895982F973068F59093E900981713
:1059F00039F07091EC002091ED005091F00003C05F
:105A0000242F762F50E021FD02C09F5FECCF309114
:105A1000EB003E7F3093EB003091ED003D7F309303
:105A2000ED003091EB0031603093EB007093EC00AF
:105A30002093ED005093F0002091EE0027FDE5CF7C
:105A400080E008958F708093E90081E0089580914F
:105A5000C40287FF11C08091E80082FD05C08091DB
:105A6000C3028111F8CF11C08091E8008B770BC081
:105A70008091C302882349F08091E80080FFF8CF2D
:105A80008091E8008E778093E80008952091E400EB
:105A90003091E50095E64091EC00842F817040FF45
:105AA00023C08091E80080FD1DC08091C30288233F
:105AB00099F0853099F08091EB0085FD11C04091FF
:105AC000E4005091E5002417350729F3915011F0B7
:105AD0009A01E1CF84E0089582E0089583E008957B
