:100000000C94DA060C9421070C9421070C94210718
:100010000C9421070C9421070C9421070C942107C0
:100020000C9421070C9421070C94962D0C94682EA7
:100030000C94EA240C9421070C9421070C942107BA
:100040000C9421070C9421070C9421070C94210790
:100050000C9421070C945E250C9421070C94210725
:100060000C9421070C9421070C9421070C94210770
:100070000C9421070C9421070C9421070C94210760
:100080000C9421070C9421070C9421070C94210750
:100090000C9421070C9421070C9421070C94210740
:1000A0000C9421070C9421070C942107CC12CF1239
:1000B000D412DB12E012E512EA12EF12F412F91276
:1000C000FE12031307130A130D13101313131A133D
:1000D0001A131A13C91AC91AFB1AFB1A481B7C1CDB
:1000E0007C1C7C1C661BFB1B0C1C0C1C6C1C7C1CD9
:1000F0007C1C751C0C1D0C1D1E1D1E1D151D1E1DA2
:100100001E1D1E1D0C1D0C1D1A1D1E1D1E1D1A1D43
:10011000D52EFC2EF42FFC2EF42F482F6B2FF42F0E
:10012000C22FD12F040005000600070008000900B7
:100130000A000B000C000D000E000F001000110053
:100140001200005716001900000000000100C35CF7
:10015000C45CC25CCA5CC95CC65CC55CC85CC75C8C
:100160000100010001000100005C015700000000D7
:100170000000000044454255473A206469736162BB
:100180006C65642E0A0044454255473A20656E610D
:10019000626C65642E0A007267626C69676874201D
:1001A00074696D65722064697361626C652E0A0002
:1001B0007267626C696768742074696D6572206526
:1001C0006E61626C65642E0A007267626C696768B2
:1001D000742073657420687376205B4E4F454550DC
:1001E000524F4D5D3A2025752C25752C25750A003A
:1001F0007267626C696768742073657420687376CF
:10020000205B454550524F4D5D3A2025752C257594
:100210002C25750A007267626C69676874206469CE
:100220007361626C65205B4E4F454550524F4D5D8A
:100230003A207267626C696768745F636F6E6669A3
:10024000672E656E61626C65203D2025750A00721F
:1002500067626C696768742064697361626C6520A9
:100260005B454550524F4D5D3A207267626C69673D
:1002700068745F636F6E6669672E656E61626C6538
:10028000203D2025750A007267626C6967687420DA
:10029000656E61626C65205B4E4F454550524F4D17
:1002A0005D3A207267626C696768745F636F6E663F
:1002B00069672E656E61626C65203D2025750A00B8
:1002C0007267626C6967687420656E61626C652034
:1002D0005B454550524F4D5D3A207267626C6967CD
:1002E00068745F636F6E6669672E656E61626C65C8
:1002F000203D2025750A007267626C69676874206A
:10030000746F67676C65205B454550524F4D5D3A91
:10031000207267626C696768745F636F6E66696795
:100320002E656E61626C65203D2025750A0072673E
:10033000626C69676874206D6F6465205B4E4F4521
:100340004550524F4D5D3A2025750A007267626C28
:1003500069676874206D6F6465205B454550524F36
:100360004D5D3A2025750A007267626C6967687492
:100370005F696E6974207267626C696768745F6335
:100380006F6E6669672E6D6F6465203D20302E208C
:1003900057726974652064656661756C7420766156
:1003A0006C75657320746F20454550524F4D2E0A71
:1003B000007267626C696768745F696E6974206552
:1003C00065636F6E666967206973206E6F74206560
:1003D0006E61626C65642E0A007267626C696768A0
:1003E000745F696E6974207374617274210A00729B
:1003F00067626C696768745F696E69742063616CB9
:100400006C65642E0A007267626C696768745F636A
:100410006F6E6669672E7370656564203D20256484
:100420000A007267626C696768745F636F6E666901
:10043000672E76616C203D2025640A007267626C2D
:10044000696768745F636F6E6669672E7361742095
:100450003D2025640A007267626C696768745F6397
:100460006F6E6669672E687565203D2025640A00F9
:100470007267686C696768745F636F6E6669672E20
:100480006D6F6465203D2025640A007267626C69A7
:100490006768745F636F6E6669672E656E61626C14
:1004A00065203D2025640A007267626C6967687484
:1004B0005F636F6E66696720454550524F4D3A0A3B
:1004C000007F3F1F643214643214783C1E1E140AED
:1004D000052223252628292A2C2D2F303233353684
:1004E000383A3B3D3E4042434547494A4C4E5051C5
:1004F000535557595A5C5E6062646668696B6D6FEC
:1005000071737577797B7D7F81838587898A8C8EEE
:1005100090929496989A9C9E9FA1A3A5A7A8AAACF6
:10052000AEAFB1B3B4B6B8B9BBBCBEBFC1C2C3C530
:10053000C6C7C9CACBCCCDCED0D1D2D2D3D4D5D6D2
:10054000D7D7D8D9D9DADADBDBDBDCDCDCDCDCDD05
:10055000DDDDDDDCDCDCDCDCDBDBDBDADAD9D9D8E9
:10056000D7D7D6D5D4D3D2D2D1D0CECDCCCBCAC981
:10057000C7C6C5C3C2C1BFBEBCBBB9B8B6B4B3B1B0
:10058000AFAEACAAA8A7A5A3A19F9E9C9A9896944B
:1005900092908E8C8A89878583817F7D7B79777520
:1005A00073716F6D6B6968666462605E5C5A5957FF
:1005B000555351504E4C4A4947454342403E3D3BBE
:1005C0003A3836353332302F2D2C2A292826252348
:1005D00022000101010101010101010202020202E6
:1005E00002020202030303030303030304040404DB
:1005F00004040405050505050606060606070707A3
:10060000070708080808090909090A0A0A0B0B0B59
:100610000C0C0C0D0D0D0E0E0E0F0F0F10101111F6
:10062000111212131314141515161617171818197A
:10063000191A1A1B1B1C1D1D1E1E1F2020212222E1
:10064000232424252626272829292A2B2C2D2D2E24
:100650002F30313232333435363738393A3B3C3D3E
:100660003E3F404142434445464748494A4C4D4E2F
:100670004F50515354555658595A5B5D5E5F6162F5
:1006800064656668696B6C6D6F7072737577787A84
:100690007B7D7E8082838587888A8C8E8F919395DF
:1006A00096989A9C9EA0A2A3A5A7A9ABADAFB1B303
:1006B000B5B7BABCBEC0C2C4C6C9CBCDCFD1D4D6E3
:1006C000D8DBDDDFE2E4E7E9EBEEF0F3F5F8FAFD85
:1006D000FF0A002530325820006B6579626F617225
:1006E000645F7265706F72743A20000A00253032C0
:1006F00058006B6579626F6172645F7365745F6CDB
:1007000065643A20003F00433E20004C25640A0007
:1007100074696D65725F72656164333228293A20AD
:100720002530346C580A006B6579626F6172645FC2
:1007300069646C653A2025580A006B6579626F61BF
:1007400072645F70726F746F636F6C3A2025580A21
:1007500000686F73745F6B6579626F6172645F6C60
:1007600065647328293A2025580A000A092D205368
:100770007461747573202D0A004743433A20352E67
:10078000342E30204156522D4C4942433A20322ECD
:10079000302E30204156525F415243483A20617614
:1007A00072350A004F5054494F4E533A204C55462B
:1007B000412045585452414B455920434F4E534FC9
:1007C0004C4520434F4D4D414E4420343039360A7C
:1007D000004255494C443A2022302E372E313634CF
:1007E0002D322D6735653437663922202831343A69
:1007F00034323A323320466562203233203230328E
:1008000030290A005649443A203078464545442864
:100810004A6F7368204A6F686E736F6E2920504963
:10082000443A2030783846373328487562313629C3
:10083000205645523A203078303030310A00444555
:1008400053433A204D6163726F2050616420776991
:100850007468205553422048756220616E642045BB
:100860006E636F646572730A000A092D2056657203
:1008700073696F6E202D0A000A092D20436F6E7375
:100880006F6C65202D0A4553432F713A09717569C4
:10089000740A000A092D204D61676963202D0A44FE
:1008A0003A094465627567204D6573736167652019
:1008B000546F67676C650A583A094D6174726978BC
:1008C000204465627567204D6F646520546F6767CB
:1008D0006C65202D2053686F77206B657970726589
:1008E0007373657320696E206D6174726978206717
:1008F0007269640A4B3A094B6579626F61726420D0
:10090000446562756720546F67676C65202D2053BE
:10091000686F77206B65797072657373207265708C
:100920006F72740A4D3A094465627567204D6F75A0
:10093000736520546F67676C650A563A095665728D
:1009400073696F6E0A533A095374617475730A437D
:100950003A09416374697661746520436F6E736F01
:100960006C65204D6F64650A46312D4631303A0979
:1009700053776974636820746F204C6179657220C5
:10098000302D392028463130203D204C30290A3086
:100990002D393A0953776974636820746F204C616C
:1009A00079657220302D390A47524156453A09532C
:1009B000776974636820746F204C617965722030A8
:1009C0002028616C7465726E617465290A423A0967
:1009D0004A756D7020746F20426F6F746C6F616424
:1009E00065720A4553433A094A756D7020746F2049
:1009F000426F6F746C6F616465722028616C7465FE
:100A0000726E617465290A453A095072696E7420E4
:100A1000454550524F4D2053657474696E67730A93
:100A20004253504143453A09436C65617220454544
:100A300050524F4D0A000A002575002E6E6B726FE2
:100A40003A20000A002575002E737761705F62619D
:100A5000636B736C6173685F6261636B7370616316
:100A6000653A20000A002575002E737761705F6774
:100A7000726176655F6573633A20000A0025750030
:100A80002E6E6F5F6775693A20000A002575002E8B
:100A9000737761705F72616C745F726775693A2019
:100AA000000A002575002E737761705F6C616C74AD
:100AB0005F6C6775693A20000A002575002E737710
:100AC00061705F7263746C5F726775693A20000AC7
:100AD000002575002E737761705F6C63746C5F6CBA
:100AE0006775693A20000A002575002E63617073EE
:100AF0006C6F636B5F746F5F636F6E74726F6C3A71
:100B000020000A002575002E737761705F636F6E99
:100B100074726F6C5F636170736C6F636B3A20000B
:100B20000A0025303258006B65796D61705F636F24
:100B30006E6669672E7261773A20000A002575009B
:100B40002E6D6F7573653A20000A002575002E6BB7
:100B50006579626F6172643A20000A002575002E83
:100B60006D61747269783A20000A002575002E655F
:100B70006E61626C653A20000A00253032580064CC
:100B8000656275675F636F6E6669672E7261773A3B
:100B900020000A0025750064656661756C745F6CE1
:100BA000617965723A20003F000A6D6F7573653A8E
:100BB000206F66660A000A6D6F7573653A206F6E66
:100BC0000A000A6B6579626F6172643A206F66662B
:100BD0000A000A6B6579626F6172643A206F6E0A6F
:100BE000000A6D61747269783A206F66660A000ABD
:100BF0006D61747269783A206F6E0A000A646562EA
:100C000075673A206F66660A000A64656275673A1E
:100C1000206F6E0A000A0A4A756D70696E6720744B
:100C20006F20626F6F746C6F616465722E2E2E2060
:100C300000433E2000436C656172696E6720454544
:100C400050524F4D0A006565636F6E6669673A0AD8
:100C5000005B735D004B6579626F61726420737431
:100C60006172742E0A005B575D005B535D005B523E
:100C70005D005B445D005B435D00040330000000E9
:100C80000C034800750062003100360000001A03B2
:100C90004A006F007300680020004A006F0068007F
:100CA0006E0073006F006E00000004030904090267
:100CB0005B00030100A0FA09040000010301010028
:100CC0000921110100012240000705810308000AE3
:100CD00009040100010300000009211101000122A3
:100CE00036000705820320000A09040200020300FF
:100CF00000000921110100012222000705830320C1
:100D0000000107050303200001120110010000008B
:100D100008EDFE738F0100010203010631FF097423
:100D2000A1010975150026FF0095207508810209AB
:100D300076150026FF00952075089102C00501096F
:100D400080A10185031A81002A8300160100260371
:100D500000950175108100C0050C0901A1018504F1
:100D60001A01002A9C02160100269C0295017510AA
:100D70008100C005010906A101050719E029E71551
:100D8000002501950875018102950175088101050D
:100D900007190029FF150026FF0095067508810038
:100DA000050819012905950575019102950175033D
:100DB0009101C00011241FBECFEFDAE0DEBFCDBF2E
:100DC00004B603FE27C08091CF029091D002A0917B
:100DD000D102B091D2028730904BA740B04BD1F4F2
:100DE0001092CF021092D0021092D1021092D20231
:100DF00014BE84B7877F84BF0FB6F894A8958091FE
:100E00006000886180936000109260000FBEE0E097
:100E1000F8E3099511E0A0E0B1E0ECE8F1E602C0EA
:100E200005900D92A03FB107D9F722E0A0EFB1E005
:100E300001C01D92AF3CB207E1F70E94BC2A0C949E
:100E4000C4300C940000FF93EF93E091F001F09117
:100E5000F101309709F00995EF91FF910895FC0198
:100E60008591803011F0EFDFFBCF0895FF27E0E29E
:100E700030E247FF0CC0419597FF09C0EDE2609555
:100E8000709580959095611D711D811D911D27FFA5
:100E900002C0219530E350E2AA27660F771F881F12
:100EA000991FAA1FA41710F0A41B63955A95A9F7C0
:100EB000AA3008F0A95FA05DAF93F39561157105A5
:100EC0008105910541F7ED3211F4EF93F395F21797
:100ED00018F43F93F395FBCF8F91B5DFFA95E1F7C7
:100EE0000895E991F9918591803021F0853219F0CA
:100EF000AADFF9CF089520E0E89455915532C1F367
:100F0000503311F4689455915A3348F4505390F388
:100F1000220F022E220F220F200D250FF4CF0EF4E8
:100F2000219589919991533619F3533729F1533506
:100F300059F1BC0188279927E8945C3621F48991FE
:100F4000999168945591543639F446EF7EF077FFC5
:100F50000DC08FEF9FEF0AC055374AE039F0583582
:100F600040E121F0523642E009F00895FF93EF93FB
:100F70007DDFEF91FF91B7CFFF93EF93FC0181915C
:100F80008030B9F360DFFBCFFF93EF9368DFF1CFE1
:100F9000DF93CF93CDB7DEB72596A3DFCF91DF9157
:100FA0000895E82FF0E0EC50FE4F80810895CF9334
:100FB000DF93AEE4B1E043E551E061E070E08D9194
:100FC000E82FE295EF70F0E021A18F70EB0102C0F5
:100FD000CC0FDD1F8A95E2F7CE019C2F90959223CE
:100FE00091A392A1892B82A34A175B0741F7AAE438
:100FF000B1E04EE451E061E070E08D91E82FE295C0
:10100000EF70F0E021A18F70EB0102C0CC0FDD1F6B
:101010008A95E2F7CE019C2F9095922391A392A1FD
:10102000892B82A34A175B0741F7E9EFF1E0A4EFB0
:10103000B1E08EEF91E011921D928E179F07D9F7C4
:1010400085E00E943E0CDF91CF910C9496095F924F
:101050006F927F928F929F92AF92BF92CF92DF92C8
:10106000EF92FF920F931F93CF93DF936EE471E0A3
:10107000A9EFB1E02EEFA22E21E0B22E612C01E00B
:1010800010E06D015C901C92EB018991BE01E82F8C
:10109000E295EF70F0E021A18F70A80102C0440F2B
:1010A000551F8A95E2F7CA01242B21A322A1942E71
:1010B0009094292122A350EA5A95F1F79AE4E92E57
:1010C00091E0F92E40E050E0E70189907E01282D63
:1010D00022952F7030E0E90128A17C9030E0D82DD6
:1010E000DF7002C035952795DA95E2F720FD08C03C
:1010F000302F042E01C0330F0A94EAF7232F01C0CA
:1011000020E027292C934F5F5F4F44305105E1F6D3
:1011100091A1992291A292A1892B82A3119681E09B
:10112000F6019081951101C080E0682AAA16BB06DD
:1011300009F0A7CF262D45E064EF71E089EF91E03B
:101140000E943F0C4091F8011092F8012091F301A8
:10115000322F330F3093F3018091F201982F990FC2
:101160009093F2012FB1221F2227221F232B2093BD
:10117000F30189B1881F8827881F892B8093F2018A
:1011800091E02F3709F090E08F3711F080E001C037
:1011900082E0892B8093F80191E0481301C090E030
:1011A000C62DC92B0E94A0098C2FDF91CF911F91D2
:1011B0000F91FF90EF90DF90CF90BF90AF909F90F6
:1011C0008F907F906F905F90089587988F98579831
:1011D0005F98089508950895811106C0662311F05F
:1011E00085E109C084E107C0813039F4662311F03C
:1011F00088E101C087E10C94761A089581E0089592
:101200009C013A9521153F4138F5DC01AA27B270BF
:10121000AC01442754709C012227387094FF0FC002
:1012200090FF02C080E101C080E0AB2B09F080623A
:10123000452B09F08064232B69F080680BC0892F4F
:101240008170AB2B09F08260452B09F08460232B61
:1012500009F08860FB0109940895CF93DF93EC01B6
:10126000805E9109089710F0209719F469E87AE1F7
:1012700002C066ED7CE1CE010E9400098C2FDF9157
:10128000CF910C948219CF93DF93EC010E94171A2F
:10129000CE01805E9109089710F0209719F460E95B
:1012A0007AE102C06DED7CE1CE01DF91CF910C942B
:1012B000000981E008950C94FE081F93CF93DF93FB
:1012C00000D000D01F92CDB7DEB749835A836B831D
:1012D0002091260289819A81211112C0662349F04A
:1012E0000E945A22182F682F89819A810E94052214
:1012F00003C00E942F22182F69817A81812F04C098
:101300000E945A2269817A810F900F900F900F905E
:101310000F90DF91CF911F910C94390AFC0140810D
:1013200051816281738184810C945D090E949423B0
:10133000811102C00E9434240E94DC140C94E50840
:101340000E9452140E9440150C94EA0808950C94CF
:10135000A60981E008950C94A909CF93C82F0E9493
:10136000A7098C2F0E94AB09CF91089508950E9480
:10137000FA1C0E94B6092FEF84E39CE021508040C4
:101380009040E1F700C0000087E797E790930108DD
:10139000809300080C9484250F931F93CF93DF93C1
:1013A000EC010E948E098C01BE010E94AF13BE01A8
:1013B000C8010E945B09882309F450C0BE01C8011E
:1013C0000E94F613882309F449C0BE01C8010E9497
:1013D0004916882309F442C0BE01C8010E948A163A
:1013E0008823E1F1BE01C8010E94B5178823B1F13D
:1013F000BE01C8010E94B512882381F18A81882329
:1014000031F101308CE5180751F00E3D8CE51807DD
:10141000D9F001151C45D9F40E94B7091FC080916D
:101420008302C82FC095C170C0FB80F980938302EE
:10143000CC2329F086E891E00E942F070FC084E7B3
:1014400091E00E942F070BC00E94342407C0CE01F8
:10145000DF91CF911F910F910C945909C0E08C2F0F
:10146000DF91CF911F910F91089580E090E0089552
:101470000895E72FF0E095E0899FE00DF11D11241C
:10148000EE0FFF1FEE0FFF1FE60FF11DEE0FFF1F08
:10149000EC5DFE4F859194910895880F991FFC0192
:1014A000E956FE4F859194910895CF93DF930E9462
:1014B000390A0E94670BEC018115904508F043C082
:1014C000C11580E4D80708F0CBC0C03ED10528F58F
:1014D000C03CD10508F0B3C0C83AD10578F4C53A8C
:1014E000D10508F0A4C0C130D10509F4ECC008F45E
:1014F000E8C0C430D10508F0E6C0E3C0CF3BD10559
:1015000008F0DFC0C85AD0E0CC0FDD1FCD5ADE4F47
:101510000990D881C02DD464D6C0C11590E2D907F6
:1015200050F4C11521E0D20708F0CDC0C83ED10566
:1015300008F4C9C0C6C0C11580E3D80708F086C04A
:10154000CE019F707FC0C11595E5D90708F043C053
:10155000C11524E5D20708F09AC0C11582E5D80765
:1015600008F5C11591E5D90708F07DC0CE0174E0FA
:10157000969587957A95E1F783709C2F937021E07B
:1015800030E002C0220F331F9A95E2F73C68382BF7
:10159000CF70C695C69580E2C89FE0011124C22B8A
:1015A000D32B91C09E01237033278C2F869586956F
:1015B000C115D34508F05CC0C1E0D0E002C0CC0F3B
:1015C000DD1F2A95E2F720E2829FC0011124C82B7B
:1015D000D92BDC6878C0C11529E5D207A0F4C11564
:1015E00088E5D80708F058C0C11596E5D90708F076
:1015F00068C08C2F0E94FB0B8F71C82FD0E0DC2FAE
:10160000CC27D06260C0C1152AE5D20708F449C0D2
:10161000CE0190568115904208F053C08D2F8F71E6
:101620000E94FB0BDD27D0628F71D82B4CC0C55AAE
:10163000D0E0CF57DE4FC881D0E0D06444C0CE01A7
:10164000805C91090E944D0AEC013DC0CE019927B2
:10165000D3FF03C0EC01D86C36C0EC01D06C33C0B2
:10166000DF70D06A30C0DC2FCC27C16FD06A2BC0AE
:10167000C1E0D0E002C0CC0FDD1F2A95E2F720E2E6
:10168000829FC0011124C82BD92BDA681CC0DC2F23
:10169000CC27C46FD06A17C0DC2FCC27C06FD06AAC
:1016A00012C08C2F8F700E94FB0B94E0D695C795CB
:1016B0009A95E1F7CF70D0E0DC2FCC27D069C82B0A
:1016C00002C0C0E0D0E0CE01DF91CF910895823812
:1016D000910569F1B0F48133910509F46DC048F4C6
:1016E0008932910509F463C08A32910509F469C011
:1016F00008958533910509F455C089339105B9F0F2
:101700000895833E910569F138F4803E9105B1F06A
:10171000823E910509F10895863E9105A9F1873E23
:101720009105B9F1843E910509F064C023C0209170
:10173000C00220FD4FC021FD4DC008958091C00220
:1017400080FD44C08091C10280FF44C08091C002EE
:1017500084FD42C083EE4DC08091C00282FF38C03C
:10176000F5CF8091C00282FD33C08091C10280FD1F
:1017700031C0ECCF8091C10281FF32C08091C002A4
:1017800084FD2AC087EE35C08091C00283FF26C049
:10179000F5CF8091C00283FD21C08091C10281FDFF
:1017A0001FC0ECCF8091C00285FD1CC01DC0809180
:1017B000C00285FD19C016C08091C00286FD16C00A
:1017C00017C08091C00286FD13C010C089E311C00C
:1017D00082EE0FC080EE0DC080E00BC086EE09C027
:1017E00084EE07C089E205C085E303C08AE201C038
:1017F00081E390E008959091C00292FF0DC0282FE0
:101800002871283019F4877F846006C0282F24713E
:10181000243011F48B7F886093FF0DC0282F28712E
:10182000283119F4877E846106C0282F2471243161
:1018300011F48B7E88612091C10220FF0DC0382FEA
:101840003871383019F4877F816006C0382F3171C4
:10185000313011F48E7F886021FF0DC0282F287150
:10186000283119F4877E816106C0282F217121312A
:1018700011F48E7E886194FD877E08950895FF920D
:101880000F931F93CF93DF938C01F62ED72FC42F86
:10189000222349F081E0809300020E941C2590934E
:1018A000FF018093FE01809100028823C1F08091A6
:1018B000FE019091FF010E943425459780F0EF2DA5
:1018C000FD2FD8014C2F50E0CD01801B910B8417C8
:1018D00095071CF48D918193F7CF10920002DF9150
:1018E000CF911F910F91FF900895EF92FF920F9368
:1018F0001F93CF93DF93F62E472FE82FF0E071115F
:1019000006C0EF52FA4F6491762F862F72C0272FB0
:1019100030E0EF52FA4FE4910E2F10E056E0659F51
:10192000C0011124CFEFD0E0BE010E9441305BEA3C
:101930005603C001579F900D11248F0D911D8F0DDF
:10194000911D982F990F890F7E01E21AF30AE09EEC
:10195000D001E19EB00DF09EB00D1124489FA00172
:101960001124452F55277E01E41AF50AE09EA001B7
:10197000E19E500DF09E500D11247E01E81AF108F1
:10198000E29EC001E39E900DF29E900D1124892FDE
:101990009927C81BD90BC09FC001C19F900DD09F34
:1019A000900D11246230710591F048F461157105B4
:1019B000E1F061307105A9F48B2F752F19C06430E7
:1019C000710561F038F06630710579F00AC0892F31
:1019D0007B2F0EC08E2F7B2FE52F0AC08E2F792FE5
:1019E00002C0852F7E2FEB2F03C08B2F7E2FE92F78
:1019F0006E2FDF91CF911F910F91FF90EF9008957F
:101A00000895CF93DF93762FE901682F842F0E94EA
:101A1000750C798368838A83DF91CF9108958091D3
:101A20009602282F269530E02115310519F4817092
:101A3000826005C02831310524F081708E62809368
:101A40009602089588E090E00C948430CF92DF9263
:101A5000EF92FF926B017C010E940F0DB701A6016E
:101A600088E090E0FF90EF90DF90CF900C94A23050
:101A7000E6E9F2E083E0808311828FEF8283838343
:101A8000148260817181828193810C94260D8091F2
:101A9000830280FF08C088EA94E09F938F930E949E
:101AA000C8070F900F908091830280FF0FC0809134
:101AB000960281701F928F938BE894E09F938F938F
:101AC0000E94C8070F900F900F900F908091830293
:101AD00080FF0FC08091960286951F928F9380E7BA
:101AE00094E09F938F930E94C8070F900F900F90E0
:101AF0000F908091830280FF0EC0809197021F9209
:101B00008F9386E594E09F938F930E94C8070F9070
:101B10000F900F900F908091830280FF0EC08091F4
:101B200098021F928F938CE394E09F938F930E946F
:101B3000C8070F900F900F900F908091830280FF45
:101B40000EC0809199021F928F9382E294E09F933E
:101B50008F930E94C8070F900F900F900F90809165
:101B6000830280FF0EC080919A021F928F9386E0BD
:101B700094E09F938F930E94C8070F900F900F904F
:101B80000F9008958091960280FF02C08695089577
:101B900080E0089580919A02833018F48F5F8093DB
:101BA0009A026091960270919702809198029091AA
:101BB00099020C94260D80919A02882319F0815085
:101BC00080939A0260919602709197028091980298
:101BD000909199020C94260D60913A0170E08091E9
:101BE000960280FF0AC08091040223E0829FC00118
:101BF000112485569D4F0C94D71480910302909127
:101C00003901891780F7E82FF0E09F01220F331F79
:101C1000E20FF31FE556FD4F1182108212828F5F93
:101C2000F0CF9091960290FF16C090910302209100
:101C30003901921770F4E92FF0E0DF01AA0FBB1F02
:101C4000EA0FFB1FE556FD4F8183608342839F5F50
:101C5000F0CF0C94EC0D0895CF93DF9300D01F923A
:101C6000CDB7DEB79091960290FF0AC09E012F5F1C
:101C70003F4F0E94010D4B8169818A810E94110EA4
:101C80000F900F900F90DF91CF910895CF93DF9336
:101C9000EC01EC81F0E0EF52FB4F4491E6E9F2E019
:101CA000628181810E942C0E8C818F5F8C83DF91F9
:101CB000CF910895CF93DF93EC01E6E9F2E0438101
:101CC00062818C810E942C0E8C818F5F8C83DF91CE
:101CD000CF910895EF92FF920F931F93CF93DF93CD
:101CE00000D01F92CDB7DEB7182FF62E042FE22EAC
:101CF0008091960280FF5DC0E82FE695F0E0EC57FA
:101D0000FE4F908190930C028E7F823061F49E0191
:101D10002F5F3F4F812F0E94010D4B8169818A8186
:101D20000E94110E0CC0923019F40091990207C064
:101D3000963019F41091970202C09930D9F310939C
:101D40009702F092980200939902EE20E9F06091D8
:101D500096027091970280919802909199020E9448
:101D6000260D8091830280FF24C0809199021F92EA
:101D70008F93809198021F928F93809197021F9268
:101D80008F9380EF91E00CC08091830280FF11C09F
:101D90001F920F931F92FF921F921F9389EC91E065
:101DA0009F938F930E94C8070FB6F894DEBF0FBEB3
:101DB000CDBF0F900F900F90DF91CF911F910F919A
:101DC000FF90EF900895E6E9F2E09181282F43819A
:101DD000628188E0890F0C946A0E81E00C94E30E16
:101DE000E6E9F2E09181282F4381628188EF890F33
:101DF0000C946A0E81E00C94F00EE6E9F2E0628148
:101E000028E0620F08F46FEF282F438181810C9442
:101E10006A0E81E00C94FD0EE6E9F2E0628128E0B2
:101E2000621B08F460E0282F438181810C946A0EC4
:101E300081E00C940C0FE6E9F2E0438128E0420FC8
:101E400008F44FEF282F628181810C946A0E81E0A3
:101E50000C941B0FE6E9F2E0438128E0421B08F4F2
:101E600040E0282F628181810C946A0E81E00C94FD
:101E70002A0F20E00C946A0EFF920F931F93CF93CA
:101E8000DF93EC01F12C0FEF10E060913801F616B2
:101E9000F0F4809103022F2D30E0280F311DC9018D
:101EA000880F991F280F391F25563D4F70E0C80134
:101EB0000E945530962F8C81409199026091980232
:101EC000F99E800D11240E94010DF394DECF0E9433
:101ED000EC0D9A818C8190FF02C08F5F01C0815010
:101EE0008C83DF91CF911F910F91FF900895AF9256
:101EF000BF92CF92DF92EF92FF920F931F93CF93F7
:101F0000DF93FC01828180FF02C00FEF01C001E07E
:101F100010E04BE0A42E80913801181708F043C060
:101F200080910302C12ED12CE601C80FD11DCE0134
:101F3000880F991FC80FD91FC556DD4F1982188207
:101F40001A8234E0E32EF12CB12C809102028B0D29
:101F50008C302CF06A2D0E943330892F05C087FF0A
:101F600003C090913801890F082E000C990BC816F8
:101F7000D90691F4809199028E9DA0018F9D500DFC
:101F8000112455954795559547959E016091980266
:101F9000809197020E94010DB00EF1E0EF1AF10856
:101FA000A1F61F5FB8CF0E94EC0D809102020130B4
:101FB00031F4811102C080913801815007C090E056
:101FC00001966091380170E00E94553080930202C2
:101FD000DF91CF911F910F91FF90EF90DF90CF9005
:101FE000BF90AF900895CF938091030290913901F3
:101FF000891770F4E82FF0E09F01220F331FE20FE2
:10200000F31FE556FD4F1182108212828F5FF0CFD1
:10201000C0E060913801C617C0F5EC2FF0E070E029
:10202000CF010E94553020910302820F20910102BE
:10203000022E000C330B90E0E217F307CCF0209156
:102040003701022E000C330B2E173F078CF09C013A
:10205000220F331F820F931F9C0125563D4F409145
:10206000990260919802809197020E94010D0BC025
:10207000FC01EE0FFF1F8E0F9F1FFC01E556FD4F69
:10208000118210821282CF5FC4CF0E94EC0D20918A
:10209000360180910102820F8093010290913701F5
:1020A000920F9093370119165CF4082E000C990BCF
:1020B0004091380150E041505109841795071CF0B8
:1020C000219520933601CF910895609196026695EF
:1020D00070E041E050E08BE391E00E946F30892B8B
:1020E00019F481E080930D020E941C259093060252
:1020F000809305028091830280FF08C080EB91E00D
:102100009F938F930E94C8070F900F90089510928D
:102110000D028091830280FF08C087E991E09F93C0
:102120008F930E94C8070F900F9008959091960288
:1021300090FF54C09170811102C0926006C0883136
:1021400010F09E6202C0880F982B9093960266232F
:10215000B1F06091960270919702809198029091EF
:1021600099020E94260D8091830280FF1BC08091FE
:10217000960286951F928F938CE493E00BC080911A
:10218000830280FF0FC08091960286951F928F93E5
:102190008EE293E09F938F930E94C8070F900F9059
:1021A0000F900F9060919602669570E041E050E0CC
:1021B0008BE391E00E946F30892B19F00E94871009
:1021C00002C00E94651081E080930802409199024C
:1021D00060919802809197020C94390F0895682FAE
:1021E00090919602969581E0890F883108F081E000
:1021F0000C94961081E00C94EF10682F9091960249
:1022000096958FEF890F09F487E10C94961081E081
:102210000C94FD1061E00C94961080919602816000
:10222000809396028091830280FF0DC01F9281E00F
:102230008F9380EC92E09F938F930E94C8070F903A
:102240000F900F900F908091960286950C940A1132
:1022500060E00C94961080910B02811160C0809117
:10226000830280FF08C08FEE93E09F938F930E94BC
:10227000C8070F900F908091830280FF08C089EDFE
:1022800093E09F938F930E94C8070F900F900E9436
:102290009423811110C08091830280FF08C081EBDC
:1022A00093E09F938F930E94C8070F900F900E9416
:1022B00034240E94380D0E94220D60939602709380
:1022C000970280939802909399026E7FC1F4809157
:1022D000830280FF08C088E693E09F938F930E945B
:1022E000C8070F900F900E94380D0E94220D609336
:1022F00096027093970280939802909399020E949D
:102300000F0D0E94470D10920D028091960280FFE2
:1023100003C086950E94281181E080930B020895E6
:10232000809196028160809396028091830280FF63
:102330000DC01F9281E08F9387E892E09F938F9367
:102340000E94C8070F900F900F900F9080919602F7
:1023500086950C942811809196028E7F8093960228
:1023600060919602709197028091980290919902E3
:102370000E94260D8091830280FF0FC080919602FB
:1023800081701F928F938FE492E09F938F930E94AE
:10239000C8070F900F900F900F900E9487102FEF9B
:1023A00080E792E0215080409040E1F700C00000BB
:1023B0000C94EC0D8091830280FF10C080919602F6
:1023C000809581701F928F9387EF92E09F938F93F8
:1023D0000E94C8070F900F900F900F908091960267
:1023E00080FD0C94AB110C940D11809196028E7FA0
:1023F000809396028091830280FF0CC01F921F92EF
:1024000085E192E09F938F930E94C8070F900F90F1
:102410000F900F900E9487102FEF80E792E02150DD
:1024200080409040E1F700C000000C94EC0D0F9349
:102430001F93CF93DF9380910D02882309F475C019
:1024400080910C02E0919602E695E81BE09307026A
:10245000823049F4F0E0E353FB4FE491CE2FD0E01B
:1024600006E41EE032C0863049F4F0E0E653FB4F4C
:10247000E491CE2FD0E00AE51EE027C0893051F468
:10248000E695F0E0E953FB4FE491CE2FD0E00CE36A
:102490001FE01BC08F3051F4E695F0E0EC53FB4F8A
:1024A000E491CE2FD0E007E71FE00FC0853149F45B
:1024B000F0E0EF53FB4FE491CE2FD0E003EF1FE0AD
:1024C00004C0C0EDD7E000E01DE080910802882341
:1024D00089F0109208020E941C259E0120953095DB
:1024E000820F931F909306028093050210920A02B6
:1024F0001092090280910502909106020E943425F3
:102500008C179D0790F0E0910502F0910602CE0F26
:10251000DF1FD0930602C093050285E092E0F80128
:10252000DF91CF911F910F910994DF91CF911F916E
:102530000F910895882311F0FA0101C0FB0109945D
:10254000CF93DF93C82FD62F0E94C20D8C1740F077
:102550000E94C20D8D1720F4DF91CF910C94FA10D8
:102560008C2FDF91CF910C940A110F931F93CF936F
:10257000FB01C281CC2309F45BC08C010E94DB22E9
:102580008272F801E25CFC45E431F10508F053C0C9
:10259000EA5AFF4F0C9469300E94DA114BC047E0B1
:1025A00051E16AEF70E104C04AEF50E167E071E188
:1025B0000E949A123FC04AEF5EE06DEE7EE0F8CFD7
:1025C0004DEE5EE06AEF7EE0F3CF48E15FE069E068
:1025D0007FE0EECF49E05FE068E17FE0E9CF46E3EE
:1025E0005FE067E27FE0E4CF47E25FE066E37FE041
:1025F000DFCF4BED5DE06AEC7DE0DACF4AEC5DE0E9
:102600006BED7DE0D5CF81E00E940A1113C065E03B
:1026100082E00BC068E086E008C06EE089E005C09B
:1026200064E18FE002C067E185E10E94A01202C070
:10263000C1E001C0C0E08C2FCF911F910F91089590
:10264000CF93DF93EC0181E0898B8F810E94DE22A2
:1026500088850E94F1220E942C23EA81FB81CE0111
:102660000696309729F06C897D89DF91CF91099486
:10267000DF91CF910895CF93DF93FC012081223029
:1026800039F4FB01EC0182810E94522181E08B87A9
:10269000DF91CF910895DB01FC018081813021F42D
:1026A0008D919C910C942D09823039F41396ED9103
:1026B000FC91149712968C9109940895FC018081E5
:1026C000813029F4FB01808191810C9443090895A4
:1026D000EF92FF920F931F93CF93DF93FC0122851C
:1026E000211136C0EC01E380F480F7E5FF1A26E102
:1026F0002E9DC0012F9D900D1124DC01A050BF4FD5
:102700001496ED91FC9115978A5F9E4F309729F0B2
:1027100054966D917C915597099586E18E9D800127
:102720008F9D100D112400501F4FF80187810E94CA
:10273000E422F80180850E94F7220E942C2318824F
:1027400019861B861E821D8210920F0210920E02A5
:10275000DF91CF911F910F91FF90EF900895DF923D
:10276000EF92FF920F931F93CF93DF93FB01228190
:102770002223A1F120913C012F3F81F18C01C0E087
:10278000D1E0E12CF12CDD24D39480913C01082E82
:10279000000C990B8E159F050CF18E818823C9F0D2
:1027A00089859A858017910739F480910E0290915E
:1027B0000F020817190769F0DF861C870B878989C4
:1027C000811103C0CE010E942013CE0106960E9403
:1027D0006813FFEFEF1AFF0A6696D7CFDF91CF910C
:1027E0001F910F91FF90EF90DF900895EF92FF926D
:1027F0000F931F93CF93DF939C0137552F3F3105E4
:1028000011F008F047C040913C01042E000C550B1C
:102810004217530714F420933C01FB017C01828191
:1028200096E1929F8001939F100D1124E801C05002
:10283000DF4F888B92818E81992311F1FA86E98688
:102840008F5F8E830E941C259E878D870E94112397
:102850008F830E94DB2288870E94EE229885892B35
:102860008887E881F981C8018A5F9E4F309719F007
:102870006C897D890995F0920F02E0920E020AC0E0
:10288000882341F08989882329F0C8018A5F9E4FF7
:102890000E94681381E0DF91CF911F910F91FF900B
:1028A000EF900895CF92DF92EF92FF920F931F93D4
:1028B000CF93DF9380913C018F3FF1F1F12C96E1B2
:1028C000E92E0F2D10E080913C01082E000C990B91
:1028D000801791078CF1E09EF001E19EF00D11242C
:1028E000E050FF4FC288D388C114D10419F488EC9A
:1028F000C82ED12CE09EE001E19ED00D1124C050E5
:10290000DF4F8E818823B1F08D859E850E9434250E
:10291000C816D90678F48989811103C0CE010E94B6
:102920002013E09EC001E19E900D11248A5F9E4F0E
:102930000E946813F394C5CFDF91CF911F910F913F
:10294000FF90EF90DF90CF9008952BB1342F30950A
:1029500023233BB1432B3FB7F894FC01680F791F49
:10296000E617F70789F0819198E04BB9000000C0A5
:1029700087FF2BB9880F000000C000C000C02BB932
:1029800000C09A9591F7ECCF3FBF08952AB1242B50
:102990002AB99B01220F331F620F731F0E94A514D7
:1029A00087EC90E00197F1F700C00000089542E045
:1029B0000C94C6140C94EC08FF920F931F93CF93C2
:1029C000DF93C4E1D2E04EEA51E02CEA31E061E06D
:1029D00070E0F2E0C631DF0709F44CC0FA01019162
:1029E000AF01A02FA295AF70B0E09196EC919197B6
:1029F0000F70CB01002E01C0880F0A94EAF7982FC0
:102A000090959E2391969C93919792969C919297E4
:102A1000892B92968C939297F90111919F01E12F46
:102A2000E295EF70F0E0F1A01F70CB01012E01C024
:102A3000880F0A94EAF7982F90959F2191A392A16D
:102A4000892B82A390968C9190E002C095958795F2
:102A50000A95E2F78170E0A1F0E002C0F595E795F4
:102A60001A95E2F7E0FD02C090E001C092E0892BE8
:102A70008993AFCFDF91CF911F910F91FF90089570
:102A80005F926F927F928F929F92AF92BF92CF92FE
:102A9000DF92EF92FF920F931F93CF93DF9384E126
:102AA000682E82E0782E9EEAE92E91E0F92E0CEA5B
:102AB00011E022E1822E22E0922EC0E1D2E06301F9
:102AC0005301512CD501ED915D014E2F440F440F60
:102AD000F60141936F01D7012D917D01E22FE2951F
:102AE000EF70F0E080A190E02F7002C0959587957F
:102AF0002A95E2F781709927F80151918F01E52F0E
:102B0000E295EF70F0E020A130E05F7002C03595F3
:102B100027955A95E2F7F901E170FF2720FF02C0DF
:102B2000E2E0F0E0E82BF92BE42BD301ED933D013B
:102B3000EF70F0E0E456FE4F9081F4018081890F40
:102B4000808384303CF088818F5F888361E0852DAD
:102B50000E94DA14D4018C918D3F3CF4888181501D
:102B6000888360E0852D0E94DA14F40180818378E7
:102B700087FF03C081508C6F8F5FD4018D934D010F
:102B800053942196B2E05B129DCFDF91CF911F91BC
:102B90000F91FF90EF90DF90CF90BF90AF909F90FC
:102BA0008F907F906F905F9008950F931F93CF93B6
:102BB000DF93C62FD42F122FFC0182818823C9F006
:102BC000609318020E941C259093170280931602AE
:102BD00080E28C0F883008F057C0C77081E001C0D8
:102BE000880FCA95EAF7DF91CF911F910F910C944E
:102BF000891A80911802681330C080911602909152
:102C000017020E943425883C910538F500E20D0F2B
:102C1000CD17B9F080E28C0F883040F4C77081E0A6
:102C200001C0880FCA95EAF70E94901A083028F56B
:102C300081E09D2F977001C0880F9A95EAF70E9456
:102C4000891A812F0E94761A0830F0F4D77081E03B
:102C500001C0880FDA95EAF70AC080E28C0F88304D
:102C600098F4C77081E001C0880FCA95EAF7DF9138
:102C7000CF911F910F910C94901A812FDF91CF91DA
:102C80001F910F910C94761ADF91CF911F910F91A4
:102C900008959C01CB01233F4CE53407F9F078F40B
:102CA000283DFCE53F07B9F0293D4CE5340711F11B
:102CB000273D3C4531F526E241EE61EE1EC0253F41
:102CC000FCE53F0799F070F0263F3C45D1F427E240
:102CD00045EE66EE12C027E245EE0EC026E241EE5A
:102CE00060EE0BC027E245EE64EE07C026E241EE3F
:102CF00062EE03C028E241E065EE0E94D51580E057
:102D00000895FC018281882319F010921802089519
:102D100081E00895CF93DF93EC01FB01828188234A
:102D200009F41FC1C230FCE5DF0708F41BC1C6313E
:102D30009CE5D90738F09E012A5F3C4529303105D2
:102D400008F010C10E94A7239093C1028093C00293
:102D5000C031ECE5DE0709F4C3C008F041C0C8305B
:102D60008CE5D80709F49AC0F0F4C430ECE5DE072E
:102D700009F487C068F4C2308CE5D80709F477C03D
:102D8000C330DC4509F0E3C08091C002826076C0A8
:102D9000C630ECE5DE0709F46EC008F07BC0809118
:102DA000C00288606BC0CC308CE5D80709F485C0C0
:102DB00068F4CA30ECE5DE0709F474C008F079C0A5
:102DC0000E94FA1C8091C002806858C0CE308CE509
:102DD000D80709F476C008F07FC08091C0028BC08C
:102DE000CB3FECE5DE0709F44FC018F5C3318CE5A5
:102DF000D80709F47DC078F4C131ECE5DE0709F4A9
:102E000073C0C231DC4509F0A2C00E94FA1C809157
:102E1000C0028F7733C0C5318CE5D80709F472C082
:102E200008F486C0CA3FDC4509F091C08091C10218
:102E30003EC0CF3FFCE5DF0709F45FC058F4CD3F4B
:102E40009CE5D90709F444C008F43FC08091C10251
:102E500082602DC0C130FDE5DF0709F475C008F4BC
:102E60005DC0C230DD4509F072C080E06EC0809167
:102E7000C002816003C08091C00280618093C00263
:102E800066C08091C00211C08091C10282608093AF
:102E9000C1025DC08091C0028062F0CF8091C0020B
:102EA0008064ECCF8091C00288608460E7CF81604D
:102EB000EECF8091C0028E7FE1CF8091C0028D7FE6
:102EC000DDCF8091C002877FD9CF8091C10218C029
:102ED0008091C1028D7FDBCF8091C0028F7ECECFEB
:102EE0008091C0028F7DCACF8091C0028F7BC6CFF8
:102EF0008091C002877F8B7FC1CF8091C1028D7F7F
:102F00008E7FC5CF8091C00282FB222720F991E0FD
:102F1000922790FB82F990FB83F9B0CF8091C10298
:102F2000982F909591708E7F892B90FB81F9AFCF70
:102F30000E94FA1C8091C00287FB222720F991E0B1
:102F4000922790FB87F99ACF81E00E9436248091E6
:102F5000C0029091C1020E94B8230E94FA1C80E036
:102F600001C081E0DF91CF910895CF93DF93863147
:102F70009C4541F5EB010E94DB22982F8A8120912C
:102F80003D0130913E01882379F09A7A81E009F47D
:102F900080E080931902911102C069E201C065E3EB
:102FA000C9010E946E240AC080911902811102C0D9
:102FB00069E201C065E3C9010E9470240E942C23CC
:102FC00080E001C081E0DF91CF91089590931F02CE
:102FD00080931E020895E0911E02F0911F02309727
:102FE00021F00190F081E02D099480E00895EF92A6
:102FF000FF920F931F93CF93DF93E0911E02F09106
:103000001F023097B1F18C010280F381E02D099508
:103010008091830282FF2DC080FF04C089ED96E07D
:103020000E942F07E80118E083EDE82E86E0F82ED5
:103030008091830280FF0BC088811F928F93FF9243
:10304000EF920E94C8070F900F900F900F901150B1
:1030500021961111EDCF8091830280FF0AC081ED8E
:1030600096E0DF91CF911F910F91FF90EF900C941C
:103070002F07DF91CF911F910F91FF90EF9008954F
:1030800020911C0230911D022817390771F090938E
:103090001D0280931C02E0911E02F0911F023097E6
:1030A00021F00680F781E02D0994089520911A02FD
:1030B00030911B022817390771F090931B028093FF
:1030C0001A02E0911E02F0911F02309721F0008455
:1030D000F185E02D0994089585B7806885BF85B78F
:1030E000806885BF089508950C9473180C94741823
:1030F0000C9473180C9473180E946C180E94781822
:103100000C94761881E008950E9413250E94D70739
:103110000E9495250E942B110C947A18CF93C82FEA
:103120008091830282FF1EC080FF04C082EF96E080
:103130000E942F078091830280FF0CC01F92CF93C3
:103140008DEE96E09F938F930E94C8070F900F908B
:103150000F900F908091830280FF04C08BEE96E069
:103160000E942F078C2FCF910C94AD09AF92BF9284
:10317000CF92DF92EF92FF920F931F93CF93DF9343
:10318000CDB7DEB72A970FB6F894DEBF0FBECDBF1E
:103190000E9427080E948218811111C08FEF898335
:1031A0008A831B820E941C258160782F9D838C83DB
:1031B00049815A816B818D810E944E1940C081E204
:1031C000A82E82E0B82E00E010E0C02E802F0E94D2
:1031D000D107E82EF501D1905F01D82631F40F5FB9
:1031E0001F4F0530110589F7D9CF8091830281FDEA
:1031F0000E94EB0880E0FF24F3949D2D9F21D1F0E5
:103200008E83CF82EF2081E009F480E088870E94DE
:103210001C258160782F9A8789874E815F81688518
:103220008A850E944E19F801EF5DFD4F8081F826D6
:10323000F08205C08F5FFF0C8430F9F6D0CF0E947A
:1032400017120E94EB17909120028917B1F00E948B
:10325000EB17809320022A960FB6F894DEBF0FBEBC
:10326000CDBFDF91CF911F910F91FF90EF90DF9035
:10327000CF90BF90AF900C948E182A960FB6F8940A
:10328000DEBF0FBECDBFDF91CF911F910F91FF9099
:10329000EF90DF90CF90BF90AF900895CF93DF93E2
:1032A000CDB7DEB72B970FB6F894DEBF0FBECDBFFC
:1032B0004F83588769877A878B87DE01119686E06E
:1032C000FD0111928A95E9F785E0FE01379601909C
:1032D0000D928A95E1F749815A816B817C818D81BC
:1032E0009E810E94CA1F2B960FB6F894DEBF0FBEB8
:1032F000CDBFDF91CF910895FC01808191810E9423
:103300009C220895CF93882309F48FC0C82F823858
:10331000C1F40E94EB1781FD88C069E380913D01F3
:1033200090913E010E946E240E942C232FEF81EE8B
:1033300094E0215080409040E1F700C0000069E334
:1033400019C0833801F50E94EB1780FD6EC063E55C
:1033500080913D0190913E010E946E240E942C2399
:103360002FEF81EE94E0215080409040E1F700C0C3
:10337000000063E580913D0190913E010E94702420
:10338000CF910C942C238438C1F40E94EB1782FD5A
:103390004CC067E480913D0190913E010E946E24F3
:1033A0000E942C232FEF81EE94E02150804090402A
:1033B000E1F700C0000067E4DDCF8CEF8C0F813AAD
:1033C00068F48C2F0E945A2881112FC06C2F809195
:1033D0003D0190913E010E946E24D2CF80E28C0F7D
:1033E000883048F4C77081E001C0880FCA95EAF7B9
:1033F0000E94DE22C5CFEBE5EC0FE33040F4F0E0B5
:10340000E252FE4F808190E0CF910C944018C85A50
:10341000C73158F4EC2FF0E0EE0FFF1FE055FE4FE0
:1034200080819181CF910C945618CF910895882373
:1034300009F45BC0682F823879F40E94EB1781FF92
:1034400054C069E380913D0190913E010E946E2439
:103450000E942C2369E310C08338B1F40E94EB175B
:1034600080FF43C063E580913D0190913E010E9441
:103470006E240E942C2363E580913D0190913E01D2
:103480000E9470240C942C23843879F40E94EB174A
:1034900082FF2BC067E480913D0190913E010E9424
:1034A0006E240E942C2367E4E7CF8CEF860F813ACD
:1034B00018F380E2860F883048F4677081E001C01D
:1034C000880F6A95EAF70E94E422DCCF8BE5860F2D
:1034D000833020F480E090E00C944018685A673103
:1034E00020F480E090E00C9456180895CF93C82FF4
:1034F0000E948219C93349F42FEF87EE93E02150DF
:1035000080409040E1F700C000008C2FCF910C94D8
:10351000171A882321F00E94DE220C942C23089590
:10352000882321F00E94E4220C942C230895CF924A
:10353000DF92EF92FF920F931F93CF93DF937C0163
:10354000062FC72FFC01158112951F70D281D11152
:103550000E94FE220E94D422882379F0DD2369F0A4
:1035600080E2800F883048F082E00E9476230E943B
:10357000D42291E0D82ED92601C0D12CCC2EC294D1
:103580008FE0C8228C2D90E0FC01E659FF4F0C948F
:1035900069308C2F807FCF70882311F0C295C07F57
:1035A000DD2399F0CC2309F482C180E2800F8830BA
:1035B00010F0011104C08C2F0E94DE2203C08C2F5A
:1035C0000E94F1220E942C2372C1802F0E94171AA0
:1035D000CC2309F491C180E2800F883010F00111F2
:1035E00004C08C2F0E94E42203C08C2F0E94F7227B
:1035F0000E942C2381C18C2F807FCF70803211F0EC
:10360000C295C07F002319F00130C9F022C0DD232C
:1036100071F0112341F0113031F40E9411238C2BF1
:103620000E94192369C10E9411238C2B1DC01123F4
:1036300019F0113009F460C10E94222325C0DD2356
:1036400021F0163008F058C10EC0153008F054C1F2
:103650001BC0DD2361F0112331F0F701858180FF6C
:1036600026C18F7085838C2F0E94891A45C1112332
:1036700059F0093309F02CC1FFEF27EE83E0F15038
:1036800020408040E1F722C18C2F0E94901A34C163
:103690008C2F86958695837019F0813061F02CC14E
:1036A000DD2321F0802F9C2F937002C080E090E0FA
:1036B0000E94401829C1DD2321F0802F9C2F937098
:1036C00002C080E090E00E9456181EC18C2F8370CB
:1036D00009F045C0D11114C1402F4295469547705D
:1036E000440F440F602F6F70862F90E0A0E0B0E091
:1036F000042E04C0880F991FAA1FBB1F0A94D2F77B
:1037000004FF10C00FE010E020E030E004C0000F24
:10371000111F221F331F4A95D2F70095109520954F
:10372000309503C000E010E09801C695C695C370BF
:10373000BC01CD01602B712B822B932BC23049F041
:1037400058F4C13019F00E941B21DAC00E940921EF
:10375000D7C00E942D21D4C00E940721D1C0DD23F3
:1037600019F08C2F817001C08695882309F4C8C098
:10377000402F429546954770440F440F602F6F705D
:10378000862F90E0A0E0B0E0042E04C0880F991FBF
:10379000AA1FBB1F0A94D2F704FF10C00FE010E06D
:1037A00020E030E004C0000F111F221F331F4A9594
:1037B000D2F7009510952095309503C000E010E0F9
:1037C0009801C695C695C370BC01CD01602B712BC5
:1037D000822B932BC23049F058F4C13019F00E946B
:1037E000E0218EC00E94CE218BC00E94F22188C0B1
:1037F0000E94412185C0CF70DD2339F08C2F0E94BB
:103800006721802F0E94891A7BC0802F0E94901A06
:103810008C2F0E94882174C0023F01F128F4003FE0
:1038200041F0013FA1F03FC0033FF9F0043F39F1FF
:103830003AC0DD2341F0153008F05EC08C2F8F7147
:103840000E94AD2159C0163008F056C0F7CFDD23D5
:1038500039F08C2F8F710E9467214EC0DD23C9F390
:103860008C2F8F710E94882147C0DD2329F08C2F77
:103870008F710E94522140C00E944D213DC0DD2326
:1038800049F0CF718C2F0E94672163E08C2F0E943A
:10389000612332C081E00E947623123068F182E019
:1038A0000E94762329C0DD2331F0112391F2802F6D
:1038B0000E94821921C0112399F2093349F49FEF24
:1038C000E7EEF3E09150E040F040E1F700C0000087
:1038D000802F0E94171A10C04C2F4F70602FC70105
:1038E0000E94350A0E9478200FC04C2F4F70602F25
:1038F000C7010E94380A08C088EF8C0D843020F47C
:103900000E94EB170E94AD09DD20C9F00E94D02271
:1039100080FD15C0F70112820E94CA220E94672111
:10392000C7010E94A81C0E94CA22DF91CF911F915B
:103930000F91FF90EF90DF90CF900C948821DF9152
:10394000CF911F910F91FF90EF90DF90CF9008954E
:103950000F931F93CF93DF93EC01988189812B8183
:103960003C81232B31F08F3F31F481E09F3F19F4EC
:1039700003C081E001C080E080FD13C0CE010E9441
:10398000CC09882371F0688179818A810E94A722FD
:103990008C010E9404220E94F520B801CE010E94F1
:1039A000971ADF91CF911F910F910895882321F0ED
:1039B0000E94F1220C942C230895882321F00E9468
:1039C000F7220C942C2308950E94FE220E940E23BD
:1039D0000E942C2380E090E00E94401880E090E05C
:1039E0000C94561880913D0190913E010E947224E2
:1039F0000C94E41C0E94EB220C94F21CE92FE2953B
:103A0000EF704E2F50E0FA013297EE30F105B0F42E
:103A1000E658FF4F0C946930803F91F018F4883ECF
:103A200068F40EC0843F51F40BC0883E48F0813FDB
:103A300029F406C093FB882780F9089580E0089553
:103A400081E008950E949C220E94FE1C0895CF935D
:103A5000DF9300D000D01F92CDB7DEB70F900F904C
:103A60000F900F900F90DF91CF910895CF93DF9338
:103A700000D000D000D0CDB7DEB726960FB6F894B0
:103A8000DEBF0FBECDBFDF91CF9108951F93CF93BF
:103A9000DF93C091270216E080912802C81799F0A1
:103AA000D0E01C9FF0011D9FF00D1124E75DFD4F3C
:103AB0004081518162817381848195810E94361D8C
:103AC0002196C770E9CFDF91CF911F910895409162
:103AD000590250915A0260915B0270915C02809190
:103AE0005D0290915E020C94361DCF9380915E0230
:103AF00082958F7009F05FC080915B02882309F482
:103B00005AC080912702B091280270915902A09169
:103B10005A0240915C0250915D0291E07F3F09F0B2
:103B200090E0692FC6E08B1709F445C04115510597
:103B300021F0AF3F21F020E003C021E001C0262F9B
:103B400090E020FD35C0C89FF001C99FF00D112401
:103B5000E75DFD4F21812A132BC02081271328C048
:103B60002281211125C0238134812417350710F4C7
:103B700021503109241B350B283C3105C8F4209114
:103B80005E022F70206120935E0226E0289FF001E4
:103B9000299FF00D1124E25DFD4F80818F708061BF
:103BA000808389E592E00E94A81CCF910C94461D69
:103BB00001968770B8CFCF910895AF92BF92CF9200
:103BC000DF92EF92FF920F931F93CF93DF93CDB7C6
:103BD000DEB761970FB6F894DEBF0FBECDBF8C0184
:103BE00085E0F801DE011D9601900D928A95E1F7BE
:103BF000D8014C9111965C9111971296EC903091EE
:103C0000590260915A0280915C0290915D02009786
:103C100031F06F3F31F421E03F3F19F403C021E060
:103C200001C020E0B22FB170BB2E20FD60C1F801B1
:103C3000C380D480A0905B02AA2009F4EEC020913A
:103C40005E02C816D90628F0D601A81BB90BCD0113
:103C500004C0809590958C0D9D1DFF24F394883CA5
:103C6000910580F0F12C207F09F09CC07C2DD98A31
:103C7000C88A6E2D89890E94271D89E592E00E94DD
:103C8000A81C2DC1822F807F09F054C0561314C088
:103C9000431312C0FE2CE1100FC02F70206120933F
:103CA0005E020E94671D89E592E00E94A81C809137
:103CB0005E02F80185835CC1CD2831F05F3F31F4AD
:103CC00081E04F3F19F403C081E001C080E080FD36
:103CD00003C081E08E2502C080E090E0F82FF170F3
:103CE000FF2E80FF1CC0809127022091280236E021
:103CF000821709F41AC190E0389FF001399FF00D46
:103D00001124E75DFD4F6181561306C060814613A3
:103D100003C06281E61203C001968770E9CFFE2CD2
:103D2000EE2009F425C180915E02816080935E02DD
:103D3000F12C1EC1561309C0431307C0E11005C082
:103D400080915E02F8018583A4C04D875E878D85D2
:103D50009E850E94221D882379F1EE2069F1209131
:103D60005E02822F82958F7090E0029774F08091AE
:103D7000590290915A0298878F831986DB86CA86EA
:103D80002C87CE0107960E94A81C86E0F801A9E5C1
:103D9000B2E001900D928A95E1F70E94751D0E9494
:103DA000671D0DC0561771F04D875E878D859E8506
:103DB0000E94221D81111AC0C8010E94A81CFF2464
:103DC000F394D6C04313F0CFE110EECF80915E02A2
:103DD000F8018583C8010E94A81C86E0E9E5F2E0AD
:103DE000DF011D928A95E9F7FA2CC2C0EE2021F37B
:103DF00020915E02822F82958F7090E002972CF2C4
:103E00008091590290915A029A8389831B82DD82A4
:103E1000CC822E83CE010196B6CFC816D90628F0E3
:103E2000F601E81BF90BCF0104C0809590958C0D2D
:103E30009D1D883C910548F0F12C7C2DD98AC88ABB
:103E40006E2D89890E94271D4AC0FE2CEE2009F4A0
:103E5000B3CF561333C0431331C020915E0220FD0F
:103E600024C0822F82958F70482F50E04115510554
:103E7000E1F0D80115962C9315974F30510549F074
:103E80008F5F982F9295907F822F8F70892B159638
:103E90008C93C8010E94A81C86E0F801A9E5B2E055
:103EA00001900D928A95E1F73DC086E0F801A9E501
:103EB000B2E001900D928A95E1F75AC04D875E8776
:103EC0008D859E850E94221D81115FCF80915E02AB
:103ED000816080935E02C8010E94A81C49C0E9E588
:103EE000F2E086E0DF011D928A95E9F71BC0EE2023
:103EF00009F462CF4D875E878D859E850E94221DC5
:103F0000F82E882309F458CF86E0F801A9E5B2E03D
:103F100001900D928A95E1F789E592E00E947C1963
:103F20000E94751D0E94671D23C04D875E878D8589
:103F30009E850E949C22292F22952F70223028F4E2
:103F40009F7039F0811105C00BC0243028F49F7098
:103F500049F4805E883020F0C8010E94A81CBF2C64
:103F6000FB2C06C0D80115969C91907F91F7F8CF55
:103F70008F2D61960FB6F894DEBF0FBECDBFDF91D7
:103F8000CF911F910F91FF90EF90DF90CF90BF9056
:103F9000AF9008951F93CF93DF93CDB7DEB72C97E3
:103FA0000FB6F894DEBF0FBECDBF4F835887698729
:103FB0007A878B879C87CE0107960E94DD1D882318
:103FC000D1F09F8188852A853B85232B31F08F3F57
:103FD00031F481E09F3F19F403C081E001C080E02B
:103FE00080FD47C04F81588569857A858B859C8582
:103FF0000E94361D3EC086E0FE013796DE01119616
:1040000001900D928A95E1F7FF81E8856A857B85AD
:104010006115710531F0EF3F31F481E0FF3F19F494
:1040200003C081E001C080E080FD23C02091280210
:1040300030E0C9010196877099274091270250E02E
:1040400084179507F1F1F983EA837D836C8396E009
:10405000929FD001939FB00D1124A75DBD4FFE012B
:10406000319601900D929A95E1F7809328020E9473
:10407000461D16E08091270290912802891771F160
:10408000189FC0011124875D9D4F0E94DD1D88236C
:1040900029F1E09127021E9FF0011124E75DFD4FF9
:1040A0004081518162817381848195810E94361D96
:1040B0008091270290E001968770992780932702CC
:1040C000D9CF0E94FA1C1092280210922702E9E52B
:1040D000F2E086E0DF011D928A95E9F72C960FB693
:1040E000F894DEBF0FBECDBFDF91CF911F91089531
:1040F000EF92FF920F931F93CF93DF938C01892B45
:1041000009F46CC0F12CEE24E394E8012196F80147
:104110008491843740F4843008F051C0813081F0BC
:10412000823019F15BC0853709F444C0A8F19CE7DF
:10413000980F903708F052C08F770E94171A41C02D
:104140000E5F1F4FFE01849190E2980F983050F45B
:104150008770FE2D01C0FF0F8A95EAF78F2F0E940E
:10416000012314C00E9482192DC00E5F1F4FFE0153
:10417000849190E2980F983060F48770FE2D01C012
:10418000FF0F8A95EAF78F2F0E9407230E942C23A6
:1041900019C00E94171A16C00E5F1F4FFE01C4916E
:1041A000CC2381F08FE99FE00197F1F700C0000078
:1041B000C150F6CF0E5F1F4FFE01F49003C00E9466
:1041C00082198E018F2D882309F49FCFEFE9FFE03C
:1041D0003197F1F700C000008150F5CFDF91CF910A
:1041E0001F910F91FF90EF900895089508950C94FA
:1041F000F6200C94F7200E94F920609372027093CD
:10420000730280937402909375020C94E41C0C94D6
:10421000FB200F931F930091720210917302209163
:10422000740230917502602B712B822B932B1F919E
:104230000F910C94FB200F931F9300917202109129
:1042400073022091740230917502602371238223DE
:1042500093231F910F910C94FB200F931F930091B8
:1042600072021091730220917402309175026027DE
:104270007127822793271F910F910C94FB200C9498
:10428000F6200E943F2160936E0270936F0280932C
:104290007002909371020C94E41C60E070E0CB011A
:1042A0000C9441210F931F9341E050E060E070E0D7
:1042B0008A019B0104C0000F111F221F331F8A9522
:1042C000D2F7C901B8011F910F910C9441210F93AE
:1042D0001F9341E050E060E070E004C0440F551FC0
:1042E000661F771F8A95D2F780916E0290916F02B8
:1042F000A0917002B09171028A019B01082B192BC9
:104300002A2B3B2BC901B8011F910F910C9441211D
:104310000F931F9341E050E060E070E004C0440F51
:10432000551F661F771F8A95D2F740955095609567
:10433000709580916E0290916F02A0917002B09181
:1043400071028A019B01082319232A233B23C901F7
:10435000B8011F910F910C9441210F931F9341E0DD
:1043600050E060E070E004C0440F551F661F771FE7
:104370008A95D2F780916E0290916F02A09170029F
:10438000B09171028A019B01082719272A273B2730
:10439000C901B8011F910F910C9441210F931F93F4
:1043A00000916E0210916F022091700230917102A3
:1043B000602B712B822B932B1F910F910C94412119
:1043C0000F931F9300916E0210916F022091700263
:1043D0003091710260237123822393231F910F91E7
:1043E0000C9441210F931F9300916E0210916F0264
:1043F00020917002309171026027712782279327E4
:104400001F910F910C9441210895990F990F890FD5
:10441000E82FE695E695E695877051E001C0550FC7
:104420008A95EAF785E0E89FF0011124E15AFD4FF3
:1044300020E030E070E04081CB01022E02C0969572
:1044400087950A94E2F781708195842785238427D4
:1044500081932F5F3F4F2530310569F70895990FFC
:10446000990F890F682F669566956695982F9770B6
:1044700085E0689FB001112440E050E080E0FB013E
:10448000E40FF51FE15AFD4F208130E0092E02C0F4
:10449000369527950A94E2F721703327042E01C040
:1044A000220F0A94EAF7822B4F5F5F4F4530510588
:1044B00031F70895BF92CF92DF92EF92FF920F9360
:1044C0001F93CF93DF938C01C0906E02D0906F0248
:1044D000E0907002F09071028091720290917302EC
:1044E000A0917402B0917502C82AD92AEA2AFB2A3F
:1044F000CFE1D0E0D701C6010C2E04C0B695A79538
:10450000979587950A94D2F780FD04C0219790F77C
:10451000B12C07C0BC2EB8018C2F0E94550A019700
:10452000A9F38B2DDF91CF911F910F91FF90EF9009
:10453000DF90CF90BF900895CF93DF93EC010E945E
:104540005A22BE010E94550ADF91CF9108951F9310
:10455000CF93DF93EB0190912602992321F0CB01B9
:104560000E949C2213C0882349F0CB010E945A224A
:10457000182F682FCE010E94052204C0CB010E9493
:104580002F22182FBE01812F0E94550ADF91CF9153
:104590001F9108958091760285958595859508955A
:1045A000809176028770089590917602977081E0ED
:1045B00009F480E00895809182020895909182022A
:1045C000892B80938202089580959091820289239D
:1045D0008093820208951092820208958091810250
:1045E000089590918102892B80938102089580958E
:1045F0009091810289238093810208951092810213
:10460000089590918002892B80938002089580956F
:1046100090918002892380938002089510928002F5
:10462000089580917702089508950C9414230C94B2
:10463000152390917702981721F0809377020C94BC
:104640001723089580917702882329F0109277022A
:1046500080E00C9417230895E0913D01F0913E0114
:10466000809182028083E0913D01F0913E01908132
:1046700080918102892B8083E0913D01F0913E0180
:10468000908180918002892B80838091770288239A
:1046900081F0E0913D01F0913E019081892B808372
:1046A00080913D0190913E010E943B2481110E9426
:1046B000222380913D0190913E010C94F7170C94B8
:1046C000142398E0899F90011124262B20937602D1
:1046D0000E946721809176028595859585950C9439
:1046E0005F231092760280E00C945F232091760283
:1046F0008095822380937602982F977079F430E02A
:10470000482F082E000C550B2417350739F08595D6
:10471000859585950E9488210C9471230895909326
:10472000F1018093F001089580E090E00E948A30CA
:1047300021E08C3E9E4F09F020E0822F089582E018
:1047400090E00C947C3083E090E00C947C30CF932C
:1047500084E090E00E947C30C82F81E290E00E94CB
:104760007C302C2F30E0A901582BCA01CF9108953D
:10477000CF93C92F682F84E090E00E9490306C2F77
:1047800081E290E0CF910C949030AB01BC018FE0BE
:1047900090E00C94A230AB01BC0183E190E00C945A
:1047A000A23060E070E0CB010C94CB2360E070E0BD
:1047B000CB010E94C5230C94D1236CEE7EEF80E0E8
:1047C00090E00E94AE3060E082E090E00E94903085
:1047D00060E083E090E00E949030109272021092AC
:1047E0007302109274021092750260E084E090E00F
:1047F0000E94903060E081E290E00E94903060E0A2
:1048000085E090E00E94903060E086E090E00E94B9
:1048100090306FEF87E090E00E94903040E050E0F1
:10482000BA0188E090E00E94A23060E08DE090E064
:104830000E94903040E050E0BA0188E190E00E9490
:10484000A23060E087E190E00E94903040E050E0CC
:10485000BA018CE190E00E94A23060E080E290E03A
:104860000E9490300C94D6230C94DD23682F8EE0A8
:1048700090E00C949030FC01329697E080E09150EB
:1048800029F021912223D9F38F5FF9CF08959C015C
:10489000FC0132969FEF80E04191461789F09F3FDF
:1048A00019F4411101C0982F8F5F8630A9F79F3FFF
:1048B00039F0F901E90FF11D97FDFA95628308952A
:1048C00008959C012A5F3F4FFC014281461301C0BD
:1048D0001282019682179307B9F708950C94472422
:1048E0000C946124029626E0FC0111922A95E9F7C6
:1048F000089508950C9479240C947924CF930E9400
:104900007C240E9427080E947A24C0E08C2F0E94F9
:10491000D107811104C0CF5FC530C1F701C081E06C
:10492000CF9108950C9479240C9492240E9494249D
:104930008091C602843009F439C01092840220E4C8
:1049400088E190E00FB6F894A895809360000FBEC0
:104950002093600080E00E94AD090E948710809142
:10496000850281110AC081E08093850280919602C0
:104970008170809386020E94F5110E94942483B76F
:10498000817F846083BF83B7816083BF789488957B
:1049900083B78E7F83BF0FB6F894A895809160008F
:1049A000886180936000109260000FBE08950C949F
:1049B00079240E94FA1C0E94EB170E94AD09109204
:1049C00085028091860281110E9490110E946510DB
:1049D0000C94D7241F920F920FB60F9211248F932D
:1049E0009F93AF93BF9380918402811113C08091F4
:1049F000BC029091BD02A091BE02B091BF0241964F
:104A0000A11DB11D8093BC029093BD02A093BE0274
:104A1000B093BF02BF91AF919F918F910F900FBE46
:104A20000F901F90189582E084BD93E095BD9AEF9A
:104A300097BD80936E0008952FB7F8948091BC02C3
:104A40009091BD02A091BE02B091BF022FBF089508
:104A50002FB7F8946091BC027091BD028091BE02A4
:104A60009091BF022FBF0895CF92DF92EF92FF92F5
:104A70000F931F932FB7F8944091BC025091BD0241
:104A80006091BE027091BF022FBF6A017B01EE24CC
:104A9000FF248C0120E030E0C016D106E206F306C8
:104AA00010F4415051099A01281B390BC9011F917B
:104AB0000F91FF90EF90DF90CF90089578941F9220
:104AC0000F920FB60F9211248F939F93AF93BF93C2
:104AD0008091BC029091BD02A091BE02B091BF0234
:104AE0000196A11DB11D8093BC029093BD02A093BD
:104AF000BE02B093BF02BF91AF919F918F910F9073
:104B00000FBE0F901F90189587E797E790930108C5
:104B1000809300089AE088E10FB6F894A8958093F6
:104B200060000FBE90936000FFCF0E94942381111C
:104B300002C00E9434240E949F23809383020E941B
:104B4000A7239093C1028093C0020E94A323682FE1
:104B500070E080E090E00C940721CF93C82F1F9263
:104B60008F938BE097E09F938F930E94C80781E01B
:104B700090E0A0E0B0E0BC01CD0104C0660F771F5B
:104B8000881F991FCA95D2F70E9407210F900F9096
:104B90000F900F90CF910C94FA1CCF93DF938B3131
:104BA00009F4F9C108F08FC18B3009F4B2C108F0E3
:104BB00065C1863009F4B0C120F4853009F4BEC166
:104BC0006CC2873009F4CCC1883009F066C286E433
:104BD0009CE00E942F0787E99BE00E942F070E941C
:104BE000A3231F928F9384E99BE09F938F930E944E
:104BF000C80782E99BE00E942F070E949F23C82FCD
:104C00008FE79BE00E942F071F92CF938AE79BE0DC
:104C10009F938F930E94C80788E79BE00E942F070D
:104C20008EE69BE00E942F078C2F81701F928F933E
:104C30008BE69BE09F938F930E94C80789E69BE0D9
:104C40000E942F078FE59BE00E942F07C1FB88275A
:104C500080F91F928F938CE59BE09F938F930E9426
:104C6000C8078AE59BE00E942F078EE49BE00E9424
:104C70002F07C2FB882780F91F928F938BE49BE05C
:104C80009F938F930E94C80789E49BE00E942F079F
:104C900080E49BE00E942F07C3FBCC27C0F91F9242
:104CA000CF938DE39BE09F938F930E94C8078BE384
:104CB0009BE00E942F070E94A723EC0187E29BE064
:104CC0000E942F07DF93CF9382E29BE09F938F9305
:104CD0000E94C80780E29BE00E942F0787E09BE0CC
:104CE0000E942F078C2F81701F928F9384E09BE08E
:104CF0009F938F930E94C8078DB79EB780960FB67B
:104D0000F8949EBF0FBE8DBF82E09BE00E942F07EC
:104D10008BEE9AE00E942F07C1FB882780F91F9233
:104D20008F9388EE9AE09F938F930E94C80786EE38
:104D30009AE00E942F0784ED9AE00E942F078D2FA2
:104D400081701F928F9381ED9AE09F938F930E94C1
:104D5000C8078FEC9AE00E942F078DEB9AE00E9423
:104D60002F07D695D1701F92DF938AEB9AE09F931D
:104D70008F930E94C80788EB9AE00E942F0786EA6B
:104D80009AE00E942F07C2FB882780F91F928F9319
:104D900083EA9AE09F938F930E94C80781EA9AE082
:104DA0000E942F078FE89AE00E942F07C3FB8827F5
:104DB00080F91F928F938CE89AE09F938F930E94C3
:104DC000C8078AE89AE00E942F0780E89AE00E94CC
:104DD0002F07C4FB882780F91F928F938DE79AE0F5
:104DE0009F938F930E94C8078BE79AE00E942F073A
:104DF00089E69AE00E942F07C5FB882780F91F9259
:104E00008F9386E69AE09F938F930E94C80784E66B
:104E10009AE00E942F0788E49AE00E942F07C6FBC1
:104E2000882780F91F928F9385E49AE09F938F9350
:104E30000E94C8078DB79EB780960FB6F8949EBFA4
:104E40000FBE8DBF83E49AE00E942F078BE39AE0A8
:104E50000E942F07C7FBCC27C0F91F92CF9388E38E
:104E60009AE09F938F930E94C80786E39AE00E947E
:104E70002F070F900F900F900F9049C0803109F4C9
:104E8000B4C020F48E3009F49AC007C1863109F409
:104E9000C7C0893109F001C189E698E00E942F0757
:104EA0008EE398E00E942F0784E098E00E942F078D
:104EB00081ED97E00E942F0784EA97E00E942F0778
:104EC00089E797E08FC08A32E1F060F4873209F415
:104ED000E0C028F48E3108F4E0C08D51DBC0893287
:104EE00069F1DBC0833448F48A3308F0D0C08533DD
:104EF00009F4CFC0883369F0D0C0833409F4C9C045
:104F0000CCC085E39CE00E942F070E943424C1E0BE
:104F1000C9C083E998E066C080918302817F8E7F5B
:104F20008093830288E798E00E942F0781E39CE04A
:104F30000E942F0781E080938702E9CF0E94FA1C2C
:104F400085E19CE00E942F079FEF23ED80E39150C5
:104F500020408040E1F700C000000E948425D7CFA8
:104F600080918302C82FC095C170C0FB80F98093E7
:104F70008302CC2329F089E09CE00E942F0792C095
:104F80008CEF9BE00E942F0780918302897F877FAF
:104F900080938302BCCF9091830291FBCC27C0F910
:104FA00081E0C827892FC0FB81F980938302CC233D
:104FB00019F08FEE9BE029C081EE9BE013C0909129
:104FC000830292FBCC27C0F981E0C827892FC0FB60
:104FD00082F980938302CC2319F082ED9BE015C007
:104FE00082EC9BE00E942F0792CF9091830293FB6B
:104FF000CC27C0F981E0C827892FC0FB83F98093B3
:105000008302CC2351F086EB9BE00E942F07809116
:10501000830281608093830245C089EA9BE0E2CFEE
:105020008BE697E00E942F070E94EB171F928F9349
:1050300081E597E09F938F930E94C8078091490173
:105040001F928F938AE397E09F938F930E94C807E4
:10505000809194021F928F9387E297E09F938F93A2
:105060000E94C8070E9428259F938F937F936F9378
:1050700080E197E09F938F930E94C8078DB79EB7FA
:1050800042960FB6F8949EBF0FBE8DBF40CF895396
:1050900001C080E00E94AD253ACF87EA9BE00E94E4
:1050A0002F07C0E08C2FDF91CF91089580E0089505
:1050B0000C945628CF93C82F80918702882319F02B
:1050C000813031F038C00E94DB228232B1F504C059
:1050D0000E94DB22823261F48C2F0E9458288111B9
:1050E00004C08C2F0E94CD2524C081E090E021C017
:1050F0008C2F0E94562881111BC0C43189F018F4EE
:10510000CB3029F010C0C93259F0C83361F488E7B8
:1051100098E00E942F0787E097E00E942F0708C0C1
:10512000109287020CC085E097E00E942F0707C00D
:1051300081E0817006C01092870280E002C080E0AA
:10514000F8CFCF91089580919302089508959FB765
:10515000F89410928A029FBF9091C602943009F091
:1051600057C09091E9009F703091EC00232F21707F
:1051700030FD20E8922B23E02093E9002091EB0002
:1051800020FF43C02091EE0027FF3FC020918802FE
:10519000222321F02091E80025FF37C010928802D9
:1051A00026E03091E80035FD15C03091C60234305C
:1051B00061F53091EB0035FD28C0215021F481E0EC
:1051C0008093880222C0EFE9FFE03197F1F700C039
:1051D0000000E7CF8093F1008091E80085FD0AC0D0
:1051E0008091E80080FFFCCF8091E8008E7780936B
:1051F000E80006C08FB7F89421E020938A028FBFA1
:105200009F709093E90080E008959F709093E9006B
:105210008FEF0895CF93DF9300D01F92CDB7DEB705
:105220009091C602943019F589837B836A8382E06A
:105230008093E9008FEF9091E800815095FD06C0C2
:1052400095ED9A95F1F700008111F5CF8091E80076
:1052500085FF0DC040E050E063E070E0CE010196B4
:105260000E948A2B8091E8008E778093E8000F904F
:105270000F900F90DF91CF910895CF93DF93EC01C2
:105280000E946D2B823011F0843031F4BE0184E035
:10529000DF91CF910C940A29DF91CF910895BC0141
:1052A0006058710983E00C940A29CF93DF93EC01D5
:1052B0000E946D2B823011F0843039F581E08093AB
:1052C000E9008FEF9091E800815095FD06C095EDC3
:1052D0009A95F1F700008111F5CF8091E80085FFE4
:1052E00014C040E050E068E070E0CE010E948A2BDC
:1052F0008091E8008E778093E80088E0FE01ABE8BB
:10530000B2E001900D928A95E1F7DF91CF91089577
:1053100086E79CE00E942F078091C502811109C099
:105320000E941B2D0E94782D8091E2008460809362
:10533000E200089582E79CE00E942F071092C502C8
:1053400008958EE69CE00C942F078AE69CE00C946E
:105350002F0786E69CE00E942F070C94D924209109
:1053600089022F5F822F62E30E942730992319F070
:105370002093890208951092890280918A028823DD
:1053800071F18091C602843041F58091E9008F70FF
:105390002091EC00922F917020FD90E8892B93E0F2
:1053A0009093E9009091EB0090FF14C09091EE0073
:1053B00097FF10C09091E80095FF03C01092F10094
:1053C000F9CF9091E80090FF05C09091E8009E779A
:1053D0009093E8008F708093E90010928A020895FC
:1053E00042E061EC81E00E94942C42E261EC82E0B8
:1053F0000E94942C42E261EC83E00C94942C809106
:10540000C802833009F460C030F4813071F082301A
:1054100009F499C008958A3009F485C08B3009F4E5
:105420006BC0893009F0A7C020C08091C702813AC3
:1054300009F0A1C08091E800877F8093E800809107
:10544000CB029091CC02892B21F468E08BE892E0AA
:1054500003C060E080E090E070E00E94D52B809176
:10546000E8008B778093E80008958091C70281322D
:1054700009F081C08091CB029091CC02029708F094
:105480007AC08091E800877F8093E8008091E800EF
:1054900082FD05C08091C6028111F8CF6CC02091B9
:1054A000F3008091F20090E0922B029729F4809112
:1054B000F1008B7F813021F48091F1008093930281
:1054C0008091E8008B7753C08091C702813A09F040
:1054D00052C08091CB029091CC02892B09F04BC035
:1054E0008091E800877F8093E8008091E80080FF4A
:1054F000FCCF8091490136C08091C7028132D9F535
:105500008091CB029091CC02892BA9F58091E80083
:10551000877F8093E8000E94C92C8091C902809304
:1055200049010C94FA1C8091C702813221F58091C7
:10553000E800877F8093E8000E94C92C8091CA020E
:105540008093940208958091C702813AA1F48091DA
:10555000E800877F8093E8008091E80080FFFCCF1F
:10556000809194028093F1008091E8008E7780937F
:10557000E8000C94C92C089584B7877F84BF0FB6C8
:10558000F894A895809160008861809360001092E3
:1055900060000FBE90E080E80FB6F8948093610041
:1055A000909361000FBE0E947C180E941B2D0E94E8
:1055B000782D8091E20084608093E20087EA98E28F
:1055C0000E948F2378940E940C300E9484188FE3ED
:1055D00091E00E94E61785E59CE00E942F078091EC
:1055E000C602853089F481E59CE00E942F070E9465
:1055F00096248091C402882391F30E947E248823FC
:1056000071F30E94742BEBCF0E94B618E8CF0C9474
:10561000092B292F332723303105C9F060F42130BD
:10562000310581F02230310509F047C08BE590E06B
:105630002EEA3CE046C02132310511F1223231051B
:1056400061F13BC082E190E029E03DE03AC099275A
:105650008130910561F040F08230910559F0039757
:1056600061F5EAE7FCE008C0EAEAFCE005C0EEE824
:10567000FCE002C0E0E8FCE0849190E09F0121C0E2
:1056800063307105D0F4660F771FFB01E651FE4FC2
:105690002081318189E090E014C06330710568F4A5
:1056A000FB01EE0FFF1FEC51FE4F20813181FB010A
:1056B000EF51FE4F808190E004C080E090E020E058
:1056C00030E0FA013183208308958091C60284304E
:1056D00011F081E0089582E0089580919502811192
:1056E00002C00C94652B089580E189BD82E189BDDB
:1056F00009B400FEFDCF8091D8008F7D8093D80043
:105700008091E00082608093E0008091E00081FD64
:10571000FCCF0895CF92DF92EF92FF920F931F93E9
:10572000CF93DF93EC018B017A010E94E82C811169
:1057300033C0E114F10439F0F70180819181081B35
:10574000190BC80FD91FC12CD12C0115110519F146
:105750008091E80085FD16C08091E8008E778093E7
:10576000E800E114F10449F0F70180819181C80E4D
:10577000D91ED182C08285E00FC00E94E82C882308
:1057800021F30AC089918093F10001501109FFEFC4
:10579000CF1ADF0ADACF80E0DF91CF911F910F910E
:1057A000FF90EF90DF90CF9008952091CD0230913F
:1057B000CE022617370748F06115710539F420919C
:1057C000E8002E772093E80001C0B901FC0120E039
:1057D0006115710579F18091C6028823F1F1853058
:1057E000F1F18091E80083FD3CC08091E80082FDEA
:1057F0002EC08091E80080FFEBCF2091F3008091D4
:10580000F20090E0922B6115710551F088309105FE
:1058100038F421912093F100615071090196F3CF82
:1058200021E0089709F020E08091E8008E778093CE
:10583000E800CECF2111CFCF0AC08091C6028823C5
:1058400061F0853061F08091E80083FD0AC08091AD
:10585000E80082FFF2CF80E0089582E0089583E0BF
:10586000089581E008952091CD023091CE0226174F
:10587000370748F06115710539F42091E8002E775B
:105880002093E80001C0B901FC0120E06115710519
:1058900091F18091C602882309F440C0853009F453
:1058A0003FC08091E80083FD3DC08091E80082FD0B
:1058B0002FC08091E80080FFE9CF2091F300809114
:1058C000F20090E0922B6115710559F08830910536
:1058D00040F424912093F1003196615071090196B2
:1058E000F2CF21E0089709F020E08091E8008E7760
:1058F0008093E800CBCF2111CCCF0AC08091C602A3
:10590000882361F0853061F08091E80083FD0AC052
:105910008091E80082FFF2CF80E0089582E0089550
:1059200083E0089581E00895982F973068F590936B
:10593000E900981739F07091EC002091ED0050913A
:10594000F00003C0242F762F50E021FD02C09F5F9E
:10595000ECCF3091EB003E7F3093EB003091ED00C7
:105960003D7F3093ED003091EB0031603093EB00E0
:105970007093EC002093ED005093F0002091EE0026
:1059800027FDE5CF80E008958F708093E90081E0E6
:1059900008958091C70287FF11C08091E80082FDC1
:1059A00005C08091C6028111F8CF11C08091E80036
:1059B0008B770BC08091C602882349F08091E80064
:1059C00080FFF8CF8091E8008E778093E8000895FB
:1059D0002091E4003091E50095E64091EC00842FA1
:1059E000817040FF23C08091E80080FD1DC0809140
:1059F000C602882399F0853099F08091EB0085FDEF
:105A000011C04091E4005091E5002417350729F3B7
:105A1000915011F09A01E1CF84E0089582E0089559
:105A200083E0089581E0089580E008954091E800C2
:105A300042FFDDCF08950E94892D0E94912DE0EE56
:105A4000F0E0808181608083E8EDF0E080818F77F5
:105A5000808319BCA7EDB0E08C918E7F8C93808100
:105A60008F7E80831092C50208950F931F93CF936A
:105A7000DF930E94892D0E94912DC8EDD0E088818E
:105A80008F77888388818068888388818F7D8883E9
:105A900019BC1092C6021092C2021092C402109257
:105AA000C30200EE10E0F80180818B7F8083888143
:105AB0008160888342E060E080E00E94942CE1EE07
:105AC000F0E080818E7F8083E2EEF0E08081816073
:105AD0008083808188608083F80180818E7F8083CD
