:100000000C94D7060C941E070C941E070C941E0724
:100010000C941E070C941E070C941E070C941E07CC
:100020000C941E070C941E070C94882D0C945A2EC9
:100030000C9404250C941E070C941E070C941E07A8
:100040000C941E070C941E070C941E070C941E079C
:100050000C941E070C945D250C941E070C941E072F
:100060000C941E070C941E070C941E070C941E077C
:100070000C941E070C941E070C941E070C941E076C
:100080000C941E070C941E070C941E070C941E075C
:100090000C941E070C941E070C941E070C941E074C
:1000A0000C941E070C941E070C941E07C212C51256
:1000B000CA12D112D612DB12E012E512EA12EF12C6
:1000C000F412F912FD12001303130613091310138F
:1000D00010131013D11AD11A031B031B501B841CBD
:1000E000841C841C6E1B031C141C141C741C841C98
:1000F000841C7D1C2E1D2E1D401D401D371D401DC6
:10010000401D401D2E1D2E1D3C1D401D401D3C1D33
:10011000C72EEE2EE62FEE2EE62F3A2F5D2FE62F7E
:10012000B42FC32F040005000600070008000900D3
:100130000A000B000C000D000E000F001000110053
:100140001200005716001900000000000100C35CF7
:10015000C45CC25CCA5CC95CC65CC55CC85CC75C8C
:100160000100010001000100005C015700000000D7
:100170000000000044454255473A206469736162BB
:100180006C65642E0A0044454255473A20656E610D
:10019000626C65642E0A007267626C69676874201D
:1001A00074696D65722064697361626C652E0A0002
:1001B0007267626C696768742074696D6572206526
:1001C0006E61626C65642E0A007267626C696768B2
:1001D000742073657420687376205B4E4F454550DC
:1001E000524F4D5D3A2025752C25752C25750A003A
:1001F0007267626C696768742073657420687376CF
:10020000205B454550524F4D5D3A2025752C257594
:100210002C25750A007267626C69676874206469CE
:100220007361626C65205B4E4F454550524F4D5D8A
:100230003A207267626C696768745F636F6E6669A3
:10024000672E656E61626C65203D2025750A00721F
:1002500067626C696768742064697361626C6520A9
:100260005B454550524F4D5D3A207267626C69673D
:1002700068745F636F6E6669672E656E61626C6538
:10028000203D2025750A007267626C6967687420DA
:10029000656E61626C65205B4E4F454550524F4D17
:1002A0005D3A207267626C696768745F636F6E663F
:1002B00069672E656E61626C65203D2025750A00B8
:1002C0007267626C6967687420656E61626C652034
:1002D0005B454550524F4D5D3A207267626C6967CD
:1002E00068745F636F6E6669672E656E61626C65C8
:1002F000203D2025750A007267626C69676874206A
:10030000746F67676C65205B454550524F4D5D3A91
:10031000207267626C696768745F636F6E66696795
:100320002E656E61626C65203D2025750A0072673E
:10033000626C69676874206D6F6465205B4E4F4521
:100340004550524F4D5D3A2025750A007267626C28
:1003500069676874206D6F6465205B454550524F36
:100360004D5D3A2025750A007267626C6967687492
:100370005F696E6974207267626C696768745F6335
:100380006F6E6669672E6D6F6465203D20302E208C
:1003900057726974652064656661756C7420766156
:1003A0006C75657320746F20454550524F4D2E0A71
:1003B000007267626C696768745F696E6974206552
:1003C00065636F6E666967206973206E6F74206560
:1003D0006E61626C65642E0A007267626C696768A0
:1003E000745F696E6974207374617274210A00729B
:1003F00067626C696768745F696E69742063616CB9
:100400006C65642E0A007267626C696768745F636A
:100410006F6E6669672E7370656564203D20256484
:100420000A007267626C696768745F636F6E666901
:10043000672E76616C203D2025640A007267626C2D
:10044000696768745F636F6E6669672E7361742095
:100450003D2025640A007267626C696768745F6397
:100460006F6E6669672E687565203D2025640A00F9
:100470007267686C696768745F636F6E6669672E20
:100480006D6F6465203D2025640A007267626C69A7
:100490006768745F636F6E6669672E656E61626C14
:1004A00065203D2025640A007267626C6967687484
:1004B0005F636F6E66696720454550524F4D3A0A3B
:1004C000007F3F1F643214643214783C1E1E140AED
:1004D000052223252628292A2C2D2F303233353684
:1004E000383A3B3D3E4042434547494A4C4E5051C5
:1004F000535557595A5C5E6062646668696B6D6FEC
:1005000071737577797B7D7F81838587898A8C8EEE
:1005100090929496989A9C9E9FA1A3A5A7A8AAACF6
:10052000AEAFB1B3B4B6B8B9BBBCBEBFC1C2C3C530
:10053000C6C7C9CACBCCCDCED0D1D2D2D3D4D5D6D2
:10054000D7D7D8D9D9DADADBDBDBDCDCDCDCDCDD05
:10055000DDDDDDDCDCDCDCDCDBDBDBDADAD9D9D8E9
:10056000D7D7D6D5D4D3D2D2D1D0CECDCCCBCAC981
:10057000C7C6C5C3C2C1BFBEBCBBB9B8B6B4B3B1B0
:10058000AFAEACAAA8A7A5A3A19F9E9C9A9896944B
:1005900092908E8C8A89878583817F7D7B79777520
:1005A00073716F6D6B6968666462605E5C5A5957FF
:1005B000555351504E4C4A4947454342403E3D3BBE
:1005C0003A3836353332302F2D2C2A292826252348
:1005D00022000101010101010101010202020202E6
:1005E00002020202030303030303030304040404DB
:1005F00004040405050505050606060606070707A3
:10060000070708080808090909090A0A0A0B0B0B59
:100610000C0C0C0D0D0D0E0E0E0F0F0F10101111F6
:10062000111212131314141515161617171818197A
:10063000191A1A1B1B1C1D1D1E1E1F2020212222E1
:10064000232424252626272829292A2B2C2D2D2E24
:100650002F30313232333435363738393A3B3C3D3E
:100660003E3F404142434445464748494A4C4D4E2F
:100670004F50515354555658595A5B5D5E5F6162F5
:1006800064656668696B6C6D6F7072737577787A84
:100690007B7D7E8082838587888A8C8E8F919395DF
:1006A00096989A9C9EA0A2A3A5A7A9ABADAFB1B303
:1006B000B5B7BABCBEC0C2C4C6C9CBCDCFD1D4D6E3
:1006C000D8DBDDDFE2E4E7E9EBEEF0F3F5F8FAFD85
:1006D000FF0A002530325820006B6579626F617225
:1006E000645F7265706F72743A20000A00253032C0
:1006F00058006B6579626F6172645F7365745F6CDB
:1007000065643A20003F00433E20004C25640A0007
:1007100074696D65725F72656164333228293A20AD
:100720002530346C580A006B6579626F6172645FC2
:1007300069646C653A2025580A006B6579626F61BF
:1007400072645F70726F746F636F6C3A2025580A21
:1007500000686F73745F6B6579626F6172645F6C60
:1007600065647328293A2025580A000A092D205368
:100770007461747573202D0A004743433A20352E67
:10078000342E30204156522D4C4942433A20322ECD
:10079000302E30204156525F415243483A20617614
:1007A00072350A004F5054494F4E533A204C55462B
:1007B000412045585452414B455920434F4E534FC9
:1007C0004C4520434F4D4D414E4420343039360A7C
:1007D000004255494C443A2022302E392E31352DD5
:1007E000372D6736353132613222202832333A31A3
:1007F000343A3335204A756C20203720323032307D
:10080000290A005649443A20307836413641284A70
:100810006F7368204A6F686E736F6E292050494469
:100820003A20307834383130284875623136292002
:100830005645523A203078303030310A0044455322
:10084000433A204D6163726F205061642077697470
:1008500068205553422048756220616E6420456EC1
:10086000636F646572730A000A092D2056657273FE
:10087000696F6E202D0A000A092D20436F6E736F79
:100880006C65202D0A4553432F713A0971756974BF
:100890000A000A092D204D61676963202D0A443A38
:1008A000094465627567204D6573736167652054FF
:1008B0006F67676C650A583A094D617472697820F0
:1008C0004465627567204D6F646520546F67676C7F
:1008D00065202D2053686F77206B65797072657382
:1008E00073657320696E206D617472697820677218
:1008F00069640A4B3A094B6579626F6172642044FE
:100900006562756720546F67676C65202D2053689A
:100910006F77206B65797072657373207265706F85
:1009200072740A4D3A094465627567204D6F75739C
:100930006520546F67676C650A563A09566572738D
:10094000696F6E0A533A095374617475730A433AB6
:1009500009416374697661746520436F6E736F6CCF
:1009600065204D6F64650A46312D4631303A095392
:10097000776974636820746F204C617965722030E8
:100980002D392028463130203D204C30290A302D89
:10099000393A0953776974636820746F204C617920
:1009A000657220302D390A47524156453A0953772E
:1009B0006974636820746F204C61796572203020FF
:1009C00028616C7465726E617465290A423A094A3D
:1009D000756D7020746F20426F6F746C6F61646509
:1009E000720A4553433A094A756D7020746F20426C
:1009F0006F6F746C6F616465722028616C746572CE
:100A00006E617465290A453A095072696E74204511
:100A10004550524F4D2053657474696E67730A4296
:100A200053504143453A09436C6561722045455036
:100A3000524F4D0A000A002575002E6E6B726F3AF8
:100A400020000A002575002E737761705F62616374
:100A50006B736C6173685F6261636B737061636514
:100A60003A20000A002575002E737761705F677267
:100A70006176655F6573633A20000A002575002E74
:100A80006E6F5F6775693A20000A002575002E7346
:100A90007761705F72616C745F726775693A20008C
:100AA0000A002575002E737761705F6C616C745F4E
:100AB0006C6775693A20000A002575002E7377610E
:100AC000705F7263746C5F726775693A20000A0028
:100AD0002575002E737761705F6C63746C5F6C6753
:100AE00075693A20000A002575002E636170736CE9
:100AF0006F636B5F746F5F636F6E74726F6C3A20BD
:100B0000000A002575002E737761705F636F6E7445
:100B1000726F6C5F636170736C6F636B3A20000A75
:100B20000025303258006B65796D61705F636F6EC0
:100B30006669672E7261773A20000A002575002EDB
:100B40006D6F7573653A20000A002575002E6B6580
:100B500079626F6172643A20000A002575002E6D7B
:100B600061747269783A20000A002575002E656E5E
:100B700061626C653A20000A0025303258006465D5
:100B80006275675F636F6E6669672E7261773A2080
:100B9000000A0025750064656661756C745F6C61A0
:100BA0007965723A20003F000A6D6F7573653A20CF
:100BB0006F66660A000A6D6F7573653A206F6E0A7C
:100BC000000A6B6579626F6172643A206F66660A2B
:100BD000000A6B6579626F6172643A206F6E0A0079
:100BE0000A6D61747269783A206F66660A000A6D50
:100BF00061747269783A206F6E0A000A64656275E2
:100C0000673A206F66660A000A64656275673A2073
:100C10006F6E0A000A0A4A756D70696E6720746FFC
:100C200020626F6F746C6F616465722E2E2E2000CF
:100C3000433E2000436C656172696E6720454550F4
:100C4000524F4D0A006565636F6E6669673A0A0028
:100C50005B735D004B6579626F61726420737461D0
:100C600072742E0A005B575D005B535D005B525D42
:100C7000005B445D005B435D000403300000000C3A
:100C8000034800750062003100360000001A034A74
:100C9000006F007300680020004A006F0068006E5B
:100CA0000073006F006E0000000403090409025B7A
:100CB00000030100A0FA090400000103010100097A
:100CC00021110100012240000705810308000A09E3
:100CD000040100010300000009211101000122327A
:100CE000000705820320000A090402000203000035
:100CF00000092111010001222200070583032000C1
:100D00000107050303200001120110010000000883
:100D10006A6A10480100010203010631FF0974A14B
:100D2000010975150026FF009520750881020976D6
:100D3000150026FF00952075089102C00501098065
:100D4000A101850319012AB700150126B7009501F5
:100D500075108100C0050C0901A101850419012A43
:100D6000A002150126A002950175108100C00501A1
:100D70000906A101050719E029E7150025019508D5
:100D8000750181029501750881010507190029FF88
:100D9000150026FF00950675088100050819012930
:100DA00005950575019102950175039101C0112406
:100DB0001FBECFEFDAE0DEBFCDBF04B603FE27C013
:100DC0008091CD029091CE02A091CF02B091D0023D
:100DD0008730904BA740B04BD1F41092CD021092C7
:100DE000CE021092CF021092D00214BE84B7877F39
:100DF00084BF0FB6F894A8958091600088618093B5
:100E00006000109260000FBEE0E0F8E3099511E089
:100E1000A0E0B1E0E0E7F1E602C005900D92A23F4C
:100E2000B107D9F722E0A2EFB1E001C01D92AD3CBD
:100E3000B207E1F70E94AE2A0C94B6300C94000081
:100E4000FF93EF93E091F201F091F301309709F0F5
:100E50000995EF91FF910895FC018591803011F083
:100E6000EFDFFBCF0895FF27E0E230E247FF0CC041
:100E7000419597FF09C0EDE260957095809590953A
:100E8000611D711D811D911D27FF02C0219530E359
:100E900050E2AA27660F771F881F991FAA1FA41761
:100EA00010F0A41B63955A95A9F7AA3008F0A95F22
:100EB000A05DAF93F395611571058105910541F72B
:100EC000ED3211F4EF93F395F21718F43F93F39585
:100ED000FBCF8F91B5DFFA95E1F70895E991F9918C
:100EE0008591803021F0853219F0AADFF9CF08957D
:100EF00020E0E89455915532C1F3503311F46894D1
:100F000055915A3348F4505390F3220F022E220F7A
:100F1000220F200D250FF4CF0EF421958991999180
:100F2000533619F3533729F1533559F1BC0188274A
:100F30009927E8945C3621F48991999168945591A8
:100F4000543639F446EF7EF077FF0DC08FEF9FEFF8
:100F50000AC055374AE039F0583540E121F05236A1
:100F600042E009F00895FF93EF937DDFEF91FF9149
:100F7000B7CFFF93EF93FC0181918030B9F360DF2D
:100F8000FBCFFF93EF9368DFF1CFDF93CF93CDB724
:100F9000DEB72596A3DFCF91DF910895E82FF0E02B
:100FA000EC50FE4F80810895CF93DF93A0E5B1E030
:100FB00045E551E061E070E08D91E82FE295EF703A
:100FC000F0E021A18F70EB0102C0CC0FDD1F8A95EC
:100FD000E2F7CE019C2F9095922391A392A1892BA9
:100FE00082A34A175B0741F7ACE4B1E040E551E06A
:100FF00061E070E08D91E82FE295EF70F0E021A1C3
:101000008F70EB0102C0CC0FDD1F8A95E2F7CE0195
:101010009C2F9095922391A392A1892B82A34A178A
:101020005B0741F7E9EFF1E0A4EFB1E08EEF91E06B
:1010300011921D928E179F07D9F785E00E94320CFE
:10104000DF91CF910C94930987988F9857985F9868
:10105000089508950895FC01E60FF11D3081108276
:101060009FB1892F881F8827881F808329B1922FDD
:10107000991F9927991F990F982B908381E0391315
:1010800001C080E008955F926F927F928F929F924D
:10109000AF92BF92CF92DF92EF92FF920F931F9386
:1010A000CF93DF9360E571E0A9EFB1E02EEFA22EC0
:1010B00021E0B22E612C01E010E06D015C901C92E9
:1010C000EB018991BE01E82FE295EF70F0E021A1DC
:1010D0008F70A80102C0440F551F8A95E2F7CA011C
:1010E000242B21A322A1942E9094292122A350EAFB
:1010F0005A95F1F79CE4E92E91E0F92E40E050E09A
:10110000E70189907E01282D22952F7030E0E901BA
:1011100028A17C9030E0D82DDF7002C0359527954E
:10112000DA95E2F720FD08C0302F042E01C0330FFE
:101130000A94EAF7232F01C020E027292C934F5F60
:101140005F4F44305105E1F691A1992291A292A1FD
:10115000892B82A3119681E0F6019081951101C03F
:1011600080E0682AAA16BB0609F0A7CF262D45E025
:1011700064EF71E089EF91E00E94330C64E084EF4A
:1011800091E00E942B08C62DC82B0E949B098C2F32
:10119000DF91CF911F910F91FF90EF90DF90CF9053
:1011A000BF90AF909F908F907F906F905F900895C9
:1011B000811106C0662311F085E109C084E107C0F2
:1011C000813039F4662311F088E101C087E10C9485
:1011D0007A1A089581E008959C013A9521153F41BE
:1011E00038F5DC01AA27B270AC01442754709C0189
:1011F0002227387094FF0FC090FF02C080E101C029
:1012000080E0AB2B09F08062452B09F08064232B32
:1012100069F080680BC0892F8170AB2B09F0826068
:10122000452B09F08460232B09F08860FB010994A9
:101230000895CF93DF93EC01805E9109089710F039
:10124000209719F46DE87AE102C068EF7CE1CE01E5
:101250000E94EC088C2FDF91CF910C947419CF93DE
:10126000DF93EC010E941B1ACE01805E9109089762
:1012700010F0209719F464E97AE102C06FEF7CE185
:10128000CE01DF91CF910C94EC0881E008950C948D
:10129000EA0808950C9449091F93CF93DF9300D077
:1012A00000D01F92CDB7DEB749835A836B8330914C
:1012B000240289819A81311114C0662359F02223B6
:1012C00049F00E946522182F682F89819A810E9417
:1012D000102203C00E943A22182F69817A81812F3F
:1012E00004C00E94652269817A810F900F900F904F
:1012F0000F900F90DF91CF911F910C942D0AFC015C
:10130000262F408151816281738184810C944C0924
:10131000CF93DF93EC0160E00E947F09BE01DF9173
:10132000CF910C944A090E949F23811102C00E9410
:101330003F240C9424080E947F170C9429080895D8
:101340000C949F0981E008950C94A209CF93C82FB3
:101350000E94A0098C2F0E94A409CF91089508959E
:101360000E941C1D0E94AF092FEF84E39CE02150D6
:1013700080409040E1F700C000000C9483250F935B
:101380001F93CF93DF93EC0161E00E947F098C01F2
:10139000BE010E94DC16BE01C8010E9447098823D5
:1013A00009F450C0BE01C8010E942317882309F424
:1013B00049C0BE01C8010E94B014882309F442C08C
:1013C000BE01C8010E94F1148823E1F1BE01C801E9
:1013D0000E941C168823B1F1BE01C8010E94AB1205
:1013E000882381F18A81882331F101308CE5180747
:1013F00051F00E3D8CE51807D9F001151C45D9F4C4
:101400000E94B0091FC080918102C82FC095C17091
:10141000C0FB80F980938102CC2329F086E891E01B
:101420000E942C070FC084E791E00E942C070BC09C
:101430000E943F2407C0CE01DF91CF911F910F91F1
:101440000C944509C0E08C2FDF91CF911F910F9133
:10145000089580E090E008950895E72FF0E095E08A
:10146000899FE00DF11D1124EE0FFF1FEE0FFF1FEE
:10147000E60FF11DEE0FFF1FEC5DFE4F859194917D
:101480000895880F991FFC01E956FE4F85919491AC
:101490000895CF93DF930E942D0A0E945B0BEC010D
:1014A0008115904508F043C0C11580E4D80708F0C5
:1014B000CBC0C03ED10528F5C03CD10508F0B3C073
:1014C000C83AD10578F4C53AD10508F0A4C0C130B6
:1014D000D10509F4ECC008F4E8C0C430D10508F027
:1014E000E6C0E3C0CF3BD10508F0DFC0C85AD0E06A
:1014F000CC0FDD1FCB5ADE4F0990D881C02DD464AC
:10150000D6C0C11590E2D90750F4C11521E0D20729
:1015100008F0CDC0C83ED10508F4C9C0C6C0C11589
:1015200080E3D80708F086C0CE019F707FC0C11548
:1015300095E5D90708F043C0C11524E5D20708F0A6
:101540009AC0C11582E5D80708F5C11591E5D907FC
:1015500008F07DC0CE0174E0969587957A95E1F705
:1015600083709C2F937021E030E002C0220F331F64
:101570009A95E2F73C68382BCF70C695C69580E205
:10158000C89FE0011124C22BD32B91C09E01237070
:1015900033278C2F86958695C115D34508F05CC0FE
:1015A000C1E0D0E002C0CC0FDD1F2A95E2F720E2B7
:1015B000829FC0011124C82BD92BDC6878C0C115CB
:1015C00029E5D207A0F4C11588E5D80708F058C06E
:1015D000C11596E5D90708F068C08C2F0E94EF0B63
:1015E0008F71C82FD0E0DC2FCC27D06260C0C1152E
:1015F0002AE5D20708F449C0CE01905681159042E1
:1016000008F053C08D2F8F710E94EF0BDD27D06241
:101610008F71D82B4CC0C55AD0E0CD57DE4FC88152
:10162000D0E0D06444C0CE01805C91090E94410AA0
:10163000EC013DC0CE019927D3FF03C0EC01D86C6B
:1016400036C0EC01D06C33C0DF70D06A30C0DC2F04
:10165000CC27C16FD06A2BC0C1E0D0E002C0CC0F54
:10166000DD1F2A95E2F720E2829FC0011124C82BDA
:10167000D92BDA681CC0DC2FCC27C46FD06A17C006
:10168000DC2FCC27C06FD06A12C08C2F8F700E94C5
:10169000EF0B94E0D695C7959A95E1F7CF70D0E01F
:1016A000DC2FCC27D069C82B02C0C0E0D0E0CE012F
:1016B000DF91CF9108958238910569F1B0F48133BB
:1016C000910509F46DC048F48932910509F463C0AD
:1016D0008A32910509F469C008958533910509F4AA
:1016E00055C089339105B9F00895833E910569F19C
:1016F00038F4803E9105B1F0823E910509F10895DC
:10170000863E9105A9F1873E9105B9F1843E910588
:1017100009F064C023C02091BE0220FD4FC021FD0E
:101720004DC008958091BE0280FD44C08091BF02EB
:1017300080FF44C08091BE0284FD42C083EE4DC054
:101740008091BE0282FF38C0F5CF8091BE0282FD3B
:1017500033C08091BF0280FD31C0ECCF8091BF02C9
:1017600081FF32C08091BE0284FD2AC087EE35C061
:101770008091BE0283FF26C0F5CF8091BE0283FD1B
:1017800021C08091BF0281FD1FC0ECCF8091BE02BD
:1017900085FD1CC01DC08091BE0285FD19C016C00C
:1017A0008091BE0286FD16C017C08091BE0286FDE4
:1017B00013C010C089E311C082EE0FC080EE0DC0CF
:1017C00080E00BC086EE09C084EE07C089E205C048
:1017D00085E303C08AE201C081E390E0089590911F
:1017E000BE0292FF0DC0282F2871283019F4877F80
:1017F000846006C0282F2471243011F48B7F886008
:1018000093FF0DC0282F2871283119F4877E846139
:1018100006C0282F2471243111F48B7E8861209119
:10182000BF0220FF0DC0382F3871383019F4877F80
:10183000816006C0382F3171313011F48E7F88609D
:1018400021FF0DC0282F2871283119F4877E81616E
:1018500006C0282F2171213111F48E7E886194FDFC
:10186000877E08950895FF920F931F93CF93DF9380
:101870008C01F62ED72FC42F222349F081E08093CC
:1018800000020E9436259093FF018093FE01809113
:1018900000028823C1F08091FE019091FF010E9417
:1018A0004E25459780F0EF2DFD2FD8014C2F50E0AD
:1018B000CD01801B910B841795071CF48D918193AA
:1018C000F7CF10920002DF91CF911F910F91FF90FF
:1018D0000895EF92FF920F931F93CF93DF93F62E0D
:1018E000472FE82FF0E0711106C0EF52FA4F6491D4
:1018F000762F862F72C0272F30E0EF52FA4FE491F7
:101900000E2F10E056E0659FC0011124CFEFD0E00C
:10191000BE010E9433305BEA5603C001579F900D11
:1019200011248F0D911D8F0D911D982F990F890FE7
:101930007E01E21AF30AE09ED001E19EB00DF09E16
:10194000B00D1124489FA0011124452F55277E0179
:10195000E41AF50AE09EA001E19E500DF09E500DA4
:1019600011247E01E81AF108E29EC001E39E900D69
:10197000F29E900D1124892F9927C81BD90BC09F67
:10198000C001C19F900DD09F900D11246230710550
:1019900091F048F461157105E1F061307105A9F429
:1019A0008B2F752F19C06430710561F038F06630E7
:1019B000710579F00AC0892F7B2F0EC08E2F7B2FE7
:1019C000E52F0AC08E2F792F02C0852F7E2FEB2F97
:1019D00003C08B2F7E2FE92F6E2FDF91CF911F91A8
:1019E0000F91FF90EF9008950895CF93DF93762F96
:1019F000E901682F842F0E94690C798368838A83A8
:101A0000DF91CF91089580919402282F269530E0A0
:101A10002115310519F48170826005C02831310526
:101A200024F081708E6280939402089588E090E0A3
:101A30000C947630CF92DF92EF92FF926B017C0193
:101A40000E94030DB701A60188E090E0FF90EF909F
:101A5000DF90CF900C949430E4E9F2E083E080834F
:101A600011828FEF828383831482608171818281EE
:101A700093810C941A0D8091810280FF08C088EA3E
:101A800094E09F938F930E94C5070F900F908091D1
:101A9000810280FF0FC08091940281701F928F930A
:101AA0008BE894E09F938F930E94C5070F900F904F
:101AB0000F900F908091810280FF0FC0809194025F
:101AC00086951F928F9380E794E09F938F930E9457
:101AD000C5070F900F900F900F908091810280FFAB
:101AE0000EC0809195021F928F9386E594E09F939C
:101AF0008F930E94C5070F900F900F900F908091C9
:101B0000810280FF0EC0809196021F928F938CE31A
:101B100094E09F938F930E94C5070F900F900F90B2
:101B20000F908091810280FF0EC0809197021F92DA
:101B30008F9382E294E09F938F930E94C5070F904A
:101B40000F900F900F908091810280FF0EC08091C6
:101B500098021F928F9386E094E09F938F930E9448
:101B6000C5070F900F900F900F90089580919402E9
:101B700080FF02C08695089580E0089580919802C4
:101B8000833018F48F5F8093980260919402709173
:101B9000950280919602909197020C941A0D809173
:101BA0009802882319F081508093980260919402E2
:101BB0007091950280919602909197020C941A0D63
:101BC00070E00C941613609139018091940280FFAB
:101BD0000AC08091380123E0829FC00111248756FA
:101BE0009D4F0C94E00D80913A0190913B01891733
:101BF00080F7E82FF0E09F01220F331FE20FF31F61
:101C0000E756FD4F1182108212828F5FF0CF9091C4
:101C1000940290FF16C090913A0120913B019217D7
:101C200070F4E92FF0E0DF01AA0FBB1FEA0FFB1FE2
:101C3000E756FD4F8183608342839F5FF0CF0C9412
:101C4000E30D0895CF93DF9300D01F92CDB7DEB799
:101C50009091940290FF0AC09E012F5F3F4F0E9417
:101C6000F50C4B8169818A810E94070E0F900F90BD
:101C70000F90DF91CF910895CF93DF93EC01EC812A
:101C8000F0E0EF52FB4F4491E4E9F2E062818181A0
:101C90000E94220E8C818F5F8C83DF91CF910895FB
:101CA000CF93DF93EC01E4E9F2E0438162818C8120
:101CB0000E94220E8C818F5F8C83DF91CF910895DB
:101CC000EF92FF920F931F93CF93DF9300D01F9259
:101CD000CDB7DEB7182FF62E042FE22E8091940296
:101CE00080FF5DC0E82FE695F0E0EA57FE4F908157
:101CF00090930A028E7F823061F49E012F5F3F4FE6
:101D0000812F0E94F50C4B8169818A810E94070E08
:101D10000CC0923019F40091970207C0963019F464
:101D20001091950202C09930D9F310939502F09268
:101D3000960200939702EE20E9F060919402709170
:101D4000950280919602909197020E941A0D8091BF
:101D5000810280FF24C0809197021F928F9380910F
:101D600096021F928F93809195021F928F9380EF1E
:101D700091E00CC08091810280FF11C01F920F93EF
:101D80001F92FF921F921F9389EC91E09F938F9374
:101D90000E94C5070FB6F894DEBF0FBECDBF0F90EF
:101DA0000F900F90DF91CF911F910F91FF90EF90C7
:101DB0000895E4E9F2E09181282F4381628188E06F
:101DC000890F0C94600E81E00C94D90EE4E9F2E0E6
:101DD0009181282F4381628188EF890F0C94600ED6
:101DE00081E00C94E60EE4E9F2E0628128E0620F03
:101DF00008F46FEF282F438181810C94600E81E0FD
:101E00000C94F30EE4E9F2E0628128E0621B08F42E
:101E100060E0282F438181810C94600E81E00C9456
:101E2000020FE4E9F2E0438128E0420F08F44FEFAB
:101E3000282F628181810C94600E81E00C94110F37
:101E4000E4E9F2E0438128E0421B08F440E0282F57
:101E5000628181810C94600E81E00C94200F20E05F
:101E60000C94600EFF920F931F93CF93DF93EC01BE
:101E7000F12C0FEF10E060913C01F616F0F4809128
:101E80003A012F2D30E0280F311DC901880F991F0D
:101E9000280F391F27563D4F70E0C8010E94473078
:101EA000962F8C814091970260919602F99E800D49
:101EB00011240E94F50CF394DECF0E94E30D9A8169
:101EC0008C8190FF02C08F5F01C081508C83DF91B5
:101ED000CF911F910F91FF900895AF92BF92CF9233
:101EE000DF92EF92FF920F931F93CF93DF93FC014A
:101EF000828180FF02C00FEF01C001E010E04BE0E3
:101F0000A42E80913C01181708F043C080913A013B
:101F1000C12ED12CE601C80FD11DCE01880F991F0B
:101F2000C80FD91FC756DD4F198218821A8234E0B4
:101F3000E32EF12CB12C809102028B0D8C302CF011
:101F40006A2D0E942530892F05C087FF03C090911C
:101F50003C01890F082E000C990BC816D90691F484
:101F6000809197028E9DA0018F9D500D1124559553
:101F70004795559547959E016091960280919502EF
:101F80000E94F50CB00EF1E0EF1AF108A1F61F5F08
:101F9000B8CF0E94E30D80910202013031F481112B
:101FA00002C080913C01815007C090E00196609191
:101FB0003C0170E00E94473080930202DF91CF9194
:101FC0001F910F91FF90EF90DF90CF90BF90AF9057
:101FD0000895CF9380913A0190913B01891770F455
:101FE000E82FF0E09F01220F331FE20FF31FE756A7
:101FF000FD4F1182108212828F5FF0CFC0E060919E
:102000003C01C617C0F5EC2FF0E070E0CF010E9454
:10201000473020913A01820F20910102022E000CDC
:10202000330B90E0E217F307CCF020913701022E3A
:10203000000C330B2E173F078CF09C01220F331F2F
:10204000820F931F9C0127563D4F4091970260914C
:102050009602809195020E94F50C0BC0FC01EE0FD8
:10206000FF1F8E0F9F1FFC01E756FD4F118210824C
:102070001282CF5FC4CF0E94E30D20913601809180
:102080000102820F8093010290913701920F909389
:10209000370119165CF4082E000C990B40913C0195
:1020A00050E041505109841795071CF02195209369
:1020B0003601CF91089560919402669570E041E0F9
:1020C00050E08DE391E00E946130892B19F481E0AA
:1020D00080930B020E9436259093040280930302A2
:1020E0008091810280FF08C080EB91E09F938F93E5
:1020F0000E94C5070F900F90089510920B028091D7
:10210000810280FF08C087E991E09F938F930E942E
:10211000C5070F900F9008959091940290FF54C0BE
:102120009170811102C0926006C0883110F09E62E9
:1021300002C0880F982B909394026623B1F06091AF
:1021400094027091950280919602909197020E945C
:102150001A0D8091810280FF1BC0809194028695A8
:102160001F928F938CE493E00BC08091810280FFDB
:102170000FC08091940286951F928F938EE293E018
:102180009F938F930E94C5070F900F900F900F9011
:1021900060919402669570E041E050E08DE391E03B
:1021A0000E946130892B19F00E947D1002C00E94AC
:1021B0005B1081E080930602409197026091960245
:1021C000809195020C942F0F0895682F909194029E
:1021D000969581E0890F883108F081E00C948C108D
:1021E00081E00C94E510682F9091940296958FEF02
:1021F000890F09F487E10C948C1081E00C94F310A2
:1022000061E00C948C108091940281608093940220
:102210008091810280FF0DC01F9281E08F9380EC3E
:1022200092E09F938F930E94C5070F900F900F909D
:102230000F908091940286950C94001160E00C94AC
:102240008C1080910902811160C08091810280FF11
:1022500008C08FEE93E09F938F930E94C5070F9065
:102260000F908091810280FF08C089ED93E09F93D9
:102270008F930E94C5070F900F900E949F2381119A
:1022800010C08091810280FF08C081EB93E09F9392
:102290008F930E94C5070F900F900E943F240E94C9
:1022A0002C0D0E94160D60939402709395028093FA
:1022B0009602909397026E7FC1F48091810280FF15
:1022C00008C088E693E09F938F930E94C5070F9004
:1022D0000F900E942C0D0E94160D60939402709333
:1022E000950280939602909397020E94030D0E949C
:1022F0003B0D10920B028091940280FF03C08695E3
:102300000E941E1181E08093090208958091940239
:102310008160809394028091810280FF0DC01F92A2
:1023200081E08F9387E892E09F938F930E94C50787
:102330000F900F900F900F908091940286950C94BF
:102340001E11809194028E7F80939402609194027A
:102350007091950280919602909197020E941A0DB9
:102360008091810280FF0FC08091940281701F9242
:102370008F938FE492E09F938F930E94C5070F90F5
:102380000F900F900F900E947D102FEF80E792E04A
:10239000215080409040E1F700C000000C94E30D14
:1023A0008091810280FF10C080919402809581709D
:1023B0001F928F9387EF92E09F938F930E94C507A0
:1023C0000F900F900F900F908091940280FD0C94CD
:1023D000A1110C940311809194028E7F809394023A
:1023E0008091810280FF0CC01F921F9285E192E0D4
:1023F0009F938F930E94C5070F900F900F900F909F
:102400000E947D102FEF80E792E0215080409040A5
:10241000E1F700C000000C94E30D0F931F93CF93DE
:10242000DF9380910B02882309F475C080910A0222
:10243000E0919402E695E81BE0930502823049F4AE
:10244000F0E0E353FB4FE491CE2FD0E00CE31EE02D
:1024500032C0863049F4F0E0E653FB4FE491CE2FD2
:10246000D0E000E51EE027C0893051F4E695F0E0A9
:10247000E953FB4FE491CE2FD0E002E31FE01BC0F5
:102480008F3051F4E695F0E0EC53FB4FE491CE2F02
:10249000D0E00DE61FE00FC0853149F4F0E0EF53C6
:1024A000FB4FE491CE2FD0E009EE1FE004C0C0ED59
:1024B000D7E004EF1CE080910602882389F0109297
:1024C00006020E9436259E0120953095820F931FAB
:1024D0009093040280930302109208021092070264
:1024E00080910302909104020E944E258C179D0753
:1024F00090F0E0910302F0910402CE0FDF1FD09321
:102500000402C093030283E092E0F801DF91CF91CF
:102510001F910F910994DF91CF911F910F91089511
:10252000882311F0FA0101C0FB010994CF93DF93D6
:10253000C82FD62F0E94B60D8C1740F00E94B60D02
:102540008D1720F4DF91CF910C94F0108C2FDF9138
:10255000CF910C9400110F931F93CF93FB01C28175
:10256000CC2309F45BC08C010E94E6228272F80140
:10257000E25CFC45E431F10508F053C0EA5AFF4F34
:102580000C945B300E94D0114BC04DEF50E160EFD6
:1025900070E104C040EF50E16DEF70E10E949012D5
:1025A0003FC040EF5EE063EE7EE0F8CF43EE5EE0DA
:1025B00060EF7EE0F3CF4EE05FE06FEF7EE0EECFC6
:1025C0004FEF5EE06EE07FE0E9CF4CE25FE06DE16F
:1025D0007FE0E4CF4DE15FE06CE27FE0DFCF4FECE6
:1025E0005DE06EEB7DE0DACF4EEB5DE06FEC7DE021
:1025F000D5CF81E00E94001113C065E082E00BC0DE
:1026000068E086E008C06EE089E005C064E18FE024
:1026100002C067E185E10E94961202C0C1E001C0DC
:10262000C0E08C2FCF911F910F910895519A2BB13B
:102630002D7F3BB132604FB7F894FC01CB01880F7E
:10264000991F680F791F6E0F7F1FE617F70789F034
:10265000819198E03BB9000000C087FF2BB9880F3B
:10266000000000C000C000C02BB900C09A9591F7CF
:10267000ECCF4FBF8FE594E00197F1F700C0000069
:1026800008950C94D808FF920F931F93CF93DF9374
:10269000C0E1D2E040EB51E02EEA31E061E070E0D1
:1026A000F2E0C231DF0709F44CC0FA010191AF0139
:1026B000A02FA295AF70B0E09196EC9191970F701A
:1026C000CB01002E01C0880F0A94EAF7982F90954D
:1026D0009E2391969C93919792969C919297892B89
:1026E00092968C939297F90111919F01E12FE295B7
:1026F000EF70F0E0F1A01F70CB01012E01C0880F38
:102700000A94EAF7982F90959F2191A392A1892B83
:1027100082A390968C9190E002C0959587950A953A
:10272000E2F78170E0A1F0E002C0F595E7951A9517
:10273000E2F7E0FD02C090E001C092E0892B8993AE
:10274000AFCFDF91CF911F910F91FF9008955F92CE
:102750006F927F928F929F92AF92BF92CF92DF92B1
:10276000EF92FF920F931F93CF93DF9380E1682E38
:1027700082E0782E90EBE92E91E0F92E0EEA11E03E
:102780002EE0822E22E0922ECCE0D2E063015301B3
:10279000512CD501ED915D014E2F440F440FF601F0
:1027A00041936F01D7012D917D01E22FE295EF70EA
:1027B000F0E080A190E02F7002C0959587952A9552
:1027C000E2F781709927F80151918F01E52FE29589
:1027D000EF70F0E020A130E05F7002C035952795E2
:1027E0005A95E2F7F901E170FF2720FF02C0E2E00D
:1027F000F0E0E82BF92BE42BD301ED933D01EF70D2
:10280000F0E0E256FE4F9081F4018081890F8083D1
:1028100084303CF088818F5F888360E0852D0E9442
:102820004113D4018C918D3F3CF488818150888381
:1028300061E0852D0E944113F4018081837887FF38
:1028400003C081508C6F8F5FD4018D934D015394E1
:102850002196B2E05B129DCFDF91CF911F910F9136
:10286000FF90EF90DF90CF90BF90AF909F908F90B0
:102870007F906F905F9008950F931F93CF93DF9396
:10288000C62FD42F122FFC0182818823C9F06093B8
:1028900014020E943625909313028093120280E264
:1028A0008C0F883008F057C0C77081E001C0880FD6
:1028B000CA95EAF7DF91CF911F910F910C948D1A71
:1028C00080911402681330C080911202909113021B
:1028D0000E944E25883C910538F500E20D0FCD177A
:1028E000B9F080E28C0F883040F4C77081E001C0FD
:1028F000880FCA95EAF70E94941A083028F581E0FB
:102900009D2F977001C0880F9A95EAF70E948D1A43
:10291000812F0E947A1A0830F0F4D77081E001C04C
:10292000880FDA95EAF70AC080E28C0F883098F4B5
:10293000C77081E001C0880FCA95EAF7DF91CF9197
:102940001F910F910C94941A812FDF91CF911F91B9
:102950000F910C947A1ADF91CF911F910F910895E6
:102960009C01CB01233F4CE53407F9F078F4283D76
:10297000FCE53F07B9F0293D4CE5340711F1273D4F
:102980003C4531F526E241EE61EE1EC0253FFCE5F7
:102990003F0799F070F0263F3C45D1F427E245EE21
:1029A00066EE12C027E245EE0EC026E241EE60EE72
:1029B0000BC027E245EE64EE07C026E241EE62EE70
:1029C00003C028E241E065EE0E943C1480E00895D7
:1029D000FC018281882319F010921402089581E08D
:1029E0000895CF93DF93EC01FB018281882309F4E2
:1029F0001FC1C230FCE5DF0708F41BC1C6319CE5EE
:102A0000D90738F09E012A5F3C452930310508F08E
:102A100010C10E94B2239093BF028093BE02C031C6
:102A2000ECE5DE0709F4C3C008F041C0C8308CE50E
:102A3000D80709F49AC0F0F4C430ECE5DE0709F4D5
:102A400087C068F4C2308CE5D80709F477C0C3307A
:102A5000DC4509F0E3C08091BE02826076C0C630DA
:102A6000ECE5DE0709F46EC008F07BC08091BE0281
:102A700088606BC0CC308CE5D80709F485C068F459
:102A8000CA30ECE5DE0709F474C008F079C00E9492
:102A90001C1D8091BE02806858C0CE308CE5D807DE
:102AA00009F476C008F07FC08091BE028BC0CB3F96
:102AB000ECE5DE0709F44FC018F5C3318CE5D80703
:102AC00009F47DC078F4C131ECE5DE0709F473C088
:102AD000C231DC4509F0A2C00E941C1D8091BE02DB
:102AE0008F7733C0C5318CE5D80709F472C008F47C
:102AF00086C0CA3FDC4509F091C08091BF023EC04C
:102B0000CF3FFCE5DF0709F45FC058F4CD3F9CE5FB
:102B1000D90709F444C008F43FC08091BF02826025
:102B20002DC0C130FDE5DF0709F475C008F45DC0B4
:102B3000C230DD4509F072C080E06EC08091BE02F7
:102B4000816003C08091BE0280618093BE0266C036
:102B50008091BE0211C08091BF0282608093BF024B
:102B60005DC08091BE028062F0CF8091BE02806421
:102B7000ECCF8091BE0288608460E7CF8160EECFA9
:102B80008091BE028E7FE1CF8091BE028D7FDDCF2E
:102B90008091BE02877FD9CF8091BF0218C08091FB
:102BA000BF028D7FDBCF8091BE028F7ECECF809122
:102BB000BE028F7DCACF8091BE028F7BC6CF80912F
:102BC000BE02877F8B7FC1CF8091BF028D7F8E7FBA
:102BD000C5CF8091BE0282FB222720F991E0922787
:102BE00090FB82F990FB83F9B0CF8091BF02982FC0
:102BF000909591708E7F892B90FB81F9AFCF0E94C9
:102C00001C1D8091BE0287FB222720F991E09227AC
:102C100090FB87F99ACF81E00E9441248091BE0207
:102C20009091BF020E94C3230E941C1D80E001C03E
:102C300081E0DF91CF910895CF93DF9386319C455A
:102C400041F5EB010E94E622982F8A8120913F01F5
:102C500030914001882379F09A7A81E009F480E08C
:102C600080931502911102C069E201C065E3C901B8
:102C70000E9488240AC080911502811102C069E275
:102C800001C065E3C9010E948A240E94372380E0C5
:102C900001C081E0DF91CF910895CF93DF93EC01E4
:102CA00081E0898B8F810E94E92288850E94FC2225
:102CB0000E943723EA81FB81CE010696309729F0E6
:102CC0006C897D89DF91CF910994DF91CF9108952F
:102CD000CF93DF93FC012081223039F4FB01EC011A
:102CE00082810E945D2181E08B87DF91CF910895E1
:102CF000DB01FC018081813021F48D919C910C9449
:102D00001909823039F41396ED91FC9114971296BB
:102D10008C9109940895FC018081813029F4FB0194
:102D2000808191810C942F090895EF92FF920F9367
:102D30001F93CF93DF93FC012285211136C0EC0154
:102D4000E380F480F7E5FF1A26E12E9DC0012F9D58
:102D5000900D1124DC01A050BF4F1496ED91FC9111
:102D600015978A5F9E4F309729F054966D917C910C
:102D70005597099586E18E9D80018F9D100D112438
:102D800000501F4FF80187810E94EF22F8018085D3
:102D90000E9402230E943723188219861B861E82F6
:102DA0001D821092170210921602DF91CF911F918F
:102DB0000F91FF90EF900895DF92EF92FF920F93A3
:102DC0001F93CF93DF93FB0122812223A1F1209156
:102DD0003E012F3F81F18C01C0E0D1E0E12CF12CCC
:102DE000DD24D39480913E01082E000C990B8E15A2
:102DF0009F050CF18E818823C9F089859A858017FB
:102E0000910739F48091160290911702081719075B
:102E100069F0DF861C870B878989811103C0CE0189
:102E20000E944D16CE0106960E949516FFEFEF1AEE
:102E3000FF0A6696D7CFDF91CF911F910F91FF9038
:102E4000EF90DF900895EF92FF920F931F93CF932F
:102E5000DF939C0137552F3F310511F008F047C033
:102E600040913E01042E000C550B4217530714F4F9
:102E700020933E01FB017C01828196E1929F8001BB
:102E8000939F100D1124E801C050DF4F888B928171
:102E90008E81992311F1FA86E9868F5F8E830E94D5
:102EA00036259E878D870E941C238F830E94E622F1
:102EB00088870E94F9229885892B8887E881F98183
:102EC000C8018A5F9E4F309719F06C897D890995FA
:102ED000F0921702E09216020AC0882341F0898915
:102EE000882329F0C8018A5F9E4F0E94951681E0D1
:102EF000DF91CF911F910F91FF90EF900895CF92A6
:102F0000DF92EF92FF920F931F93CF93DF93809105
:102F10003E018F3FF1F1F12C96E1E92E0F2D10E0EB
:102F200080913E01082E000C990B801791078CF1BF
:102F3000E09EF001E19EF00D1124E050FF4FC288A9
:102F4000D388C114D10419F488ECC82ED12CE09E8A
:102F5000E001E19ED00D1124C050DF4F8E81882307
:102F6000B1F08D859E850E944E25C816D90678F44D
:102F70008989811103C0CE010E944D16E09EC001D7
:102F8000E19E900D11248A5F9E4F0E949516F39446
:102F9000C5CFDF91CF911F910F91FF90EF90DF9000
:102FA000CF90089590931D0280931C020895E091A4
:102FB0001C02F0911D02309721F00190F081E02D6C
:102FC000099480E00895EF92FF920F931F93CF939F
:102FD000DF93E0911C02F0911D023097B1F18C015A
:102FE0000280F381E02D09958091810282FF2DC03E
:102FF00080FF04C089ED96E00E942C07E80118E0EC
:1030000083EDE82E86E0F82E8091810280FF0BC0D0
:1030100088811F928F93FF92EF920E94C5070F90B5
:103020000F900F900F90115021961111EDCF8091BC
:10303000810280FF0AC081ED96E0DF91CF911F9160
:103040000F91FF90EF900C942C07DF91CF911F917F
:103050000F91FF90EF90089520911A0230911B027A
:103060002817390771F090931B0280931A02E091A0
:103070001C02F0911D02309721F00680F781E02DAF
:1030800009940895209118023091190228173907E0
:1030900071F09093190280931802E0911C02F09154
:1030A0001D02309721F00084F185E02D09940895E8
:1030B00085B7806885BF85B7806885BF0895089506
:1030C0000C945F180C9460180C945F180C945F18A3
:1030D0000E9458180E9464180C94621881E00895A8
:1030E0000C946E180E942D250E94D4070E949425EE
:1030F0000E9421110E9443130C946618CF93C82F8D
:103100008091810282FF1EC080FF04C082EF96E0A2
:103110000E942C078091810280FF0CC01F92CF93E8
:103120008DEE96E09F938F930E94C5070F900F90AE
:103130000F900F908091810280FF04C08BEE96E08B
:103140000E942C078C2FCF910C94A609AF92BF92AE
:10315000CF92DF92EF92FF920F931F93CF93DF9363
:10316000CDB7DEB72A970FB6F894DEBF0FBECDBF3E
:103170000E9443080E947018811111C08FEF89834B
:103180008A831B820E9436258160782F9D838C83E1
:1031900049815A816B818D810E94401940C08FE125
:1031A000A82E82E0B82E00E010E0C02E802F0E94F2
:1031B000CE07E82EF501D1905F01D82631F40F5FDC
:1031C0001F4F0530110589F7D9CF8091810281FD0C
:1031D0000E942A0880E0FF24F3949D2D9F21D1F0C6
:1031E0008E83CF82EF2081E009F480E088870E94FF
:1031F00036258160782F9A8789874E815F8168851F
:103200008A850E944019F801E15EFD4F8081F82611
:10321000F08205C08F5FFF0C8430F9F6D0CF0E949A
:103220000D120E94A7130E94D71790911E028917B2
:10323000B1F00E94D71780931E022A960FB6F89419
:10324000DEBF0FBECDBFDF91CF911F910F91FF90D9
:10325000EF90DF90CF90BF90AF900C947E182A969D
:103260000FB6F894DEBF0FBECDBFDF91CF911F9197
:103270000F91FF90EF90DF90CF90BF90AF900895A7
:10328000CF93DF93CDB7DEB72B970FB6F894DEBFA1
:103290000FBECDBF4F83588769877A878B87DE0142
:1032A000119686E0FD0111928A95E9F785E0FE010D
:1032B000379601900D928A95E1F749815A816B8189
:1032C0007C818D819E810E94D51F2B960FB6F8942C
:1032D000DEBF0FBECDBFDF91CF910895FC0180818D
:1032E00091810E94A7220895CF93882309F4A1C059
:1032F000C82F8238C1F40E94D71781FD9AC069E3B4
:1033000080913F01909140010E9488240E943723C0
:103310002FEF81EE94E0215080409040E1F700C013
:10332000000069E319C0833801F50E94D71780FDBA
:1033300080C063E580913F01909140010E94882404
:103340000E9437232FEF81EE94E02150804090407F
:10335000E1F700C0000063E580913F0190914001DA
:103360000E948A24CF910C9437238438C1F40E94A0
:10337000D71782FD5EC067E480913F0190914001C4
:103380000E9488240E9437232FEF81EE94E0215081
:1033900080409040E1F700C0000067E4DDCF8CEF93
:1033A0008C0F813AF8F48C2F0E944E28811141C075
:1033B0006C2F80913F01909140010E9452248823FC
:1033C00049F06C2F80913F01909140010E948A2426
:1033D0000E9437236C2F80913F01909140010E9401
:1033E0008824C0CF80E28C0F883048F4C77081E019
:1033F00001C0880FCA95EAF70E94E922B3CFEBE536
:10340000EC0FE33040F4F0E0E052FE4F808190E0BA
:10341000CF910C942C18C85AC73158F4EC2FF0E017
:10342000EE0FFF1FEE54FE4F80819181CF910C94DF
:103430004218CF910895882309F45BC0682F823821
:1034400079F40E94D71781FF54C069E380913F014E
:10345000909140010E9488240E94372369E310C0A4
:103460008338B1F40E94D71780FF43C063E5809191
:103470003F01909140010E9488240E94372363E518
:1034800080913F01909140010E948A240C9437233F
:10349000843879F40E94D71782FF2BC067E48091AB
:1034A0003F01909140010E9488240E94372367E4E5
:1034B000E7CF8CEF860F813A18F380E2860F8830D1
:1034C00048F4677081E001C0880F6A95EAF70E94AE
:1034D000EF22DCCF8BE5860F833020F480E090E094
:1034E0000C942C18685A673120F480E090E00C941A
:1034F00042180895CF93C82F0E947419C93349F414
:103500002FEF87EE93E0215080409040E1F700C01C
:1035100000008C2FCF910C941B1A882321F00E945D
:10352000E9220C9437230895882321F00E94EF228A
:103530000C9437230895CF92DF92EF92FF920F936E
:103540001F93CF93DF937C01062FC72FFC011581BA
:1035500012951F70D281D1110E9409230E94DF228F
:10356000882399F0DD2389F08C2F807F803421F02F
:1035700080E2800F883048F082E00E9481230E9420
:10358000DF2291E0D82ED92601C0D12CCC2EC294B6
:103590008FE0C8228C2D90E0FC01E659FF4F0C947F
:1035A0005B308C2F807FCF70882311F0C295C07F55
:1035B000DD2399F0CC2309F482C180E2800F8830AA
:1035C00010F0011104C08C2F0E94E92203C08C2F3F
:1035D0000E94FC220E94372372C1802F0E941B1A76
:1035E000CC2309F491C180E2800F883010F00111E2
:1035F00004C08C2F0E94EF2203C08C2F0E94022354
:103600000E94372381C18C2F807FCF70803211F0D0
:10361000C295C07F002319F00130C9F022C0DD231C
:1036200071F0112341F0113031F40E941C238C2BD6
:103630000E94242369C10E941C238C2B1DC01123CE
:1036400019F0113009F460C10E942D2325C0DD233B
:1036500021F0163008F058C10EC0153008F054C1E2
:103660001BC0DD2361F0112331F0F701858180FF5C
:1036700026C18F7085838C2F0E948D1A45C111231E
:1036800059F0093309F02CC1FFEF27EE83E0F15028
:1036900020408040E1F722C18C2F0E94941A34C14F
:1036A0008C2F86958695837019F0813061F02CC13E
:1036B000DD2321F0802F9C2F937002C080E090E0EA
:1036C0000E942C1829C1DD2321F0802F9C2F93709C
:1036D00002C080E090E00E9442181EC18C2F8370CF
:1036E00009F045C0D11114C1402F4295469547704D
:1036F000440F440F602F6F70862F90E0A0E0B0E081
:10370000042E04C0880F991FAA1FBB1F0A94D2F76A
:1037100004FF10C00FE010E020E030E004C0000F14
:10372000111F221F331F4A95D2F70095109520953F
:10373000309503C000E010E09801C695C695C370AF
:10374000BC01CD01602B712B822B932BC23049F031
:1037500058F4C13019F00E942621DAC00E941421C9
:10376000D7C00E943821D4C00E941221D1C0DD23CD
:1037700019F08C2F817001C08695882309F4C8C088
:10378000402F429546954770440F440F602F6F704D
:10379000862F90E0A0E0B0E0042E04C0880F991FAF
:1037A000AA1FBB1F0A94D2F704FF10C00FE010E05D
:1037B00020E030E004C0000F111F221F331F4A9584
:1037C000D2F7009510952095309503C000E010E0E9
:1037D0009801C695C695C370BC01CD01602B712BB5
:1037E000822B932BC23049F058F4C13019F00E945B
:1037F000EB218EC00E94D9218BC00E94FD2188C080
:103800000E944C2185C0CF70DD2339F08C2F0E949F
:103810007221802F0E948D1A7BC0802F0E94941AE3
:103820008C2F0E94932174C0023F01F128F4003FC5
:1038300041F0013FA1F03FC0033FF9F0043F39F1EF
:103840003AC0DD2341F0153008F05EC08C2F8F7137
:103850000E94B82159C0163008F056C0F7CFDD23BA
:1038600039F08C2F8F710E9472214EC0DD23C9F375
:103870008C2F8F710E94932147C0DD2329F08C2F5C
:103880008F710E945D2140C00E9458213DC0DD2300
:1038900049F0CF718C2F0E94722163E08C2F0E941F
:1038A0006C2332C081E00E948123123068F182E0F3
:1038B0000E94812329C0DD2331F0112391F2802F52
:1038C0000E94741921C0112399F2093349F49FEF22
:1038D000E7EEF3E09150E040F040E1F700C0000077
:1038E000802F0E941B1A10C04C2F4F70602FC701F1
:1038F0000E94290A0E9483200FC04C2F4F70602F16
:10390000C7010E942C0A08C088EF8C0D843020F477
:103910000E94D7170E94A609DD20C9F00E94DB2271
:1039200080FD15C0F70112820E94D5220E947221EB
:10393000C7010E94C81C0E94D522DF91CF911F9120
:103940000F91FF90EF90DF90CF900C949321DF9137
:10395000CF911F910F91FF90EF90DF90CF9008953E
:103960000F931F93CF93DF93EC01688179818A8154
:103970000E94B2228C010E940F220E940021B801F5
:10398000CE010E949B1ADF91CF911F910F91089554
:10399000CF93DF93EC01988189812B813C81232B8C
:1039A00031F08F3F31F481E09F3F19F403C081E093
:1039B00001C080E080FD19C0CE010E94BF098111C5
:1039C0000CC00E94DF22882381F08A81882369F05D
:1039D00082E0DF91CF910C948123CE010E94B01C34
:1039E000CE01DF91CF910C948809DF91CF9108959A
:1039F000882321F00E94FC220C9437230895882309
:103A000021F00E9402230C94372308950E94092379
:103A10000E9419230E94372380E090E00E942C1816
:103A200080E090E00C94421880913F019091400119
:103A30000E948C240C94061D0E94F6220C94141DE6
:103A4000E92FE295EF704E2F50E0FA013297EE30F9
:103A5000F105B0F4E658FF4F0C945B30803F91F0D5
:103A600018F4883E68F40EC0843F51F40BC0883EC1
:103A700048F0813F29F406C093FB882780F9089518
:103A800080E0089581E008950E94A7220E94201DF1
:103A90000895CF93DF9300D000D01F92CDB7DEB74B
:103AA0000F900F900F900F900F90DF91CF9108958E
:103AB000CF93DF9300D000D000D0CDB7DEB72696ED
:103AC0000FB6F894DEBF0FBECDBFDF91CF91089542
:103AD0001F93CF93DF93C091250216E080912602B9
:103AE000C81799F0D0E01C9FF0011D9FF00D112424
:103AF000E95DFD4F408151816281738184819581AF
:103B00000E94581D2196C770E9CFDF91CF911F9178
:103B10000895409157025091580260915902709156
:103B20005A0280915B0290915C020C94581D0F9395
:103B30001F93CF93DF9380915C0282958F7009F081
:103B40005DC080915902882309F458C080912502F4
:103B5000109126026091570270915802C0915A024A
:103B6000D0915B0291E06F3F09F090E0292F06E0D1
:103B7000811709F443C0209721F07F3F21F030E006
:103B800003C031E001C0322F90E030FD34C0089F07
:103B9000F001099FF00D1124DF01A95DBD4F1196C1
:103BA0003C911197371327C03C91361324C01296CD
:103BB0003C91129731111FC013964D915C9114974F
:103BC0004C1B5D0B483C5105B0F480915C028F703A
:103BD000806180935C02E45DFD4F80818F70806125
:103BE000808387E592E00E94C81CDF91CF911F91EE
:103BF0000F910C94681D01968770BACFDF91CF9119
:103C00001F910F9108959F92AF92BF92CF92DF9232
:103C1000EF92FF920F931F93CF93DF93CDB7DEB751
:103C200061970FB6F894DEBF0FBECDBF8C0185E063
:103C3000F801DE011D9601900D928A95E1F7F801D9
:103C400040815181E2809091570260915802209109
:103C50005A0230915B022115310531F06F3F31F48A
:103C600081E09F3F19F403C081E001C080E0F82F9C
:103C7000F1709F2E80FD46C1F801A380B48087E5D6
:103C8000C82E82E0D82EF0905902F501E21BF30B0A
:103C9000FF2009F4DFC080915C02E83CF10508F0E8
:103CA0009BC0282F207F09F052C0561313C0491320
:103CB00011C0FE2CE1100EC08F70806180935C02F9
:103CC0000E94891DC6010E94C81C80915C02F801F7
:103CD000858358C1AB2831F05F3F31F481E04F3F1D
:103CE00019F403C081E001C080E080FD03C081E0E1
:103CF0008E2502C080E090E0F82FF170FF2E80FF4B
:103D00001CC0809125022091260236E0821709F41A
:103D100017C190E0389FF001399FF00D1124E95D43
:103D2000FD4F6181561306C06081461303C0628156
:103D3000E61203C001968770E9CFFE2CEE2009F44D
:103D400021C180915C02816080935C025AC056134D
:103D500006C0491304C0E11002C0F8019FC04D879E
:103D60005E878D859E850E94441D882379F1EE2013
:103D700069F120915C02822F82958F7090E002970A
:103D800074F0809157029091580298878F8319861A
:103D9000BB86AA862C87CE0107960E94C81C86E0A7
:103DA000F801A7E5B2E001900D928A95E1F70E9433
:103DB000971D0E94891D0DC0561729F14D875E87FA
:103DC0008D859E850E94441D81112CC0C8010E94D2
:103DD000C81CFF24F394D6C0282F207F69F77A2DC2
:103DE000B98AA88A6E2D89890E94491D87E592E0CB
:103DF0000E94C81C86E0F60111928A95E9F70E949C
:103E0000891DF12CBFC04913D9CFE110D7CFF801DC
:103E10008583C8010E94C81C86E0F60111928A952C
:103E2000E9F7B0C0EE2091F220915C02822F8295DA
:103E30008F7090E002970CF4B2CF8091570290916E
:103E400058029A8389831B82BD82AC822E83CE0165
:103E50000196A3CFE83CF10508F047C0FE2CEE2008
:103E600009F4B4CF561330C049132EC020915C0220
:103E700020FD21C0822F82958F70482F50E0411580
:103E80005105C9F0F80125834F30510541F08F5F8E
:103E9000982F9295907F822F8F70892B8583C801F0
:103EA0000E94C81C86E0F801A7E5B2E001900D92DF
:103EB0008A95E1F742C086E0F801A7E5B2E00190FB
:103EC0000D928A95E1F75EC04D875E878D859E8550
:103ED0000E94441D811163CF80915C0281608093B8
:103EE0005C02C8010E94C81C4DC07A2DB98AA88AFC
:103EF0006E2D89890E94491D86E0F60111928A95EE
:103F0000E9F71BC0EE2009F461CF4D875E878D85F0
:103F10009E850E94441DF82E882309F457CF86E021
:103F2000F801A7E5B2E001900D928A95E1F787E5E7
:103F300092E00E946E190E94971D0E94891D22C066
:103F40004D875E878D859E850E94A722292F229509
:103F50002F70223028F49F7039F0811105C00BC0FA
:103F6000243028F49F7049F4805E883020F0C80126
:103F70000E94C81C9F2CF92C05C0F8019581907FE8
:103F800099F7F9CF8F2D61960FB6F894DEBF0FBE6B
:103F9000CDBFDF91CF911F910F91FF90EF90DF90F8
:103FA000CF90BF90AF909F9008951F93CF93DF93D2
:103FB000CDB7DEB72C970FB6F894DEBF0FBECDBFDE
:103FC0004F83588769877A878B879C87CE010796AE
:103FD0000E94031E8823D1F09F8188852A853B8516
:103FE000232B31F08F3F31F481E09F3F19F403C060
:103FF00081E001C080E080FD47C04F815885698520
:104000007A858B859C850E94581D3EC086E0FE0106
:104010003796DE01119601900D928A95E1F7FF81A6
:10402000E8856A857B856115710531F0EF3F31F4D4
:1040300081E0FF3F19F403C081E001C080E080FD12
:1040400023C02091260230E0C9010196877099278C
:104050004091250250E084179507F1F1F983EA8336
:104060007D836C8396E0929FD001939FB00D1124C5
:10407000A95DBD4FFE01319601900D929A95E1F731
:10408000809326020E94681D16E08091250290917F
:104090002602891771F1189FC0011124895D9D4F77
:1040A0000E94031E882329F1E09125021E9FF00142
:1040B0001124E95DFD4F40815181628173818481CA
:1040C00095810E94581D8091250290E0019687708D
:1040D000992780932502D9CF0E941C1D1092260299
:1040E00010922502E7E5F2E086E0DF011D928A9555
:1040F000E9F72C960FB6F894DEBF0FBECDBFDF9167
:10410000CF911F910895EF92FF920F931F93CF933A
:10411000DF938C01892B09F46CC0F12CEE24E3941D
:10412000E8012196F8018491843740F4843008F046
:1041300051C0813081F0823019F15BC0853709F4BC
:1041400044C0A8F19CE7980F903708F052C08F77D1
:104150000E941B1A41C00E5F1F4FFE01849190E226
:10416000980F983050F48770FE2D01C0FF0F8A958C
:10417000EAF78F2F0E940C2314C00E9474192DC0DF
:104180000E5F1F4FFE01849190E2980F983060F40B
:104190008770FE2D01C0FF0F8A95EAF78F2F0E94CE
:1041A00012230E94372319C00E941B1A16C00E5FEB
:1041B0001F4FFE01C491CC2381F08FE99FE001974E
:1041C000F1F700C00000C150F6CF0E5F1F4FFE0197
:1041D000F49003C00E9474198E018F2D882309F476
:1041E0009FCFEFE9FFE03197F1F700C00000815069
:1041F000F5CFDF91CF911F910F91FF90EF90089530
:10420000089508950C9401210C9402210E94042128
:1042100060937002709371028093720290937302A4
:104220000C94061D0C9406210F931F9300917002AD
:10423000109171022091720230917302602B712BE8
:10424000822B932B1F910F910C9406210F931F9398
:1042500000917002109171022091720230917302EC
:1042600060237123822393231F910F910C940621C5
:104270000F931F93009170021091710220917202AE
:104280003091730260277127822793271F910F9126
:104290000C9406210C9401210E944A2160936C0227
:1042A00070936D0280936E0290936F020C94061DC2
:1042B00060E070E0CB010C944C210F931F9341E020
:1042C00050E060E070E08A019B0104C0000F111F04
:1042D000221F331F8A95D2F7C901B8011F910F9190
:1042E0000C944C210F931F9341E050E060E070E08C
:1042F00004C0440F551F661F771F8A95D2F780911F
:104300006C0290916D02A0916E02B0916F028A01D1
:104310009B01082B192B2A2B3B2BC901B8011F919C
:104320000F910C944C210F931F9341E050E060E0FB
:1043300070E004C0440F551F661F771F8A95D2F79F
:10434000409550956095709580916C0290916D02AA
:10435000A0916E02B0916F028A019B01082319237C
:104360002A233B23C901B8011F910F910C944C21C2
:104370000F931F9341E050E060E070E004C0440FF1
:10438000551F661F771F8A95D2F780916C02909116
:104390006D02A0916E02B0916F028A019B01082705
:1043A00019272A273B27C901B8011F910F910C94A7
:1043B0004C210F931F9300916C0210916D0220917C
:1043C0006E0230916F02602B712B822B932B1F9109
:1043D0000F910C944C210F931F9300916C0210913C
:1043E0006D0220916E0230916F026023712382234F
:1043F00093231F910F910C944C210F931F930091C5
:104400006C0210916D0220916E0230916F02602754
:104410007127822793271F910F910C944C210895A7
:10442000990F990F890FE82FE695E695E695877025
:1044300051E001C0550F8A95EAF785E0E89FF00149
:104440001124E35AFD4F20E030E070E04081CB01C1
:10445000022E02C0969587950A94E2F781708195A5
:1044600084278523842781932F5F3F4F2530310593
:1044700069F70895990F990F890F682F66956695CA
:104480006695982F977085E0689FB001112440E0F1
:1044900050E080E0FB01E40FF51FE35AFD4F20815F
:1044A00030E0092E02C0369527950A94E2F7217074
:1044B0003327042E01C0220F0A94EAF7822B4F5FA4
:1044C0005F4F4530510531F70895BF92CF92DF928B
:1044D000EF92FF920F931F93CF93DF938C01C090C5
:1044E0006C02D0906D02E0906E02F0906F028091AD
:1044F000700290917102A0917202B0917302C82A69
:10450000D92AEA2AFB2ACFE1D0E0D701C6010C2E36
:1045100004C0B695A795979587950A94D2F780FD24
:1045200004C0219790F7B12C07C0BC2EB8018C2F86
:104530000E94490A0197A9F38B2DDF91CF911F911A
:104540000F91FF90EF90DF90CF90BF900895CF93A1
:10455000DF93EC010E946522BE010E94490ADF91AF
:10456000CF9108951F93CF93DF93EB019091240295
:10457000992321F0CB010E94A72213C0882349F080
:10458000CB010E946522182F682FCE010E941022B5
:1045900004C0CB010E943A22182FBE01812F0E9435
:1045A000490ADF91CF911F910895809174028595FA
:1045B00085958595089580917402877008959091EE
:1045C0007402977081E009F480E008958091800280
:1045D000089590918002892B8093800208958095A0
:1045E0009091800289238093800208951092800226
:1045F000089580917F02089590917F02892B809386
:104600007F020895809590917F02892380937F0295
:10461000089510927F02089590917E02892B8093D5
:104620007E020895809590917E02892380937E0278
:10463000089510927E02089580917502089508955C
:104640000C941F230C94202390917502981721F04D
:10465000809375020C94222308958091750288231B
:1046600029F01092750280E00C9422230895E091C5
:104670003F01F0914001809180028083E0913F01F1
:10468000F0914001908180917F02892B8083E0919D
:104690003F01F0914001908180917E02892B8083BF
:1046A00080917502882381F0E0913F01F0914001F3
:1046B0009081892B808380913F01909140010E94DD
:1046C000462481110E942D2380913F019091400149
:1046D0000C94E3170C941F2398E0899F90011124F8
:1046E000262B209374020E9472218091740285957A
:1046F000859585950C946A231092740280E00C9441
:104700006A23209174028095822380937402982FEB
:10471000977079F430E0482F082E000C550B2417C1
:10472000350739F08595859585950E9493210C94E0
:104730007C2308959093F3018093F201089580E023
:1047400090E00E947C3021E08C3E9E4F09F020E0FA
:10475000822F089582E090E00C946E3083E090E028
:104760000C946E30CF9384E090E00E946E30C82F9E
:1047700081E290E00E946E302C2F30E0A901582B8E
:10478000CA01CF910895CF93C92F682F84E090E09C
:104790000E9482306C2F81E290E0CF910C948230A5
:1047A000AB01BC018FE090E00C949430AB01BC01F4
:1047B00083E190E00C94943060E070E0CB010C94C5
:1047C000D62360E070E0CB010E94D0230C94DC2360
:1047D0006CEE7EEF80E090E00E94A03060E082E02E
:1047E00090E00E94823060E083E090E00E9482309E
:1047F0001092700210927102109272021092730263
:1048000060E084E090E00E94823060E081E290E02D
:104810000E94823060E085E090E00E94823060E09B
:1048200086E090E00E9482306FEF87E090E00E9487
:10483000823040E050E0BA0188E090E00E9494307D
:1048400060E08DE090E00E94823040E050E0BA01EC
:1048500088E190E00E94943060E087E190E00E945F
:10486000823040E050E0BA018CE190E00E94943048
:1048700060E080E290E00E9482300C94E1230C948E
:10488000E823682F8EE090E00C948230FC01329691
:1048900097E080E0915029F021912223D9F38F5F96
:1048A000F9CF0895662349F0FC01329608962191CC
:1048B000621729F0E817F907D1F780E0089581E041
:1048C00008959C01FC0132969FEF80E041914617CC
:1048D00089F09F3F19F4411101C0982F8F5F8630F6
:1048E000A9F79F3F39F0F901E90FF11D97FDFA95FE
:1048F0006283089508959C012A5F3F4FFC01428125
:10490000461301C01282019682179307B9F70895E2
:104910000C9461240C947B24029626E0FC011192F5
:104920002A95E9F7089508950C9493240C94932400
:10493000CF930E9496240E9443080E949424C0E0D2
:104940008C2F0E94CE07811104C0CF5FC530C1F704
:1049500001C081E0CF9108950C9493240C94AC2471
:104960000E94AE248091C402843009F439C01092B0
:10497000820220E488E190E00FB6F894A895809335
:1049800060000FBE2093600080E00E94A6090E9494
:104990007D108091830281110AC081E0809383029F
:1049A000809194028170809384020E94EB110E9496
:1049B000AE2483B7817F846083BF83B7816083BF68
:1049C0007894889583B78E7F83BF0FB6F894A895A7
:1049D00080916000886180936000109260000FBE3B
:1049E00008950C9493240E941C1D0E94D7170E94C6
:1049F000A609109283028091840281110E9486117F
:104A00000E945B100C94F1241F920F920FB60F922C
:104A100011248F939F93AF93BF9380918202811152
:104A200013C08091BA029091BB02A091BC02B091D8
:104A3000BD024196A11DB11D8093BA029093BB02A5
:104A4000A093BC02B093BD02BF91AF919F918F9193
:104A50000F900FBE0F901F90189582E084BD93E0D9
:104A600095BD9AEF97BD80936E0008952FB7F89487
:104A70008091BA029091BB02A091BC02B091BD029C
:104A80002FBF08952FB7F8946091BA027091BB02BE
:104A90008091BC029091BD022FBF08959C014FB739
:104AA000F8948091BA029091BB02A091BC02B0919F
:104AB000BD024FBF821B930B089578941F920F92F3
:104AC0000FB60F9211248F939F93AF93BF93809152
:104AD000BA029091BB02A091BC02B091BD020196B6
:104AE000A11DB11D8093BA029093BB02A093BC029A
:104AF000B093BD02BF91AF919F918F910F900FBE68
:104B00000F901F90189587E797E79093010880937F
:104B100000089AE088E10FB6F894A89580936000A9
:104B20000FBE90936000FFCF0E949F23811102C0AF
:104B30000E943F240E94AA23809381020E94B223F4
:104B40009093BF028093BE020E94AE23682F70E054
:104B500080E090E00C941221CF93C82F1F928F9386
:104B60008BE097E09F938F930E94C50781E090E0D0
:104B7000A0E0B0E0BC01CD0104C0660F771F881F24
:104B8000991FCA95D2F70E9412210F900F900F9093
:104B90000F90CF910C941C1DCF93DF938B3109F4B0
:104BA000EEC108F08FC18B3009F4B2C108F065C1C5
:104BB000863009F4B0C120F4853009F4BEC161C269
:104BC000873009F4C1C1883009F05BC285E49CE0FC
:104BD0000E942C0786E99BE00E942C070E94AE23CE
:104BE0001F928F9383E99BE09F938F930E94C50749
:104BF00081E99BE00E942C070E94AA23C82F8EE720
:104C00009BE00E942C071F92CF9389E79BE09F9324
:104C10008F930E94C50787E79BE00E942C078DE6D3
:104C20009BE00E942C078C2F81701F928F938AE645
:104C30009BE09F938F930E94C50788E69BE00E94AC
:104C40002C078EE59BE00E942C07C1FB882780F98A
:104C50001F928F938BE59BE09F938F930E94C507D4
:104C600089E59BE00E942C078DE49BE00E942C07C5
:104C7000C2FB882780F91F928F938AE49BE09F9361
:104C80008F930E94C50788E49BE00E942C078FE366
:104C90009BE00E942C07C3FBCC27C0F91F92CF9347
:104CA0008CE39BE09F938F930E94C5078AE39BE070
:104CB0000E942C070E94B223EC0186E29BE00E9436
:104CC0002C07DF93CF9381E29BE09F938F930E9409
:104CD000C5078FE19BE00E942C0786E09BE00E94C5
:104CE0002C078C2F81701F928F9383E09BE09F9302
:104CF0008F930E94C5078DB79EB780960FB6F89424
:104D00009EBF0FBE8DBF81E09BE00E942C078AEE04
:104D10009AE00E942C07C1FB882780F91F928F938D
:104D200087EE9AE09F938F930E94C50785EE9AE0E5
:104D30000E942C0783ED9AE00E942C078D2F817032
:104D40001F928F9380ED9AE09F938F930E94C507E7
:104D50008EEC9AE00E942C078CEB9AE00E942C07C4
:104D6000D695D1701F92DF9389EB9AE09F938F9332
:104D70000E94C50787EB9AE00E942C0785EA9AE01B
:104D80000E942C07C2FB882780F91F928F9382EA2A
:104D90009AE09F938F930E94C50780EA9AE00E9451
:104DA0002C078EE89AE00E942C07C3FB882780F925
:104DB0001F928F938BE89AE09F938F930E94C50771
:104DC00089E89AE00E942C078FE79AE00E942C075E
:104DD000C4FB882780F91F928F938CE79AE09F93FA
:104DE0008F930E94C5078AE79AE00E942C0788E605
:104DF0009AE00E942C07C5FB882780F91F928F93A9
:104E000085E69AE09F938F930E94C50783E69AE018
:104E10000E942C0787E49AE00E942C07C6FB882793
:104E200080F91F928F9384E49AE09F938F930E945E
:104E3000C5078DB79EB780960FB6F8949EBF0FBE7C
:104E40008DBF82E49AE00E942C078AE39AE00E94D8
:104E50002C07C7FBCC27C0F91F92CF9387E39AE0BA
:104E60009F938F930E94C50785E39AE00E942C07C9
:104E70000F900F900F900F9049C0803109F4A9C096
:104E800020F48E3009F48FC0FCC0863109F4BCC018
:104E9000893109F0F6C088E698E00E942C078DE37E
:104EA00098E00E942C0783E098E00E942C0781ED97
:104EB00097E00E942C0784EA97E00E942C0789E77C
:104EC00097E084C08A32E1F060F4873209F4D5C0FB
:104ED00028F48E3108F4D5C08D51D0C0893269F1E3
:104EE000D0C0833448F48A3308F0C5C0853309F450
:104EF000C4C0883369F0C5C0833409F4BEC0C1C0E2
:104F000084E39CE00E942C070E943F24C1E0BEC0C5
:104F100082E998E05BC080918102817F8E7F8093DF
:104F2000810287E798E00E942C0780E39CE00E94C2
:104F30002C0781E080938502E9CF84E19CE00E9408
:104F40002C070E94B009E2CF80918102C82FC09542
:104F5000C170C0FB80F980938102CC2329F088E0E6
:104F60009CE00E942C0792C08BEF9BE00E942C07D4
:104F700080918102897F877F80938102C7CF909142
:104F8000810291FBCC27C0F981E0C827892FC0FBA3
:104F900081F980938102CC2319F08EEE9BE029C029
:104FA00080EE9BE013C09091810292FBCC27C0F968
:104FB00081E0C827892FC0FB82F980938102CC232E
:104FC00019F081ED9BE015C081EC9BE00E942C075D
:104FD0009DCF9091810293FBCC27C0F981E0C82737
:104FE000892FC0FB83F980938102CC2351F085EB9C
:104FF0009BE00E942C078091810281608093810256
:1050000045C088EA9BE0E2CF8BE697E00E942C0740
:105010000E94D7171F928F9381E597E09F938F93FC
:105020000E94C50780914B011F928F938AE397E0FE
:105030009F938F930E94C507809192021F928F9336
:1050400087E297E09F938F930E94C5070E944225B5
:105050009F938F937F936F9380E197E09F938F93BC
:105060000E94C5078DB79EB742960FB6F8949EBFB3
:105070000FBE8DBF4BCF895301C080E00E94AC258D
:1050800045CF86EA9BE00E942C07C0E08C2FDF9181
:10509000CF91089580E008950C944A28CF93C82FAB
:1050A00080918502882319F0813031F038C00E9448
:1050B000E6228232B1F504C00E94E622823261F417
:1050C0008C2F0E944C28811104C08C2F0E94CC256B
:1050D00024C081E090E021C08C2F0E944A288111D9
:1050E0001BC0C43189F018F4CB3029F010C0C9328C
:1050F00059F0C83361F487E798E00E942C0787E0F5
:1051000097E00E942C0708C0109285020CC085E031
:1051100097E00E942C0707C081E0817006C01092C2
:10512000850280E002C080E0F8CFCF9108958091A1
:105130009102089508959FB7F894109288029FBF36
:105140009091C402943009F057C09091E9009F708B
:105150003091EC00232F217030FD20E8922B23E0CA
:105160002093E9002091EB0020FF43C02091EE0046
:1051700027FF3FC020918602222321F02091E800E2
:1051800025FF37C01092860226E03091E80035FDF9
:1051900015C03091C402343061F53091EB0035FD1B
:1051A00028C0215021F481E08093860222C0EFE9DB
:1051B000FFE03197F1F700C00000E7CF8093F100E6
:1051C0008091E80085FD0AC08091E80080FFFCCF57
:1051D0008091E8008E778093E80006C08FB7F8943E
:1051E00021E0209388028FBF9F709093E90080E0B8
:1051F00008959F709093E9008FEF0895CF93DF9308
:1052000000D01F92CDB7DEB79091C402943019F54B
:1052100089837B836A8382E08093E9008FEF90919A
:10522000E800815095FD06C095ED9A95F1F70000D4
:105230008111F5CF8091E80085FF0DC040E050E07E
:1052400063E070E0CE0101960E947C2B8091E80023
:105250008E778093E8000F900F900F90DF91CF91A1
:105260000895CF93DF93EC010E945F2B823011F001
:10527000843031F4BE0184E0DF91CF910C94FE289C
:10528000DF91CF910895BC0183E00C94FE28CF9369
:10529000DF93EC010E945F2B823011F0843039F5EE
:1052A00081E08093E9008FEF9091E800815095FDB7
:1052B00006C095ED9A95F1F700008111F5CF809128
:1052C000E80085FF14C040E050E068E070E0CE01E7
:1052D0000E947C2B8091E8008E778093E80088E024
:1052E000FE01A9E8B2E001900D928A95E1F7DF9105
:1052F000CF91089585E79CE00E942C078091C3021E
:10530000811109C00E940D2D0E946A2D8091E2003A
:1053100084608093E200089581E79CE00E942C075E
:105320001092C30208958DE69CE00C942C0789E648
:105330009CE00C942C0785E69CE00E942C070C94C2
:10534000F324209187022F5F822F62E30E9419309D
:10535000992319F020938702089510928702809173
:105360008802882371F18091C402843041F58091D4
:10537000E9008F702091EC00922F917020FD90E851
:10538000892B93E09093E9009091EB0090FF14C07B
:105390009091EE0097FF10C09091E80095FF03C038
:1053A0001092F100F9CF9091E80090FF05C0909124
:1053B000E8009E779093E8008F708093E900109248
:1053C0008802089542E061EC81E00E94862C42E26E
:1053D00061EC82E00E94862C42E261EC83E00C9456
:1053E000862C8091C602833009F460C030F481308D
:1053F00071F0823009F499C008958A3009F485C0AB
:105400008B3009F46BC0893009F0A7C020C08091AF
:10541000C502813A09F0A1C08091E800877F80939E
:10542000E8008091C9029091CA02892B21F468E0BA
:1054300089E892E003C060E080E090E070E00E94C4
:10544000C72B8091E8008B778093E80008958091C6
:10545000C502813209F081C08091C9029091CA02CF
:10546000029708F07AC08091E800877F8093E80077
:105470008091E80082FD05C08091C4028111F8CFBF
:105480006CC02091F3008091F20090E0922B029783
:1054900029F48091F1008B7F813021F48091F1001B
:1054A000809391028091E8008B7753C08091C50270
:1054B000813A09F052C08091C9029091CA02892BA9
:1054C00009F04BC08091E800877F8093E8008091CD
:1054D000E80080FFFCCF80914B0136C08091C5026F
:1054E0008132D9F58091C9029091CA02892BA9F520
:1054F0008091E800877F8093E8000E94BB2C809118
:10550000C70280934B010C941C1D8091C50281320F
:1055100021F58091E800877F8093E8000E94BB2CF2
:105520008091C8028093920208958091C502813AC9
:10553000A1F48091E800877F8093E8008091E800E3
:1055400080FFFCCF809192028093F1008091E8006F
:105550008E778093E8000C94BB2C089584B7877FE6
:1055600084BF0FB6F894A8958091600088618093FD
:105570006000109260000FBE90E080E80FB6F894D3
:1055800080936100909361000FBE0E9468180E9492
:105590000D2D0E946A2D8091E20084608093E200CC
:1055A0008BE998E20E949A2378940E94FE2F0E9431
:1055B000721881E491E00E94D21784E59CE00E9479
:1055C0002C078091C402853089F480E59CE00E941C
:1055D0002C070E94B0248091C202882391F30E947C
:1055E0009824882371F30E94662BEBCF0E94A618A3
:1055F000E8CF0C94FB2A292F332723303105C9F03B
:1056000060F42130310581F02230310509F047C0C6
:105610008BE590E02DEA3CE046C02132310511F1E6
:105620002232310561F13BC082E190E028E03DE0AB
:105630003AC099278130910561F040F082309105A0
:1056400059F0039761F5E9E7FCE008C0E9EAFCE0FE
:1056500005C0EDE8FCE002C0EFE7FCE0849190E0DB
:105660009F0121C063307105D0F4660F771FFB01E5
:10567000E451FE4F2081318189E090E014C0633015
:10568000710568F4FB01EE0FFF1FEA51FE4F208108
:105690003181FB01ED51FE4F808190E004C080E03C
:1056A00090E020E030E0FA0131832083089580917A
:1056B000C402843011F081E0089582E00895809161
:1056C0009302811102C00C94572B089580E189BD8B
:1056D00082E189BD09B400FEFDCF8091D8008F7DA5
:1056E0008093D8008091E00082608093E0008091F8
:1056F000E00081FDFCCF0895CF92DF92EF92FF9200
:105700000F931F93CF93DF93EC018B017A010E94DB
:10571000DA2C811133C0E114F10439F0F7018081F2
:105720009181081B190BC80FD91FC12CD12C011551
:10573000110519F18091E80085FD16C08091E800FF
:105740008E778093E800E114F10449F0F70180813D
:105750009181C80ED91ED182C08285E00FC00E94FF
:10576000DA2C882321F30AC089918093F10001503B
:105770001109FFEFCF1ADF0ADACF80E0DF91CF9176
:105780001F910F91FF90EF90DF90CF90089520919F
:10579000CB023091CC022617370748F0611571050E
:1057A00039F42091E8002E772093E80001C0B90178
:1057B000FC0120E06115710579F18091C402882314
:1057C000F1F18530F1F18091E80083FD3CC08091DA
:1057D000E80082FD2EC08091E80080FFEBCF209191
:1057E000F3008091F20090E0922B6115710551F069
:1057F0008830910538F421912093F10061507109AE
:105800000196F3CF21E0089709F020E08091E800AD
:105810008E778093E800CECF2111CFCF0AC0809140
:10582000C402882361F0853061F08091E80083FD37
:105830000AC08091E80082FFF2CF80E0089582E004
:10584000089583E0089581E008952091CB0230917E
:10585000CC022617370748F06115710539F42091FD
:10586000E8002E772093E80001C0B901FC0120E098
:105870006115710591F18091C402882309F440C03B
:10588000853009F43FC08091E80083FD3DC08091E0
:10589000E80082FD2FC08091E80080FFE9CF2091D1
:1058A000F3008091F20090E0922B6115710559F0A0
:1058B0008830910540F424912093F1003196615095
:1058C00071090196F2CF21E0089709F020E080915C
:1058D000E8008E778093E800CBCF2111CCCF0AC0AF
:1058E0008091C402882361F0853061F08091E800E6
:1058F00083FD0AC08091E80082FFF2CF80E0089526
:1059000082E0089583E0089581E00895982F97300C
:1059100068F59093E900981739F07091EC002091A8
:10592000ED005091F00003C0242F762F50E021FDB0
:1059300002C09F5FECCF3091EB003E7F3093EB00D5
:105940003091ED003D7F3093ED003091EB00316000
:105950003093EB007093EC002093ED005093F00037
:105960002091EE0027FDE5CF80E008958F708093B1
:10597000E90081E008958091C50287FF11C0809100
:10598000E80082FD05C08091C4028111F8CF11C0EA
:105990008091E8008B770BC08091C402882349F086
:1059A0008091E80080FFF8CF8091E8008E778093A7
:1059B000E80008952091E4003091E50095E64091DB
:1059C000EC00842F817040FF23C08091E80080FDAF
:1059D0001DC08091C402882399F0853099F0809190
:1059E000EB0085FD11C04091E4005091E5002417C3
:1059F000350729F3915011F09A01E1CF84E0089521
:105A000082E0089583E0089581E0089580E008959C
:105A10004091E80042FFDDCF08950E947B2D0E9457
:105A2000832DE0EEF0E0808181608083E8EDF0E09E
:105A300080818F77808319BCA7EDB0E08C918E7F39
:105A40008C9380818F7E80831092C30208950F9380
:105A50001F93CF93DF930E947B2D0E94832DC8ED6F
:105A6000D0E088818F778883888180688883888167
:105A70008F7D888319BC1092C4021092C0021092CC
:105A8000C2021092C10200EE10E0F80180818B7F0B
:105A9000808388818160888342E060E080E00E94AA
:105AA000862CE1EEF0E080818E7F8083E2EEF0E0F4
:105AB000808181608083808188608083F80180811B
:105AC0008E7F8083888180618883DF91CF911F9151
:105AD0000F910895E8EDF0E080818F7E8083E7EDFF
