:100000000C94DA060C9421070C9421070C94210718
:100010000C9421070C9421070C9421070C942107C0
:100020000C9421070C9421070C94E02E0C94B22F11
:100030000C940C260C9421070C9421070C94210796
:100040000C9421070C9421070C9421070C94210790
:100050000C9421070C9480260C9421070C94210702
:100060000C9421070C9421070C9421070C94210770
:100070000C9421070C9421070C9421070C94210760
:100080000C9421070C9421070C9421070C94210750
:100090000C9421070C9421070C9421070C94210740
:1000A0000C9421070C9421070C94210794139713A7
:1000B0009C13A313A813AD13B213B713BC13C1132E
:1000C000C613CB13CF13D213D513D813DB13E213FC
:1000D000E213E213EB1BEB1B1D1C1D1C6A1C9E1D77
:1000E0009E1D9E1D881C1D1D2E1D2E1D8E1D9E1DC0
:1000F0009E1D971D2E1E2E1E401E401E371E401E8A
:10010000401E401E2E1E2E1E3C1E401E401E3C1E2B
:100110001F3046303E3146303E319230B5303E31B0
:100120000C311B310400050006000700080009001F
:100130000A000B000C000D000E000F001000110053
:100140001200005716001900000000000100C35CF7
:10015000C45CC25CCA5CC95CC65CC55CC85CC75C8C
:100160000100010001000100005C015700000000D7
:100170000000000044454255473A206469736162BB
:100180006C65642E0A0044454255473A20656E610D
:10019000626C65642E0A007267626C69676874201D
:1001A00074696D65722064697361626C652E0A0002
:1001B0007267626C696768742074696D6572206526
:1001C0006E61626C65642E0A007267626C696768B2
:1001D000742073657420687376205B4E4F454550DC
:1001E000524F4D5D3A2025752C25752C25750A003A
:1001F0007267626C696768742073657420687376CF
:10020000205B454550524F4D5D3A2025752C257594
:100210002C25750A007267626C69676874206469CE
:100220007361626C65205B4E4F454550524F4D5D8A
:100230003A207267626C696768745F636F6E6669A3
:10024000672E656E61626C65203D2025750A00721F
:1002500067626C696768742064697361626C6520A9
:100260005B454550524F4D5D3A207267626C69673D
:1002700068745F636F6E6669672E656E61626C6538
:10028000203D2025750A007267626C6967687420DA
:10029000656E61626C65205B4E4F454550524F4D17
:1002A0005D3A207267626C696768745F636F6E663F
:1002B00069672E656E61626C65203D2025750A00B8
:1002C0007267626C6967687420656E61626C652034
:1002D0005B454550524F4D5D3A207267626C6967CD
:1002E00068745F636F6E6669672E656E61626C65C8
:1002F000203D2025750A007267626C69676874206A
:10030000746F67676C65205B454550524F4D5D3A91
:10031000207267626C696768745F636F6E66696795
:100320002E656E61626C65203D2025750A0072673E
:10033000626C69676874206D6F6465205B4E4F4521
:100340004550524F4D5D3A2025750A007267626C28
:1003500069676874206D6F6465205B454550524F36
:100360004D5D3A2025750A007267626C6967687492
:100370005F696E6974207267626C696768745F6335
:100380006F6E6669672E6D6F6465203D20302E208C
:1003900057726974652064656661756C7420766156
:1003A0006C75657320746F20454550524F4D2E0A71
:1003B000007267626C696768745F696E6974206552
:1003C00065636F6E666967206973206E6F74206560
:1003D0006E61626C65642E0A007267626C696768A0
:1003E000745F696E6974207374617274210A00729B
:1003F00067626C696768745F696E69742063616CB9
:100400006C65642E0A007267626C696768745F636A
:100410006F6E6669672E7370656564203D20256484
:100420000A007267626C696768745F636F6E666901
:10043000672E76616C203D2025640A007267626C2D
:10044000696768745F636F6E6669672E7361742095
:100450003D2025640A007267626C696768745F6397
:100460006F6E6669672E687565203D2025640A00F9
:100470007267686C696768745F636F6E6669672E20
:100480006D6F6465203D2025640A007267626C69A7
:100490006768745F636F6E6669672E656E61626C14
:1004A00065203D2025640A007267626C6967687484
:1004B0005F636F6E66696720454550524F4D3A0A3B
:1004C000007F3F1F643214643214783C1E1E140AED
:1004D000052223252628292A2C2D2F303233353684
:1004E000383A3B3D3E4042434547494A4C4E5051C5
:1004F000535557595A5C5E6062646668696B6D6FEC
:1005000071737577797B7D7F81838587898A8C8EEE
:1005100090929496989A9C9E9FA1A3A5A7A8AAACF6
:10052000AEAFB1B3B4B6B8B9BBBCBEBFC1C2C3C530
:10053000C6C7C9CACBCCCDCED0D1D2D2D3D4D5D6D2
:10054000D7D7D8D9D9DADADBDBDBDCDCDCDCDCDD05
:10055000DDDDDDDCDCDCDCDCDBDBDBDADAD9D9D8E9
:10056000D7D7D6D5D4D3D2D2D1D0CECDCCCBCAC981
:10057000C7C6C5C3C2C1BFBEBCBBB9B8B6B4B3B1B0
:10058000AFAEACAAA8A7A5A3A19F9E9C9A9896944B
:1005900092908E8C8A89878583817F7D7B79777520
:1005A00073716F6D6B6968666462605E5C5A5957FF
:1005B000555351504E4C4A4947454342403E3D3BBE
:1005C0003A3836353332302F2D2C2A292826252348
:1005D00022000101010101010101010202020202E6
:1005E00002020202030303030303030304040404DB
:1005F00004040405050505050606060606070707A3
:10060000070708080808090909090A0A0A0B0B0B59
:100610000C0C0C0D0D0D0E0E0E0F0F0F10101111F6
:10062000111212131314141515161617171818197A
:10063000191A1A1B1B1C1D1D1E1E1F2020212222E1
:10064000232424252626272829292A2B2C2D2D2E24
:100650002F30313232333435363738393A3B3C3D3E
:100660003E3F404142434445464748494A4C4D4E2F
:100670004F50515354555658595A5B5D5E5F6162F5
:1006800064656668696B6C6D6F7072737577787A84
:100690007B7D7E8082838587888A8C8E8F919395DF
:1006A00096989A9C9EA0A2A3A5A7A9ABADAFB1B303
:1006B000B5B7BABCBEC0C2C4C6C9CBCDCFD1D4D6E3
:1006C000D8DBDDDFE2E4E7E9EBEEF0F3F5F8FAFD85
:1006D000FF0A002530325820006B6579626F617225
:1006E000645F7265706F72743A20000A00253032C0
:1006F00058006B6579626F6172645F7365745F6CDB
:1007000065643A20003F00433E20004C25640A0007
:1007100074696D65725F72656164333228293A20AD
:100720002530346C580A006B6579626F6172645FC2
:1007300069646C653A2025580A006B6579626F61BF
:1007400072645F70726F746F636F6C3A2025580A21
:1007500000686F73745F6B6579626F6172645F6C60
:1007600065647328293A2025580A000A092D205368
:100770007461747573202D0A004743433A20352E67
:10078000342E30204156522D4C4942433A20322ECD
:10079000302E30204156525F415243483A20617614
:1007A00072350A004F5054494F4E533A204C55462B
:1007B000412045585452414B455920434F4E534FC9
:1007C0004C4520434F4D4D414E4420343039360A7C
:1007D000004255494C443A2022302E372E313036D3
:1007E0002D34392D6766323264316522202832304B
:1007F0003A34363A3238204A616E20203620323080
:100800003230290A005649443A203078464545445A
:10081000284A6F7368204A6F686E736F6E29205084
:1008200049443A20307838463733284875623136A3
:1008300029205645523A203078303030310A004471
:100840004553433A204D6163726F205061642077B5
:10085000697468205553422048756220616E642097
:10086000456E636F646572730A000A092D20566530
:100870007273696F6E202D0A000A092D20436F6E76
:10088000736F6C65202D0A4553432F713A097175BA
:1008900069740A000A092D204D61676963202D0AD9
:1008A000443A094465627567204D657373616765F5
:1008B00020546F67676C650A583A094D6174726914
:1008C00078204465627567204D6F646520546F67BA
:1008D000676C65202D2053686F77206B6579707287
:1008E000657373657320696E206D61747269782019
:1008F000677269640A4B3A094B6579626F61726489
:1009000020446562756720546F67676C65202D20F1
:1009100053686F77206B65797072657373207265A9
:10092000706F72740A4D3A094465627567204D6FA5
:1009300075736520546F67676C650A563A0956658A
:100940007273696F6E0A533A095374617475730A4E
:10095000433A09416374697661746520436F6E732D
:100960006F6C65204D6F64650A46312D4631303A13
:100970000953776974636820746F204C61796572DC
:1009800020302D392028463130203D204C30290A96
:10099000302D393A0953776974636820746F204C9D
:1009A0006179657220302D390A47524156453A091E
:1009B00053776974636820746F204C617965722085
:1009C000302028616C7465726E617465290A423A40
:1009D000094A756D7020746F20426F6F746C6F617F
:1009E0006465720A4553433A094A756D7020746F05
:1009F00020426F6F746C6F616465722028616C7443
:100A000065726E617465290A453A095072696E749F
:100A100020454550524F4D2053657474696E67737D
:100A20000A4253504143453A09436C65617220457F
:100A30004550524F4D0A000A002575002E6E6B720C
:100A40006F3A20000A002575002E737761705F628F
:100A500061636B736C6173685F6261636B73706118
:100A600063653A20000A002575002E737761705F78
:100A700067726176655F6573633A20000A002575C9
:100A8000002E6E6F5F6775693A20000A00257500B9
:100A90002E737761705F72616C745F726775693A0B
:100AA00020000A002575002E737761705F6C616C01
:100AB000745F6C6775693A20000A002575002E7313
:100AC0007761705F7263746C5F726775693A20005A
:100AD0000A002575002E737761705F6C63746C5F1C
:100AE0006C6775693A20000A002575002E636170F5
:100AF000736C6F636B5F746F5F636F6E74726F6C38
:100B00003A20000A002575002E737761705F636FCD
:100B10006E74726F6C5F636170736C6F636B3A209D
:100B2000000A0025303258006B65796D61705F6393
:100B30006F6E6669672E7261773A20000A0025752C
:100B4000002E6D6F7573653A20000A002575002E22
:100B50006B6579626F6172643A20000A0025750046
:100B60002E6D61747269783A20000A002575002E96
:100B7000656E61626C653A20000A002530325800CB
:100B800064656275675F636F6E6669672E72617711
:100B90003A20000A0025750064656661756C745F13
:100BA0006C617965723A20003F000A6D6F7573655C
:100BB0003A206F66660A000A6D6F7573653A206F9A
:100BC0006E0A000A6B6579626F6172643A206F6623
:100BD000660A000A6B6579626F6172643A206F6E13
:100BE0000A000A6D61747269783A206F66660A00BD
:100BF0000A6D61747269783A206F6E0A000A646542
:100C00006275673A206F66660A000A6465627567F6
:100C10003A206F6E0A000A0A4A756D70696E672085
:100C2000746F20626F6F746C6F616465722E2E2E0C
:100C30002000433E2000436C656172696E67204569
:100C40004550524F4D0A006565636F6E6669673A9D
:100C50000A005B735D004B6579626F61726420739B
:100C6000746172742E0A005B575D005B535D005B1C
:100C7000525D005B445D005B435D00040330000097
:100C8000000C034800750062003100360000001AB5
:100C9000034A006F007300680020004A006F00687C
:100CA000006E0073006F006E000000040309040969
:100CB000025B00030100A0FA090400000103010126
:100CC00000092111010001224000070581030800ED
:100CD0000A090401000103000000092111010001BB
:100CE0002236000705820320000A090402000203DD
:100CF00000000009211101000122220007058303E1
:100D0000200001070503032000011201100100006B
:100D10000008EDFE738F0100010203010631FF0997
:100D200074A1010975150026FF0095207508810240
:100D30000976150026FF00952075089102C005016F
:100D40000980A10185031A81002A8300160100266B
:100D50000300950175108100C0050C0901A10185F2
:100D6000041A01002A9C02160100269C02950175B6
:100D7000108100C005010906A101050719E029E756
:100D800015002501950875018102950175088101FD
:100D90000507190029FF150026FF00950675088133
:100DA0000005081901290595057501910295017540
:100DB000039101C011241FBECFEFDAE0DEBFCDBF2B
:100DC00004B603FE27C080916D0290916E02A0913F
:100DD0006F02B09170028730904BA740B04BD1F4B6
:100DE00010926D0210926E0210926F0210927002B9
:100DF00014BE84B7877F84BF0FB6F894A8958091FE
:100E00006000886180936000109260000FBEE0E097
:100E1000F8E3099511E0A0E0B1E0E0E2F4E602C0F9
:100E200005900D92AE38B107D9F722E0AEE8B1E0F7
:100E300001C01D92AD36B207E1F70E94042C0C945C
:100E40000E320C940000FF93EF93E0918E01F0912D
:100E50008F01309709F00995EF91FF910895FC01FA
:100E60008591803011F0EFDFFBCF0895FF27E0E29E
:100E700030E247FF0CC0419597FF09C0EDE2609555
:100E8000709580959095611D711D811D911D27FFA5
:100E900002C0219530E350E2AA27660F771F881F12
:100EA000991FAA1FA41710F0A41B63955A95A9F7C0
:100EB000AA3008F0A95FA05DAF93F39561157105A5
:100EC0008105910541F7ED3211F4EF93F395F21797
:100ED00018F43F93F395FBCF8F91B5DFFA95E1F7C7
:100EE0000895E991F9918591803021F0853219F0CA
:100EF000AADFF9CF089520E0E89455915532C1F367
:100F0000503311F4689455915A3348F4505390F388
:100F1000220F022E220F220F200D250FF4CF0EF4E8
:100F2000219589919991533619F3533729F1533506
:100F300059F1BC0188279927E8945C3621F48991FE
:100F4000999168945591543639F446EF7EF077FFC5
:100F50000DC08FEF9FEF0AC055374AE039F0583582
:100F600040E121F0523642E009F00895FF93EF93FB
:100F70007DDFEF91FF91B7CFFF93EF93FC0181915C
:100F80008030B9F360DFFBCFFF93EF9368DFF1CFE1
:100F9000DF93CF93CDB7DEB72596A3DFCF91DF9157
:100FA0000895E82FF0E0EE56FE4F80810895CF932C
:100FB000DF93AEE4B1E043E551E061E070E08D9194
:100FC000E82FE295EF70F0E021A18F70EB0102C0F5
:100FD000CC0FDD1F8A95E2F7CE019C2F90959223CE
:100FE00091A392A1892B82A34A175B0741F7AAE438
:100FF000B1E04EE451E061E070E08D91E82FE295C0
:10100000EF70F0E021A18F70EB0102C0CC0FDD1F6B
:101010008A95E2F7CE019C2F9095922391A392A1FD
:10102000892B82A34A175B0741F7E7E9F1E0A2E9C0
:10103000B1E08CE991E011921D928E179F07D9F7CC
:1010400085E00E94060DDF91CF910C9494095F9288
:101050006F927F928F929F92AF92BF92CF92DF92C8
:10106000EF92FF920F931F93CF93DF936EE471E0A3
:10107000A7E9B1E02CE9A22E21E0B22E612C01E01B
:1010800010E06D015C901C92EB018991BE01E82F8C
:10109000E295EF70F0E021A18F70A80102C0440F2B
:1010A000551F8A95E2F7CA01242B21A322A1942E71
:1010B0009094292122A350EA5A95F1F79AE4E92E57
:1010C00091E0F92E40E050E0E70189907E01282D63
:1010D00022952F7030E0E90128A17C9030E0D82DD6
:1010E000DF7002C035952795DA95E2F720FD08C03C
:1010F000302F042E01C0330F0A94EAF7232F01C0CA
:1011000020E027292C934F5F5F4F44305105E1F6D3
:1011100091A1992291A292A1892B82A3119681E09B
:10112000F6019081951101C080E0682AAA16BB06DD
:1011300009F0A7CF262D45E062E971E087E991E04B
:101140000E94070D40919601109296012091910105
:10115000322F330F3093910180919001982F990F86
:10116000909390012FB1221F2227221F232B20931F
:10117000910189B1881F8827881F892B809390014E
:1011800091E02F3709F090E08F3711F080E001C037
:1011900082E0892B8093960191E0481301C090E092
:1011A000C62DC92B0E949E098C2FDF91CF911F91D4
:1011B0000F91FF90EF90DF90CF90BF90AF909F90F6
:1011C0008F907F906F905F900895879857980895BB
:1011D00008950895811106C0662311F085E109C0C4
:1011E00084E107C0813039F4662311F088E101C041
:1011F00087E10C94981B08959C013A9521153F4175
:1012000038F5DC01AA27B270AC01442754709C0168
:101210002227387094FF0FC090FF02C080E101C008
:1012200080E0AB2B09F08062452B09F08064232B12
:1012300069F080680BC0892F8170AB2B09F0826048
:10124000452B09F08460232B09F08860FB01099489
:101250000895CF93DF93EC01805E9109089710F019
:10126000209719F46BEA7BE102C068EF7DE1CE01C3
:101270000E94FC088C2FDF91CF910C94171ACF930A
:10128000DF93EC010E94391BCE01805E9109089723
:1012900010F0209719F462EB7BE102C06FEF7DE163
:1012A000CE01DF91CF910C94FC0881E0089581E09C
:1012B00008950C9457091F93CF93DF9300D000D06B
:1012C0001F92CDB7DEB749835A836B832091C40147
:1012D00089819A81211112C0662349F00E947C23E2
:1012E000182F682F89819A810E94272303C00E94AA
:1012F0005123182F69817A81812F04C00E947C2399
:1013000069817A810F900F900F900F900F90DF916D
:10131000CF911F910C945F0AFC0140815181628141
:10132000738184810C945B090E94B624811102C0F0
:101330000E9456250E94A4150C94E5080E941A15D7
:101340000E9408160C94E80808950C94A40981E002
:1013500008950C94A709CF93C82F0E94A5098C2F3C
:101360000E94A909CF91089508950E941C1E0E9411
:10137000B4092FEF84E39CE0215080409040E1F7D6
:1013800000C0000087E797E790930108809300086A
:101390000C94A6260F931F93CF93DF938C010E948A
:1013A0008C09EC01B8010E947714B801CE010E94AB
:1013B0005909882309F478C0B801CE010E94BE14EF
:1013C000882309F471C0B801CE010E941117882347
:1013D00009F46AC0B801CE010E945217882309F4AB
:1013E00063C0B801CE010E947D13882309F45CC05C
:1013F000F8018281882339F1C1308CE5D80759F092
:10140000CE3DECE5DE07E1F0C115FCE5DF07D9F4E0
:101410000E94B50949C080912102C82FC095C170B2
:10142000C0FB80F980932102CC2329F086E891E06B
:101430000E942F0739C084E791E00E942F0735C032
:101440000E94562531C0C631DC4539F50E94FD2386
:10145000982FF801828120913D0130913E0188232F
:1014600079F09A7A81E009F480E080939C019111EF
:1014700002C069E201C065E3C9010E9490250AC06B
:1014800080919C01811102C069E201C065E3C9013C
:101490000E9492250E944E2407C0C801DF91CF917F
:1014A0001F910F910C945509C0E08C2FDF91CF91C3
:1014B0001F910F91089580E090E008950895E72F1F
:1014C000F0E095E0899FE00DF11D1124EE0FFF1F64
:1014D000EE0FFF1FE60FF11DEE0FFF1FEC5DFE4F3D
:1014E000859194910895880F991FFC01E956FE4F4C
:1014F000859194910895CF93DF930E945F0A0E9493
:101500002F0CEC0181159045C8F5C11580E4D80772
:1015100008F023C1C03ED105D8F4C03CD10508F085
:101520000BC1C83AD10578F4C53AD10508F09AC084
:10153000C130D10509F48FC108F440C1C430D105D0
:1015400008F089C13BC1CF3BD10508F496C036C134
:10155000C11590E2D90750F4C11521E0D20708F077
:101560007AC1C83ED10508F476C128C1C11580E30F
:10157000D80708F0E8C0CE019F70E1C0C11595E51D
:10158000D90708F043C0C11524E5D20708F0FCC014
:10159000C11582E5D80708F5C11591E5D90708F00E
:1015A000DFC0CE0174E0969587957A95E1F7837058
:1015B0009C2F937021E030E002C0220F331F9A95D8
:1015C000E2F73C68382BCF70C695C69580E2C89F7D
:1015D000E0011124C22BD32B3EC19E01237033277F
:1015E0008C2F86958695C115D34508F0BEC0C1E005
:1015F000D0E002C0CC0FDD1F2A95E2F720E2829FE7
:10160000C0011124C82BD92BDC6825C1C11529E5DF
:10161000D207A0F4C11588E5D80708F0BAC0C115F3
:1016200096E5D90708F0CAC08C2F0E94C30C8F71B1
:10163000C82FD0E0DC2FCC27D0620DC1C1152AE520
:10164000D20708F4ABC0CE0190568115904208F045
:10165000B5C08D2F8F710E94C30CDD27D0628F71B2
:10166000D82BF9C0C53AD10509F4ABC0C63AD105AB
:1016700009F0AAC0C2E8D0E4EEC0C83AD10509F426
:10168000A6C0C93AD10509F4A5C0CA3AD10509F4E2
:10169000A4C0CB3AD10509F4A3C0CC3AD10509F4D2
:1016A000A2C0CB3BD10509F4A1C0CC3BD10509F4C4
:1016B000A0C0CD3AD10509F49FC0C03BD10509F4C3
:1016C0009EC0CE3AD10509F49DC0CF3AD10509F4A8
:1016D0009CC0C13BD10509F49BC0C23BD10509F4B4
:1016E0009AC0C33BD10509F499C0C43BD10509F4A4
:1016F00098C0C53BD10509F497C0C63BD10509F494
:1017000096C0C73BD10509F495C0C83BD10509F483
:1017100094C0C93BD10509F493C0CD3BD10509F470
:1017200092C0CE3BD10509F491C0CA3BD10509F462
:1017300090C0C0E0D4E48FC0CE01805C91090E94CB
:10174000730AEC0188C0CE019927D3FF03C0EC01D6
:10175000D86C81C0EC01D06C7EC0DF70D06A7BC0D9
:10176000DC2FCC27C16FD06A76C0C1E0D0E002C0C8
:10177000CC0FDD1F2A95E2F720E2829FC0011124E1
:10178000C82BD92BDA6867C0DC2FCC27C46FD06A8E
:1017900062C0DC2FCC27C06FD06A5DC08C2F8F70E9
:1017A0000E94C30C94E0D695C7959A95E1F7CF7047
:1017B000D0E0DC2FCC27D069C82B4DC0C0E0D0E0F2
:1017C0004AC0C1E8D0E447C0C3E8D0E444C0C2EE98
:1017D000D4E441C0C9EED4E43EC0CAEED4E43BC078
:1017E000C5EBD4E438C0C6EBD4E435C0C3EBD4E4D5
:1017F00032C0C4EBD4E42FC0C7EBD4E42CC0CCEC93
:10180000D4E429C0CDECD4E426C0C3E8D5E423C099
:10181000CAE8D5E420C0C2E9D5E41DC0C4E9D5E4D6
:101820001AC0C1E2D6E417C0C3E2D6E414C0C4E2D1
:10183000D6E411C0C5E2D6E40EC0C6E2D6E40BC0C1
:10184000C7E2D6E408C0CFE6D4E405C0C0E7D4E4DC
:1018500002C0CAE2D6E4CE01DF91CF91089582386A
:10186000910569F1B0F48133910509F46DC048F434
:101870008932910509F463C08A32910509F469C07F
:1018800008958533910509F455C089339105B9F060
:101890000895833E910569F138F4803E9105B1F0D9
:1018A000823E910509F10895863E9105A9F1873E92
:1018B0009105B9F1843E910509F064C023C02091DF
:1018C0005E0220FD4FC021FD4DC0089580915E0253
:1018D00080FD44C080915F0280FF44C080915E0221
:1018E00084FD42C083EE4DC080915E0282FF38C00D
:1018F000F5CF80915E0282FD33C080915F0280FD52
:1019000031C0ECCF80915F0281FF32C080915E02D6
:1019100084FD2AC087EE35C080915E0283FF26C019
:10192000F5CF80915E0283FD21C080915F0281FD31
:101930001FC0ECCF80915E0285FD1CC01DC0809150
:101940005E0285FD19C016C080915E0286FD16C03C
:1019500017C080915E0286FD13C010C089E311C0DC
:1019600082EE0FC080EE0DC080E00BC086EE09C095
:1019700084EE07C089E205C085E303C08AE201C0A6
:1019800081E390E0089590915E0292FF0DC0282FB0
:101990002871283019F4877F846006C0282F2471AD
:1019A000243011F48B7F886093FF0DC0282F28719D
:1019B000283119F4877E846106C0282F24712431D0
:1019C00011F48B7E886120915F0220FF0DC0382FBB
:1019D0003871383019F4877F816006C0382F317133
:1019E000313011F48E7F886021FF0DC0282F2871BF
:1019F000283119F4877E816106C0282F2171213199
:101A000011F48E7E886194FD877E08950895FF927B
:101A10000F931F93CF93DF938C01F62ED72FC42FF4
:101A2000222349F081E080939F010E943E269093FB
:101A30009E0180939D0180919F018823C1F0809138
:101A40009D0190919E010E945626459780F0EF2DB2
:101A5000FD2FD8014C2F50E0CD01801B910B841736
:101A600095071CF48D918193F7CF10929F01DF9120
:101A7000CF911F910F91FF900895EF92FF920F93D6
:101A80001F93CF93DF93F62E472FE82FF0E07111CD
:101A900006C0EF52FA4F6491762F862F72C0272F1F
:101AA00030E0EF52FA4FE4910E2F10E056E0659FC0
:101AB000C0011124CFEFD0E0BE010E948B315BEA60
:101AC0005603C001579F900D11248F0D911D8F0D4E
:101AD000911D982F990F890F7E01E21AF30AE09E5B
:101AE000D001E19EB00DF09EB00D1124489FA001E1
:101AF0001124452F55277E01E41AF50AE09EA00126
:101B0000E19E500DF09E500D11247E01E81AF1085F
:101B1000E29EC001E39E900DF29E900D1124892F4C
:101B20009927C81BD90BC09FC001C19F900DD09FA2
:101B3000900D11246230710591F048F46115710522
:101B4000E1F061307105A9F48B2F752F19C0643055
:101B5000710561F038F06630710579F00AC0892F9F
:101B60007B2F0EC08E2F7B2FE52F0AC08E2F792F53
:101B700002C0852F7E2FEB2F03C08B2F7E2FE92FE6
:101B80006E2FDF91CF911F910F91FF90EF900895ED
:101B90000895CF93DF93762FE901682F842F0E9459
:101BA0003D0D798368838A83DF91CF910895809179
:101BB0003402282F269530E02115310519F4817063
:101BC000826005C02831310524F081708E628093D7
:101BD0003402089588E090E00C94CE31CF92DF92E9
:101BE000EF92FF926B017C010E94D70DB701A60115
:101BF00088E090E0FF90EF90DF90CF900C94EC3174
:101C0000E4E3F2E083E0808311828FEF82838383B9
:101C1000148260817181828193810C94EE0D809198
:101C2000210280FF08C088EA94E09F938F930E946E
:101C3000C8070F900F908091210280FF0FC0809104
:101C4000340281701F928F938BE894E09F938F935F
:101C50000E94C8070F900F900F900F908091210263
:101C600080FF0FC08091340286951F928F9380E78A
:101C700094E09F938F930E94C8070F900F900F904E
:101C80000F908091210280FF0EC0809135021F923B
:101C90008F9386E594E09F938F930E94C8070F90DF
:101CA0000F900F900F908091210280FF0EC08091C5
:101CB00036021F928F938CE394E09F938F930E9440
:101CC000C8070F900F900F900F908091210280FF16
:101CD0000EC0809137021F928F9382E294E09F930F
:101CE0008F930E94C8070F900F900F900F908091D4
:101CF000210280FF0EC0809138021F928F9386E0F0
:101D000094E09F938F930E94C8070F900F900F90BD
:101D10000F9008958091340280FF02C08695089547
:101D200080E0089580913802833018F48F5F8093AB
:101D300038026091340270913502809136029091A0
:101D400037020C94EE0D80913802882319F08150EF
:101D5000809338026091340270913502809136028E
:101D6000909137020C94EE0D60913A0170E08091F1
:101D7000340280FF0AC08091A30123E0829FC0014A
:101D80001124875C9D4F0C949F158091A201909126
:101D90003901891780F7E82FF0E09F01220F331FE8
:101DA000E20FF31FE75CFD4F1182108212828F5FFA
:101DB000F0CF9091340290FF16C09091A201209133
:101DC0003901921770F4E92FF0E0DF01AA0FBB1F71
:101DD000EA0FFB1FE75CFD4F8183608342839F5FB7
:101DE000F0CF0C94B40E0895CF93DF9300D01F92E0
:101DF000CDB7DEB79091340290FF0AC09E012F5FED
:101E00003F4F0E94C90D4B8169818A810E94D90E82
:101E10000F900F900F90DF91CF910895CF93DF93A4
:101E2000EC01EC81F0E0EF52FB4F4491E4E3F2E08F
:101E3000628181810E94F40E8C818F5F8C83DF919F
:101E4000CF910895CF93DF93EC01E4E3F2E0438177
:101E500062818C810E94F40E8C818F5F8C83DF9174
:101E6000CF910895EF92FF920F931F93CF93DF933B
:101E700000D01F92CDB7DEB7182FF62E042FE22E1A
:101E80008091340280FF5DC0E82FE695F0E0ED5AC6
:101E9000FE4F90819093AB018E7F823061F49E0162
:101EA0002F5F3F4F812F0E94C90D4B8169818A812D
:101EB0000E94D90E0CC0923019F40091370207C06D
:101EC000963019F41091350202C09930D9F310936D
:101ED0003502F092360200933702EE20E9F060916D
:101EE00034027091350280913602909137020E943F
:101EF000EE0D8091210280FF24C0809137021F9255
:101F00008F93809136021F928F93809135021F929A
:101F10008F9380EF91E00CC08091210280FF11C06F
:101F20001F920F931F92FF921F921F9389EC91E0D3
:101F30009F938F930E94C8070FB6F894DEBF0FBE21
:101F4000CDBF0F900F900F90DF91CF911F910F9108
:101F5000FF90EF900895E4E3F2E09181282F438110
:101F6000628188E0890F0C94320F81E00C94AB0FF2
:101F7000E4E3F2E09181282F4381628188EF890FA9
:101F80000C94320F81E00C94B80FE4E3F2E062812C
:101F900028E0620F08F46FEF282F438181810C94B1
:101FA000320F81E00C94C50FE4E3F2E0628128E097
:101FB000621B08F460E0282F438181810C94320F6A
:101FC00081E00C94D40FE4E3F2E0438128E0420F77
:101FD00008F44FEF282F628181810C94320F81E049
:101FE0000C94E30FE4E3F2E0438128E0421B08F4A1
:101FF00040E0282F628181810C94320F81E00C94A3
:10200000F20F20E00C94320FFF920F931F93CF93A7
:10201000DF93EC01F12C0FEF10E060913801F61620
:10202000F0F48091A2012F2D30E0280F311DC9015D
:10203000880F991F280F391F275C3D4F70E0C8019A
:102040000E949F31962F8C81409137026091360219
:10205000F99E800D11240E94C90DF394DECF0E94D9
:10206000B40E9A818C8190FF02C08F5F01C08150B5
:102070008C83DF91CF911F910F91FF900895AF92C4
:10208000BF92CF92DF92EF92FF920F931F93CF9365
:10209000DF93FC01828180FF02C00FEF01C001E0ED
:1020A00010E04BE0A42E80913801181708F043C0CF
:1020B0008091A201C12ED12CE601C80FD11DCE0105
:1020C000880F991FC80FD91FC75CDD4F198218826E
:1020D0001A8234E0E32EF12CB12C8091A1018B0DFA
:1020E0008C302CF06A2D0E947D31892F05C087FF2E
:1020F00003C090913801890F082E000C990BC81667
:10210000D90691F4809137028E9DA0018F9D500DCC
:10211000112455954795559547959E016091360236
:10212000809135020E94C90DB00EF1E0EF1AF1085E
:10213000A1F61F5FB8CF0E94B40E8091A1010130BB
:1021400031F4811102C080913801815007C090E0C4
:1021500001966091380170E00E949F318093A10147
:10216000DF91CF911F910F91FF90EF90DF90CF9073
:10217000BF90AF900895CF938091A20190913901C3
:10218000891770F4E82FF0E09F01220F331FE20F50
:10219000F31FE75CFD4F1182108212828F5FF0CF38
:1021A000C0E060913801C617C0F5EC2FF0E070E098
:1021B000CF010E949F312091A201820F2091A001A6
:1021C000022E000C330B90E0E217F307CCF02091C5
:1021D0003701022E000C330B2E173F078CF09C01A9
:1021E000220F331F820F931F9C01275C3D4F4091AC
:1021F000370260913602809135020E94C90D0BC0F2
:10220000FC01EE0FFF1F8E0F9F1FFC01E75CFD4FCF
:10221000118210821282CF5FC4CF0E94B40E20912F
:1022200036018091A001820F8093A0019091370127
:10223000920F9093370119165CF4082E000C990B3D
:102240004091380150E041505109841795071CF026
:10225000219520933601CF910895609134026695BF
:1022600070E041E050E08BE391E00E94B931892BAE
:1022700019F481E08093AC010E943E269093A50161
:102280008093A4018091210280FF08C080EB91E03F
:102290009F938F930E94C8070F900F9008951092FC
:1022A000AC018091210280FF08C087E991E09F93F3
:1022B0008F930E94C8070F900F9008959091340259
:1022C00090FF54C09170811102C0926006C08831A5
:1022D00010F09E6202C0880F982B90933402662300
:1022E000B1F0609134027091350280913602909184
:1022F00037020E94EE0D8091210280FF1BC0809169
:10230000340286951F928F938CE493E00BC08091EA
:10231000210280FF0FC08091340286951F928F9317
:102320008EE293E09F938F930E94C8070F900F90C7
:102330000F900F9060913402669570E041E050E09C
:102340008BE391E00E94B931892B19F00E944F1163
:1023500002C00E942D1181E08093A70140913702B5
:1023600060913602809135020C9401100895682F17
:1023700090913402969581E0890F883108F081E0D0
:102380000C945E1181E00C94B711682F9091340287
:1023900096958FEF890F09F487E10C945E1181E027
:1023A0000C94C51161E00C945E118091340281603F
:1023B000809334028091210280FF0DC01F9281E042
:1023C0008F9380EC92E09F938F930E94C8070F90A9
:1023D0000F900F900F908091340286950C94D2113B
:1023E00060E00C945E118091AA01811160C080911F
:1023F000210280FF08C08FEE93E09F938F930E948D
:10240000C8070F900F908091210280FF08C089EDCE
:1024100093E09F938F930E94C8070F900F900E94A4
:10242000B624811110C08091210280FF08C081EB89
:1024300093E09F938F930E94C8070F900F900E9484
:1024400056250E94000E0E94EA0D6093340270939C
:10245000350280933602909337026E7FC1F48091EB
:10246000210280FF08C088E693E09F938F930E942B
:10247000C8070F900F900E94000E0E94EA0D609313
:1024800034027093350280933602909337020E9493
:10249000D70D0E940F0E1092AC018091340280FF84
:1024A00003C086950E94F01181E08093AA010895EF
:1024B000809134028160809334028091210280FFF8
:1024C0000DC01F9281E08F9387E892E09F938F93D6
:1024D0000E94C8070F900F900F900F9080913402C8
:1024E00086950C94F011809134028E7F8093340293
:1024F00060913402709135028091360290913702DA
:102500000E94EE0D8091210280FF0FC08091340265
:1025100081701F928F938FE492E09F938F930E941C
:10252000C8070F900F900F900F900E944F112FEF40
:1025300080E792E0215080409040E1F700C0000029
:102540000C94B40E8091210280FF10C0809134025F
:10255000809581701F928F9387EF92E09F938F9366
:102560000E94C8070F900F900F900F908091340237
:1025700080FD0C9473120C94D511809134028E7FDF
:10258000809334028091210280FF0CC01F921F9221
:1025900085E192E09F938F930E94C8070F900F9060
:1025A0000F900F900E944F112FEF80E792E0215083
:1025B00080409040E1F700C000000C94B40E0F93EF
:1025C0001F93CF93DF938091AC01882309F475C0EA
:1025D0008091AB01E0913402E695E81BE093A601FF
:1025E000823049F4F0E0E353FB4FE491CE2FD0E08A
:1025F0000EE01FE032C0863049F4F0E0E653FB4FB6
:10260000E491CE2FD0E002E21FE027C0893051F4E0
:10261000E695F0E0E953FB4FE491CE2FD0E004E0E3
:1026200010E11BC08F3051F4E695F0E0EC53FB4F06
:10263000E491CE2FD0E00FE310E10FC0853149F4D3
:10264000F0E0EF53FB4FE491CE2FD0E00BEB10E125
:1026500004C0C0EDD7E008EC1DE08091A7018823FD
:1026600089F01092A7010E943E269E012095309588
:10267000820F931F9093A5018093A4011092A9014A
:102680001092A8018091A4019091A5010E94562664
:102690008C179D0790F0E091A401F091A501CE0F59
:1026A000DF1FD093A501C093A40184EA91E0F80153
:1026B000DF91CF911F910F910994DF91CF911F91DD
:1026C0000F910895882311F0FA0101C0FB010994CC
:1026D000CF93DF93C82FD62F0E948A0E8C1740F01D
:1026E0000E948A0E8D1720F4DF91CF910C94C211B5
:1026F0008C2FDF91CF910C94D2110F931F93CF9316
:10270000FB01C281CC2309F45BC08C010E94FD2334
:102710008272F801E25CFC45E431F10508F053C037
:10272000EA5AFF4F0C94B3310E94A2124BC04FECF7
:1027300051E162EC71E104C042EC51E16FEC71E1F6
:102740000E9462133FC042EC5FE065EB7FE0F8CF90
:1027500045EB5FE062EC7FE0F3CF40EE5FE061EDE0
:102760007FE0EECF41ED5FE060EE7FE0E9CF4EEF3E
:102770005FE06FEE7FE0E4CF4FEE5FE06EEF7FE073
:10278000DFCF43EA5EE062E97EE0DACF42E95EE075
:1027900063EA7EE0D5CF81E00E94D21113C065E0EC
:1027A00082E00BC068E086E008C06EE089E005C00A
:1027B00064E18FE002C067E185E10E94681302C016
:1027C000C1E001C0C0E08C2FCF911F910F910895FF
:1027D000CF93DF93EC0181E0898B8F810E940024ED
:1027E00088850E9413240E944E24EA81FB81CE0139
:1027F0000696309729F06C897D89DF91CF910994F5
:10280000DF91CF910895CF93DF93FC012081223097
:1028100039F4FB01EC0182810E94742281E08B87F4
:10282000DF91CF910895DB01FC018081813021F49B
:102830008D919C910C942909823039F41396ED9175
:10284000FC91149712968C9109940895FC01808153
:10285000813029F4FB01808191810C943F09089516
:10286000EF92FF920F931F93CF93DF93FC0122858A
:10287000211136C0EC01E380F480F7E5FF1A26E170
:102880002E9DC0012F9D900D1124DC01A050BF4F43
:102890001496ED91FC9115978A5F9E4F309729F021
:1028A00054966D917C915597099586E18E9D800196
:1028B0008F9D100D112400501F4FF80187810E9439
:1028C0000624F80180850E9419240E944E24188253
:1028D00019861B861E821D821092AE011092AD01D8
:1028E000DF91CF911F910F91FF90EF900895DF92AC
:1028F000EF92FF920F931F93CF93DF93FB012281FF
:102900002223A1F120913C012F3F81F18C01C0E0F5
:10291000D1E0E12CF12CDD24D39480913C01082EF0
:10292000000C990B8E159F050CF18E818823C9F040
:1029300089859A858017910739F48091AD0190912E
:10294000AE010817190769F0DF861C870B87898994
:10295000811103C0CE010E94E813CE0106960E94A9
:102960003014FFEFEF1AFF0A6696D7CFDF91CF91B1
:102970001F910F91FF90EF90DF900895EF92FF92DB
:102980000F931F93CF93DF939C0137552F3F310552
:1029900011F008F047C040913C01042E000C550B8B
:1029A0004217530714F420933C01FB017C01828100
:1029B00096E1929F8001939F100D1124E801C05071
:1029C000DF4F888B92818E81992311F1FA86E986F7
:1029D0008F5F8E830E943E269E878D870E943324C0
:1029E0008F830E94FD2388870E9410249885892B5D
:1029F0008887E881F981C8018A5F9E4F309719F076
:102A00006C897D890995F092AE01E092AD010AC012
:102A1000882341F08989882329F0C8018A5F9E4F65
:102A20000E94301481E0DF91CF911F910F91FF90B0
:102A3000EF900895CF92DF92EF92FF920F931F9342
:102A4000CF93DF9380913C018F3FF1F1F12C96E120
:102A5000E92E0F2D10E080913C01082E000C990BFF
:102A6000801791078CF1E09EF001E19EF00D11249A
:102A7000E050FF4FC288D388C114D10419F488EC08
:102A8000C82ED12CE09EE001E19ED00D1124C05053
:102A9000DF4F8E818823B1F08D859E850E9456265A
:102AA000C816D90678F48989811103C0CE010E9425
:102AB000E813E09EC001E19E900D11248A5F9E4FB5
:102AC0000E943014F394C5CFDF91CF911F910F91E5
:102AD000FF90EF90DF90CF9008952BB1342F309579
:102AE00023233BB1432B3FB7F894FC01680F791FB8
:102AF000E617F70789F0819198E04BB9000000C014
:102B000087FF2BB9880F000000C000C000C02BB9A0
:102B100000C09A9591F7ECCF3FBF08952AB1242BBE
:102B20002AB99B01220F331F620F731F0E946D157C
:102B300087EC90E00197F1F700C00000089542E0B3
:102B40000C948E150C94EA08FF920F931F93CF9369
:102B5000DF93C3EBD1E04DE751E02BE731E061E0DB
:102B600070E0F1E0C53BDF0709F44CC0FA010191C8
:102B7000AF01A02FA295AF70B0E09196EC91919724
:102B80000F70CB01002E01C0880F0A94EAF7982F2E
:102B900090959E2391969C93919792969C91929753
:102BA000892B92968C939297F90111919F01E12FB5
:102BB000E295EF70F0E0F1A01F70CB01012E01C093
:102BC000880F0A94EAF7982F90959F2191A392A1DC
:102BD000892B82A390968C9190E002C09595879561
:102BE0000A95E2F78170E0A1F0E002C0F595E79563
:102BF0001A95E2F7E0FD02C090E001C092E0892B57
:102C00008993AFCFDF91CF911F910F91FF900895DE
:102C10005F926F927F928F929F92AF92BF92CF926C
:102C2000DF92EF92FF920F931F93CF93DF9383EB8B
:102C3000682E81E0782E9DE7E92E91E0F92E0BE7D2
:102C400011E021EB822E21E0922ECFEAD1E0630148
:102C50005301512CD501ED915D014E2F440F440FCE
:102C6000F60141936F01D7012D917D01E22FE2958D
:102C7000EF70F0E080A190E02F7002C095958795ED
:102C80002A95E2F781709927F80151918F01E52F7C
:102C9000E295EF70F0E020A130E05F7002C0359562
:102CA00027955A95E2F7F901E170FF2720FF02C04E
:102CB000E2E0F0E0E82BF92BE42BD301ED933D01AA
:102CC000EF70F0E0E559FE4F9081F4018081890FAB
:102CD000808384303CF088818F5F888361E0852D1C
:102CE0000E94A215D4018C918D3F3CF488818150C3
:102CF000888360E0852D0E94A215F401808183788D
:102D000087FF03C081508C6F8F5FD4018D934D017D
:102D100053942196B2E05B129DCFDF91CF911F912A
:102D20000F91FF90EF90DF90CF90BF90AF909F906A
:102D30008F907F906F905F9008950F931F93CF9324
:102D4000DF93C62FD42F122FFC0182818823C9F074
:102D50006093B7010E943E269093B6018093B5011F
:102D600080E28C0F883008F057C0C77081E001C046
:102D7000880FCA95EAF7DF91CF911F910F910C94BC
:102D8000AB1B8091B701681330C08091B501909161
:102D9000B6010E945626883C910538F500E20D0FD9
:102DA000CD17B9F080E28C0F883040F4C77081E015
:102DB00001C0880FCA95EAF70E94B21B083028F5B7
:102DC00081E09D2F977001C0880F9A95EAF70E94C5
:102DD000AB1B812F0E94981B0830F0F4D77081E064
:102DE00001C0880FDA95EAF70AC080E28C0F8830BC
:102DF00098F4C77081E001C0880FCA95EAF7DF91A7
:102E0000CF911F910F910C94B21B812FDF91CF9125
:102E10001F910F910C94981BDF91CF911F910F91EF
:102E200008959C01CB01233F4CE53407F9F078F479
:102E3000283DFCE53F07B9F0293D4CE5340711F189
:102E4000273D3C4531F526E241EE61EE1EC0253FAF
:102E5000FCE53F0799F070F0263F3C45D1F427E2AE
:102E600045EE66EE12C027E245EE0EC026E241EEC8
:102E700060EE0BC027E245EE64EE07C026E241EEAD
:102E800062EE03C028E241E065EE0E949D1680E0FC
:102E90000895FC018281882319F01092B7010895EA
:102EA00081E00895CF93DF93EC01FB0182818823B9
:102EB00009F41FC1C230FCE5DF0708F41BC1C631AD
:102EC0009CE5D90738F09E012A5F3C452930310541
:102ED00008F010C10E94C92490935F0280935E02A3
:102EE000C031ECE5DE0709F4C3C008F041C0C830CA
:102EF0008CE5D80709F49AC0F0F4C430ECE5DE079D
:102F000009F487C068F4C2308CE5D80709F477C0AB
:102F1000C330DC4509F0E3C080915E02826076C078
:102F2000C630ECE5DE0709F46EC008F07BC0809186
:102F30005E0288606BC0CC308CE5D80709F485C090
:102F400068F4CA30ECE5DE0709F474C008F079C013
:102F50000E941C1E80915E02806858C0CE308CE5B5
:102F6000D80709F476C008F07FC080915E028BC05C
:102F7000CB3FECE5DE0709F44FC018F5C3318CE513
:102F8000D80709F47DC078F4C131ECE5DE0709F417
:102F900073C0C231DC4509F0A2C00E941C1E8091A2
:102FA0005E028F7733C0C5318CE5D80709F472C053
:102FB00008F486C0CA3FDC4509F091C080915F02E9
:102FC0003EC0CF3FFCE5DF0709F45FC058F4CD3FBA
:102FD0009CE5D90709F444C008F43FC080915F0222
:102FE00082602DC0C130FDE5DF0709F475C008F42B
:102FF0005DC0C230DD4509F072C080E06EC08091D6
:103000005E02816003C080915E02806180935E02F7
:1030100066C080915E0211C080915F0282608093E1
:103020005F025DC080915E028062F0CF80915E029F
:103030008064ECCF80915E0288608460E7CF81601D
:10304000EECF80915E028E7FE1CF80915E028D7F18
:10305000DDCF80915E02877FD9CF80915F0218C05B
:1030600080915F028D7FDBCF80915E028F7ECECF1D
:1030700080915E028F7DCACF80915E028F7BC6CF2A
:1030800080915E02877F8B7FC1CF80915F028D7FB1
:103090008E7FC5CF80915E0282FB222720F991E0CE
:1030A000922790FB82F990FB83F9B0CF80915F0269
:1030B000982F909591708E7F892B90FB81F9AFCFDF
:1030C0000E941C1E80915E0287FB222720F991E05E
:1030D000922790FB87F99ACF81E00E945825809132
:1030E0005E0290915F020E94DA240E941C1E80E022
:1030F00001C081E0DF91CF9108959093BD0180934D
:10310000BC010895E091BC01F091BD01309721F020
:103110000190F081E02D099480E00895EF92FF92F4
:103120000F931F93CF93DF93E091BC01F091BD010A
:103130003097B1F18C010280F381E02D09958091E7
:10314000210282FF2DC080FF04C089ED96E00E941D
:103150002F07E80118E083EDE82E86E0F82E809135
:10316000210280FF0BC088811F928F93FF92EF9204
:103170000E94C8070F900F900F900F90115021964A
:103180001111EDCF8091210280FF0AC081ED96E000
:10319000DF91CF911F910F91FF90EF900C942F072B
:1031A000DF91CF911F910F91FF90EF9008952091A3
:1031B000BA013091BB012817390771F09093BB0118
:1031C0008093BA01E091BC01F091BD01309721F0EC
:1031D0000680F781E02D099408952091B80130917F
:1031E000B9012817390771F09093B9018093B8019C
:1031F000E091BC01F091BD01309721F00084F18590
:10320000E02D0994089585B7806885BF85B78068EB
:1032100085BF089508950C940A190C940B190C9409
:103220000A190C940A190E9403190E940F190C9490
:103230000D1981E008950E9435260E94D7070E944B
:10324000B7260E94F3110C941119CF93C82F8091C7
:10325000210282FF1EC080FF04C082EF96E00E9420
:103260002F078091210280FF0CC01F92CF938DEE1B
:1032700096E09F938F930E94C8070F900F900F9036
:103280000F908091210280FF04C08BEE96E00E9497
:103290002F078C2FCF910C94AB09AF92BF92CF9296
:1032A000DF92EF92FF920F931F93CF93DF93CDB7EF
:1032B000DEB72A970FB6F894DEBF0FBECDBF0E94CF
:1032C00027080E941919811111C08FEF89838A8301
:1032D0001B820E943E268160782F9D838C834981CA
:1032E0005A816B818D810E94E31940C08FEBA82E1B
:1032F00081E0B82E00E010E0C02E802F0E94D107A0
:10330000E82EF501D1905F01D82631F40F5F1F4FF1
:103310000530110589F7D9CF8091210281FD0E94E6
:10332000E90880E0FF24F3949D2D9F21D1F08E8346
:10333000CF82EF2081E009F480E088870E943E265A
:103340008160782F9A8789874E815F8168858A8519
:103350000E94E319F801E154FE4F8081F826F082C3
:1033600005C08F5FFF0C8430F9F6D0CF0E94821821
:103370009091BE018917B1F00E9482188093BE011E
:103380002A960FB6F894DEBF0FBECDBFDF91CF9166
:103390001F910F91FF90EF90DF90CF90BF90AF9073
:1033A0000C9425192A960FB6F894DEBF0FBECDBF38
:1033B000DF91CF911F910F91FF90EF90DF90CF9011
:1033C000BF90AF900895CF93DF93CDB7DEB72B9723
:1033D0000FB6F894DEBF0FBECDBF4F835887698705
:1033E0007A878B87DE01119686E0FD0111928A951E
:1033F000E9F785E0FE01379601900D928A95E1F795
:1034000049815A816B817C818D819E810E94EC2053
:103410002B960FB6F894DEBF0FBECDBFDF91CF91D4
:103420000895FC01808191810E94BE230895CF936D
:10343000882309F41CC1C82F8238C1F40E94821865
:1034400081FD15C169E380913D0190913E010E948B
:1034500090250E944E242FEF81EE94E02150804071
:103460009040E1F700C0000069E319C0833801F51E
:103470000E94821880FDFBC063E580913D01909120
:103480003E010E9490250E944E242FEF81EE94E091
:10349000215080409040E1F700C0000063E580913A
:1034A0003D0190913E010E949225CF910C944E24B3
:1034B0008438C1F40E94821882FDD9C067E48091EB
:1034C0003D0190913E010E9490250E944E242FEFD5
:1034D00081EE94E0215080409040E1F700C0000070
:1034E00067E4DDCF8CEF8C0F813A68F48C2F0E945B
:1034F0007C298111BCC06C2F80913D0190913E01CF
:103500000E949025D2CF80E28C0F883048F4C7709B
:1035100081E001C0880FCA95EAF70E940024C5CF58
:103520008BE58C0F833078F4C53A29F0C63A31F038
:1035300083E890E005C081E890E002C082E890E076
:10354000CF910C94D71888E58C0F873108F08FC085
:10355000C83A09F445C0C93A09F445C0CA3A09F461
:1035600045C0CB3A09F445C0CC3A09F445C0CB3B41
:1035700009F445C0CC3B09F445C0CD3A09F445C037
:10358000C03B09F445C0CE3A09F445C0CF3A09F42E
:1035900045C0C13B09F445C0C23B09F445C0C33B2B
:1035A00009F445C0C43B09F445C0C53B09F445C016
:1035B000C63B09F445C0C73B09F445C0C83B09F404
:1035C00045C0C93B09F445C0CD3B09F445C0CE3BDD
:1035D00009F445C0CA3B09F445C080E090E044C00E
:1035E00082EE90E041C089EE90E03EC08AEE90E02D
:1035F0003BC085EB90E038C086EB90E035C083EBB4
:1036000090E032C084EB90E02FC087EB90E02CC0BC
:103610008CEC90E029C08DEC90E026C083E891E02E
:1036200023C08AE891E020C082E991E01DC084E9CE
:1036300091E01AC081E292E017C083E292E014C0E8
:1036400084E292E011C085E292E00EC086E292E050
:103650000BC087E292E008C08FE690E005C080E7EB
:1036600090E002C08AE292E0CF910C94ED18CF91E5
:103670000895882309F45BC0682F823879F40E948A
:10368000821881FF54C069E380913D0190913E0111
:103690000E9490250E944E2469E310C08338B1F443
:1036A0000E94821880FF43C063E580913D019091A4
:1036B0003E010E9490250E944E2463E580913D01C9
:1036C00090913E010E9492250C944E24843879F406
:1036D0000E94821882FF2BC067E480913D01909187
:1036E0003E010E9490250E944E2467E4E7CF8CEFB4
:1036F000860F813A18F380E2860F883048F46770AD
:1037000081E001C0880F6A95EAF70E940624DCCFA9
:103710008BE5860F833020F480E090E00C94D7187E
:10372000685A673120F480E090E00C94ED18089519
:10373000CF93C82F0E94171AC93349F42FEF87EE91
:1037400093E0215080409040E1F700C000008C2FB2
:10375000CF910C94391B882321F00E9400240C94F3
:103760004E240895882321F00E9406240C944E24B0
:103770000895CF92DF92EF92FF920F931F93CF9312
:10378000DF937C01062FC72FFC01158112951F7056
:10379000D281D1110E9420240E94F623882379F03F
:1037A000DD2369F080E2800F883048F082E00E94DB
:1037B00098240E94F62391E0D82ED92601C0D12C5E
:1037C000CC2EC2948FE0C8228C2D90E0FC01E659EB
:1037D000FF4F0C94B3318C2F807FCF70882311F072
:1037E000C295C07FDD2399F0CC2309F482C180E229
:1037F000800F883010F0011104C08C2F0E9400242B
:1038000003C08C2F0E9413240E944E2472C1802F6B
:103810000E94391BCC2309F491C180E2800F8830CB
:1038200010F0011104C08C2F0E94062403C08C2FBD
:103830000E9419240E944E2481C18C2F807FCF705A
:10384000803211F0C295C07F002319F00130C9F019
:1038500022C0DD2371F0112341F0113031F40E94B8
:1038600033248C2B0E943B2469C10E9433248C2B6F
:103870001DC0112319F0113009F460C10E944424C5
:1038800025C0DD2321F0163008F058C10EC01530D8
:1038900008F054C11BC0DD2361F0112331F0F701A2
:1038A000858180FF26C18F7085838C2F0E94AB1B82
:1038B00045C1112359F0093309F02CC1FFEF27EE60
:1038C00083E0F15020408040E1F722C18C2F0E941C
:1038D000B21B34C18C2F86958695837019F0813088
:1038E00061F02CC1DD2321F0802F9C2F937002C04A
:1038F00080E090E00E94D71829C1DD2321F0802FBD
:103900009C2F937002C080E090E00E94ED181EC1D1
:103910008C2F837009F045C0D11114C1402F4295FE
:1039200046954770440F440F602F6F70862F90E0CC
:10393000A0E0B0E0042E04C0880F991FAA1FBB1F8F
:103940000A94D2F704FF10C00FE010E020E030E04E
:1039500004C0000F111F221F331F4A95D2F7009594
:1039600010952095309503C000E010E09801C695B1
:10397000C695C370BC01CD01602B712B822B932B9C
:10398000C23049F058F4C13019F00E943D22DAC02B
:103990000E942B22D7C00E944F22D4C00E9429220D
:1039A000D1C0DD2319F08C2F817001C0869588234A
:1039B00009F4C8C0402F429546954770440F440F04
:1039C000602F6F70862F90E0A0E0B0E0042E04C05E
:1039D000880F991FAA1FBB1F0A94D2F704FF10C0BB
:1039E0000FE010E020E030E004C0000F111F221FA4
:1039F000331F4A95D2F7009510952095309503C056
:103A000000E010E09801C695C695C370BC01CD01D9
:103A1000602B712B822B932BC23049F058F4C130AC
:103A200019F00E9402238EC00E94F0228BC00E94D7
:103A3000142388C00E94632285C0CF70DD2339F033
:103A40008C2F0E948922802F0E94AB1B7BC0802F6D
:103A50000E94B21B8C2F0E94AA2274C0023F01F167
:103A600028F4003F41F0013FA1F03FC0033FF9F0CF
:103A7000043F39F13AC0DD2341F0153008F05EC053
:103A80008C2F8F710E94CF2259C0163008F056C07B
:103A9000F7CFDD2339F08C2F8F710E9489224EC021
:103AA000DD23C9F38C2F8F710E94AA2247C0DD232A
:103AB00029F08C2F8F710E94742240C00E946F22C7
:103AC0003DC0DD2349F0CF718C2F0E94892263E035
:103AD0008C2F0E94832432C081E00E9498241230EF
:103AE00068F182E00E94982429C0DD2331F011237F
:103AF00091F2802F0E94171A21C0112399F20933E5
:103B000049F49FEFE7EEF3E09150E040F040E1F739
:103B100000C00000802F0E94391B10C04C2F4F7036
:103B2000602FC7010E945B0A0E949A210FC04C2F90
:103B30004F70602FC7010E945E0A08C088EF8C0D8D
:103B4000843020F40E9482180E94AB09DD20C9F065
:103B50000E94F22380FD15C0F70112820E94EC231F
:103B60000E948922C7010E94CA1D0E94EC23DF9196
:103B7000CF911F910F91FF90EF90DF90CF900C9419
:103B8000AA22DF91CF911F910F91FF90EF90DF90CC
:103B9000CF9008950F931F93CF93DF93EC019881FB
:103BA00089812B813C81232B31F08F3F31F481E0DF
:103BB0009F3F19F403C081E001C080E080FD13C085
:103BC000CE010E94CA09882371F0688179818A81B7
:103BD0000E94C9238C010E9426230E941722B8014B
:103BE000CE010E94B91BDF91CF911F910F910895D3
:103BF000882321F00E9413240C944E2408958823D6
:103C000021F00E9419240C944E2408950E9420242F
:103C10000E9430240E944E2480E090E00E94D71839
:103C200080E090E00C94ED1880913D0190913E0170
:103C30000E9494250C94061E0E940D240C94141EC0
:103C4000E92FE295EF704E2F50E0FA013297EE30F7
:103C5000F105B0F4E658FF4F0C94B331803F91F07A
:103C600018F4883E68F40EC0843F51F40BC0883EBF
:103C700048F0813F29F406C093FB882780F9089516
:103C800080E0089581E008950E94BE230E94201ED6
:103C90000895CF93DF9300D000D01F92CDB7DEB749
:103CA0000F900F900F900F900F90DF91CF9108958C
:103CB000CF93DF9300D000D000D0CDB7DEB72696EB
:103CC0000FB6F894DEBF0FBECDBFDF91CF91089540
:103CD0001F93CF93DF93C091C50116E08091C60179
:103CE000C81799F0D0E01C9FF0011D9FF00D112422
:103CF000E953FE4F408151816281738184819581B6
:103D00000E94581E2196C770E9CFDF91CF911F9175
:103D100008954091F7015091F8016091F901709177
:103D2000FA018091FB019091FC010C94581ECF93F5
:103D30008091FC0182958F7009F05FC08091F9013C
:103D4000882309F45AC08091C501B091C6017091D1
:103D5000F701A091F8014091FA015091FB0191E027
:103D60007F3F09F090E0692FC6E08B1709F445C04A
:103D70004115510521F0AF3F21F020E003C021E0C3
:103D800001C0262F90E020FD35C0C89FF001C99FDB
:103D9000F00D1124E953FE4F21812A132BC02081FD
:103DA000271328C02281211125C0238134812417A3
:103DB000350710F421503109241B350B283C3105FF
:103DC000C8F42091FC012F7020612093FC0126E0B3
:103DD000289FF001299FF00D1124E453FE4F8081AC
:103DE0008F708061808387EF91E00E94CA1DCF9120
:103DF0000C94681E01968770B8CFCF910895AF924A
:103E0000BF92CF92DF92EF92FF920F931F93CF93C7
:103E1000DF93CDB7DEB761970FB6F894DEBF0FBE64
:103E2000CDBF8C0185E0F801DE011D9601900D9259
:103E30008A95E1F7D8014C9111965C9111971296F1
:103E4000EC903091F7016091F8018091FA01909126
:103E5000FB01009731F06F3F31F421E03F3F19F44F
:103E600003C021E001C020E0B22FB170BB2E20FDC5
:103E700060C1F801C380D480A090F901AA2009F4A0
:103E8000EEC02091FC01C816D90628F0D601A81B67
:103E9000B90BCD0104C0809590958C0D9D1DFF241C
:103EA000F394883C910580F0F12C207F09F09CC0B0
:103EB0007C2DD98AC88A6E2D89890E94491E87EF78
:103EC00091E00E94CA1D2DC1822F807F09F054C04D
:103ED000561314C0431312C0FE2CE1100FC02F70F4
:103EE00020612093FC010E94891E87EF91E00E94CF
:103EF000CA1D8091FC01F80185835CC1CD2831F099
:103F00005F3F31F481E04F3F19F403C081E001C00D
:103F100080E080FD03C081E08E2502C080E090E05B
:103F2000F82FF170FF2E80FF1CC08091C5012091F9
:103F3000C60136E0821709F41AC190E0389FF001FB
:103F4000399FF00D1124E953FE4F6181561306C0CD
:103F50006081461303C06281E61203C00196877038
:103F6000E9CFFE2CEE2009F425C18091FC0181608F
:103F70008093FC01F12C1EC1561309C0431307C0E6
:103F8000E11005C08091FC01F8018583A4C04D8734
:103F90005E878D859E850E94441E882379F1EE20E0
:103FA00069F12091FC01822F82958F7090E0029739
:103FB00074F08091F7019091F80198878F831986AA
:103FC000DB86CA862C87CE0107960E94CA1D86E032
:103FD000F801A7EFB1E001900D928A95E1F70E94F8
:103FE000971E0E94891E0DC0561771F04D875E877F
:103FF0008D859E850E94441E81111AC0C8010E94B1
:10400000CA1DFF24F394D6C04313F0CFE110EECFC6
:104010008091FC01F8018583C8010E94CA1D86E0D9
:10402000E7EFF1E0DF011D928A95E9F7FA2CC2C0B3
:10403000EE2021F32091FC01822F82958F7090E079
:1040400002972CF28091F7019091F8019A8389836D
:104050001B82DD82CC822E83CE010196B6CFC8169C
:10406000D90628F0F601E81BF90BCF0104C08095B2
:1040700090958C0D9D1D883C910548F0F12C7C2D70
:10408000D98AC88A6E2D89890E94491E4AC0FE2C91
:10409000EE2009F4B3CF561333C0431331C020913F
:1040A000FC0120FD24C0822F82958F70482F50E0A4
:1040B00041155105E1F0D80115962C9315974F3015
:1040C000510549F08F5F982F9295907F822F8F70C6
:1040D000892B15968C93C8010E94CA1D86E0F801B1
:1040E000A7EFB1E001900D928A95E1F73DC086E01F
:1040F000F801A7EFB1E001900D928A95E1F75AC05F
:104100004D875E878D859E850E94441E81115FCFFD
:104110008091FC0181608093FC01C8010E94CA1D4E
:1041200049C0E7EFF1E086E0DF011D928A95E9F7EB
:104130001BC0EE2009F462CF4D875E878D859E857A
:104140000E94441EF82E882309F458CF86E0F80117
:10415000A7EFB1E001900D928A95E1F787EF91E02A
:104160000E94111A0E94971E0E94891E23C04D872B
:104170005E878D859E850E94BE23292F22952F70F4
:10418000223028F49F7039F0811105C00BC0243013
:1041900028F49F7049F4805E883020F0C8010E94A6
:1041A000CA1DBF2CFB2C06C0D80115969C91907F90
:1041B00091F7F8CF8F2D61960FB6F894DEBF0FBE42
:1041C000CDBFDF91CF911F910F91FF90EF90DF90C6
:1041D000CF90BF90AF9008951F93CF93DF93CDB74B
:1041E000DEB72C970FB6F894DEBF0FBECDBF4F835E
:1041F000588769877A878B879C87CE0107960E94AC
:10420000FF1E8823D1F09F8188852A853B85232B3B
:1042100031F08F3F31F481E09F3F19F403C081E01A
:1042200001C080E080FD47C04F81588569857A854F
:104230008B859C850E94581E3EC086E0FE01379605
:10424000DE01119601900D928A95E1F7FF81E885D4
:104250006A857B856115710531F0EF3F31F481E0AE
:10426000FF3F19F403C081E001C080E080FD23C05E
:104270002091C60130E0C9010196877099274091CD
:10428000C50150E084179507F1F1F983EA837D8336
:104290006C8396E0929FD001939FB00D1124A95397
:1042A000BE4FFE01319601900D929A95E1F78093F1
:1042B000C6010E94681E16E08091C5019091C6015A
:1042C000891771F1189FC001112489539E4F0E94D4
:1042D000FF1E882329F1E091C5011E9FF0011124E2
:1042E000E953FE4F408151816281738184819581C0
:1042F0000E94581E8091C50190E001968770992711
:104300008093C501D9CF0E941C1E1092C601109245
:10431000C501E7EFF1E086E0DF011D928A95E9F73C
:104320002C960FB6F894DEBF0FBECDBFDF91CF91B4
:104330001F910895EF92FF920F931F93CF93DF93F6
:104340008C01892B09F46CC0F12CEE24E394E80174
:104350002196F8018491843740F4843008F051C0EC
:10436000813081F0823019F15BC0853709F444C097
:10437000A8F19CE7980F903708F052C08F770E9401
:10438000391B41C00E5F1F4FFE01849190E2980FD0
:10439000983050F48770FE2D01C0FF0F8A95EAF720
:1043A0008F2F0E94232414C00E94171A2DC00E5F65
:1043B0001F4FFE01849190E2980F983060F487704F
:1043C000FE2D01C0FF0F8A95EAF78F2F0E94292446
:1043D0000E944E2419C00E94391B16C00E5F1F4F49
:1043E000FE01C491CC2381F08FE99FE00197F1F7A2
:1043F00000C00000C150F6CF0E5F1F4FFE01F490C9
:1044000003C00E94171A8E018F2D882309F49FCFB5
:10441000EFE9FFE03197F1F700C000008150F5CFE0
:10442000DF91CF911F910F91FF90EF900895089524
:1044300008950C9418220C9419220E941B22609358
:1044400010027093110280931202909313020C9445
:10445000061E0C941D220F931F93009110021091C1
:1044600011022091120230911302602B712B822BCA
:10447000932B1F910F910C941D220F931F9300916A
:104480001002109111022091120230911302602348
:104490007123822393231F910F910C941D220F935C
:1044A0001F9300911002109111022091120230917D
:1044B000130260277127822793271F910F910C9475
:1044C0001D220C9418220E94612260930C027093AA
:1044D0000D0280930E0290930F020C94061E60E072
:1044E00070E0CB010C9463220F931F9341E050E0E6
:1044F00060E070E08A019B0104C0000F111F221FC1
:10450000331F8A95D2F7C901B8011F910F910C94FE
:1045100063220F931F9341E050E060E070E004C01D
:10452000440F551F661F771F8A95D2F780910C02A2
:1045300090910D02A0910E02B0910F028A019B0191
:10454000082B192B2A2B3B2BC901B8011F910F9166
:104550000C9463220F931F9341E050E060E070E001
:1045600004C0440F551F661F771F8A95D2F74095E8
:1045700050956095709580910C0290910D02A091DC
:104580000E02B0910F028A019B01082319232A23EE
:104590003B23C901B8011F910F910C9463220F9323
:1045A0001F9341E050E060E070E004C0440F551FED
:1045B000661F771F8A95D2F780910C0290910D02A9
:1045C000A0910E02B0910F028A019B0108271927C2
:1045D0002A273B27C901B8011F910F910C94632230
:1045E0000F931F9300910C0210910D0220910E0267
:1045F00030910F02602B712B822B932B1F910F9107
:104600000C9463220F931F9300910C0210910D02E2
:1046100020910E0230910F02602371238223932395
:104620001F910F910C9463220F931F9300910C0222
:1046300010910D0220910E0230910F026027712718
:10464000822793271F910F910C9463220895990F4D
:10465000990F890FE82FE695E695E695877051E06A
:1046600001C0550F8A95EAF785E0E89FF001112413
:10467000E350FE4F20E030E070E04081CB01022E9D
:1046800002C0969587950A94E2F7817081958427F8
:104690008523842781932F5F3F4F2530310569F7AC
:1046A0000895990F990F890F682F669566956695FD
:1046B000982F977085E0689FB001112440E050E08A
:1046C00080E0FB01E40FF51FE350FE4F208130E056
:1046D000092E02C0369527950A94E2F721703327F8
:1046E000042E01C0220F0A94EAF7822B4F5F5F4F1E
:1046F0004530510531F70895BF92CF92DF92EF9286
:10470000FF920F931F93CF93DF938C01C0900C0205
:10471000D0900D02E0900E02F0900F0280911002F6
:1047200090911102A0911202B0911302C82AD92AC5
:10473000EA2AFB2ACFE1D0E0D701C6010C2E04C043
:10474000B695A795979587950A94D2F780FD04C0F2
:10475000219790F7B12C07C0BC2EB8018C2F0E9476
:104760007B0A0197A9F38B2DDF91CF911F910F91B8
:10477000FF90EF90DF90CF90BF900895CF93DF939D
:10478000EC010E947C23BE010E947B0ADF91CF9145
:1047900008951F93CF93DF93EB019091C401992368
:1047A00021F0CB010E94BE2313C0882349F0CB0126
:1047B0000E947C23182F682FCE010E94272304C05B
:1047C000CB010E945123182FBE01812F0E947B0A2A
:1047D000DF91CF911F910895809114028595859561
:1047E0008595089580911402877008959091140220
:1047F000977081E009F480E0089580912002089587
:1048000090912002892B80932002089580959091A9
:104810002002892380932002089510922002089597
:1048200080911F02089590911F02892B80931F028F
:104830000895809590911F02892380931F02089507
:1048400010921F02089590911E02892B80931E02E0
:104850000895809590911E02892380931E020895E9
:1048600010921E02089580911502089508950C94E7
:1048700036240C94372490911502981721F08093D8
:1048800015020C943924089580911502882329F08B
:104890001092150280E00C9439240895E0913D01B6
:1048A000F0913E01809120028083E0913D01F091E2
:1048B0003E01908180911F02892B8083E0913D0110
:1048C000F0913E01908180911E02892B808380911E
:1048D0001502882381F0E0913D01F0913E01908125
:1048E000892B808380913D0190913E010E945D253E
:1048F00081110E94442480913D0190913E010C94CD
:104900008E180C94362498E0899F90011124262B50
:10491000209314020E948922809114028595859526
:1049200085950C9481241092140280E00C948124CB
:10493000209114028095822380931402982F9770FF
:1049400079F430E0482F082E000C550B241735075A
:1049500039F08595859585950E94AA220C9493241B
:10496000089590938F0180938E01089580E090E0E8
:104970000E94D43121E08C3E9E4F09F020E0822F2E
:10498000089582E090E00C94C63183E090E00C94AE
:10499000C631CF9384E090E00E94C631C82F81E2F7
:1049A00090E00E94C6312C2F30E0A901582BCA019B
:1049B000CF910895CF93C92F682F84E090E00E9493
:1049C000DA316C2F81E290E0CF910C94DA31AB01B7
:1049D000BC018FE090E00C94EC31AB01BC0183E1B1
:1049E00090E00C94EC3160E070E0CB010C94ED248D
:1049F00060E070E0CB010E94E7240C94F3246CEE9D
:104A00007EEF80E090E00E94F83160E082E090E08C
:104A10000E94DA3160E083E090E00E94DA31109287
:104A2000100210921102109212021092130260E012
:104A300084E090E00E94DA3160E081E290E00E9440
:104A4000DA3160E085E090E00E94DA3160E086E0F3
:104A500090E00E94DA316FEF87E090E00E94DA3157
:104A600040E050E0BA0188E090E00E94EC3160E064
:104A70008DE090E00E94DA3140E050E0BA0188E138
:104A800090E00E94EC3160E087E190E00E94DA3132
:104A900040E050E0BA018CE190E00E94EC3160E02F
:104AA00080E290E00E94DA310C94F8240C94FF2408
:104AB000682F8EE090E00C94DA31FC01329697E09A
:104AC00080E0915029F021912223D9F38F5FF9CF13
:104AD00008959C01FC0132969FEF80E041914617BA
:104AE00089F09F3F19F4411101C0982F8F5F8630E4
:104AF000A9F79F3F39F0F901E90FF11D97FDFA95EC
:104B00006283089508959C012A5F3F4FFC01428112
:104B1000461301C01282019682179307B9F70895D0
:104B20000C9469250C948325029626E0FC011192D1
:104B30002A95E9F7089508950C949B250C949B25DC
:104B4000CF930E949E250E9427080E949C25C0E0CA
:104B50008C2F0E94D107811104C0CF5FC530C1F7EF
:104B600001C081E0CF9108950C949B250C94B4254D
:104B70000E94B62580916402843009F439C01092F5
:104B8000220220E488E190E00FB6F894A895809383
:104B900060000FBE2093600080E00E94AB090E947D
:104BA0004F118091230281110AC081E0809323027A
:104BB000809134028170809324020E94BD120E9471
:104BC000B62583B7817F846083BF83B7816083BF4D
:104BD0007894889583B78E7F83BF0FB6F894A89595
:104BE00080916000886180936000109260000FBE29
:104BF00008950C949B250E941C1E0E9482180E94FE
:104C0000AB09109223028091240281110E94581254
:104C10000E942D110C94F9251F920F920FB60F923E
:104C200011248F939F93AF93BF93809122028111A0
:104C300013C080915A0290915B02A0915C02B091E6
:104C40005D024196A11DB11D80935A0290935B02B3
:104C5000A0935C02B0935D02BF91AF919F918F9141
:104C60000F900FBE0F901F90189582E084BD93E0C7
:104C700095BD9AEF97BD80936E0008952FB7F89475
:104C800080915A0290915B02A0915C02B0915D020A
:104C90002FBF08952FB7F89460915A0270915B026C
:104CA00080915C0290915D022FBF0895CF92DF92B8
:104CB000EF92FF920F931F932FB7F89440915A02EF
:104CC00050915B0260915C0270915D022FBF6A019E
:104CD0007B01EE24FF248C0120E030E0C016D106D9
:104CE000E206F30610F4415051099A01281B390BD2
:104CF000C9011F910F91FF90EF90DF90CF90089521
:104D000078941F920F920FB60F9211248F939F9356
:104D1000AF93BF9380915A0290915B02A0915C0285
:104D2000B0915D020196A11DB11D80935A0290932E
:104D30005B02A0935C02B0935D02BF91AF919F9123
:104D40008F910F900FBE0F901F90189587E797E7F0
:104D500090930108809300089AE088E10FB6F894D8
:104D6000A895809360000FBE90936000FFCF0E94D3
:104D7000B624811102C00E9456250E94C12480934E
:104D800021020E94C92490935F0280935E020E94D8
:104D9000C524682F70E080E090E00C942922CF9326
:104DA000C82F1F928F938BE097E09F938F930E9461
:104DB000C80781E090E0A0E0B0E0BC01CD0104C0F4
:104DC000660F771F881F991FCA95D2F70E94292264
:104DD0000F900F900F900F90CF910C941C1ECF93BB
:104DE000DF938B3109F4F9C108F08FC18B3009F4DE
:104DF000B2C108F065C1863009F4B0C120F4853035
:104E000009F4BEC16CC2873009F4CCC1883009F006
:104E100066C287E49CE00E942F0788E99BE00E941D
:104E20002F070E94C5241F928F9385E99BE09F93D3
:104E30008F930E94C80783E99BE00E942F070E947E
:104E4000C124C82F80E89BE00E942F071F92CF93B8
:104E50008BE79BE09F938F930E94C80789E79BE0B5
:104E60000E942F078FE69BE00E942F078C2F8170F6
:104E70001F928F938CE69BE09F938F930E94C807AD
:104E80008AE69BE00E942F0780E69BE00E942F07A6
:104E9000C1FB882780F91F928F938DE59BE09F933C
:104EA0008F930E94C8078BE59BE00E942F078FE439
:104EB0009BE00E942F07C2FB882780F91F928F93E7
:104EC0008CE49BE09F938F930E94C8078AE49BE049
:104ED0000E942F0781E49BE00E942F07C3FBCC2791
:104EE000C0F91F92CF938EE39BE09F938F930E9414
:104EF000C8078CE39BE00E942F070E94C924EC01A5
:104F000088E29BE00E942F07DF93CF9383E29BE030
:104F10009F938F930E94C80781E29BE00E942F0716
:104F200088E09BE00E942F078C2F81701F928F9347
:104F300085E09BE09F938F930E94C8078DB79EB733
:104F400080960FB6F8949EBF0FBE8DBF83E09BE0A6
:104F50000E942F078CEE9AE00E942F07C1FB882742
:104F600080F91F928F9389EE9AE09F938F930E940E
:104F7000C80787EE9AE00E942F0785ED9AE00E940D
:104F80002F078D2F81701F928F9382ED9AE09F9350
:104F90008F930E94C80780ED9AE00E942F078EEB46
:104FA0009AE00E942F07D695D1701F92DF938BEB6A
:104FB0009AE09F938F930E94C80789EB9AE00E9422
:104FC0002F0787EA9AE00E942F07C2FB882780F903
:104FD0001F928F9384EA9AE09F938F930E94C80751
:104FE00082EA9AE00E942F0780E99AE00E942F0748
:104FF000C3FB882780F91F928F938DE89AE09F93D7
:105000008F930E94C8078BE89AE00E942F0781E8DF
:105010009AE00E942F07C4FB882780F91F928F9384
:105020008EE79AE09F938F930E94C8078CE79AE0DF
:105030000E942F078AE69AE00E942F07C5FB882767
:1050400080F91F928F9387E69AE09F938F930E9437
:10505000C80785E69AE00E942F0789E49AE00E943B
:105060002F07C6FB882780F91F928F9386E49AE06A
:105070009F938F930E94C8078DB79EB780960FB6F7
:10508000F8949EBF0FBE8DBF84E49AE00E942F0764
:105090008CE39AE00E942F07C7FBCC27C0F91F9230
:1050A000CF9389E39AE09F938F930E94C80787E389
:1050B0009AE00E942F070F900F900F900F9049C019
:1050C000803109F4B4C020F48E3009F49AC007C1CD
:1050D000863109F4C7C0893109F001C18AE698E038
:1050E0000E942F078FE398E00E942F0785E098E049
:1050F0000E942F0781ED97E00E942F0784EA97E036
:105100000E942F0789E797E08FC08A32E1F060F4B0
:10511000873209F4E0C028F48E3108F4E0C08D51E4
:10512000DBC0893269F1DBC0833448F48A3308F08C
:10513000D0C0853309F4CFC0883369F0D0C0833440
:1051400009F4C9C0CCC086E39CE00E942F070E94EE
:105150005625C1E0C9C084E998E066C0809121026B
:10516000817F8E7F8093210289E798E00E942F073C
:1051700082E39CE00E942F0781E080932502E9CF23
:105180000E941C1E86E19CE00E942F079FEF23EDEA
:1051900080E3915020408040E1F700C000000E9471
:1051A000A626D7CF80912102C82FC095C170C0FB21
:1051B00080F980932102CC2329F08AE09CE00E94B0
:1051C0002F0792C08DEF9BE00E942F078091210254
:1051D000897F877F80932102BCCF9091210291FB30
:1051E000CC27C0F981E0C827892FC0FB81F98093C3
:1051F0002102CC2319F080EF9BE029C082EE9BE0D6
:1052000013C09091210292FBCC27C0F981E0C827FE
:10521000892FC0FB82F980932102CC2319F083ED02
:105220009BE015C083EC9BE00E942F0792CF9091EA
:10523000210293FBCC27C0F981E0C827892FC0FB4E
:1052400083F980932102CC2351F087EB9BE00E94ED
:105250002F078091210281608093210245C08AEA54
:105260009BE0E2CF8BE697E00E942F070E94821816
:105270001F928F9381E597E09F938F930E94C807B9
:10528000809149011F928F938AE397E09F938F93B8
:105290000E94C807809132021F928F9387E297E0A5
:1052A0009F938F930E94C8070E944A269F938F93D3
:1052B0007F936F9380E197E09F938F930E94C8073D
:1052C0008DB79EB742960FB6F8949EBF0FBE8DBFA6
:1052D00040CF895301C080E00E94CF263ACF88EAB0
:1052E0009BE00E942F07C0E08C2FDF91CF910895A3
:1052F00080E008950C947829CF93C82F80912502DF
:10530000882319F0813031F038C00E94FD238232A9
:10531000B1F504C00E94FD23823261F48C2F0E94FB
:105320007A29811104C08C2F0E94EF2624C081E0CD
:1053300090E021C08C2F0E94782981111BC0C431BC
:1053400089F018F4CB3029F010C0C93259F0C833B5
:1053500061F489E798E00E942F0787E097E00E94B8
:105360002F0708C0109225020CC085E097E00E942C
:105370002F0707C081E0817006C01092250280E0EF
:1053800002C080E0F8CFCF91089580913102089556
:1053900008959FB7F894109228029FBF90916402DD
:1053A000943009F057C09091E9009F703091EC0063
:1053B000232F217030FD20E8922B23E02093E90079
:1053C0002091EB0020FF43C02091EE0027FF3FC05B
:1053D00020912602222321F02091E80025FF37C0EA
:1053E0001092260226E03091E80035FD15C030917C
:1053F0006402343061F53091EB0035FD28C0215056
:1054000021F481E08093260222C0EFE9FFE031978A
:10541000F1F700C00000E7CF8093F1008091E80031
:1054200085FD0AC08091E80080FFFCCF8091E800F4
:105430008E778093E80006C08FB7F89421E0209320
:1054400028028FBF9F709093E90080E008959F70BD
:105450009093E9008FEF08950F931F93CF93DF93FD
:1054600000D01F92CDB7DEB78C010E94B72C8230DE
:1054700011F0843021F584E089831B830A8382E064
:105480008093E9008FEF9091E800815095FD06C070
:1054900095ED9A95F1F700008111F5CF8091E80024
:1054A00085FF0DC040E050E063E070E0CE01019662
:1054B0000E94D42C8091E8008E778093E8000F90B2
:1054C0000F900F90DF91CF911F910F910895CF937F
:1054D000DF9300D01F92CDB7DEB720916402243055
:1054E00031F523E02983805891099B838A8382E0E8
:1054F0008093E9008FEF9091E800815095FD06C000
:1055000095ED9A95F1F700008111F5CF8091E800B3
:1055100085FF0DC040E050E063E070E0CE010196F1
:105520000E94D42C8091E8008E778093E8000F9041
:105530000F900F90DF91CF910895CF93DF93EC01FF
:105540000E94B72C823011F0843039F581E08093CD
:10555000E9008FEF9091E800815095FD06C095ED30
:105560009A95F1F700008111F5CF8091E80085FF51
:1055700014C040E050E068E070E0CE010E94D42CFE
:105580008091E8008E778093E80088E0FE01A9E230
:10559000B2E001900D928A95E1F7DF91CF910895E5
:1055A00087E79CE00E942F0780916302811109C068
:1055B0000E94652E0E94C22E8091E200846080933A
:1055C000E200089583E79CE00E942F071092630297
:1055D00008958FE69CE00C942F078BE69CE00C94DA
:1055E0002F0787E69CE00E942F070C94FB25209153
:1055F00027022F5F822F62E30E947131992319F0F5
:105600002093270208951092270280912802882370
:1056100071F180916402843041F58091E9008F70CE
:105620002091EC00922F917020FD90E8892B93E05F
:105630009093E9009091EB0090FF14C09091EE00E0
:1056400097FF10C09091E80095FF03C01092F10001
:10565000F9CF9091E80090FF05C09091E8009E7707
:105660009093E8008F708093E900109228020895CB
:1056700042E061EC81E00E94DE2D42E261EC82E0DA
:105680000E94DE2D42E261EC83E00C94DE2D8091DD
:105690006602833009F460C030F4813071F08230EA
:1056A00009F499C008958A3009F485C08B3009F453
:1056B0006BC0893009F0A7C020C080916502813A93
:1056C00009F0A1C08091E800877F8093E800809175
:1056D000690290916A02892B21F468E089E292E0E4
:1056E00003C060E080E090E070E00E941F2D809198
:1056F000E8008B778093E8000895809165028132FD
:1057000009F081C08091690290916A02029708F0C5
:105710007AC08091E800877F8093E8008091E8005C
:1057200082FD05C0809164028111F8CF6CC0209188
:10573000F3008091F20090E0922B029729F480917F
:10574000F1008B7F813021F48091F1008093310250
:105750008091E8008B7753C080916502813A09F00F
:1057600052C08091690290916A02892B09F04BC066
:105770008091E800877F8093E8008091E80080FFB7
:10578000FCCF8091490136C0809165028132D9F504
:105790008091690290916A02892BA9F58091E800B5
:1057A000877F8093E8000E94132E80916702809388
:1057B00049010C941C1E80916502813221F5809173
:1057C000E800877F8093E8000E94132E8091680292
:1057D00080933202089580916502813AA1F480910C
:1057E000E800877F8093E8008091E80080FFFCCF8D
:1057F000809132028093F1008091E8008E7780934F
:10580000E8000C94132E089584B7877F84BF0FB6E9
:10581000F894A89580916000886180936000109250
:1058200060000FBE90E080E80FB6F89480936100AE
:10583000909361000FBE0E9413190E94652E0E9472
:10584000C22E8091E20084608093E20089EC99E2AC
:105850000E94B12478940E9456310E941B198FE354
:1058600091E00E947D1886E59CE00E942F078091C0
:105870006402853089F482E59CE00E942F070E9433
:10588000B82580916202882391F30E94A025882385
:1058900071F30E94BE2CEBCF0E944D190E94DF12C3
:1058A000E6CF0C94532C292F332723303105C9F030
:1058B00060F42130310581F02230310509F047C014
:1058C0008BE590E02FEA3CE046C02132310511F132
:1058D0002232310561F13BC082E190E02AE03DE0F7
:1058E0003AC099278130910561F040F082309105EE
:1058F00059F0039761F5EBE7FCE008C0EBEAFCE048
:1059000005C0EFE8FCE002C0E1E8FCE0849190E033
:105910009F0121C063307105D0F4660F771FFB0132
:10592000E857FE4F2081318189E090E014C0633058
:10593000710568F4FB01EE0FFF1FEE57FE4F20814B
:105940003181FB01E158FE4F808190E004C080E08E
:1059500090E020E030E0FA013183208308958091C7
:105960006402843011F081E0089582E0089580910E
:105970003302811102C00C94AF2C089580E189BDDF
:1059800082E189BD09B400FEFDCF8091D8008F7DF2
:105990008093D8008091E00082608093E000809145
:1059A000E00081FDFCCF0895CF92DF92EF92FF924D
:1059B0000F931F93CF93DF93EC018B017A010E9429
:1059C000322E811133C0E114F10439F0F7018081E6
:1059D0009181081B190BC80FD91FC12CD12C01159F
:1059E000110519F18091E80085FD16C08091E8004D
:1059F0008E778093E800E114F10449F0F70180818B
:105A00009181C80ED91ED182C08285E00FC00E944C
:105A1000322E882321F30AC089918093F10001502E
:105A20001109FFEFCF1ADF0ADACF80E0DF91CF91C3
:105A30001F910F91FF90EF90DF90CF9008952091EC
:105A40006B0230916C022617370748F0611571051B
:105A500039F42091E8002E772093E80001C0B901C5
:105A6000FC0120E06115710579F1809164028823C1
:105A7000F1F18530F1F18091E80083FD3CC0809127
:105A8000E80082FD2EC08091E80080FFEBCF2091DE
:105A9000F3008091F20090E0922B6115710551F0B6
:105AA0008830910538F421912093F10061507109FB
:105AB0000196F3CF21E0089709F020E08091E800FB
:105AC0008E778093E800CECF2111CFCF0AC080918E
:105AD0006402882361F0853061F08091E80083FDE5
