:100000000C9414030C945B030C945B030C945B033F
:100010000C945B030C945B030C945B030C945B03E8
:100020000C945B030C945B030C94B32B0C94852C05
:100030000C944A230C945B030C945B030C945B03B9
:100040000C945B030C945B030C945B030C945B03B8
:100050000C945B030C94A3230C945B030C945B0340
:100060000C945B030C945B030C945B030C945B0398
:100070000C945B030C945B030C945B030C945B0388
:100080000C945B030C945B030C945B030C945B0378
:100090000C945B030C945B030C945B030C945B0368
:1000A0000C945B030C945B030C945B03910F940F13
:1000B0009C0FA10FA60FAB0FB00FB50FBA0FBF0F5C
:1000C000C40FC90FCB0FCE0FD10FD40FD70FDA0F3C
:1000D000DC0FE10F1612191239124A1252125D1278
:1000E000601263126612AC12AF1269126C127112B6
:1000F0007E128B128E1292129F12181918194A1919
:100100004A199719B519D61AD61AC019551A661A66
:10011000661AC61AD61AD61ACF1A761B761B881BF1
:10012000881B7F1B881B881B881B761B761B841BE8
:10013000881B881B841BF22C192D112E192D112EB2
:10014000652D882D112EDF2DEE2D24002500260093
:10015000550021002200230056001E001F00200031
:1001600057000151270063005800A800AE000000AE
:1001700000000100C35CC45CC25CCA5CC95CC65CB4
:10018000C55CC85CC75C0100010001000100005CA7
:100190000100010001000000000001000100010059
:1001A0000100010001000100010001000100010047
:1001B0000100010001000100010001000100000038
:1001C0000000010001000100010001000100010028
:1001D0000100010001000100010001000100010017
:1001E000010001000100000000000000000000000C
:1001F00000002A2B28000000000000000000000082
:10020000000000000029000000002C1E34202122E4
:1002100024342627252E362D3738271E1F2021224D
:10022000232425263333362E37381F0405060708C6
:10023000090A0B0C0D0E0F101112131415161718B6
:10024000191A1B1C1D2F3130232D350405060708F4
:10025000090A0B0C0D0E0F10111213141516171896
:10026000191A1B1C1D2F3130354C000000000000F6
:1002700000000000000000000000000000007E0FF1
:1002800000D4FFFFFFC70000007832190A00047F86
:100290003F1F643214643214783C1E1E140A052277
:1002A00023252628292A2C2D2F3032333536383A6B
:1002B0003B3D3E4042434547494A4C4E50515355C1
:1002C00057595A5C5E6062646668696B6D6F7173E2
:1002D0007577797B7D7F81838587898A8C8E9092E3
:1002E0009496989A9C9E9FA1A3A5A7A8AAACAEAFEE
:1002F000B1B3B4B6B8B9BBBCBEBFC1C2C3C5C6C733
:10030000C9CACBCCCDCED0D1D2D2D3D4D5D6D7D7E3
:10031000D8D9D9DADADBDBDBDCDCDCDCDCDDDDDD2B
:10032000DDDCDCDCDCDCDBDBDBDADAD9D9D8D7D727
:10033000D6D5D4D3D2D2D1D0CECDCCCBCAC9C7C6D4
:10034000C5C3C2C1BFBEBCBBB9B8B6B4B3B1AFAE12
:10035000ACAAA8A7A5A3A19F9E9C9A9896949290B8
:100360008E8C8A89878583817F7D7B797775737190
:100370006F6D6B6968666462605E5C5A595755536D
:1003800051504E4C4A4947454342403E3D3B3A3826
:1003900036353332302F2D2C2A292826252322FFCB
:1003A000AA7F554000010101010101010101020282
:1003B0000202020202020203030303030303030413
:1003C00004040404040405050505050606060606DE
:1003D000070707070708080808090909090A0A0A98
:1003E0000B0B0B0C0C0C0D0D0D0E0E0E0F0F0F103A
:1003F00010111111121213131414151516161717C4
:10040000181819191A1A1B1B1C1D1D1E1E1F20202F
:10041000212222232424252626272829292A2B2C79
:100420002D2D2E2F30313232333435363738393A9C
:100430003B3C3D3E3F404142434445464748494A94
:100440004C4D4E4F50515354555658595A5B5D5E62
:100450005F616264656668696B6C6D6F70727375FD
:1004600077787A7B7D7E8082838587888A8C8E8F61
:1004700091939596989A9C9EA0A2A3A5A7A9ABAD8F
:10048000AFB1B3B5B7BABCBEC0C2C4C6C9CBCDCF7D
:10049000D1D4D6D8DBDDDFE2E4E7E9EBEEF0F3F52B
:1004A000F8FAFDFF0403300000000C03480075005B
:1004B00062003100360000001A034A006F0073002A
:1004C000680020004A006F0068006E0073006F0033
:1004D0006E0000000403090409025B00030100A090
:1004E000FA090400000103010100092111010001C2
:1004F0002240000705810308000A090401000203E5
:1005000000000009211101000122220007058203D9
:100510002000010705030320000109040200010374
:100520000000000921110100012281000705840358
:1005300020000A12011001000000086A6A10480138
:1005400000010203010660FF0961A10109621500B3
:1005500026FF009520750881020963150026FF001B
:10056000952075089102C005010902A101850209C3
:1005700001A1000509190129051500250195057539
:1005800001810295017503810105010930093115C9
:1005900081257F95027508810609381581257F958B
:1005A0000175088106050C0A38021581257F950121
:1005B00075088106C0C005010980A10185031901E4
:1005C0002AB700150126B700950175108100C005F6
:1005D0000C0901A101850419012AA002150126A018
:1005E00002950175108100C005010906A1010507EA
:1005F00019E029E71500250195087501810295018B
:10060000750881010507190029FF150026FF0095CF
:1006100006750881000508190129059505750191E0
:1006200002950175039101C011241FBECFEFDAE0DE
:10063000DEBFCDBF04B603FE27C08091FF029091BC
:100640000003A0910103B09102038730904BA740B3
:10065000B04BD1F41092FF021092000310920103EC
:100660001092020314BE84B7877F84BF0FB6F8943C
:10067000A89580916000886180936000109260006E
:100680000FBEE0E0F8E3099511E0A0E0B1E0E4E599
:10069000FFE502C005900D92A43EB107D9F722E014
:1006A000A4EEB1E001C01D92AF3FB207E1F70E9496
:1006B00069280C94A82F0C940000E82FF0E0EA5170
:1006C000FE4F80810895CF93DF93AFE2B1E044E322
:1006D00051E061E070E08D91E82FE295EF70F0E07D
:1006E00021A18F70EB0102C0CC0FDD1F8A95E2F7CC
:1006F000CE019C2F9095922391A392A1892B82A346
:100700004A175B0741F7ABE2B1E04FE251E061E02D
:1007100070E08D91E82FE295EF70F0E021A18F70ED
:10072000EB0102C0CC0FDD1F8A95E2F7CE019C2FB2
:100730009095922391A392A1892B82A34A175B07DC
:1007400041F7EBEEF1E0A6EEB1E080EF91E011921F
:100750001D928E179F07D9F785E00E946808DF91E8
:10076000CF910C94F8055F926F927F928F929F9237
:10077000AF92BF92CF92DF92EF92FF920F931F93AF
:10078000CF93DF936FE271E0ABEEB1E020EFA22EEA
:1007900021E0B22E612C01E010E06D015C901C9212
:1007A000EB018991BE01E82FE295EF70F0E021A105
:1007B0008F70A80102C0440F551F8A95E2F7CA0145
:1007C000242B21A322A1942E9094292122A350EA24
:1007D0005A95F1F79BE2E92E91E0F92E40E050E0C6
:1007E000E70189907E01282D22952F7030E0E901E4
:1007F00028A17C9030E0D82DDF7002C03595279578
:10080000DA95E2F720FD08C0302F042E01C0330F27
:100810000A94EAF7232F01C020E027292C934F5F89
:100820005F4F44305105E1F691A1992291A292A126
:10083000892B82A3119681E0F6019081951101C068
:1008400080E0682AAA16BB0609F0A7CF262D45E04E
:1008500066EE71E08BEE91E00E9469084091EA013A
:100860001092EA012091E501322F330F3093E50118
:100870008091E401982F990F9093E4012FB1221FEA
:100880002227221F232B2093E50189B1881F882767
:10089000881F892B8093E40191E02F3F09F090E0BD
:1008A0008F3F11F080E001C082E0892B8093EA0144
:1008B00091E0481301C090E0C62DC92B0E940206AA
:1008C0008C2FDF91CF911F910F91FF90EF90DF90D0
:1008D000CF90BF90AF909F908F907F906F905F90E0
:1008E000089587988F9857985F9808950895089568
:1008F000811106C0662311F08AEA09C089EA07C09F
:10090000813039F4662311F08CEA01C08BEA0C9433
:10091000C118089581E0089581E008950C948C0435
:1009200008950C9490041F93CF93DF9300D000D0D0
:100930001F92CDB7DEB749835A836B8330914C0247
:1009400089819A81311114C0662359F0222349F01C
:100950000E94AD20182F682F89819A810E9458200B
:1009600003C00E948220182F69817A81812F04C0E0
:100970000E94AD2069817A810F900F900F900F90A7
:100980000F90DF91CF911F910C948E13FC01262FB5
:10099000408151816281738184810C949304CF934F
:1009A000DF93EC0160E00E94C604BE01DF91CF91AD
:1009B0000C949104FF920F931F93CF93DF93E82F32
:1009C000F0E0E651FE4FF490C82FC695C695C69547
:1009D000D0E0FE01E658FD4F0491877010E0082E2C
:1009E00002C0159507950A94E2F701701127FE01E0
:1009F000E659FD4FC491D0E002C0D595C7958A95C0
:100A0000E2F7C170DD270115110519F081EE0E9492
:100A1000AF17209719F086EE0E94AF178F2D0E9416
:100A2000C118CD2B19F086EE0E945918012B41F008
:100A300081EEDF91CF911F910F91FF900C94591887
:100A4000DF91CF911F910F91FF900895EF92FF9248
:100A50000F931F93CF93DF93EC01162F0AE0888149
:100A6000882309F455C0813009F043C08981813061
:100A700041F47E0182E0E80EF11C8A810E94C118D7
:100A800009C0823049F47E01E2E0EE0EF11C8A8159
:100A90000E94AF17E7012FC0833041F47E01F2E0DE
:100AA000EF0EF11C8A810E945918F4CF843011F0A6
:100AB000219621C02A81229680E090E030E02053E8
:100AC00031092A30310558F4089FA001099F500DC3
:100AD0001124C901840F951F21962881EFCF00971B
:100AE00051F0EFE9FFE03197F1F700C00000019706
:100AF000F6CF0E94DA042196812F882309F4AFCF24
:100B0000EFE9FFE03197F1F700C000008150F5CF29
:100B1000DF91CF911F910F91FF90EF90089560E0CA
:100B20000C9426058F929F92AF92BF92CF92DF9244
:100B3000EF92FF920F931F936B017C0181E090E095
:100B4000A0E0B0E04C015D0104C0880C991CAA1C17
:100B5000BB1C4A95D2F7AC01BD0104C0440F551F20
:100B6000661F771F2A95D2F7482959296A297B29B8
:100B700004C0880F991FAA1FBB1F0A95D2F78A01CC
:100B80009B010C211D212E213F2140175107620797
:100B9000730739F4BC01CD016C297D298E299F2969
:100BA0000AC080959095A095B095BC01CD016C21AF
:100BB0007D218E219F211F910F91FF90EF90DF905B
:100BC000CF90BF90AF909F908F9008950F93382F44
:100BD000262F6091940270919502809196029091D7
:100BE0009702042F432F0E9492050F910C94941F9B
:100BF0000E94DC230E94E521811102C00E9485220F
:100C00000C9471040C94760408950C94040681E00D
:100C100008950C940706CF93C82F0E9405068C2FC9
:100C20000E940906CF91089508950E94641B0E94B6
:100C300014062FEF84E39CE0215080409040E1F7C0
:100C400000C000000C94C9230F931F93CF93DF9330
:100C5000EC0161E00E94C6048C01BE010E946E118D
:100C60008823A9F1BE01C8010E948E04882379F16E
:100C7000BE01C8010E94C414882349F1BE01C80105
:100C80000E940515882319F1BE01C8010E94301683
:100C90008823E9F0BE01C8010E947A0F8823B9F0C9
:100CA0008A81882369F001158CE5180731F00E3D23
:100CB0001C4531F40E9485220AC00E94150607C017
:100CC000CE01DF91CF911F910F910C948A0480E0A7
:100CD000DF91CF911F910F91089580E090E00895EA
:100CE0000895880F991FFC01E657FD4F8591949157
:100CF0000895CF93DF930E948E130E949107EC0119
:100D00008115904508F041C0C11580E4D80708F06E
:100D1000D1C0C83ED10510F5C03ED10508F0FDC0D8
:100D2000C83AD10578F4C53AD10508F0A2C0C1305F
:100D3000D10509F4F2C008F4EEC0C430D10508F0C2
:100D4000ECC0E9C0CF3BD10508F49BC0C03CD10545
:100D500008F4E1C0CE01805C91099EC0C11590E20B
:100D6000D90758F4C11521E0D20708F0D6C0C03F1A
:100D7000D10508F4D0C0D065D0C0C11580E3D80734
:100D800008F08EC0CE019F7087C0C11595E5D907C8
:100D900008F043C0C11524E5D20708F0A2C0C11570
:100DA00082E5D80708F5C11591E5D90708F085C097
:100DB000CE0174E0969587957A95E1F783709C2F24
:100DC000937021E030E002C0220F331F9A95E2F7C2
:100DD0003C68382BCF70C695C69580E2C89FE0016D
:100DE0001124C22BD32B99C09E01237033278C2F43
:100DF00086958695C115D34508F064C0C1E0D0E062
:100E000002C0CC0FDD1F2A95E2F720E2829FC001CD
:100E10001124C82BD92BDC6880C0C11529E5D20765
:100E2000A0F4C11588E5D80708F060C0C11596E5A3
:100E3000D90708F070C08C2F0E9425088F71C82F29
:100E4000D0E0DC2FCC27D06268C0C1152AE5D207DC
:100E500008F451C0CE0190568115904208F05BC055
:100E60008D2F8F710E942508DD27D0628F71D82BBE
:100E700054C0C55AD0E0CE59DE4FC881D0E0D0640E
:100E80004CC0C85AD0E0CC0FDD1FCC5CDE4F0990BF
:100E9000D881C02DD46441C00E947106EC013DC0D0
:100EA000CE019927D3FF03C0EC01D86C36C0EC010A
:100EB000D06C33C0DF70D06A30C0DC2FCC27C16F5C
:100EC000D06A2BC0C1E0D0E002C0CC0FDD1F2A9554
:100ED000E2F720E2829FC0011124C82BD92BDA68E7
:100EE0001CC0DC2FCC27C46FD06A17C0DC2FCC27E6
:100EF000C06FD06A12C08C2F8F700E94250894E0BA
:100F0000D695C7959A95E1F7CF70D0E0DC2FCC2726
:100F1000D069C82B02C0C0E0D0E0CE01DF91CF91F4
:100F200008958238910569F1B0F48133910509F48F
:100F30006DC048F48932910509F463C08A32910585
:100F400009F469C008958533910509F455C08933C2
:100F50009105B9F00895833E910569F138F4803E1A
:100F60009105B1F0823E910509F10895863E910503
:100F7000A9F1873E9105B9F1843E910509F064C05D
:100F800023C02091F00220FD4FC021FD4DC00895E7
:100F90008091F00280FD44C08091F10280FF44C046
:100FA0008091F00284FD42C083EE4DC08091F0023A
:100FB00082FF38C0F5CF8091F00282FD33C080916E
:100FC000F10280FD31C0ECCF8091F10281FF32C08F
:100FD0008091F00284FD2AC087EE35C08091F00236
:100FE00083FF26C0F5CF8091F00283FD21C0809160
:100FF000F10281FD1FC0ECCF8091F00285FD1CC085
:101000001DC08091F00285FD19C016C08091F002CC
:1010100086FD16C017C08091F00286FD13C010C077
:1010200089E311C082EE0FC080EE0DC080E00BC0DE
:1010300086EE09C084EE07C089E205C085E303C0DF
:101040008AE201C081E390E008959091F00292FF5E
:101050000DC0282F2871283019F4877F846006C0BE
:10106000282F2471243011F48B7F886093FF0DC0EA
:10107000282F2871283119F4877E846106C0282F13
:101080002471243111F48B7E88612091F10220FFBC
:101090000DC0382F3871383019F4877F816006C051
:1010A000382F3171313011F48E7F886021FF0DC0EF
:1010B000282F2871283119F4877E816106C0282FD6
:1010C0002171213111F48E7E886194FD877E08950F
:1010D0000895FF920F931F93CF93DF938C01F62E09
:1010E000D72FC42F222349F081E08093F2010E9480
:1010F0007C239093F1018093F0018091F201882389
:10110000C1F08091F0019091F1010E9494234597E4
:1011100080F0EF2DFD2FD8014C2F50E0CD01801B2A
:10112000910B841795071CF48D918193F7CF109242
:10113000F201DF91CF911F910F91FF900895EF92EF
:10114000FF920F931F93CF93DF93F62E472FE82F35
:10115000F0E0711106C0EC55FC4F6491762F862F9C
:1011600072C0272F30E0EC55FC4FE4910E2F10E0B9
:1011700056E0659FC0011124CFEFD0E0BE010E9470
:101180005F2E5BEA5603C001579F900D11248F0D0F
:10119000911D8F0D911D982F990F890F7E01E21AD5
:1011A000F30AE09ED001E19EB00DF09EB00D112437
:1011B000489FA0011124452F55277E01E41AF50A06
:1011C000E09EA001E19E500DF09E500D11247E0185
:1011D000E81AF108E29EC001E39E900DF29E900D88
:1011E0001124892F9927C81BD90BC09FC001C19F0B
:1011F000900DD09F900D11246230710591F048F44C
:1012000061157105E1F061307105A9F48B2F752F1F
:1012100019C06430710561F038F06630710579F0FD
:101220000AC0892F7B2F0EC08E2F7B2FE52F0AC07F
:101230008E2F792F02C0852F7E2FEB2F03C08B2F8F
:101240007E2FE92F6E2FDF91CF911F910F91FF908D
:10125000EF9008950895CF93DF93762FE901682FDB
:10126000842F0E949F08798368838A83DF91CF91BE
:1012700008958091C602282F269530E0211531056A
:1012800019F48170826005C02B32310524F0817021
:1012900084658093C602089588E090E00C94052F41
:1012A000CF92DF92EF92FF926B017C010E9439098D
:1012B000B701A60188E090E0FF90EF90DF90CF901B
:1012C0000C94232F6091C6027091C7028091C802CE
:1012D0009091C9020C945009E6ECF2E083E080831F
:1012E00011828FEF82838383148260817181828176
:1012F00093810C9450098091C60280FF02C08695AC
:10130000089580E008958091CA02833018F48F5FB9
:101310008093CA026091C6027091C7028091C80290
:101320009091C9020C9450098091CA02882319F047
:1013300081508093CA026091C6027091C702809169
:10134000C8029091C9020C9450098091CA02089574
:101350008093CA02662351F06091C6027091C70261
:101360008091C8029091C9020C945009089560E0E0
:101370000C94A8098091C70208958091C80208952D
:101380008091C902089570E00C94EB0F6091070101
:101390008091C60280FF0AC08091060123E0829FEF
:1013A000C001112485539D4F0C94C30980910801FD
:1013B00090910901891780F7E82FF0E09F01220F33
:1013C000331FE20FF31FE553FD4F1182108212828B
:1013D0008F5FF0CF9091C60290FF16C090910801E8
:1013E00020910901921770F4E92FF0E0DF01AA0FB4
:1013F000BB1FEA0FFB1FE553FD4F818360834283D0
:101400009F5FF0CF0C94C6090895CF93DF9300D06F
:101410001F92CDB7DEB79091C60290FF0AC09E0121
:101420002F5F3F4F0E942B094B8169818A810E9467
:10143000EA090F900F900F90DF91CF910895CF930D
:10144000DF93EC01EC81F0E0E156FD4F4491E6ECD6
:10145000F2E0628181810E94050A8C818F5F8C831A
:10146000DF91CF910895CF93DF93EC01E6ECF2E0AA
:10147000438162818C810E94050A8C818F5F8C83FD
:10148000DF91CF9108950F931F93CF93DF9300D0F7
:101490001F92CDB7DEB78C018091F30181110AC094
:1014A0009E012F5F3F4F4FEF6FEF0E942B098A8104
:1014B0008093F301F8018481813051F028F082306B
:1014C00061F44091F3010AC08091F30140E007C04C
:1014D0006091F30140E080E003C040E080E060E024
:1014E0000E94EA09F801848190E0019663E070E0CF
:1014F0000E94732E84830F900F900F90DF91CF91F5
:101500001F910F910895AF92BF92CF92DF92EF9209
:10151000FF920F931F93CF93DF9300D01F92CDB70D
:10152000DEB7182FF62E042FE22E9091C60290FF00
:101530006DC0E92FE695AE2FB0E0AB59BE4F8C9150
:10154000809334029E7F923061F49E012F5F3F4F63
:10155000812F0E942B094B8169818A810E94EA09AF
:1015600043C0823019F40091C9023EC0863019F49C
:101570001091C70239C08930D9F38931A9F5E951F1
:101580008E2F8170D82EE695F0E0E156FC4FA590A5
:10159000B490C12CBB2460910A01C61618F52C2DFD
:1015A00030E0A29EC001A39E900DB29E900D11242A
:1015B00070E00E945F2E812FD11002C0860F01C003
:1015C000861B90910801290F311DA901440F551F59
:1015D000240F351F25533D4F402F6F2D0E942B099F
:1015E000C394D9CF0E94C6091093C702F092C802D3
:1015F0000093C902EE2051F06091C6027091C702BB
:101600008091C8029091C9020E9450090F900F90DA
:101610000F90DF91CF911F910F91FF90EF90DF908E
:10162000CF90BF90AF900895E6ECF2E09181282F23
:101630004381628188E0890F0C94830A81E00C94D5
:10164000140BE6ECF2E09181282F4381628188EF50
:10165000890F0C94830A81E00C94210BE6ECF2E0F4
:10166000628128E0620F08F46FEF282F43818181A7
:101670000C94830A81E00C942E0BE6ECF2E062817C
:1016800028E0621B08F460E0282F438181810C94DC
:10169000830A81E00C943D0BE6ECF2E0438128E004
:1016A000420F08F44FEF282F628181810C94830A46
:1016B00081E00C944C0BE6ECF2E0438128E0421B05
:1016C00008F440E0282F628181810C94830A81E034
:1016D0000C945B0B20E00C94830AFF920F931F93F2
:1016E000CF93DF93EC01F12C0FEF10E060910A0132
:1016F000F616F0F4809108012F2D30E0280F311DEF
:10170000C901880F991F280F391F25533D4F70E0DD
:10171000C8010E94732E962F8C814091C90260915E
:10172000C802F99E800D11240E942B09F394DECF8C
:101730000E94C6099A818C8190FF02C08F5F01C010
:1017400081508C83DF91CF911F910F91FF9008956D
:10175000AF92BF92CF92DF92EF92FF920F931F93BF
:10176000CF93DF93FC01828180FF02C00FEF01C0A5
:1017700001E010E04BE0A42E80910A01181708F058
:1017800043C080910801C12ED12CE601C80FD11DA4
:10179000CE01880F991FC80FD91FC553DD4F19827D
:1017A00018821A8234E0E32EF12CB12C8091F501DD
:1017B0008B0D8C302CF06A2D0E94512E892F05C084
:1017C00087FF03C090910A01890F082E000C990B26
:1017D000C816D90691F48091C9028E9DA0018F9DF3
:1017E000500D112455954795559547959E0160914B
:1017F000C8028091C7020E942B09B00EF1E0EF1AD7
:10180000F108A1F61F5FB8CF0E94C6098091F501CB
:10181000013031F4811102C080910A01815007C06A
:1018200090E0019660910A0170E00E94732E80930F
:10183000F501DF91CF911F910F91FF90EF90DF9015
:10184000CF90BF90AF900895CF9380910801909171
:101850000901891770F4E82FF0E09F01220F331F70
:10186000E20FF31FE553FD4F1182108212828F5F4A
:10187000F0CFC0E060910A01C617C0F5EC2FF0E090
:1018800070E0CF010E94732E20910801820F2091F9
:10189000F401022E000C330B90E0E217F307CCF0BA
:1018A00020910501022E000C330B2E173F078CF000
:1018B0009C01220F331F820F931F9C0125533D4F24
:1018C0004091C9026091C8028091C7020E942B0911
:1018D0000BC0FC01EE0FFF1F8E0F9F1FFC01E55395
:1018E000FD4F118210821282CF5FC4CF0E94C609C1
:1018F000209104018091F401820F8093F401909172
:101900000501920F9093050119165CF4082E000C46
:10191000990B40910A0150E04150510984179507F5
:101920001CF0219520930401CF9108950F931F93EC
:10193000CF93DF938C01FC018481958101968170A6
:10194000992795838483C0E0D5E580910A01C81763
:1019500000F5809108012C2F30E0280F311DC901BE
:10196000880F991F280F391F25533D4F4C2F46953F
:10197000F80184819581840F911D81704091C90285
:101980006091C8028D9F802D11240E942B09CF5F8A
:10199000DCCFDF91CF911F910F910C94C6090F936B
:1019A0001F93CF93DF93EC0100E010E080910A01D8
:1019B000282F30E00217130724F5909108019801B1
:1019C000290F311DA901440F551F240F351F255321
:1019D0003D4F869590E04C81081719071CF444236D
:1019E00031F002C0411103C04091C90201C040E082
:1019F0006091C8028091C7020E942B090F5F1F4FA0
:101A0000D5CF0E94C6098C8190E0019681709927FC
:101A10008C83DF91CF911F910F9108958F929F92A8
:101A2000AF92BF92CF92DF92EF92FF920F931F93EC
:101A3000CF93DF93FC01B280948081E0848300E047
:101A400015E05BE4A52E88248394EE24EA94F12C1F
:101A50007BE4C72ED12C80910A01081708F08FC0B3
:101A6000C02FD0E01C9FF0011D9FF00D1124EA5003
:101A7000FE4F911003C01382128267C0238122237C
:101A800089F1215023833481332319F09A2D921B3D
:101A900001C0922F8091C9021C9FF0011D9FF00D83
:101AA0001124EA50FE4F899FC0011124B6010E9403
:101AB0005F2E6283211104C0332311F01482A382AC
:101AC00022E02B1508F441C01C9FF0011D9FF00D72
:101AD0001124EA50FE4F8091C70280838091C80292
:101AE000818333C00E94E02E8230914074F582E001
:101AF0008B1530F40E94E02EB7010E94732E02C0B5
:101B00008091C7021C9FF0011D9FF00D1124EA5027
:101B1000FE4F808322E02B1558F40E94E02E209186
:101B2000C8022695622F70E00E94732E820F02C0B9
:101B30008091C8021C9FF0011D9FF00D1124EA50F6
:101B4000FE4F81831282A3828482809108019E01CC
:101B5000280F311DC901880F991F280F391F2553E0
:101B60003D4F1C9FF0011D9FF00D1124EA50FE4FC8
:101B70004281618180810E942B090F5F6CCFDF91D0
:101B8000CF911F910F91FF90EF90DF90CF90BF907A
:101B9000AF909F908F900C94C609E6ECF2E08081A4
:101BA0008E7F808360817181828193810E94500940
:101BB000109235022FEF80E792E021508040904054
:101BC000E1F700C000000C94C609E6ECF2E0808169
:101BD0008E7F8083109235022FEF80E792E02150B4
:101BE00080409040E1F700C000000C94C60960916D
:101BF000C602669570E04BE050E08BE091E00E94F9
:101C0000F02E892B19F481E0809335020E947C2309
:101C100090932E0280932D0208959091C60290FF1A
:101C200035C09170811102C0926006C08B3210F0F5
:101C3000946502C0880F982B9093C602662351F0DA
:101C40006091C6027091C7028091C8029091C9024A
:101C50000E9450096091C602669570E04BE050E02A
:101C60008BE091E00E94F02E892B19F01092350242
:101C700002C00E94F70D81E0809330024091C902BA
:101C80006091C8028091C7020C946A0B0895682F76
:101C90009091C602969581E0890F8B3208F081E021
:101CA0000C940D0E81E00C94470E682F9091C602A3
:101CB00096958FEF890F09F48AE20C940D0E81E05E
:101CC0000C94550E61E00C940D0EE6ECF2E0808170
:101CD0008160808386950C94620E8091C60280FD9F
:101CE0000C94CD0D0C94650E60E00C940D0E80915B
:101CF000330281112EC00E94E521811104C00E948F
:101D000085220E946C090E944C096093C602709360
:101D1000C7028093C8029093C9026E7F61F40E944B
:101D20006C090E944C096093C6027093C7028093AD
:101D3000C8029093C9020E9439091092350280911D
:101D4000C60280FF03C086950E94740E81E08093D6
:101D500033020895E6ECF2E080818160808386950D
:101D60000C94740E1092350208950F931F93CF9325
:101D7000DF9380913502882309F49CC0809134025E
:101D8000E091C602E695E81BE0932F02823049F409
:101D9000F0E0E556FD4FE491CE2FD0E00FE11AE0E0
:101DA00059C0863049F4F0E0E856FD4FE491CE2F5B
:101DB000D0E003E31AE04EC0893051F4E695F0E03C
:101DC000EB56FD4FE491CE2FD0E00DE61BE042C074
:101DD0008F3051F4E695F0E0EE56FD4FE491CE2FB2
:101DE000D0E008EA1BE036C0853149F4F0E0E15765
:101DF000FD4FE491CE2FD0E004E21CE02BC08831EF
:101E0000D9F0833239F4EDE8F2E0C591D49103E4DE
:101E10001AE020C08432A9F08532C1F48E2F63E02D
:101E20000E94452EE92FF0E0E657FD4FE491CE2FBA
:101E3000D0E00EE01DE00EC0C8EED3E006E91CE0E5
:101E400009C0C4EFD1E00FEC1CE004C0C0EDD7E046
:101E50000AE219E080913002882389F01092300262
:101E60000E947C239E0120953095820F931F9093B2
:101E70002E0280932D021092320210923102809134
:101E80002D0290912E020E9494238C179D0790F0B2
:101E9000E0912D02F0912E02CE0FDF1FD0932E0283
:101EA000C0932D028DE292E0F801DF91CF911F9156
:101EB0000F910994DF91CF911F910F91089588237D
:101EC00011F0FA0101C0FB010994CF93DF93C82FF1
:101ED000D62F0E947B098C1740F00E947B098D173A
:101EE00020F4DF91CF910C94520E8C2FDF91CF9183
:101EF0000C94620E0F931F93CF93FB01C281CC23EE
:101F000009F463C08C010E942E218272F801E25C08
:101F1000FC45E431F10508F059C0EA5AFF4F0C9432
:101F2000872E0E946D0E06C04FE55EE062E57EE002
:101F30000E945F0FC0E04AC042E55EE06FE57EE0D0
:101F4000F7CF4BE25BE06EE17BE0F2CF4EE15BE08E
:101F50006BE27BE0EDCF49E45BE06AE37BE0E8CF56
:101F60004AE35BE069E47BE0E3CF47E65BE068E5FA
:101F70007BE0DECF48E55BE067E67BE0D9CF44E974
:101F800059E063E879E0D4CF43E859E064E979E0C7
:101F9000CFCF81E017C065E082E010C068E086E046
:101FA0000DC06EE089E00AC064E18FE007C067E120
:101FB00085E104C088E106C062E289E10E94650F04
:101FC000B9CF83E20E94620EB5CFC1E08C2FCF91D2
:101FD0001F910F910895519A2BB12D7F3BB1326023
:101FE0004FB7F894FC01CB01880F991F680F791F38
:101FF0006E0F7F1FE617F70789F0819198E03BB9D4
:10200000000000C087FF2BB9880F000000C000C08F
:1020100000C02BB900C09A9591F7ECCF4FBF8FE568
:1020200094E00197F1F700C0000008950C94780443
:10203000FF920F931F93CF93DF93CAE3D2E042EA5C
:1020400051E020EA31E061E070E0F2E0CC33DF07FC
:1020500009F44CC0FA010191AF01A02FA295AF7015
:10206000B0E09196EC9191970F70CB01002E01C0DA
:10207000880F0A94EAF7982F90959E2391969C9347
:10208000919792969C919297892B92968C93929786
:10209000F90111919F01E12FE295EF70F0E0F1A0BD
:1020A0001F70CB01012E01C0880F0A94EAF7982F08
:1020B00090959F2191A392A1892B82A390968C91B8
:1020C00090E002C0959587950A95E2F78170E0A1AE
:1020D000F0E002C0F595E7951A95E2F7E0FD02C041
:1020E00090E001C092E0892B8993AFCFDF91CF912F
:1020F0001F910F91FF9008955F926F927F928F9240
:102100009F92AF92BF92CF92DF92EF92FF920F9386
:102110001F93CF93DF938AE3682E82E0782E92EAB2
:10212000E92E91E0F92E00EA11E028E3822E22E068
:10213000922EC6E3D2E063015301512CD501ED91FB
:102140005D014E2F440F440FF60141936F01D701FB
:102150002D917D01E22FE295EF70F0E080A190E0FB
:102160002F7002C0959587952A95E2F7817099277F
:10217000F80151918F01E52FE295EF70F0E020A179
:1021800030E05F7002C0359527955A95E2F7F90166
:10219000E170FF2720FF02C0E2E0F0E0E82BF92B1E
:1021A000E42BD301ED933D01EF70F0E0E057FE4FDB
:1021B0009081F4018081890F808384303CF0888194
:1021C0008F5F888361E0852D0E941610D4018C9169
:1021D0008D3F3CF488818150888360E0852D0E948A
:1021E0001610F4018081837887FF03C081508C6FC3
:1021F0008F5FD4018D934D0153942196B2E05B1211
:102200009DCFDF91CF911F910F91FF90EF90DF90C5
:10221000CF90BF90AF909F908F907F906F905F9086
:10222000089582E290E00E94FD2E803281F483E2E4
:1022300090E00E94FD2E813151F484E290E00E94F2
:10224000FD2E91E0813209F090E0892F01C080E0FD
:1022500081700895CF93C82F811102C06FEF01C024
:1022600060E282E290E00E94112FC11102C06FEF84
:1022700001C061E183E290E00E94112FC11102C010
:102280006FEF01C061E284E290E0CF910C94112FD6
:1022900080E00E942A110C94DF21089585E290E0ED
:1022A0000E94FD2E682F70E080E090E0089585E2A6
:1022B00090E00C94112F0E944D110E941111811178
:1022C0000CC060E070E0CB010E9457110E940B131C
:1022D0000E94E81381E00C942A110895CF93FB012A
:1022E000C281CC23E9F09C0122513F4520313105C8
:1022F00020F482510E94F8130CC08031FFE59F0743
:1023000051F481E00E94BA1F43E062E081E00E9444
:10231000E605C0E018C081319F45A9F482E0F2CF04
:102320008031EFE59E0711F481E004C081319F45C3
:1023300049F482E00E94DB1F43E062E081E00E94FA
:10234000E60501C0C1E08C2FCF9108952FEFFC016D
:1023500020830895CF93DF93EC018881813889F041
:1023600028F48038A1F40E94C00910C0823861F0BE
:10237000833869F40E94BA0989830E94BD098A835F
:1023800006C00E947B0902C00E94A5098983DF91D3
:10239000CF910895CF93DF93EC0188818138B1F01C
:1023A00058F4803851F5D9810E94BD09C82F0E9488
:1023B000BA094D2F6C2F1DC08238B1F08338E9F473
:1023C0000E94C009482F6A81898113C089810E94B7
:1023D000740E8981811104C0DF91CF910C94E50DB9
:1023E000DF91CF910C94AA0E8981DF91CF910C944B
:1023F000B709DF91CF910C946A0BDF91CF910895CB
:10240000EF92FF920F931F93CF93DF93EC01162F60
:102410000196E8814E2F50E0FA013197E331F10542
:1024200008F0ACC0E659FF4F0C94872E198289E062
:1024300056C08981823039F0833061F0813029F5CE
:102440000E94882302C00E944E119A838B837C8352
:102450006D8396C07E0122E0E20EF11C00E0802F29
:102460000E945D03F70181937F010F5F0530B9F78B
:1024700087C08981823049F46A817B818C819D810A
:102480000E948D2E0E9457117BC0612FCE010E94A9
:10249000A61176C04B816A8189810E94DD129C83DE
:1024A0008D836EC02C813D813227232732274B81BB
:1024B0006A8189810E94F61263C00E940B1360C07A
:1024C0000E94CA115DC00E94AA115AC00E946209EE
:1024D00057C00E949B1324C00E949D1399838A8336
:1024E0004FC06B8170E089819A81AE014C5F5F4F74
:1024F0009827892798270E94A01342C06B8170E01B
:1025000089819A81AE014C5F5F4F98278927982770
:102510000E94C51335C00E94E81332C00E94CA123F
:1025200089832EC06B8170E089819A81AE014C5FF6
:102530005F4F9827892798270E944A1321C06B81F3
:1025400070E089819A81AE014C5F5F4F982789279F
:1025500098270E946D1314C00E94481111C0CE012B
:102560000E945927FFEF21EE84E0F1502040804087
:10257000E1F700C000000E94C92302C08FEF8883EA
:10258000612FCE01DF91CF911F910F91FF90EF90BE
:102590000C94592784E0089550E0440F551F28E01B
:1025A000629F400D511D11249A0168E2869F200D03
:1025B000311D1124C901869608950F931F93CF935F
:1025C000DF930E94CC128C010E94FD2EC82FD0E018
:1025D000DC2FCC27C80101960E94FD2E9E01282BDE
:1025E000C901DF91CF911F910F9108950F931F9310
:1025F000CF93DF93122F032F0E94CC12EC01602F98
:102600000E94112F612FCE010196DF91CF911F9172
:102610000F910C94112FAF92BF92CF92DF92EF9255
:10262000FF920F931F93CF93DF93A12CE12CF12CFA
:10263000B12C00E010E0C0E0D0E06701C00ED11E78
:10264000F601EC0FFD1FEE0FFF1FE65BFE4F25911D
:1026500034914C2F6B2D8A2D0E94F6122196C43096
:10266000D10571F70C5F1F4FB39485E0B812E3CF2B
:1026700084E1E80EF11CA39484E0A812D9CFDF9185
:10268000CF911F910F91FF90EF90DF90CF90BF906F
:10269000AF900895EF92FF920F931F93CF93DF9324
:1026A000EA017A01E60EF71E8C01C8018696CE1566
:1026B000DF0561F0003A110520F40E94FD2E8883A9
:1026C00001C0188221960F5F1F4FEFCFDF91CF918E
:1026D0001F910F91FF90EF900895EF92FF920F934B
:1026E0001F93CF93DF93EA017A01E60EF71E8C0168
:1026F000C8018696CE15DF0551F0003A110518F491
:1027000068810E94112F21960F5F1F4FF1CFDF913B
:10271000CF911F910F91FF90EF900895462F843035
:1027200038F4753028F4643018F4672F0C94DD12F7
:1027300080E090E0089580E108958AE393E00895B1
:10274000EF92FF920F931F93CF93DF93EA017A01E9
:10275000E60EF71E8C01C8018A539F4FCE15DF0588
:1027600069F00A3323E0120720F40E94FD2E8883CB
:1027700001C0188221960F5F1F4FEDCFDF91CF91DF
:102780001F910F91FF90EF900895EF92FF920F939A
:102790001F93CF93DF93EA017A01E60EF71E8C01B7
:1027A000C8018A539F4FCE15DF0559F00A3323E045
:1027B000120718F468810E94112F21960F5F1F4F96
:1027C000EFCFDF91CF911F910F91FF90EF90089580
:1027D000CF93DF93C6ECD0E060E0CE010E94112FD2
:1027E0002196C11584E0D807B9F7DF91CF910895FC
:1027F000DF92EF92FF920F931F93CF93DF9300D05E
:1028000000D0CDB7DEB7F82E8FE08F15E8F18FEF4F
:1028100093E00E94FD2E811137C006EC10E0FF20EE
:1028200069F0011584E0180779F1C8010E94FD2EB6
:10283000811101C0FA940F5F1F4FF1CF19821A82E4
:102840001B821C82DD24D39478018FEFE81AF80AEA
:10285000C8010E94FD2E89831A828823A9F09FEF68
:10286000980F933058F48A83D9820E5F1F4FC701A7
:102870000E94FD2E8B83882339F07801CE010196CA
:102880000E948F058701E0CF0F900F900F900F905F
:10289000DF91CF911F910F91FF90EF90DF900895FE
:1028A0000F931F93CF93DF93C62FD42F122FFC01CA
:1028B00082818823C9F060933E020E947C2390931A
:1028C0003D0280933C0280E28C0F883008F057C0B4
:1028D000C77081E001C0880FCA95EAF7DF91CF91F8
:1028E0001F910F910C94D41880913E02681330C050
:1028F00080913C0290913D020E949423883C910576
:1029000038F500E20D0FCD17B9F080E28C0F88305A
:1029100040F4C77081E001C0880FCA95EAF70E94B1
:10292000DB18083028F581E09D2F977001C0880FD3
:102930009A95EAF70E94D418812F0E94C118083096
:10294000F0F4D77081E001C0880FDA95EAF70AC089
:1029500080E28C0F883098F4C77081E001C0880F46
:10296000CA95EAF7DF91CF911F910F910C94DB1874
:10297000812FDF91CF911F910F910C94C118DF919E
:10298000CF911F910F9108959C01CB01233F4CE5FE
:102990003407F9F078F4283DFCE53F07B9F0293D0C
:1029A0004CE5340711F1273D3C4531F526E241EE77
:1029B00061EE1EC0253FFCE53F0799F070F0263F11
:1029C0003C45D1F427E245EE66EE12C027E245EE23
:1029D0000EC026E241EE60EE0BC027E245EE64EE4B
:1029E00007C026E241EE62EE03C028E241E065EE58
:1029F0000E94501480E00895FC018281882319F020
:102A000010923E02089581E00895CF93DF93EC0188
:102A1000FB018281882309F41FC1C230FCE5DF0776
:102A200008F41BC1C6319CE5D90738F09E012A5F26
:102A30003C452930310508F010C10E94F8219093DF
:102A4000F1028093F002C031ECE5DE0709F4C3C067
:102A500008F041C0C8308CE5D80709F49AC0F0F4FA
:102A6000C430ECE5DE0709F487C068F4C2308CE5B9
:102A7000D80709F477C0C330DC4509F0E3C0809182
:102A8000F002826076C0C630ECE5DE0709F46EC065
:102A900008F07BC08091F00288606BC0CC308CE580
:102AA000D80709F485C068F4CA30ECE5DE0709F4FC
:102AB00074C008F079C00E94641B8091F0028068A5
:102AC00058C0CE308CE5D80709F476C008F07FC036
:102AD0008091F0028BC0CB3FECE5DE0709F44FC0DC
:102AE00018F5C3318CE5D80709F47DC078F4C131FD
:102AF000ECE5DE0709F473C0C231DC4509F0A2C081
:102B00000E94641B8091F0028F7733C0C5318CE541
:102B1000D80709F472C008F486C0CA3FDC4509F042
:102B200091C08091F1023EC0CF3FFCE5DF0709F480
:102B30005FC058F4CD3F9CE5D90709F444C008F4C0
:102B40003FC08091F10282602DC0C130FDE5DF07FA
:102B500009F475C008F45DC0C230DD4509F072C0EB
:102B600080E06EC08091F002816003C08091F0022D
:102B700080618093F00266C08091F00211C0809164
:102B8000F10282608093F1025DC08091F002806268
:102B9000F0CF8091F0028064ECCF8091F0028860E9
:102BA0008460E7CF8160EECF8091F0028E7FE1CF2D
:102BB0008091F0028D7FDDCF8091F002877FD9CFA9
:102BC0008091F10218C08091F1028D7FDBCF80915E
:102BD000F0028F7ECECF8091F0028F7DCACF8091A0
:102BE000F0028F7BC6CF8091F002877F8B7FC1CFB1
:102BF0008091F1028D7F8E7FC5CF8091F00282FBA4
:102C0000222720F991E0922790FB82F990FB83F92B
:102C1000B0CF8091F102982F909591708E7F892B83
:102C200090FB81F9AFCF0E94641B8091F00287FB7B
:102C3000222720F991E0922790FB87F99ACF81E033
:102C40000E9487228091F0029091F1020E94092255
:102C50000E94641B80E001C081E0DF91CF91089564
:102C6000CF93DF9386319C4541F5EB010E942E21E5
:102C7000982F8A812091160130911701882379F0CD
:102C80009A7A81E009F480E080933F02911102C0BA
:102C900069E201C065E3C9010E94CE220AC08091A9
:102CA0003F02811102C069E201C065E3C9010E94CF
:102CB000D0220E947C2180E001C081E0DF91CF9191
:102CC000089590934502809344020895E091440250
:102CD000F0914502309721F00190F081E02D0994A8
:102CE00080E00895E0914402F0914502309721F090
:102CF0000280F381E02D09940895E0914402F0915F
:102D00004502309739F022E0DC012C930480F581F4
:102D1000E02D099408952091420230914302281732
:102D2000390771F09093430280934202E09144028C
:102D3000F0914502309721F00680F781E02D09944B
:102D4000089520914002309141022817390771F00F
:102D50009093410280934002E0914402F091450239
:102D6000309721F00084F185E02D0994089585B70E
:102D7000806885BF85B7806885BF089508950C94E5
:102D8000BE160C94BF160C94BE160C94BE160E9470
:102D9000B7160E94C3160C94C11681E008950C94D6
:102DA000CD160E9473230E9463030E945B110E9450
:102DB000F3230E94770E0E9418100C94C516AF9250
:102DC000BF92CF92DF92EF92FF920F931F93CF9318
:102DD000DF93CDB7DEB72A970FB6F894DEBF0FBEEC
:102DE000CDBF0E94B3030E94CF16811111C08FEF97
:102DF00089838A831B820E947C238160782F9D8334
:102E00008C8349815A816B818D810E947B1740C0E0
:102E100087E4A82E82E0B82E00E010E0C02E802FBC
:102E20000E945D03E82EF501D1905F01D82631F4B0
:102E30000F5F1F4F0530110589F7D9CF8091A90287
:102E400081FD0E94770480E0FF24F3949D2D9F2153
:102E5000D1F08E83CF82EF2081E009F480E0888773
:102E60000E947C238160782F9A8789874E815F81B9
:102E700068858A850E947B17F801E95BFD4F808198
:102E8000F826F08205C08F5FFF0C8430F9F6D0CFB2
:102E90000E94B50E0E947C100E9485250E94661635
:102EA000909146028917B1F00E94661680934602FF
:102EB0002A960FB6F894DEBF0FBECDBFDF91CF913B
:102EC0001F910F91FF90EF90DF90CF90BF90AF9048
:102ED0000C940B062A960FB6F894DEBF0FBECDBF3A
:102EE000DF91CF911F910F91FF90EF90DF90CF90E6
:102EF000BF90AF900895CF93DF93CDB7DEB72B97F8
:102F00000FB6F894DEBF0FBECDBF4F8358876987D9
:102F10007A878B87DE01119686E0FD0111928A95F2
:102F2000E9F785E0FE01379601900D928A95E1F769
:102F300049815A816B817C818D819E810E941D1EF9
:102F40002B960FB6F894DEBF0FBECDBFDF91CF91A9
:102F50000895FC01808191810E94EF200895CF9314
:102F6000882309F4A4C0C82F8238C1F40E946616D1
:102F700081FD9DC069E380911601909117010E9427
:102F8000CE220E947C212FEF81EE94E021508040E0
:102F90009040E1F700C0000069E319C0833801F5F3
:102FA0000E94661680FD83C063E5809116019091B2
:102FB00017010E94CE220E947C212FEF81EE94E027
:102FC000215080409040E1F700C0000063E580910F
:102FD0001601909117010E94D022CF910C947C2170
:102FE0008438C1F40E94661682FD61C067E4809156
:102FF0001601909117010E94CE220E947C212FEF92
:1030000081EE94E0215080409040E1F700C0000044
:1030100067E4DDCF8CEF8C0F813AD0F46C2F809178
:103020001601909117010E949822882349F06C2F75
:1030300080911601909117010E94D0220E947C215C
:103040006C2F80911601909117010E94CE22C5CF5E
:1030500080E28C0F883048F4C77081E001C0880F8F
:10306000CA95EAF70E943121B8CFEBE5EC0FE330C7
:1030700040F4F0E0EE52FE4F808190E0CF910C944E
:103080008B16E8E5EC0FE73150F4F0E0EE0FFF1F90
:10309000EC55FE4F80819181CF910C94A116C03FD9
:1030A00030F08C2F0E948D24CF910C947A25CF91F3
:1030B0000895882309F464C0823879F40E94661662
:1030C00081FF5EC069E380911601909117010E9413
:1030D000CE220E947C2169E310C08338B1F40E94A3
:1030E000661680FF4DC063E580911601909117012F
:1030F0000E94CE220E947C2163E58091160190916E
:1031000017010E94D0220C947C21843879F40E940B
:10311000661682FF35C067E4809116019091170111
:103120000E94CE220E947C2167E4E7CF9CEF980F9B
:10313000913A10F4682FE1CF90E2980F983050F454
:10314000877091E001C0990F8A95EAF7892F0E9454
:103150003721D9CF9BE5980F933020F480E090E0A1
:103160000C948B1698E5980F973120F480E090E04E
:103170000C94A116803F20F00E94F5240C947A252F
:103180000895CF93C82F0E94AF17C93349F42FEF8A
:1031900087EE93E0215080409040E1F700C00000AE
:1031A0008C2FCF910C945918882321F00E94312143
:1031B0000C947C210895882321F00E9437210C94DF
:1031C0007C210895CF92DF92EF92FF920F931F938D
:1031D000CF93DF937C01062FC72FFC011581129539
:1031E0001F70D281D1110E944E210E942721882375
:1031F00099F0DD2389F08C2F807F803421F080E2EC
:10320000800F883048F082E00E94C6210E9427216A
:1032100091E0D82ED92601C0D12CCC2EC2948FE0BB
:10322000C8228C2D90E0FC01E358FF4F0C94872EB0
:103230008C2F807FCF70882311F0C295C07FDD2353
:1032400099F0CC2309F48DC180E2800F883010F012
:10325000011104C08C2F0E94312103C08C2F0E94C9
:1032600041210E947C217DC1802F0E945918CC23CE
:1032700009F49CC180E2800F883010F0011104C075
:103280008C2F0E94372103C08C2F0E9447210E945F
:103290007C218CC18C2F807FCF70803211F0C29541
:1032A000C07F002319F00130C9F022C0DD2371F086
:1032B000112341F0113031F40E9461218C2B0E94C6
:1032C000692174C10E9461218C2B1DC0112319F04A
:1032D000113009F46BC10E94722125C0DD2321F059
:1032E000163008F063C10EC0153008F05FC11BC076
:1032F000DD2361F0112331F0F701858180FF31C1B9
:103300008F7085838C2F0E94D41850C1112359F0DF
:10331000093309F037C1FFEF27EE83E0F150204079
:103320008040E1F72DC18C2F0E94DB183FC18C2F0C
:1033300086958695837019F0813061F037C1DD2361
:1033400021F0802F9C2F937002C080E090E00E94BB
:103350008B1634C1DD2321F0802F9C2F937002C087
:1033600080E090E00E94A11629C1802FDD2319F092
:103370000E948D2402C00E94F5240E947A251EC15D
:103380008C2F837009F045C0D11114C1402F429594
:1033900046954770440F440F602F6F70862F90E062
:1033A000A0E0B0E0042E04C0880F991FAA1FBB1F25
:1033B0000A94D2F704FF10C00FE010E020E030E0E4
:1033C00004C0000F111F221F331F4A95D2F700952A
:1033D00010952095309503C000E010E09801C69547
:1033E000C695C370BC01CD01602B712B822B932B32
:1033F000C23049F058F4C13019F00E946E1FDAC093
:103400000E945C1FD7C00E94801FD4C00E945A1F18
:10341000D1C0DD2319F08C2F817001C086958823DF
:1034200009F4C8C0402F429546954770440F440F99
:10343000602F6F70862F90E0A0E0B0E0042E04C0F3
:10344000880F991FAA1FBB1F0A94D2F704FF10C050
:103450000FE010E020E030E004C0000F111F221F39
:10346000331F4A95D2F7009510952095309503C0EB
:1034700000E010E09801C695C695C370BC01CD016F
:10348000602B712B822B932BC23049F058F4C13042
:1034900019F00E9433208EC00E9421208BC00E9410
:1034A000452088C00E94941F85C0CF70DD2339F06D
:1034B0008C2F0E94BA1F802F0E94D4187BC0802FAF
:1034C0000E94DB188C2F0E94DB1F74C0023F01F1A9
:1034D00028F4003F41F0013FA1F03FC0033FF9F065
:1034E000043F39F13AC0DD2341F0153008F05EC0E9
:1034F0008C2F8F710E94002059C0163008F056C0E2
:10350000F7CFDD2339F08C2F8F710E94BA1F4EC088
:10351000DD23C9F38C2F8F710E94DB1F47C0DD2391
:1035200029F08C2F8F710E94A51F40C00E94A01F00
:103530003DC0DD2349F0CF718C2F0E94BA1F63E09C
:103540008C2F0E94B12132C081E00E94C62112302E
:1035500068F182E00E94C62129C0DD2331F01123E9
:1035600091F2802F0E94AF1721C0112399F20933E5
:1035700049F49FEFE7EEF3E09150E040F040E1F7CF
:1035800000C00000802F0E94591810C04C2F4F70AF
:10359000602FC7010E946D060E94CB1E0FC04C2FEA
:1035A0004F70602FC7010E94700608C088EF8C0D15
:1035B000843020F40E9466160E940B06DD20C9F0BC
:1035C0000E94232180FD15C0F70112820E941D2157
:1035D0000E94BA1FC7010E941A1B0E941D21DF9181
:1035E000CF911F910F91FF90EF90DF90CF900C94AF
:1035F000DB1FDF91CF911F910F91FF90EF90DF9034
:10360000CF9008950F931F93CF93DF93EC016881C0
:1036100079818A810E94FA208C010E9457200E94A1
:10362000481FB801CE010E94E218DF91CF911F918F
:103630000F910895CF93DF93EC01988189812B81BD
:103640003C81232B31F08F3F31F481E09F3F19F40F
:1036500003C081E001C080E080FD19C0CE010E945E
:10366000240681110CC00E942721882381F08A81C1
:10367000882369F082E0DF91CF910C94C621CE01BE
:103680000E94021BCE01DF91CF910C94CF04DF91F9
:10369000CF9108950E944E210E945E210E947C21BC
:1036A0000E94A4260E947A2580E090E00E948B165A
:1036B00080E090E00C94A116809116019091170182
:1036C0000E94D2220C944A1B0E943E210C945C1B47
:1036D000E92FE295EF704E2F50E0FA013297EE306D
:1036E000F105B0F4E357FF4F0C94872E803F91F023
:1036F00018F4883E68F40EC0843F51F40BC0883E35
:1037000048F0813F29F406C093FB882780F908958B
:1037100080E0089581E008950E94EF200E94681BD8
:103720000895CF93DF9300D000D01F92CDB7DEB7BE
:103730000F900F900F900F900F90DF91CF91089501
:10374000CF93DF9300D000D000D0CDB7DEB7269660
:103750000FB6F894DEBF0FBECDBFDF91CF910895B5
:103760001F93CF93DF93C0914D0216E080914E02DC
:10377000C81799F0D0E01C9FF0011D9FF00D112497
:10378000E15BFD4F4081518162817381848195812C
:103790000E94A01B2196C770E9CFDF91CF911F91A6
:1037A000089540917F025091800260918102709152
:1037B000820280918302909184020C94A01B0F934B
:1037C0001F93CF93DF938091840282958F7009F0CD
:1037D0005DC080918102882309F458C080914D0218
:1037E00010914E0260917F0270918002C09182021E
:1037F000D091830291E06F3F09F090E0292F06E01D
:10380000811709F443C0209721F07F3F21F030E079
:1038100003C031E001C0322F90E030FD34C0089F7A
:10382000F001099FF00D1124DF01A15BBD4F11963E
:103830003C911197371327C03C91361324C0129640
:103840003C91129731111FC013964D915C911497C2
:103850004C1B5D0B483C5105B0F4809184028F7085
:10386000806180938402EC5AFD4F80818F7080616B
:1038700080838FE792E00E941A1BDF91CF911F9106
:103880000F910C94B01B01968770BACFDF91CF9146
:103890001F910F9108959F92AF92BF92CF92DF92A6
:1038A000EF92FF920F931F93CF93DF93CDB7DEB7C5
:1038B00061970FB6F894DEBF0FBECDBF8C0185E0D7
:1038C000F801DE011D9601900D928A95E1F7F8014D
:1038D00040815181E28090917F026091800220912D
:1038E0008202309183022115310531F06F3F31F4AE
:1038F00081E09F3F19F403C081E001C080E0F82F10
:10390000F1709F2E80FD46C1F801A380B4808FE73F
:10391000C82E82E0D82EF0908102F501E21BF30B55
:10392000FF2009F4DFC080918402E83CF10508F033
:103930009BC0282F207F09F052C0561313C0491393
:1039400011C0FE2CE1100EC08F7080618093840244
:103950000E94D11BC6010E941A1B80918402F801AB
:10396000858358C1AB2831F05F3F31F481E04F3F90
:1039700019F403C081E001C080E080FD03C081E054
:103980008E2502C080E090E0F82FF170FF2E80FFBE
:103990001CC080914D0220914E0236E0821709F43E
:1039A00017C190E0389FF001399FF00D1124E15BC1
:1039B000FD4F6181561306C06081461303C06281CA
:1039C000E61203C001968770E9CFFE2CEE2009F4C1
:1039D00021C1809184028160809384025AC0561371
:1039E00006C0491304C0E11002C0F8019FC04D8712
:1039F0005E878D859E850E948C1B882379F1EE2041
:103A000069F120918402822F82958F7090E0029755
:103A100074F080917F029091800298878F8319863D
:103A2000BB86AA862C87CE0107960E941A1B86E0C9
:103A3000F801AFE7B2E001900D928A95E1F70E949C
:103A4000DF1B0E94D11B0DC0561729F14D875E87E1
:103A50008D859E850E948C1B81112CC0C8010E94FF
:103A60001A1BFF24F394D6C0282F207F69F77A2DE4
:103A7000B98AA88A6E2D89890E94911B8FE792E0EE
:103A80000E941A1B86E0F60111928A95E9F70E94BE
:103A9000D11BF12CBFC04913D9CFE110D7CFF8010A
:103AA0008583C8010E941A1B86E0F60111928A954F
:103AB000E9F7B0C0EE2091F220918402822F829526
:103AC0008F7090E002970CF4B2CF80917F029091BA
:103AD00080029A8389831B82BD82AC822E83CE01B1
:103AE0000196A3CFE83CF10508F047C0FE2CEE207C
:103AF00009F4B4CF561330C049132EC0209184026C
:103B000020FD21C0822F82958F70482F50E04115F3
:103B10005105C9F0F80125834F30510541F08F5F01
:103B2000982F9295907F822F8F70892B8583C80163
:103B30000E941A1B86E0F801AFE7B2E001900D92F7
:103B40008A95E1F742C086E0F801AFE7B2E0019064
:103B50000D928A95E1F75EC04D875E878D859E85C3
:103B60000E948C1B811163CF8091840281608093BD
:103B70008402C8010E941A1B4DC07A2DB98AA88AF6
:103B80006E2D89890E94911B86E0F60111928A951B
:103B9000E9F71BC0EE2009F461CF4D875E878D8564
:103BA0009E850E948C1BF82E882309F457CF86E04F
:103BB000F801AFE7B2E001900D928A95E1F78FE747
:103BC00092E00E94A9170E94DF1B0E94D11B22C015
:103BD0004D875E878D859E850E94EF20292F229537
:103BE0002F70223028F49F7039F0811105C00BC06E
:103BF000243028F49F7049F4805E883020F0C8019A
:103C00000E941A1B9F2CF92C05C0F8019581907F0A
:103C100099F7F9CF8F2D61960FB6F894DEBF0FBEDE
:103C2000CDBFDF91CF911F910F91FF90EF90DF906B
:103C3000CF90BF90AF909F9008951F93CF93DF9345
:103C4000CDB7DEB72C970FB6F894DEBF0FBECDBF51
:103C50004F83588769877A878B879C87CE01079621
:103C60000E944B1C8823D1F09F8188852A853B8543
:103C7000232B31F08F3F31F481E09F3F19F403C0D3
:103C800081E001C080E080FD47C04F815885698593
:103C90007A858B859C850E94A01B3EC086E0FE0134
:103CA0003796DE01119601900D928A95E1F7FF811A
:103CB000E8856A857B856115710531F0EF3F31F448
:103CC00081E0FF3F19F403C081E001C080E080FD86
:103CD00023C020914E0230E0C901019687709927D8
:103CE00040914D0250E084179507F1F1F983EA8382
:103CF0007D836C8396E0929FD001939FB00D112439
:103D0000A15BBD4FFE01319601900D929A95E1F7AE
:103D100080934E020E94B01B16E080914D0290915C
:103D20004E02891771F1189FC0011124815B9D4FCC
:103D30000E944B1C882329F1E0914D021E9FF00147
:103D40001124E15BFD4F4081518162817381848147
:103D500095810E94A01B80914D0290E00196877092
:103D6000992780934D02D9CF0E94641B10924E0276
:103D700010924D02EFE7F2E086E0DF011D928A9596
:103D8000E9F72C960FB6F894DEBF0FBECDBFDF91DA
:103D9000CF911F910895EF92FF920F931F93CF93AE
:103DA000DF938C01892B09F46CC0F12CEE24E39491
:103DB000E8012196F8018491843740F4843008F0BA
:103DC00051C0813081F0823019F15BC0853709F430
:103DD00044C0A8F19CE7980F903708F052C08F7745
:103DE0000E94591841C00E5F1F4FFE01849190E25E
:103DF000980F983050F48770FE2D01C0FF0F8A9500
:103E0000EAF78F2F0E94512114C00E94AF172DC0D6
:103E10000E5F1F4FFE01849190E2980F983060F47E
:103E20008770FE2D01C0FF0F8A95EAF78F2F0E9441
:103E300057210E947C2119C00E94591816C00E5F9C
:103E40001F4FFE01C491CC2381F08FE99FE00197C1
:103E5000F1F700C00000C150F6CF0E5F1F4FFE010A
:103E6000F49003C00E94AF178E018F2D882309F4B0
:103E70009FCFEFE9FFE03197F1F700C000008150DC
:103E8000F5CFDF91CF911F910F91FF90EF900895A3
:103E9000089508950C94491F0C944A1F0E944C1FCA
:103EA000609398027093990280939A0290939B0278
:103EB0000C944A1B0C944E1F0F931F930091980271
:103EC0001091990220919A0230919B02602B712BE4
:103ED000822B932B1F910F910C944E1F0F931F93C6
:103EE000009198021091990220919A0230919B02C0
:103EF00060237123822393231F910F910C944E1FF3
:103F00000F931F93009198021091990220919A02A9
:103F100030919B0260277127822793271F910F9171
:103F20000C944E1F0C94491F0E94921F60939402A0
:103F30007093950280939602909397020C944A1B7B
:103F400060E070E0CB010C94941F0F931F9341E04D
:103F500050E060E070E08A019B0104C0000F111F77
:103F6000221F331F8A95D2F7C901B8011F910F9103
:103F70000C94941F0F931F9341E050E060E070E0B9
:103F800004C0440F551F661F771F8A95D2F7809192
:103F9000940290919502A0919602B09197028A01A5
:103FA0009B01082B192B2A2B3B2BC901B8011F9110
:103FB0000F910C94941F0F931F9341E050E060E029
:103FC00070E004C0440F551F661F771F8A95D2F713
:103FD00040955095609570958091940290919502CE
:103FE000A0919602B09197028A019B0108231923A0
:103FF0002A233B23C901B8011F910F910C94941FF0
:104000000F931F9341E050E060E070E004C0440F64
:10401000551F661F771F8A95D2F780919402909161
:104020009502A0919602B09197028A019B01082700
:1040300019272A273B27C901B8011F910F910C941A
:10404000941F0F931F930091940210919502209159
:10405000960230919702602B712B822B932B1F912C
:104060000F910C94941F0F931F9300919402109141
:10407000950220919602309197026023712382234A
:1040800093231F910F910C94941F0F931F930091F2
:104090009402109195022091960230919702602728
:1040A0007127822793271F910F910C94941F0895D5
:1040B000990F990F890FE82FE695E695E695877099
:1040C00051E001C0550F8A95EAF785E0E89FF001BD
:1040D0001124EB57FD4F20E030E070E04081CB0130
:1040E000022E02C0969587950A94E2F78170819519
:1040F00084278523842781932F5F3F4F2530310507
:1041000069F70895990F990F890F682F669566953D
:104110006695982F977085E0689FB001112440E064
:1041200050E080E0FB01E40FF51FEB57FD4F2081CD
:1041300030E0092E02C0369527950A94E2F72170E7
:104140003327042E01C0220F0A94EAF7822B4F5F17
:104150005F4F4530510531F70895BF92CF92DF92FE
:10416000EF92FF920F931F93CF93DF938C01C09038
:104170009402D0909502E0909602F0909702809180
:10418000980290919902A0919A02B0919B02C82A3C
:10419000D92AEA2AFB2ACFE1D0E0D701C6010C2EAA
:1041A00004C0B695A795979587950A94D2F780FD98
:1041B00004C0219790F7B12C07C0BC2EB8018C2FFA
:1041C0000E9479060197A9F38B2DDF91CF911F9162
:1041D0000F91FF90EF90DF90CF90BF900895CF9315
:1041E000DF93EC010E94AD20BE010E947906DF91B1
:1041F000CF9108951F93CF93DF93EB0190914C02E1
:10420000992321F0CB010E94EF2013C0882349F0AD
:10421000CB010E94AD20182F682FCE010E9458209C
:1042200004C0CB010E948220182FBE01812F0E9462
:104230007906DF91CF911F91089580919C02859519
:1042400085958595089580919C0287700895909139
:104250009C02977081E009F480E008958091A802A3
:1042600008959091A802892B8093A80208958095C3
:104270009091A80289238093A80208951092A80221
:1042800008959091A702892B8093A70208958095A5
:104290009091A70289238093A70208951092A70204
:1042A00008959091A602892B8093A6020895809587
:1042B0009091A60289238093A60208951092A602E7
:1042C000089580919D02089508950C9464210C94A2
:1042D000652190919D02981721F080939D020C9486
:1042E0006721089580919D02882329F010929D02F4
:1042F00080E00C9467210895E0911601F091170178
:104300008091A8028083E0911601F09117019081BD
:104310008091A702892B8083E0911601F09117010B
:1043200090818091A602892B808380919D028823B1
:1043300081F0E0911601F09117019081892B808323
:1043400080911601909117010E948C2281110E9488
:10435000722180911601909117010C9472160C94A1
:10436000642198E0899F90011124262B20939C02C0
:104370000E94BA1F80919C028595859585950C9425
:10438000AF2110929C0280E00C94AF2120919C02FE
:104390008095822380939C02982F977079F430E067
:1043A000482F082E000C550B2417350739F085953A
:1043B000859585950E94DB1F0C94C12108956FEFB0
:1043C0007FEF80E090E00C942F2F80E090E00E943F
:1043D0000B2F21E08C3E9E4F09F020E0822F0895A4
:1043E00082E090E00C94FD2E83E090E00C94FD2E92
:1043F000CF9384E090E00E94FD2EC82F81E290E0F0
:104400000E94FD2E2C2F30E0A901582BCA01CF911C
:104410000895CF93C92F682F84E090E00E94112F58
:104420006C2F81E290E0CF910C94112FAB01BC0175
:104430008FE090E00C94232FAB01BC0183E190E06E
:104440000C94232F60E070E0CB010C941C2260E000
:1044500070E0CB010E9416220C9422226CEE7EEFBB
:1044600080E090E00E942F2F60E082E090E00E94C8
:10447000112F60E083E090E00E94112F10929802CB
:104480001092990210929A0210929B0260E084E0CE
:1044900090E00E94112F60E081E290E00E94112FD5
:1044A00060E085E090E00E94112F60E086E090E0FF
:1044B0000E94112F6FEF87E090E00E94112F40E0E3
:1044C00050E0BA0188E090E00E94232F60E08DE088
:1044D00090E00E94112F40E050E0BA0188E190E0A6
:1044E0000E94232F60E087E190E00E94112F40E0BE
:1044F00050E0BA018CE190E00E94232F60E080E25E
:1045000090E00E94112F0C9427220C942E22682FE9
:104510008EE090E00C94112FFC01329697E080E041
:10452000915029F021912223D9F38F5FF9CF08957B
:10453000662349F0FC01329608962191621729F012
:10454000E817F907D1F780E0089581E008959C010C
:10455000FC0132969FEF80E04191461789F09F3F22
:1045600019F4411101C0982F8F5F8630A9F79F3F42
:1045700039F0F901E90FF11D97FDFA95628308956D
:1045800008959C012A5F3F4FFC014281461301C000
:104590001282019682179307B9F708950C94A72207
:1045A0000C94C122029626E0FC0111922A95E9F7AB
:1045B000089508950C94D9220C94D922CF930E9487
:1045C000DC220E94B3030E94DA22C0E08C2F0E94FA
:1045D0005D03811104C0CF5FC530C1F701C081E028
:1045E000CF9108950C94D9220C94F2220E94F422C7
:1045F0008091F602843009F439C01092AA0220E4B6
:1046000088E190E00FB6F894A895809360000FBE03
:104610002093600080E00E940B060E94B20E809101
:10462000AB0281110AC081E08093AB028091C60287
:1046300081708093AC020E94E50D0E94F42283B742
:10464000817F846083BF83B7816083BF78948895BE
:1046500083B78E7F83BF0FB6F894A89580916000D2
:10466000886180936000109260000FBE08950C94E2
:10467000D9220E94641B0E9466160E940B061092AB
:10468000AB028091AC0281110E94AA0E0E94F70D2C
:104690000C9437231F920F920FB60F9211248F9311
:1046A0009F93AF93BF938091AA02811113C0809111
:1046B000EC029091ED02A091EE02B091EF024196D2
:1046C000A11DB11D8093EC029093ED02A093EE0228
:1046D000B093EF02BF91AF919F918F910F900FBE5A
:1046E0000F901F90189582E084BD93E095BD9AEFDE
:1046F00097BD80936E0008952FB7F8948091EC02D7
:104700009091ED02A091EE02B091EF022FBF0895BB
:104710002FB7F8946091EC027091ED028091EE0257
:104720009091EF022FBF08959C014FB7F8948091AC
:10473000EC029091ED02A091EE02B091EF024FBF1A
:10474000821B930B089578941F920F920FB60F92CD
:1047500011248F939F93AF93BF938091EC0290911C
:10476000ED02A091EE02B091EF020196A11DB11DE4
:104770008093EC029093ED02A093EE02B093EF02CF
:10478000BF91AF919F918F910F900FBE0F901F908F
:10479000189587E797E790930108809300089AE0BF
:1047A00088E10FB6F894A895809360000FBE9093AF
:1047B0006000FFCF0C9448110E94B3032FEF83EFEA
:1047C00091E0215080409040E1F700C000000E943D
:1047D000B30380E00E945D0380FF04C00E94DA23DF
:1047E0000C94C92308950E94E521811102C00E9402
:1047F00085220E94F0218093A9020E94F8219093C3
:10480000F1028093F0020E94F421682F70E080E0B2
:1048100090E00C945A1F8091B40280FF0BC060910D
:104820001D0185E0689FB001112475956795759508
:1048300067952BC081FF09C060911D0185E0689FCD
:10484000B00111247595679520C082FF07C0609163
:104850001D0185E0689FB001112417C09091B3023B
:104860009923D1F060911C01961788F720911D01C2
:1048700085E0289F90011124929FA001939F500DE5
:10488000112470E0CA010E94732E6038710540F453
:104890006115710519F406C065E070E0862F089572
:1048A0008FE7089581E008958091B40280FF08C0E9
:1048B0006091190170E0759567957595679521C0B0
:1048C00081FF06C06091190170E07595679519C068
:1048D00082FF04C06091190170E010C09091B30292
:1048E000992399F0609118019617A0F7809119010A
:1048F000899FC001112470E00E94732E60387105F9
:1049000040F46115710519F406C061E070E0862F6E
:1049100008958FE7089581E00895803F21F40E9473
:104920000B24819504C0813F29F40E940B248093BD
:10493000B8020895823F21F40E940B24819504C09F
:10494000833F29F40E940B248093B7020895893F86
:1049500019F40E94542405C08A3F31F40E94542463
:1049600081958093B90208958B3F21F40E945424CD
:10497000819504C08C3F29F40E9454248093BA028C
:104980000895843F21F48091B602816017C0853F6D
:1049900021F48091B602826011C0863F21F480919B
:1049A000B60284600BC0873F21F48091B602886014
:1049B00005C0883F31F48091B60280618093B602D1
:1049C00008958D3F21F48091B40281600BC08E3F29
:1049D00021F48091B402826005C08F3F29F4809158
:1049E000B40284608093B4020895803F39F48091CA
:1049F000B80287FF6CC01092B80269C0813F29F4E9
:104A00008091B8021816BCF362C09091B702823F41
:104A100029F497FF5CC01092B70259C0833F19F484
:104A20001916CCF354C0893F41F48091B90218168D
:104A30000CF04DC01092B9024AC08A3F29F480910F
:104A4000B90287FF44C0F6CF8B3F39F48091BA0298
:104A500087FF3DC01092BA023AC08C3F29F4809182
:104A6000BA021816BCF333C0843F21F48091B60219
:104A70008E7F17C0853F21F48091B6028D7F11C0D3
:104A8000863F21F48091B6028B7F0BC0873F21F4D3
:104A90008091B602877F05C0883F31F48091B602CD
:104AA0008F7E8093B60213C08D3F21F48091B402B3
:104AB0008E7F0BC08E3F21F48091B4028D7F05C0A4
:104AC0008F3F29F48091B4028B7F8093B402809150
:104AD000B70281110EC08091B80281110AC0809185
:104AE000B902811106C08091BA02811102C01092F0
:104AF000B302089585EB92E00E947D160E947C230C
:104B00009093B2028093B1020895CF93DF9300D0C7
:104B100000D000D0CDB7DEB786E0E5EBF2E0DE01F5
:104B2000119601900D928A95E1F78091B70281115B
:104B300005C08091B802882309F47AC08091AF0241
:104B40009091B0020E949423AC019091B3029923FA
:104B500039F020911E0130E02417350758F068C065
:104B600020911F018AE0289F900111242417350706
:104B700018F05EC09F3F19F09F5F9093B3021092B0
:104B8000B9021092BA028091B702181624F40E945A
:104B90000B248093B7028091B70287FF05C00E9463
:104BA0000B2481958093B7028091B802181624F4E3
:104BB0000E940B248093B8028091B80287FF05C041
:104BC0000E940B2481958093B8023091B702332361
:104BD000E1F02091B8022223C1F045EB3403C0017B
:104BE0001124992319F09093B70203C081E08093B8
:104BF000B70235EB2303C0011124992319F09093D8
:104C0000B80203C081E08093B8020E947A258091A7
:104C1000B1029091B2029093B0028093AF0286E00D
:104C2000FE013196A5EBB2E001900D928A95E1F775
:104C30008091B902811105C08091BA02882309F4DC
:104C40007AC08091AD029091AE020E949423AC0193
:104C50009091B302992339F020911A0130E0241782
:104C6000350758F068C020911B018AE0289F900109
:104C700011242417350718F05EC09F3F19F09F5F7D
:104C80009093B3021092B7021092B8028091B902C9
:104C9000181624F40E9454248093B9028091B9021A
:104CA00087FF05C00E94542481958093B9028091AA
:104CB000BA02181624F40E9454248093BA028091F8
:104CC000BA0287FF05C00E94542481958093BA02DE
:104CD0003091B9023323E1F02091BA022223C1F0CE
:104CE00045EB3403C0011124992319F09093B902C4
:104CF00003C081E08093B90235EB2303C001112486
:104D0000992319F09093BA0203C081E08093BA020C
:104D10000E947A258091B1029091B2029093AE02E6
:104D20008093AD0286E0FE013196A5EBB2E00190E2
:104D30000D928A95E1F726960FB6F894DEBF0FBE66
:104D4000CDBFDF91CF910895E5EBF2E086E0DF0182
:104D50001D928A95E9F71092B3021092B402089559
:104D60008091C3020895CF93DF9300D01F92CDB7F7
:104D7000DEB79091F602943011F589837B836A83C4
:104D80009093E9008FEF9091E800815095FD06C067
:104D900095ED9A95F1F700008111F5CF8091E8002B
:104DA00085FF0DC040E050E063E070E0CE01019669
:104DB0000E945C298091E8008E778093E8000F9034
:104DC0000F900F90DF91CF910895CF93DF93EC0177
:104DD0000E943F29823011F0843031F4BE0184E01A
:104DE000DF91CF910C94B326DF91CF910895BC0150
:104DF00083E00C94B326CF93DF93EC010E943F290C
:104E0000823011F08430F9F484E08093E9008FEF70
:104E10009091E800815095FD06C095ED9A95F1F7C7
:104E200000008111F5CF8091E80085FF0CC040E0C3
:104E300050E066E070E0CE010E945C298091E800BD
:104E40008E778093E800DF91CF910895CF93DF9321
:104E5000EC010E943F29823011F0843039F581E065
:104E60008093E9008FEF9091E800815095FD06C096
:104E700095ED9A95F1F700008111F5CF8091E8004A
:104E800085FF14C040E050E068E070E0CE010E9471
:104E90005C298091E8008E778093E80088E0FE012D
:104EA000ABEBB2E001900D928A95E1F7DF91CF91E3
:104EB0000895CF93603219F52091F6022430F9F469
:104EC000C091E900CF703091EC00232F217030FDAC
:104ED00020E8C22B22E02093E9002091E80020FF87
:104EE0000BC040E050E060E270E00E945C298091DD
:104EF000E8008E778093E800CF70C093E900CF91EF
:104F000008958091F502811109C00E94382B0E94FA
:104F1000952B8091E20084608093E20008951092C6
:104F2000F5020895089508950C94392342E061EC48
:104F300081E00E94B12A42E261EC84E00E94B12A41
:104F400042E261EC82E00E94B12A42E260EC83E03E
:104F50000C94B12A8091F802833009F462C030F4D5
:104F6000813071F0823009F49BC008958A3009F4D1
:104F700087C08B3009F46DC0893009F0A9C020C00A
:104F80008091F702813A09F0A3C08091E800877F01
:104F90008093E8008091FB029091FC02892B21F420
:104FA00068E08BEB92E003C060E080E090E070E0AE
:104FB0000E94F2298091E8008B778093E8000895A1
:104FC0008091F702813209F083C08091FB029091B9
:104FD000FC02009719F0029709F07AC08091E8006E
:104FE000877F8093E8008091E80082FD05C0809172
:104FF000F6028111F8CF6CC02091F3008091F2008D
:1050000090E0922B029729F48091F1008B7F813000
:1050100021F48091F1008093C3028091E8008B77A6
:1050200053C08091F702813A09F052C08091FB028F
:105030009091FC02892B09F04BC08091E800877F9A
:105040008093E8008091E80080FFFCCF80912A01E6
:1050500036C08091F7028132D9F58091FB029091A0
:10506000FC02892BA9F58091E800877F8093E800F6
:105070000E94E62A8091F90280932A010C94641B15
:105080008091F702813221F58091E800877F80933B
:10509000E8000E94E62A8091FA028093C4020895F3
:1050A0008091F702813AA1F48091E800877F809394
:1050B000E8008091E80080FFFCCF8091C4028093DB
:1050C000F1008091E8008E778093E8000C94E62A46
:1050D00008951F93CF93DF93CDB7DEB7A0970FB698
:1050E000F894DEBF0FBECDBF84B7877F84BF0FB6F5
:1050F000F894A89580916000886180936000109278
:1051000060000FBE90E080E80FB6F89480936100D5
:10511000909361000FBE0E94C7160E94382B0E9418
:10512000952B8091E20084608093E20078940E9445
:105130002A2E0E94D11680E291E00E94611613E0AF
:105140008091F602853069F40E94F6228091F40283
:105150008823B1F30E94DE22882391F30E9446291E
:10516000EFCF0E94DF168091F602843049F710934A
:10517000E9008091E80082FFE3CF8091E80085FF9D
:105180000AC040E050E060E270E0CE0101960E946B
:10519000A72991E001C090E08091E8008B7780938F
:1051A000E800992369F260E2CE0101960E940012A4
:1051B000C7CF0C94DB28292F332723303105C9F0C2
:1051C00060F42130310581F02230310509F047C00B
:1051D0008BE590E028ED34E046C02132310511F135
:1051E0002232310561F13BC082E190E023E335E0FA
:1051F0003AC099278130910561F040F082309105E5
:1052000059F0039761F5E4EAF4E008C0E4EDF4E056
:1052100005C0E8EBF4E002C0EAEAF4E0849190E033
:105220009F0121C063307105D0F4660F771FFB0129
:10523000E252FE4F2081318189E090E014C063305A
:10524000710568F4FB01EE0FFF1FE852FE4F20814D
:105250003181FB01EB52FE4F808190E004C080E081
:1052600090E020E030E0FA013183208308958091BE
:10527000F602843011F081E0089582E00895809173
:10528000C502811102C00C943729089580E189BDBF
:1052900082E189BD09B400FEFDCF8091D8008F7DE9
:1052A0008093D8008091E00082608093E00080913C
:1052B000E00081FDFCCF0895CF92DF92EF92FF9244
:1052C0000F931F93CF93DF93EC018B017A010E9420
:1052D000052B811133C0E114F10439F0F70180810D
:1052E0009181081B190BC80FD91FC12CD12C011596
:1052F000110519F18091E80085FD16C08091E80044
:105300008E778093E800E114F10449F0F701808181
:105310009181C80ED91ED182C08285E00FC00E9443
:10532000052B882321F30AC089918093F100015055
:105330001109FFEFCF1ADF0ADACF80E0DF91CF91BA
:105340001F910F91FF90EF90DF90CF900895CF9233
:10535000DF92EF92FF920F931F93CF93DF93EC01B5
:105360008B017A010E94052B811133C0E114F104F5
:1053700039F0F70180819181081B190BC80FD91FE3
:10538000C12CD12C0115110519F18091E80085FD82
:1053900016C08091E8008B778093E800E114F10457
:1053A00049F0F70180819181C80ED91ED182C08257
:1053B00085E00FC00E94052B882321F30AC080914D
:1053C000F100899301501109FFEFCF1ADF0ADACFFC
:1053D00080E0DF91CF911F910F91FF90EF90DF90D0
:1053E000CF9008952091FD023091FE0226173707D5
:1053F00048F06115710539F42091E8002E7720936B
:10540000E80001C0B901FC0120E06115710579F1E6
:105410008091F6028823F1F18530F1F18091E80066
:1054200083FD3CC08091E80082FD2EC08091E800A1
:1054300080FFEBCF2091F3008091F20090E0922B5F
:105440006115710551F08830910538F42191209350
:10545000F100615071090196F3CF21E0089709F03E
:1054600020E08091E8008E778093E800CECF211174
:10547000CFCF0AC08091F602882361F0853061F0B9
:105480008091E80083FD0AC08091E80082FFF2CF9E
:1054900080E0089582E0089583E0089581E0089512
:1054A0002091FD023091FE022617370748F0611562
:1054B000710539F42091E8002E772093E80001C0AF
:1054C000B901FC0120E06115710591F18091F602AE
:1054D000882309F440C0853009F43FC08091E8007A
:1054E00083FD3DC08091E80082FD2FC08091E800DF
:1054F00080FFE9CF2091F3008091F20090E0922BA1
:105500006115710559F08830910540F4249120937C
:10551000F1003196615071090196F2CF21E00897B0
:1055200009F020E08091E8008E778093E800CBCFEF
:105530002111CCCF0AC08091F602882361F085301A
:1055400061F08091E80083FD0AC08091E80082FF4D
:10555000F2CF80E0089582E0089583E0089581E02D
:105560000895982F973068F59093E900981739F0CF
:105570007091EC002091ED005091F00003C0242FB9
:10558000762F50E021FD02C09F5FECCF3091EB0001
:105590003E7F3093EB003091ED003D7F3093ED0086
:1055A0003091EB0031603093EB007093EC0020936E
:1055B000ED005093F0002091EE0027FDE5CF80E054
:1055C00008958F708093E90081E008958091F7023B
:1055D00087FF11C08091E80082FD05C08091F6022E
:1055E0008111F8CF11C08091E8008B770BC08091BA
:1055F000F602882349F08091E80080FFF8CF80917F
:10560000E8008E778093E80008952091E4003091BF
:10561000E50095E64091EC00842F817040FF23C0A7
:105620008091E80080FD1DC08091F602882399F0EA
:10563000853099F08091EB0085FD11C04091E40028
:105640005091E5002417350729F3915011F09A0184
:10565000E1CF84E0089582E0089583E0089581E039
:10566000089580E008954091E80042FFDDCF08955D
:105670000E94A62B0E94AE2BE0EEF0E080818160BC
:105680008083E8EDF0E080818F77808319BCA7EDFF
:10569000B0E08C918E7F8C9380818F7E808310927E
:1056A000F50208950F931F93CF93DF930E94A62BCB
:1056B0000E94AE2BC8EDD0E088818F7788838881E7
:1056C0008068888388818F7D888319BC1092F60258
:1056D0001092F2021092F4021092F30200EE10E027
:1056E000F80180818B7F808388818160888342E09C
:1056F00060E080E00E94B12AE1EEF0E080818E7FE0
:105700008083E2EEF0E08081816080838081886028
:105710008083F80180818E7F808388818061888387
:10572000DF91CF911F910F910895E8EDF0E0808116
:105730008F7E8083E7EDF0E080818160808384E06C
:1057400082BF81E08093F5020C94522BE8EDF0E0EB
:1057500080818E7F80831092E20008951092DA009B
:105760001092E10008951F920F920FB60F9211242C
:105770002F933F934F935F936F937F938F939F9359
:10578000AF93BF93EF93FF938091E10082FF0BC033
:105790008091E20082FF07C08091E1008B7F8093BF
:1057A000E1000E94292E8091DA0080FF1FC08091C5
:1057B000D80080FF1BC08091DA008E7F8093DA00D2
:1057C0008091D90080FF0DC080E189BD82E189BD53
:1057D00009B400FEFDCF81E08093F6020E9481278C
:1057E00005C019BC1092F6020E948F278091E1003B
:1057F00080FF19C08091E20080FF15C08091E20017
:105800008E7F8093E2008091E20080618093E200CD
:105810008091D80080628093D80019BC85E0809385
:10582000F6020E9493278091E10084FF30C08091AE
:10583000E20084FF2CC080E189BD82E189BD09B40A
:1058400000FEFDCF8091D8008F7D8093D80080919D
:10585000E1008F7E8093E1008091E2008F7E809353
:10586000E2008091E20081608093E2008091F20288
:10587000882311F084E007C08091E30087FD02C017
:1058800081E001C083E08093F6020E94942780911A
:10589000E10083FF29C08091E20083FF25C0809151
:1058A000E100877F8093E10082E08093F60210920E
:1058B000F2028091E1008E7F8093E1008091E2000E
:1058C0008E7F8093E2008091E20080618093E2000D
:1058D00042E060E080E00E94B12A8091F0008860A0
:1058E0008093F0000E949227FF91EF91BF91AF91BA
:1058F0009F918F917F916F915F914F913F912F91E8
:105900000F900FBE0F901F9018951F920F920FB619
:105910000F9211242F933F934F935F936F937F9335
:105920008F939F93AF93BF93CF93DF93EF93FF93A7
:10593000C091E900CF708091EC00D82FD17080FD2C
:10594000D0E81092E9008091F000877F8093F0000A
:1059500078940E94C92C1092E9008091F000886030
:105960008093F000CD2BCF70C093E900FF91EF91B1
:10597000DF91CF91BF91AF919F918F917F916F9167
:105980005F914F913F912F910F900FBE0F901F90FD
:1059900018951F93CF93DF93CDB7DEB7AA970FB6B5
:1059A000F894DEBF0FBECDBFE7EFF2E08091F100CB
:1059B000819322E0EF3FF207C9F70E94AA27809166
:1059C000E80083FF2EC18091F7029091F802492FE1
:1059D00050E04A30510508F024C1FA01E556FF4F66
:1059E0000C94872E803821F0823809F01AC108C043
:1059F0008091F3029091F402992389F082600FC0A4
:105A00008091FB028F70873008F00BC18093E90012
:105A10008091EB0085FB882780F91092E900909136
:105A2000E800977F9093E8008093F1001092F100D6
:105A3000D1C0282F2D7F09F0F4C0882319F08230BF
:105A400061F0EFC08091F902813009F0EAC0933033
:105A500009F080E08093F4022EC08091F902811158
:105A60002AC08091FB028F702FEF280F263008F09C
:105A7000D8C08093E9002091EB0020FF1CC0933038
:105A800021F48091EB00806214C09091EB00906152
:105A90009093EB0021E030E0A90102C0440F551FB4
:105AA0008A95E2F74093EA001092EA008091EB00B9
:105AB00088608093EB001092E9008091E800877F76
:105AC0008093E8000E94E62AACC08111AAC0109120
:105AD000F9021F778091E3008078812B8093E300A7
