:100000000C9465020C94AC020C94AC020C94AC02FF
:100010000C94AC020C94AC020C94AC020C94AC02A8
:100020000C94AC020C94AC020C9488280C945A29C1
:100030000C940F210C94AC020C94AC020C94AC0206
:100040000C94AC020C94AC020C94AC020C94AC0278
:100050000C94AC020C945C210C94AC020C94AC0299
:100060000C94AC020C94AC020C94AC020C94AC0258
:100070000C94AC020C94AC020C94AC020C94AC0248
:100080000C94AC020C94AC020C94AC020C94AC0238
:100090000C94AC020C94AC020C94AC020C94AC0228
:1000A0000C94AC020C94AC020C94AC02E10EE40E85
:1000B000EC0EF10EF60EFB0E000F050F0A0F0F0FE0
:1000C000140F190F1B0F1E0F210F240F270F2A0FBC
:1000D0002C0F310FCB16CB16FD16FD164A176817DD
:1000E0008918891873170818191819187918891890
:1000F00089188218371937194919491940194919A6
:10010000491949193719371945194919491945190B
:10011000C729EE29E62AEE29E62A3A2A5D2AE62AA6
:10012000B42AC32A040005000600070008000900DD
:100130000A000B000C000D000E000F001000110053
:100140001200005716001900000000000100C45CF6
:10015000C55CC35CCB5CCA5CC75CC65CC95CC85C84
:100160000100010001000100005C015700000000D7
:100170000000000032190A00047F3F1F643214643B
:100180003214783C1E1E140A052223252628292A0B
:100190002C2D2F3032333536383A3B3D3E404243EA
:1001A0004547494A4C4E5051535557595A5C5E6029
:1001B00062646668696B6D6F71737577797B7D7F3B
:1001C00081838587898A8C8E90929496989A9C9E3A
:1001D0009FA1A3A5A7A8AAACAEAFB1B3B4B6B8B956
:1001E000BBBCBEBFC1C2C3C5C6C7C9CACBCCCDCEBE
:1001F000D0D1D2D2D3D4D5D6D7D7D8D9D9DADADBA1
:10020000DBDBDCDCDCDCDCDDDDDDDDDCDCDCDCDC2C
:10021000DBDBDBDADAD9D9D8D7D7D6D5D4D3D2D26B
:10022000D1D0CECDCCCBCAC9C7C6C5C3C2C1BFBE53
:10023000BCBBB9B8B6B4B3B1AFAEACAAA8A7A5A3BE
:10024000A19F9E9C9A98969492908E8C8A8987857D
:1002500083817F7D7B79777573716F6D6B6968665C
:100260006462605E5C5A5957555351504E4C4A492E
:1002700047454342403E3D3B3A3836353332302FD6
:100280002D2C2A292826252322FFAA7F554000014C
:100290000101010101010101020202020202020246
:1002A0000203030303030303030404040404040418
:1002B00005050505050606060606070707070708DC
:1002C000080808090909090A0A0A0B0B0B0C0C0C8F
:1002D0000D0D0D0E0E0E0F0F0F1010111111121229
:1002E00013131414151516161717181819191A1AA6
:1002F0001B1B1C1D1D1E1E1F202021222223242407
:10030000252626272829292A2B2C2D2D2E2F303142
:100310003232333435363738393A3B3C3D3E3F4054
:100320004142434445464748494A4C4D4E4F50513F
:100330005354555658595A5B5D5E5F6162646566F9
:1003400068696B6C6D6F7072737577787A7B7D7E80
:100350008082838587888A8C8E8F91939596989AD0
:100360009C9EA0A2A3A5A7A9ABADAFB1B3B5B7BAE8
:10037000BCBEC0C2C4C6C9CBCDCFD1D4D6D8DBDDBC
:10038000DFE2E4E7E9EBEEF0F3F5F8FAFDFF0C034A
:100390004800750062003100360000001A034A0070
:1003A0006F007300680020004A006F0068006E0054
:1003B00073006F006E0000000403090409023B0093
:1003C000020100A0FA090400000103010100092153
:1003D000110100012240000705810308000A0904F9
:1003E0000100010300000009211101000122810028
:1003F0000705820320000A12011001000000086AAC
:100400006A104801000102000105010902A10185ED
:10041000020901A100050919012905150025019509
:1004200005750181029501750381010501093009F6
:10043000311581257F9502750881060938158125BA
:100440007F950175088106050C0A38021581257F04
:10045000950175088106C0C005010980A1018503C9
:1004600019012AB700150126B70095017510810002
:10047000C0050C0901A101850419012AA00215017A
:1004800026A002950175108100C005010906A10191
:10049000050719E029E71500250195087501810276
:1004A0009501750881010507190029FF150026FF30
:1004B000009506750881000508190129059505753F
:1004C000019102950175039101C011241FBECFEF68
:1004D000DAE0DEBFCDBF04B603FE27C0809124035F
:1004E00090912503A0912603B09127038730904B6C
:1004F000A740B04BD1F41092240310922503109220
:1005000026031092270314BE84B7877F84BF0FB6DB
:10051000F894A895809160008861809360001092A3
:1005200060000FBEE0E0F8E3099512E0A0E0B1E062
:10053000EEE0F9E502C005900D92A830B107D9F7B9
:1005400023E0A8E0B2E001C01D92A432B207E1F7B7
:100550000E94C8250C94852C0C940000CF93DF9347
:1005600087988F9857985F98A2E6B1E047E651E0E8
:1005700061E070E08D91E82FE295EF70F0E021A14D
:100580008F70EB0102C0CC0FDD1F8A95E2F7CE0120
:100590009C2F9095922391A392A1892B82A34A1715
:1005A0005B0741F7AEE5B1E042E651E061E070E0A3
:1005B0008D91E82FE295EF70F0E021A18F70EB01B3
:1005C00002C0CC0FDD1F8A95E2F7CE019C2F9095DB
:1005D000922391A392A1892B82A34A175B0741F72B
:1005E000DF91CF9108954F925F927F928F929F9269
:1005F000AF92BF92CF92DF92EF92FF920F931F9331
:10060000CF93DF9382E6482E81E0582EA1EEB2E030
:1006100096EEE92E92E0F92EB12C01E010E06D018A
:10062000AC901C92E20189912E01E82FE295EF70C7
:10063000F0E091A18F70980101C0220F8A95EAF72E
:10064000892F822B81A382A1922E9094892182A34B
:10065000D0EADA95F1F78EE591E060E070E0EC0128
:100660008990CE01482D42954F7050E0EA0148A193
:100670007C9050E0D82DDF7002C055954795DA95F3
:10068000E2F740FD08C0502F062E01C0550F0A9416
:10069000EAF7452F01C040E047294C936F5F7F4F39
:1006A00064307105E1F681A1982291A282A1282BE4
:1006B00022A3119681E0F60190819A1101C080E099
:1006C000B82AEA16FB0609F0AACF5091EA02109266
:1006D000EA0230910902432F440F4093090290919E
:1006E0000802292F220F209308023FB1331F33271E
:1006F000331F342B3093090299B1991F9927991F01
:10070000922B9093080221E03F3709F020E09F37B9
:1007100011F080E001C082E0922F982B9093EA02C2
:1007200081E0591301C080E08B29DF91CF911F91A7
:100730000F91FF90EF90DF90CF90BF90AF909F9080
:100740008F907F905F904F900895FC018081813061
:1007500049F483E70E94621583E10E94741683E7DF
:100760000C940C16823019F481E00C94661D0895E7
:1007700081110BC083E7662321F00E94621585E199
:1007800010C00E94621584E10CC0813079F483E7C7
:10079000662321F00E94621588E103C00E94621561
:1007A00087E10E94741683E70C940C1608951F933A
:1007B000CF93DF938430910540F18337910530F07A
:1007C0009C012457310921333105F8F4FB01EC0178
:1007D0001281112369F083E70E94621580910A0259
:1007E0008F5F80930A028C2F0E94621510E00EC06A
:1007F0000E940C1680910A02815080930A02811196
:1008000005C083E70E940C1601C011E0812FDF9123
:10081000CF911F9108959C013A9521153F4138F5DC
:10082000DC01AA27B270AC01442754709C01222736
:10083000387094FF0FC090FF02C080E101C080E0DB
:10084000AB2B09F08062452B09F08064232B69F003
:1008500080680BC0892F8170AB2B09F08260452B1B
:1008600009F08460232B09F08860FB010994089546
:10087000CF93DF93EC01805E9109089710F02097E9
:1008800019F467E876E102C06DEF78E1CE010E94CD
:100890000B048C2FDF91CF910C946215CF93DF93D3
:1008A000EC010E940C16CE01805E9109089710F0B1
:1008B000209719F46EE876E102C064E079E1CE0198
:1008C000DF91CF910C940B0481E008950C94D70331
:1008D00008950C9468041F93CF93DF9300D000D049
:1008E0001F92CDB7DEB749835A836B83309169027B
:1008F00089819A81311114C0662359F0222349F06D
:100900000E946E1E182F682F89819A810E94191EDD
:1009100003C00E94431E182F69817A81812F04C071
:100920000E946E1E69817A810F900F900F900F9038
:100930000F90DF91CF911F910C942F05FC01262F72
:10094000408151816281738184810C946B04CF93C7
:10095000DF93EC0160E00E949E04BE01DF91CF9125
:100960000C9469040E94A31F811102C00E944A20B6
:100970000C9448070E94BB130C94440708950E94EE
:1009800025190E94BE042FEF84E39CE02150804093
:100990009040E1F700C000000C9482210F931F9358
:1009A000CF93DF93EC0161E00E949E048C01BE01B5
:1009B0000E941813BE01C8010E9466048823A9F191
:1009C000BE01C8010E945F13882379F1BE01C801EE
:1009D0000E94DB10882349F1BE01C8010E942D113D
:1009E000882319F1BE01C8010E9458128823E9F03A
:1009F000BE01C8010E94CA0E8823B9F08A818823EB
:100A000069F001158CE5180731F00F3D1C4531F4F4
:100A10000E944A200AC00E94BF0407C0CE01DF9195
:100A2000CF911F910F910C94640480E0DF91CF91DE
:100A30001F910F91089508950C941B0581E008956E
:100A40000C941E05CF93C82F0E941C058C2F0E946A
:100A50002005CF91089580E090E008950895E72F54
:100A6000F0E095E0899FE00DF11D1124EE0FFF1FCE
:100A7000EE0FFF1FE60FF11DEE0FFF1FEC5DFE4FA7
:100A8000859194910895880F991FFC01EC58FE4FB1
:100A9000859194910895CF93DF930E942F050E9432
:100AA0006306EC018115904508F041C0C11580E452
:100AB000D80708F0D1C0C83ED10510F5C03ED10519
:100AC00008F0FDC0C83AD10578F4C53AD10508F060
:100AD000A2C0C130D10509F4F2C008F4EEC0C430A0
:100AE000D10508F0ECC0E9C0CF3BD10508F49BC0AC
:100AF000C03CD10508F4E1C0CE01805C91099EC0E4
:100B0000C11590E2D90758F4C11521E0D20708F0C9
:100B1000D6C0C03FD10508F4D0C0D065D0C0C11543
:100B200080E3D80708F08EC0CE019F7087C0C11542
:100B300095E5D90708F043C0C11524E5D20708F0B0
:100B4000A2C0C11582E5D80708F5C11591E5D907FE
:100B500008F085C0CE0174E0969587957A95E1F707
:100B600083709C2F937021E030E002C0220F331F6E
:100B70009A95E2F73C68382BCF70C695C69580E20F
:100B8000C89FE0011124C22BD32B99C09E01237072
:100B900033278C2F86958695C115D34508F064C000
:100BA000C1E0D0E002C0CC0FDD1F2A95E2F720E2C1
:100BB000829FC0011124C82BD92BDC6880C0C115CD
:100BC00029E5D207A0F4C11588E5D80708F060C070
:100BD000C11596E5D90708F070C08C2F0E94F70662
:100BE0008F71C82FD0E0DC2FCC27D06268C0C11530
:100BF0002AE5D20708F451C0CE01905681159042E3
:100C000008F05BC08D2F8F710E94F706DD27D06240
:100C10008F71D82B54C0C55AD0E0CB56DE4FC88157
:100C2000D0E0D0644CC0C85AD0E0CC0FDD1FC95909
:100C3000DE4F0990D881C02DD46441C00E94430585
:100C4000EC013DC0CE019927D3FF03C0EC01D86C65
:100C500036C0EC01D06C33C0DF70D06A30C0DC2FFE
:100C6000CC27C16FD06A2BC0C1E0D0E002C0CC0F4E
:100C7000DD1F2A95E2F720E2829FC0011124C82BD4
:100C8000D92BDA681CC0DC2FCC27C46FD06A17C000
:100C9000DC2FCC27C06FD06A12C08C2F8F700E94BF
:100CA000F70694E0D695C7959A95E1F7CF70D0E016
:100CB000DC2FCC27D069C82B02C0C0E0D0E0CE0129
:100CC000DF91CF9108958238910569F1B0F48133B5
:100CD000910509F46DC048F48932910509F463C0A7
:100CE0008A32910509F469C008958533910509F4A4
:100CF00055C089339105B9F00895833E910569F196
:100D000038F4803E9105B1F0823E910509F10895D5
:100D1000863E9105A9F1873E9105B9F1843E910582
:100D200009F064C023C02091150320FD4FC021FDB0
:100D30004DC008958091150380FD44C08091160335
:100D400080FF44C08091150384FD42C083EE4DC0F6
:100D50008091150382FF38C0F5CF8091150382FD85
:100D600033C08091160380FD31C0ECCF8091160313
:100D700081FF32C08091150384FD2AC087EE35C003
:100D80008091150383FF26C0F5CF8091150383FD65
:100D900021C08091160381FD1FC0ECCF8091150307
:100DA00085FD1CC01DC08091150385FD19C016C0AE
:100DB0008091150386FD16C017C08091150386FD2E
:100DC00013C010C089E311C082EE0FC080EE0DC0C9
:100DD00080E00BC086EE09C084EE07C089E205C042
:100DE00085E303C08AE201C081E390E00895909119
:100DF000150392FF0DC0282F2871283019F4877F22
:100E0000846006C0282F2471243011F48B7F886001
:100E100093FF0DC0282F2871283119F4877E846133
:100E200006C0282F2471243111F48B7E8861209113
:100E3000160320FF0DC0382F3871383019F4877F22
:100E4000816006C0382F3171313011F48E7F886097
:100E500021FF0DC0282F2871283119F4877E816168
:100E600006C0282F2171213111F48E7E886194FDF6
:100E7000877E0895E82FF0E0EA51FD4F80810895C4
:100E8000089508950C9441070C9442070C9441076F
:100E90000C9446070E94AE02E1EEF2E0A6EEB2E04C
:100EA00011921D9282E0E63EF807D1F785E00E949C
:100EB0006E070C94B204CF9381EE92E00E94F3028D
:100EC000C82F282F45E066EE72E081EE92E00E9486
:100ED0006F070E94BA048C2FCF9108950895FF9256
:100EE0000F931F93CF93DF938C01F62ED72FC42F30
:100EF000222349F081E080930D020E9441219093CA
:100F00000C0280930B0280910D028823C1F0809126
:100F10000B0290910C020E944D21459780F0EF2D1D
:100F2000FD2FD8014C2F50E0CD01801B910B841771
:100F300095071CF48D918193F7CF10920D02DF91EC
:100F4000CF911F910F91FF900895EF92FF920F9311
:100F50001F93CF93DF938B01682F11110AC0442395
:100F600029F0E82FF0E0E257FD4F6491762F862FAD
:100F700075C0212F30E0E82FF0E0442321F0E25744
:100F8000FD4FE491F0E046E0049FC0011124CFEF53
:100F9000D0E0BE010E94342B4BEA4603C001479FBC
:100FA000900D1124800F911D800F911D982F990F86
:100FB000890FAE01421B530B4E9FD0014F9FB00DC6
:100FC0005E9FB00D11249B2F189FA0011124452F67
:100FD00055278E01041B150B0E9FA0010F9F500D6E
:100FE0001E9F500D11247E01E81AF108E29E800137
:100FF000E39E100DF29E100D1124212F3327C21BEA
:10100000D30BCE9F9001CF9F300DDE9F300D11246A
:1010100062307105A9F048F46115710569F061301D
:101020007105C9F48B2F752F0DC06430710581F0E7
:1010300058F06630710579F47E2F8B2F932F0DC0F9
:10104000832F7B2F9E2F09C08E2F7B2F952F05C0BE
:101050008E2F732F02C07E2F852F692FDF91CF91A6
:101060001F910F91FF90EF90089541E00E94A50716
:10107000089508950E9435080895CF93DF93762F41
:10108000E901682F842F0E943A08798368838A8354
:10109000DF91CF9108958091EB02282F269530E0C3
:1010A0002115310519F48170826005C02B3231059C
:1010B00024F0817084658093EB02089588E090E0CD
:1010C0000C94262CCF92DF92EF92FF926B017C0161
:1010D0000E944B08B701A60188E090E0FF90EF90D6
:1010E000DF90CF900C94442CEBEEF2E083E0808311
:1010F00011828FEF82838383148260817181828168
:1011000093810C9462088091EB0280FF02C0869567
:10111000089580E008959091EF02933018F49F5F56
:101120009093EF02882351F06091EB027091EC02F2
:101130008091ED029091EE020C946208089581E096
:101140000C948B089091EF02992319F09150909391
:10115000EF02882351F06091EB027091EC028091D4
:10116000ED029091EE020C946208089581E00C94D7
:10117000A20870E00C943B0F609139018091EB0262
:1011800080FF0AC08091380123E0829FC0011124B2
:1011900080519D4F0C94B90880913A0190913B0188
:1011A000891780F7E82FF0E09F01220F331FE20F2D
:1011B000F31FE051FD4F1182108212828F5FF0CF3A
:1011C0009091EB0290FF16C090913A0120913B0163
:1011D000921770F4E92FF0E0DF01AA0FBB1FEA0FAE
:1011E000FB1FE051FD4F8183608342839F5FF0CFFF
:1011F0000C94BC080895CF93DF9300D01F92CDB715
:10120000DEB79091EB0290FF0AC09E012F5F3F4F27
:101210000E943D084B8169818A810E94E0080F90FD
:101220000F900F90DF91CF910895CF93DF93EC0152
:10123000EC81F0E0E757FE4F4491EBEEF2E0628183
:1012400081810E94FB088C818F5F8C83DF91CF911D
:101250000895CF93DF93EC01EBEEF2E043816281DE
:101260008C810E94FB088C818F5F8C83DF91CF91F2
:1012700008950F931F93CF93DF9300D01F92CDB7A4
:10128000DEB78C0180910E0281110AC09E012F5F92
:101290003F4F4FEF6FEF0E943D088A8180930E020F
:1012A000F8018481813051F028F0823061F440915E
:1012B0000E020AC080910E0240E007C060910E024B
:1012C00040E080E003C040E080E060E00E94E00891
:1012D000F801848190E0019663E070E00E94482B61
:1012E00084830F900F900F90DF91CF911F910F91FA
:1012F0000895AF92BF92CF92DF92EF92FF920F9339
:101300001F93CF93DF9300D01F92CDB7DEB7182F76
:10131000F62E042FE22E9091EB0290FF6DC0E92F84
:10132000E695AE2FB0E0A856BE4F8C9180934F0249
:101330009E7F923061F49E012F5F3F4F812F0E946C
:101340003D084B8169818A810E94E00843C0823058
:1013500019F40091EE023EC0863019F41091EC02AF
:1013600039C08930D9F38931A9F5E9518E2F8170BF
:10137000D82EE695F0E0E757FD4FA590B490C12C2C
:10138000BB2460913C01C61618F52C2D30E0A29EBE
:10139000C001A39E900DB29E900D112470E00E949A
:1013A000342B812FD11002C0860F01C0861B909173
:1013B0003A01290F311DA901440F551F240F351F74
:1013C00020513D4F402F6F2D0E943D08C394D9CF2F
:1013D0000E94BC081093EC02F092ED020093EE0222
:1013E000EE2051F06091EB027091EC028091ED02E1
:1013F0009091EE020E9462080F900F900F90DF9183
:10140000CF911F910F91FF90EF90DF90CF90BF9001
:10141000AF900895EBEEF2E09181282F4381628135
:1014200088E0890F0C94790981E00C940A0AEBEEAC
:10143000F2E09181282F4381628188EF890F0C941B
:10144000790981E00C94170AEBEEF2E0628128E062
:10145000620F08F46FEF282F438181810C94790982
:1014600081E00C94240AEBEEF2E0628128E0621B3A
:1014700008F460E0282F438181810C94790981E090
:101480000C94330AEBEEF2E0438128E0420F08F4BB
:101490004FEF282F628181810C94790981E00C94AF
:1014A000420AEBEEF2E0438128E0421B08F440E000
:1014B000282F628181810C94790981E00C94510A72
:1014C00020E00C947909FF920F931F93CF93DF9341
:1014D000EC01F12C0FEF10E060913C01F616F0F4F6
:1014E00080913A012F2D30E0280F311DC901880F5E
:1014F000991F280F391F20513D4F70E0C8010E94ED
:10150000482B962F8C814091EE026091ED02F99E5E
:10151000800D11240E943D08F394DECF0E94BC0888
:101520009A818C8190FF02C08F5F01C081508C83B3
:10153000DF91CF911F910F91FF900895AF92BF92CD
:10154000CF92DF92EF92FF920F931F93CF93DF938F
:10155000FC01828180FF02C00FEF01C001E010E0BA
:101560004BE0A42E80913C01181708F043C08091F5
:101570003A01C12ED12CE601C80FD11DCE01880F32
:10158000991FC80FD91FC051DD4F198218821A82C6
:1015900034E0E32EF12CB12C809110028B0D8C30B5
:1015A0002CF06A2D0E94262B892F05C087FF03C0CF
:1015B00090913C01890F082E000C990BC816D90692
:1015C00091F48091EE028E9DA0018F9D500D11240B
:1015D00055954795559547959E016091ED028091EF
:1015E000EC020E943D08B00EF1E0EF1AF108A1F6FE
:1015F0001F5FB8CF0E94BC0880911002013031F407
:10160000811102C080913C01815007C090E0019699
:1016100060913C0170E00E94482B80931002DF91A2
:10162000CF911F910F91FF90EF90DF90CF90BF90DF
:10163000AF900895CF9380913A0190913B01891723
:1016400070F4E82FF0E09F01220F331FE20FF31F29
:10165000E051FD4F1182108212828F5FF0CFC0E007
:1016600060913C01C617C0F5EC2FF0E070E0CF01AF
:101670000E94482B20913A01820F20910F02022EE6
:10168000000C330B90E0E217F307CCF02091370108
:10169000022E000C330B2E173F078CF09C01220FFB
:1016A000331F820F931F9C0120513D4F4091EE024A
:1016B0006091ED028091EC020E943D080BC0FC019C
:1016C000EE0FFF1F8E0F9F1FFC01E051FD4F118297
:1016D00010821282CF5FC4CF0E94BC0820913601D5
:1016E00080910F02820F80930F0290913701920F29
:1016F0009093370119165CF4082E000C990B409159
:101700003C0150E041505109841795071CF0219588
:1017100020933601CF9108958F929F92AF92BF92FE
:10172000CF92DF92EF92FF920F931F93CF93DF93AD
:101730008C01FC014481C42FD0E09E01DE010E9497
:101740008C2B9B01AC010E94A22B6B017C01E0E27F
:10175000F0E0EC1BFD0BA5E5B0E09B01AC010E94A5
:10176000A22B4B015C019F01DF010E94842B9B0196
:10177000AC010E94AD2B9B01AC012C0D3D1D4E1DFB
:101780005F1DC501B4010E945C2BC22FD22F2A32EB
:1017900028F4F3E02F9F900111240DC025E530E0DF
:1017A0002C1B3109C901880F991F280F391F37FFDA
:1017B00002C02F5F3F4F35952795C22FC095F12C62
:1017C00085E5E82EED1A80913C01F816C8F4F1FC8D
:1017D00002C08E2D01C08D2F90913A012F2D30E047
:1017E000290F311DA901440F551F240F351F20510A
:1017F0003D4F4C2F6091ED020E943D08F394E3CFE2
:101800000E94BC08F8018481811102C091E003C0EC
:10181000803219F49FEF9093350190913501890F33
:10182000F8018483DF91CF911F910F91FF90EF908A
:10183000DF90CF90BF90AF909F908F9008950F93BF
:101840001F93CF93DF93EC0100E010E080913C0107
:10185000282F30E00217130724F590913A019801E0
:10186000290F311DA901440F551F240F351F205189
:101870003D4F869590E04C81081719071CF44423CE
:1018800031F002C0411103C04091EE0201C040E0BE
:101890006091ED028091EC020E943D080F5F1F4FA6
:1018A000D5CF0E94BC088C8190E001968170992769
:1018B0008C83DF91CF911F910F9108958F929F920A
:1018C000AF92BF92CF92DF92EF92FF920F931F934E
:1018D000CF93DF93FC01B280948081E0848300E0A9
:1018E00015E05BE4A52E88248394EE24EA94F12C81
:1018F0007BE4C72ED12C80913C01081708F08FC0E3
:10190000C02FD0E01C9FF0011D9FF00D1124EF5E51
:10191000FD4F911003C01382128267C023812223DE
:1019200089F1215023833481332319F09A2D921B9E
:1019300001C0922F8091EE021C9FF0011D9FF00DBF
:101940001124EF5EFD4F899FC0011124B6010E9452
:10195000342B6283211104C0332311F01482A3823B
:1019600022E02B1508F441C01C9FF0011D9FF00DD3
:101970001124EF5EFD4F8091EC0280838091ED0297
:10198000818333C00E94012C8230914074F582E043
:101990008B1530F40E94012CB7010E94482B02C025
:1019A0008091EC021C9FF0011D9FF00D1124EF5E51
:1019B000FD4F808322E02B1558F40E94012C2091CA
:1019C000ED022695622F70E00E94482B820F02C024
:1019D0008091ED021C9FF0011D9FF00D1124EF5E20
:1019E000FD4F81831282A382848280913A019E01FD
:1019F000280F311DC901880F991F280F391F205149
:101A00003D4F1C9FF0011D9FF00D1124EF5EFD4F17
:101A10004281618180810E943D080F5F6CCFDF9120
:101A2000CF911F910F91FF90EF90DF90CF90BF90DB
:101A3000AF909F908F900C94BC08EBEEF2E0808109
:101A40008E7F808360817181828193810E94620890
:101A5000109250022FEF80E792E02150804090409A
:101A6000E1F700C000000C94BC08EBEEF2E08081CE
:101A70008E7F8083109250022FEF80E792E02150FA
:101A800080409040E1F700C000000C94BC086091D9
:101A9000EB02669570E04BE050E08DE391E00E9430
:101AA000112C892B19F481E0809350020E9441216E
:101AB000909349028093480208959091EB0290FF21
:101AC00035C09170811102C0926006C08B3210F057
:101AD000946502C0880F982B9093EB02662351F017
:101AE0006091EB027091EC028091ED029091EE0218
:101AF0000E9462086091EB02669570E04BE050E056
:101B00008DE391E00E94112C892B19F01092500264
:101B100002C00E94470D81E080934B024091EE028B
:101B20006091ED028091EC020C94600A0895682F98
:101B30009091EB02969581E0890F8B3208F081E05D
:101B40000C945D0D81E00C94970D682F9091EB0241
:101B500096958FEF890F09F48AE20C945D0D81E070
:101B60000C94A50D61E00C945D0DEBEEF2E080812C
:101B70008160808386950C94B20D8091EB0280FD8C
:101B80000C941D0D0C94B50D60E00C945D0D8091CE
:101B90004E0281112EC00E94A31F811104C00E9419
:101BA0004A200E9474080E945E086093EB027093C2
:101BB000EC028093ED029093EE026E7F61F40E943E
:101BC00074080E945E086093EB027093EC028093AD
:101BD000ED029093EE020E944B0810925002809109
:101BE000EB0280FF03C086950E94C40D81E08093C4
:101BF0004E020895EBEEF2E080818160808386954D
:101C00000C94C40D1092500208950F931F93CF931C
:101C1000DF9380915002882309F49CC080914F0289
:101C2000E091EB02E695E81BE0934A02823049F42A
:101C3000F0E0EB57FE4FE491CE2FD0E005E119E044
:101C400059C0863049F4F0E0EE57FE4FE491CE2FB4
:101C5000D0E009E219E04EC0893051F4E695F0E099
:101C6000E158FE4FE491CE2FD0E003E61AE042C0E7
:101C70008F3051F4E695F0E0E458FE4FE491CE2F1A
:101C8000D0E00EE91AE036C0853149F4F0E0E758BB
:101C9000FE4FE491CE2FD0E00AE11BE02BC088314B
:101CA000D9F0833239F4E7E7F1E0C591D49109E343
:101CB00019E020C08432A9F08532C1F48E2F63E090
:101CC0000E941A2BE92FF0E0EC58FE4FE491CE2F42
:101CD000D0E00EE51CE00EC0C8E2D0E00CE81BE04E
:101CE00009C0C4EFD1E00FE11CE004C0C0EDD7E0B3
:101CF00009E318E080914B02882389F010924B028F
:101D00000E9441219E0120953095820F931F909350
:101D100049028093480210924D0210924C02809129
:101D20004802909149020E944D218C179D0790F026
:101D3000E0914802F0914902CE0FDF1FD093490293
:101D4000C093480288E492E0F801DF91CF911F919F
:101D50000F910994DF91CF911F910F9108958823DE
:101D600011F0FA0101C0FB010994CF93DF93C82F52
:101D7000D62F0E9483088C1740F00E9483088D178D
:101D800020F4DF91CF910C94A20D8C2FDF91CF9195
:101D90000C94B20D0F931F93CF93FB01C281CC2300
:101DA00009F463C08C010E94EF1E8272F801E35CAB
:101DB000FC45E431F10508F059C0EA5AFF4F0C9494
:101DC0007E2B0E94BD0D06C04FEA5DE062EA7DE019
:101DD0000E94AF0EC0E04AC042EA5DE06FEA7DE0DB
:101DE000F7CF41E25AE064E17AE0F2CF44E15AE011
:101DF00061E27AE0EDCF4FE35AE060E37AE0E8CFCA
:101E000040E35AE06FE37AE0E3CF4DE55AE06EE459
:101E10007AE0DECF4EE45AE06DE57AE0D9CF46EBCA
:101E200058E06FE978E0D4CF4FE958E066EB78E00E
:101E3000CFCF81E017C065E082E010C068E086E0A7
:101E40000DC06EE089E00AC064E18FE007C067E181
:101E500085E104C088E106C062E289E10E94B50E16
:101E6000B9CF83E20E94B20DB5CFC1E08C2FCF91E4
:101E70001F910F910895519A2BB12D7F3BB1326084
:101E80004FB7F894FC01CB01880F991F680F791F99
:101E90006E0F7F1FE617F70789F0819198E03BB935
:101EA000000000C087FF2BB9880F000000C000C0F1
:101EB00000C02BB900C09A9591F7ECCF4FBF8FE5CA
:101EC00094E00197F1F700C0000008950C94B80366
:101ED000FF920F931F93CF93DF93C5E5D2E045EDBB
:101EE00051E023ED31E061E070E0F2E0C735DF075B
:101EF00009F44CC0FA010191AF01A02FA295AF7077
:101F0000B0E09196EC9191970F70CB01002E01C03B
:101F1000880F0A94EAF7982F90959E2391969C93A8
:101F2000919792969C919297892B92968C939297E7
:101F3000F90111919F01E12FE295EF70F0E0F1A01E
:101F40001F70CB01012E01C0880F0A94EAF7982F69
:101F500090959F2191A392A1892B82A390968C9119
:101F600090E002C0959587950A95E2F78170E0A10F
:101F7000F0E002C0F595E7951A95E2F7E0FD02C0A2
:101F800090E001C092E0892B8993AFCFDF91CF9190
:101F90001F910F91FF9008953F924F925F926F9221
:101FA0007F928F929F92AF92BF92CF92DF92EF92E9
:101FB000FF920F931F93CF93DF9385E5682E82E006
:101FC000782E95EDE92E91E0F92E03ED11E023E551
:101FD000822E22E0922EC1E5D2E063015301312C22
:101FE00034E0432E512CD501ED915D014E2F440F6D
:101FF000440FF60141936F01D7012D917D01E22F2E
:10200000E295EF70F0E080A190E02F7002C095950E
:1020100087952A95E2F781709927F80151918F01F0
:10202000E52FE295EF70F0E020A130E05F7002C094
:10203000359527955A95E2F7F901E170FF2720FFC2
:1020400002C0E2E0F0E0E82BF92BE42BD301ED93A2
:102050003D01EF70F0E0ED53FE4F9081F40180817F
:10206000890F808384303CF088818F5F888360E0B3
:10207000832D0E94660FD4018C918D3F3CF48881A2
:102080008150888361E0832D0E94660FF401808176
:10209000082E000C990BB2010E94482BD4018D939D
:1020A0004D0133942196B2E03B129DCFDF91CF9149
:1020B0001F910F91FF90EF90DF90CF90BF90AF9066
:1020C0009F908F907F906F905F904F903F9008957A
:1020D0000F931F93CF93DF93C42FD22FFC018281E4
:1020E0008823C9F0409359020E94412190935802DD
:1020F0008093570280E28C0F883008F057C0C77079
:1021000081E001C0880FCA95EAF7DF91CF911F9156
:102110000F910C94871680915902481330C080911A
:102120005702909158020E944D21883C910538F544
:1021300010E21D0FCD17B9F080E28C0F883040F40B
:10214000C77081E001C0880FCA95EAF70E948E1619
:10215000183028F581E09D2F977001C0880F9A955F
:10216000EAF70E948716802F0E9474161830F0F448
:10217000D77081E001C0880FDA95EAF70AC080E2E3
:102180008C0F883098F4C77081E001C0880FCA9521
:10219000EAF7DF91CF911F910F910C948E16802F4B
:1021A000DF91CF911F910F910C947416DF91CF9115
:1021B0001F910F9108950F939C01CB01243F4CE593
:1021C000340731F188F4293DFCE53F07D9F02A3D79
:1021D0004CE5340779F1283D3C45A9F506E221EEAE
:1021E00041EE68ED7CE52BC0263FFCE53F07E1F0C2
:1021F000A8F0273F3C4539F507E225EE46EE67EFAC
:102200007CE51DC007E225EE45EE69ED7CE517C0D3
:1022100006E221EE40EE64EF7CE511C007E225EE18
:1022200044EE65EF7CE50BC006E221EE42EE66EF80
:102230007CE505C008E221E045EE6AED7CE50E9400
:10224000681080E008C0FC018281882319F0109298
:10225000590201C081E00F910895CF93DF93EC0103
:10226000FB018281882309F41FC1C230FCE5DF072E
:1022700008F41BC1C6319CE5D90738F09E012B5FDD
:102280003C452930310508F010C10E94B61F9093DB
:10229000160380931503C031ECE5DE0709F4C3C0D3
:1022A00008F041C0C8308CE5D80709F49AC0F0F4B2
:1022B000C430ECE5DE0709F487C068F4C2308CE571
:1022C000D80709F477C0C330DC4509F0E3C080913A
:1022D0001503826076C0C630ECE5DE0709F46EC0F7
:1022E00008F07BC08091150388606BC0CC308CE512
:1022F000D80709F485C068F4CA30ECE5DE0709F4B4
:1023000074C008F079C00E94251980911503806877
:1023100058C0CE308CE5D80709F476C008F07FC0ED
:10232000809115038BC0CC3FECE5DE0709F44FC06C
:1023300018F5C3318CE5D80709F47DC078F4C131B4
:10234000ECE5DE0709F473C0C231DC4509F0A2C038
:102350000E942519809115038F7733C0C5318CE514
:10236000D80709F472C008F486C0CB3FDC4509F0F9
:1023700091C0809116033EC0C115FDE5DF0709F449
:102380005FC058F4CE3F9CE5D90709F444C008F477
:102390003FC08091160382602DC0C230FDE5DF078B
:1023A00009F475C008F45DC0C330DD4509F072C0A2
:1023B00080E06EC080911503816003C08091150399
:1023C00080618093150366C08091150311C08091D0
:1023D00016038260809316035DC0809115038062AE
:1023E000F0CF809115038064ECCF80911503886055
:1023F0008460E7CF8160EECF809115038E7FE1CFBF
:10240000809115038D7FDDCF80911503877FD9CF14
:102410008091160318C0809116038D7FDBCF8091C9
:1024200015038F7ECECF809115038F7DCACF80910B
:1024300015038F7BC6CF80911503877F8B7FC1CF1C
:10244000809116038D7F8E7FC5CF8091150382FB0F
:10245000222720F991E0922790FB82F990FB83F9E3
:10246000B0CF80911603982F909591708E7F892B15
:1024700090FB81F9AFCF0E9425198091150387FB4E
:10248000222720F991E0922790FB87F99ACF81E0EB
:102490000E944C2080911503909116030E94C71F43
:1024A0000E94251980E001C081E0DF91CF9108955D
:1024B000CF93DF9386319C4541F5EB010E94EF1EDF
:1024C000982F8A812091490130914A01882379F01F
:1024D0009A7A81E009F480E080935A02911102C057
:1024E00069E201C065E3C9010E9493200AC080919E
:1024F0005A02811102C069E201C065E3C9010E946C
:1025000095200E94401F80E001C081E0DF91CF91C3
:102510000895CF93DF93EC0181E0898B8F810E9436
:10252000F21E88850E94051F0E94401FEA81FB81E0
:10253000CE010696309729F06C897D89DF91CF9185
:102540000994DF91CF910895CF93DF93FC0120810F
:10255000223039F4FB01EC0182810E94661D81E08A
:102560008B87DF91CF910895DB01FC018081813061
:1025700021F48D919C910C943804823039F4139697
:10258000ED91FC91149712968C9109940895FC0199
:102590008081813029F4FB01808191810C944E046B
:1025A0000895EF92FF920F931F93CF93DF93FC0157
:1025B0002285211136C0EC01E380F480F7E5FF1A93
:1025C00026E12E9DC0012F9D900D1124DC01AC5FF2
:1025D000BE4F1496ED91FC911597865F9E4F3097F4
:1025E00029F054966D917C915597099586E18E9DC1
:1025F00080018F9D100D11240C5F1E4FF801878103
:102600000E94F81EF80180850E940B1F0E94401F47
:10261000188219861B861E821D8210925C021092FF
:102620005B02DF91CF911F910F91FF90EF90089582
:10263000DF92EF92FF920F931F93CF93DF93FB01F3
:1026400022812223A1F1209148012F3F81F18C01A9
:10265000C4E0D1E0E12CF12CDD24D3948091480139
:10266000082E000C990B8E159F050CF18E81882386
:10267000C9F089859A858017910739F480915B02AA
:1026800090915C020817190769F0DF861C870B8799
:102690008989811103C0CE010E948912CE0106965C
:1026A0000E94D112FFEFEF1AFF0A6696D7CFDF9193
:1026B000CF911F910F91FF90EF90DF900895EF92CF
:1026C000FF920F931F93CF93DF939C0137552F3FBA
:1026D000310511F008F047C040914801042E000C6C
:1026E000550B4217530714F420934801FB017C015A
:1026F000828196E1929F8001939F100D1124E80141
:10270000CC5FDE4F888B92818E81992311F1FA86FE
:10271000E9868F5F8E830E9441219E878D870E946C
:10272000251F8F830E94EF1E88870E94021F9885B5
:10273000892B8887E881F981C801865F9E4F309791
:1027400019F06C897D890995F0925C02E0925B0238
:102750000AC0882341F08989882329F0C801865F4F
:102760009E4F0E94D11281E0DF91CF911F910F9176
:10277000FF90EF900895CF92DF92EF92FF920F9328
:102780001F93CF93DF93809148018F3FF1F1F12C9C
:1027900096E1E92E0F2D10E080914801082E000CE3
:1027A000990B801791078CF1E09EF001E19EF00DEE
:1027B0001124EC5FFE4FC288D388C114D10419F4F0
:1027C00088ECC82ED12CE09EE001E19ED00D1124B2
:1027D000CC5FDE4F8E818823B1F08D859E850E946F
:1027E0004D21C816D90678F48989811103C0CE011C
:1027F0000E948912E09EC001E19E900D1124865F27
:102800009E4F0E94D112F394C5CFDF91CF911F91BB
:102810000F91FF90EF90DF90CF9008959093620218
:10282000809361020895E0916102F0916202309715
:1028300021F00190F081E02D099480E00895E0916D
:102840006102F0916202309721F00280F381E02D65
:1028500009940895E0916102F0916202309739F095
:1028600022E0DC012C930480F581E02D0994089589
:1028700020915F02309160022817390771F0909320
:10288000600280935F02E0916102F09162023097F2
:1028900021F00680F781E02D0994089520915D02D2
:1028A00030915E022817390771F090935E02809391
:1028B0005D02E0916102F0916202309721F00084A4
:1028C000F185E02D0994089585B7806885BF85B7A7
:1028D000806885BF089581E008950C946B14089575
:1028E0000C946F140C946F140C9472140C946F1459
:1028F0000C9476140C946F140E9464140E947A1441
:102900000C9478140E9438210E944A070E94932157
:102910000E94C70D0E94680F0C947414AF92BF926E
:10292000CF92DF92EF92FF920F931F93CF93DF939B
:10293000CDB7DEB72A970FB6F894DEBF0FBECDBF76
:102940000E9470140E946F140E945B070E946D1415
:10295000811111C08FEF89838A831B820E944121DC
:102960008160782F9D838C8349815A816B818D8111
:102970000E942E1540C084E6A82E82E0B82E00E00A
:1029800010E0C02E802F0E943A07E82EF501D1906A
:102990005F01D82631F40F5F1F4F0530110589F70D
:1029A000D9CF8091C60281FD0E94400780E0FF24BC
:1029B000F3949D2D9F21D1F08E83CF82EF2081E073
:1029C00009F480E088870E9441218160782F9A87EE
:1029D00089874E815F8168858A850E942E15F8015E
:1029E000EC59FD4F8081F826F08205C08F5FFF0C07
:1029F0008430F9F6D0CF0E94050E0E94CC0F0E94C1
:102A000042230E941314909163028917B1F00E942F
:102A10001314809363022A960FB6F894DEBF0FBE9C
:102A2000CDBFDF91CF911F910F91FF90EF90DF907D
:102A3000CF90BF90AF900C9422052A960FB6F894D1
:102A4000DEBF0FBECDBFDF91CF911F910F91FF90E1
:102A5000EF90DF90CF90BF90AF900895CF93DF932A
:102A6000CDB7DEB72B970FB6F894DEBF0FBECDBF44
:102A70004F83588769877A878B87DE01119686E0B6
:102A8000FD0111928A95E9F785E0FE0137960190E4
:102A90000D928A95E1F749815A816B817C818D8104
:102AA0009E810E94DE1B2B960FB6F894DEBF0FBEF0
:102AB000CDBFDF91CF910895FC01808191810E946B
:102AC000B01E0895CF93882309F4A4C0C82F82387C
:102AD000C1F40E94131481FD9DC069E380914901F6
:102AE00090914A010E9493200E94401F2FEF81EE97
:102AF00094E0215080409040E1F700C0000069E37D
:102B000019C0833801F50E94131480FD83C063E56A
:102B10008091490190914A010E9493200E94401F98
:102B20002FEF81EE94E0215080409040E1F700C00B
:102B3000000063E58091490190914A010E9495202F
:102B4000CF910C94401F8438C1F40E94131482FD6D
:102B500061C067E48091490190914A010E949320ED
:102B60000E94401F2FEF81EE94E021508040904062
:102B7000E1F700C0000067E4DDCF8CEF8C0F813AF5
:102B8000D0F46C2F8091490190914A010E945D2000
:102B9000882349F06C2F8091490190914A010E944D
:102BA00095200E94401F6C2F8091490190914A010D
:102BB0000E949320C5CF80E28C0F883048F4C77004
:102BC00081E001C0880FCA95EAF70E94F21EB8CFD3
:102BD000EBE5EC0FE33040F4F0E0EB5FFD4F80817C
:102BE00090E0CF910C943814E8E5EC0FE73150F405
:102BF000F0E0EE0FFF1FE952FE4F80819181CF91EF
:102C00000C944E14C03F30F08C2F0E943722CF918D
:102C10000C942423CF910895882309F464C082384A
:102C200079F40E94131481FF5EC069E38091490129
:102C300090914A010E9493200E94401F69E310C0B6
:102C40008338B1F40E94131480FF4DC063E5809176
:102C5000490190914A010E9493200E94401F63E520
:102C60008091490190914A010E9495200C94401F47
:102C7000843879F40E94131482FF35C067E4809190
:102C8000490190914A010E9493200E94401F67E4ED
:102C9000E7CF9CEF980F913A10F4682FE1CF90E2C4
:102CA000980F983050F4877091E001C0990F8A9581
:102CB000EAF7892F0E94F81ED9CF9BE5980F933031
:102CC00020F480E090E00C94381498E5980F973148
:102CD00020F480E090E00C944E14803F20F00E949D
:102CE0009F220C9424230895CF93C82F0E9462152D
:102CF000C93349F42FEF87EE93E021508040904094
:102D0000E1F700C000008C2FCF910C940C168823A3
:102D100021F00E94F21E0C94401F0895882321F098
:102D20000E94F81E0C94401F0895CF92DF92EF92FC
:102D3000FF920F931F93CF93DF937C01062FC72F32
:102D4000FC01158112951F70D281D1110E94121FB2
:102D50000E94E81E882399F0DD2389F08C2F807F64
:102D6000803421F080E2800F883048F082E00E94B9
:102D70008A1F0E94E81E91E0D82ED92601C0D12CCE
:102D8000CC2EC2948FE0C8228C2D90E0FC01E65935
:102D9000FF4F0C947E2B8C2F807FCF70882311F0F7
:102DA000C295C07FDD2399F0CC2309F48DC180E268
:102DB000800F883010F0011104C08C2F0E94F21E89
:102DC00003C08C2F0E94051F0E94401F7DC1802FD1
:102DD0000E940C16CC2309F49CC180E2800F88303D
:102DE00010F0011104C08C2F0E94F81E03C08C2F1C
:102DF0000E940B1F0E94401F8CC18C2F807FCF70C0
:102E0000803211F0C295C07F002319F00130C9F063
:102E100022C0DD2371F0112341F0113031F40E9402
:102E2000251F8C2B0E942D1F74C10E94251F8C2BE7
:102E30001DC0112319F0113009F46BC10E94361F17
:102E400025C0DD2321F0163008F063C10EC0153017
:102E500008F05FC11BC0DD2361F0112331F0F701E1
:102E6000858180FF31C18F7085838C2F0E948716EA
:102E700050C1112359F0093309F037C1FFEF27EE94
:102E800083E0F15020408040E1F72DC18C2F0E945B
:102E90008E163FC18C2F86958695837019F08130F0
:102EA00061F037C1DD2321F0802F9C2F937002C089
:102EB00080E090E00E94381434C1DD2321F0802F9F
:102EC0009C2F937002C080E090E00E944E1429C1B4
:102ED000802FDD2319F00E94372202C00E949F221A
:102EE0000E9424231EC18C2F837009F045C0D1118C
:102EF00014C1402F429546954770440F440F602FF0
:102F00006F70862F90E0A0E0B0E0042E04C0880F20
:102F1000991FAA1FBB1F0A94D2F704FF10C00FE02D
:102F200010E020E030E004C0000F111F221F331F0B
:102F30004A95D2F7009510952095309503C000E092
:102F400010E09801C695C695C370BC01CD01602BF9
:102F5000712B822B932BC23049F058F4C13019F0F9
:102F60000E942F1DDAC00E941D1DD7C00E94411D66
:102F7000D4C00E941B1DD1C0DD2319F08C2F81709D
:102F800001C08695882309F4C8C0402F4295469514
:102F90004770440F440F602F6F70862F90E0A0E0C1
:102FA000B0E0042E04C0880F991FAA1FBB1F0A940B
:102FB000D2F704FF10C00FE010E020E030E004C0C2
:102FC000000F111F221F331F4A95D2F7009510954D
:102FD0002095309503C000E010E09801C695C69595
:102FE000C370BC01CD01602B712B822B932BC2309F
:102FF00049F058F4C13019F00E94F41D8EC00E94AF
:10300000E21D8BC00E94061E88C00E94551D85C00F
:10301000CF70DD2339F08C2F0E947B1D802F0E9402
:1030200087167BC0802F0E948E168C2F0E949C1DBD
:1030300074C0023F01F128F4003F41F0013FA1F0CC
:103040003FC0033FF9F0043F39F13AC0DD2341F0BE
:10305000153008F05EC08C2F8F710E94C11D59C0C1
:10306000163008F056C0F7CFDD2339F08C2F8F7162
:103070000E947B1D4EC0DD23C9F38C2F8F710E94EF
:103080009C1D47C0DD2329F08C2F8F710E94661D87
:1030900040C00E94611D3DC0DD2349F0CF718C2FDF
:1030A0000E947B1D63E08C2F0E94751F32C081E05F
:1030B0000E948A1F123068F182E00E948A1F29C094
:1030C000DD2331F0112391F2802F0E94621521C07F
:1030D000112399F2093349F49FEFE7EEF3E09150A1
:1030E000E040F040E1F700C00000802F0E940C1685
:1030F00010C04C2F4F70602FC7010E942B050E94FB
:103100008C1C0FC04C2F4F70602FC7010E942E05E2
:1031100008C088EF8C0D843020F40E9413140E94A4
:103120002205DD20C9F00E94E41E80FD15C0F701D4
:1031300012820E94DE1E0E947B1DC7010E94CD18D4
:103140000E94DE1EDF91CF911F910F91FF90EF90B3
:10315000DF90CF900C949C1DDF91CF911F910F9128
:10316000FF90EF90DF90CF9008950F931F93CF9330
:10317000DF93EC01688179818A810E94BB1E8C01FA
:103180000E94181E0E94091DB801CE010E949516CA
:10319000DF91CF911F910F910895CF93DF93EC01B1
:1031A000988189812B813C81232B31F08F3F31F431
:1031B00081E09F3F19F403C081E001C080E080FD01
:1031C00019C0CE010E94CE0481110CC00E94E81EDD
:1031D000882381F08A81882369F082E0DF91CF9192
:1031E0000C948A1FCE010E94B518CE01DF91CF91B9
:1031F0000C94A704DF91CF910895882321F00E94B9
:10320000051F0C94401F0895882321F00E940B1F76
:103210000C94401F08950E94121F0E94221F0E94BA
:10322000401F0E9455240E94242380E090E00E94C9
:10323000381480E090E00C944E14809149019091F4
:103240004A010E9497200C940B190E94FF1E0C94B7
:103250001D19E92FE295EF704E2F50E0FA013297D9
:10326000EE30F105B0F4E658FF4F0C947E2B803F12
:1032700091F018F4883E68F40EC0843F51F40BC0FE
:10328000883E48F0813F29F406C093FB882780F9E7
:10329000089580E0089581E008950E94B01E0E9484
:1032A00029190895CF93DF9300D000D01F92CDB796
:1032B000DEB70F900F900F900F900F90DF91CF918E
:1032C0000895CF93DF9300D000D000D0CDB7DEB704
:1032D00026960FB6F894DEBF0FBECDBFDF91CF911B
:1032E00008951F93CF93DF93C0916A0216E08091F7
:1032F0006B02C81799F0D0E01C9FF0011D9FF00DE4
:103300001124E459FD4F4081518162817381848190
:1033100095810E9461192196C770E9CFDF91CF9105
:103320001F91089540919C0250919D0260919E02D0
:1033300070919F028091A0029091A1020C9461195A
:103340000F931F93CF93DF938091A10282958F708B
:1033500009F05DC080919E02882309F458C08091D5
:103360006A0210916B0260919C0270919D02C09163
:103370009F02D091A00291E06F3F09F090E0292FC9
:1033800006E0811709F443C0209721F07F3F21F028
:1033900030E003C031E001C0322F90E030FD34C096
:1033A000089FF001099FF00D1124DF01A459BD4FC2
:1033B00011963C911197371327C03C91361324C0C6
:1033C00012963C91129731111FC013964D915C914A
:1033D00014974C1B5D0B483C5105B0F48091A10241
:1033E0008F7080618093A102EF58FD4F80818F70B4
:1033F000806180838CE992E00E94CD18DF91CF91AB
:103400001F910F910C94711901968770BACFDF91BB
:10341000CF911F910F9108959F92AF92BF92CF923B
:10342000DF92EF92FF920F931F93CF93DF93CDB76D
:10343000DEB761970FB6F894DEBF0FBECDBF8C012B
:1034400085E0F801DE011D9601900D928A95E1F765
:10345000F80140815181E28090919C0260919D022F
:1034600020919F023091A0022115310531F06F3F6C
:1034700031F481E09F3F19F403C081E001C080E096
:10348000F82FF1709F2E80FD46C1F801A380B48013
:103490008CE9C82E82E0D82EF0909E02F501E21B46
:1034A000F30BFF2009F4DFC08091A102E83CF10595
:1034B00008F09BC0282F207F09F052C0561313C07C
:1034C000491311C0FE2CE1100EC08F7080618093F3
:1034D000A1020E949219C6010E94CD188091A102FA
:1034E000F801858358C1AB2831F05F3F31F481E0AA
:1034F0004F3F19F403C081E001C080E080FD03C0AC
:1035000081E08E2502C080E090E0F82FF170FF2E60
:1035100080FF1CC080916A0220916B0236E0821706
:1035200009F417C190E0389FF001399FF00D112484
:10353000E459FD4F6181561306C06081461303C0F4
:103540006281E61203C001968770E9CFFE2CEE205F
:1035500009F421C18091A10281608093A1025AC027
:10356000561306C0491304C0E11002C0F8019FC001
:103570004D875E878D859E850E944D19882379F140
:10358000EE2069F12091A102822F82958F7090E048
:10359000029774F080919C0290919D0298878F838E
:1035A0001986BB86AA862C87CE0107960E94CD1865
:1035B00086E0F801ACE9B2E001900D928A95E1F75E
:1035C0000E94A0190E9492190DC0561729F14D872B
:1035D0005E878D859E850E944D1981112CC0C80182
:1035E0000E94CD18FF24F394D6C0282F207F69F7BE
:1035F0007A2DB98AA88A6E2D89890E9452198CE980
:1036000092E00E94CD1886E0F60111928A95E9F7C2
:103610000E949219F12CBFC04913D9CFE110D7CF26
:10362000F8018583C8010E94CD1886E0F601119249
:103630008A95E9F7B0C0EE2091F22091A102822F85
:1036400082958F7090E002970CF4B2CF80919C022B
:1036500090919D029A8389831B82BD82AC822E83C6
:10366000CE010196A3CFE83CF10508F047C0FE2C3F
:10367000EE2009F4B4CF561330C049132EC0209168
:10368000A10220FD21C0822F82958F70482F50E02B
:1036900041155105C9F0F80125834F30510541F01E
:1036A0008F5F982F9295907F822F8F70892B8583C3
:1036B000C8010E94CD1886E0F801ACE9B2E00190A3
:1036C0000D928A95E1F742C086E0F801ACE9B2E0DC
:1036D00001900D928A95E1F75EC04D875E878D85DA
:1036E0009E850E944D19811163CF8091A102816056
:1036F0008093A102C8010E94CD184DC07A2DB98ACD
:10370000A88A6E2D89890E94521986E0F6011192CD
:103710008A95E9F71BC0EE2009F461CF4D875E87DB
:103720008D859E850E944D19F82E882309F457CF68
:1037300086E0F801ACE9B2E001900D928A95E1F7DC
:103740008CE992E00E945C150E94A0190E949219D7
:1037500022C04D875E878D859E850E94B01E292FD1
:1037600022952F70223028F49F7039F0811105C006
:103770000BC0243028F49F7049F4805E883020F01C
:10378000C8010E94CD189F2CF92C05C0F801958125
:10379000907F99F7F9CF8F2D61960FB6F894DEBF21
:1037A0000FBECDBFDF91CF911F910F91FF90EF9092
:1037B000DF90CF90BF90AF909F9008951F93CF93CD
:1037C000DF93CDB7DEB72C970FB6F894DEBF0FBEF0
:1037D000CDBF4F83588769877A878B879C87CE01B7
:1037E00007960E940C1A8823D1F09F8188852A852C
:1037F0003B85232B31F08F3F31F481E09F3F19F45B
:1038000003C081E001C080E080FD47C04F81588542
:1038100069857A858B859C850E9461193EC086E00A
:10382000FE013796DE01119601900D928A95E1F71F
:10383000FF81E8856A857B856115710531F0EF3F71
:1038400031F481E0FF3F19F403C081E001C080E062
:1038500080FD23C020916B0230E0C9010196877082
:10386000992740916A0250E084179507F1F1F98396
:10387000EA837D836C8396E0929FD001939FB00D85
:103880001124A459BD4FFE01319601900D929A95D5
:10389000E1F780936B020E94711916E080916A0231
:1038A00090916B02891771F1189FC00111248459FE
:1038B0009D4F0E940C1A882329F1E0916A021E9FF5
:1038C000F0011124E459FD4F4081518162817381DF
:1038D000848195810E94611980916A0290E001962D
:1038E0008770992780936A02D9CF0E942519109278
:1038F0006B0210926A02ECE9F2E086E0DF011D92B1
:103900008A95E9F72C960FB6F894DEBF0FBECDBFAF
:10391000DF91CF911F910895EF92FF920F931F9324
:10392000CF93DF938C01892B09F46CC0F12CEE242A
:10393000E394E8012196F8018491843740F48430BF
:1039400008F051C0813081F0823019F15BC08537B9
:1039500009F444C0A8F19CE7980F903708F052C0D2
:103960008F770E940C1641C00E5F1F4FFE0184919D
:1039700090E2980F983050F48770FE2D01C0FF0F31
:103980008A95EAF78F2F0E94151F14C00E946215B6
:103990002DC00E5F1F4FFE01849190E2980F98306A
:1039A00060F48770FE2D01C0FF0F8A95EAF78F2F14
:1039B0000E941B1F0E94401F19C00E940C1616C0B7
:1039C0000E5F1F4FFE01C491CC2381F08FE99FE071
:1039D0000197F1F700C00000C150F6CF0E5F1F4FF6
:1039E000FE01F49003C00E9462158E018F2D882382
:1039F00009F49FCFEFE9FFE03197F1F700C0000035
:103A00008150F5CFDF91CF911F910F91FF90EF90F3
:103A10000895089508950C940A1D0C940B1D0E949E
:103A20000D1D6093B5027093B6028093B702909318
:103A3000B8020C940B190C940F1D0F931F93009157
:103A4000B5021091B6022091B7023091B802602BF6
:103A5000712B822B932B1F910F910C940F1D0F93A1
:103A60001F930091B5021091B6022091B7023091D8
:103A7000B80260237123822393231F910F910C942A
:103A80000F1D0F931F930091B5021091B602209164
:103A9000B7023091B80260277127822793271F91C0
:103AA0000F910C940F1D0C940A1D0E94531D6093DE
:103AB000B1027093B2028093B3029093B4020C945B
:103AC0000B1960E070E0CB010C94551D0F931F9310
:103AD00041E050E060E070E08A019B0104C0000F0B
:103AE000111F221F331F8A95D2F7C901B8011F91F8
:103AF0000F910C94551D0F931F9341E050E060E02F
:103B000070E004C0440F551F661F771F8A95D2F7D7
:103B10008091B1029091B202A091B302B091B4022F
:103B20008A019B01082B192B2A2B3B2BC901B801B9
:103B30001F910F910C94551D0F931F9341E050E07E
:103B400060E070E004C0440F551F661F771F8A9520
:103B5000D2F740955095609570958091B102909103
:103B6000B202A091B302B091B4028A019B01082372
:103B700019232A233B23C901B8011F910F910C94EB
:103B8000551D0F931F9341E050E060E070E004C0CA
:103B9000440F551F661F771F8A95D2F78091B10297
:103BA0009091B202A091B302B091B4028A019B013C
:103BB000082719272A273B27C901B8011F910F9110
:103BC0000C94551D0F931F930091B1021091B202F6
:103BD0002091B3023091B402602B712B822B932B76
:103BE0001F910F910C94551D0F931F930091B102DB
:103BF0001091B2022091B3023091B402602371237C
:103C0000822393231F910F910C94551D0F931F93A3
:103C10000091B1021091B2022091B3023091B4022E
:103C200060277127822793271F910F910C94551DB0
:103C30000895990F990F890FE82FE695E695E69577
:103C4000877051E001C0550F8A95EAF785E0E89F3B
:103C5000F0011124EE55FD4F20E030E070E040818E
:103C6000CB01022E02C0969587950A94E2F78170E7
:103C7000819584278523842781932F5F3F4F2530AB
:103C8000310569F70895990F990F890F682F669587
:103C900066956695982F977085E0689FB00111240E
:103CA00040E050E080E0FB01E40FF51FEE55FD4FD2
:103CB000208130E0092E02C0369527950A94E2F75C
:103CC00021703327042E01C0220F0A94EAF7822BB9
:103CD0004F5F5F4F4530510531F70895BF92CF9246
:103CE000DF92EF92FF920F931F93CF93DF938C019C
:103CF000C090B102D090B202E090B302F090B40252
:103D00008091B5029091B602A091B702B091B8022D
:103D1000C82AD92AEA2AFB2ACFE1D0E0D701C60176
:103D20000C2E04C0B695A795979587950A94D2F75F
:103D300080FD04C0219790F7B12C07C0BC2EB801BC
:103D40008C2F0E944B050197A9F38B2DDF91CF910A
:103D50001F910F91FF90EF90DF90CF90BF9008954B
:103D6000CF93DF93EC010E946E1EBE010E944B05B3
:103D7000DF91CF9108951F93CF93DF93EB01909143
:103D80006902992321F0CB010E94B01E13C0882341
:103D900049F0CB010E946E1E182F682FCE010E94A1
:103DA000191E04C0CB010E94431E182FBE01812F93
:103DB0000E944B05DF91CF911F9108958091B90228
:103DC00085958595859508958091B90287700895A8
:103DD0009091B902977081E009F480E00895809194
:103DE000C50208959091C502892B8093C50208955C
:103DF00080959091C50289238093C5020895109201
:103E0000C50208958091C40208959091C402892B3F
:103E10008093C402089580959091C4028923809371
:103E2000C40208951092C40208959091C302892B90
:103E30008093C302089580959091C3028923809353
:103E4000C30208951092C30208958091BA020895A2
:103E500008950C94281F0C94291F9091BA0298176A
:103E600021F08093BA020C942B1F08958091BA021E
:103E7000882329F01092BA0280E00C942B1F089539
:103E8000E0914901F0914A018091C5028083E0915F
:103E90004901F0914A0190818091C402892B80836D
:103EA000E0914901F0914A0190818091C302892BF0
:103EB00080838091BA02882381F0E0914901F091DA
:103EC0004A019081892B80838091490190914A0118
:103ED0000E94512081110E94361F809149019091CA
:103EE0004A010C941F140C94281F98E0899F90019C
:103EF0001124262B2093B9020E947B1D8091B902C8
:103F00008595859585950C94731F1092B90280E074
:103F10000C94731F2091B902809582238093B9027B
:103F2000982F977079F430E0482F082E000C550B2D
:103F30002417350739F08595859585950E949C1D38
:103F40000C94851F089580E090E00E942C2C21E0C5
:103F50008C3E9E4F09F020E0822F089582E090E091
:103F60000C941E2C83E090E00C941E2CCF9384E0E4
:103F700090E00E941E2CC82F81E290E00E941E2C2F
:103F80002C2F30E0A901582BCA01CF910895CF936F
:103F9000C92F682F84E090E00E94322C6C2F81E2C0
:103FA00090E0CF910C94322CAB01BC018FE090E0FB
:103FB0000C94442CAB01BC0183E190E00C94442CA4
:103FC00060E070E0CB010C94DA1F60E070E0CB01A0
:103FD0000E94D41F0C94E01F6CEE7EEF80E090E016
:103FE0000E94502C60E082E090E00E94322C60E061
:103FF00083E090E00E94322C1092B5021092B6023B
:104000001092B7021092B80260E084E090E00E9443
:10401000322C60E081E290E00E94322C60E085E08A
:1040200090E00E94322C60E086E090E00E94322C0A
:104030006FEF87E090E00E94322C40E050E0BA0140
:1040400088E090E00E94442C60E08DE090E00E94C7
:10405000322C40E050E0BA0188E190E00E94442C0C
:1040600060E087E190E00E94322C40E050E0BA012D
:104070008CE190E00E94442C60E080E290E00E949D
:10408000322C40E050E0BA0188E190E00E94442CDC
:104090000C94E51F0C94EC1F682F8EE090E00C94BC
:1040A000322CFC01329697E080E0915029F021916A
:1040B0002223D9F38F5FF9CF0895662349F0FC01DD
:1040C000329608962191621729F0E817F907D1F77F
:1040D00080E0089581E008959C01FC0132969FEFF5
:1040E00080E04191461789F09F3F19F4411101C0CA
:1040F000982F8F5F8630A9F79F3F39F0F901E90FBC
:10410000F11D97FDFA956283089508959C012A5F39
:104110003F4FFC014281461301C012820196821773
:104120009307B9F708950C946C200C94862002969E
:1041300026E0FC0111922A95E9F7089508950C9460
:104140009E200C949E20CF930E94A1200E945B078A
:104150000E949F20C0E08C2F0E943A07811104C06A
:10416000CF5FC530C1F701C081E0CF9108950C94B5
:104170009E200C94B7200E94B92080911B038430AC
:1041800009F439C01092C70220E488E190E00FB62C
:10419000F894A895809360000FBE2093600080E0A3
:1041A0000E9422050E94020E8091C80281110AC05D
:1041B00081E08093C8028091EB0281708093C902F4
:1041C0000E94350D0E94B92083B7817F846083BF30
:1041D00083B7816083BF7894889583B78E7F83BFD0
:1041E0000FB6F894A8958091600088618093600074
:1041F000109260000FBE08950C949E200E94251915
:104200000E9413140E9422051092C8028091C902D4
:1042100081110E94FA0D0E94470D0C94FC201F9200
:104220000F920FB60F9211248F939F93AF93BF936A
:104230008091C702811113C08091110390911203E4
:10424000A0911303B09114034196A11DB11D809359
:10425000110390931203A0931303B0931403BF911F
:10426000AF919F918F910F900FBE0F901F90189557
:1042700082E084BD93E095BD9AEF97BD80936E0078
:1042800008952FB7F8948091110390911203A09193
:104290001303B09114032FBF08959C014FB7F894F6
:1042A0008091110390911203A0911303B091140314
:1042B0004FBF821B930B089578941F920F920FB6F5
:1042C0000F9211248F939F93AF93BF93809111030B
:1042D00090911203A0911303B09114030196A11DB4
:1042E000B11D8093110390931203A0931303B09315
:1042F0001403BF91AF919F918F910F900FBE0F90BC
:104300001F90189587E797E790930108809300081E
:104310009AE088E10FB6F894A895809360000FBEEC
:1043200090936000FFCF0E94A31F811102C00E94E2
:104330004A200E94AE1F8093C6020E94B61F90932F
:104340001603809315030E94B21F682F70E080E06F
:1043500090E00E941B1D6091B1027091B2028091A9
:10436000B3029091B4020C94531D8091D00280FF4F
:104370000BC06091500185E0689FB00111247595D4
:104380006795759567952BC081FF09C060915001B5
:1043900085E0689FB00111247595679520C082FF64
:1043A00007C06091500185E0689FB001112417C0DB
:1043B0009091CF029923D1F060914F01961788F721
:1043C0002091500185E0289F90011124929FA00127
:1043D000939F500D112470E0CA010E94482B603851
:1043E000710540F46115710519F406C065E070E0CF
:1043F000862F08958FE7089581E008958091D00277
:1044000080FF08C060914C0170E0759567957595C7
:10441000679521C081FF06C060914C0170E07595E1
:10442000679519C082FF04C060914C0170E010C014
:104430009091CE02992399F060914B019617A0F7C5
:1044400080914C01899FC001112470E00E94482B8B
:104450006038710540F46115710519F406C061E01A
:1044600070E0862F08958FE7089581E00895803FDA
:1044700021F40E94B521819504C0813F29F40E9456
:10448000B5218093D4020895823F21F40E94B52182
:10449000819504C0833F29F40E94B5218093D30203
:1044A0000895893F19F40E94FE2105C08A3F31F426
:1044B0000E94FE2181958093D50208958B3F21F4BF
:1044C0000E94FE21819504C08C3F29F40E94FE21A8
:1044D0008093D6020895843F21F48091D2028160B6
:1044E00017C0853F21F48091D202826011C0863FBF
:1044F00021F48091D20284600BC0873F21F4809127
:10450000D202886005C0883F31F48091D202806178
:104510008093D20208958D3F21F48091D002816072
:104520000BC08E3F21F48091D002826005C08F3F86
:1045300029F48091D00284608093D0020895803F56
:1045400039F48091D40287FF6AC01092D40267C008
:10455000813F29F48091D4021816BCF360C0909179
:10456000D302823F29F497FF5AC01092D30257C05A
:10457000833F19F41916CCF352C09091D502893FAC
:1045800031F419160CF04BC01092D50248C08A3F86
:1045900019F497FF44C0F8CF8B3F39F48091D602CD
:1045A00087FF3DC01092D6023AC08C3F29F480911B
:1045B000D6021816BCF333C0843F21F48091D20296
:1045C0008E7F17C0853F21F48091D2028D7F11C06C
:1045D000863F21F48091D2028B7F0BC0873F21F46C
:1045E0008091D202877F05C0883F31F48091D2024A
:1045F0008F7E8093D20213C08D3F21F48091D00230
:104600008E7F0BC08E3F21F48091D0028D7F05C03C
:104610008F3F29F48091D0028B7F8093D0028091CC
:10462000D302811106C08091D402811102C0109280
:10463000CF028091D502811106C08091D6028111EE
:1046400002C01092CE0208950E9441212091D3020F
:10465000211104C02091D402222321F09093CD0295
:104660008093CC022091D502211104C02091D60262
:10467000222321F09093CB028093CA0281ED92E035
:104680000C942A14EF92FF920F931F93CF93DF9312
:1046900000D000D000D0CDB7DEB786E0E1EDF2E08B
:1046A000DE01119601900D928A95E1F7E090D30218
:1046B000F090D4020091D5021091D6021092D3024C
:1046C0001092D4021092D5021092D602E11003C0CB
:1046D000FF2009F45DC08091CC029091CD020E9430
:1046E0004D21AC019091CF02992339F020915101D5
:1046F00030E02417350758F04BC0209152018AE072
:10470000289F900111242417350718F041C09F3FBE
:1047100019F09F5F9093CF02EE2061F00E94B521C7
:104720001E1414F09FEF01C091E0989F902D11246A
:104730009093D302FF2061F00E94B5211F1414F062
:104740009FEF01C091E0989F902D11249093D40287
:104750003091D3023323E1F02091D4022223C1F01F
:1047600045EB3403C0011124992319F09093D3022F
:1047700003C081E08093D30235EB2303C0011124F1
:10478000992319F09093D40203C081E08093D4025E
:10479000011103C0112309F45DC08091CA029091F8
:1047A000CB020E944D21AC019091CE02992339F0A9
:1047B00020914D0130E02417350758F04BC020916F
:1047C0004E018AE0289F900111242417350718F024
:1047D00041C09F3F19F09F5F9093CE02002361F08C
:1047E0000E94FE21101614F09FEF01C091E0989FE7
:1047F000902D11249093D502112361F00E94FE2187
:10480000111614F09FEF01C091E0989F902D112494
:104810009093D6023091D5023323E1F02091D60255
:104820002223C1F045EB3403C0011124992319F070
:104830009093D50203C081E08093D50235EB23032A
:10484000C0011124992319F09093D60203C081E08E
:104850008093D6028091D30281110BC08091D40243
:10486000811107C08091D502811103C08091D602C9
:1048700081110E942423EB82FC820D831E8386E03B
:10488000FE013196A1EDB2E001900D928A95E1F71B
:1048900026960FB6F894DEBF0FBECDBFDF91CF9145
:1048A0001F910F91FF90EF900895E1EDF2E086E007
:1048B000DF011D928A95E9F71092CF021092CE0285
:1048C0001092D00208958091DF020895CF93DF9374
:1048D00000D01F92CDB7DEB790911B03943019F52D
:1048E00089837B836A8382E08093E9008FEF9091D4
:1048F000E800815095FD06C095ED9A95F1F700000E
:104900008111F5CF8091E80085FF0DC040E050E0B7
:1049100063E070E0CE0101960E947C268091E80061
:104920008E778093E8000F900F900F90DF91CF91DA
:104930000895BC0184E00C946624BC0183E00C94CF
:10494000662422E02093E9002FEF3091E800215007
:1049500035FD06C035ED3A95F1F700002111F5CF90
:104960002091E80025FF0BC040E050E066E070E0D9
:104970000E947C268091E8008E778093E80008955D
:10498000CF93DF9321E02093E9002FEF3091E800EF
:10499000215035FD06C035ED3A95F1F700002111A3
:1049A000F5CF2091E80025FF14C0EC0140E050E075
:1049B00068E070E00E947C268091E8008E7780930A
:1049C000E80088E0FE01A7EDB2E001900D928A9523
:1049D000E1F7DF91CF91089580911A03811109C009
:1049E0000E940D280E946A288091E20084608093D2
:1049F000E200089510921A030895089508950C9402
:104A0000FE2042E061EC81E00E94862742E261ECF8
:104A100082E00C94862780911D03833009F460C0E6
:104A200030F4813071F0823009F499C008958A30F1
:104A300009F485C08B3009F46BC0893009F0A7C038
:104A400020C080911C03813A09F0A1C08091E80048
:104A5000877F8093E8008091200390912103892B28
:104A600021F468E087ED92E003C060E080E090E030
:104A700070E00E94C7268091E8008B778093E80061
:104A8000089580911C03813209F081C08091200338
:104A900090912103029708F07AC08091E800877F07
:104AA0008093E8008091E80082FD05C080911B039F
:104AB0008111F8CF6CC02091F3008091F20090E05A
:104AC000922B029729F48091F1008B7F813021F4A1
:104AD0008091F1008093DF028091E8008B7753C0D2
:104AE00080911C03813A09F052C08091200390917B
:104AF0002103892B09F04BC08091E800877F8093C8
:104B0000E8008091E80080FFFCCF80915D0136C015
:104B100080911C038132D9F580912003909121036B
:104B2000892BA9F58091E800877F8093E8000E9497
:104B3000BB2780911E0380935D010C942519809101
:104B40001C03813221F58091E800877F8093E80083
:104B50000E94BB2780911F038093E00208958091FB
:104B60001C03813AA1F48091E800877F8093E800DC
:104B70008091E80080FFFCCF8091E0028093F100FB
:104B80008091E8008E778093E8000C94BB2708950D
:104B900084B7877F84BF0FB6F894A8958091600092
:104BA000886180936000109260000FBE90E080E802
:104BB0000FB6F89480936100909361000FBE0E943D
:104BC0007C140E940D280E946A288091E200846073
:104BD0008093E20078940E94FF2A0E94821483E569
:104BE00091E00E940E1480911B03853069F40E94AD
:104BF000BB20809119038823B1F30E94A32088234E
:104C000091F30E946626EFCF0E948E140E947014CA
:104C10000E946F14E8CF0C940D26292F33272330E0
:104C20003105C9F060F42130310581F022303105C1
:104C300009F044C08BE390E02CEB33E043C0213219
:104C40003105E1F02232310549F138C082E190E0CE
:104C500027EF33E037C099278130910549F028F0DC
:104C6000029761F5EEE8F3E005C0E8EBF3E002C07F
:104C7000ECE9F3E0849190E09F0124C06115710597
:104C800041F061307105D1F489E090E027EE33E026
:104C900019C089E090E02EEC33E014C06115710575
:104CA00041F06130710551F481E890E029E034E091
:104CB00009C080E490E02AE834E004C080E090E09D
:104CC00020E030E0FA0131832083089580E189BD3E
:104CD00082E189BD09B400FEFDCF8091D8008F7DAF
:104CE0008093D8008091E00082608093E000809102
:104CF000E00081FDFCCF0895CF92DF92EF92FF920A
:104D00000F931F93CF93DF93EC018B017A010E94E5
:104D1000DA27811133C0E114F10439F0F701808101
:104D20009181081B190BC80FD91FC12CD12C01155B
:104D3000110519F18091E80085FD16C08091E80009
:104D40008E778093E800E114F10449F0F701808147
:104D50009181C80ED91ED182C08285E00FC00E9409
:104D6000DA27882321F30AC089918093F10001504A
:104D70001109FFEFCF1ADF0ADACF80E0DF91CF9180
:104D80001F910F91FF90EF90DF90CF9008952091A9
:104D90002203309123032617370748F06115710568
:104DA00039F42091E8002E772093E80001C0B90182
:104DB000FC0120E06115710579F180911B038823C6
:104DC000F1F18530F1F18091E80083FD3CC08091E4
:104DD000E80082FD2EC08091E80080FFEBCF20919B
:104DE000F3008091F20090E0922B6115710551F073
:104DF0008830910538F421912093F10061507109B8
:104E00000196F3CF21E0089709F020E08091E800B7
:104E10008E778093E800CECF2111CFCF0AC080914A
:104E20001B03882361F0853061F08091E80083FDE9
:104E30000AC08091E80082FFF2CF80E0089582E00E
:104E4000089583E0089581E0089520912203309130
:104E500023032617370748F06115710539F42091AF
:104E6000E8002E772093E80001C0B901FC0120E0A2
:104E70006115710591F180911B03882309F440C0ED
:104E8000853009F43FC08091E80083FD3DC08091EA
:104E9000E80082FD2FC08091E80080FFE9CF2091DB
:104EA000F3008091F20090E0922B6115710559F0AA
:104EB0008830910540F424912093F100319661509F
:104EC00071090196F2CF21E0089709F020E0809166
:104ED000E8008E778093E800CBCF2111CCCF0AC0B9
:104EE00080911B03882361F0853061F08091E80098
:104EF00083FD0AC08091E80082FFF2CF80E0089530
:104F000082E0089583E0089581E00895982F973016
:104F100068F59093E900981739F07091EC002091B2
:104F2000ED005091F00003C0242F762F50E021FDBA
:104F300002C09F5FECCF3091EB003E7F3093EB00DF
:104F40003091ED003D7F3093ED003091EB0031600A
:104F50003093EB007093EC002093ED005093F00041
:104F60002091EE0027FDE5CF80E008958F708093BB
:104F7000E90081E0089580911C0387FF11C08091B2
:104F8000E80082FD05C080911B038111F8CF11C09C
:104F90008091E8008B770BC080911B03882349F038
:104FA0008091E80080FFF8CF8091E8008E778093B1
:104FB000E80008952091E4003091E50095E64091E5
:104FC000EC00842F817040FF23C08091E80080FDB9
:104FD0001DC080911B03882399F0853099F0809142
:104FE000EB0085FD11C04091E4005091E5002417CD
:104FF000350729F3915011F09A01E1CF84E008952B
:1050000082E0089583E0089581E0089580E00895A6
:105010004091E80042FFDDCF08950E947B280E9466
:105020008328E0EEF0E0808181608083E8EDF0E0AD
:1050300080818F77808319BCA7EDB0E08C918E7F43
:105040008C9380818F7E808310921A0308950F9332
:105050001F93CF93DF930E947B280E948328C8ED83
:10506000D0E088818F778883888180688883888171
:105070008F7D888319BC10921B0310921703109226
:1050800019031092180300EE10E0F80180818B7F65
:10509000808388818160888342E060E080E00E94B4
:1050A0008627E1EEF0E080818E7F8083E2EEF0E003
:1050B000808181608083808188608083F801808125
:1050C0008E7F8083888180618883DF91CF911F915B
:1050D0000F910895E8EDF0E080818F7E8083E7ED09
:1050E000F0E080818160808384E082BF81E08093F2
:1050F0001A030C942728E8EDF0E080818E7F8083EE
:105100001092E20008951092DA001092E1000895E2
:105110001F920F920FB60F9211242F933F934F932C
:105120005F936F937F938F939F93AF93BF93EF930F
:10513000FF938091E10082FF0BC08091E20082FF2B
:1051400007C08091E1008B7F8093E1000E94FE2ADE
:105150008091DA0080FF1FC08091D80080FF1BC0C3
:105160008091DA008E7F8093DA008091D90080FFF1
:105170000DC080E189BD82E189BD09B400FEFDCF8B
:1051800081E080931B030E94EC2405C019BC10929F
:105190001B030E94FA248091E10080FF19C08091D6
:1051A000E20080FF15C08091E2008E7F8093E200D4
:1051B0008091E20080618093E2008091D80080625B
:1051C0008093D80019BC85E080931B030E94FE24C5
:1051D0008091E10084FF30C08091E20084FF2CC008
:1051E00080E189BD82E189BD09B400FEFDCF8091D7
:1051F000D8008F7D8093D8008091E1008F7E8093CE
:10520000E1008091E2008F7E8093E2008091E200D5
:1052100081608093E20080911703882311F084E07D
:1052200007C08091E30087FD02C081E001C083E0F8
:1052300080931B030E94FF248091E10083FF29C01B
:105240008091E20083FF25C08091E100877F8093F9
:10525000E10082E080931B03109217038091E1002C
:105260008E7F8093E1008091E2008E7F8093E20048
:105270008091E20080618093E20042E060E080E0A3
:105280000E9486278091F00088608093F0000E9441
:10529000FD24FF91EF91BF91AF919F918F917F91ED
:1052A0006F915F914F913F912F910F900FBE0F9093
:1052B0001F9018951F920F920FB60F9211242F93E3
:1052C0003F934F935F936F937F938F939F93AF938E
:1052D000BF93CF93DF93EF93FF93C091E900CF701B
:1052E0008091EC00D82FD17080FDD0E81092E900B9
:1052F0008091F000877F8093F00078940E949E292F
:105300001092E9008091F00088608093F000CD2B2E
:10531000CF70C093E900FF91EF91DF91CF91BF91E2
:10532000AF919F918F917F916F915F914F913F913D
:105330002F910F900FBE0F901F9018951F93CF9332
:10534000DF93CDB7DEB7AA970FB6F894DEBF0FBED6
:10535000CDBFECE1F3E08091F100819323E0E432F2
:10536000F207C9F70E940B258091E80083FF2EC148
:1053700080911C0390911D03492F50E04A30510544
:1053800008F024C1FA01E857FF4F0C947E2B8038B7
:1053900021F0823809F01AC108C080911803909159
:1053A0001903992389F082600FC0809120038F70C8
:1053B000873008F00BC18093E9008091EB0085FBFA
:1053C000882780F91092E9009091E800977F9093E8
:1053D000E8008093F1001092F100D1C0282F2D7FBA
:1053E00009F0F4C0882319F0823061F0EFC0809199
:1053F0001E03813009F0EAC0933009F080E0809309
:1054000019032EC080911E0381112AC080912003B0
:105410008F702FEF280F263008F0D8C08093E90056
:105420002091EB0020FF1CC0933021F48091EB0011
:10543000806214C09091EB0090619093EB0021E0AA
:1054400030E0A90102C0440F551F8A95E2F740934E
:10545000EA001092EA008091EB0088608093EB00F4
:105460001092E9008091E800877F8093E8000E9415
:10547000BB27ACC08111AAC010911E031F77809179
:10548000E3008078812B8093E3008091E800877FA0
:105490008093E8000E94BB278091E80080FFFCCF4A
:1054A0008091E30080688093E300111102C082E0E4
:1054B00001C083E080931B0389C08058823008F0CC
:1054C00085C080911E0390911F038C3D53E095078A
:1054D00079F583E08A838AE289834FB7F894DE0105
:1054E000139620E03EE051E2E32FF0E050935700A6
:1054F000E49120FF03C0E295EF703F5FEF708E2FC5
:1055000090E0EA3010F0C79601C0C0968D939D934D
:105510002F5F243149F74FBF8091E800877F809348
:10552000E8006AE270E0CE0101960E94C72616C02C
:105530006091200370912103AE014F5F5F4F0E9485
:105540000B26BC01892B09F441C09091E800977F9C
:105550009093E80089819A810E9425278091E80034
:105560008B778093E80032C0803881F58091E80025
:10557000877F8093E800809117038093F1008091EA
:10558000E8008E7772CF811121C080911E03909127
:105590001F0399270297D4F48091E800877F8093B6
:1055A000E80080911E03809317030E94BB2780911F
:1055B0001703811106C08091E30087FD02C081E0DE
:1055C00001C084E080931B030E9401258091E800C4
:1055D00083FF0AC08091E800877F8093E800809174
:1055E000EB0080628093EB00AA960FB6F894DEBFC2
:1055F0000FBECDBFDF91CF911F9108950895CF9336
:1056000080911B038823A1F0C091E900CF70909195
:10561000EC00892F817090FD80E8C82B1092E90082
:105620008091E80083FD0E949E29CF70C093E9001D
:10563000CF910895991B79E004C0991F961708F03F
:10564000961B881F7A95C9F78095089587FB082EC9
:10565000062687FD819567FD61950E941A2B0EF441
:10566000919507FC81950895AA1BBB1B51E107C0CA
:10567000AA1FBB1FA617B70710F0A61BB70B881FE2
:10568000991F5A95A9F780959095BC01CD01089571
:1056900097FB072E16F4009407D077FD09D00E94DF
:1056A000342B07FC05D03EF4909581959F4F0895CB
:1056B000709561957F4F0895A1E21A2EAA1BBB1B1E
:1056C000FD010DC0AA1FBB1FEE1FFF1FA217B307CE
:1056D000E407F50720F0A21BB30BE40BF50B661FE4
:1056E000771F881F991F1A9469F7609570958095A8
:1056F00090959B01AC01BD01CF010895EE0FFF1FF6
:105700000590F491E02D09940E948C2B332312F420
:105710008A1B9B0B0C949D2BA29FB001B39FC001D1
:10572000A39F700D811D1124911DB29F700D811DCD
:105730001124911D08950E948C2BB7FF0895821BA0
:10574000930B08950E948C2BA59F900DB49F900DF4
:10575000A49F800D911D11240895B7FF0C94A22BD6
:105760000E94A22B821B930B08958F929F92AF925F
:10577000BF92CF92DF92EF92FF92CF93DF93EC0133
:10578000688179818A819B81611571058105910507
:1057900021F464E279ED8BE597E02DE133EF41E010
:1057A00050E00E94662C49015A019B01AC01A7EA16
:1057B000B1E40E94A22B6B017C01ACEEB4EFA50119
:1057C00094010E94B02BDC01CB018C0D9D1DAE1D00
:1057D000BF1DB7FF03C00197A109B0488883998313
:1057E000AA83BB839F77DF91CF91FF90EF90DF90EB
:1057F000CF90BF90AF909F908F9008950E94B52B4F
:10580000089580E091E00E94B52B0895A0E0B0E0FB
:105810008093000190930101A0930201B0930301D2
:105820000895FC014150504030F001900616D1F728
:105830003197CF010895882799270895F999FECFC8
:1058400092BD81BDF89A992780B50895A6E1B0E090
:1058500044E050E00C94582CA8E1B0E042E050E065
:105860000C94582C262FF999FECF92BD81BDF89A41
:10587000019700B4021639F01FBA20BD0FB6F89494
:10588000FA9AF99A0FBE08950396272F0E94332C97
:105890000E94322C252F0E94332C242F0C94332C61
:1058A0000196272F0E94332C0C94322CDC01CB0163
:1058B000FC01F999FECF06C0F2BDE1BDF89A319620
:1058C00000B40D9241505040B8F70895052E97FB53
:1058D0001EF400940E947D2C57FD07D00E945C2B83
:1058E00007FC03D04EF40C947D2C509540953095D8
:1058F00021953F4F4F4F5F4F08959095809570953C
:0E59000061957F4F8F4F9F4F0895F894FFCF12
:10590E00010000000000A5030000000000000000E0
:10591E0000000000000000000000A412B412C71224
:10592E000000000000000000000000000000300138
:10593E00010000661D010102000B000B0B01191A7C
:10594E001B1C1D1E1F202122FFBB022808641E14D3
:10595E000A321E6324C024A1249D24992401F4F14B
:10596E009593F0676636C6E200E900EA00B500B628
:10597E0000B700CD008301CC008A01920194012171
:10598E0002230224022502260227022A02B300B4B1
:10599E00006F00700081828300010202020206067F
:1059AE00060909090909090F0F0F0F0F0F15151514
:1059BE001819191919191919191919232425252511
:1059CE0025252500FF0100010000FFFF000001005A
:1059DE0001FF00F634F535E200E900EA00B500B645
:1059EE0000B700CD008301CC008A01920194012101
:1059FE0002230224022502260227022A02B300B441
:085A0E00006F0070008182832B
:00000001FF
