:100000000C94CE000C94F6000C94F6000C94F600C0
:100010000C94F6000C94F6000C94F6000C94F60088
:100020000C94F6000C94F6000C945D040C94CC0433
:100030000C94F6000C94F6000C94F6000C94F60068
:100040000C94F6000C94F6000C94F6000C94F60058
:100050000C94F6000C94F6000C94F6000C94FE063A
:100060000C94F6000C94F6000C94F6000C94F60038
:100070000C94F6000C94F6000C94F6000C94F60028
:100080000C94F6000C94F6000C94F6000C94F60018
:100090000C94F6000C94F6000C94F6000C94F60008
:1000A0000C94F6000C94F6000C94F600000000028C
:1000B00000090F0000030401000C00000000000014
:1000C0000000000000000000000000080B00020219
:1000D00002000009040000010202000005240010D3
:1000E000010524010101042402060524060001077C
:1000F00005810310004009040100020A0000000706
:1001000005020240000007058302400000040309C5
:100110000412010002EF0201404123368000010178
:1001200002030141726475696E6F204C4C430041BB
:10013000726475696E6F204C656F6E6172646F00DA
:1001400000000000250028002B002E0031000000D8
:100150000000240027002A002D00300004040404BD
:10016000040304050202020204030202020206065C
:100170000606060604040202020404040802011032
:1001800040804010204080408008020401804020D0
:1001900010020110801020404020F40811241FBEDE
:1001A000CFEFDAE0DEBFCDBF21E0A0E5B1E001C0D6
:1001B0001D92AF3BB207E1F711E0A0E0B1E0EAE940
:1001C000F2E102C005900D92A035B107D9F710E019
:1001D000CEECD0E004C02197FE010E944509CD3C41
:1001E000D107C9F70E9448070C944B090C940000F2
:1001F00090E0FC01E558FE4F2491845A9E4FFC018B
:100200008491882399F090E0880F991FFC01E25BAC
:10021000FE4FA591B491FC01E05CFE4F8591949155
:100220008FB7F894EC91E22BEC938FBF0895FC010B
:1002300080916A01882311F13FB7F89482E080939E
:10024000E9002091F200822F90E01816190614F4AC
:1002500081E090E0882339F0289844E640936901D2
:100260004091F1004083222339F02091F2002111C6
:1002700003C02BE62093E8003FBF08958FEF9FEF68
:1002800008952FB7F89483E08093E9009091E800F7
:10029000892F807295FF04C09091F20080E4891B41
:1002A0002FBF08958091610181110DC082E080937C
:1002B0005D0184E080935E011092600110925F0105
:1002C00081E0809361018DE591E0089540915701AF
:1002D0005091580120915501309156014217530712
:1002E000B4F49091E8009570E1F39091E80092FDEC
:1002F00019C08093F10080915701909158010196A7
:100300008F739927892B19F48EEF8093E8008091E1
:10031000570190915801019690935801809357018D
:1003200081E0089580E00895EF92FF920F931F936C
:10033000CF93DF93F82E192FE62E042F81E0860F3E
:10034000880F0E94660183E00E946601CF2DD12FA5
:10035000EC0EFD2EF11CCE15DF05B9F007FF13C022
:10036000FE0184910E946601182F80E00E946601C0
:10037000812321968111EFCFDF91CF911F910F91B2
:10038000FF90EF9008958881EDCF81E0F5CFDF9267
:10039000EF92FF920F931F93CF93DF93D82E8A0192
:1003A000EB017B01E40EF51ECE15DF0559F0D7FEFB
:1003B00012C0FE0184910E94660121968111F4CF42
:1003C0000FEF1FEFC801DF91CF911F910F91FF90A9
:1003D000EF90DF9008958881EECF0F931F93CF9316
:1003E000DF931F92CDB7DEB782E0898342E450E00D
:1003F0006BEC70E080E80E94C7010E945201DC01B2
:1004000012960D911C910115110589F0D801ED91FD
:10041000FC910280F381E02DBE016F5F7F4FC80128
:10042000099597FD04C0F80100851185ECCF8981FD
:100430000F90DF91CF911F910F910895615030F08F
:100440002091F100FC0120830196F8CF289884E6E2
:10045000809369010895CF93DF931F92CDB7DEB7E4
:100460006983DC01ED91FC910280F381E02D41E094
:1004700050E0BE016F5F7F4F09950F90DF91CF91E4
:10048000089583E08093E9008091F200882319F0B9
:100490008AE38093E80008950E94410190E0089566
:1004A000CF93DF931F92CDB7DEB7FC01848595858E
:1004B00097FD08C02FEF3FEF358724870F90DF911E
:1004C000CF910895CE0101960E941701019719F46A
:1004D000898190E0F3CF8FEF9FEFF0CF0F931F93C1
:1004E000CF93DF931F92CDB7DEB78C01FC018485DB
:1004F000958597FF0BC0CE0101960E9417010197C9
:1005000071F4898190E0F80195878487F8018485EA
:1005100095850F90DF91CF911F910F9108958FEFE7
:100520009FEFF1CF2FB7F89480916B0190916C0100
:10053000A0916D01B0916E012FBF809377019093D0
:100540007801A0937901B0937A018FE691E00E943F
:100550006E0297FF26C02FB7F89480916B0190919F
:100560006C01A0916D01B0916E012FBF4091770198
:10057000509178016091790170917A01841B950BFB
:10058000A60BB70B409173015091740160917501F6
:100590007091760184179507A607B707B0F28FEF21
:1005A0009FEF0895FC018485958597FD0BC09FB74B
:1005B000F89482E08093E9008091F2009FBF90E080
:1005C000019608959FB7F89482E08093E9008091A6
:1005D000F2009FBF90E00895282F30E0F901E45524
:1005E000FF4F9491F901E558FE4F8491245A3E4FF4
:1005F000F9012491222309F430C09923E9F09150A4
:100600009F30D0F4E92FF0E0E85FFC4F0C944509EF
:1006100036033A0317032E0332031C031C031C0387
:100620003D03430347034B0351031C0355039091C0
:1006300080009F7790938000E22FF0E0EE0FFF1F85
:10064000E05CFE4FA591B4919FB7F894EC916111D5
:1006500032C080958E238C939FBF08959091800027
:100660009F7DE8CF90918000977FE4CF94B59F77EE
:1006700094BDE2CF94B59F7DFBCF909190009F7782
:1006800090939000D9CF909190009F7DF9CF909159
:100690009000977FF5CF9091C0009F779093C00016
:1006A000CBCF9091C0009F7DF9CF9091C200977FF2
:1006B0009093C200C1CF8E2BCECF3FB7F8948091DC
:1006C000510190915201A0915301B091540126B56E
:1006D000A89B05C02F3F19F00196A11DB11D3FBF7A
:1006E000BA2FA92F982F8827BC01CD01620F711D49
:1006F000811D911D42E0660F771F881F991F4A9543
:10070000D1F708958F929F92AF92BF92CF92DF92CE
:10071000EF92FF924B015C010E945D036B017C0133
:100720000E945D036C197D098E099F09683E734024
:1007300081059105A8F321E0821A9108A108B1086A
:1007400088EEC80E83E0D81EE11CF11C81149104D0
:10075000A104B10429F7FF90EF90DF90CF90BF90F4
:10076000AF909F908F9008958F929F92AF92BF927B
:10077000CF92DF92EF92FF920F931F93CF93DF936D
:100780006C017B018A0180910B01882309F45CC014
:1007900080916A01882309F457C080915B0180FF32
:1007A00005C08091E00082608093E000E801B12CF8
:1007B0008AEFA82E93E0892E2AE3922E209711F437
:1007C000BB20D9F10E94410181110AC0AA94AA203C
:1007D000D9F161E070E080E090E00E948203EECF0A
:1007E0008C171D0611F00CF08C2F9FB7F894809297
:1007F000E9002091E80025FD02C09FBFDFCF282F30
:1008000030E0C21BD30BF701815020F0419140939F
:10081000F100FACFE20EF31EBB2021F09092E80027
:10082000B12CEBCF8091E80085FDE7CF9092E800F6
:10083000BB24B394209709F3F3CF5D9884E68093AB
:100840005A01101611063CF081E090E0F601938306
:10085000828310E000E0C801DF91CF911F910F91DA
:10086000FF90EF90DF90CF90BF90AF909F908F90D0
:100870000895CF93DF93D82FC8E06D2F617089E082
:100880000E94EC02D69561E08CE00E94EC0260E0F0
:100890008CE00E94EC02C15081F7DF91CF91089566
:1008A000FC0101900020E9F73197AF01481B590B7B
:1008B000BC018FE691E00C94B4031F920F920FB627
:1008C0000F9211248F939F938091E1009091E1000A
:1008D000937F9093E10083FF0FC01092E90091E0B5
:1008E0009093EB001092EC0092E39093ED00109245
:1008F0006A0198E09093F00082FF22C093E0909309
:10090000E9009091F200992319F09AE39093E8009E
:1009100090915A01992341F090915A0191509093EE
:100920005A01911101C05D9A90916901992341F09A
:1009300090916901915090936901911101C0289A99
:1009400084FF18C08091E2008E7E81608093E20077
:100950008091E1008F7E8093E10080915B018E7E2B
:10096000806180935B019F918F910F900FBE0F90DC
:100970001F90189580FFF7CF8091E2008E7E8061F6
:100980008093E2008091E1008E7E8093E10080916F
:100990005B018E7E8160E5CF1F920F920FB60F92A2
:1009A0001124CF92DF92EF92FF920F931F932F9318
:1009B0003F934F935F936F937F938F939F93AF93E7
:1009C000BF93EF93FF93CF93DF93CDB7DEB76C97D1
:1009D000DEBFCDBF1092E9008091E80083FF25C003
:1009E00068E0CE0145960E941E0282EF8093E800E7
:1009F0008D8987FF39C09091E80090FFFCCF982F38
:100A0000907609F034C19E894F89588D2F89F88CD2
:100A1000911131C0803861F580915C018093F100C3
:100A20001092F1008EEF8093E8006C960FB6F89468
:100A3000DEBF0FBECDBFDF91CF91FF91EF91BF9190
:100A4000AF919F918F917F916F915F914F913F9166
:100A50002F911F910F91FF90EF90DF90CF900F900B
:100A60000FBE0F901F9018959EEF9093E800C7CF90
:100A70001092F100D5CF913059F48111D3CF41308C
:100A8000510581F680915C018D7F80935C01CACF16
:100A9000933049F48111C6CF4130510519F6809148
:100AA0005C018260F2CF953041F48091E80080FFD4
:100AB000FCCF20682093E300B5CF963009F0A9C0A1
:100AC0000B8D1C8D22E01092E900109258011092BB
:100AD0005701F2122EC010925601109255010E9439
:100AE000ED011F8299E09983FA8291E09E8390EA5A
:100AF00098879AEF99872091570130915801275F85
:100B00003F4F3C832B838D831092E9001092580154
:100B100010925701109356010093550149E050E09F
:100B2000BE016F5F7F4F80E00E94C7010E94ED0110
:100B300079CF10935601009355010E945201DC01B8
:100B400012960D911C910115110509F451C1D8019E
:100B5000ED91FC910480F581E02DBE016B5E7F4F2D
:100B6000C8010995009709F03EC1F801008511857B
:100B7000EACFF3E0FF120EC08F89882309F440C04A
:100B8000823061F440E860E18FE291E00E949401DC
:100B9000811148CF81E28093EB0047CF813029F467
:100BA00040E86BE083E291E0F1CF833099F70E9457
:100BB0005201DC011296ED90FC908E010F5F1F4FE9
:100BC0006801E114F10479F0D701ED91FC91068000
:100BD000F781E02DB801C7010995080F111DF70134
:100BE000E084F184EECFD8011C92F6010190002040
:100BF000E9F73197BF016C197D0940E0C601C6CF06
:100C00006DE071E0FB01449150E080E80E94C70173
:100C100009CF973009F4BECF983021F481E080935A
:100C2000F10000CF993009F0FDCE837009F0B2CF0A
:100C3000EFE1F1E081E031E096E32191222371F0D0
:100C40008093E9003093EB00DF0111972C91209302
:100C5000EC009093ED008F5F873079F78EE78093FB
:100C6000EA001092EA008F8980936A01DBCE8B8DB7
:100C70009C8D1092E90010925801109257019093A8
:100C8000560180935501898D811192C08E899D896D
:100C9000913A49F4813209F07DCF47E050E064E0B9
:100CA00071E080E0B3CF913209F074CF833269F400
:100CB0008F89988DB0E0A0E08093000190930101AE
:100CC000A0930201B0930301ADCE803269F480910C
:100CD000E80082FFFCCF67E084E091E00E941E0202
:100CE0008BEF8093E8009ECE823209F09BCE8F89F5
:100CF00080930B01EEEFFFE7859194918B3F9C4D24
:100D000051F1E0E0F8E08091040190910501A0919B
:100D10000601B0910701803B9440A105B105F1F4B3
:100D200080910B0180FD1AC0EE3F8AE0F80789F53B
:100D300087E797E7918380838091600080935901D2
:100D400088E19BE00FB6F894A895809360000FBEF1
:100D50009093600067CEEEEFFAE0D5CF808191816D
:100D60008737974709F05ECEA8958091600088612B
:100D7000809360008091590180936000EE3F2AE0EB
:100D8000F20789F08091FE0A9091FF0A9183808397
:100D900049CE808191818737980751F29093FF0A5D
:100DA0008093FE0AC5CF1092FF0A1092FE0A3ACE37
:100DB0000E945201DC0112960D911C910115110542
:100DC00009F4E8CED801ED91FC910190F081E02D7D
:100DD000BE016B5E7F4FC8010995811123CEF801DA
:100DE00000851185EBCF181619060CF41BCED2CE58
:100DF000F1E0FF12BECE61E171E004CF1F920F92CD
:100E00000FB60F9211242F933F938F939F93AF931D
:100E1000BF9380916B0190916C01A0916D01B09195
:100E20006E013091500123E0230F2D3758F50196C4
:100E3000A11DB11D2093500180936B0190936C0113
:100E4000A0936D01B0936E01809151019091520178
:100E5000A0915301B09154010196A11DB11D809341
:100E6000510190935201A0935301B0935401BF914B
:100E7000AF919F918F913F912F910F900FBE0F9047
:100E80001F90189526E8230F0296A11DB11DD2CF01
:100E9000CF93DF93CDB7DEB7A1970FB6F894DEBF3F
:100EA0000FBECDBF789484B5826084BD84B5816067
:100EB00084BD85B5826085BD85B5816085BD809125
:100EC0006E00816080936E0010928100809181009D
:100ED0008260809381008091810081608093810095
:100EE0008091800081608093800080919100826079
:100EF0008093910080919100816080939100809116
:100F000090008160809390008091C1008460809304
:100F1000C1008091C10082608093C1008091C100B6
:100F200081608093C1008091C30081608093C30081
:100F30008091C00082608093C0008091C200816077
:100F40008093C20080917A00846080937A008091BF
:100F50007A00826080937A0080917A008160809329
:100F60007A0080917A00806880937A0010926A01FA
:100F700010925C0110925B018091D7008160809398
:100F8000D70080EA8093D80089B5806189BD89B592
:100F9000826089BD09B400FEFDCF61E070E080E0B1
:100FA00090E00E9482038091D8008F7C80618093C2
:100FB000D8008091E000807F8093E0008091E10084
:100FC0008E7E8093E1008DE08093E200559A209A16
:100FD00088E00E94F80089E00E94F80084E00E9406
:100FE000F8008CE00E94F80086E00E94F8008AE099
:100FF0000E94F80083E10E94F8008DE00E94F80052
:1010000081E10E94F80082E10E94F800209861E0EE
:1010100088E00E94EC0261E084E00E94EC028FEF25
:101020009FEF90937C0180937B018AE0482E512CA6
:10103000612C712C01E010E090E0A92E90E0B92E17
:101040008FE691E00E94D202181619060CF0C5C076
:101050000E949202FC0197FD96C08D32910521F00D
:10106000C0970A9708F087C0C12CD12C7601912C2B
:10107000E130F105D9F0ED32F10509F481C0CF017D
:10108000C0970A9798F4AAE0B0E0A70196010E94E1
:1010900009096F01FF0FEE08FF08C60ED71EE81EF4
:1010A000F91E80E3C81AD108E108F1088FE691E043
:1010B0000E9450020E949202FC01C0970A97C0F25F
:1010C000E130F105A9F2992041F0F094E094D09438
:1010D000C094C11CD11CE11CF11C9C2CEFE0EC1550
:1010E00008F455C085E291E00E945004A7019601E2
:1010F00033274427552719A27E01F1E2EF0EF11C98
:10110000CA01B901A30192010E942309605DF701A0
:1011100062937F01211531054105510589F730970B
:1011200019F0CF010E94500484E391E00E94500422
:10113000780102C0EE0CFF1C9A94E2F760E086E0B2
:101140000E94EC028E2D0E9439048F2D0E943904DA
:1011500061E086E00E94EC0260E088E00E94EC0220
:1011600062E370E080E090E00E94820361E088E04A
:101170000E94EC0265CF8FE691E00E94500268CF9A
:101180009924939493CFC12CD12C7601A6CFF0E86B
:10119000CF120DC061E088E00E94EC0287E391E08D
:1011A0000E94500484E391E00E94500449CF8FEFE5
:1011B000C81246CF81E491E00E94500484E391E09C
:1011C0000E945004209A289862E370E080E090E04A
:1011D0000E948203289A209833CFA114B10409F405
:1011E0002FCF0E9400002CCFEFE6F1E01382128295
:1011F00088EE93E0A0E0B0E084839583A683B78374
:1012000080E191E0918380838FEF9FEF95878487C2
:1012100008950E941409A59F900DB49F900DA49F5E
:10122000800D911D11240895A29FB001B39FC001AC
:10123000A39F700D811D1124911DB29F700D811D02
:101240001124911D0895A1E21A2EAA1BBB1BFD01BA
:101250000DC0AA1FBB1FEE1FFF1FA217B307E40795
:10126000F50720F0A21BB30BE40BF50B661F771FED
:10127000881F991F1A9469F76095709580959095CD
:101280009B01AC01BD01CF010895EE0FFF1F05903A
:0A129000F491E02D0994F894FFCFCB
:10129A00FFFFFFFF00E10000000000000000000067
:1012AA002B02B4034C024102D20250026E0200C168
:1012BA0080810000005072657373696E67204B6508
:1012CA00793A20000D0A0048696768205A20494F78
:1012DA0000526573657474696E67204D435500004A
:2070000055C000006EC000006CC000006AC0000068C0000066C0000064C0000062C0000043
:2070200060C000005EC00000F2C400005AC0000058C0000056C0000054C0000052C00000EE
:2070400050C0000078C000004CC000004AC0000048C0000046C0000044C0000042C00000BE
:2070600040C000003EC000003CC000003AC0000038C0000036C0000034C0000032C0000048
:2070800030C000002EC000002CC000002AC0000028C0000026C0000024C0000022C00000A8
:2070A00020C000001EC000001CC0000011241FBECFEFDAE0DEBFCDBF11E0A0E0B1E0E2E3BC
:2070C000FFE702C005900D92A83AB107D9F711E0A8EAB1E001C01D92AE3BB107E1F78FD30B
:2070E00026C78ECFF89410926F0010928100109285001092840081E085BF15BE47985D9AEB
:20710000289A0C94000008952091B2013091B3012F5F3F4F3093B3012093B201932F37FFA6
:2071200003C08EEF831B982F990F921710F447980895479A08951F920F920FB60F9211246E
:207140002F938F939F93EF93FF9310928500109284008091A8019091A901009741F00197D3
:207160009093A9018093A801892B09F45D9A8091AA019091AB01009741F001979093AB0126
:207180008093AA01892B09F4289AE0E0F0E0859194918F5F9F4F49F08091AC019091AD0151
:2071A00001969093AD018093AC01FF91EF919F918F912F910F900FBE0F901F90189584E0BC
:2071C0008093E9000DC08091E8008B778093E80003C08EB3882351F08091E80082FFF9CFBE
:2071E0008091E80085FFEFCF8091F1000895982F83E08093E9008091E80085FD0DC0809136
:20720000E8008E778093E80003C08EB3882369F08091E80080FFF9CF9093F1005D9884E6CB
:2072200090E09093A9018093A80108954F925F926F927F928F929F92AF92BF92CF92DF921E
:20724000EF92FF920F931F93CF93DF9384E08093E9008091E80082FF57C2289884E690E067
:207260009093AB018093AA01AADF182F853481F48CE49DE19093AD018093AC0107B600FC4B
:20728000FDCFF999FECF81E180935700E89503C0843519F494DF8DE00DC28C34E1F38035F9
:2072A000D1F3843721F484E4A2DF80E003C2813611F489E5FFC18134B1F481DF182F7FDFE3
:2072C00090E0880F991FAA2797FDA095BA2F312F330F20E0442737FD4095542F822B932B68
:2072E000A42BB52BB8C1803711F483E5E3C1833549F4C0E0D1E089917ADF21E0C730D20714
:20730000D1F7D9C1863521F481E371DF80E3D2C1833731F487E86BDF85E969DF8EE1CAC149
:207320008536B9F4E0E0F0E093E085E090935700E89507B600FCFDCF80935700E89507B65D
:2073400000FCFDCFE058FF4FA0E7E030FA0771F7A2CF823739F4E1E0F0E089E08093570024
:207360008491A8C1863439F4E0E0F0E089E08093570084919FC18E3439F4E3E0F0E089E0E5
:2073800080935700849196C1813539F4E2E0F0E089E08093570084918DC1823631F489E521
:2073A00026DF80E024DF80E885C1823419F0873609F0E5C01092AD011092AC0100DF082FE8
:2073C000FEDEF82EFCDE682E8554823008F071C1902F80E0CF2DD0E0C82BD92B10926F00B3
:2073E000173609F04BC081E180935700E895DD24CC24C3943FC0E090AE01F090AF010091CC
:20740000B0011091B101B6E46B16D9F4ED2DF0E0EE29FF29E4918E2FEADEDD2081F082E08D
:2074200090E0A0E0B0E0E80EF91E0A1F1B1FE092AE01F092AF010093B0011093B101DC2470
:2074400018C0D801C701B695A7959795879559D5CEDE82E090E0A0E0B0E0E80EF91E0A1FF2
:207460001B1FE092AE01F092AF010093B0011093B1012197209709F0BECF7DC08090AE01F5
:207480009090AF01A090B001B090B10196E4691609F05DC083E0F40180935700E89507B63E
:2074A00000FCFDCF54C0F6E46F1661F5772031F1E090AE01F090AF010091B0011091B1019E
:2074C0007EDED82ECC24852D90E08C299D29F7010C0140925700E895112482E090E0A0E08B
:2074E000B0E0E80EF91E0A1F1B1FE092AE01F092AF010093B0011093B10102C060DE582E1A
:20750000742423C0E090AE01F090AF010091B0011091B10116950795F794E79450DE682FFA
:20752000C701F7D48091AE019091AF01A091B001B091B1010296A11DB11D8093AE01909349
:20754000AF01A093B001B093B101219704C05524772444244394209709F0A5CF96E46916B6
:2075600041F485E0F40180935700E89507B600FCFDCF8DE03CDE82E080936F009CC0833492
:2075800071F40091AE011091AF0119DE90E021E0F8010C0120935700E89511247CCE8336C8
:2075A00019F5E090AE01F090AF010091B0011091B10105DEF701E16090E021E00C0120938C
:2075C0005700E895112482E090E0A0E0B0E0E80EF91E0A1F1B1FE092AE01F092AF0100936A
:2075E000B0011093B10157CE8D3661F4E091AE01F091AF0185E080935700E89507B600FCF2
:20760000FDCF49CE823551F4E091AE01F091AF0105911491812FEBDD802F4CC0843421F5FE
:20762000E090AE01F090AF010091B0011091B10116950795F794E794C2DD682FC70169D4DE
:207640008091AE019091AF01A091B001B091B1010296A11DB11D8093AE019093AF01A093D8
:20766000B001B093B10117CE843609F5E090AE01F090AF010091B0011091B101D801C70142
:20768000B695A795979587953CD4B1DD82E090E0A0E0B0E0E80EF91E0A1F1B1FE092AE010A
:2076A000F092AF010093B0011093B10104C08B3111F08FE39CDD83E08093E9009091E8002B
:2076C0008091E8008E778093E80095FF04C010C08EB38823C9F08091E80080FFF9CF809193
:2076E000E8008E778093E80003C08EB3882361F08091E80080FFF9CF84E08093E9008091F1
:20770000E8008B778093E800DF91CF911F910F91FF90EF90DF90CF90BF90AF909F908F90AC
:207720007F906F905F904F9008959091B601892F8F77813249F58091B7018032A1F081328A
:2077400019F5913A09F58091E800877F8093E8008DE091E067E070E00BD28091E8008B770B
:207760008093E8000895913279F48091E800877F8093E8008DE091E067E070E05DD2809192
:20778000E8008E778093E800089582E061EC42E0B5D083E061E842E1B1D084E060E842E1EF
:2077A000ADC084B7877F84BF88E10FB6F89480936000109260000FBE20E880E090E00FB63F
:2077C000F89420936100809361000FBE81E085BF92E095BF3F9A209A559AE1E6F0E02083A1
:2077E000108247985D9A289A109289008AEF8093880090936F0083E080938100F0C0409116
:20780000000850910108109201081092000894B714BE88E10FB6F8948093600010926000D5
:207820000FBE292F30E0F901E270F07091FD18C090FF05C0859194918F5F9F4F81F423FFFF
:207840000FC08091090190910A014817590741F0E0E0F0E0859194918F5F9F4F09F042DC64
:20786000A0DF78941092AD011092AC010CC0DEDC36D38091AC019091AD0181549F4110F00D
:207880001092140141DC80911401882381F78091E00081608093E00025DC80E090E0089598
:2078A000FA01923049F0933061F09130F9F485E191E022E130E01EC087E291E02EE330E04D
:2078C00019C0882329F485E691E024E030E012C0813029F489E691E022E230E00BC0823006
:2078E00029F48DE891E028E130E004C080E090E020E030E091838083C90108958093E9004E
:207900008091EB0081608093EB001092ED006093EC004093ED008091EE00881F8827881F62
:2079200008958091B60188238CF403C08EB38823B1F08091E80082FFF9CF8091E8008B772A
:207940008093E80008958EB3882349F08091E80080FFF9CF8091E8008E778093E800089594
:20796000EF92FF920F931F9345D04CD008ED10E0F80180818F77808380818068808380819B
:207980008F7D808319BC1EBA1092B40180EEE82EF12CF70180818B7F8083F8018081816052
:2079A000808380E060E042E0A9DFE1EEF0E080818E7F8083E2EEF0E0808181608083808144
:2079C00088608083F70180818E7F8083F8018081806180831F910F91FF90EF900895E7ED06
:2079E000F0E08081816080838AE482BF81E08093B501B6CFE8EDF0E080818E7F808310921C
:207A0000E20008951092DA001092E10008951F920F920FB60F9211242F933F934F935F93F6
:207A20006F937F938F939F93AF93BF93EF93FF938091DA0080FF1BC08091D80080FF17C0B2
:207A40008091DA008E7F8093DA008091D90080FF0BC080E189BD82E189BD09B400FEFDCF36
:207A600081E08EBB3BD203C019BC1EBA37D28091E10080FF17C08091E20080FF13C0809138
:207A8000E2008E7F8093E2008091E20080618093E2008091D80080628093D80019BC85E049
:207AA0008EBB1CD28091E10084FF2CC08091E20084FF28C080E189BD82E189BD09B400FEC5
:207AC000FDCF8091D8008F7D8093D8008091E1008F7E8093E1008091E2008F7E8093E20012
:207AE0008091E20081608093E2008091B401882331F48091E30087FD02C081E001C084E067
:207B00008EBBECD18091E10083FF21C08091E20083FF1DC08091E100877F8093E10082E06A
:207B20008EBB1092B4018091E1008E7F8093E1008091E2008E7F8093E2008091E2008061E9
:207B40008093E20080E060E042E0D8DEC7D1FF91EF91BF91AF919F918F917F916F915F9130
:207B60004F913F912F910F900FBE0F901F9018959C014091BC015091BD014617570718F49D
:207B8000F90190E044C06115710511F0AB01F8CF8091E8008E778093E80040E050E0F0CF0F
:207BA0008EB3882309F444C0853009F443C08091E80083FF02C081E008958091E80082FD70
:207BC00031C08091E80080FF22C08091F3009091F200782F60E0292F30E0262B372B07C07A
:207BE00081918093F100415050402F5F3F4F4115510519F02830310598F390E02830310566
:207C000009F491E08091E8008E778093E8004115510531F6992321F605C08EB3882341F075
:207C2000853041F08091E80082FFF7CF80E0089582E0089583E008959C016115710529F47C
:207C40008091E8008B778093E800F90126C08EB3882391F1853091F18091E80083FF02C06C
:207C600081E008958091E80082FFF1CF06C08091F10081936150704059F02091F300809191
:207C8000F200322F20E090E0822B932B892B79F78091E8008B778093E80061157105B9F601
:207CA00005C08EB3882341F0853041F08091E80080FFF7CF80E0089582E0089583E00895C2
:207CC0000F931F93DF93CF9300D0CDB7DEB7E6EBF1E08091F100819381E0EE3BF807C9F792
:207CE00024DD8091E80083FFE4C08091B6019091B701953009F46DC0963040F4913081F1A7
:207D0000913070F0933009F0D4C02AC0983009F4A3C0993009F4B2C0963009F0CAC07CC023
:207D2000803809F4C6C0823809F0C3C08091BA0187708093E9008091EB001092E9002091DB
:207D4000E800277F2093E80090E025E0969587952A95E1F781708093F1001092F10087C0D8
:207D6000882319F0823009F0A4C08F71823009F0A0C08091B801882331F52091BA01277097
:207D800009F497C02093E9008091EB0080FF1BC0933021F48091EB00806213C08091EB0018
:207DA00080618093EB0081E090E002C0880F991F2A95E2F78093EA001092EA008091EB00E5
:207DC00088608093EB001092E9008091E800877F51C0882309F06DC01091B8011F770FB79B
:207DE000F8948091E800877F8093E8009ADD8091E80080FFFCCF8091E3008078812B809398
:207E0000E30080688093E300112311F482E001C083E08EBB0FBF4DC08058823008F049C033
:207E20008091B8019091B9016091BA01AE014F5F5F4F36DDBC01009709F43BC08091E8008E
:207E4000877F8093E80089819A8192DE8091E8008B778093E8002DC0803859F58091E800AA
:207E6000877F8093E8008091B4018093F1008091E8008E778093E80054DD1BC08823C9F4CA
:207E80009091B8019230A8F48091E800877F8093E8009093B40145DD8091B401882331F420
:207EA0008091E30087FD02C081E001C084E08EBB6CDC8091E80083FF0AC08091EB0080624E
:207EC0008093EB008091E800877F8093E8000F900F90CF91DF911F910F91089508951F9360
:207EE0008EB3882361F01091E9001092E9008091E80083FF01C0E4DE17701093E9001F916F
:207F00000895F999FECF92BD81BDF89A992780B50895262FF999FECF1FBA92BD81BD20BDBD
:207F20000FB6F894FA9AF99A0FBE01960895F894FFCF4341544552494E4100777700080031
:207F40000000000000080112011001020000084123360001000201000109023E00020100FF
:207F600080320904000001020201000524001001042402040524060001070582030800FF0C
:207F800009040100020A000000070504021000010705830210000104030904220341007216
:207FA000006400750069006E006F0020004C0065006F006E006100720064006F0000001836
:1A7FC00003410072006400750069006E006F0020004C004C004300000000D7
:00000001FF
